:1000000000800020BD010000A1B1000059B1000036
:1000100059B1000059B1000059B1000059B10000B8
:1000200059B1000059B1000059B10000A1B1000060
:10003000A1B1000059B100000DCD00005DCF00005E
:10004000A1B10000A1B10000A1B10000A1B1000068
:10005000A1B10000A1B10000A1B10000A1B1000058
:10006000A1B10000A1B10000A1B10000A1B1000048
:10007000A1B10000A1B10000A1B10000A1B1000038
:10008000A1B10000A1B10000A1B10000A1B1000028
:10009000A1B10000A1B10000A1B10000A1B1000018
:1000A00095500000A1B10000A1B10000A1B1000075
:1000B000A1B10000A1B10000A1B10000A1B10000F8
:1000C000A1B10000A1B10000A1B10000A1B10000E8
:1000D000A1B10000A1B10000A1B10000A1B10000D8
:1000E000A1B10000A1B10000A1B10000A1B10000C8
:1000F000A1B100002DD60000A1B1000059D7000029
:10010000A1B1000085D80000A1B10000A1B100009C
:10011000A1B10000A1B10000A1B10000A1B1000097
:10012000A1B10000A1B10000A1B10000A1B1000087
:10013000A1B10000A1B10000A1B10000A1B1000077
:10014000A1B10000A1B10000A1B10000A1B1000067
:10015000A1B10000A1B10000A1B10000A1B1000057
:10016000A1B1000005B90000A1B10000A1B10000DB
:10017000A1B10000A1B10000A1B10000A1B1000037
:10018000A1B10000A1B10000A1B10000A1B1000027
:10019000A1B10000A1B10000A1B10000A1B1000017
:1001A000A1B10000A1B10000A1B10000A1B1000007
:1001B000A1B10000A1B1000099CA0000564B4CF259
:1001C000205210B51A804DF628121A8000BF00BFC9
:1001D00000F07EFB514B4FF010621A60504A9A605B
:1001E000504ADA60504A136813F4807304D14F49BF
:1001F0000B604FF4A85313604D4B1A78110703D5C9
:100200001A7842F008021A704A4B4B492A221A7097
:100210004A4A4B4B8B4204D252F8040F43F8040B6A
:10022000F8E7484B484900228B4202D243F8042B9E
:10023000FAE74649464A002352F8230041F82300D2
:1002400001336F2BF8D1434B434A802103F8011B44
:100250009342FBD1414B3D4A1A60414B8A221A70AE
:10026000A3F5805324225A70A0221A709A7992071B
:10027000FCD59A79D406FCD43A4A937903F00C035E
:10028000082B384BF9D105221A7143225A719A79F9
:100290009006FCD5334A9179324B4906FBD5324A58
:1002A0004FF0817111600521516020221A709A79F6
:1002B00002F00C020C2AFAD12C4B2D4A1A602D4B5D
:1002C0002D4A1A6000225A60072243F8042C2B4A58
:1002D000C3F80C2D62B60BF085F8144B1B68DA07D7
:1002E00005D527480BF06CF8264B274A1A60274B98
:1002F0001B785B0609D5234C234B22689A4204D114
:100300001F480BF05DF8002323600EF087FE0AF013
:100310004BFF0DF0E9F8FEE70E2005403080044069
:10032000823F04000100002B10D0034014D0034092
:1003300002D0074000E00740E809002018740100DF
:1003400020F9FF1FE8090020FC56002000F4FF1FE1
:100350000000000000E400E05FE400E008ED00E0E1
:1003600000500640004006404480044004800440A1
:10037000C010050014E000E03F190100000020203B
:100380006B529A5C1CE00340A5C3945A00F00740EE
:10039000FFFFFFFFFFFFFFFFFFFFFFFFFFFFFFFF6D
:1003A000FFFFFFFFFFFFFFFFFFFFFFFFFFFFFFFF5D
:1003B000FFFFFFFFFFFFFFFFFFFFFFFFFFFFFFFF4D
:1003C000FFFFFFFFFFFFFFFFFFFFFFFFFFFFFFFF3D
:1003D000FFFFFFFFFFFFFFFFFFFFFFFFFFFFFFFF2D
:1003E000FFFFFFFFFFFFFFFFFFFFFFFFFFFFFFFF1D
:1003F000FFFFFFFFFFFFFFFFFFFFFFFFFFFFFFFF0D
:10040000FFFFFFFFFFFFFFFFFFFFFFFFDEF9FFFF23
:1004100010B5054C237833B9044B13B10448AFF33E
:1004200000800123237010BDE809002000000000B7
:1004300014740100084B10B51BB108490848AFF30C
:1004400000800848036803B910BD074B002BFBD0A0
:10045000BDE81040184700BF00000000EC09002074
:1004600014740100E809002000000000002070471B
:10047000704700BF027C02F0080202F0FF0332B1B5
:10048000C36A406A181A48BF6FF0004070471846A8
:10049000704700BFF8B55548554D564C297803783C
:1004A0002278DFF868E1544F544E120442EA0323E5
:1004B000FF222A700270802022708EF800003870AF
:1004C000B2794F480B4312F00C0FC36002D1B379DD
:1004D000DC063DD4494A9379C3F38103032B40D012
:1004E000464B9A79C2F38102022A42D0434A937959
:1004F000C3F38103022B53D0404A9379C3F38103A2
:10050000022B61D03D4A9379C3F38103012B51D073
:100510003A4A9379C3F38103012B5CD0374B9A7924
:1005200012F00C0F03D19A79D20600D49B79354D85
:10053000354B2A7853F82240D4B1236820469B6873
:1005400098472B7804EB83046468002CF5D1F8BD40
:10055000B3799806EBD5294A9379C3F38103032B2A
:10056000BED19379D906BBD493799B06DFD4B7E784
:10057000F8BD9A79D706B9D49A799606B6D559783E
:1005800001F0020101F0FF020029AFD120211A7011
:100590001A461970937903F00C030C2BFAD1C6E7B5
:1005A0009379DD06A8D493799C06A5D4537898074F
:1005B000BDD5A1E79379DF06AAD593799E06A7D486
:1005C00053789D07B3D4A3E79379D9069AD4537887
:1005D0009B07ACD496E79379DC069FD59379980670
:1005E0009CD453789907A2D598E700BF06C007406E
:1005F00005C0074007C0074009C00740004006404B
:10060000D4560020AC5300206C53002008C0074093
:1006100090F92410104B03604B1C06D0F0B40F4E21
:1006200056F82130984201D0F0BC70470C4F57F873
:10063000213033B18D0000245A1953685460002BC7
:10064000FAD1084C23780022013B237047F821207F
:1006500046F82120E8E700BFCC6201008C5300205F
:100660006C530020AD53002038B590F924506B1C1A
:100670001BD00E4B0E4953F825400E4BEDB24FF0F8
:10068000FF320D701A6084B1AD0002E02C44646842
:100690005CB194F82530002BF8D0236820462C4418
:1006A0001B6898476468002CF3D138BD6C53002058
:1006B000AC530020B8F3FF1F704700BF90F924101F
:1006C000104B03604B1C06D0F0B40F4E56F821308F
:1006D000984201D0F0BC70470C4F57F8213033B12D
:1006E0008D0000245A1953685460002BFAD1084C2D
:1006F00023780022013B237047F8212046F821206F
:10070000E8E700BFCC6201008C5300206C5300204E
:10071000AD53002090F92410104B03604B1C06D001
:10072000F0B40F4E56F82130984201D0F0BC70471B
:100730000C4F57F8213033B18D0000245A195368FB
:100740005460002BFAD1084C23780022013B23701F
:1007500047F8212046F82120E8E700BFCC620100DD
:100760008C5300206C530020AD53002010B50021A5
:1007700004460CF055F9B0B1B4F8B4319BB2C3B132
:10078000B4F8B031B4F8B2219BB20133632BC8BFC7
:10079000002392B2934207D09A1D04EB82029BB2CF
:1007A0005060A4F8B03110BDD4F8B8310133C4F8AA
:1007B000B831BDE810400CF0EFB800BF103005F0C4
:1007C00059BC00BF00B583B002AB012203F8011D84
:1007D0001030194605F04EFC03B05DF804FB00BF75
:1007E000103005F023BB00BF00B583B001220DF12E
:1007F0000701103005F054FA01280CBF9DF80700DE
:100800004FF0FF3003B05DF804FB00BF103005F07F
:10081000E3BB00BF2DE9F0410E4680460AF0CAFD59
:10082000174D286007F092FF0746286807F06AFF17
:100830000446286807F054FF6401C0B204F4FF5472
:10084000BFB20443A7F2BC7744EA4724A8F80040AB
:10085000286807F069FF0746286807F01DFF04466F
:10086000286807F02BFFFF02640107F4FF2704F458
:10087000FF54C0F346003C4304433480BDE8F0819C
:10088000EC4E002038B5054C014620460CF082FBAA
:10089000054620460CF0F8FB284438BD8CFFFF1FAE
:1008A00010B504460FF08CFA21460246BDE8104010
:1008B00001480CF05BBB00BFBC51002010B50446E2
:1008C0000FF07EFA01462046BDE810400BF08CBECA
:1008D000464A474B102010801B781B0734D5F0B5D3
:1008E000444E454D454C31782B782278DFF82CE189
:1008F000434F824042EA03230B43FF2280213270A0
:100900002A7022708EF800103970D9073D4A14D52C
:100910001A2393603C4F3D4E3D4D3E4C3E4910796D
:1009200000233B7053709370D370D3603370137196
:100930002B70237013700870F0BD1F0705D4DE06FE
:1009400006D504239360E5E7704721239360E1E730
:100950009D0604D45C0604D516239360DAE7906004
:10096000D8E7180602D509239360D3E7D90502D545
:100970000A239360CEE79F0502D50D239360C9E754
:100980005E0502D50B239360C4E71D0502D51E2327
:100990009360BFE7DC0402D502239360BAE79804B2
:1009A00002D507239360B5E7590402D50623936067
:1009B000B0E71F0402D515239360ABE7DE0302D531
:1009C00024239360A6E79D0302D522239360A1E729
:1009D000DC0202D5252393609CE71803F5D4590364
:1009E000F3D49B0244BF2323936093E70020054088
:1009F00002D0074005C0074006C0074007C00740B7
:100A000009C00740D456002000C0074001C007407D
:100A100002C0074003C0074004C0074008C00740A9
:100A2000002976D02DE9F04F0C469100631883B071
:100A30005D68002D57D06B185E68002E50D073187B
:100A40005F68002F49D07B18D3F80480B8F1000FFD
:100A50003CD008EB0103D3F80490B9F1000F32D079
:100A600009EB0103D3F804A0BAF1000F27D00AEB79
:100A70000103D3F804B0BBF1000F18D00BEB010356
:100A80005B6863B1194401934968FFF7C9FF019B93
:100A900093F825201AB11A681846536898479BF8AE
:100AA000253023B1DBF8003058465B6898479AF848
:100AB000253023B1DAF8003050465B68984799F842
:100AC0002530002B35D198F8253063BB97F82530B9
:100AD0001BB13B6838465B68984796F82530CBB920
:100AE00095F8253063B994F8253013B903B0BDE803
:100AF000F08F23685B68204603B0BDE8F04F1847CD
:100B00002B6828465B68984794F82530002BEDD079
:100B1000EFE77047336830465B68984795F82530B3
:100B2000002BE0D0ECE7D8F8003040465B689847EF
:100B3000CCE7D9F8003048465B689847C3E700BF68
:100B400090F92420531C26D01B4B2DE9F04153F87B
:100B50002240D2B2ECB19300E1184D68B5B1E9186A
:100B60004E6866B1F1184F6837B13B445968FFF7DA
:100B700057FF97F82530A3B996F8253063B995F853
:100B800025301BB12B6828465B68984794F82530C0
:100B900063B9BDE8F0817047336830465B689847B9
:100BA000EDE73B6838465B689847E5E723682046F1
:100BB0005B68BDE8F04118476C5300202DE9F8430D
:100BC0004F4CB4F8B021B4F8B23192B29BB29A4211
:100BD00038BF6432D31A3F2B67DD4A4DD4F8AC914D
:100BE000DFF81C8105F58047002637E04FF480725E
:100BF000002109F0F7FE48460BF0CEFEC4F8AC61C8
:100C0000B4F8B231B4F8B0219BB292B293424ED054
:100C10000133632B86BF4FF0000E73461FFA83FE2D
:100C2000063304EB83034FF48072D3F80490C4F8C6
:100C3000AC9109F104012846A4F8B2E109F0D2FE12
:100C4000B9F1000F04D048460BF0A6FEC8F8AC611D
:100C500005F50075BD424FF0000934D0A5F5807050
:100C6000B9F1000FC2D1B4F8B231B4F8B0219BB2DF
:100C700092B293423DD00133632B86BFCE4673467A
:100C80001FFA83FE063304EB83034FF48072D3F81C
:100C90000490C4F8AC9109F10401A4F8B2E109F0A0
:100CA000A1FEB9F1000FABD0A5E7BDE8F883284657
:100CB0004FF48072002105F5007509F093FEBD42E6
:100CC0004FF00009CAD14FF480420F490F4805F098
:100CD000D1F9013005D00E4A136820331360BDE806
:100CE000F883012114200AF0D1F90A4B0A4A1A604C
:100CF000F1E749464FF4807209F074FE80E700BFC7
:100D0000004F0020700B0020700A0020480A0020CD
:100D1000FC4E00200CED00E00400FA0570B5124C0A
:100D2000124D13480D210BF05FFC20460CF0ACF97E
:100D30002E88104810210BF057FC314620460CF04D
:100D400029F920460CF0A0F90B4A0C4B12882A8096
:100D50000B480022A3F8B42104F04AFD6420BDE84A
:100D600070400AF0A5BC00BF8CFFFF1FC4540020D8
:100D7000F062010000630100EC540020004F0020ED
:100D8000480A00202DE9F04F95B00AF013FBDFF878
:100D90006892884CC9F8000007F0B4FC23689842B8
:100DA00000F067820A218448844E854F0BF01CFCBA
:100DB00084480CF069F9D9F8000007F0A3FC206022
:100DC000D9F8000007F0C2FC23687F4902467F483B
:100DD0000EF088FF002401237C4A7D49376007A874
:100DE0008DF81C408DF81D4004F01EFEDFF8DC81FC
:100DF000002110200AF020FC98F8002000232F2A60
:100E00008DF81C308DF81D3000F0B68107AC2046FF
:100E100001236E4A6E4904F0A3FE58B19DF81C30C0
:100E200013F0700F06D00FCC694D0FC50FCC0FC556
:100E300023682B60D9F8000007F088FC0446D9F835
:100E4000000007F05FFC8246D9F8000007F048FC7C
:100E50000590D9F8000007F067FC8346D9F8000038
:100E600007F01AFC0490D9F8000007F027FC059A57
:100E7000049B0092039002932246CDF804B053469F
:100E8000544955480EF02EFF0025082437601020E5
:100E900009F0E0FF0DF0A2FC4FF06A510DF0F2FCFA
:100EA000014628460DF0E6FB013C0546EFD14848D7
:100EB000DFF8489104F09CFC484901F23C4004F002
:100EC000CFFE4FF47A7646230BA8454A40498DF869
:100ED0002C408DF82D408DF820408DF82840099643
:100EE000CDF81C9004F03CFE9DF82C30002B40F017
:100EF00051810E213B480BF077FB012114200AF0B1
:100F0000C5F8394B394A1A6098F800202F49002358
:100F10002F2A8DF81C308DF81D3000F0208107A895
:100F200001232A4A2A4904F01BFE60B19DF81C30B7
:100F300013F0700F07D007AC0FCC254D0FC50FCCA9
:100F40000FC523682B604FF47A7500240995C223DE
:100F5000214A1F498DF82C400BA80BAD8DF82D4070
:100F60008DF820408DF82840CDF81C9004F0F8FD55
:100F70000FCD1F4E9DF82040347106F110040FC4B0
:100F80000FCD0FC4099A9DF828302968B2603373D9
:100F9000114821600EF014FF01460F48154FDFF88D
:100FA00048B0DFF848A00BF01FFB06480CF06CF8C7
:100FB0006CE000BF28520020146301006853002039
:100FC000150800008CFFFF1F20630100D050002097
:100FD000B04E00202C63010094510020744A002080
:100FE0004C6301008C6301000CED00E00400FA0585
:100FF000380A0020CC500020EC4E0020A8620100EE
:1010000004F0AEFD60B19DF81C30AA4D13F0700FD6
:1010100007AC05D00FCC0FC50FCC0FC523682B60D4
:101020004FF47A750024C223A34AA24909950BA85C
:101030000BAD8DF82C408DF82D408DF820408DF8AB
:101040002840CDF81C9004F08BFD0FCD9B4C9DF8F3
:1010500020E086F804E00FC40FCD0FC49DF82830BF
:10106000099A33732968B260934821600EF0A8FE94
:10107000014691480BF0B8FA91480CF005F80A20A7
:101080000AF016FB3B68B3F57A7F61DC347C8D494E
:101090008948F4B93B6801331A463B600EF022FEE2
:1010A00098F80050884A83498DF81C402F2D4FF046
:1010B000010307A88DF81D40A2D15478002C9FD1C0
:1010C000084604F095FB814901F23C4004F0C8FD5C
:1010D000A6E77F487F4907687F4C804A804B814D57
:1010E00003C9206092E80300A06093E80300102683
:1010F0000123A382E382E060266138460DF0AEFD55
:101100003946A06138460DF0B5FA0DF0A7FD764AD4
:10111000E0612B68668492E803005B0203F1240619
:101120002C226062214602276448A36227846660FD
:1011300004F0A0FF09216D480BF056FA29686048B9
:101140000BF028FF5E480BF09FFF15B0BDE8F08F55
:101150000121142009F09AFFCBF800A096E74B7804
:10116000002B7FF4DCAE534804F042FB574901F2F8
:101170003C4004F075FDE6E698F80130002B7FF462
:1011800045AE4C4804F034FB504901F23C4004F0B9
:1011900067FD4FE64848564E0EF012FE464902469D
:1011A0000BA804F067FF14A92C2301F8383D012295
:1011B0000DEB030004F05EFF06F1080707AC16F81C
:1011C000011F00230A2220460BF0AEFFBE42F6D1DB
:1011D000284648490DF056FB4FF078510DF052FB70
:1011E00014A92C260546012201F8356D0DEB0600E9
:1011F00004F040FF404B18680CF09AFE02270B46A3
:101200000246009720460BF0EBFF14A9012201F8DB
:10121000366D0DEB060004F02DFF28460CF088FE1D
:1012200000970B46024620460BF0DAFF14A9012274
:1012300001F8376D0DEB060004F01CFF2F480EF08F
:10124000BFFD2E4902460DEB060004F013FF2046B9
:101250000BF01AFF28462A490DF0B2FC60B9284667
:1012600028490DF0ADFC002858D10BA804F0C0FAB5
:101270004AE6254E254FB9E5254E3368002BEED0C2
:10128000012105200AF0A6F940F6B8300AF010FA5C
:10129000002105200AF09EF91E4A1F490023137001
:1012A0000BA80B22336004F0E5FE20460BF0ECFEA9
:1012B000D5E700BFB04E002094510020480A00201E
:1012C0008CFFFF1F9C630100D0500020744A002057
:1012D00008520020A863010078520020B06301008A
:1012E000B8630100F4510020C0630100C86301002D
:1012F00053510020CDCCBC406451002008FAFF1FA0
:101300006666464000004040685300201508000013
:1013100060510020F94E0020546301002822174933
:101320000BA804F0A7FE20460BF0AEFE0BA804F0BD
:101330005FFA00250824102009F08CFD0DF04EFA0C
:101340004FF06A510DF09EFA014628460DF092F9D1
:10135000013C0546EFD10A490DF094FA4FF078515F
:101360000DF090FA07490DF02BFC00283FF47DAFFB
:1013700047F230500AF09CF9DBE700BF60630100E0
:10138000CDCCBC400000404038B50E211C481D4D5E
:101390000BF02AF91C480BF077FEFFF7F3FC1B4B10
:1013A000D5F8AC0100241C6018B10BF0F5FAC5F8B3
:1013B000AC41B5F8B241B5F8B031A4B29BB2A3428A
:1013C0000ED00134642C28BF0024A31D05EB830339
:1013D00058680BF0E1FAB5F8B0319BB2A342F0D1F6
:1013E0000123A4B20B210A48A5F8B241A5F8B431F3
:1013F0000BF0FAF80448BDE838400BF045BE00BFDA
:10140000D4630100004F00208CFFFF1FFC4E002022
:10141000E463010070B517488EB004F0E9F916498D
:101420000EAD01F23C4004F01BFC144B45F8343D7A
:1014300000244623124A0F498DF8144005A84FF4A2
:101440007A768DF815408DF808408DF81040039697
:1014500004F086FB9DF8143053B12922094905A8F0
:1014600004F008FE28460BF00FFE05A804F0C0F9B2
:101470000EB070BDB04E0020744A0020A86201007A
:101480004C630100F0630100264B1B680F2B0CD846
:10149000DFE803F00C1014181C2024282C303438FA
:1014A0003C404408204B214A1A6070471E4B204A9A
:1014B0001A6070471C4B1F4A1A6070471A4B1E4A2D
:1014C0001A607047184B1D4A1A607047164B1C4A29
:1014D0001A607047144B1B4A1A607047124B1A4A25
:1014E0001A607047104B194A1A6070470E4B184A21
:1014F0001A6070470C4B174A1A6070470A4B164A1D
:101500001A607047084B154A1A607047064B144A18
:101510001A607047044B134A1A607047024B124A14
:101520001A60704700FAFF1F64510020BD549341B8
:10153000103377C0993918C0BE0D68BFCE71153F02
:101540008D090340CCC9624009A7A3407DDBD1408F
:10155000C416014154FC1741D0E8304119554641A9
:101560009FAB5F41A04176415E2E8641F8B5394D73
:10157000394C2A6854F8223013B1013B44F8223028
:1015800010213648334F0BF02FF82B68344854F8AD
:1015900023100A2200230BF0C7FD31480BF074FD25
:1015A0002B6854F82320DAB901332E4A3B60012618
:1015B000042B167022D02C4C2C4A04F58C6712F8A0
:1015C0002320384604F26C414FF0384305F0B4FF55
:1015D000E0B92748FFF772F928680130FFF752F9A0
:1015E0000E2124480BF000F829681D4801310BF04A
:1015F000D1FC1B48BDE8F8400BF046BD0E211E484B
:101600000AF0F2FF16480BF03FFDFEE704F23C4003
:10161000276004F0EDF83146204605F091FE0146C2
:1016200090B1114C04F23C463046214604F018FBC0
:101630000028CED094F83C3413F0700FC9D00F4B73
:101640001E60FFF7E7FECBE7204605F079FE002895
:10165000E7D1BEE764520020105200201C64010054
:101660008CFFFF1F00520020744A0020BC50002055
:1016700050640100406401003064010064530020A4
:1016800008B50121052009F0A5FF4FF4FA600AF022
:101690000FF80021052009F09DFF024B01221A706E
:1016A00008BD00BFF94E002008B50121052009F052
:1016B00091FFC82009F0FCFF0021052009F08AFFF6
:1016C000642009F0F5FF024B01221A7008BD00BF2B
:1016D000F94E002008B50121052009F07BFF40F6F6
:1016E000B83009F0E5FF0021052009F073FF024B37
:1016F00000221A7008BD00BFF94E00202DE9F0430A
:101700008FB004460EF05CFB00B201281CDDB4F97A
:10171000003044F25372934200F0A68118DD44F683
:101720005452934200F0DA8045F2532293422FD074
:1017300044F65212934207D10BAAE01CBD490EF0A9
:10174000F7FABD4B0B9A1A6001200FB0BDE8F08389
:1017500044F24E4293420FD044F252429342F3D1AC
:101760000BAAE01CB3490EF0E3FAB44B0B9A1A60D3
:1017700001200FB0BDE8F0830BAAE01CAD490EF0CC
:10178000D7FAAF4B0B9A1A6001200FB0BDE8F08377
:101790000AAD09A908AA05ABE01C039502910192C4
:1017A000009307AA06ABA7490EF0C2FAA64B079D05
:1017B000596818689A680A9EDDF824E0DDF820C0B0
:1017C000A5F5FA65ADB20BAF2CB207C7069F059918
:1017D0001E3415F0030F4FEAA408FDB240F0598102
:1017E0009A4B022D8CBF1F4600279948994BC8EB96
:1017F000040400FB08F06A1E03FB0400002A00EB4F
:10180000070347DD9DF82C409048012A00FB043374
:1018100040D09DF82D40022A00FB04333AD09DF8B9
:101820002E40032A00FB043334D09DF82F40042AB5
:1018300000FB04332ED09DF83040052A00FB043312
:1018400028D09DF83140062A00FB043322D09DF8B1
:101850003240072A00FB04331CD09DF83340082A8D
:1018600000FB043316D09DF83440092A00FB0433F2
:1018700010D09DF835400A2A00FB04330AD00B2A09
:101880009DF8364018BF9DF8372000FB043318BF81
:1018900000FB02335FFA8EF2C2EB02125FFA8CF0A9
:1018A0004FF46164920004FB0022684D6A4C6B485F
:1018B000C9B2013952FA86F205FB01221344122102
:1018C00023600AF091FE216865480BF063FB6448D1
:1018D0000BF0DAFB01200FB0BDE8F0830AAD09A9D7
:1018E00008AA05ABE01C039502910192009307AA98
:1018F00006AB54490EF01CFA534B079F9A681868C0
:1019000059680A9EDDF824E0DDF820C0A7F5FA67E3
:10191000BFB20BAC3DB207C4069A059C1E3517F04A
:10192000030F4FEAA508D7B240F0B080474B022F13
:101930008CBF99464FF000094549464BC8EB050559
:1019400001FB08F17A1E03FB0510002A00EB0903D6
:1019500047DD9DF82C003D49012A01FB003340D0B2
:101960009DF82D00022A01FB00333AD09DF82E008D
:10197000032A01FB003334D09DF82F00042A01FB19
:1019800000332ED09DF83000052A01FB003328D00B
:101990009DF83100062A01FB003322D09DF8320069
:1019A000072A01FB00331CD09DF83300082A01FBF5
:1019B000003316D09DF83400092A01FB003310D003
:1019C0009DF835000A2A01FB00330AD00B2A9DF846
:1019D000360018BF9DF8372001FB003318BF01FB0C
:1019E00002335FFA8EF2C2EB02125FFA8CF04FF410
:1019F0006165920005FB0022E1B2144C164D52FACB
:101A000086F2013904FB01241C4420462C6009F0B5
:101A1000D7FC0B2113480AF0E7FD214600230A22D8
:101A20000F480BF081FB0E480BF02EFB01200FB08E
:101A3000BDE8F0839064010048FAFF1F3CFAFF1FE5
:101A40006C0A002070640100D8620100805101001E
:101A50000085E2018033E101F44E0020946401002E
:101A60008CFFFF1F84640100E01C0BAA0C490EF0E0
:101A70005FF90B9B0F2B0ED90A4B042119600F2025
:101A800009F004FB01200FB0BDE8F0834FF000091E
:101A900052E70027A9E6034AD9B21360EFE700BF77
:101AA0009064010000FAFF1F2DE9F043A3B0002568
:101AB0004FF47A76764F77480A968DF830508DF845
:101AC00031508DF824508DF82C50089703F090FE7B
:101AD000714901F23C4004F0C3F801236F4A6D499B
:101AE000179619A88DF864508DF865508DF85850E8
:101AF0008DF86050159704F033F80DF1640EBEE8D0
:101B00000F000CAE0FC6BEE80F000FC69DF8308068
:101B1000DEF800109DF85800179A9DF8603031608B
:101B20008DF824000A928DF82C30B8F1000F46D0C1
:101B30002E468DF800604FF000094FF0FF0801229B
:101B400015A90CA804F0ACF809F1010322AA012898
:101B50004A441BB224D01D2B02F8888C05DC994620
:101B6000EDE71D2B01DC0A2AF9D1013B9BB222AA29
:101B70001A4402F8886C9DF800202F2A04D0012B0B
:101B800002D96846FFF7BAFD9DF830301B0711D423
:101B90000CA803F02DFE2DBB012023B0BDE8F0837F
:101BA0009DF854200D2A08BF4B4662D11D2BDCDC6A
:101BB0009946C4E7139A119B9A42BAD1E8E71421D7
:101BC00037480AF011FD37480BF05EFA0D2236490E
:101BD00036480BF0CBF935480BF056FA404623B0A7
:101BE000BDE8F0830B2132480AF0FEFC00230A22F4
:101BF00021462C480BF098FA2A480BF045FA254864
:101C000003F0F6FD2449002501F23C4004F028F8D9
:101C10004FF47A768DF864508DF865508DF85850F1
:101C20008DF8605063231D4A1A49179619A819ADFB
:101C3000159703F095FF0FCD0CAE0FC60FCD0FC655
:101C40002968179A9DF860309DF8585031600CA8AB
:101C500021460A928DF82C308DF8245004F01AF9A0
:101C6000022214490CA804F005FA0CA803F0C0FDE8
:101C700092E722AB03EB0901542A09F1010301F8B1
:101C8000882C1BB27FF46DAF119C0546013C8DE79B
:101C9000A8620100B04E0020744A0020A864010030
:101CA000C46401008CFFFF1FDC640100BC510020F4
:101CB000B4640100C064010030B583B002AD079C7C
:101CC00005F8082D8DF80200069A8DF804304E3480
:101CD00028468DF801108DF805208DF8064006F095
:101CE00049FD09F06DFB09F065FB024B186003B07C
:101CF00030BD00BF704A00202DE9F04104460420A9
:101D00000D46164609F08AFC8046032009F086FC41
:101D10000746B8F1000F2AD1DFF89C80244AD8F892
:101D200000300121132B117039DD0133642BC8F809
:101D300000303ADDC82BD4BF05343C3467B91D4FA1
:101D40001B4A3B680121132B117022DD3C2C16DC51
:101D500001233B60013C02E0164B00221A60AC42BA
:101D600009DBB442C8BF2C462046BDE8F081124BC7
:101D700000221A60E2E734462046BDE8F0813B6865
:101D80000133642B3B60E5DDC82BD4BF053C3C3CF4
:101D9000E5E7C82009F08CFC3C2CD9DDEFE7C82032
:101DA00009F086FCD8F80030BFE70134C6E700BF71
:101DB000F04E0020205200200452002010B5094CA3
:101DC000204608F02DFA2046012107F04FFC20465E
:101DD000022107F045FC002220461146BDE81040D4
:101DE00007F03ABCBC51002038B5054606F0AEFC01
:101DF0001E4C014620460BF0CDF82D200AF0C8FC01
:101E0000284606F07FFC014620460BF0C3F82D2043
:101E10000AF0BEFC284606F063FC014620460BF0A3
:101E2000B9F8012112480AF0DFFB284606F07CFCD5
:101E3000014620460BF0AEF83A200AF0A9FC2846ED
:101E400006F02AFC014620460BF0A4F83A200AF0DE
:101E50009FFC284606F032FC014620460BF09AF81B
:101E60002046BDE838400BF00FB900BF8CFFFF1FC4
:101E70004C6601002DE9F043434A444BDFF81891CA
:101E8000DFF81881424D98F80010167899F8007024
:101E90001A78286883B03C2313FB071713FB062628
:101EA00006F042FC0446286806F0F6FBC4EB041476
:101EB00000EB8404286806F049FC00F14E03286812
:101EC0008DF8063006F01EFC8DF80500286806F037
:101ED00007FCB7428DF8040006D2A74232D8A642CA
:101EE00030D303B0BDE8F083A742FAD9A642F8D2B6
:101EF00002A8002399F8002000F8083D98F8003067
:101F00008DF801308DF8022006F034FC0F21286096
:101F100020480AF069FB2868FFF766FF09F04AFAD3
:101F20002B68834204DA03F5A83303F5C0732B60F2
:101F30000F2118480AF058FB2868FFF755FF03B037
:101F4000BDE8F08302A8002399F8002000F8083DBE
:101F500098F800308DF801308DF8022006F00AFC68
:101F60000F2128600B480A4C0AF03EFB2868FFF757
:101F70003BFF09F01FFA2B688342D9DA03F5A83337
:101F800003F5C0732360D3E790510020F84E002082
:101F9000F44E0020EC640100340A0020605200205E
:101FA00010B5002009F01CF8264C2070012009F023
:101FB00017F86070022009F013F8A070032009F0F0
:101FC0000FF8214BE07022681A60042009F008F82D
:101FD0002070052009F004F86070062009F000F870
:101FE000A070072008F0FCFF184BE07022681A6010
:101FF000082008F0F5FF164B1870092008F0F0FFD4
:10200000144B18700A2008F0EBFF134B18700B20CC
:1020100008F0E6FF114B18700C2008F0E1FF104BA0
:1020200018600D2008F0DCFF0E4B18600E2008F041
:10203000D7FF08B10C4B18700F2008F0D1FF0B4BE5
:10204000186010BD685100203CFAFF1F48FAFF1FBE
:10205000340A00206052002090510020F84E0020E9
:10206000F851002030FAFF1F38FAFF1F00FAFF1F57
:1020700038B50A4C0B460546C9B2236009F006F88C
:102080006178681C09F002F8A178A81C08F0FEFF2E
:10209000E178E81CBDE8384008F0F8BF685100203E
:1020A000284B10B51968284C00202160C9B208F0EF
:1020B000EDFF6178012008F0E9FFA178022008F027
:1020C000E5FFE178032008F0E1FF204B196821606B
:1020D0000420C9B208F0DAFF6178052008F0D6FFC5
:1020E000A178062008F0D2FFE178072008F0CEFFA3
:1020F000174B0820197808F0C9FF164B09201978EA
:1021000008F0C4FF144B0A20197808F0BFFF134BE6
:102110000B20197808F0BAFF114B0C20197808F041
:10212000B5FF104B0D20197808F0B0FF0E4B0E20B4
:10213000197808F0ABFF0D4B0F201978BDE810405F
:1021400008F0A4BF3CFAFF1F6851002048FAFF1FA7
:10215000340A00206052002090510020F84E0020E8
:10216000F851002030FAFF1F38FAFF1F00FAFF1F56
:102170002DE9F04F8DB010290791069000F0BF8037
:10218000202900F0B0800024631C18461D460893E7
:102190000CF020FBE4B244F0E063099000212846F3
:1021A0000A9344F08E430B930CF02EFB01465A48E1
:1021B0000CF01CFC054607980CF00CFB01460CF0DB
:1021C00059FA044606980CF005FB014620460CF02F
:1021D00059FB014628460CF009FC4FF001084FF06E
:1021E0007E550746C1464FF0010A4FF0000B50469E
:1021F0000CF0F4FA39460CF045FB04460CF008FDEF
:102200000CF0ECFA014620460CF032FA294606465C
:102210000CF0D6FC4FF0874148B120460CF0D0FCC2
:1022200028B120460CF03AFD35468046D1461AF1D9
:10223000010A4BF1000BBBF1000F08BFBAF1400FD0
:10224000D5D109F1FF34089B079E059320460296DD
:10225000CDF81080CDF80C900CF0BCFA4FF07E5108
:102260000CF008FA2D490CF00DFB054640460CF029
:10227000B1FA014628460CF0B9FB4FF07C510CF046
:1022800001FB09990CF0B2FB054670000CF0A6FAB0
:10229000014628460CF0AAFB0CF0BAFC204B069A2B
:1022A000019000921F492048204E214D1A460AF005
:1022B0002DFF204920480F68220308F1FF3302F464
:1022C0007F22C3F30B03134327F010420A603360ED
:1022D0000A9B2B600B9B03600B6843F010430B6061
:1022E0000DB0BDE8F08F154B0B9303F140430A93FB
:1022F0004FF0804309930223114D08935BE7114B84
:102300000B9303F140430A934FF081430993042355
:102310000D4D08934FE700BF4054094C4054894C81
:1023200000A24A04FC6401008CFFFF1F04F102407C
:1023300008F0024080F0024088F0024001000047AF
:102340004054894B030000474054094B2DE9F04F9E
:102350000546DFF87C82974E974F98F800E02E6094
:10236000FF2085F82400DFF86C92387859F820C0F7
:102370000023BEF1060F8DB00C4685F8253085F898
:1023800026309CBF88F800309E46BCF1000F00F05C
:10239000A8808C455BD06346810001E09C4256D00A
:1023A0000B445B68002BF9D1634603EB010ADAF8B2
:1023B0000430002BF9D105EB010BCAF80440BEF143
:1023C000060F4FF0FF044FFA80FACBF804308DF877
:1023D0002C4002968DF82D308DF82E3085F824A0F3
:1023E000644605D8002388F80030002C00F0A9804E
:1023F000A24226D0234601E0934222D00B445B68E0
:10240000002BF9D104EB010CDCF80440002CF9D1CD
:10241000CCF804200CAB19440024431CBAF1FF3F54
:1024200041F8244C3B708DF82CA0029605D06349EE
:1024300051F82A3002AA934272D028460DB0BDE866
:10244000F08F0130387028460DB0BDE8F08F0023C2
:10245000FF21BEF1060F02968DF82C108DF82D305D
:102460008DF82E3001D888F800309445E9D06346C5
:10247000810001E09A42E4D00B445B68002BF9D163
:102480008C44DCF804402CB1A4468C44DCF80440B5
:10249000002CF9D10CAB19444FFA80FE431CBEF15D
:1024A000FF3FCCF804203B7041F8244C02968DF895
:1024B0002CE0C2D0414951F82E3002AA9342BCD13F
:1024C00059F82E304FEA8E0623B19A19536854609A
:1024D000002BFAD10023387049F82E3041F82E3005
:1024E000ABE7B0B38100DFF8D4A049F8204005EB9A
:1024F000010C00234AF82050BEF1060FCCF804303E
:102500004FFA80FA4FF0FF0C02968DF82D308DF8BF
:102510002E3085F824A08DF82CC07FF663AF64E7D9
:1025200059F82A304FEA8A0623B19A195368546041
:10253000002BFAD10023387049F82A3041F82A30AC
:102540007BE7F0B11D4B49F8202002AA43F8202078
:1025500060E71B491B480B68019243F080630B60E6
:102560000368194923F080430360152008F056FEE4
:10257000164B98F800E0019A4FF400111960387872
:10258000B0E70F4C0F482368019243F0806323604B
:1025900003680D4923F080430360152008F03EFED8
:1025A0000A4B019A4FF40011196038784FFA80FAFB
:1025B0008100C7E7CC620100AD5300208C5300209E
:1025C00004700440007004409504000000E100E045
:1025D000BCF3FF1F6C5300202DE9F041584D594CBE
:1025E000594E08F0B5FC0421584807F005FE2A684A
:1025F00026600023637223612372E3600AB99AE0C4
:102600001A465369002BFBD154610027504B4D48AB
:102610006761A780E780236002F02AFB4D4A4FF0F4
:10262000010E02F118013B4638461772D76016605A
:1026300082F809E01161174600E0396941F823008A
:10264000517A444E01339942F7DC29683C4B09B971
:1026500073E019464B69002BFBD14A613E4B3F4961
:102660001C600024184654619480D480A2F8B041C4
:102670001160A2F8B2415A60C2F8AC41A2F8B4416C
:10268000C2F8B8411C725C72DC600AF0D5F9344AB9
:10269000344B9069344A1A600CF0A0F8334D344B37
:1026A000344E18604FF0FF08334B344A344985F8F4
:1026B00025402846012785F824802B606C63AC6395
:1026C00085F83C4085F826700CF096FC2D4B2B4A83
:1026D0002D4986F82480304686F82540336086F8F8
:1026E000274086F8284086F826700CF085FC2A469C
:1026F00031462648264DFFF729FE204A2549234822
:102700000CF07AFC244A254B2549147464204FF4BC
:102710007A76547414711473DC7183F83C4483F832
:102720003D4483F86A4483F8600496601560C3F8FA
:102730006C14BDE8F0812C6067E71E608EE700BF77
:10274000C0540020745100209C620100BC51002044
:10275000A0670100004F002038510020EC6201000A
:1027600014FAFF1F4851002084670100EC5000203C
:10277000085200203052002048680100FCF9FF1F79
:10278000BD0600005C680100150700000C0A00206F
:10279000A862010011060000380A0020744A0020D7
:1027A0000000023870B5104C06460D4620460A213E
:1027B00002F0CCFDC6F30721204602F09FFBF1B2E8
:1027C000204602F09BFBC5F30721204602F096FB52
:1027D000E9B2204602F092FB204602F0C9FDB0FAB1
:1027E00080F0400970BD00BF4C53002010B5184C5C
:1027F0000A21204602F0AAFD2046002102F07EFBBD
:102800002046302102F07AFB2046002102F076FBC0
:102810000021204602F072FB204602F0A9FD20466E
:102820000A2102F093FD2046002102F067FB2046BA
:10283000022102F063FB2046002102F05FFB2046EC
:10284000002102F05BFB2046BDE8104002F090BD85
:102850004C5300200238032838B504DC002880F2ED
:10286000E181002400E00C240A21C84802F06EFD3A
:102870000021C64802F042FB3021C44802F03EFB72
:102880004021C24802F03AFB6021C04802F036FB0A
:10289000BE4802F06DFD0A21BC4802F057FD002140
:1028A000BA4802F02BFB2621B84802F027FB002192
:1028B000B64802F023FB6C21B44802F01FFBB3487A
:1028C00002F056FD0A21B14802F040FD0021AF4858
:1028D00002F014FB2821AD4802F010FB0121AB48A7
:1028E00002F00CFBF021A94802F008FBA74802F017
:1028F0003FFD0A21A54802F029FD0021A34802F06E
:10290000FDFA2C21A14802F0F9FA0F219F4802F0AC
:10291000F5FA22219D4802F0F1FA9C4802F028FDC8
:102920000A219A4802F012FD0021984802F0E6FAC6
:102930003C21964802F0E2FA0021944802F0DEFAC7
:102940000021924802F0DAFA904802F011FD904B13
:102950008E481D680A21002D40F0378102F0F6FCF8
:1029600029468A4802F0CAFA3021884802F0C6FA9D
:102970002946864802F0C2FAA221844802F0BEFA33
:10298000824802F0F5FC0A21804802F0DFFC29466B
:102990007E4802F0B3FA02217C4802F0AFFA2946E1
:1029A0007A4802F0ABFA4321784802F0A7FA774858
:1029B00002F0DEFC0A217548764D02F0C7FC0021CA
:1029C000724802F09BFA0421704802F097FA002145
:1029D0006E4802F093FA21466C4802F08FFA6B4879
:1029E00002F0C6FC0A21694802F0B0FC00216748E9
:1029F00002F084FA0621654802F080FA012163485A
:102A000002F07CFA3021614802F078FA5F4802F067
:102A1000AFFC0A215D4802F099FC00215B4802F0FE
:102A20006DFA0A21594802F069FA0021574802F06C
:102A300065FA0021554802F061FA544802F098FC0A
:102A40000A21524802F082FC0021504802F056FA56
:102A50000E214E4802F052FA00214C4802F04EFA84
:102A600008214A4802F04AFA484802F081FC0A214B
:102A7000464802F06BFC0021444802F03FFA102166
:102A8000424802F03BFAFF21404802F037FAFF21AA
:102A90003E4802F033FA3D4802F06AFC0A213B4806
:102AA00002F054FC0021394802F028FA222137486C
:102AB00002F024FA7F21354802F020FA7F213348C2
:102AC00002F01CFA314802F053FC0A212F4802F0B0
:102AD0003DFC01212D4802F011FA24212B4802F07F
:102AE0000DFA0021294802F009FA0021274802F0D6
:102AF00005FA264802F03CFC0A21244802F026FC94
:102B00000021224802F0FAF92421204802F0F6F9C7
:102B100001211E4802F0F2F914211C4802F0EEF9DE
:102B20001A4802F025FC0A21184802F00FFC002187
:102B3000164802F0E3F92A21144802F0DFF90021D7
:102B4000124802F0DBF90021104802F0D7F90F48D3
:102B500002F00EFC0921104809F046FD29680F48D3
:102B60000AF018FA0D480AF08FFA0A2107482C6873
:102B700002F0ECFB0021054802F0C0F920210348D7
:102B800002F0BCF9C4F307210AE000BF4C53002057
:102B90006051002000FAFF1F186501008CFFFF1F25
:102BA000224802F0ABF9E1B2204802F0A7F91F4831
:102BB00002F0DEFBB0FA80F149091D480AF0EAF99B
:102BC0001B480AF061FA012038BD02F0BFFB00216A
:102BD000164802F093F93021144802F08FF90021D1
:102BE000124802F08BF9AB21104802F087F90F4828
:102BF00002F0BEFB0A210D4802F0A8FB00210B48A1
:102C000002F07CF90221094802F078F90021074816
:102C100002F074F96321054802F070F9034802F0EC
:102C2000A7FBC7E68000C4B21EE600BF4C530020DD
:102C30008CFFFF1F10B5074B0446102153F82000EE
:102C4000FFF796FA044802F0FFF92046BDE810406D
:102C5000FFF700BE14FAFF1F4C530020302101483B
:102C600006F0C0BCBC5100202DE9F04782B008F04E
:102C7000A1FBB34BB34E18600121B348B34FB44C22
:102C8000DFF82C93DFF82C83DFF82CA306F0E8FCA8
:102C90000121AD4806F0EAFC12220021AA4806F004
:102CA000DBFC0422AB49A8480AF060F93168A64869
:102CB0000AF070F90222A849A3480AF057F9A2487D
:102CC0000AF0E2F90622A5499F480AF04FF939684F
:102CD0009D480AF05FF90322A1499B480AF046F992
:102CE0000322A04998480AF041F90A22217896481F
:102CF00000230AF019FA94480AF0C6F9D9F800300E
:102D000058F823000BF06AFD97490BF06FFE0BF0AB
:102D10000FF902460B468C4894490AF0F7F994499A
:102D2000894801220AF022F9DAF8005000212846E9
:102D30000BF064FF28B12B21834806F053FCDAF82E
:102D4000005028460BF0F4F80B46024689497E48AD
:102D50000AF0DCF9022288497B480AF007F90121D0
:102D6000794806F07DFCD9F80030366858F82330F1
:102D7000700003FB00F000F500402C300BF02AFD42
:102D800079490BF033FE78490BF030FE7B4B1B6822
:102D9000012B814600F014814FF07E5830460BF035
:102DA0001DFD41460BF06EFD80463868DFF80CA231
:102DB000734D30440BF012FD014640460BF016FEF9
:102DC000074620780BF00AFD6E4B19680BF05AFD90
:102DD0006D4B044618680BF001FD6C4B19680BF045
:102DE00051FD6B4B19680BF045FC39460BF04AFD61
:102DF000394680464FF07E500BF03AFC654B19681F
:102E00000BF040FD014640460BF034FC01462046E5
:102E10000BF0ECFD60490BF035FD0BF01FFFDAF80D
:102E20000040002380462B606B60AB60EB6074B1A8
:102E300020460BF0CFFC49460BF0D8FD0BF078F89C
:102E40000AF08AFE0BF0A0FB286000FB06F4DAF81B
:102E5000040068B10BF0BEFC49460BF0C7FD0BF057
:102E600067F80AF079FE0BF08FFB686000FB06F054
:102E7000DAF80830044473B118460BF0ABFC49464D
:102E80000BF0B4FD0BF054F80AF066FE0BF07CFB7F
:102E9000A86000FB06F3DAF80C001C4468B10BF0E4
:102EA00099FC49460BF0A2FD0BF042F80AF054FEE3
:102EB0000BF06AFBE86006FB00F020440BF08AFC94
:102EC00039460BF093FD044640460BF083FC014667
:102ED00020460BF093FEF0B901462E221A4806F068
:102EE000BBFB0D222D4918480AF040F820462C491A
:102EF0000BF07CFD0BF01CF8022402460B460094FC
:102F000011480AF06DF927490F48012202B0BDE8C7
:102F1000F0470AF02BB82E2200210B4806F09CFB4C
:102F20000E22214908480AF021F820490648A1FB51
:102F30000831090C00230A220AF0F6F8E3E700BF83
:102F4000EC4E00203CFAFF1FBC51002048FAFF1F46
:102F500038FAFF1F246501002C650100306501006F
:102F6000386501003C65010000007A4440650100BD
:102F70004C660100AC6601004C650100F851002070
:102F80001052002044FAFF1F605100204CFAFF1F2E
:102F900050FAFF1F40FAFF1F000061456065010005
:102FA00000C0A847806401005065010007452EC29B
:102FB00030FAFF1F14FAFF1F6451002068520020EE
:102FC000124A134B10781B78834286BFC3F1180353
:102FD000C018C01A0BF002FC0E4A0F4B80461B783B
:102FE0001078834286BFC3F13C03C018C01A0BF0AF
:102FF000F5FB0A49054640460BF044FC29460BF018
:1030000039FB07490BF0F2FC8046C7E690510020DF
:10301000340A0020F84E0020605200200000704268
:103020000000B44438B504460D463148012106F08D
:1030300017FB2AB200212E4806F00EFB204605F0B1
:1030400085FB01462A4809F0A5FF2D21284806F0F6
:10305000C9FA204605F056FB0146254809F09AFFBB
:103060002D21234806F0BEFA204605F039FB014623
:103070001F4809F08FFF02221E491D4809F076FF04
:10308000204605F051FB092803DC3021184806F0E2
:10309000A9FA204605F048FB0146154809F07AFFD9
:1030A000204605F0F9FA012205461349104809F0B7
:1030B0005DFF092D03DC30210D4806F093FA294607
:1030C0000B4809F067FF204605F0F8FA0122044694
:1030D0000949074809F04AFF092C03DC302104485C
:1030E00006F080FA21460248BDE8384009F052BF98
:1030F000BC51002070650100846501002DE9F0419C
:10310000A34D2C682CB1012C00F0A08030BFBDE88D
:10311000F08108F04FF99F4FDFF8E88238609E4851
:103120009E4E07F07DF801219B4806F09FFA022190
:10313000994806F095FA22462146974806F08CFAFF
:103140000A229749944809F011FF934809F09CFF1F
:103150000121914806F084FA122221468E4806F099
:103160007BFA05228F498C4809F000FFD8F800103F
:103170008948013109F00EFF01228B49864809F088
:10318000F5FED8F80020894B834853F822102346D7
:103190000A2209F0C9FF30682821FFF743FF3721D1
:1031A0003868FFF73FFF7C4807F076FA32683B68E3
:1031B000511E994209DCDFF8508298F8001021B1C5
:1031C0007B490968002940F084809A423ADC794FB3
:1031D0003C68002C64D0022C00F0AA810D217648B6
:1031E000764C09F001FA764809F04EFF754B764AA5
:1031F000764930681B681268096803441A4401293B
:103200003260236000F091810E21714809F0ECF9E1
:1032100008F0D0F8FEF7E8FD0B216E4809F0E4F95C
:103220002068FEF7E1FD0B216B4809F0DDF93068FD
:10323000FEF7DAFD0123AE2157482B6006F0F8FFB8
:10324000FEF7A2F82C68012C7FF460AFFDF7B6FC06
:10325000042008F0E3F90446032008F0DFF90CB974
:10326000002847D05D4C5E4B22681B689A42FFF6EF
:103270004DAF554B1E68002E40F0C880594802F0F3
:10328000B7FAFEF773F9FDF77DFD57482660FDF7A5
:1032900015FB564B1888FDF7F5FA30BFBDE8F081F5
:1032A0000A21534802F052F82146514801F026FE07
:1032B0000E214F4801F022FE21464D4801F01EFE2E
:1032C0000A214B4801F01AFE494802F051F83C68C7
:1032D00081E70121052008F07DF9C82008F0E8F910
:1032E0002146052008F076F901213B68326888F80C
:1032F00000106AE7394B3F4C1B683F4D39485B0271
:10330000002203F124061146A362A5F8B4216660E9
:1033100002F0C0FD21462C22324802F0ABFE3148BB
:1033200002F066FA224B1B68002B40F0BE8001239E
:103330003C220221184807F0A5F8642008F0B8F9EB
:10334000154806F06DFF0121134806F08FF90221A0
:10335000114806F085F9002211460F4806F07CF965
:10336000072226490C4809F001FE0B4809F08CFEA3
:103370000121094806F074F910222149064809F094
:10338000F5FD054809F080FE034807F085F9FEE7E2
:10339000080A0020EC4E0020BC510020F44E002012
:1033A00074650100806501004C6601001052002028
:1033B000605100206C0A0020886501005C510020EB
:1033C0008CFFFF1F3CFAFF1F48FAFF1FF851002037
:1033D00098650100A8650100B4650100FC4E00205D
:1033E000F4510020480A0020DC650100C45400208C
:1033F0004C53002078520020004F0020C06501008F
:10340000C865010064520020F94E0020FDF786FCDB
:10341000FEF7ACF8494B4A4E1C684A4F07F0CAFF0A
:10342000494A4A4B1268201A841A24EAE47483FB3E
:1034300004232344E017C0EBE3200AF067FD0AF001
:103440008BFB0BF079F8424B424A306003FB00449F
:1034500082FB043222448046E017C0EB62100AF07F
:1034600055FD0AF079FB0BF067F80201131A821A76
:1034700004EB82049B004FF4616202FB08333C6062
:10348000DFF8F0801C44092CC8F8000013DC324B34
:103490001B686BB901233C220221304806F0F2FF81
:1034A00000232B6030BFBDE8F081FEF713F93EE743
:1034B000FEF7FAF8EEE7284C0021022008F08AF81F
:1034C000FFF794F923680BB1FEF704F92448FDF7E0
:1034D000F5F93168234809F05DFDD8F8001021485E
:1034E00009F058FD3868FDF7CDF909F081F964203D
:1034F00008F0DEF83B7898F8002031781A4804F09C
:1035000063FF1A4804F026FD0121022008F062F84A
:103510004FF4967008F0CCF823680BB1FEF7B0F8C2
:10352000134B1868FFF786FBB4E7FEF7A3FC6BE6C6
:103530000B210E20FFF736F950E600BFF44E0020B5
:10354000FC5100200C52002004FAFF1FC5B3A291C9
:10355000F0F1FFFF8988888860510020BC5100206D
:10356000E86501008CFFFF1FEC5000200C0A0020D2
:1035700030FAFF1F8C5100202DE9F04F87B0FEF785
:103580000FFDFDF781FF07F015FF964BDFF8A492C2
:1035900018609548954F964DDFF89C8206F040FEE6
:1035A0000121914806F062F802218F4806F058F890
:1035B000002211468C4806F04FF808228D498A48AF
:1035C00009F0D4FC0121884806F04AF810220021B5
:1035D000854806F041F812228749834809F0C6FC65
:1035E000814809F051FD0721844801F0E1FF0E21D7
:1035F000824802F03BF80C21804802F009F8CA46E4
:103600000024002345F8043B7D4809F03DFD7C483B
:1036100009F03AFD013405217A4808F0E5FF21461A
:10362000774809F0B7FC764809F02EFD21466E4830
:1036300009F0B0FC042274496B4809F097FC6A4811
:1036400007F02AF85AF8042B7049D2B2A1F10C0005
:103650004FF0384303F070FF58BB1C216C4808F052
:10366000C3FF674809F010FD06226A495E4809F069
:103670007DFC5D4809F008FD5B4807F00DF8042C5F
:10368000BFD15A4C99F8002004F58C65284604F205
:103690006C414FF0384303F04FFF002840F0CE80DC
:1036A0000B225D49504809F061FC4F4806F0F4FFD9
:1036B000FEE75A4800F124033B6002F099F801212B
:1036C0004A4803F03DFE014600287AD0DFF84CB1AD
:1036D000ABF23C41584602F0C3FA0028BDD097F83F
:1036E0003C3413F0700FB8D0ABF23C40C8F800B0D7
:1036F00003F08AFD08210646494808F075FF314667
:103700003F4809F047FC3E4809F0BEFC30460BF04C
:1037100065F844490BF0B6F8064638790BF05EF8C8
:10372000014630460BF0AEF80BF098FA06460BF166
:10373000240004F0F9F80BF04DF83A490BF0A2F828
:103740000BF08CFA0A218346374808F04DFF5946A2
:1037500000230A222A4809F0E7FC294809F094FCD2
:10376000C72E8CBFC83E0026112145F8046C2F4897
:1037700008F03AFF55F8041C214800230A2209F0FA
:10378000D3FC1F4809F080FC002355F8041C1648A0
:103790000A2209F0C9FC01222549134809F0E6FB79
:1037A000594600230A22104809F0BEFC0E4809F0D1
:1037B0006BFC0D4806F070FF4FF47A7007F078FF4D
:1037C0005DE70A4803F0BCFD00283FF446AFDFF890
:1037D0004CB0ABF23C41584602F042FA00287FF46C
:1037E0007EAF3AE7704A0020BC510020744A0020A6
:1037F00068520020FC6501000866010058FAFF1FAE
:103800008CFFFF1F806501001C660100E04E002058
:10381000FC6601001C67010024670100B04E002017
:1038200024660100BD37063A306601003C6601009F
:1038300050660100BC5000206453002004F23C405C
:10384000256001F0D5FF0121204603F079FD0146F6
:10385000002800F07E83A84C04F23C45284621460F
:1038600002F0FEF900283FF41BAF94F83C3413F04B
:10387000700F3FF415AFA14EC8F80050FEF714F9D1
:10388000FDF702FEFEF70CFC32689D4B9A4200F2F7
:10389000B7839C4F9A4B3A689A4200F2AA839A4B9C
:1038A0001B78172B00F29D83984B1B783B2B00F263
:1038B0009083974B1B78172B00F28383954B1B78D3
:1038C0003B2B00F27683DFF89082D8F80030012B92
:1038D00006D9002319460C20C8F8003007F0D6FBA3
:1038E0008D4B1B68052B00F25C83DFF8709299F812
:1038F0000030082B00F24D83884B1A680F2A00F223
:103900004183874D874C082007F088FE20BB2B6839
:1039100001332B6002E00A2007F0CAFE082007F0FE
:103920007DFE0028F7D0D8F800302A68B3FA83F17A
:103930000B2A4FEA5111D8BF0021002940F006831D
:10394000A3F10103B3FA83F30F2A4FEA5313D8BF4D
:103950000023002B40F0FA82734806F061FC01213D
:10396000714805F083FE02216F4805F079FE0022C0
:1039700011466D4805F070FE07F01CFD6B4B206092
:103980001A682B68821A02920F2B28D8DFE813F0EE
:1039900032021902D1029202DB019D01640126016B
:1039A000E8009A0082006A005E0052003B001000AE
:1039B000584B3B22002118789A46FEF79DF95C4946
:1039C0008AF800000722584809F0D0FA9AF8001047
:1039D00009292ADD544800230A2209F0A5FBFFF734
:1039E00043F907F0E7FC3721FFF71CFB4E4806F0D0
:1039F00053FE0A2007F05CFE029BB3F5167F82DDC2
:103A000007B0BDE8F08F424B1722002118789A4684
:103A1000FEF772F947498AF800000722424809F088
:103A2000A5FA9AF800100929D4DCFFF717F99AF8DB
:103A30000010CFE7354B3B22002118789A46FEF75D
:103A40005BF908228AF800003B49BCE72E4B17229D
:103A5000002118789A46FEF74FF908228AF80000EC
:103A60003649B0E7052236492F48DFF8ECA009F0C7
:103A70007DFA01220021D8F80000FEF73DF9C8F8D0
:103A80000000002800F078820128A8D12D48FCF71A
:103A900007FFA4E70822012199F80000FEF72CF99E
:103AA000052289F8000028491F4809F05FFA002321
:103AB0000A2299F800101C4809F036FB1A4809F050
:103AC000E3FA8CE7144B002106221868FEF714F97C
:103AD0001E4B114A106053F820000AF07FFE1C496B
:103AE0000AF084FF0AF024FA02460B460E481949F0
:103AF00009F00CFB73E700BF744A00203CFAFF1F7B
:103B0000A086010048FAFF1F340A002060520020FE
:103B100090510020F84E002030FAFF1F00FAFF1FDE
:103B2000E8500020EC4E0020BC510020704A0020DC
:103B3000F4660100EC660100E0660100D466010055
:103B4000B4660100C4660100CC66010014FAFF1FD0
:103B500000007A44A8660100F851002038FAFF1FDF
:103B600004F0ACFDDFF824B3DFF824A3CBF80000A9
:103B70003B220021FEF7C0F8DBF80030CAF8000055
:103B800098421DD0206804F0CFFD8346206804F0E1
:103B900083FD05902068DAF800A004F0A1FD0490F0
:103BA000206804F0AFFD0390206804F0CFFD039A75
:103BB00000920190049B059952465846FEF77CF806
:103BC0000722A849A84809F0D1F907F0F3FB04F04F
:103BD00075FD0146A44809F0DDF900E704F05CFD3D
:103BE000DFF8B0B2DFF8B0A2CBF800003B22002132
:103BF000FEF782F8DBF80030CAF8000098421DD0CA
:103C0000206804F091FD83462068DAF800A004F0F3
:103C100055FD0590206804F063FD0490206804F0D1
:103C200071FD0390206804F091FD039900910190CB
:103C3000049B059A51465846FEF73EF807228B49E9
:103C4000894809F093F907F0B5FB04F025FD01461A
:103C5000854809F09FF9C2E604F066FDDFF83CB242
:103C600017220021CBF80000FEF746F8DBF8003001
:103C7000984282461BD0206804F00EFD83462068DF
:103C800004F01CFD0590206804F02AFD04902068D3
:103C900004F038FD0390206804F058FD039900916A
:103CA0000190049B059A59465046FEF705F80522F7
:103CB0006F496D4809F05AF907F07CFB04F034FDB8
:103CC0000146694809F066F989E604F009FDDFF864
:103CD000D0B1DFF8D0A1CBF800001F220121FEF700
:103CE0000BF8DBF80030CAF8000098421DD02068BD
:103CF00004F01AFD8346206804F0CEFC059020688D
:103D000004F0DCFC04902068DAF800A004F0FAFC6F
:103D10000390206804F01AFD039B00930190534622
:103D2000049A05995846FDF7C7FF042251494E48A9
:103D300009F01CF907F03EFB04F0D2FC01464A48AA
:103D400009F028F94BE604F0DDFCDFF85CB1DFF8A0
:103D50005CA1CBF800000C220121FDF7CDFFDBF8C0
:103D60000030CAF8000098421DD0206804F0DCFC46
:103D70008346206804F090FC0590206804F09EFCC7
:103D80000490206804F0ACFC03902068DAF800A0EE
:103D900004F0DCFCCDF800A00190039B049A059987
:103DA0005846FDF789FF062233492F4809F0DEF80F
:103DB00007F000FB04F0A6FC01462B4809F0EAF8E6
:103DC0000DE645F2604201213068FDF795FF2B4971
:103DD00030600422244809F0C9F83168224809F00B
:103DE000D9F801222649204809F0C0F81E4809F0F8
:103DF0004BF9F4E5DFF8B8A09AF80030002B40F05A
:103E0000B0800A221F49184809F0B0F8042007F0D2
:103E100005FC8246032007F001FCBAF1000F7FF495
:103E2000DEAD00287FF4DBADFDF7C8FFFEF738F903
:103E30001548FCF735FD0C4806F02EFC40F2DC502E
:103E400007F036FCFEF710FF07F0B4FA3721FFF752
:103E5000E9F8054806F020FC0A2007B0BDE8F04F5D
:103E600007F026BCA0660100BC5100209866010046
:103E700090660100886601008066010024650100EB
:103E80006C66010054660100606601002C5200203F
:103E90003051002070510020E84E0020040A00201C
:103EA000E45000202C5100205C52002034510020AE
:103EB000F04E002004F04AFCDFF880B1DFF880A16A
:103EC000CBF8000040F634024FF4FA61FDF714FF1E
:103ED000DBF80030CAF8000098421CD0206804F0DB
:103EE00023FC8346206804F0D7FB0590206804F08B
:103EF000E5FB0490206804F0F3FB0390206804F0D5
:103F000001FCDAF80030049A05998DE80900039B5A
:103F10005846FDF7D1FE05223D493E4809F026F8F6
:103F200007F048FA04F012FC01463A4809F032F86A
:103F300055E5394A38680021FDF7DEFE374938601B
:103F40000422344809F012F8396847E700232B604F
:103F500002E5204603F0F4F900287FF47CACFFF77B
:103F60009FBBFEF79DF84FF000038AF8003007F082
:103F700021FA2B4B186044E72A48FCF791FCDAF849
:103F8000000081E5042211460F201A6007F07EF838
:103F9000B7E4082319460E2089F8003007F076F8B8
:103FA000AAE40623204A19460D20136007F06EF894
:103FB0009BE400231D4A19460B20137007F066F896
:103FC00081E400231A4A19460A20137007F05EF8AC
:103FD00074E40023174A19460920137007F056F8B5
:103FE00067E40023144A19460820137007F04EF8BE
:103FF0005AE43C23194604203B60FEF739F84EE4AE
:104000003C23194600203360FEF732F841E400BF3C
:1040100078660100BC5100208051010070660100EB
:10402000704A0020BC66010030FAFF1FF84E0020E5
:104030009051002060520020340A002024520020B9
:104040006C5100202DE9F04F8FB072B6C749C84BB4
:10405000C84841250E2480220D70047019461A703C
:104060000B78C34A1806FBD5C34BC4481D78C44C13
:10407000C4490570033B247809781B78C3704470E9
:10408000817062B672B6B949BA4C41260F258023B9
:104090000E702570114613700B781B06FCD5B64CBC
:1040A000B749B84AB84B2478097812781B78C3719D
:1040B00004714171827162B6B44BB54FB54EDFF8F1
:1040C000289300240F2115220A254FF014084FF4DD
:1040D000FA705960DA601D60C3F8088007F0E8FAEA
:1040E00064203C6007F0E4FA4FF430533B606420F6
:1040F00007F0DEFA4FF434533B60642007F0D8FA3F
:104100002A463168A448234609F00EF8A24808F070
:10411000BBFF4FF47A7007F0CBFA2A4631689E480D
:10412000234609F001F89C4808F0AEFF4FF47A707E
:1041300007F0BEFA2A46234631689748974D08F0A3
:10414000F3FF954808F0A0FF954800F07DFF214659
:10415000102007F071FA204606F0F0FD0121022040
:1041600007F06AFA0121022007F034FA0121052044
:1041700007F062FA0121052007F02CFA4FF4FA60EB
:1041800007F096FA2146052007F024FA854B012214
:10419000214605201A7007F01DFA834B1B68002189
:1041A000012B4FF0040008BFC9F8008007F044FA63
:1041B0000021032007F040FA0021082007F03CFA14
:1041C0000121042007F006FA0121032007F002FA7A
:1041D0000121082007F0FEF907F0ECF8734B286086
:1041E000984240F3B78101233C2202217048714E6E
:1041F000714F724C06F046F98C2007F059FA6C4862
:1042000006F00EF801216A4805F030FA02216848EC
:1042100005F026FA00221146654805F01DFA0A222B
:104220006749634808F0A2FE614808F02DFF604826
:1042300006F032FA5E4805F0F3FF01215C4805F014
:1042400015FA02215A4805F00BFA00221146584887
:1042500005F002FA0A225A49554808F087FE5448E8
:1042600008F012FF524806F017FA6E21554808F080
:104270000FFBD6F8008057F828A050460AF0AEFA97
:10428000102120605046FDF773FF454800F0DCFE2A
:104290004046FEF7DFFAFFF76FF9366857F82670E9
:1042A00038460AF09BFA102120603846FDF760FF7F
:1042B0003B4800F0C9FE3046FEF7CCFA424801F018
:1042C00097FA42490EAE01F23C4001F0C9FC404B66
:1042D00046F8343D00238DF814308DF815308DF8F4
:1042E00008308DF810303B4A3749462305A84FF473
:1042F0007A77039701F034FC9DF8143053B12922EA
:10430000354905A801F0B6FE304608F0BDFE05A807
:1043100001F06EFA2648314FDFF8D0A005F080FF9B
:104320000121234805F0A2F90221214805F098F95E
:10433000002211461E4805F08FF93B683C2B07DD33
:10434000B3F5967FD4BF3C234FF49673CAF8003080
:1043500007F030F8DFF898802149DAF80030214E74
:10436000D8F80020096890FBF3FE43E00700024004
:1043700000000240060002400B00024054510020A1
:104380000A0002400900024008000240BC50002020
:1043900010D0034000D003408CFFFF1FEC4E0020E4
:1043A0004C530020F94E0020605100207FC18556FB
:1043B000BC51002030FAFF1F14FAFF1F08520020E2
:1043C000306701000082FF1FB04E0020744A0020B9
:1043D000A86201004C630100F063010048FAFF1F6E
:1043E000F8510020F44E002004FAFF1F34FAFF1F9A
:1043F0003CFAFF1F286003FB0E335B483360012942
:104400001344036000F0AA8010460AF0E7F921681F
:10441000DFF890A1DFF890B10AF034FA4FF06E5156
:104420000AF030FA4FF074510AF02CFA09F080FDCE
:1044300009F00AFB00224D4B09F0CEFD0AF07CF892
:104440003A68D9F800404A4BCAF80000141B24EA25
:10445000E47983FB09234B444FEAE970C0EBE32086
:1044600009F054FD09F078FB0AF066F8414C424B24
:10447000CBF8000004FB009483FB04232344E017E3
:10448000C0EB631009F042FD09F066FB0AF054F836
:10449000DFF818A1DFF818910346A0EB001004EB39
:1044A000800410213548C9F80030CAF8004008F0EF
:1044B0009BF8DBF80010324808F06CFDD9F80010CA
:1044C0002F4808F067FDDAF800102D4808F062FD6B
:1044D0002B4808F0D9FD08212A4808F085F8D8F8BB
:1044E0000010274808F056FD254808F0CDFD0821AA
:1044F000254808F079F83968214808F04BFD204834
:1045000008F0C2FD0E21214808F06EF82868FDF77A
:104510006BFC0C211E4808F067F83068FDF764FC5E
:1045200033682C681B481C1B152108F05DF82146D8
:10453000134808F02FFD124808F0A6FD1649174B46
:1045400000204FF0FF3208601A60FDF70FF80FB03F
:10455000BDE8F08F124806F033FF44E6FDF78AFC11
:10456000D8F8002050E700BF5C5100200000404018
:10457000C5B3A291F0F1FFFF89888888E865010042
:104580008CFFFF1F3C670100486701009865010030
:104590005467010064670100080A002028520020C7
:1045A00080C18556F4510020FC5100200C5200209F
:1045B0008C5100200020704700207047F8B5C34C94
:1045C000012605460671204600F03EFD052007F055
:1045D0006FF8297A204600F0E3FD2046002100F024
:1045E0008DFC2046302100F089FC2046402100F05F
:1045F00085FC6021204600F081FC204600F0B8FEDA
:10460000297A204600F0CCFD2046002100F076FCFF
:104610002046262100F072FC2046002100F06EFCAE
:104620006C21204600F06AFC204600F0A1FE297AA9
:10463000204600F0B5FD2046002100F05FFC20463A
:10464000282100F05BFC3146204600F057FCF221A7
:10465000204600F053FC204600F08AFE297A2046CE
:1046600000F09EFD2046002100F048FC20462C2151
:1046700000F044FC20460F2100F040FC222120469F
:1046800000F03CFC204600F073FE297A204600F042
:1046900087FD2046002100F031FC20463C2100F03F
:1046A0002DFC2046442100F029FC4621204600F044
:1046B00025FC204600F05CFE40F23713EB80297A9F
:1046C000204600F06DFD2046002100F017FC20463A
:1046D000242100F013FC3146204600F00FFC372166
:1046E000204600F00BFC204600F042FE297A2046CE
:1046F00000F056FD2046002100F000FC204630214D
:1047000000F0FCFB2046402100F0F8FBFF21204692
:1047100000F0F4FB204600F02BFE297A204600F042
:104720003FFD2046002100F0E9FB2046022100F079
:10473000E5FB2046002100F0E1FB7321204600F05C
:10474000DDFB204600F014FE4FF4C87006F0B0FF09
:10475000297A204600F024FD2046002100F0CEFBFF
:1047600020462E2100F0CAFB20461D2100F0C6FB8A
:104770001D21204600F0C2FB204600F0F9FD297AF9
:10478000204600F00DFD2046002100F0B7FB20463A
:10479000042100F0B3FB2046002100F0AFFB042110
:1047A000204600F0ABFB204600F0E2FD297A2046CF
:1047B00000F0F6FC2046002100F0A0FB2046062178
:1047C00000F09CFB3146204600F098FB302120464B
:1047D00000F094FB204600F0CBFD297A204600F043
:1047E000DFFC2046002100F089FB20460A2100F072
:1047F00085FB2046002100F081FB1021204600F0BF
:104800007DFB204600F0B4FD297A204600F0C8FC6C
:104810002046002100F072FB20460E2100F06EFBC6
:104820002046002100F06AFB0021204600F066FBD4
:10483000204600F09DFD297A204600F0B1FC20467C
:10484000002100F05BFB2046102100F057FB2046C2
:104850003C2100F053FB3C21204600F04FFB20465A
:1048600000F086FD297A204600F09AFC20460021BF
:1048700000F044FB2046222100F040FB20467F212F
:1048800000F03CFB7F21204600F038FB3627204615
:1048900000F06EFD297AEF80204600F081FC204672
:1048A000002100F02BFB2046242100F027FB2046AE
:1048B000002100F023FB3946204600F01FFB204674
:1048C00000F056FD6E723046F8BD00BF4C5300201C
:1048D0000B462DE9F04145490546184609F0D2FF3F
:1048E000434909F0C7FE0AF0B9F9044600284CD044
:1048F00080281FD92B79002426462BBB297A3D48D6
:1049000000F04EFC00213B4800F0F8FA2221394823
:1049100000F0F4FA3146374800F0F0FA2146354805
:1049200000F0ECFA334800F023FDB0FA80F04009C3
:10493000BDE8F081C0F180042B7944EA0424C4F37B
:104940000726E4B2002BD9D0EF88297A294827F02E
:1049500010074FF00008EF8085F8048000F020FC7D
:104960004146244800F0CAFA2421224800F0C6FA41
:10497000390A204800F0C2FA07F0EF011D4800F0A4
:10498000BDFA1C4800F0F4FCB8E701232B71297A2A
:10499000184800F005FC2146164800F0AFFA222125
:1049A000144800F0ABFA7F21124800F0A7FA7F21EB
:1049B000104800F0A3FA0F4800F0DAFCEE88297ADC
:1049C0000C4846F01006B6B2EE8000F0E9FB214636
:1049D000084800F093FA2421064800F08FFA310AC3
:1049E000044800F08BFAF1B299E700BF00000143E0
:1049F000EE7CFF3E4C53002070B505460C4619B1C5
:104A000001293BD0002070BD017A424800F0C8FB6C
:104A10002146404800F072FA20213E4800F06EFA2C
:104A200021463C4800F06AFA55213A4800F066FAFF
:104A3000384800F09DFC06460028E3D1EC88297A2E
:104A4000344844F00404A4B2EC8000F0A9FB3146E1
:104A5000304800F053FA24212E4800F04FFA210A82
:104A60002C4800F04BFAE1B22A4800F047FA2948F6
:104A700000F07EFCB0FA80F0400970BD017A254854
:104A800000F08EFB0021234800F038FA2A2121484B
:104A900000F034FA21461F4800F030FA73211D4817
:104AA00000F02CFA1B4800F063FC04460028A9D152
:104AB000297A184800F074FB2146164800F01EFAC7
:104AC0002021144800F01AFA2146124800F016FA84
:104AD0008821104800F012FA0E4800F049FC044604
:104AE00000288FD1EE88297A0A4826F00406EE8045
:104AF00000F056FB2146074800F000FA2421054843
:104B000000F0FCF9310A034800F0F8F906F0FB0167
:104B1000AAE700BF4C53002010B5044608F09CF8EB
:104B2000204610BD024A034903480AF065BA00BF97
:104B3000FCF9FF1F194B0000A45200201B4A1C4B1C
:104B400011681C48096970B499421279027009D23F
:104B5000194A127832B3194A4FF08041116003F5B7
:104B6000807402E01C46A3F58073154A154912684B
:104B70000D68AAB1A5B1144E3088402810D8410064
:104B80000A444030294402320231308033F9040BA8
:104B900022F8020F9C4233F9020C21F8020FF5D8DB
:104BA00070BC704703F58074DFE700BFB45200208B
:104BB000B8F2FF1F1F800040AE52002008E200E064
:104BC000BC520020B0520020AC520020F8B506467E
:104BD00007F08EFE0446E8B107F08AFE054600287D
:104BE0003AD072B61F4B1A887F2A19D8002C31D0C0
:104BF0001D490A6842B162B6204607F0CDFE28463C
:104C0000BDE8F84007F0C8BE18480C601A8005607F
:104C100062B6F8BD054672B6124B1A887F2AE5D9EE
:104C2000114A12491768146000220C681A800D603E
:104C300062B63946304607F0D9FE384607F0ACFE7A
:104C400030462146012207F0D1FE2046BDE8F8405B
:104C500007F0A2BE62B6F8BD204607F09DFE2C46C6
:104C6000BFE700BFAC520020BC520020B052002071
:104C7000F8B5284C284E2046012107F04FFF00F0E0
:104C800083F8264B264A27484FF480611960236831
:104C900000211A6099802279186102F1804202F5A0
:104CA000043240F20110D8809E614FF480750220DA
:104CB00006278E26DD82D960DD8398609F839882E7
:104CC0001170167007F0D0FE1749184B2279184F53
:104CD00008701A7039682279164C174D174E41F03A
:104CE000124141F00101531139609B00206803F12A
:104CF000604302F1100703F5614302F01F02012136
:104D000040F0104001FA02F2206045F827601A6076
:104D1000F8BD00BFB452002000FEFFFF14B00440F5
:104D2000A0F00240B8F1FF1FAE5200201B800040EF
:104D300080F0024000F0024000F4FF1F3D4B0000F5
:104D4000024A034903480AF057B900BFFCF9FF1FA4
:104D5000194B0000B4520020024A034903480AF0EC
:104D60004BB900BFFCF9FF1F194B0000C0520020D7
:104D7000024A034903480AF03FB900BFFCF9FF1F8C
:104D8000194B0000C8520020284B29491A682948AD
:104D900042F400421A600A6842F002020A601A688D
:104DA00042F002021A600368002B3DDB224B1B68B5
:104DB000002B39DB214A4FF0864313601368002B28
:104DC000FCDBF0B51E4C1F48DFF8ACE01E491F4B62
:104DD0001F4A204F204E214D47F2320CC4F800C02C
:104DE000002404600120CEF80000DFF890E0C1F854
:104DF00000E04FF480311960194B1360DFF880E058
:104E0000184A3A60346028601748CEF80000174C02
:104E1000B9671748174946F8503C4FF4C0632A61F8
:104E2000236003600B60F0BD704700BF3C8004400E
:104E30004080044000F0024080F0024000F1024057
:104E400004F1024060F0024008F002400CF0024021
:104E500010F0024014F00240E0F0024084F0024002
:104E60001B0F0100000F0F0F0300004708B00440A4
:104E70000CB0044018B0044004F0024003000007E6
:104E800088F00240024A034903480AF0B5B800BF5F
:104E9000FCF9FF1F194B0000D0520020024A0349C1
:104EA00003480AF0A9B800BFFCF9FF1F194B000026
:104EB000D8520020024A034903480AF09DB800BFB7
:104EC000FCF9FF1F194B0000E0520020024A034981
:104ED00003480AF091B800BFFCF9FF1F194B00000E
:104EE000E8520020024A034903480AF085B800BF8F
:104EF000FCF9FF1F194B0000F05200200A4B1B78F1
:104F000013B90A4B1B786BB1094A1378202B07D8C9
:104F100010B4581C074C1070E154012010BC7047AD
:104F200001230371002070475E53002021530020AD
:104F30005F53002000530020704700BF024A034B1C
:104F400010781B78C01A70475D5300205C53002016
:104F5000064A074913780978994204D90548591C2B
:104F6000C05C117070474FF0FF3070475C530020F9
:104F70005D53002024530020054B064A1B7812780D
:104F80009A4286BF044AD05C4FF0FF30704700BFA2
:104F90005C5300205D5300202453002070B50D4B5E
:104FA0001B78144613B90C4B1B788BB10B4E35781C
:104FB000C5F12103A34202D201221C460271084816
:104FC00022462844254405F00DFD3570204670BD6D
:104FD000184670BD5E530020215300205F5300200F
:104FE00000530020124BDB7803F020034BB1114A31
:104FF00013780133DBB2012B137012D9122006F0A3
:1050000095B910B5122003F0FF0406F08FF90A4B92
:105010001B685BB109490A4A0C701078BDE8104062
:105020001847084B1B78002BE8D0704710BD00BF15
:105030000060064048530020FC5200205C530020D2
:105040005D530020215300200D4A0E4BF0B5002087
:105050000D4C10702268DFF838E00C4F42F040022F
:1050600022604FF41971282603252024802298708D
:10507000CEF8001039605E709D715C719A70F0BD61
:1050800021530020006006403480044008A0044002
:105090000CA0044010B5384CE378DBB2D80623D519
:1050A00010225906E2701ED503F0040303F0FF023C
:1050B000002B33D0314B32491A68324C00230B702D
:1050C0002370002A3BD090472378002B37D02E4BFB
:1050D0001B78294A2D49D02494701371264B012046
:1050E00002220870DA7010BD5A06DDD4A27802F0F0
:1050F000100202F0FF0042B313F001031BD1234959
:1051000020480A780078904281BF1F4B501C9B5C5E
:1051100008702371184BD0229A7008E01C48164B77
:10512000174902700120C02208709A701B79124B37
:105130000222DA7010BDC023A3702379F7E7124969
:10514000002301220B702270C3E7124B1249187022
:105150000322122006F06AF80D4923790A781F2AE3
:10516000DBB2E4D8064800780028E0D00B4C501C95
:10517000A3540870DBE700BF0060064044530020E2
:10518000F85200205F53002000530020605300209D
:105190005D53002048530020E54F000024530020B9
:1051A0000548064A10B40123054C037049001370EA
:1051B000217010BC704700BF5E5300205F53002079
:1051C000005300202DE9F043594C1223E370A378DB
:1051D00003F0200383B0002B55D0B423DFF868819F
:1051E000A370D8F80030524D1C460020EA78D2B2A5
:1051F0009A421CBF1446012096061346F6D5002895
:1052000040F08C804B4B1B78002B33D003F1FF3EDA
:105210005FFA8EFE0026D8F80040474F444D0EF14D
:10522000010E30464FF0020C17F8013F2B715FFA68
:1052300086F902E013F0200F09D0EB78DBB293423D
:105240001CBF1C46012013F0020F1A46F2D085F84D
:1052500003C0EA78D2B293421CBF14460120D306A1
:1052600033D4930631D5D30744D401367645DBD108
:1052700000284AD1002000292ED1304B00221A707C
:1052800003B0BDE8F0832E4DDFF8BC8003F0FF02D1
:105290002B680093009ED8F8000005E02B6801936E
:1052A000019B9B1B0F2B1BD8E378DBB2834218BFFB
:1052B000012213F0200F1846F0D192BB21481C4B5D
:1052C0000024B02204709A708BE708BB184B802230
:1052D0009A7004200029D0D0154B80229A70CCE718
:1052E000CAB9134B00218022042099709A7003B030
:1052F000BDE8F083C0B90E4BB9F1000F4FF080024A
:105300000CBF022003209A70B7E7C8F80040B1E74D
:10531000C8F80040DAE7C8F80000E2E7C8F8004043
:1053200070E7C8F80030C9E7C8F80040E3E700BFFD
:10533000006006405F530020FF5200205E530020B3
:10534000C05300202153002054FAFF1F0548064A8D
:1053500010B40123054C037049001370217010BC78
:10536000704700BF5E5300205F53002000530020B1
:105370000121FFF727BF00BF044B054A1A604FF415
:105380007A71002299601A711A7370474C53002089
:10539000AC67010010B4047F4160022CC26002D0EF
:1053A00010BC07F073BC836810BC1847F0B4464BC0
:1053B000464A186BDC6A01791170454922790A70F6
:1053C0009A6A00790870002A46D05968C9688A42EA
:1053D0003ED82168CC8B240402F1FF3065D4C0F3A1
:1053E0000E00C883C88B80B2C882196B0968C88B4D
:1053F000000452D4C2F30E00C883C88B002480B2CC
:1054000012F1FF32C88218BF01229C62D96A2E486D
:1054100009680D6800F12404A54236D00068C4680C
:1054200014F0804F0C680D6815BF2488247802356D
:10543000013544F000440D604463196B254B097934
:105440001970214912B1CA6A12791A70F0BC7047FA
:10545000521A9A620122D9E7586B196805681E4CE6
:105460000A63CC62CC682D681C4E24F0804403276C
:10547000B542CC6083F825701FD1037F4260022BB8
:10548000C2601ED0F0BC07F001BC016890F8240097
:10549000CC6840F000404863CFE7CC8BC2F30800F3
:1054A00004F47E442043C883A7E7CC8BC0F30800F4
:1054B00004F47E442043C88394E72B461146F0BC95
:1054C00018478368F0BC184758FAFF1F1F80004038
:1054D0001C8000401B80004000000FFF955300001F
:1054E00090E80C00F0B41C6859682568164F174EF8
:1054F00029432160164D17491760D6601561116068
:10550000417A154A5C180A3194F8244053F8215026
:1055100002EBC40149680D60017A5C1803EB81015C
:10552000247ECD6902EBC40149680D60817A581868
:1055300003EB810390F83000596B02EBC002F0BC22
:1055400053681960704700BF01401F000110003808
:105550000110007800001F80206E0100426803687F
:1055600005CA10B4046822430260D868840100F0C0
:10557000E06205D5080900F4706021F47041014330
:10558000D8681143814209D01A68500408D40748EA
:10559000186041F08040D96018611A6010BC7047F3
:1055A00041F08042D96010BC1A61704701401F0071
:1055B0004268437A134493F824308B4209D0F0B404
:1055C00092F824408C4205D092F825408C421AD0A3
:1055D000F0BC7047002421461668556836682E4294
:1055E0000FD00A4D05EBC30300275E6853183760E0
:1055F00093F8243005EBC3050A316B6852F821207B
:105600001A604472E4E701242146E5E7206E0100B8
:105610004268037A13441B7E8B4207D0F0B4147E99
:105620008C4204D0547E8C421AD0F0BC70470024C7
:1056300021461668556836682E420FD00A4D05EB94
:10564000C30300275E68531837601B7E063105EBE5
:10565000C30502EB81026B6852681A600472E4E7CA
:1056600001242146E5E700BF206E01004268837AED
:10567000134493F830308B4209D0F0B492F83040A4
:105680008C4205D092F831408C421BD0F0BC704760
:10569000002421461668556836682E4210D00B4DFE
:1056A00005EBC30300275E685318376093F830306A
:1056B0000C3105EBC30502EB81026B6852681A607E
:1056C0008472E3E701242146E4E700BF206E010075
:1056D00038B590F90230002B044612DBA56805F1BD
:1056E000240001F0FDF928B9637843F001036370E9
:1056F000002038BD05F50C7001F0F2F90028F3D058
:1057000038BD8068A1692430012201F0A3F9002886
:10571000EAD0A38803F00F035B01C518E4D0C35C93
:10572000E52BE1D023780B4A1B0744BFE369EB610B
:10573000236A12686B831B0CAB8232B105F1160130
:1057400005F1180090472B8B6B82A37803F07F0341
:10575000A370C3E7685300202DE9F041037803F0FC
:1057600020032BB903F0FF044269204B9A4203D96E
:1057700000263046BDE8F08183780169054663F074
:105780007F038068AB7005F1100201F01DFB064637
:105790000028EDD02969A86801F0CAF90746A86871
:1057A00039462430052201F055F980460028DFD023
:1057B0004FF4007221460AF041F8AB681A79012AC9
:1057C0000FD9012403E0AB681A79A24209D9E11983
:1057D0001868424602F014F90134E4B20028F2D10C
:1057E000C6E76B6903EB42226A61C2E7FFFD1F0057
:1057F00038B5037804461BB900232370012038BD57
:1058000090F90230002B14DBA56805F1240001F0AB
:1058100067F938B9637843F001036370002323709C
:10582000002038BD05F50C7001F05AF90028F1D0C0
:10583000E2E78068A1692430012201F00BF9002819
:10584000E8D0A38803F00F035B01C518E2D0C35C66
:10585000E52BDFD023780B4A1B0744BFE369EB61DC
:10586000236A12686B831B0CAB8232B105F11601FF
:1058700005F1180090472B8B6B82A37803F07F0310
:10588000A370C1E7685300202DE9F0470D7815F0AB
:10589000700F88B003D1002008B0BDE8F087C323A3
:1058A00004460D4600F07EFE0028F4D05D4B626990
:1058B000012610219A42A6702170ECD8812362182B
:1058C000A3702169A06801F07FFA0028E3D0216964
:1058D000A06801F02DF90746A0683946243005225A
:1058E00001F0B8F880460028D5D04FF400720021AE
:1058F00009F0A4FF08E0F1190068424602F080F8C0
:105900000136F6B20028C6D0A0680279B242F2D8B9
:10591000636921782669266203EB422363610029CB
:1059200074D124300122A16901F094F80028B2D08A
:10593000A68806F00F0610EB4616ACD01023F372C3
:10594000B26830687168F368B6F81490B6F81AA0B7
:105950006F460FC730697169B269F36908AE0FC746
:105960004FF02E084FF02033216AA06806F8208DF2
:10597000CDF80530CDF80130ADF8093001F0D8F898
:10598000A3680146012203F1240001F063F8864672
:10599000002880D03746ADF81490ADF81AA00FCF8C
:1059A000CEF80000CEF80410CEF80820CEF80C3067
:1059B0000FCFCEF81000CEF81410CEF81820CEF885
:1059C0001C302B6A8DF801801A0C3546ADF81A3060
:1059D000ADF814200FCD0EF12006CEF82000716036
:1059E000B260F3600FCD30617161B261F361A468A0
:1059F00004F1240001F074F800283FF44CAF04F5E2
:105A00000C7008B0BDE8F04701F06AB813B100238C
:105A1000236163612046FFF75BFE00283FF43BAF44
:105A2000A0687EE7FFFD1F002DE9F041064692B019
:105A30003478019200208DF824008DF8250024B9D7
:105A40000D46097811F0700F03D1002012B0BDE8A7
:105A5000F081144612782F2A2DD00DF1040803AFDF
:105A6000002B53D042463946204600F0F5FB3A461B
:105A7000294601230028E8D0019C24783046002CD8
:105A800061D000F08FFD3A46294620B93046FFF735
:105A9000FBFE0028D9D035460FCD09AC0FC40FCD81
:105AA0000FC433782A682260002B48D1002333705A
:105AB000019C09ADD6E70134019422782F2AFAD04F
:105AC000AD680093242209A8002109F0B7FE0B95C8
:105AD000EA79009B102A3ED0202AB6D140228DF8C8
