:1000000000800020BD010000A9B4000061B4000020
:1000100061B4000061B4000061B4000061B400008C
:1000200061B4000061B4000061B40000A9B4000034
:10003000A9B4000061B4000011D2000061D4000036
:10004000A9B40000A9B40000A9B40000A9B400003C
:10005000A9B40000A9B40000A9B40000A9B400002C
:10006000A9B40000A9B40000A9B40000A9B400001C
:10007000A9B40000A9B40000A9B40000A9B400000C
:10008000A9B40000A9B40000A9B40000A9B40000FC
:10009000A9B40000A9B40000A9B40000A9B40000EC
:1000A00015570000A9B40000A9B40000A9B40000CD
:1000B000A9B40000A9B40000A9B40000A9B40000CC
:1000C000A9B40000A9B40000A9B40000A9B40000BC
:1000D000A9B40000A9B40000A9B40000A9B40000AC
:1000E000A9B40000A9B40000A9B40000A9B400009C
:1000F000A9B4000049BB0000A9B40000D5DA000093
:10010000A9B4000001DC0000A9B40000A9B40000FB
:10011000A9B40000A9B40000A9B40000A9B400006B
:10012000A9B40000A9B40000A9B40000A9B400005B
:10013000A9B40000A9B40000A9B40000A9B400004B
:10014000A9B40000A9B40000A9B40000A9B400003B
:10015000A9B40000A9B40000A9B40000A9B400002B
:10016000A9B4000009BE0000A9B40000A9B40000B1
:10017000A9B40000A9B40000A9B40000A9B400000B
:10018000A9B40000A9B40000A9B40000A9B40000FB
:10019000A9B40000A9B40000A9B40000A9B40000EB
:1001A000A9B40000A9B40000A9B40000A9B40000DB
:1001B000A9B40000A9B400009DCF0000564B4CF23A
:1001C000205210B51A804DF628121A8000BF00BFC9
:1001D00000F09AFB514B4FF010621A60504A9A603F
:1001E000504ADA60504A136813F4807304D14F49BF
:1001F0000B604FF4A85313604D4B1A78110703D5C9
:100200001A7842F008021A704A4B4B492A221A7097
:100210004A4A4B4B8B4204D252F8040F43F8040B6A
:10022000F8E7484B484900228B4202D243F8042B9E
:10023000FAE74649464A002352F8230041F82300D2
:1002400001336F2BF8D1434B434A802103F8011B44
:100250009342FBD1414B3D4A1A60414B8A221A70AE
:10026000A3F5805324225A70A0221A709A7992071B
:10027000FCD59A79D406FCD43A4A937903F00C035E
:10028000082B384BF9D103221A7140225A719A79FE
:100290009006FCD5334A9179324B4906FBD5324A58
:1002A000324911600221516020221A709A7902F0BD
:1002B0000C020C2AFAD12E4B2E4A1A602E4B4BF60A
:1002C0007F321A6000225A60072243F8042C2B4A1E
:1002D000C3F80C2D62B60BF009FA144B1B68DA0751
:1002E00005D527480BF0F0F9264B274A1A60274B13
:1002F0001B785B0609D5234C234B22689A4204D114
:100300001F480BF0E1F9002323600EF085FF0BF08E
:10031000CFF80DF03DFBFEE70E2005403080044095
:10032000823F04000100002B10D0034014D0034092
:1003300002D0074000E00740D8FFFF1FB87401005B
:1003400020EFFF1FD8FFFF1F6C0C002000EAFF1FEB
:100350000000000000E400E05FE400E008ED00E0E1
:100360000050064000400640448004400000131145
:1003700004800440C010050014E000E000002020CC
:100380007FA7615B1CE00340A5C3945A00F00740BF
:10039000FFFFFFFFFFFFFFFFFFFFFFFFFFFFFFFF6D
:1003A000FFFFFFFFFFFFFFFFFFFFFFFFFFFFFFFF5D
:1003B000FFFFFFFFFFFFFFFFFFFFFFFFFFFFFFFF4D
:1003C000FFFFFFFFFFFFFFFFFFFFFFFFFFFFFFFF3D
:1003D000FFFFFFFFFFFFFFFFFFFFFFFFFFFFFFFF2D
:1003E000FFFFFFFFFFFFFFFFFFFFFFFFFFFFFFFF1D
:1003F000FFFFFFFFFFFFFFFFFFFFFFFFFFFFFFFF0D
:10040000FFFFFFFFFFFFFFFFFFFFFFFFDEF9FFFF23
:1004100010B5054C237833B9044B13B10448AFF33E
:1004200000800123237010BDD8FFFF1F00000000D3
:10043000B4740100084B10B51BB108490848AFF36C
:1004400000800848036803B910BD074B002BFBD0A0
:10045000BDE81040184700BF00000000DCFFFF1F90
:10046000B4740100D8FFFF1F000000000020704797
:10047000704700BF027C02F0080202F0FF0332B1B5
:10048000C36A406A181A48BF6FF0004070471846A8
:10049000704700BFF8B55548554D564C297803783C
:1004A0002278DFF868E1544F544E120442EA0323E5
:1004B000FF222A700270802022708EF800003870AF
:1004C000B2794F480B4312F00C0FC36002D1B379DD
:1004D000DC063DD4494A9379C3F38103032B40D012
:1004E000464B9A79C2F38102022A42D0434A937959
:1004F000C3F38103022B53D0404A9379C3F38103A2
:10050000022B61D03D4A9379C3F38103012B51D073
:100510003A4A9379C3F38103012B5CD0374B9A7924
:1005200012F00C0F03D19A79D20600D49B79354D85
:10053000354B2A7853F82240D4B1236820469B6873
:1005400098472B7804EB83046468002CF5D1F8BD40
:10055000B3799806EBD5294A9379C3F38103032B2A
:10056000BED19379D906BBD493799B06DFD4B7E784
:10057000F8BD9A79D706B9D49A799606B6D559783E
:1005800001F0020101F0FF020029AFD120211A7011
:100590001A461970937903F00C030C2BFAD1C6E7B5
:1005A0009379DD06A8D493799C06A5D4537898074F
:1005B000BDD5A1E79379DF06AAD593799E06A7D486
:1005C00053789D07B3D4A3E79379D9069AD4537887
:1005D0009B07ACD496E79379DC069FD59379980670
:1005E0009CD453789907A2D598E700BF06C007406E
:1005F00005C0074007C0074009C00740004006404B
:10060000440C002018090020D808002008C007402A
:1006100090F92410104B03604B1C06D0F0B40F4E21
:1006200056F82130984201D0F0BC70470C4F57F873
:10063000213033B18D0000245A1953685460002BC7
:10064000FAD1084C23780022013B237047F821207F
:1006500046F82120E8E700BFF4630100F808002015
:10066000D80800201909002038B590F924506B1CD7
:100670001BD00E4B0E4953F825400E4BEDB24FF0F8
:10068000FF320D701A6084B1AD0002E02C44646842
:100690005CB194F82530002BF8D0236820462C4418
:1006A0001B6898476468002CF3D138BDD808002037
:1006B0001809002090E9FF1F704700BF90F924102F
:1006C000104B03604B1C06D0F0B40F4E56F821308F
:1006D000984201D0F0BC70470C4F57F8213033B12D
:1006E0008D0000245A1953685460002BFAD1084C2D
:1006F00023780022013B237047F8212046F821206F
:10070000E8E700BFF4630100F8080020D8080020E3
:100710001909002090F92410104B03604B1C06D0DF
:10072000F0B40F4E56F82130984201D0F0BC70471B
:100730000C4F57F8213033B18D0000245A195368FB
:100740005460002BFAD1084C23780022013B23701F
:1007500047F8212046F82120E8E700BFF4630100B4
:10076000F8080020D808002019090020083005F0FA
:1007700023BE00BF103005F01FBE00BF00B583B020
:1007800002AB012203F8011D1030194605F014FEDA
:1007900003B05DF804FB00BF00B583B002AB0122DB
:1007A00003F8011D0830194605F006FE03B05DF898
:1007B00004FB00BF103005F0DBBC00BF00B583B008
:1007C00001220DF10701103005F00CFC01280CBFCF
:1007D0009DF807004FF0FF3003B05DF804FB00BF49
:1007E000103005F09BBD00BF083005F097BD00BF7D
:1007F0002DE9F0410E4680460AF060FF174D286053
:1008000008F028F90746286808F000F90446286827
:1008100008F0EAF86401C0B204F4FF54BFB2044324
:10082000A7F2BC7744EA4724A8F80040286808F0FB
:10083000FFF80746286808F0B3F80446286808F06F
:10084000C1F8FF02640107F4FF2704F4FF54C0F36A
:1008500046003C4304433480BDE8F081F0040020AE
:1008600030B5164CADF5017D204604F0BDFC4FF4CB
:10087000807501462A4668460AF038FA204604F098
:10088000D1FC204604F0B0FC2A4601460DEB0500E1
:100890000AF02CFA204604F0C5FC69464FF40072B9
:1008A000074805F089FD0748074902680B680132CF
:1008B000013302600B600DF5017D30BD04050020A1
:1008C0004C000020000500207C07002010B50446E5
:1008D0000FF076FB21460246BDE8104001480CF0BF
:1008E000C7BD00BF0007002010B504460FF068FB2D
:1008F000014620460CF0FAF8044602480CF046FE89
:10090000204410BD7CF5FF1F404A414B1020108051
:100910001B781B072CD5F0B53E4E3F4D3F4C317830
:100920002B7822783E4FDFF810E1824042EA032321
:100930000B43FF22802132702A7022708EF8001043
:100940003970DF07374A0CD51A239360364D374C80
:100950003748384900232B70D360237003700B7025
:10096000F0BD1E0705D4DD0606D504239360EDE730
:10097000704721239360E9E79C0604D4590604D507
:1009800016239360E2E79060E0E71F0602D5092393
:100990009360DBE7DE0502D50A239360D6E79D0569
:1009A00002D50D239360D1E75C0502D50B2393603C
:1009B000CCE7180502D51E239360C7E7D90402D5FA
:1009C00002239360C2E79F0402D507239360BDE72B
:1009D0005E0402D506239360B8E71D0402D51523F3
:1009E0009360B3E7DC0302D524239360AEE798035A
:1009F00002D522239360A9E7D90202D5252393606B
:100A0000A4E79B0244BF232393609FE70020054097
:100A100002D0074005C0074006C0074007C0074096
:100A200009C00740440C002000C0074001C0074037
:100A300002C0074003C0074008C00740002976D025
:100A40002DE9F04F0C469100631883B05D68002DCE
:100A500057D06B185E68002E50D073185F68002F57
:100A600049D07B18D3F80480B8F1000F3CD008EBD4
:100A70000103D3F80490B9F1000F32D009EB010360
:100A8000D3F804A0BAF1000F27D00AEB0103D3F882
:100A900004B0BBF1000F18D00BEB01035B6863B12E
:100AA000194401934968FFF7C9FF019B93F825207A
:100AB0001AB11A681846536898479BF8253023B135
:100AC000DBF8003058465B6898479AF8253023B128
:100AD000DAF8003050465B68984799F82530002BCB
:100AE00035D198F8253063BB97F825301BB13B68AA
:100AF00038465B68984796F82530CBB995F825308D
:100B000063B994F8253013B903B0BDE8F08F2368BA
:100B10005B68204603B0BDE8F04F18472B682846B5
:100B20005B68984794F82530002BEDD0EFE77047CD
:100B3000336830465B68984795F82530002BE0D045
:100B4000ECE7D8F8003040465B689847CCE7D9F826
:100B5000003048465B689847C3E700BF90F92420FF
:100B6000531C26D01B4B2DE9F04153F82240D2B242
:100B7000ECB19300E1184D68B5B1E9184E6866B163
:100B8000F1184F6837B13B445968FFF757FF97F8A2
:100B90002530A3B996F8253063B995F825301BB1F7
:100BA0002B6828465B68984794F8253063B9BDE800
:100BB000F0817047336830465B689847EDE73B68E3
:100BC00038465B689847E5E7236820465B68BDE8E0
:100BD000F0411847D808002008B50849084A094BD1
:100BE000098811800848002283F8F62004F0A2FF4B
:100BF0006420BDE808400AF0DBBE00BFF00A002018
:100C0000C80A0020040500204C0000202DE9F04F08
:100C1000A3B00AF053FD2D4C2D4D206007F0F6FED9
:100C20002B6883422B4B40F021821A78002A40F037
:100C30001D8215AE002110200AF07EFE264B1A7888
:100C400000232F2A8DF854308DF8553000F029827A
:100C50000123214A2149304605F024F978B19DF855
:100C6000543013F0700F0AD0B646BEE80F001B4D8B
:100C70000FC5BEE80F000FC5DEF800302B602068FE
:100C800007F0E8FE0546206807F0C0FE80462068B1
:100C900007F0AAFE8346206807F0CAFE8146206856
:100CA00007F07EFE8246206807F08CFE2A460390FD
:100CB000CDF800B0CDF808A0CDF80490434608491F
:100CC00008480FF00FF9002532E000BFF0040020C3
:100CD000980700204807002000060020B4040020E8
:100CE00018640100C4060020206807F0B3FE8046A7
:100CF000206807F08BFE8146206807F075FE0746E6
:100D0000206807F095FE8246206807F049FE83467A
:100D1000206807F057FE00970390CDF808B0CDF893
:100D200004A04B4642460495BB49BC480FF0DAF894
:100D30004FF0000E0123B94AB9498DF854E030460E
:100D40008DF855E005F0AEF801350028CCD101460C
:100D500010200AF0F1FD0025202410200AF0FEF9F1
:100D60000DF074FE014628460DF0BCFD013C054621
:100D7000F3D1012110200AF0DFFD4FF47A79DFF87A
:100D8000E482A7488DF830408DF831408DF824403A
:100D90008DF82C40CDF82890CDF8208004F0CAFEC4
:100DA000A04901F23C4005F0FDF846239E4A9C49CB
:100DB0008DF8644019A88DF865408DF858408DF87D
:100DC0006040CDF85C90CDF8548005F06BF80DF1E3
:100DD000640EBEE80F000CAC0FC4BEE80F000FC4D9
:100DE0009DF83030DEF8000017999DF858E09DF826
:100DF000602020608DF824E00A918DF82C20002BD3
:100E000040F06A81894B1A7819462F2A4FF0000367
:100E10008DF854308DF8553000F051810123834A0C
:100E20007F49304605F03EF858B19DF8543013F034
:100E3000700F06D00FCE7A4C0FC40FCE0FC433689C
:100E400023604FF47A750024C223744A74491795BD
:100E500019A819AD8DF864408DF865408DF858409B
:100E60008DF86040CDF8548005F01CF80FCD704F20
:100E70009DF858403C7107F110040FC40FCD0FC40A
:100E80009DF86030179A29683B73BA606348216007
:100E90000FF096F8014661480BF028FE65480CF00B
:100EA00075FB3B7C002B77D1DFF8BC910DF1200A5C
:100EB000D9F800306049594801331A46C9F8003062
:100EC0000FF010F819A800264FF47A7B4623564AF3
:100ED00053498DF8646004468DF865608DF858605C
:100EE0008DF86060CDF85480CDF85CB004F0DAFF86
:100EF0000FCC0CAD0FC50FCC0FC522689DF858C0A4
:100F00009DF860E0179B4D492A600CA819228DF8C6
:100F100024C08DF82CE00A9305F04EFA3F48484D66
:100F20000FF04EF83D4902460CA805F045FA504630
:100F30000CF02CFB0CA804F0FDFDC223374A384905
:100F40008DF864608DF865608DF858608DF860608C
:100F500019A819AECDF85CB0CDF8548004F0A2FF0A
:100F60000FCE0FC50FCE0FC59DF858E09DF860302D
:100F7000179A3B7387F804E0BA60246827482C600E
:100F80000FF01EF8014625480BF0B0FD29480CF083
:100F9000FDFA3B7C002B8BD02A482B4907682B4C51
:100FA0002B4A2C4B2C4D03C9206092E80300A06013
:100FB00093E8030010260123A382E382E060266108
:100FC00038460DF083FF3946A06138460DF08AFCA3
:100FD0000DF07CFF214AE0612B68668492E80300F3
:100FE0005B0203F124062C2260622146022714488A
:100FF000A3622784666005F0DFF9092118480BF029
:1010000075FD29680B480CF047FA0A480CF0BEFA47
:1010100023B0BDE8F08F00BF38640100C406002093
:10102000B4040020780000205C6401000006002069
:101030003C0000207CF5FF1FC8640100D46401005F
:101040004C00002018F0FF1F9C640100E407002002
:10105000A4640100AC64010038070020B4640100FE
:10106000BC640100B8630100FC0500200027206873
:101070001F7007F0CBFC2860206807F0EBFC15AE72
:1010800002462B68814982480EF02CFF304601232E
:101090007F4A80498DF854708DF8557004F066FED3
:1010A000C8E57B4B5B78002B7FF4D2AD794804F028
:1010B00041FD794901F23C4004F074FFDFE54B78D3
:1010C000002B7FF4ABAE734804F034FD724901F29B
:1010D0003C4004F067FFB4E67048714C0EF070FFBE
:1010E0006E4902460CA805F067F922A92C2301F8E5
:1010F0006C3D01220CA805F05FF904F108090DF11F
:10110000200A14F8011F00230A2250460CF060FA4E
:10111000A145F6D1284663490DF0ECFC4FF06A5129
:101120000DF0E8FC4FF074510DF0E4FC22A92C25E1
:101130000446012201F8695D0CA805F03DF95A4BFF
:1011400018680DF02DF84FF002090B460246CDF855
:10115000009050460CF098FA22A9012201F86A5D2D
:101160000CA805F029F920460DF01AF8CDF80090EA
:101170000B46024650460CF087FA22A9012201F8DC
:101180006B5D0CA805F018F948480EF019FF4749A7
:1011900002460CA805F010F950460CF0F7F920466D
:1011A00043490DF045FE40B9204642490DF040FE4E
:1011B00020BB0CA804F0BEFC24E63F4D2B68002B9E
:1011C000F2D0012105200AF085FB40F6B8300AF084
:1011D000EFFB002105200AF07DFB002108460AF004
:1011E00079FB364A3649002313700CA80B222B607A
:1011F00005F0E2F850460CF0C9F9D5E7282231494C
:101200000CA805F0D9F850460CF0C0F90CA804F071
:1012100091FC002110200AF08FFB002520241020D3
:1012200009F09CFF0DF012FC014628460DF05AFB18
:10123000013C0546F3D11B490DF05CFC4FF06A51AF
:101240000DF058FC0121054610200AF075FB4FF007
:10125000745128460DF04EFC1B490DF0E9FD80B19C
:10126000214602200AF036FB142322462146174865
:1012700007F03CFA164807F00FF80A200AF098FB2E
:10128000C7E7012102200AF025FB92E70C64010068
:1012900000060020B404002078000020C4060020CE
:1012A00083060020438BAA409406002004F0FF1F11
:1012B000666646400000404090060020FD04002085
:1012C0006464010070640100CDCC4C40180600201D
:1012D000100000202DE9F84F264D274E2A68DFF830
:1012E000A88056F82240254F013C46F8224008F5D8
:1012F0008C692349DFF894E04FF03843A1F10C00EA
:1013000001324FF0010A74B9042A2A6087F800A05C
:1013100008D01EF8222006F0B1FA30B92A6856F833
:101320002240E6E7FEE7BDE8F88FDFF864B0C8F8D2
:101330000090584604F0FEFB5146ABF23C4006F0EC
:10134000A1F980B1ABF23C41584604F02BFE0028D5
:10135000E4D098F83C3413F0700FDFD0094BC3F899
:1013600000B0BDE8F88F2146074806F08BF9002849
:10137000E8D1D3E7D00700208007002048070020ED
:10138000E4040020D008002078000020FCFFFF1FAC
:10139000B404002010B5294C29482278114603F0E6
:1013A00009FA23680F2B0CD8DFE803F00C1014188F
:1013B0001C2024282C3034383C404408214B224A3D
:1013C0001A6010BD1F4B214A1A6010BD1D4B204AE8
:1013D0001A6010BD1B4B1F4A1A6010BD194B1E4AE4
:1013E0001A6010BD174B1D4A1A6010BD154B1C4AE0
:1013F0001A6010BD134B1B4A1A6010BD114B1A4ADC
:101400001A6010BD0F4B194A1A6010BD0D4B184AD7
:101410001A6010BD0B4B174A1A6010BD094B164AD3
:101420001A6010BD074B154A1A6010BD054B144ACF
:101430001A6010BD034B134A1A6010BD00F0FF1F65
:101440007406002094060020BD549341103377C0E9
:10145000993918C0BE0D68BFCE71153F8D09034084
:10146000CCC9624009A7A3407DDBD140C41601412D
:1014700054FC1741D0E83041195546419FAB5F41BC
:10148000A04176415E2E864108B5012105200AF073
:1014900021FA4FF4FA600AF08BFA002105200AF0D5
:1014A00019FA024B01221A7008BD00BFFD0400208A
:1014B00008B5012105200AF00DFAC8200AF078FAD3
:1014C000002105200AF006FA64200AF071FA044BA4
:1014D000002101221A700846BDE808400AF0FAB956
:1014E000FD04002008B5012105200AF0F3F940F6BB
:1014F000B8300AF05DFA002105200AF0EBF900216E
:1015000008460AF0E7F9024B00221A7008BD00BF36
:10151000FD0400202DE9F0438FB004460EF050FD8D
:1015200000B201281CDDB4F9003044F2537293423A
:1015300000F0878118DD44F65452934200F0D580C4
:1015400045F2532293422AD044F65212934207D1D5
:101550000BAAE01CC3490EF0EBFCC34B0B9A1A60BC
:1015600001200FB0BDE8F08344F24E4293420FD009
:1015700044F252429342F3D10BAAE01CB9490EF057
:10158000D7FCBA4B0B9A1A6001200FB0BDE8F0836C
:10159000B74B012201201A600FB0BDE8F0830AADFD
:1015A00009A908AA05ABE01C0395029101920093DA
:1015B00007AA06ABAF490EF0BBFCAF4B079D5968BD
:1015C00018689A680A9EDDF824E0DDF820C0A5F5C9
:1015D000FA65ADB20BAF2CB207C7069F05991E3452
:1015E00015F0030F4FEAA408FDB240F03981A34B78
:1015F000022D8CBF1F460027A148A24BC8EB040454
:1016000000FB08F06A1E03FB0400002A00EB07033E
:1016100047DD9DF82C409948012A00FB043340D057
:101620009DF82D40022A00FB04333AD09DF82E404D
:10163000032A00FB043334D09DF82F40042A00FB1A
:1016400004332ED09DF83040052A00FB043328D007
:101650009DF83140062A00FB043322D09DF8324029
:10166000072A00FB04331CD09DF83340082A00FBF6
:10167000043316D09DF83440092A00FB043310D0FF
:101680009DF835400A2A00FB04330AD00B2A9DF846
:10169000364018BF9DF8372000FB043318BF00FB0D
:1016A00002335FFA8EF2C2EB02125FFA8CF04FF453
:1016B0006164920004FB0022704D734C7348C9B200
:1016C000013952FA86F205FB0122134412212360EC
:1016D0000BF00CFA21686E480BF0DEFE6C480BF044
:1016E00055FF01200FB0BDE8F0830AAD09A908AA93
:1016F00005ABE01C039502910192009307AA06AB8B
:101700005C490EF015FC5C4B079F9A681868596895
:101710000A9EDDF824E0DDF820C0A7F5FA67BFB225
:101720000BAC3DB207C4069A059C1E3517F0030F9B
:101730004FEAA508D7B240F09080504B022F8CBFE3
:1017400099464FF000094E494E4BC8EB050501FB89
:1017500008F17A1E03FB0510002A00EB090347DDA0
:101760009DF82C004549012A01FB003340D09DF82B
:101770002D00022A01FB00333AD09DF82E00032AE7
:1017800001FB003334D09DF82F00042A01FB003305
:101790002ED09DF83000052A01FB003328D09DF89B
:1017A0003100062A01FB003322D09DF83200072ABF
:1017B00001FB00331CD09DF83300082A01FB0033E5
:1017C00016D09DF83400092A01FB003310D09DF893
:1017D00035000A2A01FB00330AD00B2A9DF8360097
:1017E00018BF9DF8372001FB003318BF01FB0233FF
:1017F0005FFA8EF2C2EB02125FFA8CF04FF4616571
:10180000920005FB0022E1B21C4C1F4D52FA86F2F9
:10181000013904FB01241C4420462C6009F054FFCC
:101820000B211C480BF062F9214600230A221848BC
:101830000BF0CEFE16480BF0A9FE01200FB0BDE85C
:10184000F0830BAAE01C07490EF072FB124B0B9AB7
:101850001A6001200FB0BDE8F0834FF0000972E775
:101860000027C9E63C6501002CF0FF1F20F0FF1F98
:10187000700000201C65010000640100805101001F
:101880000085E2018033E101F80400204065010099
:101890007CF5FF1F3065010000F0FF1F2DE9F043CC
:1018A000A3B000254FF47A766E4F6F4A6F490A96BF
:1018B000012319A817968DF830508DF831508DF806
:1018C00024508DF82C508DF864508DF865508DF8AB
:1018D00058508DF860500897159704F0E3FA0DF111
:1018E000640EBEE80F000CAE0FC6BEE80F000FC6B8
:1018F0009DF83080DEF800109DF85800179A9DF88A
:10190000603031608DF824000A928DF82C30B8F1E7
:10191000000F46D02E468DF800604FF000094FF0C2
:10192000FF08012215A90CA804F05CFB09F10103D2
:1019300022AA01284A441BB224D01D2B02F8888C0D
:1019400005DC9946EDE71D2B01DC0A2AF9D1013BA4
:101950009BB222AA1A4402F8886C9DF800202F2A14
:1019600004D0012B02D96846FFF7D4FD9DF8303032
:101970001B0711D40CA804F0DDF82DBB012023B007
:10198000BDE8F0839DF854200D2A08BF4B465AD17C
:101990001D2BDCDC9946C4E7139A119B9A42BAD1FD
:1019A000E8E7142132480BF0A1F832480BF0EEFDC5
:1019B0000D22314931480BF05BFD30480BF0E6FD5C
:1019C000404623B0BDE8F0830B212D480BF08EF884
:1019D000214600230A2227480BF0FAFD002525485E
:1019E0000BF0D4FD4FF47A768DF864508DF8655085
:1019F0008DF858508DF8605063231B4A1B49179689
:101A000019A819AD159704F04DFA0FCD0CAE0FC6FD
:101A10000FCD0FC62968179A9DF860309DF8585071
:101A200031600CA821460A928DF82C308DF8245094
:101A300004F0D2FB022213490CA804F0BDFC0CA850
:101A400004F078F89AE722AB03EB0901542A09F174
:101A5000010301F8882C1BB27FF475AF119C054679
:101A6000013C95E7B863010054650100B40400200F
:101A7000706501007CF5FF1F8865010000070020EC
:101A8000606501006C65010030B583B002AD079C54
:101A900005F8082D8DF80200069A8DF804304E34B2
:101AA00028468DF801108DF805208DF8064006F0C7
:101AB000E5FF09F009FE09F001FE024B186003B0D2
:101AC00030BD00BF7400002010B5094C204608F05E
:101AD0002BFD2046012107F04DFF2046022107F093
:101AE00043FF002220461146BDE8104007F038BFF2
:101AF0000007002038B5054606F0ACFF1E4C014635
:101B000020460BF0C9FC2D200BF0C4F8284606F047
:101B10007DFF014620460BF0BFFC2D200BF0BAF8EC
:101B2000284606F061FF014620460BF0B5FC012176
:101B300012480AF0DBFF284606F07AFF01462046ED
:101B40000BF0AAFC3A200BF0A5F8284606F028FF77
:101B5000014620460BF0A0FC3A200BF09BF82846EB
:101B600006F030FF014620460BF096FC2046BDE80B
:101B700038400BF00BBD00BF7CF5FF1FE466010091
:101B80002DE9F043434A444BDFF81891DFF8188100
:101B9000424D98F80010167899F800701A78286865
:101BA00083B03C2313FB071713FB062606F040FF08
:101BB0000446286806F0F4FEC4EB041400EB840429
:101BC000286806F047FF00F14E0328688DF80630BC
:101BD00006F01CFF8DF80500286806F005FFB742E7
:101BE0008DF8040006D2A74232D8A64230D303B003
:101BF000BDE8F083A742FAD9A642F8D202A8002392
:101C000099F8002000F8083D98F800308DF8013070
:101C10008DF8022006F032FF0F21286020480AF0DC
:101C200065FF2868FFF766FF09F048FD2B688342CF
:101C300004DA03F5A83303F5C0732B600F211848AD
:101C40000AF054FF2868FFF755FF03B0BDE8F083A2
:101C500002A8002399F8002000F8083D98F8003009
:101C60008DF801308DF8022006F008FF0F21286062
:101C70000B480A4C0AF03AFF2868FFF73BFF09F0CF
:101C80001DFD2B688342D9DA03F5A83303F5C07331
:101C90002360D3E7C0060020FC040020F8040020E5
:101CA0009865010038000020CC07002010B5002006
:101CB00009F01AFB214C2070012009F015FB60701F
:101CC000022009F011FBA070032009F00DFB1C4B52
:101CD000E07022681A60042009F006FB20700520DD
:101CE00009F002FB6070062009F0FEFAA0700720E0
:101CF00009F0FAFA134BE07022681A60082009F024
:101D0000F3FA114B1870092009F0EEFA0F4B187016
:101D10000A2009F0E9FA0E4B18700B2009F0E4FADA
:101D20000C4B18700C2009F0DFFA0B4B18600D20DB
:101D300009F0DAFA08B1094B187010BD98060020B6
:101D400020F0FF1F2CF0FF1F38000020CC070020E0
:101D5000C0060020FC0400203C0700201CF0FF1FF0
:101D6000234B10B51968234C00202160C9B209F03B
:101D700011FB6178012009F00DFBA178022009F028
:101D800009FBE178032009F005FB1B4B1968216072
:101D90000420C9B209F0FEFA6178052009F0FAFAC8
:101DA000A178062009F0F6FAE178072009F0F2FAA6
:101DB000124B0820197809F0EDFA114B0920197817
:101DC00009F0E8FA0F4B0A20197809F0E3FA0E4BF4
:101DD0000B20197809F0DEFA0C4B0C20197809F069
:101DE000D9FA0B4B0D201978BDE8104009F0D2BA92
:101DF00020F0FF1F980600202CF0FF1F3800002065
:101E0000CC070020C0060020FC0400203C07002076
:101E10001CF0FF1F2DE9F04F0546DFF84C828D4E78
:101E20008D4F98F800E02E60FF2085F82400DFF841
:101E30003C92387859F820C00023BEF1060F8DB0CF
:101E40000C4685F8253085F826309CBF88F8003090
:101E50009E46BCF1000F00F0A8808C455BD0634625
:101E6000810001E09C4256D00B445B68002BF9D105
:101E7000634603EB010ADAF80430002BF9D105EBD5
:101E8000010BCAF80440BEF1060F4FF0FF044FFAF1
:101E900080FACBF804308DF82C4002968DF82D3066
:101EA0008DF82E3085F824A0644605D8002388F8E4
:101EB0000030002C00F0A980A24226D0234601E089
:101EC000934222D00B445B68002BF9D104EB010C48
:101ED000DCF80440002CF9D1CCF804200CAB1944F8
:101EE0000024431CBAF1FF3F41F8244C3B708DF8AD
:101EF0002CA0029605D0594951F82A3002AA9342E3
:101F000072D028460DB0BDE8F08F013038702846F9
:101F10000DB0BDE8F08F0023FF21BEF1060F029641
:101F20008DF82C108DF82D308DF82E3001D888F8D2
:101F300000309445E9D06346810001E09A42E4D044
:101F40000B445B68002BF9D18C44DCF804402CB1C5
:101F5000A4468C44DCF80440002CF9D10CAB1944A5
:101F60004FFA80FE431CBEF1FF3FCCF804203B70CB
:101F700041F8244C02968DF82CE0C2D0374951F834
:101F80002E3002AA9342BCD159F82E304FEA8E0669
:101F900023B19A1953685460002BFAD1002338708A
:101FA00049F82E3041F82E30ABE7B0B38100DFF8AE
:101FB000ACA049F8204005EB010C00234AF8205062
:101FC000BEF1060FCCF804304FFA80FA4FF0FF0C48
:101FD00002968DF82D308DF82E3085F824A08DF8DE
:101FE0002CC07FF663AF64E759F82A304FEA8A06BF
:101FF00023B19A1953685460002BFAD1002338702A
:1020000049F82A3041F82A307BE7A0B1134B49F850
:10201000202002AA43F8202060E7114901921520F0
:1020200009F080FA0F4B98F800E0019A4FF4001184
:1020300019603878BAE70A490192152009F072FA56
:10204000084B019A4FF40011196038784FFA80FA62
:102050008100DBE7F463010019090020F808002083
:102060009504000000E100E094E9FF1FD80800207B
:102070002DE9F0415A4D5B4C5B4E09F0EDF804211F
:102080005A4808F03DFA2A682660002363722361EB
:102090002372E3600AB99EE01A465369002BFBD114
:1020A00054610027524B4F486761A780E780236047
:1020B00002F002FF4F4A4FF0010E02F118013B46B9
:1020C00038461772D760166082F809E0116117462A
:1020D00000E0396941F82300517A464E01339942B4
:1020E000F7DC29683E4B09B977E019464B69002BAC
:1020F000FBD14A61404B41491C60002418465461A1
:102100009480D48082F8F4405A6082F8F5401160DF
:10211000C2F8F04082F8F6401C725C72DC600AF093
:102120000DFF374B374A384D38483949C3F86C04EE
:10213000642683F86064374FDC7183F83C4483F88D
:102140003D4483F86A44344E096817600A232E60C0
:102150002B721472547214714FF087400CF07EFD94
:102160002E4D2F4B2F4E18604FF0FF082E4B2F4A4D
:102170002F4985F825400127284685F824802B60C3
:102180006C63AC6385F83C4085F826700DF032F83E
:10219000284B264A284986F82480304686F8254070
:1021A000336086F826700DF025F82A46314623481C
:1021B000FFF730FE1D4A224920480DF01BF8214B45
:1021C000214A1C744FF47A715C741C711C73996001
:1021D0001A60BDE8F0812C6063E71E608AE700BFEB
:1021E000C40A0020A4060020AC6301000007002000
:1021F00038680100040500206406002044680100DE
:1022000078000020500700207406002001100138DB
:1022100018F0FF1FDC6301001C6801001806002095
:1022200058060020A0070020EC680100FCEFFF1F0B
:10223000BD06000000690100150700001000002025
:10224000110600003C000020B863010010B5184CD6
:102250000A21204603F0BAFB2046002103F08EF944
:102260002046302103F08AF92046002103F086F948
:102270000021204603F082F9204603F0B9FB2046F6
:102280000A2103F0A3FB2046002103F077F9204642
:10229000022103F073F92046002103F06FF9204674
:1022A000002103F06BF92046BDE8104003F0A0BB0D
:1022B000B808002010B5184C0A21204603F086FB10
:1022C0002046002103F05AF92046302103F056F948
:1022D0002046002103F052F9AB21204603F04EF9CD
:1022E000204603F085FB20460A2103F06FFB2046C1
:1022F000002103F043F92046022103F03FF9204674
:10230000002103F03BF92046632103F037F9204612
:10231000BDE8104003F06CBBB808002010B5E94CD4
:102320000A21204603F052FB2046002103F026F943
:102330002046302103F022F92046402103F01EF907
:102340006021204603F01AF9204603F051FB204695
:102350000A2103F03BFB2046002103F00FF9204641
:10236000262103F00BF92046002103F007F96C2128
:10237000204603F003F9204603F03AFB20460A21E9
:1023800003F024FB2046002103F0F8F82046282122
:1023900003F0F4F82046012103F0F0F8F021204684
:1023A00003F0ECF8204603F023FB20460A2103F05B
:1023B0000DFB2046002103F0E1F820462A2103F01E
:1023C000DDF82046002103F0D9F80021204603F073
:1023D000D5F8204603F00CFB20460A2103F0F6FA5C
:1023E0002046002103F0CAF820462C2103F0C6F84D
:1023F00020460F2103F0C2F82221204603F0BEF848
:10240000204603F0F5FA20460A2103F0DFFA2046C1
:10241000002103F0B3F820463C2103F0AFF820463A
:10242000442103F0ABF84621204603F0A7F82046EC
:1024300003F0DEFA20460A2103F0C8FA2046002104
:1024400003F09CF82046242103F098F8204601214F
:1024500003F094F83721204603F090F8204603F06B
:10246000C7FA20460A2103F0B1FA2046002103F002
:1024700085F82046302103F081F82046002103F042
:102480007DF8AB21204603F079F8204603F0B0FA3E
:1024900020460A2103F09AFA2046002103F06EF844
:1024A0002046022103F06AF82046002103F066F876
:1024B0006321204603F062F8204603F099FA4FF4B6
:1024C000C87009F075FA20460A2103F07FFA204609
:1024D000002103F053F820462E2103F04FF8204648
:1024E000192103F04BF81921204603F047F8204644
:1024F00003F07EFA20460A2103F068FA2046002104
:1025000003F03CF82046042103F038F8204600216F
:1025100003F034F80421204603F030F8204603F09D
:1025200067FA20460A2103F051FA2046002103F001
:1025300025F82046062103F021F82046012103F06A
:102540001DF83021204603F019F8204603F050FA18
:1025500020460A2103F03AFA2046002103F00EF843
:1025600020460A2103F00AF82046002103F006F86D
:102570000021204603F002F8204603F039FA2046F5
:102580000A2103F023FA2046002102F0F7FF20463B
:102590000E2102F0F3FF2046002102F0EFFF082198
:1025A000204602F0EBFF204603F022FA20460A21E3
:1025B00003F00CFA2046002102F0E0FF2046102133
:1025C00002F0DCFF2046FF2102F0D8FF3C2120462C
:1025D00002F0D4FF204603F00BFA20460A2103F054
:1025E000F5F92046002102F0C9FF2046222102F021
:1025F000C5FF20467F2102F0C1FF7F21204602F067
:10260000BDFF204603F0F4F920460A2103F0DEF96D
:102610002046012102F0B2FF2046242102F0AEFF45
:102620002046002102F0AAFF0021204602F0A6FF6A
:10263000204603F0DDF920460A2103F0C7F92046C1
:10264000002102F09BFF2046242102F097FF204644
:10265000002102F093FF1421204602F08FFF204654
:1026600003F0C6F920460A2103F0B0F92046002104
:1026700002F084FF20462A2102F080FF204600213C
:1026800002F07CFF0021204602F078FF204603F094
:10269000AFF920460A2103F099F92046002102F003
:1026A0006DFF2046202102F069FF2046002102F044
:1026B00065FF0021204602F061FF204603F098F9F3
:1026C000012010BDB80800203021014807F00EB9E4
:1026D0000007002070B504460D4633480121164618
:1026E00007F042F92AB200212F4807F039F92046B5
:1026F00006F0B0F901462C480AF0CEFE2D212A48FA
:1027000007F0F4F8204606F081F9014626480AF061
:10271000C3FE2D21244807F0E9F8204606F064F9AD
:10272000014621480AF0B8FE022220491E480AF05C
:102730009FFE204606F07CF9092830DD204606F091
:1027400077F9014618480AF0A7FE204606F028F956
:1027500001220546164914480AF08AFE092D03DCB9
:102760003021114807F0C2F829460F480AF094FEBC
:1027700006B970BD204606F025F9012204460C4931
:1027800009480AF075FE092C03DC3021064807F0E1
:10279000ADF821460448BDE870400AF07DBE302106
:1027A000014807F0A3F8C9E700070020C865010049
:1027B000DC6501002DE9F041BD4D2C6824B1012CF0
:1027C00066D030BFBDE8F08108F078FFB94FDFF880
:1027D00064833860B848B94E07F0A6FE0121B648B8
:1027E00007F0C8F80221B44807F0BEF82246214697
:1027F000B14807F0B5F80A22B149AF480AF038FEEF
:10280000AD480AF0C3FE0121AB4807F0ADF8122233
:102810002146A94807F0A4F80522AA49A6480AF0CB
:1028200027FED8F80010A44801310AF035FE012235
:10283000A549A1480AF01CFED8F80020A34B9E48E9
:1028400053F8221023460A220AF0C2FE3068012201
:102850002821FFF73FFF012239213868FFF73AFFAF
:10286000954808F09DF833683A68591E914209DC92
:10287000DFF8C48298F8001021B195490968002951
:1028800040F0DB809A4280F295802C68012C98D130
:10289000904802F077FC012801DDFDF7E1FF0420FC
:1028A00009F03CF80446032009F038F814B9002870
:1028B00000F04681884C894B22681B689A4280DB75
:1028C000874B1E68002E00F0E880FEF785F9FEF7C2
:1028D00001FD7A4B834E1C68834F08F0EFFE834A5C
:1028E000834B1268201A841A24EAE47483FB0423BD
:1028F0002344E017C0EBE3200BF040FC0BF064FA3C
:102900000BF052FF7B4B7C4A306003FB004482FBA0
:10291000043222448046E017C0EB62100BF02EFC1C
:102920000BF052FA0BF040FF0201131A821A04EB6B
:1029300082049B004FF4616202FB08333C60DFF8C5
:10294000FC811C44092CC8F8000040F34881604C0D
:102950000021022008F0BEFF23680BB1FEF7C2FD84
:10296000FFF774FC642009F023F86448FDF7BCFF0E
:10297000642009F01DF83B7898F800203178604811
:1029800005F0B4FE5F4805F087FC0121022008F045
:10299000A1FF23680BB1FEF777FDFFF78BFC012346
:1029A0003C220221444807F0F1FE00232B6030BF97
:1029B000BDE8F081544F3C68002C53D00D215348A2
:1029C000534C0AF093F853480AF0E0FD524B444A46
:1029D000524930681B681268096803441A44012987
:1029E0003260236000F003810E214D48394F0AF018
:1029F0007DF808F063FEFFF77DF80B2149480AF0E7
:102A000075F82068FFF776F80B2147480AF06EF852
:102A10003068FFF76FF80126AE2127482E6007F0D7
:102A20008BFDFEF7F3F82C4B002238461A6002F0BB
:102A3000B5FB2C6887F8F660C1E60121204608F056
:102A400049FF0121052008F045FFC82008F0B0FF2C
:102A50002146052008F03EFF01213A68336888F8D6
:102A600000100FE70A21314802F0B0FF21462F483D
:102A700002F084FD0E212D4802F080FD21462B48F6
:102A800002F07CFD0A21294802F078FD274802F077
:102A9000AFFF4FF0FF333B6090E7254803F04AF863
:102AA000FEF718FCFEF7B2F8266030BFBDE8F081F3
:102AB0000C000020F004002000070020F804002093
:102AC000CC650100D8650100E466010080070020A4
:102AD0009006002004050020000500203807002093
:102AE0002CF0FF1F40070020F8FFFF1F34F0FF1FEE
:102AF000C5B3A291F0F1FFFF898888883466010090
:102B0000180600201000002070000020E065010081
:102B10008C0600207CF5FF1F20F0FF1F3C070020E3
:102B2000F0650100006601000C660100B808002095
:102B30004C000020D0070020FD040020BC0600202F
:102B40002C4B2D4C1B682D4D2D485B02002203F1B0
:102B500024061146A36285F8F620666003F03CFB6C
:102B600021462C22264803F027FC254802F0E2FFEC
:102B7000244B1B6883BB01233C220221224807F01F
:102B800005FE642008F014FF1F4807F0CDFC01216A
:102B90001D4806F0EFFE02211B4806F0E5FE00226C
:102BA0001146194806F0DCFE0722184916480AF0BB
:102BB0005FFC15480AF0EAFC0121134806F0D4FE38
:102BC0001022134910480AF053FC0F480AF0DEFCAB
:102BD0000D4807F0E5FEFEE7FEF784FCCBE7094B66
:102BE0001B68002B3FF4DBAEFEF762FCD7E6FEF776
:102BF000C7FFF9E600050020E407002004050020D7
:102C00004C000020900600200007002018660100FC
:102C1000206601002DE9F04F83B008F04FFDB84B5E
:102C2000B84D18600121B848B84C06F09DFE01214E
:102C3000B54806F09FFE12220021B34806F090FE30
:102C40000422B349B0480AF013FC2968AE480AF0E0
:102C500023FC0222AF49AC480AF00AFC0622AE4926
:102C6000A9480AF005FC2368002B00F03381012BF2
:102C700000F03C81A94FAA49A348DFF8F48206225C
:102C80000AF0F6FB3968A0480AF006FC0122A549C3
:102C90009D480AF0EDFB0322A3499B480AF0E8FB9C
:102CA000002398F8001098480A220AF091FC9648F0
:102CB0000AF06CFC2368012B00F086810121924808
:102CC00006F052FE2E6870000BF0C0FE974B19689C
:102CD0000BF010FF96490BF005FE4FF08E410BF004
:102CE00001FE94490BF0BAFF92490BF0B7FF23683D
:102CF000012B824600F042814FF07E5430460BF0AB
:102D0000A5FE21460BF0F6FE04463868DFF8649213
:102D1000DFF864B2884D30440BF098FE014620463F
:102D20000BF09CFF074698F800000BF08FFE834BDA
:102D300019680BF0DFFE0446D9F800000BF086FEA0
:102D40007F4B19680BF0D6FE7E4B19680BF0CAFD5D
:102D500039460BF0CFFE394680464FF07E500BF0DF
:102D6000BFFD794B19680BF0C5FE014640460BF0DC
:102D7000B9FD014620460BF071FF74490BF0BAFE15
:102D80000CF0A4F8DBF80040002380462B606B6059
:102D9000AB60EB6074B120460BF054FE51460BF073
:102DA0005DFF0BF0FDF90BF00FF80BF025FD28602F
:102DB00000FB06F4DBF8040068B10BF043FE51465B
:102DC0000BF04CFF0BF0ECF90AF0FEFF0BF014FDDA
:102DD000686006FB00F0DBF80830044473B1184665
:102DE0000BF030FE51460BF039FF0BF0D9F90AF029
:102DF000EBFF0BF001FDA86006FB00F3DBF80C0015
:102E00001C4468B10BF01EFE51460BF027FF0BF07F
:102E1000C7F90AF0D9FF0BF0EFFCE86006FB00F001
:102E200020440BF00FFE39460BF018FF04464046D5
:102E30000BF008FE014620460CF018F8E8B13022ED
:102E40000021314806F08CFD0E2241492E480AF03F
:102E50000FFB40492C48A1FB0831090C00230A2232
:102E60000AF0B6FB01223C4927480AF001FBD9F8D9
:102E7000003013BB03B0BDE8F08F0146302222487A
:102E800006F06EFD0D2235491F480AF0F1FA204682
:102E900033490BF0E3FE0BF083F902240B460246A4
:102EA000009419480AF0F0FB01222B4916480AF059
:102EB000DFFAD9F80030002BDCD01222782112483A
:102EC00006F04EFD27491048012203B0BDE8F04F3F
:102ED0000AF0CEBA042224490B480AF0C9FA0A487B
:102EE0000AF054FB2368012B7FF4C4AE04221F496F
:102EF00005480AF0BDFA04480AF048FBBAE600BFEC
:102F0000F004002020F0FF1F000700203C070020F5
:102F1000446601004C660100506601002CF0FF1F62
:102F200068660100706601007466010018F0FF1FFA
:102F30000000304200007A448007002028F0FF1F84
:102F400030F0FF1F3CF0FF1F24F0FF1F0000614521
:102F50008866010007452EC22C65010098660100B5
:102F600000C0A847A866010058660100606601001D
:102F70001CF0FF1F90060020D4070020394A3A4B6E
:102F800010781B78834286BFC3F11803C018C01A9B
:102F90000BF05CFD354A364B05461B7810788342B2
:102FA00086BFC3F13C03C018C01A0BF04FFD314976
:102FB000044628460BF09EFD21460BF093FC2E495B
:102FC0000BF04CFE044699E6274E2C492C4808226B
:102FD0000AF04EFA3178092938DD00230A22284800
:102FE0000AF0F6FA224B27491E78254801220AF0FA
:102FF0003FFA092E03DC3021214806F077FC3146E8
:103000001F48184E0AF048FA1F491D4801220AF0CD
:103010002FFA317809291FDD00230A2218480AF007
:10302000D7FA124B17491E78154801220AF020FAE8
:10303000092E03DC3021124806F058FC31461048B6
:103040000AF02AFA0E480AF0A1FA37E630210C48B5
:1030500006F04CFC3178C0E73021094806F046FC08
:103060003178D9E7C006002038000020FC04002099
:10307000CC070020000070420000B44478660100D4
:1030800000070020DC650100846601002DE9F04F97
:1030900087B0FEF70BFE08F011FB864BDFF85C9261
:1030A00018608548854E864FDFF8548207F03CFA59
:1030B0000121814806F05EFC02217F4806F054FCA5
:1030C000002211467C4806F04BFC08227D497A48D4
:1030D0000AF0CEF90121784806F046FC10220021C2
:1030E000754806F03DFC1222774973480AF0C0F992
:1030F00071480AF04BFACA460025002347F8043B02
:1031000072480AF043FA71480AF040FA0135052185
:103110006F4809F0EBFC29466C480AF0BDF96B4892
:103120000AF034FA294664480AF0B6F904226949DB
:1031300061480AF09DF9604807F032FC07216648B3
:1031400002F08CF90E21644802F0E6F90C21624885
:1031500002F0B4F95AF8042B6049D2B2A1F10C0084
:103160004FF0384304F08AFB58BB1C215C4809F03F
:10317000BDFC56480AF00AFA06225A494E480AF09F
:1031800077F94D480AF002FA4B4807F009FC042D84
:10319000B3D14A4C99F8002004F58C65284604F216
:1031A0006C414FF0384304F069FB002840F0AA80DE
:1031B0000B224D4940480AF05BF93F4807F0F0FB0D
:1031C000FEE74A4800F12403336002F0B3FC01211A
:1031D0003A4804F057FA014600285AD0DFF80CB1FB
:1031E000ABF23C41584602F0DDFE0028BDD096F817
:1031F0003C3413F0700FB8D0ABF23C40C8F800B0CC
:1032000004F0A4F90BF01EFC39490BF073FC0446E2
:1032100030790BF01BFC014620460BF06BFC0BF0E9
:1032200055FE04460BF1240004F020FD0BF00AFCCF
:103230002F490BF05FFC0BF049FE112183462D480E
:1032400009F054FC214600230A2220480AF0C0F964
:103250001E480AF09BF9C72C8CBFC83C00242146AD
:1032600000230A2247F8044C13480AF0B1F901225E
:10327000214911480AF0FCF8594600230A220E4859
:103280000AF0A6F90C480AF081F90B4807F088FB10
:103290007DE70A4804F0F6F900283FF466AFDFF84E
:1032A0004CB0ABF23C41584602F07CFE00289ED167
:1032B0005BE700BF740000200007002078000020BA
:1032C000D4070020AC660100B86601007CF5FF1F42
:1032D000D8650100CC66010040F0FF1FE404002027
:1032E00074670100946701009C670100B40400202A
:1032F000BD37063AD4660100E8660100FCFFFF1FF7
:10330000D008002004F23C40256002F013FC0121AB
:10331000204604F0B7F90146002800F05D86A74C6E
:1033200004F23C452846214602F03CFE00283FF4CA
:103330003FAF94F83C3413F0700F3FF439AFC8F846
:103340000050FEF7ABFA9E4B1A689E4B9A4202D988
:103350009B4A3C2313609C4A9A4B12689A4202D9BA
:10336000994A3C231360994B1B78172B02D9974A33
:1033700000231370964B1B783B2B02D9944A0023F1
:103380001370944B1B78172B02D9924A00231370A9
:10339000914B1B783B2B02D98F4A00231370DFF827
:1033A00058828E4CD8F80030DFF850A28C4D012B9B
:1033B00088BF00234FF4FA6088BFC8F8003008F0D7
:1033C000F7FA884807F0B0F80121864806F0D2FAEB
:1033D0000221844806F0C8FA00221146814806F00E
:1033E000BFFA804807F0DCFA4FF4167008F0E0FAF4
:1033F0002646082008F092FA38BBDAF8003001338C
:10340000CAF8003002E00A2008F0D2FA082008F0DA
:1034100085FA0028F7D0D8F80030DAF80020B3FA9F
:1034200083F10A2A4FEA5111D8BF0021002940F048
:10343000CE85A3F10103B3FA83F30E2A4FEA5313A7
:10344000D8BF0023002B40F0C285664807F06CF817
:103450000121644806F08EFA0221624806F084FADF
:10346000002211465F4806F07BFA08F027F95E4B10
:10347000DAF800701B682860C31A03930E2F00F25D
:103480002583DFE817F00E03A401C7045102E1030E
:10349000BF003105A202540431017E03EC0139035F
:1034A00054000F004C4B04201F7808F037FA814677
:1034B000032008F033FA8346B9F1000F40F03A8652
:1034C00023684A4A0121132B117040F3F986013316
:1034D00023600137BBF1000F40F03286DFF8209106
:1034E0004249D9F800200120132A087002DCC820C4
:1034F00008F05EFA092FC8BFD9F8002007F1FF379E
:10350000CCBF013201227B1CC9F8002040F01B8691
:103510003B27314B364933481F70072209F0A8FF7B
:103520002D4B197809291F4600F3DD8141E0294B15
:1035300004201F7808F0F2F98146032008F0EEF924
:103540008346B9F1000F40F0D7852368274A01214F
:10355000132B117040F3AE86013323600137BBF1AA
:10356000000F40F0CF85DFF898902049D9F800206F
:103570000120132A087002DCC82008F019FA092F6C
:10358000CABFD9F8002001220132013FC9F800204A
:103590007A1C40F0BA8517270E4B164911481F7048
:1035A000072209F065FF0B4B197809291F4600F324
:1035B0009A81FFF789F8397895E100BF78000020FB
:1035C00020F0FF1FA08601002CF0FF1F3800002014
:1035D000CC070020C0060020FC0400204C0700207F
:1035E000F00400200007002074000020F4040020F4
:1035F0006C670100646701003C070020440700205D
:103600009007002005F002FABA4F83460420C7F85D
:1036100000B008F083F90490032008F07FF9049BC0
:103620008146002B40F00E852368B3490120132BFF
:10363000087040F33986013323600BF1010BB9F1B7
:10364000000F40F00585DFF8DC92AB49D9F8002087
:103650000120132A087002DCC82008F0A9F9BBF188
:10366000090FC8BFD9F800200BF1FF3BCCBF0132D6
:103670000122BBF1000FC9F8002040F3F084BBF138
:103680000D0FA8BF4FF0010B3B689C4F5B45C7F87F
:1036900000B01BD0286805F0CBF98346286805F0F8
:1036A0007FF98146286805F08DF90590286805F0B6
:1036B0009BF9049028683F6805F0CCF900970190C9
:1036C000049B059A49465846FEF7DEF906228C49C6
:1036D0008C4809F0CDFE07F0F1FF05F097F901469F
:1036E000884809F0D9FEF1E105F06CF9864F834670
:1036F0000420C7F800B008F011F90490032008F086
:103700000DF9049B8146002B40F0498523687A49D6
:103710000120132B087040F3C185013323600BF1A6
:10372000010BB9F1000F40F04085DFF8F8917249C4
:10373000D9F800200120132A087002DCC82008F004
:1037400037F9BBF1090FC8BFD9F800200BF1FF3BD7
:10375000CCBF01320122BBF1000FC9F80020C0F23A
:103760002B85BBF13C0FA8BF4FF0000B3B68674FA8
:103770005B45C7F800B01CD0286805F059F98346AE
:10378000286805F00DF9814628683F6805F02CF996
:103790000590286805F03AF90490286805F05AF970
:1037A000049A00920190059B3A4649465846FEF716
:1037B0006BF907225649534809F05AFE07F07EFF7D
:1037C00005F000F901464F4809F066FE7EE1514BD5
:1037D0000420D3F800B008F0A1F80490032008F00A
:1037E0009DF8049B8146002B40F0B2842368424937
:1037F0000120132B087040F34B85013323600BF13C
:10380000010BB9F1000F40F0A984DFF818913A4993
:10381000D9F800200120132A087002DCC82008F023
:10382000C7F8BBF1090FC8BFD9F800700BF1FF3B17
:10383000C8BF0137BBF1000FC9F8007040F3958491
:10384000BBF5616FC8BF4FF0010B324B32492D48B9
:10385000C3F800B0042209F00BFE2E4B1CE32F4BE3
:1038600004201F7808F05AF88146032008F056F823
:103870008346B9F1000F40F0098423681E4A0121F4
:10388000132B117040F3FE84013323600137BBF129
:10389000000F40F00184DFF88C901749D9F8002020
:1038A0000120132A087002DCC82008F081F8092FD3
:1038B000C8BFD9F8002007F1FF37CCBF0132012281
:1038C000781CC9F8002040F0EA831727134B1449ED
:1038D0000C481F70082209F0CBFD104B19780929FC
:1038E0001F467FF766AE00230A22064809F070FEE5
:1038F000ECE000BFC8070020F404002060060020B0
:103900001C670100000700209C0700205C060020C7
:103910003C67010020F0FF1F4466010038000020D2
:103920004C67010090070020BB4F042097F800B0BF
:1039300007F0F4FF0490032007F0F0FF049B81469A
:10394000002B40F05F832368B4490120132B0870DB
:1039500040F39284013323600BF1010BB9F1000FA6
:1039600040F05683DFF8D892AC49D9F80020012006
:10397000132A087002DCC82008F01AF8BBF1090FFE
:10398000C8BFD9F800200BF1FF3BCCBF01320122A8
:10399000BBF1000FC9F8002040F34183BBF1080FD1
:1039A00040F361834FF0010B05229D499D4887F844
:1039B00000B009F05DFD39789A4800230A2209F029
:1039C00007FE984809F0E2FD80E005F031F8DFF8E5
:1039D00074B207460420CBF8007007F09FFF0490F4
:1039E000032007F09BFF049B8146002B40F0C98316
:1039F00023688A490120132B087040F33784013370
:103A000023600137B9F1000F40F0C183DFF8309235
:103A10008249D9F800200120132A087002DCC8204E
:103A200007F0C6FF092FC8BFD9F8002007F1FF37FC
:103A3000CCBF01320122002FC9F80020C0F2AD83B3
:103A4000182FA8BF0027DBF80030BB421BD0286826
:103A500004F0A6FF8346286804F0B4FF8146286876
:103A600004F0C2FF0590286804F0D0FF0490286895
:103A700004F0F0FF049900910190059B4A465946D5
:103A80003846FEF701F805226749664809F0F0FC60
:103A900007F014FE04F0CCFF0146624809F0FCFC7C
:103AA00014E05E4F3B78002B40F0D7830A225F4939
:103AB0005C4809F0DDFC042007F030FF07460320D6
:103AC00007F02CFF17B9002800F0A883FFF7A2F831
:103AD00007F0F4FD01223921FEF7FCFD514806F004
:103AE0005FFF0A2007F064FF039BB3F5167F7FF7A3
:103AF00080AC07B0BDE8F08F4D4B04201F7807F075
:103B00000DFF8146032007F009FF8346B9F1000F3E
:103B100040F003832368414A0121132B117040F3C5
:103B20006883013323600137BBF1000F40F0FB8253
:103B3000DFF80C913949D9F800200120132A0870C8
:103B400002DCC82007F034FF092FC8BFD9F80020D5
:103B500007F1FF37CCBF01320122791CC9F80020E0
:103B600040F0E4823B27324B32492E481F70082236
:103B700009F07EFC2E4B197809291F463FF7B3AE9A
:103B800017E505222C49274809F072FC0420D8F8D3
:103B9000007007F0C3FE8146032007F0BFFE834696
:103BA000B9F1000F40F08F8223681C4A0121132BCA
:103BB000117040F31983013323600137BBF1000F0B
:103BC00040F08782DFF878901449D9F8002001206E
:103BD000132A087002DCC82007F0EAFE092FC8BFCC
:103BE000D9F8002007F1FF37CCBF01320122002FA6
:103BF000C9F80020C0F27382012F40F377820023BE
:103C0000C8F800300D48FCF761FED8F80030012BF1
:103C10007FF45CAF66E200BF1CF0FF1FF4040020DD
:103C20000C670100000700202C670100EC66010012
:103C3000CC07002058670100446701005866010066
:103C400090070020F4FFFF1F04F004FF994F834604
:103C50000420C7F800B007F061FE0490032007F0CD
:103C60005DFE049B8146002B40F0DC812368924975
:103C70000120132B087040F3B282013323600BF153
:103C8000010BB9F1000F40F0D381DFF858928A4957
:103C9000D9F800200120132A087002DCC82007F0A0
:103CA00087FEBBF1090FC8BFD9F800200BF1FF3B1D
:103CB000CCBF01320122BBF5FA6FC9F80020C0F277
:103CC000BE8140F634039B45C8BF4FF4FA6B3B6896
:103CD0007A4F5B45C7F800B01BD0286804F0A8FEF7
:103CE0008346286804F05CFE8146286804F06AFE7A
:103CF0000590286804F078FE0490286804F086FE99
:103D00003F68049B0090059A019749465846FDF785
:103D1000BBFE05226A496B4809F0AAFB07F0CEFCFE
:103D200004F098FE0146674809F0B6FBCEE604F0C1
:103D300037FE654F83460420C7F800B007F0EEFD5C
:103D40000490032007F0EAFD049B8146002B40F01D
:103D50008D81236858490120132B087040F33A8263
:103D6000013323600BF1010BB9F1000F40F08481A6
:103D7000DFF870915049D9F800200120132A08700B
:103D800002DCC82007F014FEBBF1090FC8BFD9F848
:103D900000200BF1FF3BCCBF01320122BBF1000F31
:103DA000C9F80020C0F26F81BBF13C0FA8BF4FF0F3
:103DB000000B3B68454F5B45C7F800B01CD0286836
:103DC00004F036FE834628683F6804F0FBFD814618
:103DD000286804F009FE0590286804F017FE049096
:103DE000286804F037FE049900910190059B4A462B
:103DF00039465846FDF748FE07223549314809F053
:103E000037FB07F05BFC04F0CBFD01462D4809F0C1
:103E100043FB5BE62F4B04201F6807F07FFD8146C4
:103E2000032007F07BFD8346B9F1000F40F0DC80F2
:103E30002368214A0121132B117040F3C6810133FD
:103E400023600137BBF1000F40F0D480DFF894907D
:103E50001949D9F800200120132A087002DCC82073
:103E600007F0A6FD092FC8BFD9F8002007F1FF37DA
:103E7000CCBF01320122002FC9F80020C0F2C0805F
:103E8000154B9F42C8BF0027124B14490D481F60B5
:103E9000042209F0EDFA0F4B19680A4809F0FCFA00
:103EA00001220F49074809F0E3FA064809F06EFBC2
:103EB0000CE600BF94070020F40400209C060020BC
:103EC0001467010000070020A0060020EC04002079
:103ED000346701002CF0FF1F8051010004670100CE
:103EE000706601009007002004F07EFDC34F8346FA
:103EF0000420C7F800B007F011FD0490032007F07C
:103F00000DFD049B8146002B40F0CD802368BC4909
:103F10000120132B087040F35381013323600BF110
:103F2000010BB9F1000F40F0C480DFF8E492B4490E
:103F3000D9F800200120132A087002DCC82007F0FD
:103F400037FDBBF1090FC8BFD9F800200BF1FF3BCB
:103F5000CCBF01320122BBF1000FC9F8002040F3B1
:103F6000AF80BBF1200FA8BF4FF0010B3B68A54FFE
:103F70005B45C7F800B01CD0286804F059FD8346A3
:103F8000286804F00DFD8146286804F01BFD0590AB
:103F900028683F6804F03AFD0490286804F05AFD50
:103FA000049B009301903B46059A49465846FDF70D
:103FB0006BFD04229449954809F05AFA07F07EFBFC
:103FC00004F012FD0146914809F066FA7EE50023EF
:103FD000CAF80030FFF739BA204603F053FB002837
:103FE0007FF49DA9FFF7E4B800232360BBF1000F25
:103FF0003FF42CAF864B0022002F1A60BFF640AF73
:10400000844F41E700232360B9F1000F3FF4AAACCD
:104010007F4B0022BBF1000F1A603FF7BFAC4FF09F
:10402000080BC1E400232360B9F1000F3FF42DAE6B
:10403000774B0022BBF5FA6F1A60BFF642AE40F62E
:10404000340B44E600232360B9F1000F3FF4FBAAD0
:104050006F4B0022BBF1000F1A603FF710AB4FF01F
:104060000C0BFFF711BB5FFA8BFB9DE40023236071
:10407000B9F1000F3FF47CAE654B0022BBF1000F9D
:104080001A60BFF691AE4FF03B0B92E6002323601F
:10409000BBF1000F3FF4FFAB5D4B00221A60172FFE
:1040A00069DD002712E400232360B9F1000F3FF41B
:1040B0003CAF574B0022BBF1000F1A603FF751AFE6
:1040C0004FF01F0B52E700232360BBF1000F3FF4BA
:1040D00079AD4F4B0022002F1A60BFF68DAD012342
:1040E000C8F800304C48FCF7F1FBEFE4C8F800706A
:1040F000002F3FF487ADF5E700232360BBF1000FED
:104100003FF431AA424B00221A60172F02DD00272C
:10411000FFF742BAFFB2FFF73FBA00232360BBF1BB
:10412000000F3FF405AD3A4B00221A603B2F20DD13
:10413000002718E500232360BBF1000F3FF4CEA950
:10414000334B00221A603B2F18DD0027FFF7E1B93F
:1041500000232360B9F1000F3FF457AB2C4B002232
:10416000BBF1000F1A603FF76BAB4FF4616BFFF7C9
:104170006CBBFFB2F7E4FFB2FFF7A8BBFFB2FFF7DB
:10418000C8B900232360B9F1000F3FF43FAC204BC6
:104190000022002F1A60BFF653AC172753E4002308
:1041A0002360B9F1000F3FF4C0AA194B0022BBF104
:1041B000000F1A60BFF6D5AA4FF03B0BFFF7D6BA37
:1041C000C82007F0F5FB3368A7E6C82007F0F0FB2E
:1041D000336834E6C82007F0EBFB3368C0E5C8203D
:1041E00007F0E6FB336848E5C82007F0E1FB3368D9
:1041F000E1E4C82007F0DCFB336892E414060020F9
:10420000F40400208006002024670100000700203D
:10421000900700208051010060660100FDF754FC0A
:10422000FDF79EFD2948FCF751FB294806F0B8FB35
:1042300040F2DC5007F0BCFBFEF7ECFC07F03EFA66
:1042400001223921FEF746FA214806F0A9FB0A208F
:1042500007B0BDE8F04F07F0ABBBFDF781FD0023D1
:104260003B7007F02BFA1B4B18601FE4C82007F0C7
:104270009FFB3368FFF7C3BBC82007F099FB336887
:10428000FFF768BBC82007F093FB3368FFF7FCBA61
:10429000C82007F08DFB3368FFF7AFBAC82007F0DE
:1042A00087FB3368FFF739BAC82007F081FB336812
:1042B000FFF7C1B9C82007F07BFB3368FFF74CB9A3
:1042C000C82007F075FB3368FFF701B9F8660100F5
:1042D00000070020740000202DE9F04F8FB072B667
:1042E000CA49CB4BCB4841250E2480220D70047067
:1042F00019461A700B78C64A1806FBD5C64BC74834
:104300001D78C74CC7490570033B247809781B7892
:10431000C3704470817062B672B6BC49BD4C412610
:104320000F2580230E702570114613700B781B0625
:10433000FCD5B94CBA49BB4ABB4B247809781278F2
:104340001B78C37104714171827162B6B74BB84A70
:104350001868B84E430803F1B763142103F55843B6
:104360000F24B3FBF0F00A25152354609160D3604D
:10437000156007F06BFB4FF4FA7007F019FBAE48BD
:1043800001F0A2F90121022007F0D6FA012106204E
:1043900007F0D2FA0121052007F0CEFA0121002012
:1043A00007F0CAFA0121052007F094FA4FF4FA60E9
:1043B00007F0FEFA0021052007F08CFA9F4B002140
:1043C000012410201C7007F0B7FA002006F03AFE16
:1043D0000021022007F07EFA2146062007F07AFA33
:1043E0000021052007F076FA0021084607F072FA4E
:1043F0000221042007F0A0FA0221032007F09CFA12
:104400000221082007F098FA4FF4FA7007F0D0FA6A
:1044100007F054F98A4B3060984240F3A3810B2196
:104420008848DFF86C82884F884C08F05FFB88482A
:1044300009F0ACF807F042F90346014684483360BE
:1044400009F02AF8824809F0A1F84FF47A7007F0D1
:10445000AFFA07F033F9034601467D48336009F0AF
:104460001BF87B4809F092F801233C22022179488D
:1044700006F08CF9642007F09BFA764806F054F8B1
:104480000121744805F076FA0221724805F06CFAB1
:10449000002211466F4805F063FA0A226E496D4802
:1044A00008F0E6FF6B4809F071F86A4806F078FA00
:1044B000684806F039F80121664805F05BFA0221E8
:1044C000644805F051FA00221146624805F048FAA6
:1044D0000A2261495F4808F0CBFF5E4809F056F8B0
:1044E0005C4806F05DFA0121022007F0F3F964212F
:1044F0005A4808F04FFCFDF711FFFCF74BFFFEF7A1
:10450000C5FDFCF747FF564B564A52481A6006F065
:104510000BF801214F4805F02DFA02214D4805F016
:1045200023FA002211464B4805F01AFA07F0C6F8A4
:10453000306007F0C3F84C4B4C491B68D8F800209A
:10454000096890FBF3F000FB033398180129206001
:104550003B6000F00B8110460AF078FA444ADFF81D
:1045600034911168434CDFF830B1DFF830A10AF024
:10457000C1FA4FF06E510AF0BDFA0AF081FC3E4AD2
:104580002060D9F8001014683C4A0C1B24EAE4753A
:1045900082FB05322A44E817C0EBE22009F0EEFD69
:1045A00009F012FC0AF000F9354C364ACBF800004D
:1045B00004FB005482FB04322244E017C0EB62107B
:1045C00009F0DCFD09F000FC0AF0EEF82E4B024683
:1045D000A0EB001004EB800410212C48CAF8002046
:1045E0001C6008F083FADBF80010194808F054FF4B
:1045F000DAF80010164808F04FFF234B14481968EA
:1046000008F04AFF124808F0C1FF49E007000240E5
:1046100000000240060002400B0002408406002019
:104620000A000240090002400800024038F0FF1F63
:10463000FCFFFF1FF0040020B8080020FD0400204C
:104640007FC18556A8670100F80400208C06002071
:104650007CF5FF1F00070020B46701000082FF1FE8
:10466000D4080020F107000014F0FF1F3C070020D1
:1046700018F0FF1F3807002034F0FF1FC5B3A291C8
:10468000F0F1FFFF89888888F8FFFF1FC0670100ED
:1046900020F0FF1F2CF0FF1F40070020BC06002069
:1046A0000821354808F022FAD8F80010334808F0FD
:1046B000F3FE324808F06AFF0821314808F016FA84
:1046C000D9F800102D4808F0E7FE2C4808F05EFFEE
:1046D0000E212C4808F00AFA3068FDF70BFA0C217D
:1046E000294808F003FA3868FDF704FA3B68346893
:1046F0002648274F1C1B152108F0F8F921461F48B2
:1047000008F0CAFE1D4808F041FF0EAD214B2248BB
:1047100045F8340D00244FF0FF3E1C601F4A20492D
:104720008DF81440462305A84FF47A768DF815408D
:104730008DF808408DF81040C7F800E0039601F0AE
:10474000B1FB9DF8143053B12922164905A801F098
:1047500033FE284608F01AFF05A801F0EBF90FB068
:10476000BDE8F08F104806F0AFFF58E6FDF708FAF5
:10477000D8F80020EFE600BFD46701007CF5FF1FEA
:10478000E0670100F0650100EC670100FC670100D3
:10479000980700200C000020B86301005C64010051
:1047A000B4040020F064010080C1855600207047E9
:1047B0000020704738B50F29114C28BF0F210F2A50
:1047C00028BF0F220D46017A204642EA051501F066
:1047D00027F82046002100F0D1FE2046202100F0DD
:1047E000CDFE2046002100F0C9FEE9B2204600F0CF
:1047F000C5FE204601F0FCF8B0FA80F0400938BD53
:10480000B8080020F8B5C34C0126054606712046BD
:1048100000F05AFF052007F0CBF8297A204600F077
:10482000FFFF2046002100F0A9FE2046302100F0C5
:10483000A5FE2046402100F0A1FE6021204600F0A8
:104840009DFE204601F0D4F8297A204600F0E8FFCA
:104850002046002100F092FE2046262100F08EFE28
:104860002046002100F08AFE6C21204600F086FEE2
:10487000204601F0BDF8297A204600F0D1FF2046FD
:10488000002100F07BFE2046282100F077FE314613
:10489000204600F073FEF221204600F06FFE204615
:1048A00001F0A6F8297A204600F0BAFF2046002140
:1048B00000F064FE20462C2100F060FE20460F210F
:1048C00000F05CFE2221204600F058FE204601F058
:1048D0008FF8297A204600F0A3FF2046002100F03F
:1048E0004DFE20463C2100F049FE2046442100F0C8
:1048F00045FE4621204600F041FE204601F078F8B2
:1049000040F23713EB80297A204600F089FF2046D9
:10491000002100F033FE2046242100F02FFE314616
:10492000204600F02BFE3721204600F027FE2046CF
:1049300001F05EF8297A204600F072FF204600213F
:1049400000F01CFE2046302100F018FE20464021D9
:1049500000F014FEFF21204600F010FE204601F07A
:1049600047F8297A204600F05BFF2046002100F03E
:1049700005FE2046022100F001FE2046002100F045
:10498000FDFD7321204600F0F9FD204601F030F8CE
:104990004FF4C87007F00CF8297A204600F040FF69
:1049A0002046002100F0EAFD20462E2100F0E6FD21
:1049B00020461D2100F0E2FD1D21204600F0DEFD15
:1049C000204601F015F8297A204600F029FF2046FC
:1049D000002100F0D3FD2046042100F0CFFD204649
:1049E000002100F0CBFD0421204600F0C7FD204649
:1049F00000F0FEFF297A204600F012FF2046002139
:104A000000F0BCFD2046062100F0B8FD31462046EE
:104A100000F0B4FD3021204600F0B0FD204600F04B
:104A2000E7FF297A204600F0FBFE2046002100F037
:104A3000A5FD20460A2100F0A1FD2046002100F03E
:104A40009DFD1021204600F099FD204600F0D0FF8A
:104A5000297A204600F0E4FE2046002100F08EFD79
:104A600020460E2100F08AFD2046002100F086FD40
:104A70000021204600F082FD204600F0B9FF297A8F
:104A8000204600F0CDFE2046002100F077FD2046B4
:104A9000102100F073FD20463C2100F06FFD3C2109
:104AA000204600F06BFD204600F0A2FF297A204648
:104AB00000F0B6FE2046002100F060FD20462221D5
:104AC00000F05CFD20467F2100F058FD7F2120464C
:104AD00000F054FD3627204600F08AFF297AEF8047
:104AE000204600F09DFE2046002100F047FD2046B4
:104AF000242100F043FD2046002100F03FFD39460F
:104B0000204600F03BFD204600F072FF6E723046FA
:104B1000F8BD00BFB80800200B462DE9F04145491B
:104B20000546184609F0E6FF434909F0DBFE0AF0A6
:104B3000CDF9044600284CD080281FD92B790024B9
:104B400026462BBB297A3D4800F06AFE00213B48EF
:104B500000F014FD2221394800F010FD314637489D
:104B600000F00CFD2146354800F008FD334800F008
:104B70003FFFB0FA80F04009BDE8F081C0F1800449
:104B80002B7944EA0424C4F30726E4B2002BD9D0DD
:104B9000EF88297A294827F010074FF00008EF80A6
:104BA00085F8048000F03CFE4146244800F0E6FC15
:104BB0002421224800F0E2FC390A204800F0DEFC03
:104BC00007F0EF011D4800F0D9FC1C4800F010FF71
:104BD000B8E701232B71297A184800F021FE2146FD
:104BE000164800F0CBFC2221144800F0C7FC7F21BE
:104BF000124800F0C3FC7F21104800F0BFFC0F48B2
:104C000000F0F6FEEE88297A0C4846F01006B6B29F
:104C1000EE8000F005FE2146084800F0AFFC24219C
:104C2000064800F0ABFC310A044800F0A7FCF1B2E2
:104C300099E700BF00000143EE7CFF3EB80800206A
:104C400070B505460C4619B101293BD0002070BD56
:104C5000017A424800F0E4FD2146404800F08EFC15
:104C600020213E4800F08AFC21463C4800F086FCAA
:104C700055213A4800F082FC384800F0B9FE06465B
:104C80000028E3D1EC88297A344844F00404A4B223
:104C9000EC8000F0C5FD3146304800F06FFC242167
:104CA0002E4800F06BFC210A2C4800F067FCE1B2B2
:104CB0002A4800F063FC294800F09AFEB0FA80F020
:104CC000400970BD017A254800F0AAFD0021234863
:104CD00000F054FC2A21214800F050FC21461F48D6
:104CE00000F04CFC73211D4800F048FC1B4800F00C
:104CF0007FFE04460028A9D1297A184800F090FDCB
:104D00002146164800F03AFC2021144800F036FCF9
:104D10002146124800F032FC8821104800F02EFC99
:104D20000E4800F065FE044600288FD1EE88297AEF
:104D30000A4826F00406EE8000F072FD214607487E
:104D400000F01CFC2421054800F018FC310A03483F
:104D500000F014FC06F0FB01AAE700BFB808002031
:104D600010B5044608F0FAF9204610BD024A03497E
:104D700003480AF03FBA00BFFCEFFF1F614D00007F
:104D8000100800201B4A1C4B11681C48096970B4AC
:104D900099421279027009D2194A127832B3194A2B
:104DA0004FF08041116003F5807402E01C46A3F5CA
:104DB0008073154A154912680D68AAB1A5B1144E41
:104DC0003088402810D841000A444030294402323B
:104DD0000231308033F9040B22F8020F9C4233F980
:104DE000020C21F8020FF5D870BC704703F58074EF
:104DF000DFE700BF2008002090E8FF1F1F80004071
:104E00001A08002008E200E0280800201C08002002
:104E100018080020F8B5064607F0ECFF0446E8B194
:104E200007F0E8FF054600283AD072B61F4B1A88F3
:104E30007F2A19D8002C31D01D490A6842B162B6C8
:104E4000204608F02BF82846BDE8F84008F026B8C0
:104E500018480C601A80056062B6F8BD054672B647
:104E6000124B1A887F2AE5D9114A12491768146033
:104E700000220C681A800D6062B63946304608F090
:104E800037F8384608F00AF830462146012208F083
:104E90002FF82046BDE8F84008F000B862B6F8BD2B
:104EA000204607F0FBFF2C46BFE700BF1808002094
:104EB000280800201C080020F8B5284C284E204661
:104EC000012108F0ADF800F083F8264B264A274868
:104ED0004FF480611960236800211A60998022795B
:104EE000186102F1804202F5043240F20110D880CC
:104EF0009E614FF48075022006278E26DD82D960E0
:104F0000DD8398609F8398821170167008F02EF8E8
:104F10001749184B2279184F08701A70396822798E
:104F2000164C174D174E41F0124141F0010153113B
:104F300039609B00206803F1604302F1100703F51C
:104F4000614302F01F02012140F0104001FA02F219
:104F5000206045F827601A60F8BD00BF20080020D7
:104F600000FEFFFF14B00440A0F0024090E7FF1FD6
:104F70001A0800201B80004080F0024000F0024030
:104F800000EAFF1F854D0000024A034903480AF06A
:104F900031B900BFFCEFFF1F614D00002008002069
:104FA000024A034903480AF025B900BFFCEFFF1F7E
:104FB000614D00002C080020024A034903480AF012
:104FC00019B900BFFCEFFF1F614D0000340800203D
:104FD000284B29491A68294842F400421A600A6895
:104FE00042F002020A601A6842F002021A60036884
:104FF000002B3DDB224B1B68002B39DB214A4FF095
:10500000864313601368002BFCDBF0B51E4C1F4871
:10501000DFF8ACE01E491F4B1F4A204F204E214DA8
:1050200041F2100CC4F800C0002404600120CEF846
:105030000000DFF890E0C1F800E04FF48031196023
:10504000194B1360DFF880E0184A3A60346028603A
:105050001748CEF80000174CB9671748174946F8AB
:10506000503C4FF4C0632A61236003600B60F0BDC5
:10507000704700BF3C8004404080044000F0024084
:1050800080F0024000F1024004F1024060F0024072
:1050900008F002400CF0024010F0024014F0024010
:1050A000E0F0024084F002401B0F0100000F0F0FE0
:1050B0000300004708B004400CB0044018B004409E
:1050C00004F002400300000788F00240024A03494E
:1050D00003480AF08FB800BFFCEFFF1F614D0000CE
:1050E0003C080020024A034903480AF083B800BF85
:1050F000FCEFFF1F614D000044080020024A0349F5
:1051000003480AF077B800BFFCEFFF1F614D0000B5
:105110004C080020024A034903480AF06BB800BF5C
:10512000FCEFFF1F614D000054080020024A0349B4
:1051300003480AF05FB800BFFCEFFF1F614D00009D
:105140005C08002010B50021044607F0EBFE98B182
:1051500094F8F6308BB194F8F43094F8F5200133DC
:10516000342BC8BF0023934207D09A1D04EB820260
:10517000DBB2506084F8F43010BDBDE8104007F099
:105180008DBE00BF90F8F42090F8F530D0B2DBB2BD
:10519000984238BF3530C01A704700BF38B5054651
:1051A000D0F8F00020B107F079FE0023C5F8F03008
:1051B00095F8F54095F8F430E4B2DBB29C420ED09D
:1051C0000134352C28BF0024A31D05EB8303586848
:1051D00007F064FE95F8F430DBB29C42F0D1DBB20C
:1051E00085F8F53038BD00BF0246D0F8F000B0B900
:1051F00092F8F53092F8F410DBB28B4210D0013304
:10520000342B86BF01460B46D9B2063302EB83032B
:105210005868C2F8F00082F8F5100430704700209A
:10522000704700BFD0F8F03043B110B504461846BF
:1052300007F034FE0023C4F8F03010BD704700BF03
:1052400010B4047F4160022CC26002D010BC07F091
:105250009FBF836810BC1847F0B4464B464A186B92
:10526000DC6A01791170454922790A709A6A0079DD
:105270000870002A46D05968C9688A423ED8216819
:10528000CC8B240402F1FF3065D4C0F30E00C88338
:10529000C88B80B2C882196B0968C88B000452D4CD
:1052A000C2F30E00C883C88B002480B212F1FF3213
:1052B000C88218BF01229C62D96A2E4809680D680D
:1052C00000F12404A54236D00068C46814F0804F71
:1052D0000C680D6815BF248824780235013544F028
:1052E00000440D604463196B254B097919702149FD
:1052F00012B1CA6A12791A70F0BC7047521A9A62D7
:105300000122D9E7586B196805681E4C0A63CC6204
:10531000CC682D681C4E24F080440327B542CC6035
:1053200083F825701FD1037F4260022BC2601ED01C
:10533000F0BC07F02DBF016890F82400CC6840F065
:1053400000404863CFE7CC8BC2F3080004F47E44EE
:105350002043C883A7E7CC8BC0F3080004F47E4445
:105360002043C88394E72B461146F0BC1847836856
:10537000F0BC184740F0FF1F1F8000401C80004019
:105380001B80004000000FFF4152000090E80C001D
:10539000F0B41C6859682568164F174E29432160E0
:1053A000164D17491760D66015611160417A154A8C
:1053B0005C180A3194F8244053F8215002EBC401E0
:1053C00049680D60017A5C1803EB8101247ECD6988
:1053D00002EBC40149680D60817A581803EB810320
:1053E00090F83000596B02EBC002F0BC53681960B2
:1053F000704700BF01401F00011000380110007805
:1054000000001F80C46E01004268036805CA10B422
:10541000046822430260D868840100F0E06205D588
:10542000080900F4706021F470410143D868114309
:10543000814209D01A68500408D40748186041F026
:105440008040D96018611A6010BC704741F08042FA
:10545000D96010BC1A61704701401F004268437A4E
:10546000134493F824308B4209D0F0B492F82440CE
:105470008C4205D092F825408C421AD0F0BC70477F
:10548000002421461668556836682E420FD00A4D12
:1054900005EBC30300275E685318376093F8243088
:1054A00005EBC3050A316B6852F821201A6044727B
:1054B000E4E701242146E5E7C46E01004268037A6F
:1054C00013441B7E8B4207D0F0B4147E8C4204D070
:1054D000547E8C421AD0F0BC7047002421461668D6
:1054E000556836682E420FD00A4D05EBC3030027DE
:1054F0005E68531837601B7E063105EBC30502EB6F
:1055000081026B6852681A600472E4E70124214644
:10551000E5E700BFC46E01004268837A134493F844
:1055200030308B4209D0F0B492F830408C4205D034
:1055300092F831408C421BD0F0BC704700242146C9
:105540001668556836682E4210D00B4D05EBC30324
:1055500000275E685318376093F830300C3105EB44
:10556000C30502EB81026B6852681A608472E3E73C
:1055700001242146E4E700BFC46E01000A4B1B78FA
:1055800013B90A4B1B786BB1094A1378202B07D843
:1055900010B4581C074C1070E154012010BC704727
:1055A0000123037100207047CA0800208D080020E5
:1055B000CB0800206C080020704700BF024A034B54
:1055C00010781B78C01A7047C9080020C80800204E
:1055D000064A074913780978994204D90548591CA5
:1055E000C05C117070474FF0FF307047C808002052
:1055F000C908002090080020054B064A1B78127845
:105600009A4286BF044AD05C4FF0FF30704700BF1B
:10561000C8080020C90800209008002070B50D4B74
:105620001B78144613B90C4B1B788BB10B4E357895
:10563000C5F12103A34202D201221C46027108488F
:1056400022462844254405F051FB3570204670BDA4
:10565000184670BDCA0800208D080020CB08002025
:105660006C080020124BDB7803F020034BB1114A89
:1056700013780133DBB2012B137012D9122005F01D
:10568000D9BF10B5122003F0FF0405F0D3FF0A4B79
:105690001B685BB109490A4A0C701078BDE81040DC
:1056A0001847084B1B78002BE8D0704710BD00BF8F
:1056B00000600640B408002068080020C8080020E8
:1056C000C90800208D0800200D4A0E4BF0B50020BF
:1056D0000D4C10702268DFF838E00C4F42F04002A9
:1056E00022604FF419712726042520248022987007
:1056F000CEF8001039605E709D715C719A70F0BDDB
:105700008D080020006006403480044008A004405A
:105710000CA0044010B5384CE378DBB2D80623D592
:1057200010225906E2701ED503F0040303F0FF02B5
:10573000002B33D0314B32491A68324C00230B70A6
:105740002370002A3BD090472378002B37D02E4B74
:105750001B78294A2D49D02494701371264B0120BF
:1057600002220870DA7010BD5A06DDD4A27802F069
:10577000100202F0FF0042B313F001031BD12349D2
:1057800020480A780078904281BF1F4B501C9B5CD8
:1057900008702371184BD0229A7008E01C48164BF1
:1057A000174902700120C02208709A701B79124BB1
:1057B0000222DA7010BDC023A3702379F7E71249E3
:1057C000002301220B702270C3E7124B124918709C
:1057D0000322122005F0AEFE0D4923790A781F2A14
:1057E000DBB2E4D8064800780028E0D00B4C501C0F
:1057F000A3540870DBE700BF00600640B00800203B
:1058000064080020CB0800206C080020CC08002091
:10581000C9080020B4080020655600009008002048
:105820000548064A10B40123054C03704900137063
:10583000217010BC704700BFCA080020CB080020B0
:105840006C0800202DE9F043594C1223E370A37833
:1058500003F0200383B0002B55D0B423DFF8688118
:10586000A370D8F80030524D1C460020EA78D2B21E
:105870009A421CBF1446012096061346F6D500280E
:1058800040F08C804B4B1B78002B33D003F1FF3E54
:105890005FFA8EFE0026D8F80040474F444D0EF1C7
:1058A000010E30464FF0020C17F8013F2B715FFAE2
:1058B00086F902E013F0200F09D0EB78DBB29342B7
:1058C0001CBF1C46012013F0020F1A46F2D085F8C7
:1058D00003C0EA78D2B293421CBF14460120D3061B
:1058E00033D4930631D5D30744D401367645DBD182
:1058F00000284AD1002000292ED1304B00221A70F6
:1059000003B0BDE8F0832E4DDFF8BC8003F0FF024A
:105910002B680093009ED8F8000005E02B680193E7
:10592000019B9B1B0F2B1BD8E378DBB2834218BF74
:10593000012213F0200F1846F0D192BB21481C4BD6
:105940000024B02204709A708BE708BB184B8022A9
:105950009A7004200029D0D0154B80229A70CCE791
:10596000CAB9134B00218022042099709A7003B0A9
:10597000BDE8F083C0B90E4BB9F1000F4FF08002C3
:105980000CBF022003209A70B7E7C8F80040B1E7C7
:10599000C8F80040DAE7C8F80000E2E7C8F80040BD
:1059A00070E7C8F80030C9E7C8F80040E3E700BF77
:1059B00000600640CB0800206B080020CA080020C9
:1059C0002C0900208D08002078F0FF1F0548064AAA
:1059D00010B40123054C037049001370217010BCF2
:1059E000704700BFCA080020CB0800206C080020C8
:1059F0000121FFF727BF00BF044B054A1A604FF48F
:105A00007A71002299601A711A737047B8080020E1
:105A1000C868010038B590F90230002B044612DB4B
:105A2000A56805F1240001F0FDF928B9637843F079
:105A300001036370002038BD05F50C7001F0F2F928
:105A40000028F3D038BD8068A1692430012201F01C
:105A5000A3F90028EAD0A38803F00F035B01C5185F
:105A6000E4D0C35CE52BE1D023780B4A1B0744BF8D
:105A7000E369EB61236A12686B831B0CAB8232B162
:105A800005F1160105F1180090472B8B6B82A37866
:105A900003F07F03A370C3E7D40800202DE9F04191
:105AA000037803F020032BB903F0FF044269204B75
:105AB0009A4203D900263046BDE8F0818378016917
:105AC000054663F07F038068AB7005F1100201F0BA
:105AD0001DFB06460028EDD02969A86801F0CAF927
