:1000000000800020BD01000075B100002DB100008E
:100010002DB100002DB100002DB100002DB1000068
:100020002DB100002DB100002DB1000075B1000010
:1000300075B100002DB10000E1CC000031CF00000F
:1000400075B1000075B1000075B1000075B1000018
:1000500075B1000075B1000075B1000075B1000008
:1000600075B1000075B1000075B1000075B10000F8
:1000700075B1000075B1000075B1000075B10000E8
:1000800075B1000075B1000075B1000075B10000D8
:1000900075B1000075B1000075B1000075B10000C8
:1000A0006950000075B1000075B1000075B1000025
:1000B00075B1000075B1000075B1000075B10000A8
:1000C00075B1000075B1000075B1000075B1000098
:1000D00075B1000075B1000075B1000075B1000088
:1000E00075B1000075B1000075B1000075B1000078
:1000F00075B1000005D6000075B1000031D70000D1
:1001000075B100005DD8000075B1000075B1000048
:1001100075B1000075B1000075B1000075B1000047
:1001200075B1000075B1000075B1000075B1000037
:1001300075B1000075B1000075B1000075B1000027
:1001400075B1000075B1000075B1000075B1000017
:1001500075B1000075B1000075B1000075B1000007
:1001600075B10000D9B8000075B1000075B100008C
:1001700075B1000075B1000075B1000075B10000E7
:1001800075B1000075B1000075B1000075B10000D7
:1001900075B1000075B1000075B1000075B10000C7
:1001A00075B1000075B1000075B1000075B10000B7
:1001B00075B1000075B100006DCA0000564B4CF2DD
:1001C000205210B51A804DF628121A8000BF00BFC9
:1001D00000F07EFB514B4FF010621A60504A9A605B
:1001E000504ADA60504A136813F4807304D14F49BF
:1001F0000B604FF4A85313604D4B1A78110703D5C9
:100200001A7842F008021A704A4B4B492A221A7097
:100210004A4A4B4B8B4204D252F8040F43F8040B6A
:10022000F8E7484B484900228B4202D243F8042B9E
:10023000FAE74649464A002352F8230041F82300D2
:1002400001336F2BF8D1434B434A802103F8011B44
:100250009342FBD1414B3D4A1A60414B8A221A70AE
:10026000A3F5805324225A70A0221A709A7992071B
:10027000FCD59A79D406FCD43A4A937903F00C035E
:10028000082B384BF9D105221A7143225A719A79F9
:100290009006FCD5334A9179324B4906FBD5324A58
:1002A0004FF0817111600521516020221A709A79F6
:1002B00002F00C020C2AFAD12C4B2D4A1A602D4B5D
:1002C0002D4A1A6000225A60072243F8042C2B4A58
:1002D000C3F80C2D62B60BF06FF8144B1B68DA07ED
:1002E00005D527480BF056F8264B274A1A60274BAE
:1002F0001B785B0609D5234C234B22689A4204D114
:100300001F480BF047F8002323600EF073FE0AF03D
:1003100035FF0DF0D5F8FEE70E2005403080044093
:10032000823F04000100002B10D0034014D0034092
:1003300002D0074000E00740F0090020C873010028
:1003400020F9FF1FF00900200057002000F4FF1FD4
:100350000000000000E400E05FE400E008ED00E0E1
:1003600000500640004006404480044004800440A1
:10037000C010050014E000E03F190100000020203B
:100380002926F45B1CE00340A5C3945A00F0074003
:10039000FFFFFFFFFFFFFFFFFFFFFFFFFFFFFFFF6D
:1003A000FFFFFFFFFFFFFFFFFFFFFFFFFFFFFFFF5D
:1003B000FFFFFFFFFFFFFFFFFFFFFFFFFFFFFFFF4D
:1003C000FFFFFFFFFFFFFFFFFFFFFFFFFFFFFFFF3D
:1003D000FFFFFFFFFFFFFFFFFFFFFFFFFFFFFFFF2D
:1003E000FFFFFFFFFFFFFFFFFFFFFFFFFFFFFFFF1D
:1003F000FFFFFFFFFFFFFFFFFFFFFFFFFFFFFFFF0D
:10040000FFFFFFFFFFFFFFFFFFFFFFFFDEF9FFFF23
:1004100010B5054C237833B9044B13B10448AFF33E
:1004200000800123237010BDF009002000000000AF
:10043000C4730100084B10B51BB108490848AFF35D
:1004400000800848036803B910BD074B002BFBD0A0
:10045000BDE81040184700BF00000000F40900206C
:10046000C4730100F0090020000000000020704764
:10047000704700BF027C02F0080202F0FF0332B1B5
:10048000C36A406A181A48BF6FF0004070471846A8
:10049000704700BFF8B55548554D564C297803783C
:1004A0002278DFF868E1544F544E120442EA0323E5
:1004B000FF222A700270802022708EF800003870AF
:1004C000B2794F480B4312F00C0FC36002D1B379DD
:1004D000DC063DD4494A9379C3F38103032B40D012
:1004E000464B9A79C2F38102022A42D0434A937959
:1004F000C3F38103022B53D0404A9379C3F38103A2
:10050000022B61D03D4A9379C3F38103012B51D073
:100510003A4A9379C3F38103012B5CD0374B9A7924
:1005200012F00C0F03D19A79D20600D49B79354D85
:10053000354B2A7853F82240D4B1236820469B6873
:1005400098472B7804EB83046468002CF5D1F8BD40
:10055000B3799806EBD5294A9379C3F38103032B2A
:10056000BED19379D906BBD493799B06DFD4B7E784
:10057000F8BD9A79D706B9D49A799606B6D559783E
:1005800001F0020101F0FF020029AFD120211A7011
:100590001A461970937903F00C030C2BFAD1C6E7B5
:1005A0009379DD06A8D493799C06A5D4537898074F
:1005B000BDD5A1E79379DF06AAD593799E06A7D486
:1005C00053789D07B3D4A3E79379D9069AD4537887
:1005D0009B07ACD496E79379DC069FD59379980670
:1005E0009CD453789907A2D598E700BF06C007406E
:1005F00005C0074007C0074009C00740004006404B
:10060000D8560020B05300207053002008C0074087
:1006100090F92410104B03604B1C06D0F0B40F4E21
:1006200056F82130984201D0F0BC70470C4F57F873
:10063000213033B18D0000245A1953685460002BC7
:10064000FAD1084C23780022013B237047F821207F
:1006500046F82120E8E700BF8C620100905300209B
:1006600070530020B153002038B590F924506B1C12
:100670001BD00E4B0E4953F825400E4BEDB24FF0F8
:10068000FF320D701A6084B1AD0002E02C44646842
:100690005CB194F82530002BF8D0236820462C4418
:1006A0001B6898476468002CF3D138BD7053002054
:1006B000B0530020B8F3FF1F704700BF90F924101B
:1006C000104B03604B1C06D0F0B40F4E56F821308F
:1006D000984201D0F0BC70470C4F57F8213033B12D
:1006E0008D0000245A1953685460002BFAD1084C2D
:1006F00023780022013B237047F8212046F821206F
:10070000E8E700BF8C620100905300207053002086
:10071000B153002090F92410104B03604B1C06D0FD
:10072000F0B40F4E56F82130984201D0F0BC70471B
:100730000C4F57F8213033B18D0000245A195368FB
:100740005460002BFAD1084C23780022013B23701F
:1007500047F8212046F82120E8E700BF8C6201001D
:100760009053002070530020B153002010B5002199
:1007700004460CF03FF9B0B1B4F8B4319BB2C3B148
:10078000B4F8B031B4F8B2219BB20133632BC8BFC7
:10079000002392B2934207D09A1D04EB82029BB2CF
:1007A0005060A4F8B03110BDD4F8B8310133C4F8AA
:1007B000B831BDE810400CF0D9B800BF103005F0DA
:1007C00043BC00BF00B583B002AB012203F8011D9A
:1007D0001030194605F038FC03B05DF804FB00BF8B
:1007E000103005F00DBB00BF00B583B001220DF144
:1007F0000701103005F03EFA01280CBF9DF80700F4
:100800004FF0FF3003B05DF804FB00BF103005F07F
:10081000CDBB00BF2DE9F0410E4680460AF0B4FD85
:10082000174D286007F07CFF0746286807F054FF43
:100830000446286807F03EFF6401C0B204F4FF5488
:10084000BFB20443A7F2BC7744EA4724A8F80040AB
:10085000286807F053FF0746286807F007FF04469B
:10086000286807F015FFFF02640107F4FF2704F46E
:10087000FF54C0F346003C4304433480BDE8F0819C
:10088000F44E002038B5054C014620460CF06CFBB8
:10089000054620460CF0E2FB284438BD90FFFF1FC0
:1008A00010B504460FF06CFA21460246BDE8104030
:1008B00001480CF045BB00BFC051002010B50446F4
:1008C0000FF05EFA01462046BDE810400BF076BE00
:1008D000464A474B102010801B781B0734D5F0B5D3
:1008E000444E454D454C31782B782278DFF82CE189
:1008F000434F824042EA03230B43FF2280213270A0
:100900002A7022708EF800103970D9073D4A14D52C
:100910001A2393603C4F3D4E3D4D3E4C3E4910796D
:1009200000233B7053709370D370D3603370137196
:100930002B70237013700870F0BD1F0705D4DE06FE
:1009400006D504239360E5E7704721239360E1E730
:100950009D0604D45C0604D516239360DAE7906004
:10096000D8E7180602D509239360D3E7D90502D545
:100970000A239360CEE79F0502D50D239360C9E754
:100980005E0502D50B239360C4E71D0502D51E2327
:100990009360BFE7DC0402D502239360BAE79804B2
:1009A00002D507239360B5E7590402D50623936067
:1009B000B0E71F0402D515239360ABE7DE0302D531
:1009C00024239360A6E79D0302D522239360A1E729
:1009D000DC0202D5252393609CE71803F5D4590364
:1009E000F3D49B0244BF2323936093E70020054088
:1009F00002D0074005C0074006C0074007C00740B7
:100A000009C00740D856002000C0074001C0074079
:100A100002C0074003C0074004C0074008C00740A9
:100A2000002976D02DE9F04F0C469100631883B071
:100A30005D68002D57D06B185E68002E50D073187B
:100A40005F68002F49D07B18D3F80480B8F1000FFD
:100A50003CD008EB0103D3F80490B9F1000F32D079
:100A600009EB0103D3F804A0BAF1000F27D00AEB79
:100A70000103D3F804B0BBF1000F18D00BEB010356
:100A80005B6863B1194401934968FFF7C9FF019B93
:100A900093F825201AB11A681846536898479BF8AE
:100AA000253023B1DBF8003058465B6898479AF848
:100AB000253023B1DAF8003050465B68984799F842
:100AC0002530002B35D198F8253063BB97F82530B9
:100AD0001BB13B6838465B68984796F82530CBB920
:100AE00095F8253063B994F8253013B903B0BDE803
:100AF000F08F23685B68204603B0BDE8F04F1847CD
:100B00002B6828465B68984794F82530002BEDD079
:100B1000EFE77047336830465B68984795F82530B3
:100B2000002BE0D0ECE7D8F8003040465B689847EF
:100B3000CCE7D9F8003048465B689847C3E700BF68
:100B400090F92420531C26D01B4B2DE9F04153F87B
:100B50002240D2B2ECB19300E1184D68B5B1E9186A
:100B60004E6866B1F1184F6837B13B445968FFF7DA
:100B700057FF97F82530A3B996F8253063B995F853
:100B800025301BB12B6828465B68984794F82530C0
:100B900063B9BDE8F0817047336830465B689847B9
:100BA000EDE73B6838465B689847E5E723682046F1
:100BB0005B68BDE8F0411847705300202DE9F84309
:100BC0004F4CB4F8B021B4F8B23192B29BB29A4211
:100BD00038BF6432D31A3F2B67DD4A4DD4F8AC914D
:100BE000DFF81C8105F58047002637E04FF480725E
:100BF000002109F0E1FE48460BF0B8FEC4F8AC61F4
:100C0000B4F8B231B4F8B0219BB292B293424ED054
:100C10000133632B86BF4FF0000E73461FFA83FE2D
:100C2000063304EB83034FF48072D3F80490C4F8C6
:100C3000AC9109F104012846A4F8B2E109F0BCFE28
:100C4000B9F1000F04D048460BF090FEC8F8AC6133
:100C500005F50075BD424FF0000934D0A5F5807050
:100C6000B9F1000FC2D1B4F8B231B4F8B0219BB2DF
:100C700092B293423DD00133632B86BFCE4673467A
:100C80001FFA83FE063304EB83034FF48072D3F81C
:100C90000490C4F8AC9109F10401A4F8B2E109F0A0
:100CA0008BFEB9F1000FABD0A5E7BDE8F88328466D
:100CB0004FF48072002105F5007509F07DFEBD42FC
:100CC0004FF00009CAD14FF480420F490F4805F098
:100CD000BBF9013005D00E4A136820331360BDE81C
:100CE000F883012114200AF0BBF90A4B0A4A1A6062
:100CF000F1E749464FF4807209F05EFE80E700BFDD
:100D0000084F0020780B0020780A0020540A0020A9
:100D1000044F00200CED00E00400FA0570B5124C01
:100D2000124D13480D210BF049FC20460CF096F9AA
:100D30002E88104810210BF041FC314620460CF063
:100D400013F920460CF08AF90B4A0C4B12882A80C2
:100D50000B480022A3F8B42104F034FD6420BDE860
:100D600070400AF08FBC00BF90FFFF1FC8540020E6
:100D7000B0620100C0620100F0540020084F002062
:100D8000540A00202DE9F04F95B00AF0FDFADFF883
:100D90006892884CC9F8000007F09EFC23689842CE
:100DA00000F067820A218448844E854F0BF006FCD0
:100DB00084480CF053F9D9F8000007F08DFC20604E
:100DC000D9F8000007F0ACFC23687F4902467F4851
:100DD0000EF070FF002401237C4A7D49376007A88C
:100DE0008DF81C408DF81D4004F008FEDFF8DC8112
:100DF000002110200AF00AFC98F8002000232F2A76
:100E00008DF81C308DF81D3000F0B68107AC2046FF
:100E100001236E4A6E4904F08DFE58B19DF81C30D6
:100E200013F0700F06D00FCC694D0FC50FCC0FC556
:100E300023682B60D9F8000007F072FC0446D9F84B
:100E4000000007F049FC8246D9F8000007F032FCA8
:100E50000590D9F8000007F051FC8346D9F800004E
:100E600007F004FC0490D9F8000007F011FC059A83
:100E7000049B0092039002932246CDF804B053469F
:100E8000544955480EF016FF0025082437601020FD
:100E900009F0CAFF0DF08EFC4FF06A510DF0DEFC38
:100EA000014628460DF0D2FB013C0546EFD14848EB
:100EB000DFF8489104F086FC484901F23C4004F018
:100EC000B9FE4FF47A7646230BA8454A40498DF87F
:100ED0002C408DF82D408DF820408DF82840099643
:100EE000CDF81C9004F026FE9DF82C30002B40F02D
:100EF00051810E213B480BF061FB012114200AF0C7
:100F0000AFF8394B394A1A6098F800202F4900236E
:100F10002F2A8DF81C308DF81D3000F0208107A895
:100F200001232A4A2A4904F005FE60B19DF81C30CD
:100F300013F0700F07D007AC0FCC254D0FC50FCCA9
:100F40000FC523682B604FF47A7500240995C223DE
:100F5000214A1F498DF82C400BA80BAD8DF82D4070
:100F60008DF820408DF82840CDF81C9004F0E2FD6B
:100F70000FCD1F4E9DF82040347106F110040FC4B0
:100F80000FCD0FC4099A9DF828302968B2603373D9
:100F9000114821600EF0F4FE01460F48154FDFF8AE
:100FA00048B0DFF848A00BF009FB06480CF056F8F3
:100FB0006CE000BF2C520020D46201006C53002072
:100FC0001508000090FFFF1FE0620100C8500020DC
:100FD000B84E0020EC620100985100207C4A0020AD
:100FE0000C6301004C6301000CED00E00400FA0505
:100FF000440A0020C4500020F44E00206862010022
:1010000004F098FD60B19DF81C30AA4D13F0700FEC
:1010100007AC05D00FCC0FC50FCC0FC523682B60D4
:101020004FF47A750024C223A34AA24909950BA85C
:101030000BAD8DF82C408DF82D408DF820408DF8AB
:101040002840CDF81C9004F075FD0FCD9B4C9DF809
:1010500020E086F804E00FC40FCD0FC49DF82830BF
:10106000099A33732968B260934821600EF088FEB4
:10107000014691480BF0A2FA91480BF0EFFF0A20CD
:101080000AF000FB3B68B3F57A7F61DC347C8D4964
:101090008948F4B93B6801331A463B600EF00AFEFA
:1010A00098F80050884A83498DF81C402F2D4FF046
:1010B000010307A88DF81D40A2D15478002C9FD1C0
:1010C000084604F07FFB814901F23C4004F0B2FD88
:1010D000A6E77F487F4907687F4C804A804B814D57
:1010E00003C9206092E80300A06093E80300102683
:1010F0000123A382E382E060266138460DF09AFD69
:101100003946A06138460DF0A1FA0DF093FD764AFC
:10111000E0612B68668492E803005B0203F1240619
:101120002C226062214602276448A36227846660FD
:1011300004F08AFF09216D480BF040FA29686048E5
:101140000BF012FF5E480BF089FF15B0BDE8F08F81
:101150000121142009F084FFCBF800A096E74B781A
:10116000002B7FF4DCAE534804F02CFB574901F20E
:101170003C4004F05FFDE6E698F80130002B7FF478
:1011800045AE4C4804F01EFB504901F23C4004F0CF
:1011900051FD4FE64848564E0EF0F2FD46490246D4
:1011A0000BA804F051FF14A92C2301F8383D0122AB
:1011B0000DEB030004F048FF06F1080707AC16F832
:1011C000011F00230A2220460BF098FFBE42F6D1F1
:1011D000284648490DF042FB4FF078510DF03EFB98
:1011E00014A92C260546012201F8356D0DEB0600E9
:1011F00004F02AFF404B18680CF086FE02270B46CD
:101200000246009720460BF0D7FF14A9012201F8EF
:10121000366D0DEB060004F017FF28460CF074FE47
:1012200000970B46024620460BF0C6FF14A9012288
:1012300001F8376D0DEB060004F006FF2F480EF0A5
:101240009FFD2E4902460DEB060004F0FDFE2046F0
:101250000BF004FF28462A490DF09EFC60B9284691
:1012600028490DF099FC002858D10BA804F0AAFADF
:101270004AE6254E254FB9E5254E3368002BEED0C2
:10128000012105200AF090F940F6B8300AF0FAF989
:10129000002105200AF088F91E4A1F490023137017
:1012A0000BA80B22336004F0CFFE20460BF0D6FED5
:1012B000D5E700BFB84E002098510020540A002006
:1012C00090FFFF1F5C630100C85000207C4A002093
:1012D0000C520020686301007C5200207063010002
:1012E00078630100F85100208063010088630100E9
:1012F0004B510020CDCCBC405C51002008FAFF1FB0
:1013000066664640000040406C530020150800000F
:1013100058510020014F0020146301002822174972
:101320000BA804F091FE20460BF098FE0BA804F0E9
:1013300049FA00250824102009F076FD0DF03AFA4C
:101340004FF06A510DF08AFA014628460DF07EF9F9
:10135000013C0546EFD10A490DF080FA4FF0785173
:101360000DF07CFA07490DF017FC00283FF47DAF23
:1013700047F230500AF086F9DBE700BF2063010036
:10138000CDCCBC400000404038B50E211C481D4D5E
:101390000BF014F91C480BF061FEFFF7F3FC1B4B3C
:1013A000D5F8AC0100241C6018B10BF0DFFAC5F8C9
:1013B000AC41B5F8B241B5F8B031A4B29BB2A3428A
:1013C0000ED00134642C28BF0024A31D05EB830339
:1013D00058680BF0CBFAB5F8B0319BB2A342F0D10C
:1013E0000123A4B20B210A48A5F8B241A5F8B431F3
:1013F0000BF0E4F80448BDE838400BF02FBE00BF06
:1014000094630100084F002090FFFF1F044F00204D
:10141000A463010070B517488EB004F0D3F91649E3
:101420000EAD01F23C4004F005FC144B45F8343D90
:1014300000244623124A0F498DF8144005A84FF4A2
:101440007A768DF815408DF808408DF81040039697
:1014500004F070FB9DF8143053B12922094905A806
:1014600004F0F2FD28460BF0F9FD05A804F0AAF9F6
:101470000EB070BDB84E00207C4A002068620100AA
:101480000C630100B0630100F8B5394D394C2A688E
:1014900054F8223013B1013B44F822301021364871
:1014A000334F0BF08BF82B68344854F823100A2282
:1014B00000230BF023FE31480BF0D0FD2B6854F8CD
:1014C0002320DAB901332E4A3B600126042B167023
:1014D00022D02C4C2C4A04F58C6712F82320384675
:1014E00004F26C414FF0384306F010F8E0B9274899
:1014F000FFF7E4F928680130FFF7C4F90E2124480A
:101500000BF05CF829681D4801310BF02DFD1B48DC
:10151000BDE8F8400BF0A2BD0E211E480BF04EF8BE
:1015200016480BF09BFDFEE704F23C40276004F0F8
:1015300049F93146204605F0EDFE014690B1114CC7
:1015400004F23C463046214604F074FB0028CED01D
:1015500094F83C3413F0700FC9D00F4B1E60FFF7A6
:1015600059FFCBE7204605F0D5FE0028E7D1BEE7BE
:101570006852002014520020DC63010090FFFF1F1E
:10158000045200207C4A00206051002010640100B9
:1015900000640100F06301006853002008B50121D8
:1015A00005200AF001F84FF4FA600AF06BF8002108
:1015B000052009F0F9FF024B01221A7008BD00BF97
:1015C000014F002008B50121052009F0EDFFC820DA
:1015D0000AF058F80021052009F0E6FF64200AF01F
:1015E00051F8024B01221A7008BD00BF014F0020C4
:1015F00008B50121052009F0D7FF40F6B8300AF000
:1016000041F80021052009F0CFFF024B00221A709B
:1016100008BD00BF014F00202DE9F0438FB0044604
:101620000EF0AEFB00B201281CDDB4F9003044F22C
:101630005372934200F0A68118DD44F6545293424F
:1016400000F0DA8045F2532293422FD044F6521232
:10165000934207D10BAAE01CBD490EF051FBBD4BD4
:101660000B9A1A6001200FB0BDE8F08344F24E429D
:1016700093420FD044F252429342F3D10BAAE01CA2
:10168000B3490EF03DFBB44B0B9A1A6001200FB02A
:10169000BDE8F0830BAAE01CAD490EF031FBAF4B67
:1016A0000B9A1A6001200FB0BDE8F0830AAD09A9BA
:1016B00008AA05ABE01C039502910192009307AACA
:1016C00006ABA7490EF01CFBA64B079D596818688E
:1016D0009A680A9EDDF824E0DDF820C0A5F5FA65D9
:1016E000ADB20BAF2CB207C7069F05991E3415F09B
:1016F000030F4FEAA408FDB240F053819A4B022D2C
:101700008CBF1F4600279948994BC8EB040400FB87
:1017100008F06A1E03FB0400002A00EB070347DD04
:101720009DF82C409048012A00FB043340D09DF8DE
:101730002D40022A00FB04333AD09DF82E40032AA4
:1017400000FB043334D09DF82F40042A00FB0433FF
:101750002ED09DF83040052A00FB043328D09DF898
:101760003140062A00FB043322D09DF83240072A7C
:1017700000FB04331CD09DF83340082A00FB0433DF
:1017800016D09DF83440092A00FB043310D09DF890
:1017900035400A2A00FB04330AD00B2A9DF8364054
:1017A00018BF9DF8372000FB043318BF00FB02333D
:1017B0005FFA8EF2C2EB02125FFA8CF04FF46164B2
:1017C000920004FB0022684D6A4C6B48C9B2013993
:1017D00052FA86F205FB01221344122123600AF01B
:1017E000EDFE216865480BF0BFFB64480BF036FC4A
:1017F00001200FB0BDE8F0830AAD09A908AA05AB26
:10180000E01C039502910192009307AA06AB54498C
:101810000EF076FA534B079F9A68186859680A9E2B
:10182000DDF824E0DDF820C0A7F5FA67BFB20BAC05
:101830003DB207C4069A059C1E3517F0030F4FEA08
:10184000A508D7B240F0AA80474B022F8CBF99461B
:101850004FF000094549464BC8EB050501FB08F16F
:101860007A1E03FB0510002A00EB090347DD9DF8F3
:101870002C003D49012A01FB003340D09DF82D008A
:10188000022A01FB00333AD09DF82E00032A01FB07
:10189000003334D09DF82F00042A01FB00332ED0F2
:1018A0009DF83000052A01FB003328D09DF8310057
:1018B000062A01FB003322D09DF83200072A01FBE3
:1018C00000331CD09DF83300082A01FB003316D0EA
:1018D0009DF83400092A01FB003310D09DF8350033
:1018E0000A2A01FB00330AD00B2A9DF8360018BFE4
:1018F0009DF8372001FB003318BF01FB02335FFA6C
:101900008EF2C2EB02125FFA8CF04FF46165920026
:1019100005FB0022E1B2144C164D52FA86F2013951
:1019200004FB01241C4420462C6009F033FD0B21EC
:1019300013480AF043FE214600230A220F480BF009
:10194000DDFB0E480BF08AFB01200FB0BDE8F083F1
:101950005064010048FAFF1F3CFAFF1F54FAFF1FB2
:101960003064010098620100805101000085E201AD
:101970008033E101FC4E00205464010090FFFF1F02
:10198000446401000BAAE01C07490EF0B9F9074BAB
:101990000B9A1A6001200FB0BDE8F0834FF00009E8
:1019A00058E70027AFE600BF5064010000FAFF1FB0
:1019B0002DE9F043A3B000254FF47A76764F7748AF
:1019C0000A968DF830508DF831508DF824508DF8EE
:1019D0002C50089703F0F6FE714901F23C4004F0E8
:1019E00029F901236F4A6D49179619A88DF864509B
:1019F0008DF865508DF858508DF86050159704F0AB
:101A000099F80DF1640EBEE80F000CAE0FC6BEE8EB
:101A10000F000FC69DF83080DEF800109DF85800CA
:101A2000179A9DF8603031608DF824000A928DF885
:101A30002C30B8F1000F46D02E468DF800604FF0E4
:101A400000094FF0FF08012215A90CA804F012F9B3
:101A500009F1010322AA01284A441BB224D01D2BFC
:101A600002F8888C05DC9946EDE71D2B01DC0A2A7B
:101A7000F9D1013B9BB222AA1A4402F8886C9DF866
:101A800000202F2A04D0012B02D96846FFF7C4FD9D
:101A90009DF830301B0711D40CA803F093FE2DBB2A
:101AA000012023B0BDE8F0839DF854200D2A08BF23
:101AB0004B4662D11D2BDCDC9946C4E7139A119B7F
:101AC0009A42BAD1E8E7142137480AF077FD37483F
:101AD0000BF0C4FA0D22364936480BF031FA35487E
:101AE0000BF0BCFA404623B0BDE8F0830B2132482E
:101AF0000AF064FD00230A2221462C480BF0FEFA6E
:101B00002A480BF0ABFA254803F05CFE2449002577
:101B100001F23C4004F08EF84FF47A768DF8645070
:101B20008DF865508DF858508DF8605063231D4A2C
:101B30001A49179619A819AD159703F0FBFF0FCD99
:101B40000CAE0FC60FCD0FC62968179A9DF86030EE
:101B50009DF8585031600CA821460A928DF82C301F
:101B60008DF8245004F080F9022214490CA804F0E6
:101B70006BFA0CA803F026FE92E722AB03EB0901F7
:101B8000542A09F1010301F8882C1BB27FF46DAFD0
:101B9000119C0546013C8DE768620100B84E0020AB
:101BA0007C4A0020686401008464010090FFFF1FEC
:101BB0009C640100C0510020746401008064010035
:101BC00030B583B002AD079C05F8082D8DF80200F2
:101BD000069A8DF804304E3428468DF801108DF8A1
:101BE00005208DF8064006F0AFFD09F0D3FB09F0A3
:101BF000CBFB024B186003B030BD00BF784A002019
:101C00002DE9F041044604200D46164609F0F0FC8B
:101C10008046032009F0ECFC0746B8F1000F2AD1FA
:101C2000DFF89C80244AD8F800300121132B117072
:101C300039DD0133642BC8F800303ADDC82BD4BF3E
:101C400005343C3467B91D4F1B4A3B680121132BF7
:101C5000117022DD3C2C16DC01233B60013C02E0CC
:101C6000164B00221A60AC4209DBB442C8BF2C46B6
:101C70002046BDE8F081124B00221A60E2E73446AC
:101C80002046BDE8F0813B680133642B3B60E5DD15
:101C9000C82BD4BF053C3C3CE5E7C82009F0F2FC6A
:101CA0003C2CD9DDEFE7C82009F0ECFCD8F8003077
:101CB000BFE70134C6E700BFF84E002028520020DD
:101CC0000852002010B5094C204608F093FA20462F
:101CD000012107F0B5FC2046022107F0ABFC0022F1
:101CE00020461146BDE8104007F0A0BCC0510020BE
:101CF0002DE9F04782B009F047FBB44BB44E1860B1
:101D00000121B448B44FB54CDFF84083B44D07F01F
:101D100091FC0121AF4807F093FC12220021AD484D
:101D200007F084FC0422AF49AA480BF009F9316896
:101D3000A8480BF019F90222AB49A6480BF000F9AC
:101D4000A4480BF08BF90622A849A2480BF0F8F83A
:101D50003968A0480BF008F90322A5499D480BF00B
:101D6000EFF80322A3499B480BF0EAF80A222178F6
:101D7000984800230BF0C2F996480BF06FF9D8F899
:101D8000003055F823000CF015FD9B490CF01AFEAD
:101D90000CF0BAF802460B468E4898490BF0A0F9B1
:101DA00001218C4807F046FCD8F80030366855F819
:101DB0002330700003FB00F000F500402C300CF0E5
:101DC000F5FC8D490CF0FEFD8B490CF0FBFD8C4BB6
:101DD0001B68012B814600F0D3804FF07E583046BF
:101DE0000CF0E8FC41460CF039FD80463868DFF81D
:101DF00060A2844D30440CF0DDFC014640460CF0FE
:101E0000E1FD074620780CF0D5FC7F4B19680CF0FB
:101E100025FD7E4B044618680CF0CCFC7C4B196801
:101E20000CF01CFD7B4B19680CF010FC39460CF0D3
:101E300015FD394680464FF07E500CF005FC764B80
:101E400019680CF00BFD014640460CF0FFFB014603
:101E500020460CF0B7FD71490CF000FD0CF0EAFED5
:101E6000DAF80040002380462B606B60AB60EB60CB
:101E700074B120460CF09AFC49460CF0A3FD0CF01E
:101E800043F80BF055FE0CF06BFB286000FB06F4EA
:101E9000DAF8040068B10CF089FC49460CF092FDB8
:101EA0000CF032F80BF044FE0CF05AFB686000FBBB
:101EB00006F0DAF80830044473B118460CF076FCEA
:101EC00049460CF07FFD0CF01FF80BF031FE0CF0D2
:101ED00047FBA86000FB06F3DAF80C001C4468B16D
:101EE0000CF064FC49460CF06DFD0CF00DF80BF0A5
:101EF0001FFE0CF035FBE86006FB00F020440CF000
:101F000055FC39460CF05EFD044640460CF04EFC94
:101F1000014620460CF05EFEF0B901462E222D4807
:101F200007F084FB0D223E492A480BF009F82046B1
:101F30003C490CF047FD0BF0E7FF022402460B463C
:101F4000009424480BF038F937492248012202B0A6
:101F5000BDE8F0470AF0F4BF2E2200211D4807F02B
:101F600065FB0E2231491B480AF0EAFF3049194847
:101F7000A1FB0831090C00230A220BF0BFF8E3E7AC
:101F80002C4A2D4B10781B78834286BFC3F118036F
:101F9000C018C01A0CF00EFC284A294B80461B784A
:101FA0001078834286BFC3F13C03C018C01A0CF0FE
:101FB00001FC2449054640460CF050FC29460CF033
:101FC00045FB21490CF0FEFC804608E7F44E00205A
:101FD0003CFAFF1FC051002048FAFF1F38FAFF1FCC
:101FE00014FAFF1FAC640100B4640100B86401007E
:101FF000C0640100C464010000007A44C8640100A8
:10200000FC5100201452002044FAFF1F58510020B8
:102010004CFAFF1F50FAFF1F40FAFF1F00006145F6
:10202000E464010000C0A84740640100D4640100DA
:1020300007452EC2945100203C0A0020004F00208A
:1020400064520020000070420000B44430FAFF1FC8
:102050006C52002038B5054606F062FB1E4C014666
:1020600020460AF081FF2D200AF07CFB284606F06E
:1020700033FB014620460AF077FF2D200AF072FB61
:10208000284606F017FB014620460AF06DFF0121A5
:1020900012480AF093FA284606F030FB0146204623
:1020A0000AF062FF3A200AF05DFB284606F0DEFAED
:1020B000014620460AF058FF3A200AF053FB284612
:1020C00006F0E6FA014620460AF04EFF2046BDE83B
:1020D00038400AF0C3BF00BF90FFFF1FFC6501003E
:1020E0002DE9F043434A444BDFF81891DFF818819B
:1020F000424D98F80010167899F800701A78286800
:1021000083B03C2313FB071713FB062606F0F6FAF1
:102110000446286806F0AAFAC4EB041400EB840411
:10212000286806F0FDFA00F14E0328688DF80630A5
:1021300006F0D2FA8DF80500286806F0BBFAB7421F
:102140008DF8040006D2A74232D8A64230D303B09D
:10215000BDE8F083A742FAD9A642F8D202A800232C
:1021600099F8002000F8083D98F800308DF801300B
:102170008DF8022006F0E8FA0F21286020480AF0C6
:102180001DFA2868FFF766FF09F0FEF82B68834206
:1021900004DA03F5A83303F5C0732B600F21184848
:1021A0000AF00CFA2868FFF755FF03B0BDE8F0838A
:1021B00002A8002399F8002000F8083D98F80030A4
:1021C0008DF801308DF8022006F0BEFA0F2128604C
:1021D0000B480A4C0AF0F2F92868FFF73BFF09F0B8
:1021E000D3F82B688342D9DA03F5A83303F5C0731B
:1021F0002360D3E794510020004F0020FC4E0020C4
:10220000F46401003C0A00206452002010B5002054
:1022100008F0D0FE244C2070012008F0CBFE607046
:10222000022008F0C7FEA070032008F0C3FE1F4B79
:10223000E07022681A60042008F0BCFE20700520BF
:1022400008F0B8FE6070062008F0B4FEA070072009
:1022500008F0B0FE164BE07022681A60082008F003
:10226000A9FE144B1870092008F0A4FE124B187038
:102270000A2008F09FFE114B18700B2008F09AFE00
:102280000F4B18700C2008F095FE0E4B18600D20B7
:1022900008F090FE0C4B18600E2008F08BFE08B181
:1022A0000A4B187010BD00BF245200203CFAFF1FDB
:1022B00048FAFF1F3C0A002064520020945100207D
:1022C000004F0020FC51002030FAFF1F38FAFF1F9A
:1022D000264B10B51968264C00202160C9B208F0C1
:1022E000BFFE6178012008F0BBFEA178022008F053
:1022F000B7FEE178032008F0B3FE1E4B1968216099
:102300000420C9B208F0ACFE6178052008F0A8FEF0
:10231000A178062008F0A4FEE178072008F0A0FECE
:10232000154B0820197808F09BFE144B09201978EA
:1023300008F096FE124B0A20197808F091FE114B16
:102340000B20197808F08CFE0F4B0C20197808F040
:1023500087FE0E4B0D20197808F082FE0C4B0E20E4
:102360001978BDE8104008F07BBE00BF3CFAFF1FA3
:102370002452002048FAFF1F3C0A0020645200202B
:1023800094510020004F0020FC51002030FAFF1F24
:1023900038FAFF1F2DE9F04F8DB0102907910690F4
:1023A00000F0BF80202900F0B0800024631C184694
:1023B0001D4608930CF0FAF9E4B244F0E06309908A
:1023C000002128460A9344F08E430B930CF008FA40
:1023D00001465A480CF0F6FA054607980CF0E6F963
:1023E00001460CF033F9044606980CF0DFF901467B
:1023F00020460CF033FA014628460CF0E3FA4FF081
:1024000001084FF07E550746C1464FF0010A4FF0D4
:10241000000B50460CF0CEF939460CF01FFA04467A
:102420000CF0E2FB0CF0C6F9014620460CF00CF96A
:10243000294606460CF0B0FB4FF0874148B12046D4
:102440000CF0AAFB28B120460CF014FC354680465F
:10245000D1461AF1010A4BF1000BBBF1000F08BF86
:10246000BAF1400FD5D109F1FF34089B079E0593BF
:1024700020460296CDF81080CDF80C900CF096F91D
:102480004FF07E510CF0E2F82D490CF0E7F90546CB
:1024900040460CF08BF9014628460CF093FA4FF0B9
:1024A0007C510CF0DBF909990CF08CFA05467000B0
:1024B0000CF080F9014628460CF084FA0CF094FBED
:1024C000204B069A019000921F492048204E214D32
:1024D0001A460AF005FE204920480F68220308F139
:1024E000FF3302F47F22C3F30B03134327F01042A0
:1024F0000A6033600A9B2B600B9B03600B6843F000
:1025000010430B600DB0BDE8F08F154B0B9303F13A
:1025100040430A934FF0804309930223114D0893DF
:102520005BE7114B0B9303F140430A934FF0814358
:10253000099304230D4D08934FE700BF4054094C05
:102540004054894C00A24A040465010090FFFF1F1B
:1025500004F1024008F0024080F0024088F002409E
:10256000010000474054894B030000474054094B89
:102570002DE9F04F0546DFF87C82974E974F98F88B
:1025800000E02E60FF2085F82400DFF86C92387898
:1025900059F820C00023BEF1060F8DB00C4685F817
:1025A000253085F826309CBF88F800309E46BCF167
:1025B000000F00F0A8808C455BD06346810001E0ED
:1025C0009C4256D00B445B68002BF9D1634603EB69
:1025D000010ADAF80430002BF9D105EB010BCAF837
:1025E0000440BEF1060F4FF0FF044FFA80FACBF81B
:1025F00004308DF82C4002968DF82D308DF82E3059
:1026000085F824A0644605D8002388F80030002C03
:1026100000F0A980A24226D0234601E0934222D0B6
:102620000B445B68002BF9D104EB010CDCF804408F
:10263000002CF9D1CCF804200CAB19440024431C25
:10264000BAF1FF3F41F8244C3B708DF82CA0029664
:1026500005D0634951F82A3002AA934272D0284625
:102660000DB0BDE8F08F0130387028460DB0BDE8E0
:10267000F08F0023FF21BEF1060F02968DF82C107B
:102680008DF82D308DF82E3001D888F80030944523
:10269000E9D06346810001E09A42E4D00B445B68D4
:1026A000002BF9D18C44DCF804402CB1A4468C44B6
:1026B000DCF80440002CF9D10CAB19444FFA80FE31
:1026C000431CBEF1FF3FCCF804203B7041F8244C82
:1026D00002968DF82CE0C2D0414951F82E3002AA62
:1026E0009342BCD159F82E304FEA8E0623B19A1985
:1026F00053685460002BFAD10023387049F82E300B
:1027000041F82E30ABE7B0B38100DFF8D4A049F830
:10271000204005EB010C00234AF82050BEF1060FC3
:10272000CCF804304FFA80FA4FF0FF0C02968DF887
:102730002D308DF82E3085F824A08DF82CC07FF632
:1027400063AF64E759F82A304FEA8A0623B19A1931
:1027500053685460002BFAD10023387049F82A30AE
:1027600041F82A307BE7F0B11D4B49F8202002AA3E
:1027700043F8202060E71B491B480B68019243F097
:1027800080630B600368194923F0804303601520C0
:1027900008F02EFD164B98F800E0019A4FF4001156
:1027A00019603878B0E70F4C0F482368019243F066
:1027B0008063236003680D4923F080430360152084
:1027C00008F016FD0A4B019A4FF400111960387891
:1027D0004FFA80FA8100C7E78C620100B1530020F4
:1027E00090530020047004400070044095040000E1
:1027F00000E100E0BCF3FF1F705300202DE9F04121
:10280000584D594C594E08F08DFB0421584807F09B
:10281000DDFC2A6826600023637223612372E36073
:102820000AB99AE01A465369002BFBD1546100277C
:10283000504B4D486761A780E780236002F002FAA1
:102840004D4A4FF0010E02F118013B46384617720F
:10285000D760166082F809E01161174600E0396917
:1028600041F82300517A444E01339942F7DC29683C
:102870003C4B09B973E019464B69002BFBD14A6107
:102880003E4B3F491C600024184654619480D4801C
:10289000A2F8B0411160A2F8B2415A60C2F8AC414E
:1028A000A2F8B441C2F8B8411C725C72DC600AF054
:1028B000ADF8344A344B9069344A1A600BF07AFF11
:1028C000334D344B344E18604FF0FF08334B344ACD
:1028D000344985F825402846012785F824802B6057
:1028E0006C63AC6385F83C4085F826700CF070FB97
:1028F0002D4B2B4A2D4986F82480304686F82540FA
:10290000336086F8274086F8284086F826700CF059
:102910005FFB2A4631462648264DFFF729FE204A0E
:10292000254923480CF054FB244A254B25491474AF
:1029300064204FF47A76547414711473DC7183F844
:102940003C4483F83D4483F86A4483F8600496600D
:102950001560C3F86C14BDE8F0812C6067E71E6059
:102960008EE700BFC4540020785100205C62010053
:10297000C051002050670100084F00203051002056
:10298000AC62010014FAFF1F4051002034670100BF
:10299000E45000200C52002034520020F86701005F
:1029A000FCF9FF1FBD0600000C68010015070000C0
:1029B000140A00206862010011060000440A002089
:1029C0007C4A00200000023870B5104C06460D46C7
:1029D00020460A2102F0A4FCC6F30721204602F09B
:1029E00077FAF1B2204602F073FAC5F307212046C8
:1029F00002F06EFAE9B2204602F06AFA204602F0CE
:102A0000A1FCB0FA80F0400970BD00BF5053002017
:102A100010B5184C0A21204602F082FC2046002105
:102A200002F056FA2046302102F052FA20460021E8
:102A300002F04EFA0021204602F04AFA204602F047
:102A400081FC20460A2102F06BFC2046002102F0A6
:102A50003FFA2046022102F03BFA2046002102F014
:102A600037FA2046002102F033FA2046BDE8104034
:102A700002F068BC505300202D4B2E4810B51C6846
:102A80000A216CBB02F04CFC21462A4802F020FAD5
:102A90003021284802F01CFA2146264802F018FA94
:102AA000A221244802F014FA224802F04BFC0A2129
:102AB000204802F035FC21461E4802F009FA0221A6
:102AC0001C4802F005FA21461A4802F001FA432197
:102AD000184802F0FDF91748BDE8104002F032BC7A
:102AE00002F01EFC0021134802F0F2F930211148D7
:102AF00002F0EEF900210F4802F0EAF9AB210D488F
:102B000002F0E6F90B4802F01DFC0A21094802F028
:102B100007FC0021074802F0DBF90221054802F01A
:102B2000D7F90021034802F0D3F96321D0E700BFB1
:102B300058510020505300200238032838B504DCD7
:102B4000002880F20C82002400E00C240A21C848EE
:102B500002F0E6FB0021C64802F0BAF93021C44871
:102B600002F0B6F94021C24802F0B2F96021C04833
:102B700002F0AEF9BE4802F0E5FB0A21BC4802F0C3
:102B8000CFFB0021BA4802F0A3F92621B84802F091
:102B90009FF90021B64802F09BF96C21B44802F07D
:102BA00097F9B34802F0CEFB0A21B14802F0B8FB16
:102BB0000021AF4802F08CF92821AD4802F088F9D5
:102BC0000121AB4802F084F9F021A94802F080F914
:102BD000A74802F0B7FB0A21A54802F0A1FB00219B
:102BE000A34802F075F92A21A14802F071F90021E9
:102BF0009F4802F06DF900219D4802F069F99C4858
:102C000002F0A0FB0A219A4802F08AFB00219848B2
:102C100002F05EF92C21964802F05AF90F219448EF
:102C200002F056F92221924802F052F9904802F03F
:102C300089FB0A218E4802F073FB00218C4802F0C8
:102C400047F93C218A4802F043F94421884802F0C0
:102C50003FF94621864802F03BF9854802F072FBB5
:102C60000A21834802F05CFB0021814802F030F920
:102C700024217F4802F02CF901217D4802F028F937
:102C800037217B4802F024F9794802F05BFB794B4D
:102C900077481D680A21002D40F0348102F040FB86
:102CA0002946734802F014F93021714802F010F9F6
:102CB00029466F4802F00CF9A2216D4802F008F98C
:102CC0006B4802F03FFB0A21694802F029FB2946C4
:102CD000674802F0FDF80221654802F0F9F829463C
:102CE000634802F0F5F84321614802F0F1F86048CA
:102CF00002F028FB4FF4C87008F0C4FC0A215C48BD
:102D000002F00EFB00215A4802F0E2F82E2158484A
:102D100002F0DEF81921564802F0DAF81921544879
:102D200002F0D6F8524802F00DFB0A21504802F09A
:102D3000F7FA00214E4802F0CBF804214C4802F08B
:102D4000C7F800214A4802F0C3F82146484802F07B
:102D5000BFF8474802F0F6FA0A21454802F0E0FAC7
:102D60000021434802F0B4F80621414802F0B0F8CF
:102D700001213F4802F0ACF830213D4802F0A8F8AC
:102D80003B4802F0DFFA0A21394802F0C9FA002173
:102D9000374802F09DF80A21354802F099F80021E1
:102DA000334802F095F80021314802F091F830489C
:102DB00002F0C8FA0A212E4802F0B2FA00212C488B
:102DC00002F086F80E212A4802F082F800212848F5
:102DD00002F07EF80821264802F07AF8244802F032
:102DE000B1FA0A21224802F09BFA0021204802F0A1
:102DF0006FF810211E4802F06BF8FF211C4802F00A
:102E000067F83C211A4802F063F8194802F09AFA70
:102E10000A21174802F084FA0021154802F058F8F8
:102E20002221134802F054F87F21114802F050F893
:102E30007F210F4802F04CF80D4802F083FA0A2176
:102E40000B4802F06DFA0121094802F041F82421F3
:102E5000074802F03DF80021054802F039F800214A
:102E6000034802F035F8024802F06CFA0A2103E048
:102E700050530020585100203A4802F051FA0021E6
:102E8000384802F025F82421364802F021F80021C4
:102E9000344802F01DF81421324802F019F8314884
:102EA00002F050FA0A212F4802F03AFA00212D4888
:102EB00002F00EF82A212B4802F00AF800212948D6
:102EC00002F006F80021274802F002F8254802F037
:102ED00039FA0A21234802F023FA0021214801F09F
:102EE000F7FF20211F4801F0F3FF00211D4801F0EA
:102EF000EFFF00211B4801F0EBFF1A4802F022FA15
:102F0000012038BD02F00CFA0021164801F0E0FF64
:102F10003021144801F0DCFF0021124801F0D8FFF5
:102F2000AB21104801F0D4FF0E4802F00BFA0A2141
:102F30000C4802F0F5F900210A4801F0C9FF02210E
:102F4000084801F0C5FF0021064801F0C1FF6321D8
:102F5000044801F0BDFF034802F0F4F9CAE680001E
:102F6000C4B2F3E55053002038B5304B304C10213B
:102F7000054653F82000FFF70DFA2E4802F04EF8F0
:102F80002846FFF7D9FD22782B48114601F0D8FAE0
:102F900023680F2B0CD8DFE803F00C1014181C204A
:102FA00024282C3034383C404408244B244A1A60EE
:102FB00038BD224B234A1A6038BD204B224A1A6082
:102FC00038BD1E4B214A1A6038BD1C4B204A1A607E
:102FD00038BD1A4B1F4A1A6038BD184B1E4A1A607A
:102FE00038BD164B1D4A1A6038BD144B1C4A1A6076
:102FF00038BD124B1B4A1A6038BD104B1A4A1A6072
:1030000038BD0E4B194A1A6038BD0C4B184A1A606D
:1030100038BD0A4B174A1A6038BD084B164A1A6069
:1030200038BD064B154A1A6038BD00BF14FAFF1FA1
:1030300000FAFF1F50530020405100205C51002037
:10304000BD549341103377C0993918C0BE0D68BF85
:10305000CE71153F8D090340CCC9624009A7A3403A
:103060007DDBD140C416014154FC1741D0E830410A
:10307000195546419FAB5F41A04176415E2E864186
:103080003021014806F098BAC051002038B50446F6
:103090000D463148012106F0CDFA2AB200212E4812
:1030A00006F0C4FA204605F03BFB01462A4809F029
:1030B0005BFF2D21284806F07FFA204605F00CFB27
:1030C0000146254809F050FF2D21234806F074FAE7
:1030D000204605F0EFFA01461F4809F045FF02229D
:1030E0001E491D4809F02CFF204605F007FB092862
:1030F00003DC3021184806F05FFA204605F0FEFA9E
:103100000146154809F030FF204605F0AFFA0122CC
:1031100005461349104809F013FF092D03DC30213F
:103120000D4806F049FA29460B4809F01DFF2046D4
:1031300005F0AEFA012204460949074809F000FFEC
:10314000092C03DC3021044806F036FA21460248F7
:10315000BDE8384009F008BFC051002020650100DB
:10316000346501002DE9F041A44D2C682CB1012CEF
:1031700000F0A08030BFBDE8F08108F005F9A04F55
:10318000DFF8EC8238609F489F4E07F033F801214A
:103190009C4806F055FA02219A4806F04BFA22465E
:1031A0002146984806F042FA0A229849954809F0C3
:1031B000C7FE944809F052FF0121924806F03AFAFE
:1031C000122221468F4806F031FA052290498D4897
:1031D00009F0B6FED8F800108A48013109F0C4FEA3
:1031E00001228C49874809F0ABFED8F800208A4BB1
:1031F000844853F8221023460A2209F07FFF3068E2
:103200002821FFF743FF37213868FFF73FFF7D484C
:1032100007F02CFA33683A68591E914209DCDFF84E
:10322000548298F8001021B17C490968002940F0C7
:1032300086809A423ADB7A4F3C68002C64D0022C9C
:1032400000F0AA810D217748774C09F0B7F977484B
:1032500009F004FF764B774A774930681B6812689B
:10326000096803441A4401293260236000F0918107
:103270000E21724809F0A2F908F086F8FEF7EAFE7E
:103280000B216F4809F09AF92068FEF7E3FE0B2145
:103290006C4809F093F93068FEF7DCFE0123AE219B
:1032A00058482B6006F0AEFFFEF76EF82C68012C34
:1032B0007FF460AFFDF782FC042008F099F9044622
:1032C000032008F095F90CB9002849D05E4C5F4BFB
:1032D00022681B689A42FFF64DAF564B1E68002EBF
:1032E00040F0CA805A4802F06DFAFEF7CDF8FDF7BB
:1032F00049FD58482660FDF7E1FA574B1888FDF75D
:10330000C1FA30BFBDE8F0810A21544802F008F844
:103310002146524801F0DCFD0E21504801F0D8FD55
:1033200021464E4801F0D4FD0A214C4801F0D0FD61
:103330004A4802F007F84FF0FF333B6082E7012173
:10334000052008F031F9C82008F09CF92146052035
:1033500008F02AF901213A68336888F8001068E714
:10336000394B3F4C1B683F4D39485B02002203F14B
:1033700024061146A362A5F8B421666002F074FD2C
:1033800021462C22324802F05FFE314802F01AFA40
:10339000224B1B68002B40F0BE8001233C220221FF
:1033A000184807F059F8642008F06CF9154806F041
:1033B00021FF0121134806F043F90221114806F0CC
:1033C00039F9002211460F4806F030F90722264944
:1033D0000C4809F0B5FD0B4809F040FE01210948F1
:1033E00006F028F910222149064809F0A9FD0548F0
:1033F00009F034FE034807F039F9FEE7100A00200F
:10340000F44E0020C0510020FC4E00202465010035
:1034100030650100FC650100145200205851002065
:1034200054FAFF1F386501005451002090FFFF1F20
:103430003CFAFF1F48FAFF1FFC51002048650100BD
:103440005865010064650100044F0020F851002018
:10345000540A00208C650100C854002050530020FD
:103460007C520020084F0020706501007865010043
:1034700068520020014F0020FDF750FCFEF704F8D1
:10348000494B4A4E1C684A4F07F07EFF494A4A4B57
:103490001268201A841A24EAE47483FB0423234468
:1034A000E017C0EBE3200AF01DFD0AF041FB0BF032
:1034B0002FF8424B424A306003FB004482FB043247
:1034C00022448046E017C0EB62100AF00BFD0AF0C0
:1034D0002FFB0BF01DF80201131A821A04EB820471
:1034E0009B004FF4616202FB08333C60DFF8EC8024
:1034F0001C44092CC8F8000013DC324B1B686BB964
:1035000001233C220221304806F0A6FF00232B6055
:1035100030BFBDE8F081FEF76BF83EE7FEF752F8EA
:10352000EEE7284C0021022008F03EF8FFF770FA81
:1035300023680BB1FEF75CF82448FDF7BFF931684A
:10354000234809F011FDD8F80010214809F00CFDBE
:103550003868FDF797F909F035F9642008F092F81A
:103560003B7898F8002031781A4804F017FF1A4881
:1035700004F0DAFC0121022008F016F84FF49670EE
:1035800008F080F823680BB1FEF708F8FFF774FA2B
:10359000B6E7FEF7A5FD6BE60B210E20FFF714FA48
:1035A0004FF0FF333B604DE6FC4E00200052002000
:1035B0001052002004FAFF1FC5B3A291F0F1FFFFE3
:1035C0008988888858510020C051002098650100E2
:1035D00090FFFF1FE4500020140A002090510020AB
:1035E0002DE9F04F87B0FEF711FE07F0CDFE964BA8
:1035F000DFF8A49218609548954F964DDFF89C82AD
:1036000006F0F8FD0121914806F01AF802218F48D2
:1036100006F010F8002211468C4806F007F8082240
:103620008D498A4809F08CFC0121884806F002F88F
:1036300010220021854805F0F9FF122287498348AE
:1036400009F07EFC814809F009FD0721844801F05A
:1036500099FF0E21824801F0F3FF0C21804801F010
:10366000C1FFCA460024002345F8043B7D4809F009
:10367000F5FC7C4809F0F2FC013405217A4808F099
:103680009DFF2146774809F06FFC764809F0E6FC7B
:1036900021466E4809F068FC042274496B4809F021
:1036A0004FFC6A4806F0E2FF5AF8042B7049D2B288
:1036B000A1F10C004FF0384303F028FF58BB1C2148
:1036C0006C4808F07BFF674809F0C8FC06226A498D
:1036D0005E4809F035FC5D4809F0C0FC5B4806F027
:1036E000C5FF042CBFD15A4C99F8002004F58C6515
:1036F000284604F26C414FF0384303F007FF0028DE
:1037000040F0CE800B225D49504809F019FC4F482B
:1037100006F0ACFFFEE75A4800F124033B6002F0DC
:1037200051F801214A4803F0F5FD014600287AD0FE
:10373000DFF84CB1ABF23C41584602F07BFA00286E
:10374000BDD097F83C3413F0700FB8D0ABF23C40CA
:10375000C8F800B003F042FD08210646494808F0C9
:103760002DFF31463F4809F0FFFB3E4809F076FC4B
:1037700030460BF01FF844490BF070F806463879D4
:103780000BF018F8014630460BF068F80BF052FACF
:1037900006460BF1240004F0B1F80BF007F83A49A3
:1037A0000BF05CF80BF046FA0A218346374808F024
:1037B00005FF594600230A222A4809F09FFC2948A0
:1037C00009F04CFCC72E8CBFC83E0026112145F8DD
:1037D000046C2F4808F0F2FE55F8041C2148002321
:1037E0000A2209F08BFC1F4809F038FC002355F829
:1037F000041C16480A2209F081FC012225491348BD
:1038000009F09EFB594600230A22104809F076FC75
:103810000E4809F023FC0D4806F028FF4FF47A709B
:1038200007F030FF5DE70A4803F074FD00283FF41D
:1038300046AFDFF84CB0ABF23C41584602F0FAF923
:1038400000287FF47EAF3AE7784A0020C05100207C
:103850007C4A00206C520020AC650100B865010074
:103860005CFAFF1F90FFFF1F30650100CC6501006F
:10387000E84E0020AC660100CC660100D466010071
:10388000B84E0020D4650100BD37063AE06501005E
:10389000EC650100006601006051002068530020C3
:1038A00004F23C40256001F08DFF0121204603F029
:1038B00031FD0146002800F07883A64C04F23C4517
:1038C0002846214602F0B6F900283FF41BAF94F8D1
:1038D0003C3413F0700F3FF415AF9F4EC8F8005002
:1038E000FEF766F832689D4B9A4201D93C2333605B
:1038F0009B4F9A4B3A689A4284BF3C233B60994B5A
:103900001B78172B02D9974A00231370964B1B780C
:103910003B2B02D9944A00231370944B1B78172B2E
:1039200002D9924A00231370DFF88092DFF8808278
:1039300099F800303B2B84BF002389F80030D8F879
:103940000030012B84BF0023C8F80030884B1B686F
:10395000052B02D9864A06231360864D864C082023
:1039600007F046FE20BB2B6801332B6002E00A20E3
:1039700007F088FE082007F03BFE0028F7D0D8F8B3
:1039800000302A68B3FA83F10B2A4FEA5111D8BFED
:103990000021002940F00683A3F10103B3FA83F369
:1039A0000F2A4FEA5313D8BF0023002B40F0FA82AE
:1039B000724806F01FFC0121704805F041FE02210B
:1039C0006E4805F037FE002211466C4805F02EFEC9
:1039D00007F0DAFC6A4B20601A682B68821A0292A0
:1039E0000F2B29D8DFE813F032021902D10292021C
:1039F000DB019D0164012601E8009D0083006B004E
:103A00005F0053003C0010003B22002199F80000A9
:103A1000DFF898A1FEF7F4F85A4989F80000072268
:103A2000564809F08DFA99F8001009292ADD534803
:103A300000230A2209F062FBFEF75AF907F0A4FC02
:103A40003721FFF723FB4D4806F010FE0A2007F050
:103A500019FE029BB3F5167F81DD07B0BDE8F08F3C
:103A6000424B1722002118789A46FEF7C9F84649BA
:103A70008AF800000722414809F062FA9AF800101B
:103A80000929D4DCFFF7FCFA9AF80010CFE7364B8F
:103A90003B22002118789A46FEF7B2F808228AF8ED
:103AA00000003A49E7E72F4B1722002118789A4681
:103AB000FEF7A6F808228AF800003549DBE7052260
:103AC00034492E48DFF8E8A009F03AFA0122002133
:103AD000D8F80000FEF794F8C8F80000002800F0BD
:103AE00077820128A8D12C48FCF7DAFEA4E7DFF89A
:103AF000C4A008229AF800000121FEF781F80522EF
:103B00008AF8000025491D4809F01AFA9AF80010B1
:103B10001A4800230A2209F0F1FA184809F09EFA1F
:103B20008AE7134B002106221868FEF769F81C4B40
:103B30000F4A106053F820000AF03CFE19490AF0C1
:103B400041FF0AF0E1F902460B460C48164909F01C
:103B5000C7FA71E77C4A00203CFAFF1FA0860100EB
:103B600048FAFF1F3C0A00206452002094510020B4
:103B700030FAFF1FE0500020F44E0020C05100201A
:103B8000784A0020A46601009C660100906601004E
:103B90008466010064660100746601007C660100B1
:103BA00014FAFF1F00007A4458660100004F0020FD
:103BB000FC51002038FAFF1F04F06AFDDFF824B33F
:103BC000DFF824A3CBF800003B220021FEF718F811
:103BD000DBF80030CAF8000098421DD0206804F0DD
:103BE0008DFD8346206804F041FD05902068DAF8D9
:103BF00000A004F05FFD0490206804F06DFD0390C8
:103C0000206804F08DFD039A00920190049B0599B1
:103C100052465846FDF7D4FF0722A849A84809F0A4
:103C20008FF907F0B1FB04F033FD0146A44809F019
:103C30009BF901E704F01AFDDFF8B0B2DFF8B0A29B
:103C4000CBF800003B220021FDF7DAFFDBF8003063
:103C5000CAF8000098421DD0206804F04FFD83464A
:103C60002068DAF800A004F013FD0590206804F045
:103C700021FD0490206804F02FFD0390206804F0DB
:103C80004FFD039900910190049B059A51465846B7
:103C9000FDF796FF07228B49894809F051F907F093
:103CA00073FB04F0E3FC0146854809F05DF9C3E6C7
:103CB00004F024FDDFF83CB217220021CBF800000D
:103CC000FDF79EFFDBF80030984282461BD020684B
:103CD00004F0CCFC8346206804F0DAFC05902068F0
:103CE00004F0E8FC0490206804F0F6FC03902068DF
:103CF00004F016FD039900910190049B059A594622
:103D00005046FDF75DFF05226F496D4809F018F92F
:103D100007F03AFB04F0F2FC0146694809F024F987
:103D20008AE604F0C7FCDFF8D0B1DFF8D0A1CBF809
:103D300000001F220121FDF763FFDBF80030CAF805
:103D4000000098421DD0206804F0D8FC834620680B
:103D500004F08CFC0590206804F09AFC0490206824
:103D6000DAF800A004F0B8FC0390206804F0D8FC56
:103D7000039B009301905346049A05995846FDF71A
:103D80001FFF042251494E4809F0DAF807F0FCFA07
:103D900004F090FC01464A4809F0E6F84CE604F0CD
:103DA0009BFCDFF85CB1DFF85CA1CBF800000C22D3
:103DB0000121FDF725FFDBF80030CAF8000098422A
:103DC0001DD0206804F09AFC8346206804F04EFC65
:103DD0000590206804F05CFC0490206804F06AFC04
:103DE00003902068DAF800A004F09AFCCDF800A057
:103DF0000190039B049A05995846FDF7E1FE0622BF
:103E000033492F4809F09CF807F0BEFA04F064FC2F
:103E100001462B4809F0A8F80EE645F26042012160
:103E20003068FDF7EDFE2B4930600422244809F08C
:103E300087F83168224809F097F80122264920487E
:103E400009F07EF81E4809F009F9F5E5DFF8B8A099
:103E50009AF80030002B40F0B0800A221F49184821
:103E600009F06EF8042007F0C3FB8246032007F038
:103E7000BFFBBAF1000F7FF4DFAD00287FF4DCADAB
:103E8000FDF720FFFEF724FA1548FCF709FD0C4862
:103E900006F0ECFB40F2DC5007F0F4FBFDF728FFE6
:103EA00007F072FA3721FFF7F1F8054806F0DEFB5C
:103EB0000A2007B0BDE8F04F07F0E4BB50660100F0
:103EC000C0510020486601004066010038660100CC
:103ED00030660100AC6401001C660100046601004C
:103EE000106601003052002028510020745100203B
:103EF000F04E00200C0A0020DC500020245100204D
:103F0000605200202C510020F84E002004F008FCE4
:103F1000DFF8E0B0DFF8E0A0CBF8000040F63402B4
:103F20004FF4FA61FDF76CFEDBF80030CAF80000D0
:103F300098421CD0206804F0E1FB8346206804F01E
:103F400095FB0590206804F0A3FB0490206804F022
:103F5000B1FB0390206804F0BFFBDAF80030049A4C
:103F600005998DE80900039B5846FDF729FE0522B7
:103F70001A491B4808F0E4FF07F006FA04F0D0FBEA
:103F80000146174808F0F0FF56E5164A3868002148
:103F9000FDF736FE144938600422114808F0D0FFBE
:103FA000396847E700232B6002E5204603F0B2F9A9
:103FB00000287FF482ACFFF7A5BBFEF789F94FF02C
:103FC00000038AF8003007F0DFF9084B186044E777
:103FD0000748FCF765FCDAF8000082E52866010076
:103FE000C05100208051010020660100784A002065
:103FF0006C660100400A0020705100202DE9F04F4E
:104000008FB072B6C649C74BC74841250E248022DF
:104010000D70047019461A700B78C24A1806FBD549
:10402000C24BC3481D78C34CC3490570033B247879
:1040300009781B78C3704470817062B672B6B84953
:10404000B94C41260F2580230E7025701146137040
:104050000B781B06FCD5B54CB649B74AB74B24784C
:10406000097812781B78C37104714171827162B64C
:10407000B34BB44FB44EDFF8289300240F21152220
:104080000A254FF014084FF4FA705960DA601D6089
:10409000C3F8088007F0F6FA64203C6007F0F2FAF3
:1040A0004FF430533B60642007F0ECFA4FF4345384
:1040B0003B60642007F0E6FA2A463168A3482346AD
:1040C00009F01CF8A14808F0C9FF4FF47A7007F016
:1040D000D9FA2A4631689D48234609F00FF89B48D3
:1040E00008F0BCFF4FF47A7007F0CCFA2A4623465A
:1040F00031689648964D09F001F8944808F0AEFFF3
:10410000944800F08BFF2146102007F07FFA2046EC
:1041100006F0FEFD0121022007F078FA01210220BD
:1041200007F042FA0121052007F070FA012105206D
:1041300007F03AFA4FF4FA6007F0A4FA2146052096
:1041400007F032FA844B0122214605201A7007F04D
:104150002BFA824B1B680021012B4FF0040008BF93
:10416000C9F8008007F052FA0021032007F04EFA48
:104170000021082007F04AFA0121042007F014FA70
:104180000121032007F010FA0121082007F00CFAA2
:1041900007F0FAF8724B2860984240F3A38101239C
:1041A0003C2202216F48704C06F056F98C2007F033
:1041B00069FA6C4806F01EF801216A4805F040FAD9
:1041C0000221684805F036FA00221146654805F0DC
:1041D0002DFA0A226549634808F0B2FE614808F0EA
:1041E0003DFF604806F042FA5E4806F003F8012100
:1041F0005C4805F025FA02215A4805F01BFA002216
:104200001146584805F012FA0A225849554808F054
:1042100097FE544808F022FF524806F027FA6E2114
:10422000534808F01FFBFFF7DBF9524A524B166860
:1042300053F826000AF0BEFA20603046FEF794FEDE
:104240004E4801F0BFFA4E490EAE01F23C4001F07B
:10425000F1FC4C4B46F8343D00238DF814308DF8BA
:1042600015308DF808308DF81030474A4349462301
:1042700005A84FF47A77039701F05CFC9DF81430A1
:1042800053B12922414905A801F0DEFE304608F06D
:10429000E5FE05A801F096FA32483D4FDFF804A18B
:1042A00005F0A8FF01212F4805F0CAF902212D4889
:1042B00005F0C0F9002211462A4805F0B7F93B681D
:1042C0003C2B07DDB3F5967FD4BF3C234FF49673A8
:1042D000CAF8003007F058F8DFF8CC802D49DAF83A
:1042E00000302D4ED8F80020096890FBF3FE2860BE
:1042F00003FB0E332948336001291344036000F0A7
:10430000F58010460AF056FA2168DFF8A0A0DFF821
:10431000A0B00AF0A3FA4FF06E510AF09FFA49E0FC
:104320000700024000000240060002400B0002406D
:104330004C5100200A0002400900024008000240DF
:104340006051002010D0034000D0034090FFFF1FB9
:10435000F44E002050530020014F002058510020FF
:104360007FC18556C05100200C520020E06601003C
:104370000082FF1F30FAFF1F14FAFF1FB84E002003
:104380007C4A0020686201000C630100B0630100F8
:1043900048FAFF1FFC510020FC4E00205451002021
:1043A00004FAFF1F34FAFF1F3CFAFF1FF8510020E8
:1043B000005200204FF074510AF050FA09F0A4FDA9
:1043C00009F02EFB00224C4B09F0F2FD0AF0A0F898
:1043D0003A68D9F80040494BCAF80000141B24EA97
:1043E000E47983FB09234B444FEAE970C0EBE320F7
:1043F00009F078FD09F09CFB0AF08AF8404C414B2B
:10440000CBF8000004FB009483FB04232344E01753
:10441000C0EB631009F066FD09F08AFB0AF078F83A
:10442000DFF80CA1DFF80C910346A0EB001004EBC1
:10443000800410213448C9F80030CAF8004008F060
:10444000BDF8DBF80010314808F08EFDD9F80010F7
:104450002E4808F089FDDAF800102C4808F084FD99
:104460002A4808F0FBFD0821294808F0A7F8D8F8E9
:104470000010264808F078FD244808F0EFFD0821D8
:10448000244808F09BF83968204808F06DFD1F4863
:1044900008F0E4FD0E21204808F090F82868FDF7A8
:1044A000D9FD0C211D4808F089F83068FDF7D2FDD0
:1044B00033682C681A481C1B152108F07FF8214628
:1044C000124808F051FD114808F0C8FD1549164B77
:1044D00000204FF0FF3208601A60FCF7D5FF0FB0E4
:1044E000BDE8F08F114806F055FF58E6FDF7F8FDDE
:1044F000D8F8002005E700BF00004040C5B3A291F6
:10450000F0F1FFFF898888889865010090FFFF1F00
:10451000EC660100F86601004865010004670100CF
:1045200014670100100A00202C52002080C185561B
:10453000105200209051002000207047002070474A
:1045400038B50F29114C28BF0F210F2A28BF0F2281
:104550000D46017A204642EA051500F00BFE204682
:10456000002100F0B5FC2046202100F0B1FC2046DF
:10457000002100F0ADFCE9B2204600F0A9FC204685
:1045800000F0E0FEB0FA80F0400938BD5053002042
:10459000F8B5C34C012605460671204600F03EFDE5
:1045A000052007F06FF8297A204600F0E3FD204649
:1045B000002100F08DFC2046302100F089FC2046CF
:1045C000402100F085FC6021204600F081FC20465F
:1045D00000F0B8FE297A204600F0CCFD20460021EC
:1045E00000F076FC2046262100F072FC20460021D7
:1045F00000F06EFC6C21204600F06AFC204600F0C2
:10460000A1FE297A204600F0B5FD2046002100F0E9
:104610005FFC2046282100F05BFC3146204600F07C
:1046200057FCF221204600F053FC204600F08AFEA1
:10463000297A204600F09EFD2046002100F048FC2B
:1046400020462C2100F044FC20460F2100F040FCC5
:104650002221204600F03CFC204600F073FE297A1F
:10466000204600F087FD2046002100F031FC204666
:104670003C2100F02DFC2046442100F029FC46217D
:10468000204600F025FC204600F05CFE40F2371387
:10469000EB80297A204600F06DFD2046002100F0D5
:1046A00017FC2046242100F013FC3146204600F080
:1046B0000FFC3721204600F00BFC204600F042FEA4
:1046C000297A204600F056FD2046002100F000FC2B
:1046D0002046302100F0FCFB2046402100F0F8FB92
:1046E000FF21204600F0F4FB204600F02BFE297A43
:1046F000204600F03FFD2046002100F0E9FB204667
:10470000022100F0E5FB2046002100F0E1FB7321CF
:10471000204600F0DDFB204600F014FE4FF4C87088
:1047200006F0B0FF297A204600F024FD2046002143
:1047300000F0CEFB20462E2100F0CAFB20461D21B2
:1047400000F0C6FB1D21204600F0C2FB204600F011
:10475000F9FD297A204600F00DFD2046002100F0E9
:10476000B7FB2046042100F0B3FB2046002100F0F7
:10477000AFFB0421204600F0ABFB204600F0E2FD39
:10478000297A204600F0F6FC2046002100F0A0FB2C
:104790002046062100F09CFB3146204600F098FBA5
:1047A0003021204600F094FB204600F0CBFD297A12
:1047B000204600F0DFFC2046002100F089FB204667
:1047C0000A2100F085FB2046002100F081FB10212A
:1047D000204600F07DFB204600F0B4FD297A2046FB
:1047E00000F0C8FC2046002100F072FB20460E219C
:1047F00000F06EFB2046002100F06AFB00212046FD
:1048000000F066FB204600F09DFD297A204600F06E
:10481000B1FC2046002100F05BFB2046102100F097
:1048200057FB20463C2100F053FB3C21204600F082
:104830004FFB204600F086FD297A204600F09AFCC6
:104840002046002100F044FB2046222100F040FBDE
:1048500020467F2100F03CFB7F21204600F038FB02
:104860003627204600F06EFD297AEF80204600F0C2
:1048700081FC2046002100F02BFB2046242100F083
:1048800027FB2046002100F023FB3946204600F09C
:104890001FFB204600F056FD6E723046F8BD00BF8B
:1048A000505300200B462DE9F04145490546184676
:1048B00009F0D4FF434909F0C9FE0AF0BBF90446E8
:1048C00000284CD080281FD92B79002426462BBBEA
:1048D000297A3D4800F04EFC00213B4800F0F8FAF0
:1048E0002221394800F0F4FA3146374800F0F0FA56
:1048F0002146354800F0ECFA334800F023FDB0FAC9
:1049000080F04009BDE8F081C0F180042B7944EAD1
:104910000424C4F30726E4B2002BD9D0EF88297A07
:10492000294827F010074FF00008EF8085F8048031
:1049300000F020FC4146244800F0CAFA2421224815
:1049400000F0C6FA390A204800F0C2FA07F0EF0179
:104950001D4800F0BDFA1C4800F0F4FCB8E7012344
:104960002B71297A184800F005FC2146164800F002
:10497000AFFA2221144800F0ABFA7F21124800F070
:10498000A7FA7F21104800F0A3FA0F4800F0DAFCE4
:10499000EE88297A0C4846F01006B6B2EE8000F098
:1049A000E9FB2146084800F093FA2421064800F06C
:1049B0008FFA310A044800F08BFAF1B299E700BF90
:1049C00000000143EE7CFF3E5053002070B50546C9
:1049D0000C4619B101293BD0002070BD017A424834
:1049E00000F0C8FB2146404800F072FA20213E4802
:1049F00000F06EFA21463C4800F06AFA55213A4828
:104A000000F066FA384800F09DFC06460028E3D125
:104A1000EC88297A344844F00404A4B2EC8000F015
:104A2000A9FB3146304800F053FA24212E4800F00B
:104A30004FFA210A2C4800F04BFAE1B22A4800F064
:104A400047FA294800F07EFCB0FA80F0400970BDBA
:104A5000017A254800F08EFB0021234800F038FA47
:104A60002A21214800F034FA21461F4800F030FA8C
:104A700073211D4800F02CFA1B4800F063FC04462B
:104A80000028A9D1297A184800F074FB214616485D
:104A900000F01EFA2021144800F01AFA21461248AC
:104AA00000F016FA8821104800F012FA0E4800F0C3
:104AB00049FC044600288FD1EE88297A0A4826F05E
:104AC0000406EE8000F056FB2146074800F000FA8D
:104AD0002421054800F0FCF9310A034800F0F8F9F8
:104AE00006F0FB01AAE700BF5053002010B50446B2
:104AF00008F09CF8204610BD024A034903480AF01A
:104B000067BA00BFFCF9FF1FED4A0000A852002061
:104B10001B4A1C4B11681C48096970B499421279F0
:104B2000027009D2194A127832B3194A4FF0804103
:104B3000116003F5807402E01C46A3F58073154AEA
:104B4000154912680D68AAB1A5B1144E30884028E5
:104B500010D841000A4440302944023202313080EA
:104B600033F9040B22F8020F9C4233F9020C21F8AE
:104B7000020FF5D870BC704703F58074DFE700BF03
:104B8000B8520020B8F2FF1F1F800040B252002030
:104B900008E200E0C0520020B4520020B0520020D1
:104BA000F8B5064607F08EFE0446E8B107F08AFE27
:104BB000054600283AD072B61F4B1A887F2A19D8AA
:104BC000002C31D01D490A6842B162B6204607F078
:104BD000CDFE2846BDE8F84007F0C8BE18480C6076
:104BE0001A80056062B6F8BD054672B6124B1A8887
:104BF0007F2AE5D9114A12491768146000220C680F
:104C00001A800D6062B63946304607F0D9FE384644
:104C100007F0ACFE30462146012207F0D1FE2046C7
:104C2000BDE8F84007F0A2BE62B6F8BD204607F026
:104C30009DFE2C46BFE700BFB0520020C0520020AE
:104C4000B4520020F8B5284C284E2046012107F028
:104C50004FFF00F083F8264B264A27484FF4806127
:104C60001960236800211A6099802279186102F185
:104C7000804202F5043240F20110D8809E614FF468
:104C80008075022006278E26DD82D960DD8398603C
:104C90009F8398821170167007F0D0FE1749184B49
:104CA0002279184F08701A7039682279164C174DFE
:104CB000174E41F0124141F00101531139609B0040
:104CC000206803F1604302F1100703F5614302F02D
:104CD0001F02012140F0104001FA02F2206045F865
:104CE00027601A60F8BD00BFB852002000FEFFFF29
:104CF00014B00440A0F00240B8F1FF1FB2520020EF
:104D00001B80004080F0024000F0024000F4FF1FD2
:104D1000114B0000024A034903480AF059B900BF89
:104D2000FCF9FF1FED4A0000B8520020024A034977
:104D300003480AF04DB900BFFCF9FF1FED4A00001F
:104D4000C4520020024A034903480AF041B900BF97
:104D5000FCF9FF1FED4A0000CC520020284B2949E6
:104D60001A68294842F400421A600A6842F00202B6
:104D70000A601A6842F002021A600368002B3DDBE9
:104D8000224B1B68002B39DB214A4FF0864313600E
:104D90001368002BFCDBF0B51E4C1F48DFF8ACE0BD
:104DA0001E491F4B1F4A204F204E214D47F2320C07
:104DB000C4F800C0002404600120CEF80000DFF831
:104DC00090E0C1F800E04FF480311960194B136096
:104DD000DFF880E0184A3A60346028601748CEF85F
:104DE0000000174CB9671748174946F8503C4FF474
:104DF000C0632A61236003600B60F0BD704700BF91
:104E00003C8004404080044000F0024080F00240BA
:104E100000F1024004F1024060F0024008F002405C
:104E20000CF0024010F0024014F00240E0F00240AA
:104E300084F002401B0F0100000F0F0F030000471A
:104E400008B004400CB0044018B0044004F0024024
:104E50000300000788F00240024A034903480AF0B1
:104E6000B7B800BFFCF9FF1FED4A0000D452002084
:104E7000024A034903480AF0ABB800BFFCF9FF1F20
:104E8000ED4A0000DC520020024A034903480AF0C0
:104E90009FB800BFFCF9FF1FED4A0000E45200205C
:104EA000024A034903480AF093B800BFFCF9FF1F08
:104EB000ED4A0000EC520020024A034903480AF080
:104EC00087B800BFFCF9FF1FED4A0000F452002034
:104ED0000A4B1B7813B90A4B1B786BB1094A13783C
:104EE000202B07D810B4581C074C1070E154012037
:104EF00010BC7047012303710020704762530020EB
:104F0000255300206353002004530020704700BF46
:104F1000024A034B10781B78C01A70476153002077
:104F200060530020064A074913780978994204D94A
:104F30000548591CC05C117070474FF0FF30704736
:104F4000605300206153002028530020054B064A7F
:104F50001B7812789A4286BF044AD05C4FF0FF302B
:104F6000704700BF60530020615300202853002089
:104F700070B50D4B1B78144613B90C4B1B788BB1D5
:104F80000B4E3578C5F12103A34202D201221C4603
:104F90000271084822462844254405F00DFD35706D
:104FA000204670BD184670BD625300202553002076
:104FB0006353002004530020124BDB7803F02003DE
:104FC0004BB1114A13780133DBB2012B137012D9A4
:104FD000122006F095B910B5122003F0FF0406F078
:104FE0008FF90A4B1B685BB109490A4A0C701078AB
:104FF000BDE810401847084B1B78002BE8D07047DD
:1050000010BD00BF006006404C530020005300203C
:105010006053002061530020255300200D4A0E4BA1
:10502000F0B500200D4C10702268DFF838E00C4F0E
:1050300042F0400222604FF41971282603252024F3
:1050400080229870CEF8001039605E709D715C719E
:105050009A70F0BD25530020006006403480044063
:1050600008A004400CA0044010B5384CE378DBB233
:10507000D80623D510225906E2701ED503F004038A
:1050800003F0FF02002B33D0314B32491A68324C07
:1050900000230B702370002A3BD090472378002B0D
:1050A00037D02E4B1B78294A2D49D0249470137188
:1050B000264B012002220870DA7010BD5A06DDD49A
:1050C000A27802F0100202F0FF0042B313F00103D5
:1050D0001BD1234920480A780078904281BF1F4B9A
:1050E000501C9B5C08702371184BD0229A7008E00A
:1050F0001C48164B174902700120C02208709A7094
:105100001B79124B0222DA7010BDC023A3702379E1
:10511000F7E71249002301220B702270C3E7124BFC
:10512000124918700322122006F06AF80D492379FB
:105130000A781F2ADBB2E4D8064800780028E0D0BD
:105140000B4C501CA3540870DBE700BF0060064006
:1051500048530020FC5200206353002004530020D9
:1051600064530020615300204C530020B94F0000CD
:10517000285300200548064A10B40123054C03704B
:1051800049001370217010BC704700BF62530020AB
:1051900063530020045300202DE9F043594C12239F
:1051A000E370A37803F0200383B0002B55D0B42321
:1051B000DFF86881A370D8F80030524D1C460020FB
:1051C000EA78D2B29A421CBF1446012096061346D2
:1051D000F6D5002840F08C804B4B1B78002B33D049
:1051E00003F1FF3E5FFA8EFE0026D8F80040474FDD
:1051F000444D0EF1010E30464FF0020C17F8013FFE
:105200002B715FFA86F902E013F0200F09D0EB78DA
:10521000DBB293421CBF1C46012013F0020F1A465A
:10522000F2D085F803C0EA78D2B293421CBF14468C
:105230000120D30633D4930631D5D30744D40136A5
:105240007645DBD100284AD1002000292ED1304BF1
:1052500000221A7003B0BDE8F0832E4DDFF8BC8049
:1052600003F0FF022B680093009ED8F8000005E0D1
:105270002B680193019B9B1B0F2B1BD8E378DBB2A0
:10528000834218BF012213F0200F1846F0D192BBC1
:1052900021481C4B0024B02204709A708BE708BB95
:1052A000184B80229A7004200029D0D0154B802200
:1052B0009A70CCE7CAB9134B002180220420997060
:1052C0009A7003B0BDE8F083C0B90E4BB9F1000F7E
:1052D0004FF080020CBF022003209A70B7E7C8F895
:1052E0000040B1E7C8F80040DAE7C8F80000E2E79C
:1052F000C8F8004070E7C8F80030C9E7C8F80040B7
:10530000E3E700BF00600640635300200353002022
:1053100062530020C45300202553002058FAFF1F79
:105320000548064A10B40123054C03704900137068
:10533000217010BC704700BF6253002063530020EF
:10534000045300200121FFF727BF00BF044B054A8B
:105350001A604FF47A71002299601A711A737047BB
:10536000505300205C67010010B4047F4160022CA0
:10537000C26002D010BC07F073BC836810BC184731
:10538000F0B4464B464A186BDC6A01791170454906
:1053900022790A709A6A00790870002A46D0596802
:1053A000C9688A423ED82168CC8B240402F1FF30C0
:1053B00065D4C0F30E00C883C88B80B2C882196B55
:1053C0000968C88B000452D4C2F30E00C883C88B8E
:1053D000002480B212F1FF32C88218BF01229C6201
:1053E000D96A2E4809680D6800F12404A54236D018
:1053F0000068C46814F0804F0C680D6815BF2488DD
:1054000024780235013544F000440D604463196B83
:10541000254B09791970214912B1CA6A12791A709B
:10542000F0BC7047521A9A620122D9E7586B19688A
:1054300005681E4C0A63CC62CC682D681C4E24F0B3
:1054400080440327B542CC6083F825701FD1037FC9
:105450004260022BC2601ED0F0BC07F001BC0168A4
:1054600090F82400CC6840F000404863CFE7CC8B34
:10547000C2F3080004F47E442043C883A7E7CC8B22
:10548000C0F3080004F47E442043C88394E72B460D
:105490001146F0BC18478368F0BC18475CFAFF1F40
:1054A0001F8000401C8000401B80004000000FFF58
:1054B0006953000090E80C00F0B41C685968256836
:1054C000164F174E29432160164D17491760D660B5
:1054D00015611160417A154A5C180A3194F824402C
:1054E00053F8215002EBC40149680D60017A5C1841
:1054F00003EB8101247ECD6902EBC40149680D6094
:10550000817A581803EB810390F83000596B02EB55
:10551000C002F0BC53681960704700BF01401F0013
:10552000011000380110007800001F80D06D0100CC
:105530004268036805CA10B4046822430260D86850
:10554000840100F0E06205D5080900F4706021F4E0
:1055500070410143D8681143814209D01A68500450
:1055600008D40748186041F08040D96018611A607B
:1055700010BC704741F08042D96010BC1A6170477E
:1055800001401F004268437A134493F824308B4251
:1055900009D0F0B492F824408C4205D092F825400E
:1055A0008C421AD0F0BC704700242146166855681A
:1055B00036682E420FD00A4D05EBC30300275E6804
:1055C0005318376093F8243005EBC3050A316B6834
:1055D00052F821201A604472E4E701242146E5E7ED
:1055E000D06D01004268037A13441B7E8B4207D0C2
:1055F000F0B4147E8C4204D0547E8C421AD0F0BC9D
:105600007047002421461668556836682E420FD030
:105610000A4D05EBC30300275E68531837601B7EF5
:10562000063105EBC30502EB81026B6852681A6014
:105630000472E4E701242146E5E700BFD06D0100D4
:105640004268837A134493F830308B4209D0F0B427
:1056500092F830408C4205D092F831408C421BD0F9
:10566000F0BC7047002421461668556836682E4203
:1056700010D00B4D05EBC30300275E68531837604D
:1056800093F830300C3105EBC30502EB81026B68F7
:1056900052681A608472E3E701242146E4E700BF00
:1056A000D06D010038B590F90230002B044612DBB2
:1056B000A56805F1240001F0FDF928B9637843F0ED
:1056C00001036370002038BD05F50C7001F0F2F99C
:1056D0000028F3D038BD8068A1692430012201F090
:1056E000A3F90028EAD0A38803F00F035B01C518D3
:1056F000E4D0C35CE52BE1D023780B4A1B0744BF01
:10570000E369EB61236A12686B831B0CAB8232B1D5
:1057100005F1160105F1180090472B8B6B82A378D9
:1057200003F07F03A370C3E76C5300202DE9F04121
:10573000037803F020032BB903F0FF044269204BE8
:105740009A4203D900263046BDE8F081837801698A
:10575000054663F07F038068AB7005F1100201F02D
:105760001DFB06460028EDD02969A86801F0CAF99A
:105770000746A86839462430052201F055F98046CD
:105780000028DFD04FF4007221460AF03FF8AB68E2
:105790001A79012A0FD9012403E0AB681A79A242D1
:1057A00009D9E1191868424602F014F90134E4B24B
:1057B0000028F2D1C6E76B6903EB42226A61C2E7B7
:1057C000FFFD1F0038B5037804461BB90023237082
:1057D000012038BD90F90230002B14DBA56805F1DB
:1057E000240001F067F938B9637843F0010363706E
:1057F00000232370002038BD05F50C7001F05AF924
:105800000028F1D0E2E78068A1692430012201F08C
:105810000BF90028E8D0A38803F00F035B01C5183B
:10582000E2D0C35CE52BDFD023780B4A1B0744BFD3
:10583000E369EB61236A12686B831B0CAB8232B1A4
:1058400005F1160105F1180090472B8B6B82A378A8
:1058500003F07F03A370C1E76C5300202DE9F047EC
:105860000D7815F0700F88B003D1002008B0BDE8A6
:10587000F087C32304460D4600F07EFE0028F4D0D6
:105880005D4B6269012610219A42A6702170ECD806
:1058900081236218A3702169A06801F07FFA0028B3
:1058A000E3D02169A06801F02DF90746A0683946C8
:1058B0002430052201F0B8F880460028D5D04FF4F6
:1058C0000072002109F0A2FF08E0F11900684246C9
:1058D00002F080F80136F6B20028C6D0A06802793E
:1058E000B242F2D8636921782669266203EB42232B
:1058F0006361002974D124300122A16901F094F878
:105900000028B2D0A68806F00F0610EB4616ACD0E1
:105910001023F372B26830687168F368B6F81490B7
:10592000B6F81AA06F460FC730697169B269F3699A
:1059300008AE0FC74FF02E084FF02033216AA06841
:1059400006F8208DCDF80530CDF80130ADF80930DE
:1059500001F0D8F8A3680146012203F1240001F008
:1059600063F88646002880D03746ADF81490ADF82D
:105970001AA00FCFCEF80000CEF80410CEF8082001
:10598000CEF80C300FCFCEF81000CEF81410CEF8B1
:105990001820CEF81C302B6A8DF801801A0C354681
:1059A000ADF81A30ADF814200FCD0EF12006CEF868
:1059B00020007160B260F3600FCD30617161B2613F
:1059C000F361A46804F1240001F074F800283FF4A6
:1059D0004CAF04F50C7008B0BDE8F04701F06AB8B0
:1059E00013B10023236163612046FFF75BFE0028AB
:1059F0003FF43BAFA0687EE7FFFD1F002DE9F041BB
:105A0000064692B03478019200208DF824008DF87B
:105A1000250024B90D46097811F0700F03D100203C
:105A200012B0BDE8F081144612782F2A2DD00DF166
:105A3000040803AF002B53D042463946204600F0FD
:105A4000F5FB3A46294601230028E8D0019C24783A
:105A50003046002C61D000F08FFD3A46294620B92F
:105A60003046FFF7FBFE0028D9D035460FCD09ACF4
:105A70000FC40FCD0FC433782A682260002B48D1A1
:105A800000233370019C09ADD6E7013401942278DC
:105A90002F2AFAD0AD680093242209A8002109F02A
:105AA000B5FE0B95EA79009B102A3ED0202AB6D18C
:105AB00040228DF82420012209AD8DF826200DF119
:105AC000040803AF63B1B7E70FCD0FC40FCD0FC408
:105AD00033782A682260C3B90023019C337009AD72
