:1000000000800020BD01000089B1000041B1000066
:1000100041B1000041B1000041B1000041B1000018
:1000200041B1000041B1000041B1000089B10000C0
:1000300089B1000041B10000E9CC000039CF0000D7
:1000400089B1000089B1000089B1000089B10000C8
:1000500089B1000089B1000089B1000089B10000B8
:1000600089B1000089B1000089B1000089B10000A8
:1000700089B1000089B1000089B1000089B1000098
:1000800089B1000089B1000089B1000089B1000088
:1000900089B1000089B1000089B1000089B1000078
:1000A0007D50000089B1000089B1000089B10000D5
:1000B00089B1000089B1000089B1000089B1000058
:1000C00089B1000089B1000089B1000089B1000048
:1000D00089B1000089B1000089B1000089B1000038
:1000E00089B1000089B1000089B1000089B1000028
:1000F00089B100000DD6000089B1000039D7000099
:1001000089B1000065D8000089B1000089B1000004
:1001100089B1000089B1000089B1000089B10000F7
:1001200089B1000089B1000089B1000089B10000E7
:1001300089B1000089B1000089B1000089B10000D7
:1001400089B1000089B1000089B1000089B10000C7
:1001500089B1000089B1000089B1000089B10000B7
:1001600089B10000E1B8000089B1000089B1000048
:1001700089B1000089B1000089B1000089B1000097
:1001800089B1000089B1000089B1000089B1000087
:1001900089B1000089B1000089B1000089B1000077
:1001A00089B1000089B1000089B1000089B1000067
:1001B00089B1000089B1000075CA0000564B4CF2AD
:1001C000205210B51A804DF628121A8000BF00BFC9
:1001D00000F07EFB514B4FF010621A60504A9A605B
:1001E000504ADA60504A136813F4807304D14F49BF
:1001F0000B604FF4A85313604D4B1A78110703D5C9
:100200001A7842F008021A704A4B4B492A221A7097
:100210004A4A4B4B8B4204D252F8040F43F8040B6A
:10022000F8E7484B484900228B4202D243F8042B9E
:10023000FAE74649464A002352F8230041F82300D2
:1002400001336F2BF8D1434B434A802103F8011B44
:100250009342FBD1414B3D4A1A60414B8A221A70AE
:10026000A3F5805324225A70A0221A709A7992071B
:10027000FCD59A79D406FCD43A4A937903F00C035E
:10028000082B384BF9D103221A7140225A719A79FE
:100290009006FCD5334A9179324B4906FBD5324A58
:1002A000324911600221516020221A709A7902F0BD
:1002B0000C020C2AFAD12E4B2E4A1A602E4B2F4AD2
:1002C0001A6000225A60072243F8042C2C4AC3F813
:1002D0000C2D62B60BF07AF8144B1B68DA0705D5C3
:1002E00028480BF061F8284B284A1A60284B1B78E5
:1002F0005B0609D5244C254B22689A4204D121483B
:100300000BF052F8002323600EF078FE0AF040FF55
:100310000DF0DAF8FEE700BF0E2005403080044003
:10032000823F04000100002B10D0034014D0034092
:1003300002D0074000E00740E8090020D873010020
:1003400020F9FF1FE8090020FC56002000F4FF1FE1
:100350000000000000E400E05FE400E008ED00E0E1
:100360000050064000400640448004400000030165
:1003700004800440C010050014E000E0FF76010096
:1003800000002020077BAC5C1CE00340A5C3945A0E
:1003900000F00740FFFFFFFFFFFFFFFFFFFFFFFF32
:1003A000FFFFFFFFFFFFFFFFFFFFFFFFFFFFFFFF5D
:1003B000FFFFFFFFFFFFFFFFFFFFFFFFFFFFFFFF4D
:1003C000FFFFFFFFFFFFFFFFFFFFFFFFFFFFFFFF3D
:1003D000FFFFFFFFFFFFFFFFFFFFFFFFFFFFFFFF2D
:1003E000FFFFFFFFFFFFFFFFFFFFFFFFFFFFFFFF1D
:1003F000FFFFFFFFFFFFFFFFFFFFFFFFFFFFFFFF0D
:10040000FFFFFFFFFFFFFFFFFFFFFFFFDEF9FFFF23
:1004100010B5054C237833B9044B13B10448AFF33E
:1004200000800123237010BDE809002000000000B7
:10043000D4730100084B10B51BB108490848AFF34D
:1004400000800848036803B910BD074B002BFBD0A0
:10045000BDE81040184700BF00000000EC09002074
:10046000D4730100E809002000000000002070475C
:10047000704700BF027C02F0080202F0FF0332B1B5
:10048000C36A406A181A48BF6FF0004070471846A8
:10049000704700BFF8B55548554D564C297803783C
:1004A0002278DFF868E1544F544E120442EA0323E5
:1004B000FF222A700270802022708EF800003870AF
:1004C000B2794F480B4312F00C0FC36002D1B379DD
:1004D000DC063DD4494A9379C3F38103032B40D012
:1004E000464B9A79C2F38102022A42D0434A937959
:1004F000C3F38103022B53D0404A9379C3F38103A2
:10050000022B61D03D4A9379C3F38103012B51D073
:100510003A4A9379C3F38103012B5CD0374B9A7924
:1005200012F00C0F03D19A79D20600D49B79354D85
:10053000354B2A7853F82240D4B1236820469B6873
:1005400098472B7804EB83046468002CF5D1F8BD40
:10055000B3799806EBD5294A9379C3F38103032B2A
:10056000BED19379D906BBD493799B06DFD4B7E784
:10057000F8BD9A79D706B9D49A799606B6D559783E
:1005800001F0020101F0FF020029AFD120211A7011
:100590001A461970937903F00C030C2BFAD1C6E7B5
:1005A0009379DD06A8D493799C06A5D4537898074F
:1005B000BDD5A1E79379DF06AAD593799E06A7D486
:1005C00053789D07B3D4A3E79379D9069AD4537887
:1005D0009B07ACD496E79379DC069FD59379980670
:1005E0009CD453789907A2D598E700BF06C007406E
:1005F00005C0074007C0074009C00740004006404B
:10060000D4560020AC5300206C53002008C0074093
:1006100090F92410104B03604B1C06D0F0B40F4E21
:1006200056F82130984201D0F0BC70470C4F57F873
:10063000213033B18D0000245A1953685460002BC7
:10064000FAD1084C23780022013B237047F821207F
:1006500046F82120E8E700BF8C6201008C5300209F
:100660006C530020AD53002038B590F924506B1C1A
:100670001BD00E4B0E4953F825400E4BEDB24FF0F8
:10068000FF320D701A6084B1AD0002E02C44646842
:100690005CB194F82530002BF8D0236820462C4418
:1006A0001B6898476468002CF3D138BD6C53002058
:1006B000AC530020B8F3FF1F704700BF90F924101F
:1006C000104B03604B1C06D0F0B40F4E56F821308F
:1006D000984201D0F0BC70470C4F57F8213033B12D
:1006E0008D0000245A1953685460002BFAD1084C2D
:1006F00023780022013B237047F8212046F821206F
:10070000E8E700BF8C6201008C5300206C5300208E
:10071000AD53002090F92410104B03604B1C06D001
:10072000F0B40F4E56F82130984201D0F0BC70471B
:100730000C4F57F8213033B18D0000245A195368FB
:100740005460002BFAD1084C23780022013B23701F
:1007500047F8212046F82120E8E700BF8C6201001D
:100760008C5300206C530020AD53002010B50021A5
:1007700004460CF043F9B0B1B4F8B4319BB2C3B144
:10078000B4F8B031B4F8B2219BB20133632BC8BFC7
:10079000002392B2934207D09A1D04EB82029BB2CF
:1007A0005060A4F8B03110BDD4F8B8310133C4F8AA
:1007B000B831BDE810400CF0DDB800BF103005F0D6
:1007C0004DBC00BF00B583B002AB012203F8011D90
:1007D0001030194605F042FC03B05DF804FB00BF81
:1007E000103005F017BB00BF00B583B001220DF13A
:1007F0000701103005F048FA01280CBF9DF80700EA
:100800004FF0FF3003B05DF804FB00BF103005F07F
:10081000D7BB00BF2DE9F0410E4680460AF0BEFD71
:10082000174D286007F086FF0746286807F05EFF2F
:100830000446286807F048FF6401C0B204F4FF547E
:10084000BFB20443A7F2BC7744EA4724A8F80040AB
:10085000286807F05DFF0746286807F011FF044687
:10086000286807F01FFFFF02640107F4FF2704F464
:10087000FF54C0F346003C4304433480BDE8F0819C
:10088000EC4E002038B5054C014620460CF070FBBC
:10089000054620460CF0E6FB284438BD8CFFFF1FC0
:1008A00010B504460FF06CFA21460246BDE8104030
:1008B00001480CF049BB00BFBC51002010B50446F4
:1008C0000FF05EFA01462046BDE810400BF07ABEFC
:1008D000464A474B102010801B781B0734D5F0B5D3
:1008E000444E454D454C31782B782278DFF82CE189
:1008F000434F824042EA03230B43FF2280213270A0
:100900002A7022708EF800103970D9073D4A14D52C
:100910001A2393603C4F3D4E3D4D3E4C3E4910796D
:1009200000233B7053709370D370D3603370137196
:100930002B70237013700870F0BD1F0705D4DE06FE
:1009400006D504239360E5E7704721239360E1E730
:100950009D0604D45C0604D516239360DAE7906004
:10096000D8E7180602D509239360D3E7D90502D545
:100970000A239360CEE79F0502D50D239360C9E754
:100980005E0502D50B239360C4E71D0502D51E2327
:100990009360BFE7DC0402D502239360BAE79804B2
:1009A00002D507239360B5E7590402D50623936067
:1009B000B0E71F0402D515239360ABE7DE0302D531
:1009C00024239360A6E79D0302D522239360A1E729
:1009D000DC0202D5252393609CE71803F5D4590364
:1009E000F3D49B0244BF2323936093E70020054088
:1009F00002D0074005C0074006C0074007C00740B7
:100A000009C00740D456002000C0074001C007407D
:100A100002C0074003C0074004C0074008C00740A9
:100A2000002976D02DE9F04F0C469100631883B071
:100A30005D68002D57D06B185E68002E50D073187B
:100A40005F68002F49D07B18D3F80480B8F1000FFD
:100A50003CD008EB0103D3F80490B9F1000F32D079
:100A600009EB0103D3F804A0BAF1000F27D00AEB79
:100A70000103D3F804B0BBF1000F18D00BEB010356
:100A80005B6863B1194401934968FFF7C9FF019B93
:100A900093F825201AB11A681846536898479BF8AE
:100AA000253023B1DBF8003058465B6898479AF848
:100AB000253023B1DAF8003050465B68984799F842
:100AC0002530002B35D198F8253063BB97F82530B9
:100AD0001BB13B6838465B68984796F82530CBB920
:100AE00095F8253063B994F8253013B903B0BDE803
:100AF000F08F23685B68204603B0BDE8F04F1847CD
:100B00002B6828465B68984794F82530002BEDD079
:100B1000EFE77047336830465B68984795F82530B3
:100B2000002BE0D0ECE7D8F8003040465B689847EF
:100B3000CCE7D9F8003048465B689847C3E700BF68
:100B400090F92420531C26D01B4B2DE9F04153F87B
:100B50002240D2B2ECB19300E1184D68B5B1E9186A
:100B60004E6866B1F1184F6837B13B445968FFF7DA
:100B700057FF97F82530A3B996F8253063B995F853
:100B800025301BB12B6828465B68984794F82530C0
:100B900063B9BDE8F0817047336830465B689847B9
:100BA000EDE73B6838465B689847E5E723682046F1
:100BB0005B68BDE8F04118476C5300202DE9F8430D
:100BC0004F4CB4F8B021B4F8B23192B29BB29A4211
:100BD00038BF6432D31A3F2B67DD4A4DD4F8AC914D
:100BE000DFF81C8105F58047002637E04FF480725E
:100BF000002109F0EBFE48460BF0BCFEC4F8AC61E6
:100C0000B4F8B231B4F8B0219BB292B293424ED054
:100C10000133632B86BF4FF0000E73461FFA83FE2D
:100C2000063304EB83034FF48072D3F80490C4F8C6
:100C3000AC9109F104012846A4F8B2E109F0C6FE1E
:100C4000B9F1000F04D048460BF094FEC8F8AC612F
:100C500005F50075BD424FF0000934D0A5F5807050
:100C6000B9F1000FC2D1B4F8B231B4F8B0219BB2DF
:100C700092B293423DD00133632B86BFCE4673467A
:100C80001FFA83FE063304EB83034FF48072D3F81C
:100C90000490C4F8AC9109F10401A4F8B2E109F0A0
:100CA00095FEB9F1000FABD0A5E7BDE8F883284663
:100CB0004FF48072002105F5007509F087FEBD42F2
:100CC0004FF00009CAD14FF480420F490F4805F098
:100CD000C5F9013005D00E4A136820331360BDE812
:100CE000F883012114200AF0C5F90A4B0A4A1A6058
:100CF000F1E749464FF4807209F068FE80E700BFD3
:100D0000004F0020700B0020700A0020480A0020CD
:100D1000FC4E00200CED00E00400FA0570B5124C0A
:100D2000124D13480D210BF04DFC20460CF09AF9A2
:100D30002E88104810210BF045FC314620460CF05F
:100D400017F920460CF08EF90B4A0C4B12882A80BA
:100D50000B480022A3F8B42104F03EFD6420BDE856
:100D600070400AF095BC00BF8CFFFF1FC4540020E8
:100D7000B0620100C0620100EC540020004F00206E
:100D8000480A00202DE9F04F95B00AF007FBDFF884
:100D90006892884CC9F8000007F0A8FC23689842C4
:100DA00000F067820A218448844E854F0BF00AFCCC
:100DB00084480CF057F9D9F8000007F097FC206040
:100DC000D9F8000007F0B6FC23687F4902467F4847
:100DD0000EF078FF002401237C4A7D49376007A884
:100DE0008DF81C408DF81D4004F012FEDFF8DC8108
:100DF000002110200AF010FC98F8002000232F2A70
:100E00008DF81C308DF81D3000F0B68107AC2046FF
:100E100001236E4A6E4904F097FE58B19DF81C30CC
:100E200013F0700F06D00FCC694D0FC50FCC0FC556
:100E300023682B60D9F8000007F07CFC0446D9F841
:100E4000000007F053FC8246D9F8000007F03CFC94
:100E50000590D9F8000007F05BFC8346D9F8000044
:100E600007F00EFC0490D9F8000007F01BFC059A6F
:100E7000049B0092039002932246CDF804B053469F
:100E8000544955480EF01EFF0025082437601020F5
:100E900009F0D4FF0DF092FC4FF06A510DF0E2FC26
:100EA000014628460DF0D6FB013C0546EFD14848E7
:100EB000DFF8489104F090FC484901F23C4004F00E
:100EC000C3FE4FF47A7646230BA8454A40498DF875
:100ED0002C408DF82D408DF820408DF82840099643
:100EE000CDF81C9004F030FE9DF82C30002B40F023
:100EF00051810E213B480BF065FB012114200AF0C3
:100F0000B9F8394B394A1A6098F800202F49002364
:100F10002F2A8DF81C308DF81D3000F0208107A895
:100F200001232A4A2A4904F00FFE60B19DF81C30C3
:100F300013F0700F07D007AC0FCC254D0FC50FCCA9
:100F40000FC523682B604FF47A7500240995C223DE
:100F5000214A1F498DF82C400BA80BAD8DF82D4070
:100F60008DF820408DF82840CDF81C9004F0ECFD61
:100F70000FCD1F4E9DF82040347106F110040FC4B0
:100F80000FCD0FC4099A9DF828302968B2603373D9
:100F9000114821600EF0F4FE01460F48154FDFF8AE
:100FA00048B0DFF848A00BF00DFB06480CF05AF8EB
:100FB0006CE000BF28520020D4620100685300207A
:100FC000150800008CFFFF1FE0620100D0500020D8
:100FD000B04E0020EC62010094510020744A0020C1
:100FE0000C6301004C6301000CED00E00400FA0505
:100FF000380A0020CC500020EC4E0020686201002E
:1010000004F0A2FD60B19DF81C30AA4D13F0700FE2
:1010100007AC05D00FCC0FC50FCC0FC523682B60D4
:101020004FF47A750024C223A34AA24909950BA85C
:101030000BAD8DF82C408DF82D408DF820408DF8AB
:101040002840CDF81C9004F07FFD0FCD9B4C9DF8FF
:1010500020E086F804E00FC40FCD0FC49DF82830BF
:10106000099A33732968B260934821600EF088FEB4
:10107000014691480BF0A6FA91480BF0F3FF0A20C5
:101080000AF006FB3B68B3F57A7F61DC347C8D495E
:101090008948F4B93B6801331A463B600EF012FEF2
:1010A00098F80050884A83498DF81C402F2D4FF046
:1010B000010307A88DF81D40A2D15478002C9FD1C0
:1010C000084604F089FB814901F23C4004F0BCFD74
:1010D000A6E77F487F4907687F4C804A804B814D57
:1010E00003C9206092E80300A06093E80300102683
:1010F0000123A382E382E060266138460DF09EFD65
:101100003946A06138460DF0A5FA0DF097FD764AF4
:10111000E0612B68668492E803005B0203F1240619
:101120002C226062214602276448A36227846660FD
:1011300004F094FF09216D480BF044FA29686048D7
:101140000BF016FF5E480BF08DFF15B0BDE8F08F79
:101150000121142009F08EFFCBF800A096E74B7810
:10116000002B7FF4DCAE534804F036FB574901F204
:101170003C4004F069FDE6E698F80130002B7FF46E
:1011800045AE4C4804F028FB504901F23C4004F0C5
:101190005BFD4FE64848564E0EF0F2FD46490246CA
:1011A0000BA804F05BFF14A92C2301F8383D0122A1
:1011B0000DEB030004F052FF06F1080707AC16F828
:1011C000011F00230A2220460BF09CFFBE42F6D1ED
:1011D000284648490DF046FB4FF078510DF042FB90
:1011E00014A92C260546012201F8356D0DEB0600E9
:1011F00004F034FF404B18680CF08AFE02270B46BF
:101200000246009720460BF0DBFF14A9012201F8EB
:10121000366D0DEB060004F021FF28460CF078FE39
:1012200000970B46024620460BF0CAFF14A9012284
:1012300001F8376D0DEB060004F010FF2F480EF09B
:101240009FFD2E4902460DEB060004F007FF2046E5
:101250000BF008FF28462A490DF0A2FC60B9284689
:1012600028490DF09DFC002858D10BA804F0B4FAD1
:101270004AE6254E254FB9E5254E3368002BEED0C2
:10128000012105200AF096F940F6B8300AF000FA7C
:10129000002105200AF08EF91E4A1F490023137011
:1012A0000BA80B22336004F0D9FE20460BF0DAFEC7
:1012B000D5E700BFB04E002094510020480A00201E
:1012C0008CFFFF1F5C630100D0500020744A002097
:1012D000085200206863010078520020706301000A
:1012E00078630100F45100208063010088630100ED
:1012F00053510020CDCCBC406451002008FAFF1FA0
:101300006666464000004040685300201508000013
:1013100060510020F94E0020146301002822174973
:101320000BA804F09BFE20460BF09CFE0BA804F0DB
:1013300053FA00250824102009F080FD0DF03EFA34
:101340004FF06A510DF08EFA014628460DF082F9F1
:10135000013C0546EFD10A490DF084FA4FF078516F
:101360000DF080FA07490DF01BFC00283FF47DAF1B
:1013700047F230500AF08CF9DBE700BF2063010030
:10138000CDCCBC400000404038B50E211C481D4D5E
:101390000BF018F91C480BF065FEFFF7F3FC1B4B34
:1013A000D5F8AC0100241C6018B10BF0E3FAC5F8C5
:1013B000AC41B5F8B241B5F8B031A4B29BB2A3428A
:1013C0000ED00134642C28BF0024A31D05EB830339
:1013D00058680BF0CFFAB5F8B0319BB2A342F0D108
:1013E0000123A4B20B210A48A5F8B241A5F8B431F3
:1013F0000BF0E8F80448BDE838400BF033BE00BFFE
:1014000094630100004F00208CFFFF1FFC4E002062
:10141000A463010070B517488EB004F0DDF91649D9
:101420000EAD01F23C4004F00FFC144B45F8343D86
:1014300000244623124A0F498DF8144005A84FF4A2
:101440007A768DF815408DF808408DF81040039697
:1014500004F07AFB9DF8143053B12922094905A8FC
:1014600004F0FCFD28460BF0FDFD05A804F0B4F9DE
:101470000EB070BDB04E0020744A002068620100BA
:101480000C630100B0630100264B1B680F2B0CD8C6
:10149000DFE803F00C1014181C2024282C303438FA
:1014A0003C404408204B214A1A6070471E4B204A9A
:1014B0001A6070471C4B1F4A1A6070471A4B1E4A2D
:1014C0001A607047184B1D4A1A607047164B1C4A29
:1014D0001A607047144B1B4A1A607047124B1A4A25
:1014E0001A607047104B194A1A6070470E4B184A21
:1014F0001A6070470C4B174A1A6070470A4B164A1D
:101500001A607047084B154A1A607047064B144A18
:101510001A607047044B134A1A607047024B124A14
:101520001A60704700FAFF1F64510020BD549341B8
:10153000103377C0993918C0BE0D68BFCE71153F02
:101540008D090340CCC9624009A7A3407DDBD1408F
:10155000C416014154FC1741D0E8304119554641A9
:101560009FAB5F41A04176415E2E8641F8B5394D73
:10157000394C2A6854F8223013B1013B44F8223028
:1015800010213648334F0BF01DF82B68344854F8BF
:1015900023100A2200230BF0B5FD31480BF062FD49
:1015A0002B6854F82320DAB901332E4A3B60012618
:1015B000042B167022D02C4C2C4A04F58C6712F8A0
:1015C0002320384604F26C414FF0384305F0A8FF61
:1015D000E0B92748FFF772F928680130FFF752F9A0
:1015E0000E2124480AF0EEFF29681D4801310BF056
:1015F000BFFC1B48BDE8F8400BF034BD0E211E486F
:101600000AF0E0FF16480BF02DFDFEE704F23C4027
:10161000276004F0E1F83146204605F085FE0146DA
:1016200090B1114C04F23C463046214604F00CFBCC
:101630000028CED094F83C3413F0700FC9D00F4B73
:101640001E60FFF7E7FECBE7204605F06DFE0028A1
:10165000E7D1BEE76452002010520020DC63010095
:101660008CFFFF1F00520020744A0020BC50002055
:101670001064010000640100F06301006453002065
:1016800008B50121052009F095FF4FF4FA6009F033
:10169000FFFF0021052009F08DFF024B01221A7087
:1016A00008BD00BFF94E002008B50121052009F052
:1016B00081FFC82009F0ECFF0021052009F07AFF26
:1016C000642009F0E5FF024B01221A7008BD00BF3B
:1016D000F94E002008B50121052009F06BFF40F606
:1016E000B83009F0D5FF0021052009F063FF024B57
:1016F00000221A7008BD00BFF94E00202DE9F0430A
:101700008FB004460EF03CFB00B201281CDDB4F99A
:10171000003044F25372934200F0A68118DD44F683
:101720005452934200F0DA8045F2532293422FD074
:1017300044F65212934207D10BAAE01CBD490EF0A9
:10174000E7FABD4B0B9A1A6001200FB0BDE8F08399
:1017500044F24E4293420FD044F252429342F3D1AC
:101760000BAAE01CB3490EF0D3FAB44B0B9A1A60E3
:1017700001200FB0BDE8F0830BAAE01CAD490EF0CC
:10178000C7FAAF4B0B9A1A6001200FB0BDE8F08387
:101790000AAD09A908AA05ABE01C039502910192C4
:1017A000009307AA06ABA7490EF0B2FAA64B079D15
:1017B000596818689A680A9EDDF824E0DDF820C0B0
:1017C000A5F5FA65ADB20BAF2CB207C7069F059918
:1017D0001E3415F0030F4FEAA408FDB240F0598102
:1017E0009A4B022D8CBF1F4600279948994BC8EB96
:1017F000040400FB08F06A1E03FB0400002A00EB4F
:10180000070347DD9DF82C409048012A00FB043374
:1018100040D09DF82D40022A00FB04333AD09DF8B9
:101820002E40032A00FB043334D09DF82F40042AB5
:1018300000FB04332ED09DF83040052A00FB043312
:1018400028D09DF83140062A00FB043322D09DF8B1
:101850003240072A00FB04331CD09DF83340082A8D
:1018600000FB043316D09DF83440092A00FB0433F2
:1018700010D09DF835400A2A00FB04330AD00B2A09
:101880009DF8364018BF9DF8372000FB043318BF81
:1018900000FB02335FFA8EF2C2EB02125FFA8CF0A9
:1018A0004FF46164920004FB0022684D6A4C6B485F
:1018B000C9B2013952FA86F205FB01221344122102
:1018C00023600AF07FFE216865480BF051FB6448F5
:1018D0000BF0C8FB01200FB0BDE8F0830AAD09A9E9
:1018E00008AA05ABE01C039502910192009307AA98
:1018F00006AB54490EF00CFA534B079F9A681868D0
:1019000059680A9EDDF824E0DDF820C0A7F5FA67E3
:10191000BFB20BAC3DB207C4069A059C1E3517F04A
:10192000030F4FEAA508D7B240F0B080474B022F13
:101930008CBF99464FF000094549464BC8EB050559
:1019400001FB08F17A1E03FB0510002A00EB0903D6
:1019500047DD9DF82C003D49012A01FB003340D0B2
:101960009DF82D00022A01FB00333AD09DF82E008D
:10197000032A01FB003334D09DF82F00042A01FB19
:1019800000332ED09DF83000052A01FB003328D00B
:101990009DF83100062A01FB003322D09DF8320069
:1019A000072A01FB00331CD09DF83300082A01FBF5
:1019B000003316D09DF83400092A01FB003310D003
:1019C0009DF835000A2A01FB00330AD00B2A9DF846
:1019D000360018BF9DF8372001FB003318BF01FB0C
:1019E00002335FFA8EF2C2EB02125FFA8CF04FF410
:1019F0006165920005FB0022E1B2144C164D52FACB
:101A000086F2013904FB01241C4420462C6009F0B5
:101A1000CBFC0B2113480AF0D5FD214600230A22F6
:101A20000F480BF06FFB0E480BF01CFB01200FB0B2
:101A3000BDE8F0835064010048FAFF1F3CFAFF1F25
:101A40006C0A00203064010098620100805101009E
:101A50000085E2018033E101F44E0020546401006E
:101A60008CFFFF1F44640100E01C0BAA0C490EF020
:101A70004FF90B9B0F2B0ED90A4B042119600F2035
:101A800009F0F8FA01200FB0BDE8F0834FF000092B
:101A900052E70027A9E6034AD9B21360EFE700BF77
:101AA0005064010000FAFF1F2DE9F043A3B00025A8
:101AB0004FF47A76764F77480A968DF830508DF845
:101AC00031508DF824508DF82C50089703F084FE87
:101AD000714901F23C4004F0B7F801236F4A6D49A7
:101AE000179619A88DF864508DF865508DF85850E8
:101AF0008DF86050159704F027F80DF1640EBEE8DC
:101B00000F000CAE0FC6BEE80F000FC69DF8308068
:101B1000DEF800109DF85800179A9DF8603031608B
:101B20008DF824000A928DF82C30B8F1000F46D0C1
:101B30002E468DF800604FF000094FF0FF0801229B
:101B400015A90CA804F0A0F809F1010322AA0128A4
:101B50004A441BB224D01D2B02F8888C05DC994620
:101B6000EDE71D2B01DC0A2AF9D1013B9BB222AA29
:101B70001A4402F8886C9DF800202F2A04D0012B0B
:101B800002D96846FFF7BAFD9DF830301B0711D423
:101B90000CA803F021FE2DBB012023B0BDE8F0838B
:101BA0009DF854200D2A08BF4B4662D11D2BDCDC6A
:101BB0009946C4E7139A119B9A42BAD1E8E71421D7
:101BC00037480AF0FFFC37480BF04CFA0D22364933
:101BD00036480BF0B9F935480BF044FA404623B0CB
:101BE000BDE8F0830B2132480AF0ECFC00230A2206
:101BF00021462C480BF086FA2A480BF033FA254888
:101C000003F0EAFD2449002501F23C4004F01CF8F1
:101C10004FF47A768DF864508DF865508DF85850F1
:101C20008DF8605063231D4A1A49179619A819ADFB
:101C3000159703F089FF0FCD0CAE0FC60FCD0FC661
:101C40002968179A9DF860309DF8585031600CA8AB
:101C500021460A928DF82C308DF8245004F00EF9AC
:101C6000022214490CA804F0F9F90CA803F0B4FD01
:101C700092E722AB03EB0901542A09F1010301F8B1
:101C8000882C1BB27FF46DAF119C0546013C8DE79B
:101C900068620100B04E0020744A002068640100B0
:101CA000846401008CFFFF1F9C640100BC51002074
:101CB000746401008064010030B583B002AD079CFC
:101CC00005F8082D8DF80200069A8DF804304E3480
:101CD00028468DF801108DF805208DF8064006F095
:101CE0003DFD09F061FB09F059FB024B186003B0A0
:101CF00030BD00BF704A00202DE9F04104460420A9
:101D00000D46164609F07AFC8046032009F076FC61
:101D10000746B8F1000F2AD1DFF89C80244AD8F892
:101D200000300121132B117039DD0133642BC8F809
:101D300000303ADDC82BD4BF05343C3467B91D4FA1
:101D40001B4A3B680121132B117022DD3C2C16DC51
:101D500001233B60013C02E0164B00221A60AC42BA
:101D600009DBB442C8BF2C462046BDE8F081124BC7
:101D700000221A60E2E734462046BDE8F0813B6865
:101D80000133642B3B60E5DDC82BD4BF053C3C3CF4
:101D9000E5E7C82009F07CFC3C2CD9DDEFE7C82042
:101DA00009F076FCD8F80030BFE70134C6E700BF81
:101DB000F04E0020205200200452002010B5094CA3
:101DC000204608F021FA2046012107F043FC204676
:101DD000022107F039FC002220461146BDE81040E0
:101DE00007F02EBCBC51002038B5054606F0A2FC19
:101DF0001E4C014620460BF0BBF82D200AF0B6FC25
:101E0000284606F073FC014620460BF0B1F82D2061
:101E10000AF0ACFC284606F057FC014620460BF0C1
:101E2000A7F8012112480AF0CDFB284606F070FC05
:101E3000014620460BF09CF83A200AF097FC284611
:101E400006F01EFC014620460BF092F83A200AF0FC
:101E50008DFC284606F026FC014620460BF088F84B
:101E60002046BDE838400BF0FDB800BF8CFFFF1FD7
:101E70000C6601002DE9F043434A444BDFF818910A
:101E8000DFF81881424D98F80010167899F8007024
:101E90001A78286883B03C2313FB071713FB062628
:101EA00006F036FC0446286806F0EAFBC4EB04148E
:101EB00000EB8404286806F03DFC00F14E0328681E
:101EC0008DF8063006F012FC8DF80500286806F043
:101ED000FBFBB7428DF8040006D2A74232D8A642D7
:101EE00030D303B0BDE8F083A742FAD9A642F8D2B6
:101EF00002A8002399F8002000F8083D98F8003067
:101F00008DF801308DF8022006F028FC0F212860A2
:101F100020480AF057FB2868FFF766FF09F03EFAF1
:101F20002B68834204DA03F5A83303F5C0732B60F2
:101F30000F2118480AF046FB2868FFF755FF03B049
:101F4000BDE8F08302A8002399F8002000F8083DBE
:101F500098F800308DF801308DF8022006F0FEFB75
:101F60000F2128600B480A4C0AF02CFB2868FFF769
:101F70003BFF09F013FA2B688342D9DA03F5A83343
:101F800003F5C0732360D3E790510020F84E002082
:101F9000F44E0020AC640100340A0020605200209E
:101FA00010B5002009F010F8264C2070012009F02F
:101FB0000BF86070022009F007F8A070032009F008
:101FC00003F8214BE07022681A60042008F0FCFF3F
:101FD0002070052008F0F8FF6070062008F0F4FF7C
:101FE000A070072008F0F0FF184BE07022681A601C
:101FF000082008F0E9FF164B1870092008F0E4FFEC
:10200000144B18700A2008F0DFFF134B18700B20D8
:1020100008F0DAFF114B18700C2008F0D5FF104BB8
:1020200018600D2008F0D0FF0E4B18600E2008F04D
:10203000CBFF08B10C4B18700F2008F0C5FF0B4BFD
:10204000186010BD685100203CFAFF1F48FAFF1FBE
:10205000340A00206052002090510020F84E0020E9
:10206000F851002030FAFF1F38FAFF1F00FAFF1F57
:1020700038B50A4C0B460546C9B2236008F0FAFF92
:102080006178681C08F0F6FFA178A81C08F0F2FF40
:10209000E178E81CBDE8384008F0ECBF685100204A
:1020A000284B10B51968284C00202160C9B208F0EF
:1020B000E1FF6178012008F0DDFFA178022008F03F
:1020C000D9FFE178032008F0D5FF204B1968216083
:1020D0000420C9B208F0CEFF6178052008F0CAFFDD
:1020E000A178062008F0C6FFE178072008F0C2FFBB
:1020F000174B0820197808F0BDFF164B09201978F6
:1021000008F0B8FF144B0A20197808F0B3FF134BFE
:102110000B20197808F0AEFF114B0C20197808F04D
:10212000A9FF104B0D20197808F0A4FF0E4B0E20CC
:10213000197808F09FFF0D4B0F201978BDE810406B
:1021400008F098BF3CFAFF1F6851002048FAFF1FB3
:10215000340A00206052002090510020F84E0020E8
:10216000F851002030FAFF1F38FAFF1F00FAFF1F56
:102170002DE9F04F8DB010290791069000F0BF8037
:10218000202900F0B0800024631C18461D460893E7
:102190000CF010FBE4B244F0E06309900021284603
:1021A0000A9344F08E430B930CF01EFB01465A48F1
:1021B0000CF00CFC054607980CF0FCFA01460CF0FC
:1021C00049FA044606980CF0F5FA014620460CF050
:1021D00049FB014628460CF0F9FB4FF001084FF08F
:1021E0007E550746C1464FF0010A4FF0000B50469E
:1021F0000CF0E4FA39460CF035FB04460CF0F8FC20
:102200000CF0DCFA014620460CF022FA294606467C
:102210000CF0C6FC4FF0874148B120460CF0C0FCE2
:1022200028B120460CF02AFD35468046D1461AF1E9
:10223000010A4BF1000BBBF1000F08BFBAF1400FD0
:10224000D5D109F1FF34089B079E059320460296DD
:10225000CDF81080CDF80C900CF0ACFA4FF07E5118
:102260000CF0F8F92D490CF0FDFA054640460CF04B
:10227000A1FA014628460CF0A9FB4FF07C510CF066
:10228000F1FA09990CF0A2FB054670000CF096FAE1
:10229000014628460CF09AFB0CF0AAFC204B069A4B
:1022A000019000921F492048204E214D1A460AF005
:1022B0001BFF204920480F68220308F1FF3302F476
:1022C0007F22C3F30B03134327F010420A603360ED
:1022D0000A9B2B600B9B03600B6843F010430B6061
:1022E0000DB0BDE8F08F154B0B9303F140430A93FB
:1022F0004FF0804309930223114D08935BE7114B84
:102300000B9303F140430A934FF081430993042355
:102310000D4D08934FE700BF001B374C001BB74C17
:1023200000D8B805BC6401008CFFFF1F04F1024017
:1023300008F0024080F0024088F0024001000047AF
:10234000001BB74B03000047001B374B2DE9F04F34
:102350000546DFF87C82974E974F98F800E02E6094
:10236000FF2085F82400DFF86C92387859F820C0F7
:102370000023BEF1060F8DB00C4685F8253085F898
:1023800026309CBF88F800309E46BCF1000F00F05C
:10239000A8808C455BD06346810001E09C4256D00A
:1023A0000B445B68002BF9D1634603EB010ADAF8B2
:1023B0000430002BF9D105EB010BCAF80440BEF143
:1023C000060F4FF0FF044FFA80FACBF804308DF877
:1023D0002C4002968DF82D308DF82E3085F824A0F3
:1023E000644605D8002388F80030002C00F0A9804E
:1023F000A24226D0234601E0934222D00B445B68E0
:10240000002BF9D104EB010CDCF80440002CF9D1CD
:10241000CCF804200CAB19440024431CBAF1FF3F54
:1024200041F8244C3B708DF82CA0029605D06349EE
:1024300051F82A3002AA934272D028460DB0BDE866
:10244000F08F0130387028460DB0BDE8F08F0023C2
:10245000FF21BEF1060F02968DF82C108DF82D305D
:102460008DF82E3001D888F800309445E9D06346C5
:10247000810001E09A42E4D00B445B68002BF9D163
:102480008C44DCF804402CB1A4468C44DCF80440B5
:10249000002CF9D10CAB19444FFA80FE431CBEF15D
:1024A000FF3FCCF804203B7041F8244C02968DF895
:1024B0002CE0C2D0414951F82E3002AA9342BCD13F
:1024C00059F82E304FEA8E0623B19A19536854609A
:1024D000002BFAD10023387049F82E3041F82E3005
:1024E000ABE7B0B38100DFF8D4A049F8204005EB9A
:1024F000010C00234AF82050BEF1060FCCF804303E
:102500004FFA80FA4FF0FF0C02968DF82D308DF8BF
:102510002E3085F824A08DF82CC07FF663AF64E7D9
:1025200059F82A304FEA8A0623B19A195368546041
:10253000002BFAD10023387049F82A3041F82A30AC
:102540007BE7F0B11D4B49F8202002AA43F8202078
:1025500060E71B491B480B68019243F080630B60E6
:102560000368194923F080430360152008F04AFEF0
:10257000164B98F800E0019A4FF400111960387872
:10258000B0E70F4C0F482368019243F0806323604B
:1025900003680D4923F080430360152008F032FEE4
:1025A0000A4B019A4FF40011196038784FFA80FAFB
:1025B0008100C7E78C620100AD5300208C530020DE
:1025C00004700440007004409504000000E100E045
:1025D000BCF3FF1F6C5300202DE9F041584D594CBE
:1025E000594E08F0A9FC4FF0FF31584807F0F8FDAC
:1025F0002A6826600023637223612372E3600AB9AC
:102600009AE01A465369002BFBD154610027504BC6
:102610004C486761A780E780236002F01DFB4D4AAC
:102620004FF0010E02F118013B4638461772D76091
:10263000166082F809E01161174600E0396941F837
:102640002300517A434E01339942F7DC29683C4B11
:1026500009B973E019464B69002BFBD14A613E4B27
:102660003E491C600024184654619480D480A2F82E
:10267000B0411160A2F8B2415A60C2F8AC41A2F870
:10268000B441C2F8B8411C725C72DC600AF0C2F955
:10269000334A344B9069344A1A600CF08FF8334D4A
:1026A000334B344E18604FF0FF08334B334A3449F4
:1026B00085F825402846012785F824802B606C6327
:1026C000AC6385F83C4085F826700CF085FC2D4BFA
:1026D0002A4A2D4986F82480304686F82540336002
:1026E00086F8274086F8284086F826700CF074FC9F
:1026F0002A4631462548264DFFF728FE1F4A254920
:1027000022480CF069FC244A244B254914746420A7
:102710004FF47A76547414711473DC7183F83C446A
:1027200083F83D4483F86A4483F86004966015603A
:10273000C3F86C14BDE8F0812C6067E71E608EE77B
:10274000C0540020745100205C620100BC51002084
:1027500060670100004F002038510020AC6201008A
:1027600014FAFF1F4851002044670100EC5000207C
:10277000085200203052002008680100FCF9FF1FB9
:10278000BD0600001C680100150700000C0A0020AF
:102790006862010011060000380A0020744A002017
:1027A0000110013870B5104C06460D4620460A212E
:1027B00002F0C0FDC6F30721204602F093FBF1B200
:1027C000204602F08FFBC5F30721204602F08AFB6A
:1027D000E9B2204602F086FB204602F0BDFDB0FAC9
:1027E00080F0400970BD00BF4C53002010B5184C5C
:1027F0000A21204602F09EFD2046002102F072FBD5
:102800002046302102F06EFB2046002102F06AFBD8
:102810000021204602F066FB204602F09DFD204686
:102820000A2102F087FD2046002102F05BFB2046D2
:10283000022102F057FB2046002102F053FB204604
:10284000002102F04FFB2046BDE8104002F084BD9D
:102850004C5300200238032838B504DC002880F2ED
:10286000E181002400E00C240A21C84802F062FD46
:102870000021C64802F036FB3021C44802F032FB8A
:102880004021C24802F02EFB6021C04802F02AFB22
:10289000BE4802F061FD0A21BC4802F04BFD002158
:1028A000BA4802F01FFB2621B84802F01BFB0021AA
:1028B000B64802F017FB6C21B44802F013FBB34892
:1028C00002F04AFD0A21B14802F034FD0021AF4870
:1028D00002F008FB2821AD4802F004FB0121AB48BF
:1028E00002F000FBF021A94802F0FCFAA74802F030
:1028F00033FD0A21A54802F01DFD0021A34802F086
:10290000F1FA2C21A14802F0EDFA0F219F4802F0C4
:10291000E9FA22219D4802F0E5FA9C4802F01CFDEC
:102920000A219A4802F006FD0021984802F0DAFADE
:102930003C21964802F0D6FA0021944802F0D2FADF
:102940000021924802F0CEFA904802F005FD904B2B
:102950008E481D680A21002D40F0378102F0EAFC04
:1029600029468A4802F0BEFA3021884802F0BAFAB5
:102970002946864802F0B6FAA221844802F0B2FA4B
:10298000824802F0E9FC0A21804802F0D3FC294683
:102990007E4802F0A7FA02217C4802F0A3FA2946F9
:1029A0007A4802F09FFA4321784802F09BFA774870
:1029B00002F0D2FC0A217548764D02F0BBFC0021E2
:1029C000724802F08FFA0421704802F08BFA00215D
:1029D0006E4802F087FA21466C4802F083FA6B4891
:1029E00002F0BAFC0A21694802F0A4FC0021674801
:1029F00002F078FA0621654802F074FA0121634872
:102A000002F070FA3021614802F06CFA5F4802F07F
:102A1000A3FC0A215D4802F08DFC00215B4802F016
:102A200061FA0A21594802F05DFA0021574802F084
:102A300059FA0021554802F055FA544802F08CFC2E
:102A40000A21524802F076FC0021504802F04AFA6E
:102A50000E214E4802F046FA00214C4802F042FA9C
:102A600008214A4802F03EFA484802F075FC0A2163
:102A7000464802F05FFC0021444802F033FA10217E
:102A8000424802F02FFAFF21404802F02BFAFF21C2
:102A90003E4802F027FA3D4802F05EFC0A213B481E
:102AA00002F048FC0021394802F01CFA2221374884
:102AB00002F018FA7F21354802F014FA7F213348DA
:102AC00002F010FA314802F047FC0A212F4802F0C8
:102AD00031FC01212D4802F005FA24212B4802F097
:102AE00001FA0021294802F0FDF90021274802F0EF
:102AF000F9F9264802F030FC0A21244802F01AFCB9
:102B00000021224802F0EEF92421204802F0EAF9DF
:102B100001211E4802F0E6F914211C4802F0E2F9F6
:102B20001A4802F019FC0A21184802F003FC00219F
:102B3000164802F0D7F92A21144802F0D3F90021EF
:102B4000124802F0CFF90021104802F0CBF90F48EB
:102B500002F002FC0921104809F034FD29680F48F1
:102B60000AF006FA0D480AF07DFA0A2107482C6897
:102B700002F0E0FB0021054802F0B4F920210348EF
:102B800002F0B0F9C4F307210AE000BF4C53002063
:102B90006051002000FAFF1FD86401008CFFFF1F66
:102BA000224802F09FF9E1B2204802F09BF91F4849
:102BB00002F0D2FBB0FA80F149091D480AF0D8F9B9
:102BC0001B480AF04FFA012038BD02F0B3FB002188
:102BD000164802F087F93021144802F083F90021E9
:102BE000124802F07FF9AB21104802F07BF90F4840
:102BF00002F0B2FB0A210D4802F09CFB00210B48B9
:102C000002F070F90221094802F06CF9002107482E
:102C100002F068F96321054802F064F9034802F004
:102C20009BFBC7E68000C4B21EE600BF4C530020E9
:102C30008CFFFF1F10B5074B0446102153F82000EE
:102C4000FFF796FA044802F0F3F92046BDE8104079
:102C5000FFF700BE14FAFF1F4C530020302101483B
:102C600006F0B4BCBC5100202DE9F04782B008F05A
:102C700095FBB34BB34E18600121B348B34FB44C2E
:102C8000DFF82C93DFF82C83DFF82CA306F0DCFCB4
:102C90000121AD4806F0DEFC12220021AA4806F010
:102CA000CFFC0422AB49A8480AF04EF93168A64887
:102CB0000AF05EF90222A849A3480AF045F9A248A1
:102CC0000AF0D0F90622A5499F480AF03DF9396873
:102CD0009D480AF04DF90322A1499B480AF034F9B6
:102CE0000322A04998480AF02FF90A222178964831
:102CF00000230AF007FA94480AF0B4F9D9F8003032
:102D000058F823000BF05AFD97490BF05FFE0BF0CB
:102D1000FFF802460B468C4894490AF0E5F99449BD
:102D2000894801220AF010F9DAF8005000212846FB
:102D30000BF054FF28B12B21834806F047FCDAF84A
:102D4000005028460BF0E4F80B46024689497E48BD
:102D50000AF0CAF9022288497B480AF0F5F80121F5
:102D6000794806F071FCD9F80030366858F82330FD
:102D7000700003FB00F000F500402C300BF01AFD52
:102D800079490BF023FE78490BF020FE7B4B1B6842
:102D9000012B814600F014814FF07E5830460BF035
:102DA0000DFD41460BF05EFD80463868DFF80CA251
:102DB000734D30440BF002FD014640460BF006FE19
:102DC000074620780BF0FAFC6E4B19680BF04AFDB1
:102DD0006D4B044618680BF0F1FC6C4B19680BF056
:102DE00041FD6B4B19680BF035FC39460BF03AFD91
:102DF000394680464FF07E500BF02AFC654B19682F
:102E00000BF030FD014640460BF024FC0146204605
:102E10000BF0DCFD60490BF025FD0BF00FFFDAF83D
:102E20000040002380462B606B60AB60EB6074B1A8
:102E300020460BF0BFFC49460BF0C8FD0BF068F8CC
:102E40000AF07AFE0BF090FB286000FB06F4DAF83B
:102E5000040068B10BF0AEFC49460BF0B7FD0BF077
:102E600057F80AF069FE0BF07FFB686000FB06F084
:102E7000DAF80830044473B118460BF09BFC49465D
:102E80000BF0A4FD0BF044F80AF056FE0BF06CFBBF
:102E9000A86000FB06F3DAF80C001C4468B10BF0E4
:102EA00089FC49460BF092FD0BF032F80AF044FE23
:102EB0000BF05AFBE86006FB00F020440BF07AFCB4
:102EC00039460BF083FD044640460BF073FC014687
:102ED00020460BF083FEF0B901462E221A4806F078
:102EE000AFFB0D222D4918480AF02EF820462C4938
:102EF0000BF06CFD0BF00CF8022402460B4600941C
:102F000011480AF05DF927490F48012202B0BDE8D7
:102F1000F0470AF019B82E2200210B4806F090FB6A
:102F20000E22214908480AF00FF820490648A1FB63
:102F30000831090C00230A220AF0E4F8E3E700BF95
:102F4000EC4E00203CFAFF1FBC51002048FAFF1F46
:102F500038FAFF1FE4640100EC640100F064010032
:102F6000F8640100FC64010000007A44006501007F
:102F70000C6601006C6601000C650100F851002030
:102F80001052002044FAFF1F605100204CFAFF1F2E
:102F900050FAFF1F40FAFF1F000061452065010045
:102FA00000C0A847406401001065010007452EC21B
:102FB00030FAFF1F14FAFF1F6451002068520020EE
:102FC000124A134B10781B78834286BFC3F1180353
:102FD000C018C01A0BF0F2FB0E4A0F4B80461B784C
:102FE0001078834286BFC3F13C03C018C01A0BF0AF
:102FF000E5FB0A49054640460BF034FC29460BF038
:1030000029FB07490BF0E2FC8046C7E690510020FF
:10301000340A0020F84E0020605200200000704268
:103020000000B44438B504460D463148012106F08D
:103030000BFB2AB200212E4806F002FB204605F0C9
:1030400079FB01462A4809F093FF2D21284806F014
:10305000BDFA204605F04AFB0146254809F088FFE5
:103060002D21234806F0B2FA204605F02DFB01463B
:103070001F4809F07DFF02221E491D4809F064FF28
:10308000204605F045FB092803DC3021184806F0EE
:103090009DFA204605F03CFB0146154809F068FF03
:1030A000204605F0EDFA012205461349104809F0C3
:1030B0004BFF092D03DC30210D4806F087FA294625
:1030C0000B4809F055FF204605F0ECFA01220446B2
:1030D0000949074809F038FF092C03DC302104486E
:1030E00006F074FA21460248BDE8384009F040BFB6
:1030F000BC51002030650100446501002DE9F0411C
:10310000A34D2C682CB1012C00F0A08030BFBDE88D
:10311000F08108F043F99F4FDFF8E88238609E485D
:103120009E4E07F071F801219B4806F093FA0221A8
:10313000994806F089FA22462146974806F080FA17
:103140000A229749944809F0FFFE934809F08AFF44
:103150000121914806F078FA122221468E4806F0A5
:103160006FFA05228F498C4809F0EEFED8F800105E
:103170008948013109F0FCFE01228B49864809F09B
:10318000E3FED8F80020894B834853F822102346E9
:103190000A2209F0B7FF30682821FFF743FF3721E3
:1031A0003868FFF73FFF7C4807F06AFA32683B68EF
:1031B000511E994209DCDFF8508298F8001021B1C5
:1031C0007B490968002940F084809A423ADC794FB3
:1031D0003C68002C64D0022C00F0AA810D217648B6
:1031E000764C09F0EFF9764809F03CFF754B764ACA
:1031F000764930681B681268096803441A4401293B
:103200003260236000F091810E21714809F0DAF9F3
:1032100008F0C4F8FEF7E8FD0B216E4809F0D2F97A
:103220002068FEF7E1FD0B216B4809F0CBF930680F
:10323000FEF7DAFD0123AE2157482B6006F0ECFFC4
:10324000FEF7A2F82C68012C7FF460AFFDF7B6FC06
:10325000042008F0D3F90446032008F0CFF90CB994
:10326000002847D05D4C5E4B22681B689A42FFF6EF
:103270004DAF554B1E68002E40F0C880594802F0F3
:10328000ABFAFEF773F9FDF77DFD57482660FDF7B1
:1032900015FB564B1888FDF7F5FA30BFBDE8F081F5
:1032A0000A21534802F046F82146514801F01AFE1F
:1032B0000E214F4801F016FE21464D4801F012FE46
:1032C0000A214B4801F00EFE494802F045F83C68DF
:1032D00081E70121052008F06DF9C82008F0D8F930
:1032E0002146052008F066F901213B68326888F81C
:1032F00000106AE7394B3F4C1B683F4D39485B0271
:10330000002203F124061146A362A5F8B4216660E9
:1033100002F0B4FD21462C22324802F09FFE3148D3
:1033200002F05AFA224B1B68002B40F0BE800123AA
:103330003C220221184807F099F8642008F0A8F907
:10334000154806F061FF0121134806F083F90221B8
:10335000114806F079F9002211460F4806F070F97D
:10336000072226490C4809F0EFFD0B4809F07AFEC8
:103370000121094806F068F910222149064809F0A0
:10338000E3FD054809F06EFE034807F079F9FEE712
:10339000080A0020EC4E0020BC510020F44E002012
:1033A00034650100406501000C66010010520020E8
:1033B000605100206C0A0020486501005C5100202B
:1033C0008CFFFF1F3CFAFF1F48FAFF1FF851002037
:1033D000586501006865010074650100FC4E00201D
:1033E000F4510020480A00209C650100C4540020CC
:1033F0004C53002078520020004F002080650100CF
:103400008865010064520020F94E0020FDF786FC1B
:10341000FEF7ACF8494B4A4E1C684A4F07F0BEFF16
:10342000494A4A4B1268201A841A24EAE47483FB3E
:1034300004232344E017C0EBE3200AF057FD0AF011
:103440007BFB0BF069F8424B424A306003FB0044BF
:1034500082FB043222448046E017C0EB62100AF07F
:1034600045FD0AF069FB0BF057F80201131A821AA6
:1034700004EB82049B004FF4616202FB08333C6062
:10348000DFF8F0801C44092CC8F8000013DC324B34
:103490001B686BB901233C220221304806F0E6FF8D
:1034A00000232B6030BFBDE8F081FEF713F93EE743
:1034B000FEF7FAF8EEE7284C0021022008F07AF82F
:1034C000FFF794F923680BB1FEF704F92448FDF7E0
:1034D000F5F93168234809F04BFDD8F80010214870
:1034E00009F046FD3868FDF7CDF909F06FF9642061
:1034F00008F0CEF83B7898F8002031781A4804F0AC
:1035000057FF1A4804F01AFD0121022008F052F872
:103510004FF4967008F0BCF823680BB1FEF7B0F8D2
:10352000134B1868FFF786FBB4E7FEF7A3FC6BE6C6
:103530000B210E20FFF736F950E600BFF44E0020B5
:10354000FC5100200C52002004FAFF1FC5B3A291C9
:10355000F0F1FFFF8988888860510020BC5100206D
:10356000A86501008CFFFF1FEC5000200C0A002012
:1035700030FAFF1F8C5100202DE9F04F87B0FEF785
:103580000FFDFDF781FF07F009FF964BDFF8A492CE
:1035900018609548954F964DDFF89C8206F034FEF2
:1035A0000121914806F056F802218F4806F04CF8A8
:1035B000002211468C4806F043F808228D498A48BB
:1035C00009F0C2FC0121884806F03EF810220021D3
:1035D000854806F035F812228749834809F0B4FC83
:1035E000814809F03FFD0721844801F0D5FF0E21F5
:1035F000824802F02FF80C21804801F0FDFFCA46F6
:103600000024002345F8043B7D4809F02BFD7C484D
:1036100009F028FD013405217A4808F0D3FF21463E
:10362000774809F0A5FC764809F01CFD21466E4854
:1036300009F09EFC042274496B4809F085FC6A4835
:1036400007F01EF85AF8042B7049D2B2A1F10C0011
:103650004FF0384303F064FF58BB1C216C4808F05E
:10366000B1FF674809F0FEFC06226A495E4809F08E
:103670006BFC5D4809F0F6FC5B4807F001F8042C90
:10368000BFD15A4C99F8002004F58C65284604F205
:103690006C414FF0384303F043FF002840F0CE80E8
:1036A0000B225D49504809F04FFC4F4806F0E8FFF7
:1036B000FEE75A4800F124033B6002F08DF8012137
:1036C0004A4803F031FE014600287AD0DFF84CB1B9
:1036D000ABF23C41584602F0B7FA0028BDD097F84B
:1036E0003C3413F0700FB8D0ABF23C40C8F800B0D7
:1036F00003F07EFD08210646494808F063FF314685
:103700003F4809F035FC3E4809F0ACFC30460BF070
:1037100055F844490BF0A6F8064638790BF04EF8F8
:10372000014630460BF09EF80BF088FA06460BF186
:10373000240004F0EDF80BF03DF83A490BF092F854
:103740000BF07CFA0A218346374808F03BFF5946C4
:1037500000230A222A4809F0D5FC294809F082FCF6
:10376000C72E8CBFC83E0026112145F8046C2F4897
:1037700008F028FF55F8041C214800230A2209F00C
:10378000C1FC1F4809F06EFC002355F8041C1648C4
:103790000A2209F0B7FC01222549134809F0D4FB9D
:1037A000594600230A22104809F0ACFC0E4809F0E3
:1037B00059FC0D4806F064FF4FF47A7007F068FF7B
:1037C0005DE70A4803F0B0FD00283FF446AFDFF89C
:1037D0004CB0ABF23C41584602F036FA00287FF478
:1037E0007EAF3AE7704A0020BC510020744A0020A6
:1037F00068520020BC650100C865010058FAFF1F2F
:103800008CFFFF1F40650100DC650100E04E0020D9
:10381000BC660100DC660100E4660100B04E0020D9
:10382000E4650100BD37063AF0650100FC65010062
:1038300010660100BC5000206453002004F23C409C
:10384000256001F0C9FF0121204603F06DFD01460E
:10385000002800F07E83A84C04F23C45284621460F
:1038600002F0F2F900283FF41BAF94F83C3413F057
:10387000700F3FF415AFA14EC8F80050FEF714F9D1
:10388000FDF702FEFEF70CFC32689D4B9A4200F2F7
:10389000B7839C4F9A4B3A689A4200F2AA839A4B9C
:1038A0001B78172B00F29D83984B1B783B2B00F263
:1038B0009083974B1B78172B00F28383954B1B78D3
:1038C0003B2B00F27683DFF89082D8F80030012B92
:1038D00006D9002319460C20C8F8003007F0CAFBAF
:1038E0008D4B1B68052B00F25C83DFF8709299F812
:1038F0000030082B00F24D83884B1A680F2A00F223
:103900004183874D874C082007F078FE20BB2B6849
:1039100001332B6002E00A2007F0BAFE082007F00E
:103920006DFE0028F7D0D8F800302A68B3FA83F18A
:103930000B2A4FEA5111D8BF0021002940F006831D
:10394000A3F10103B3FA83F30F2A4FEA5313D8BF4D
:103950000023002B40F0FA82734806F055FC012149
:10396000714805F077FE02216F4805F06DFE0022D8
:1039700011466D4805F064FE07F010FD6B4B2060AA
:103980001A682B68821A02920F2B28D8DFE813F0EE
:1039900032021902D1029202DB019D01640126016B
:1039A000E8009A0082006A005E0052003B001000AE
:1039B000584B3B22002118789A46FEF79DF95C4946
:1039C0008AF800000722584809F0BEFA9AF8001059
:1039D00009292ADD544800230A2209F093FBFFF746
:1039E00043F907F0DBFC3721FFF71CFB4E4806F0DC
:1039F00047FE0A2007F04CFE029BB3F5167F82DDDE
:103A000007B0BDE8F08F424B1722002118789A4684
:103A1000FEF772F947498AF800000722424809F088
:103A200093FA9AF800100929D4DCFFF717F99AF8ED
:103A30000010CFE7354B3B22002118789A46FEF75D
:103A40005BF908228AF800003B49BCE72E4B17229D
:103A5000002118789A46FEF74FF908228AF80000EC
:103A60003649B0E7052236492F48DFF8ECA009F0C7
:103A70006BFA01220021D8F80000FEF73DF9C8F8E2
:103A80000000002800F078820128A8D12D48FCF71A
:103A900007FFA4E70822012199F80000FEF72CF99E
:103AA000052289F8000028491F4809F04DFA002333
:103AB0000A2299F800101C4809F024FB1A4809F062
:103AC000D1FA8CE7144B002106221868FEF714F98E
:103AD0001E4B114A106053F820000AF06FFE1C497B
:103AE0000AF074FF0AF014FA02460B460E48194910
:103AF00009F0FAFA73E700BF744A00203CFAFF1F8E
:103B0000A086010048FAFF1F340A002060520020FE
:103B100090510020F84E002030FAFF1F00FAFF1FDE
:103B2000E8500020EC4E0020BC510020704A0020DC
:103B3000B4660100AC660100A06601009466010055
:103B400074660100846601008C66010014FAFF1F90
:103B500000007A4468660100F851002038FAFF1F1F
:103B600004F0A0FDDFF824B3DFF824A3CBF80000B5
:103B70003B220021FEF7C0F8DBF80030CAF8000055
:103B800098421DD0206804F0C3FD8346206804F0ED
:103B900077FD05902068DAF800A004F095FD049008
:103BA000206804F0A3FD0390206804F0C3FD039A8D
:103BB00000920190049B059952465846FEF77CF806
:103BC0000722A849A84809F0BFF907F0E7FB04F06D
:103BD00069FD0146A44809F0CBF900E704F050FD67
:103BE000DFF8B0B2DFF8B0A2CBF800003B22002132
:103BF000FEF782F8DBF80030CAF8000098421DD0CA
:103C0000206804F085FD83462068DAF800A004F0FF
:103C100049FD0590206804F057FD0490206804F0E9
:103C200065FD0390206804F085FD039900910190E3
:103C3000049B059A51465846FEF73EF807228B49E9
:103C4000894809F081F907F0A9FB04F019FD014644
:103C5000854809F08DF9C2E604F05AFDDFF83CB260
:103C600017220021CBF80000FEF746F8DBF8003001
:103C7000984282461BD0206804F002FD83462068EB
:103C800004F010FD0590206804F01EFD04902068EB
:103C900004F02CFD0390206804F04CFD0399009182
:103CA0000190049B059A59465046FEF705F80522F7
:103CB0006F496D4809F048F907F070FB04F028FDE2
:103CC0000146694809F054F989E604F0FDFCDFF883
:103CD000D0B1DFF8D0A1CBF800001F220121FEF700
:103CE0000BF8DBF80030CAF8000098421DD02068BD
:103CF00004F00EFD8346206804F0C2FC05902068A5
:103D000004F0D0FC04902068DAF800A004F0EEFC87
:103D10000390206804F00EFD039B0093019053462E
:103D2000049A05995846FDF7C7FF042251494E48A9
:103D300009F00AF907F032FB04F0C6FC01464A48D4
:103D400009F016F94BE604F0D1FCDFF85CB1DFF8BE
:103D50005CA1CBF800000C220121FDF7CDFFDBF8C0
:103D60000030CAF8000098421DD0206804F0D0FC52
:103D70008346206804F084FC0590206804F092FCDF
:103D80000490206804F0A0FC03902068DAF800A0FA
:103D900004F0D0FCCDF800A00190039B049A059993
:103DA0005846FDF789FF062233492F4809F0CCF821
:103DB00007F0F4FA04F09AFC01462B4809F0D8F811
:103DC0000DE645F2604201213068FDF795FF2B4971
:103DD00030600422244809F0B7F83168224809F01D
:103DE000C7F801222649204809F0AEF81E4809F01C
:103DF00039F9F4E5DFF8B8A09AF80030002B40F06C
:103E0000B0800A221F49184809F09EF8042007F0E4
:103E1000F5FB8246032007F0F1FBBAF1000F7FF4B7
:103E2000DEAD00287FF4DBADFDF7C8FFFEF738F903
:103E30001548FCF735FD0C4806F022FC40F2DC503A
:103E400007F026FCFEF710FF07F0A8FA3721FFF76E
:103E5000E9F8054806F014FC0A2007B0BDE8F04F69
:103E600007F016BC60660100BC51002058660100D6
:103E7000506601004866010040660100E4640100EC
:103E80002C66010014660100206601002C520020FF
:103E90003051002070510020E84E0020040A00201C
:103EA000E45000202C5100205C52002034510020AE
:103EB000F04E002004F03EFCDFF880B1DFF880A176
:103EC000CBF8000040F634024FF4FA61FDF714FF1E
:103ED000DBF80030CAF8000098421CD0206804F0DB
:103EE00017FC8346206804F0CBFB0590206804F0A3
:103EF000D9FB0490206804F0E7FB0390206804F0ED
:103F0000F5FBDAF80030049A05998DE80900039B67
:103F10005846FDF7D1FE05223D493E4809F014F808
:103F200007F03CFA04F006FC01463A4809F020F894
:103F300055E5394A38680021FDF7DEFE374938601B
:103F40000422344809F000F8396847E700232B6061
:103F500002E5204603F0E8F900287FF47CACFFF787
:103F60009FBBFEF79DF84FF000038AF8003007F082
:103F700015FA2B4B186044E72A48FCF791FCDAF855
:103F8000000081E5042211460F201A6007F072F844
:103F9000B7E4082319460E2089F8003007F06AF8C4
:103FA000AAE40623204A19460D20136007F062F8A0
:103FB0009BE400231D4A19460B20137007F05AF8A2
:103FC00081E400231A4A19460A20137007F052F8B8
:103FD00074E40023174A19460920137007F04AF8C1
:103FE00067E40023144A19460820137007F042F8CA
:103FF0005AE43C23194604203B60FEF739F84EE4AE
:104000003C23194600203360FEF732F841E400BF3C
:1040100038660100BC51002080510100306601006B
:10402000704A00207C66010030FAFF1FF84E002025
:104030009051002060520020340A002024520020B9
:104040006C5100202DE9F04F8FB072B6C549C64BB8
:10405000C64841250E2480220D70047019461A703E
:104060000B78C14A1806FBD5C14BC2481D78C24C1B
:10407000C2490570033B247809781B78C3704470EB
:10408000817062B672B6B749B84C41260F258023BD
:104090000E702570114613700B781B06FCD5B44CBE
:1040A000B549B64AB64B2478097812781B78C371A3
:1040B00004714171827162B6B24BB34FB34EDFF8F7
:1040C000249300240F2115220A254FF014084FF4E1
:1040D000FA705960DA601D60C3F8088007F0D8FAFA
:1040E00064203C6007F0D4FA4FF430533B60642006
:1040F00007F0CEFA4FF434533B60642007F0C8FA5F
:104100002A463168A248234608F0FCFFA04808F080
:10411000A9FF4FF47A7007F0BBFA2A4631689C4831
:10412000234608F0EFFF9A4808F09CFF4FF47A709E
:1041300007F0AEFA2A46234631689548954D08F0B7
:10414000E1FF934808F08EFF934800F071FF21468D
:10415000102007F061FA204606F0E4FD012102205C
:1041600007F05AFA0121022007F024FA0121052064
:1041700007F052FA0121052007F01CFA4FF4FA600B
:1041800007F086FA2146052007F014FA834B012236
:10419000214605201A7007F00DFA814B1B68022199
:1041A000012B4FF0040008BFC9F8008007F034FA73
:1041B0000221032007F030FA0221082007F02CFA30
:1041C00007F0ECF8774B2860984240F3B98101235F
:1041D0003C2202217448754E754F764C06F046F924
:1041E0008C2007F055FA704806F00EF801216E4851
:1041F00005F030FA02216C4805F026FA002211463B
:10420000694805F01DFA0A226B49674808F09CFED0
:10421000654808F027FF644806F032FA624805F066
:10422000F3FF0121604805F015FA02215E4805F010
:104230000BFA002211465C4805F002FA0A225E4998
:10424000594808F081FE584808F00CFF564806F01F
:1042500017FA6E21594808F009FBD6F8008057F884
:1042600028A050460AF0AAFA102120605046FDF717
:104270007FFF494800F0DCFE4046FEF7EBFAFFF70F
:104280007BF9366857F8267038460AF097FA1021FD
:1042900020603846FDF76CFF3F4800F0C9FE30460D
:1042A000FEF7D8FA464801F097FA46490EAE01F2F9
:1042B0003C4001F0C9FC444B46F8343D00238DF8E6
:1042C00014308DF815308DF808308DF810303F4AD5
:1042D0003B49462305A84FF47A77039701F034FC55
:1042E0009DF8143053B12922394905A801F0B6FED2
:1042F000304608F0B7FE05A801F06EFA2A48354F9F
:10430000DFF8E4A005F080FF0121274805F0A2F9BD
:104310000221254805F098F900221146224805F0AF
:104320008FF93B683C2B07DDB3F5967FD4BF3C2368
:104330004FF49673CAF8003007F030F8DFF8AC801D
:104340002549DAF80030254ED8F80020096890FB9E
:10435000F3FE286003FB0E33214833600129134428
:10436000036045E0070002400000024006000240F2
:104370000B000240545100200A0002400900024094
:1043800008000240BC50002010D0034000D0034081
:104390008CFFFF1FEC4E00204C530020F94E0020F4
:1043A000605100207FC18556BC51002030FAFF1FAC
:1043B00014FAFF1F08520020F06601000082FF1F60
:1043C000B04E0020744A0020686201000C630100B6
:1043D000B063010048FAFF1FF8510020F44E00209E
:1043E0005C51002004FAFF1F34FAFF1F3CFAFF1F44
:1043F00000F0AA8010460AF0E1F92168DFF88CA1EC
:10440000DFF88CB10AF02EFA4FF06E510AF02AFA5A
:104410004FF074510AF026FA09F07AFD09F004FB16
:1044200000224C4B09F0C8FD0AF076F83A68D9F83A
:104430000040494BCAF80000141B24EAE47983FBCE
:1044400009234B444FEAE970C0EBE32009F04EFD2D
:1044500009F072FB0AF060F8404C414BCBF80000C9
:1044600004FB009483FB04232344E017C0EB631098
:1044700009F03CFD09F060FB0AF04EF8DFF814A1EA
:10448000DFF814910346A0EB001004EB8004102128
:104490003448C9F80030CAF8004008F093F8DBF857
:1044A0000010314808F064FDD9F800102E4808F0DB
:1044B0005FFDDAF800102C4808F05AFD2A4808F091
:1044C000D1FD0821294808F07DF8D8F800102648C9
:1044D00008F04EFD244808F0C5FD0821244808F0E6
:1044E00071F83968204808F043FD1F4808F0BAFD0C
:1044F0000E21204808F066F82868FDF775FC0C21AD
:104500001D4808F05FF83068FDF76EFC33682C68D2
:104510001A481C1B152108F055F82146124808F0CE
:1045200027FD114808F09EFD1549164B00204FF05D
:10453000FF3208601A60FDF719F80FB0BDE8F08F80
:10454000114806F031FF42E6FDF794FCD8F8002050
:1045500050E700BF00004040C5B3A291F0F1FFFF5B
:1045600089888888A86501008CFFFF1FFC66010010
:104570000867010058650100146701002467010005
:10458000080A00202852002080C18556F4510020DE
:10459000FC5100200C5200208C510020002070475C
:1045A00000207047F8B5C34C012605460671204629
:1045B00000F03EFD052007F06BF8297A204600F058
:1045C000E3FD2046002100F08DFC2046302100F064
:1045D00089FC2046402100F085FC6021204600F047
:1045E00081FC204600F0B8FE297A204600F0CCFD80
:1045F0002046002100F076FC2046262100F072FCC7
:104600002046002100F06EFC6C21204600F06AFC80
:10461000204600F0A1FE297A204600F0B5FD204694
:10462000002100F05FFC2046282100F05BFC3146B1
:10463000204600F057FCF221204600F053FC2046B3
:1046400000F08AFE297A204600F09EFD20460021D7
:1046500000F048FC20462C2100F044FC20460F21AD
:1046600000F040FC2221204600F03CFC204600F0F7
:1046700073FE297A204600F087FD2046002100F0D5
:1046800031FC20463C2100F02DFC2046442100F066
:1046900029FC4621204600F025FC204600F05CFE67
:1046A00040F23713EB80297A204600F06DFD20465A
:1046B000002100F017FC2046242100F013FC3146B5
:1046C000204600F00FFC3721204600F00BFC20466E
:1046D00000F042FE297A204600F056FD20460021D7
:1046E00000F000FC2046302100F0FCFB2046402179
:1046F00000F0F8FBFF21204600F0F4FB204600F01C
:104700002BFE297A204600F03FFD2046002100F0D4
:10471000E9FB2046022100F0E5FB2046002100F0E5
:10472000E1FB7321204600F0DDFB204600F014FE83
:104730004FF4C87006F0ACFF297A204600F024FD43
:104740002046002100F0CEFB20462E2100F0CAFBBF
:1047500020461D2100F0C6FB1D21204600F0C2FBB3
:10476000204600F0F9FD297A204600F00DFD204694
:10477000002100F0B7FB2046042100F0B3FB2046E7
:10478000002100F0AFFB0421204600F0ABFB2046E7
:1047900000F0E2FD297A204600F0F6FC20460021D8
:1047A00000F0A0FB2046062100F09CFB314620468D
:1047B00000F098FB3021204600F094FB204600F0EA
:1047C000CBFD297A204600F0DFFC2046002100F0D6
:1047D00089FB20460A2100F085FB2046002100F0DD
:1047E00081FB1021204600F07DFB204600F0B4FD47
:1047F000297A204600F0C8FC2046002100F072FB18
:1048000020460E2100F06EFB2046002100F06AFBDE
:104810000021204600F066FB204600F09DFD297A2D
:10482000204600F0B1FC2046002100F05BFB204652
:10483000102100F057FB20463C2100F053FB3C21A7
:10484000204600F04FFB204600F086FD297A2046E6
:1048500000F09AFC2046002100F044FB2046222173
:1048600000F040FB20467F2100F03CFB7F212046EA
:1048700000F038FB3627204600F06EFD297AEF80E5
:10488000204600F081FC2046002100F02BFB204652
:10489000242100F027FB2046002100F023FB3946AD
:1048A000204600F01FFB204600F056FD6E72304699
:1048B000F8BD00BF4C5300200B462DE9F04145499F
:1048C0000546184609F0CEFF434909F0C3FE0AF039
:1048D000B5F9044600284CD080281FD92B79002434
:1048E00026462BBB297A3D4800F04EFC00213B4870
:1048F00000F0F8FA2221394800F0F4FA314637483E
:1049000000F0F0FA2146354800F0ECFA334800F0A8
:1049100023FDB0FA80F04009BDE8F081C0F18004C9
:104920002B7944EA0424C4F30726E4B2002BD9D03F
:10493000EF88297A294827F010074FF00008EF8008
:1049400085F8048000F020FC4146244800F0CAFAB3
:104950002421224800F0C6FA390A204800F0C2FAA1
:1049600007F0EF011D4800F0BDFA1C4800F0F4FC10
:10497000B8E701232B71297A184800F005FC21467D
:10498000164800F0AFFA2221144800F0ABFA7F215C
:10499000124800F0A7FA7F21104800F0A3FA0F4850
:1049A00000F0DAFCEE88297A0C4846F01006B6B220
:1049B000EE8000F0E9FB2146084800F093FA24213C
:1049C000064800F08FFA310A044800F08BFAF1B281
:1049D00099E700BF00000143EE7CFF3E4C530020EE
:1049E00070B505460C4619B101293BD0002070BDB9
:1049F000017A424800F0C8FB2146404800F072FAB4
:104A000020213E4800F06EFA21463C4800F06AFA48
:104A100055213A4800F066FA384800F09DFC0646F9
:104A20000028E3D1EC88297A344844F00404A4B285
:104A3000EC8000F0A9FB3146304800F053FA242105
:104A40002E4800F04FFA210A2C4800F04BFAE1B250
:104A50002A4800F047FA294800F07EFCB0FA80F0BE
:104A6000400970BD017A254800F08EFB00212348E3
:104A700000F038FA2A21214800F034FA21461F4874
:104A800000F030FA73211D4800F02CFA1B4800F0AA
:104A900063FC04460028A9D1297A184800F074FB69
:104AA0002146164800F01EFA2021144800F01AFA98
:104AB0002146124800F016FA8821104800F012FA38
:104AC0000E4800F049FC044600288FD1EE88297A70
:104AD0000A4826F00406EE8000F056FB21460748FF
:104AE00000F000FA2421054800F0FCF9310A0348DF
:104AF00000F0F8F906F0FB01AAE700BF4C530020D4
:104B000010B5044608F096F8204610BD024A034945
:104B100003480AF061BA00BFFCF9FF1F014B000017
:104B2000A45200201B4A1C4B11681C48096970B430
:104B300099421279027009D2194A127832B3194A8D
:104B40004FF08041116003F5807402E01C46A3F52C
:104B50008073154A154912680D68AAB1A5B1144EA3
:104B60003088402810D841000A444030294402329D
:104B70000231308033F9040B22F8020F9C4233F9E2
:104B8000020C21F8020FF5D870BC704703F5807451
:104B9000DFE700BFB4520020B8F2FF1F1F800040C3
:104BA000AE52002008E200E0BC520020B0520020CB
:104BB000AC520020F8B5064607F088FE0446E8B17E
:104BC00007F084FE054600283AD072B61F4B1A88BB
:104BD0007F2A19D8002C31D01D490A6842B162B62B
:104BE000204607F0C7FE2846BDE8F84007F0C2BEE1
:104BF00018480C601A80056062B6F8BD054672B6AA
:104C0000124B1A887F2AE5D9114A12491768146095
:104C100000220C681A800D6062B63946304607F0F3
:104C2000D3FE384607F0A6FE30462146012207F0A3
:104C3000CBFE2046BDE8F84007F09CBE62B6F8BD4A
:104C4000204607F097FE2C46BFE700BFAC5200207D
:104C5000BC520020B0520020F8B5284C284E204607
:104C6000012107F049FF00F083F8264B264A274828
:104C70004FF480611960236800211A6099802279BD
:104C8000186102F1804202F5043240F20110D8802E
:104C90009E614FF48075022006278E26DD82D96042
:104CA000DD8398609F8398821170167007F0CAFEAA
:104CB0001749184B2279184F08701A7039682279F1
:104CC000164C174D174E41F0124141F0010153119E
:104CD00039609B00206803F1604302F1100703F57F
:104CE000614302F01F02012140F0104001FA02F27C
:104CF000206045F827601A60F8BD00BFB45200205C
:104D000000FEFFFF14B00440A0F00240B8F1FF1F06
:104D1000AE5200201B80004080F0024000F00240B4
:104D200000F4FF1F254B0000024A034903480AF024
:104D300053B900BFFCF9FF1F014B0000B452002023
:104D4000024A034903480AF047B900BFFCF9FF1FB4
:104D5000014B0000C0520020024A034903480AF0F8
:104D60003BB900BFFCF9FF1F014B0000C8520020F7
:104D7000284B29491A68294842F400421A600A68F7
:104D800042F002020A601A6842F002021A600368E6
:104D9000002B3DDB224B1B68002B39DB214A4FF0F7
:104DA000864313601368002BFCDBF0B51E4C1F48D4
:104DB000DFF8ACE01E491F4B1F4A204F204E214D0B
:104DC00041F2100CC4F800C0002404600120CEF8A9
:104DD0000000DFF890E0C1F800E04FF48031196086
:104DE000194B1360DFF880E0184A3A60346028609D
:104DF0001748CEF80000174CB9671748174946F80E
:104E0000503C4FF4C0632A61236003600B60F0BD27
:104E1000704700BF3C8004404080044000F00240E6
:104E200080F0024000F1024004F1024060F00240D4
:104E300008F002400CF0024010F0024014F0024072
:104E4000E0F0024084F002401B0F0100000F0F0F42
:104E50000300004708B004400CB0044018B0044000
:104E600004F002400300000788F00240024A0349B0
:104E700003480AF0B1B800BFFCF9FF1F014B000066
:104E8000D0520020024A034903480AF0A5B800BFE7
:104E9000FCF9FF1F014B0000D8520020024A0349D1
:104EA00003480AF099B800BFFCF9FF1F014B00004E
:104EB000E0520020024A034903480AF08DB800BFBF
:104EC000FCF9FF1F014B0000E8520020024A034991
:104ED00003480AF081B800BFFCF9FF1F014B000036
:104EE000F05200200A4B1B7813B90A4B1B786BB1A8
:104EF000094A1378202B07D810B4581C074C10709F
:104F0000E154012010BC7047012303710020704759
:104F10005E530020215300205F53002000530020E7
:104F2000704700BF024A034B10781B78C01A7047C5
:104F30005D5300205C530020064A07491378097826
:104F4000994204D90548591CC05C117070474FF054
:104F5000FF3070475C5300205D5300202453002035
:104F6000054B064A1B7812789A4286BF044AD05CE9
:104F70004FF0FF30704700BF5C5300205D530020AE
:104F80002453002070B50D4B1B78144613B90C4BFD
:104F90001B788BB10B4E3578C5F12103A34202D2A9
:104FA00001221C460271084822462844254405F087
:104FB0000DFD3570204670BD184670BD5E53002053
:104FC000215300205F53002000530020124BDB7858
:104FD00003F020034BB1114A13780133DBB2012BEC
:104FE000137012D9122006F095B910B5122003F0F3
:104FF000FF0406F08FF90A4B1B685BB109490A4AA6
:105000000C701078BDE810401847084B1B78002B37
:10501000E8D0704710BD00BF006006404853002034
:10502000FC5200205C5300205D53002021530020DF
:105030000D4A0E4BF0B500200D4C10702268DFF8C1
:1050400038E00C4F42F0400222604FF419712726DD
:105050000425202480229870CEF8001039605E70FC
:105060009D715C719A70F0BD215300200060064074
:105070003480044008A004400CA0044010B5384C13
:10508000E378DBB2D80623D510225906E2701ED58C
:1050900003F0040303F0FF02002B33D0314B3249FD
:1050A0001A68324C00230B702370002A3BD09047C3
:1050B0002378002B37D02E4B1B78294A2D49D0243A
:1050C00094701371264B012002220870DA7010BD13
:1050D0005A06DDD4A27802F0100202F0FF0042B3BB
:1050E00013F001031BD1234920480A78007890422D
:1050F00081BF1F4B501C9B5C08702371184BD02242
:105100009A7008E01C48164B174902700120C02213
:1051100008709A701B79124B0222DA7010BDC023FE
:10512000A3702379F7E71249002301220B70227044
:10513000C3E7124B124918700322122006F06AF8D6
:105140000D4923790A781F2ADBB2E4D80648007893
:105150000028E0D00B4C501CA3540870DBE700BFC4
:105160000060064044530020F85200205F530020A6
:1051700000530020605300205D530020485300205E
:10518000CD4F0000245300200548064A10B40123E7
:10519000054C037049001370217010BC704700BFAC
:1051A0005E5300205F530020005300202DE9F043A0
:1051B000594C1223E370A37803F0200383B0002B33
:1051C00055D0B423DFF86881A370D8F80030524D71
:1051D0001C460020EA78D2B29A421CBF1446012035
:1051E00096061346F6D5002840F08C804B4B1B7872
:1051F000002B33D003F1FF3E5FFA8EFE0026D8F875
:105200000040474F444D0EF1010E30464FF0020C66
:1052100017F8013F2B715FFA86F902E013F0200FB7
:1052200009D0EB78DBB293421CBF1C46012013F07F
:10523000020F1A46F2D085F803C0EA78D2B2934240
:105240001CBF14460120D30633D4930631D5D307AF
:1052500044D401367645DBD100284AD1002000290C
:105260002ED1304B00221A7003B0BDE8F0832E4DD2
:10527000DFF8BC8003F0FF022B680093009ED8F893
:10528000000005E02B680193019B9B1B0F2B1BD893
:10529000E378DBB2834218BF012213F0200F1846D7
:1052A000F0D192BB21481C4B0024B02204709A70AC
:1052B0008BE708BB184B80229A7004200029D0D0BD
:1052C000154B80229A70CCE7CAB9134B002180227B
:1052D000042099709A7003B0BDE8F083C0B90E4BFA
:1052E000B9F1000F4FF080020CBF022003209A702A
:1052F000B7E7C8F80040B1E7C8F80040DAE7C8F8F7
:105300000000E2E7C8F8004070E7C8F80030C9E7DD
:10531000C8F80040E3E700BF006006405F5300208C
:10532000FF5200205E530020C05300202153002074
:1053300054FAFF1F0548064A10B40123054C0370B8
:1053400049001370217010BC704700BF5E530020ED
:105350005F530020005300200121FFF727BF00BF4B
:10536000044B054A1A604FF47A71002299601A7151
:105370001A7370474C5300206C67010010B4047F0F
:105380004160022CC26002D010BC07F06DBC836883
:1053900010BC1847F0B4464B464A186BDC6A0179DA
:1053A0001170454922790A709A6A00790870002ABA
:1053B00046D05968C9688A423ED82168CC8B2404FB
:1053C00002F1FF3065D4C0F30E00C883C88B80B2F1
:1053D000C882196B0968C88B000452D4C2F30E004E
:1053E000C883C88B002480B212F1FF32C88218BF74
:1053F00001229C62D96A2E4809680D6800F12404D4
:10540000A54236D00068C46814F0804F0C680D685F
:1054100015BF248824780235013544F000440D601E
:105420004463196B254B09791970214912B1CA6A75
:1054300012791A70F0BC7047521A9A620122D9E7A9
:10544000586B196805681E4C0A63CC62CC682D68DD
:105450001C4E24F080440327B542CC6083F82570AD
:105460001FD1037F4260022BC2601ED0F0BC07F048
:10547000FBBB016890F82400CC6840F00040486312
:10548000CFE7CC8BC2F3080004F47E442043C883EA
:10549000A7E7CC8BC0F3080004F47E442043C88304
:1054A00094E72B461146F0BC18478368F0BC1847B8
:1054B00058FAFF1F1F8000401C8000401B800040E6
:1054C00000000FFF7D53000090E80C00F0B41C6852
:1054D00059682568164F174E29432160164D174904
:1054E0001760D66015611160417A154A5C180A315F
:1054F00094F8244053F8215002EBC40149680D6030
:10550000017A5C1803EB8101247ECD6902EBC401B2
:1055100049680D60817A581803EB810390F83000D8
:10552000596B02EBC002F0BC53681960704700BFB2
:1055300001401F00011000380110007800001F809A
:10554000E06D01004268036805CA10B40468224394
:105550000260D868840100F0E06205D5080900F413
:10556000706021F470410143D8681143814209D031
:105570001A68500408D40748186041F08040D96088
:1055800018611A6010BC704741F08042D96010BCAD
:105590001A61704701401F004268437A134493F830
:1055A00024308B4209D0F0B492F824408C4205D0CC
:1055B00092F825408C421AD0F0BC70470024214656
:1055C0001668556836682E420FD00A4D05EBC303A6
:1055D00000275E685318376093F8243005EBC30545
:1055E0000A316B6852F821201A604472E4E7012402
:1055F0002146E5E7E06D01004268037A13441B7E13
:105600008B4207D0F0B4147E8C4204D0547E8C427E
:105610001AD0F0BC704700242146166855683668D9
:105620002E420FD00A4D05EBC30300275E685318C6
:1056300037601B7E063105EBC30502EB81026B6808
:1056400052681A600472E4E701242146E5E700BFCE
:10565000E06D01004268837A134493F830308B4246
:1056600009D0F0B492F830408C4205D092F8314025
:105670008C421BD0F0BC7047002421461668556848
:1056800036682E4210D00B4D05EBC30300275E6831
:105690005318376093F830300C3105EBC30502EB3B
:1056A00081026B6852681A608472E3E70124214624
:1056B000E4E700BFE06D010038B590F90230002B3F
:1056C000044612DBA56805F1240001F0FDF928B9B4
:1056D000637843F001036370002038BD05F50C705A
:1056E00001F0F2F90028F3D038BD8068A1692430B8
:1056F000012201F0A3F90028EAD0A38803F00F03E8
:105700005B01C518E4D0C35CE52BE1D023780B4ADC
:105710001B0744BFE369EB61236A12686B831B0CB0
:10572000AB8232B105F1160105F1180090472B8BC1
:105730006B82A37803F07F03A370C3E76853002054
:105740002DE9F041037803F020032BB903F0FF04A7
:105750004269204B9A4203D900263046BDE8F081C9
:1057600083780169054663F07F038068AB7005F1BB
:10577000100201F01DFB06460028EDD02969A8683B
:1057800001F0CAF90746A86839462430052201F01D
:1057900055F980460028DFD04FF4007221460AF008
:1057A0003DF8AB681A79012A0FD9012403E0AB68F0
:1057B0001A79A24209D9E1191868424602F014F98F
:1057C0000134E4B20028F2D1C6E76B6903EB422250
:1057D0006A61C2E7FFFD1F0038B5037804461BB9B4
:1057E00000232370012038BD90F90230002B14DB18
:1057F000A56805F1240001F067F938B9637843F032
:105800000103637000232370002038BD05F50C7080
:1058100001F05AF90028F1D0E2E78068A16924304C
:10582000012201F00BF90028E8D0A38803F00F0350
:105830005B01C518E2D0C35CE52BDFD023780B4AAF
:105840001B0744BFE369EB61236A12686B831B0C7F
:10585000AB8232B105F1160105F1180090472B8B90
:105860006B82A37803F07F03A370C1E76853002025
:105870002DE9F0470D7815F0700F88B003D10020A6
:1058800008B0BDE8F087C32304460D4600F07EFE55
:105890000028F4D05D4B6269012610219A42A6705F
:1058A0002170ECD881236218A3702169A06801F0EF
:1058B0007FFA0028E3D02169A06801F02DF907469E
:1058C000A06839462430052201F0B8F88046002847
:1058D000D5D04FF40072002109F0A0FF08E0F119C3
:1058E0000068424602F080F80136F6B20028C6D0C1
:1058F000A0680279B242F2D86369217826692662EB
:1059000003EB42236361002974D124300122A16991
:1059100001F094F80028B2D0A68806F00F0610EB2C
:105920004616ACD01023F372B26830687168F36821
:10593000B6F81490B6F81AA06F460FC730697169AF
:10594000B269F36908AE0FC74FF02E084FF020334D
:10595000216AA06806F8208DCDF80530CDF8013019
:10596000ADF8093001F0D8F8A3680146012203F12F
:10597000240001F063F88646002880D03746ADF851
:105980001490ADF81AA00FCFCEF80000CEF8041096
:10599000CEF80820CEF80C300FCFCEF81000CEF89D
:1059A0001410CEF81820CEF81C302B6A8DF8018028
:1059B0001A0C3546ADF81A30ADF814200FCD0EF1A3
:1059C0002006CEF820007160B260F3600FCD306128
:1059D0007161B261F361A46804F1240001F074F80C
:1059E00000283FF44CAF04F50C7008B0BDE8F04758
:1059F00001F06AB813B10023236163612046FFF709
:105A00005BFE00283FF43BAFA0687EE7FFFD1F0070
:105A10002DE9F041064692B03478019200208DF8CD
:105A200024008DF8250024B90D46097811F0700F77
:105A300003D1002012B0BDE8F081144612782F2A5D
:105A40002DD00DF1040803AF002B53D04246394648
:105A5000204600F0F5FB3A46294601230028E8D00D
:105A6000019C24783046002C61D000F08FFD3A462E
:105A7000294620B93046FFF7FBFE0028D9D035462D
:105A80000FCD09AC0FC40FCD0FC433782A68226044
:105A9000002B48D100233370019C09ADD6E70134B7
:105AA000019422782F2AFAD0AD680093242209A805
:105AB000002109F0B3FE0B95EA79009B102A3ED035
:105AC000202AB6D140228DF82420012209AD8DF87C
:105AD00026200DF1040803AF63B1B7E70FCD0FC463
