:1000000000800020BD010000F9B70000B1B700007A
:10001000B1B70000B1B70000B1B70000B1B7000040
:10002000B1B70000B1B70000B1B70000F9B70000E8
:10003000F9B70000B1B7000065D30000B5D50000E6
:10004000F9B70000F9B70000F9B70000F9B70000F0
:10005000F9B70000F9B70000F9B70000F9B70000E0
:10006000F9B70000F9B70000F9B70000F9B70000D0
:10007000F9B70000F9B70000F9B70000F9B70000C0
:10008000F9B70000F9B70000F9B70000F9B70000B0
:10009000F9B70000F9B70000F9B70000F9B70000A0
:1000A000ED560000F9B70000F9B70000F9B70000FD
:1000B000F9B70000F9B70000F9B70000F9B7000080
:1000C000F9B70000F9B70000F9B70000F9B7000070
:1000D000F9B70000F9B70000F9B70000F9B7000060
:1000E000F9B70000F9B70000F9B70000F9B7000050
:1000F000F9B7000085DC0000F9B70000B1DD0000B1
:10010000F9B70000DDDE0000F9B70000F9B7000024
:10011000F9B70000F9B70000F9B70000F9B700001F
:10012000F9B70000F9B70000F9B70000F9B700000F
:10013000F9B70000F9B70000F9B70000F9B70000FF
:10014000F9B70000F9B70000F9B70000F9B70000EF
:10015000F9B70000F9B70000F9B70000F9B70000DF
:10016000F9B700005DBF0000F9B70000F9B7000063
:10017000F9B70000F9B70000F9B70000F9B70000BF
:10018000F9B70000F9B70000F9B70000F9B70000AF
:10019000F9B70000F9B70000F9B70000F9B700009F
:1001A000F9B70000F9B70000F9B70000F9B700008F
:1001B000F9B70000F9B70000F1D00000564B4CF23F
:1001C000205210B51A804DF628121A8000BF00BFC9
:1001D00000F066FB514B4FF010621A60504A9A6073
:1001E000504ADA60504A136813F4807304D14F49BF
:1001F0000B604FF4A85313604D4B1A78110703D5C9
:100200001A7842F008021A704A4B4B492A221A7097
:100210004A4A4B4B8B4204D252F8040F43F8040B6A
:10022000F8E7484B484900228B4202D243F8042B9E
:10023000FAE74649464A002352F8230041F82300D2
:1002400001336F2BF8D1434B434A802103F8011B44
:100250009342FBD1414B3D4A1A60414B8A221A70AE
:10026000A3F5805324225A70A0221A709A7992071B
:10027000FCD59A79D406FCD43A4A937903F00C035E
:10028000082B384BF9D105221A7143225A719A79F9
:100290009006FCD5334A9179324B4906FBD5324A58
:1002A0004FF0817111600521516020221A709A79F6
:1002B00002F00C020C2AFAD12C4B2D4A1A602D4B5D
:1002C0002D4A1A6000225A60072243F8042C2B4A58
:1002D000C3F80C2D62B60BF0B1FB144B1B68DA07A8
:1002E00005D527480BF098FB264B274A1A60274B69
:1002F0001B785B0609D5234C234B22689A4204D114
:100300001F480BF089FB002323600FF0B3F90BF0BB
:1003100077FA0DF015FCFEE70E2005403080044012
:10032000823F04000100002B10D0034014D0034092
:1003300002D0074000E00740E80900207079010082
:1003400020F9FF1FE8090020FC56002000F4FF1FE1
:100350000000000000E400E05FE400E008ED00E0E1
:1003600000500640004006404480044004800440A1
:10037000C010050014E000E03F190100000020203B
:100380000E5DAA5B1CE00340A5C3945A00F0074031
:10039000FFFFFFFFFFFFFFFFFFFFFFFFFFFFFFFF6D
:1003A000FFFFFFFFFFFFFFFFFFFFFFFFFFFFFFFF5D
:1003B000FFFFFFFFFFFFFFFFFFFFFFFFFFFFFFFF4D
:1003C000FFFFFFFFFFFFFFFFFFFFFFFFFFFFFFFF3D
:1003D000FFFFFFFFFFFFFFFFFFFFFFFFFFFFFFFF2D
:1003E000FFFFFFFFFFFFFFFFFFFFFFFFFFFFFFFF1D
:1003F000FFFFFFFFFFFFFFFFFFFFFFFFFFFFFFFF0D
:10040000FFFFFFFFFFFFFFFFFFFFFFFFDEF9FFFF23
:1004100010B5054C237833B9044B13B10448AFF33E
:1004200000800123237010BDE809002000000000B7
:100430006C790100084B10B51BB108490848AFF3AF
:1004400000800848036803B910BD074B002BFBD0A0
:10045000BDE81040184700BF00000000EC09002074
:100460006C790100E80900200000000000207047BE
:10047000704700BF027C02F0080202F0FF0332B1B5
:10048000C36A406A181A48BF6FF0004070471846A8
:10049000704700BFF8B55548554D564C297803783C
:1004A0002278DFF868E1544F544E120442EA0323E5
:1004B000FF222A700270802022708EF800003870AF
:1004C000B2794F480B4312F00C0FC36002D1B379DD
:1004D000DC063DD4494A9379C3F38103032B40D012
:1004E000464B9A79C2F38102022A42D0434A937959
:1004F000C3F38103022B53D0404A9379C3F38103A2
:10050000022B61D03D4A9379C3F38103012B51D073
:100510003A4A9379C3F38103012B5CD0374B9A7924
:1005200012F00C0F03D19A79D20600D49B79354D85
:10053000354B2A7853F82240D4B1236820469B6873
:1005400098472B7804EB83046468002CF5D1F8BD40
:10055000B3799806EBD5294A9379C3F38103032B2A
:10056000BED19379D906BBD493799B06DFD4B7E784
:10057000F8BD9A79D706B9D49A799606B6D559783E
:1005800001F0020101F0FF020029AFD120211A7011
:100590001A461970937903F00C030C2BFAD1C6E7B5
:1005A0009379DD06A8D493799C06A5D4537898074F
:1005B000BDD5A1E79379DF06AAD593799E06A7D486
:1005C00053789D07B3D4A3E79379D9069AD4537887
:1005D0009B07ACD496E79379DC069FD59379980670
:1005E0009CD453789907A2D598E700BF06C007406E
:1005F00005C0074007C0074009C00740004006404B
:10060000D4560020AC5300206C53002008C0074093
:1006100090F92410104B03604B1C06D0F0B40F4E21
:1006200056F82130984201D0F0BC70470C4F57F873
:10063000213033B18D0000245A1953685460002BC7
:10064000FAD1084C23780022013B237047F821207F
:1006500046F82120E8E700BF0C6901008C53002018
:100660006C530020AD53002038B590F924506B1C1A
:100670001BD00E4B0E4953F825400E4BEDB24FF0F8
:10068000FF320D701A6084B1AD0002E02C44646842
:100690005CB194F82530002BF8D0236820462C4418
:1006A0001B6898476468002CF3D138BD6C53002058
:1006B000AC530020B8F3FF1F704700BF90F924101F
:1006C000104B03604B1C06D0F0B40F4E56F821308F
:1006D000984201D0F0BC70470C4F57F8213033B12D
:1006E0008D0000245A1953685460002BFAD1084C2D
:1006F00023780022013B237047F8212046F821206F
:10070000E8E700BF0C6901008C5300206C53002007
:10071000AD53002090F92410104B03604B1C06D001
:10072000F0B40F4E56F82130984201D0F0BC70471B
:100730000C4F57F8213033B18D0000245A195368FB
:100740005460002BFAD1084C23780022013B23701F
:1007500047F8212046F82120E8E700BF0C69010096
:100760008C5300206C530020AD53002010B50021A5
:1007700004460CF081FCB0B1B4F8B4319BB2C3B103
:10078000B4F8B031B4F8B2219BB20133632BC8BFC7
:10079000002392B2934207D09A1D04EB82029BB2CF
:1007A0005060A4F8B03110BDD4F8B8310133C4F8AA
:1007B000B831BDE810400CF01BBC00BF103005F094
:1007C00085BF00BF00B583B002AB012203F8011D55
:1007D0001030194605F07AFF03B05DF804FB00BF46
:1007E000103005F04FBE00BF00B583B001220DF1FF
:1007F0000701103005F080FD01280CBF9DF80700AF
:100800004FF0FF3003B05DF804FB00BF103005F07F
:100810000FBF00BF2DE9F0410E4680460BF0F6F801
:10082000174D286008F0BEFA0746286808F096FAC7
:100830000446286808F080FA6401C0B204F4FF544A
:10084000BFB20443A7F2BC7744EA4724A8F80040AB
:10085000286808F095FA0746286808F049FA04461F
:10086000286808F057FAFF02640107F4FF2704F430
:10087000FF54C0F346003C4304433480BDE8F0819C
:10088000EC4E002010B504460FF0BAFD214602469A
:10089000BDE8104001480CF095BE00BFB8510020E3
:1008A000464A474B102010801B781B0734D5F0B503
:1008B000444E454D454C31782B782278DFF82CE1B9
:1008C000434F824042EA03230B43FF2280213270D0
:1008D0002A7022708EF800103970D9073D4A14D55D
:1008E0001A2393603C4F3D4E3D4D3E4C3E4910799E
:1008F00000233B7053709370D370D36033701371C7
:100900002B70237013700870F0BD1F0705D4DE062E
:1009100006D504239360E5E7704721239360E1E760
:100920009D0604D45C0604D516239360DAE7906034
:10093000D8E7180602D509239360D3E7D90502D575
:100940000A239360CEE79F0502D50D239360C9E784
:100950005E0502D50B239360C4E71D0502D51E2357
:100960009360BFE7DC0402D502239360BAE79804E2
:1009700002D507239360B5E7590402D50623936097
:10098000B0E71F0402D515239360ABE7DE0302D561
:1009900024239360A6E79D0302D522239360A1E759
:1009A000DC0202D5252393609CE71803F5D4590394
:1009B000F3D49B0244BF2323936093E700200540B8
:1009C00002D0074005C0074006C0074007C00740E7
:1009D00009C00740D456002000C0074001C00740AE
:1009E00002C0074003C0074004C0074008C00740DA
:1009F000002976D02DE9F04F0C469100631883B0A2
:100A00005D68002D57D06B185E68002E50D07318AB
:100A10005F68002F49D07B18D3F80480B8F1000F2D
:100A20003CD008EB0103D3F80490B9F1000F32D0A9
:100A300009EB0103D3F804A0BAF1000F27D00AEBA9
:100A40000103D3F804B0BBF1000F18D00BEB010386
:100A50005B6863B1194401934968FFF7C9FF019BC3
:100A600093F825201AB11A681846536898479BF8DE
:100A7000253023B1DBF8003058465B6898479AF878
:100A8000253023B1DAF8003050465B68984799F872
:100A90002530002B35D198F8253063BB97F82530E9
:100AA0001BB13B6838465B68984796F82530CBB950
:100AB00095F8253063B994F8253013B903B0BDE833
:100AC000F08F23685B68204603B0BDE8F04F1847FD
:100AD0002B6828465B68984794F82530002BEDD0AA
:100AE000EFE77047336830465B68984795F82530E4
:100AF000002BE0D0ECE7D8F8003040465B68984720
:100B0000CCE7D9F8003048465B689847C3E700BF98
:100B100090F92420531C26D01B4B2DE9F04153F8AB
:100B20002240D2B2ECB19300E1184D68B5B1E9189A
:100B30004E6866B1F1184F6837B13B445968FFF70A
:100B400057FF97F82530A3B996F8253063B995F883
:100B500025301BB12B6828465B68984794F82530F0
:100B600063B9BDE8F0817047336830465B689847E9
:100B7000EDE73B6838465B689847E5E72368204621
:100B80005B68BDE8F04118476C5300202DE9F8433D
:100B90004F4CB4F8B021B4F8B23192B29BB29A4241
:100BA00038BF6432D31A3F2B67DD4A4DD4F8AC917D
:100BB000DFF81C8105F58047002637E04FF480728E
:100BC00000210AF03BFA48460CF012FAC4F8AC6176
:100BD000B4F8B231B4F8B0219BB292B293424ED085
:100BE0000133632B86BF4FF0000E73461FFA83FE5E
:100BF000063304EB83034FF48072D3F80490C4F8F7
:100C0000AC9109F104012846A4F8B2E10AF016FA01
:100C1000B9F1000F04D048460CF0EAF9C8F8AC610D
:100C200005F50075BD424FF0000934D0A5F5807080
:100C3000B9F1000FC2D1B4F8B231B4F8B0219BB20F
:100C400092B293423DD00133632B86BFCE467346AA
:100C50001FFA83FE063304EB83034FF48072D3F84C
:100C60000490C4F8AC9109F10401A4F8B2E10AF0CF
:100C7000E5F9B9F1000FABD0A5E7BDE8F883284648
:100C80004FF48072002105F500750AF0D7F9BD42D6
:100C90004FF00009CAD14FF480420F490F4805F0C8
:100CA00015FD013005D00E4A136820331360BDE8EE
:100CB000F883012114200AF015FD0A4B0A4A1A6034
:100CC000F1E749464FF480720AF0B8F980E700BFB7
:100CD000004F0020700B0020700A0020480A0020FE
:100CE000FC4E00200CED00E00400FA0508B50849B0
:100CF000084A094B0988118008480022A3F8B4214A
:100D000005F0A2F86420BDE808400AF0FDBF00BF6E
:100D1000EC540020C4540020004F0020480A00205A
:100D20002DE9F04F95B00AF071FEDFF82893B84C2A
:100D3000C9F8000008F012F82368984200F05D82BC
:100D4000D9F80000B34EB44F08F008F82060D9F885
:100D5000000008F027F82368B0490246B0480FF0B9
:100D6000E9FA00240123AE4AAE49376007A88DF89E
:100D70001C408DF81D4005F083F9DFF8A4820021A6
:100D800010200AF085FF98F8002000232F2A8DF804
:100D90001C308DF81D3000F0B48107AC20460123D3
:100DA0009F4AA04905F008FA58B19DF81C3013F08D
:100DB000700F06D00FCC9B4D0FC50FCC0FC523680D
:100DC0002B60D9F8000007F0EDFF0446D9F80000C9
:100DD00007F0C4FF8246D9F8000007F0ADFF059088
:100DE000D9F8000007F0CCFF8346D9F8000007F0DF
:100DF0007FFF0490D9F8000007F08CFF059A049B50
:100E00000092039002932246CDF804B053468649DF
:100E100086480FF08FFA00250824376010200AF06A
:100E200045FB0EF007F84FF06A510EF057F80146F7
:100E300028460DF04BFF013C0546EFD17948DFF81D
:100E4000189205F001F87A4901F23C4005F034FAB5
:100E50004FF47A7646230BA8764A72498DF82C40D7
:100E60008DF82D408DF820408DF828400996CDF85A
:100E70001C9005F0A1F99DF82C30002B40F04F811B
:100E8000012114200AF02EFC6B4B6C4A1A6098F872
:100E90000020634900232F2A8DF81C308DF81D3067
:100EA00000F0228107A801235D4A5E4905F084F91C
:100EB00060B19DF81C3013F0700F07D007AC0FCC59
:100EC000584D0FC50FCC0FC523682B604FF47A75B2
:100ED00000240995C223554A52498DF82C400BA88D
:100EE0000BAD8DF82D408DF820408DF82840CDF8C1
:100EF0001C9005F061F90FCD514E9DF820403471E2
:100F000006F110040FC40FCD0FC4099A9DF82830C4
:100F10002968B2603373454821600FF071FA0146C9
:100F20004248484FDFF810B1DFF810A10BF088FEFF
:100F300045480CF0D5FB46E005F03EF960B19DF860
:100F40001C30384D13F0700F07AC05D00FCC0FC517
:100F50000FCC0FC523682B604FF47A750024C22391
:100F6000324A304909950BA80BAD8DF82C408DF80D
:100F70002D408DF820408DF82840CDF81C9005F0CC
:100F80001BF90FCD314C9DF820E086F804E00FC42A
:100F90000FCD0FC49DF82830099A33732968B260C9
:100FA000224821600FF02CFA014620480BF048FE41
:100FB00025480CF095FB0A200AF0A6FE3B68B3F525
:100FC0007A7F00F38A80347C21491848002C45D16F
:100FD0003B6801331A463B600FF0ACF998F80050BB
:100FE0000F4A10498DF81C402F2D4FF0010307A820
:100FF0008DF81D40A0D15478002C9DD1084604F0F6
:1010000023FF0B4901F23C4005F056F9A4E700BF6D
:1010100028520020685300201508000030690100A4
:10102000C0500020B04E00203C69010090510020CB
:10103000744A00205C6901000CED00E00400FA0530
:10104000380A0020BC5000208CFFFF1F480A0020F7
:101050009C690100EC4E0020E86801008E488F4931
:1010600007688F4C8F4A904B904D03C9206092E8DF
:101070000300A06093E8030010260123A382E3820B
:10108000E060266138460EF015F93946A061384611
:101090000DF01CFE0EF00EF9854AE0612B686684A7
:1010A00092E803005B0203F124062C2260622146D1
:1010B00002278048A3622784666005F007FB0921A8
:1010C0007D480BF0BDFD29687C480CF08FFA7B4809
:1010D0000CF006FB15B0BDE8F08F012114200AF0DA
:1010E00001FBCBF800A06EE74B78002B7FF4DAAE63
:1010F000734804F0A9FE734901F23C4005F0DCF8A6
:10110000E4E698F80130002B7FF447AE6C4804F019
:101110009BFE6C4901F23C4005F0CEF851E66A486E
:101120006A4E0FF06DF9684902460BA805F0CEFA39
:1011300014A92C2301F8383D01220DEB030005F022
:10114000C5FA06F1080707AC16F8011F00230A22AA
:1011500020460CF015FBB742F6D128465C490DF04D
:10116000BDFE4FF078510DF0B9FE14A92C260546AE
:10117000012201F8356D0DEB060005F0A7FA554B7D
:1011800018680DF001FA02270B4602460097204628
:101190000CF052FB14A9012201F8366D0DEB06008C
:1011A00005F094FA28460DF0EFF900970B46024639
:1011B00020460CF041FB14A9012201F8376D0DEB1C
:1011C000060005F083FA44480FF01AF94249024636
:1011D0000DEB060005F07AFA20460CF081FA28465D
:1011E0003E490EF019F858B928463D490EF014F85A
:1011F00018BB0BA804F028FE49E63A4E3A4FBCE56E
:101200003A4E3368002BEFD0012105200AF00EFD85
:1012100040F6B8300AF078FD002105200AF006FDFE
:10122000334A3449002313700BA80B22336005F0B6
:101230004DFA20460CF054FAD6E728222E490BA886
:1012400005F044FA20460CF04BFA0BA804F0FCFD24
:101250000025082410200AF029F90DF0EBFD4FF0CD
:101260006A510DF03BFE014628460DF02FFD013C72
:101270000546EFD116490DF031FE4FF078510DF0D3
:101280002DFE17490DF0C8FF0028B2D047F23050AC
:101290000AF03AFDDCE700BF04520020A869010013
:1012A00078520020B0690100B8690100F0510020B7
:1012B000C0690100480A0020C86901008CFFFF1FB7
:1012C000B04E0020744A002090510020435100206D
:1012D000CDCCBC405451002008FAFF1F6666464042
:1012E00000004040685300201508000050510020C5
:1012F000F94E0020646901007069010038B5154D90
:10130000FFF70EFD144BD5F8AC0100241C6018B19A
:101310000BF06EFEC5F8AC41B5F8B241B5F8B0318E
:10132000A4B29BB29C420ED00134642C28BF00248E
:10133000A31D05EB830358680BF05AFEB5F8B031D6
:101340009BB2A342F0D1A4B20123A5F8B241A5F803
:10135000B43138BD004F0020FC4E002070B5174856
:101360008EB004F071FD16490EAD01F23C4004F060
:10137000A3FF144B45F8343D00244623124A0F497D
:101380008DF8144005A84FF47A768DF815408DF845
:1013900008408DF81040039604F00EFF9DF81430BD
:1013A00053B12922094905A805F090F928460CF007
:1013B00097F905A804F048FD0EB070BDB04E0020AE
:1013C000744A0020E86801005C690100D4690100EA
:1013D000234924480B6850F8232070B592BB013391
:1013E000214A0B600125042B157031D01F4C204A77
:1013F00004F58C6612F82320304604F26C414FF05D
:10140000384306F0C5FB10B304F23C40266004F0FC
:101410001BFD2946204606F0BFFA0146D0B1134C09
:1014200004F23C452846214604F046FF88B194F872
:101430003C3413F0700F0AD00E4B1D60BDE87040B5
:10144000FFF78CBF013A40F82320002AC7D070BDB7
:10145000FEE770BD204606F09FFA0028DFD170BD80
:10146000645200200C520020FC510020744A0020DD
:10147000585100206453002008B5012105200AF0CE
:10148000D5FB4FF4FA600AF03FFC002105200AF07A
:10149000CDFB024B01221A7008BD00BFF94E00209F
:1014A00008B5012105200AF0C1FBC8200AF02CFC78
:1014B000002105200AF0BAFB64200AF025FC024B4B
:1014C00001221A7008BD00BFF94E002008B50121A5
:1014D00005200AF0ABFB40F6B8300AF015FC0021FD
:1014E00005200AF0A3FB024B00221A7008BD00BFC2
:1014F000F94E00202DE9F0438FB004460EF080FF36
:1015000000B201281CDDB4F9003044F2537293425A
:1015100000F0878118DD44F65452934200F0D580E4
:1015200045F2532293422AD044F65212934207D1F5
:101530000BAAE01CC3490EF023FFC34B0B9A1A60A1
:1015400001200FB0BDE8F08344F24E4293420FD029
:1015500044F252429342F3D10BAAE01CB9490EF077
:101560000FFFBA4B0B9A1A6001200FB0BDE8F08351
:10157000B74B012201201A600FB0BDE8F0830AAD1D
:1015800009A908AA05ABE01C0395029101920093FA
:1015900007AA06ABAF490EF0F3FEAF4B079D5968A3
:1015A00018689A680A9EDDF824E0DDF820C0A5F5E9
:1015B000FA65ADB20BAF2CB207C7069F05991E3472
:1015C00015F0030F4FEAA408FDB240F03981A34B98
:1015D000022D8CBF1F460027A148A24BC8EB040474
:1015E00000FB08F06A1E03FB0400002A00EB07035F
:1015F00047DD9DF82C409948012A00FB043340D078
:101600009DF82D40022A00FB04333AD09DF82E406D
:10161000032A00FB043334D09DF82F40042A00FB3A
:1016200004332ED09DF83040052A00FB043328D027
:101630009DF83140062A00FB043322D09DF8324049
:10164000072A00FB04331CD09DF83340082A00FB16
:10165000043316D09DF83440092A00FB043310D01F
:101660009DF835400A2A00FB04330AD00B2A9DF866
:10167000364018BF9DF8372000FB043318BF00FB2D
:1016800002335FFA8EF2C2EB02125FFA8CF04FF473
:101690006164920004FB0022704D734C7348C9B220
:1016A000013952FA86F205FB01221344122123600C
:1016B0000BF0C6FA21686E480BF098FF6C480CF0EE
:1016C0000FF801200FB0BDE8F0830AAD09A908AA00
:1016D00005ABE01C039502910192009307AA06ABAB
:1016E0005C490EF04DFE5C4B079F9A68186859687C
:1016F0000A9EDDF824E0DDF820C0A7F5FA67BFB246
:101700000BAC3DB207C4069A059C1E3517F0030FBB
:101710004FEAA508D7B240F09080504B022F8CBF03
:1017200099464FF000094E494E4BC8EB050501FBA9
:1017300008F17A1E03FB0510002A00EB090347DDC0
:101740009DF82C004549012A01FB003340D09DF84B
:101750002D00022A01FB00333AD09DF82E00032A07
:1017600001FB003334D09DF82F00042A01FB003325
:101770002ED09DF83000052A01FB003328D09DF8BB
:101780003100062A01FB003322D09DF83200072ADF
:1017900001FB00331CD09DF83300082A01FB003305
:1017A00016D09DF83400092A01FB003310D09DF8B3
:1017B00035000A2A01FB00330AD00B2A9DF83600B7
:1017C00018BF9DF8372001FB003318BF01FB02331F
:1017D0005FFA8EF2C2EB02125FFA8CF04FF4616591
:1017E000920005FB0022E1B21C4C1F4D52FA86F21A
:1017F000013904FB01241C4420462C600AF00CF93A
:101800000B211C480BF01CFA214600230A22184821
:101810000BF0B6FF16480BF063FF01200FB0BDE8D8
:10182000F0830BAAE01C07490EF0AAFD124B0B9A9D
:101830001A6001200FB0BDE8F0834FF0000972E795
:101840000027C9E6206A010048FAFF1F3CFAFF1F83
:101850006C0A0020006A0100186901008051010033
:101860000085E2018033E101F44E0020246A01008A
:101870008CFFFF1F146A010000FAFF1F2DE9F043DF
:10188000A3B000254FF47A76764F77480A968DF804
:1018900030508DF831508DF824508DF82C50089729
:1018A00004F0D2FA714901F23C4004F005FD012335
:1018B0006F4A6D49179619A88DF864508DF86550D8
:1018C0008DF858508DF86050159704F075FC0DF1A7
:1018D000640EBEE80F000CAE0FC6BEE80F000FC6C8
:1018E0009DF83080DEF800109DF85800179A9DF89A
:1018F000603031608DF824000A928DF82C30B8F1F8
:10190000000F46D02E468DF800604FF000094FF0D2
:10191000FF08012215A90CA804F0EEFC09F101034F
:1019200022AA01284A441BB224D01D2B02F8888C1D
:1019300005DC9946EDE71D2B01DC0A2AF9D1013BB4
:101940009BB222AA1A4402F8886C9DF800202F2A24
:1019500004D0012B02D96846FFF7CCFD9DF830304A
:101960001B0711D40CA804F06FFA2DBB012023B083
:10197000BDE8F0839DF854200D2A08BF4B4662D184
:101980001D2BDCDC9946C4E7139A119B9A42BAD10D
:10199000E8E7142137480BF053F937480BF0A0FE65
:1019A0000D22364936480BF00DFE35480BF098FEF7
:1019B000404623B0BDE8F0830B2132480BF040F9DC
:1019C00000230A2221462C480BF0DAFE2A480BF0AD
:1019D00087FE254804F038FA2449002501F23C40EE
:1019E00004F06AFC4FF47A768DF864508DF86550F7
:1019F0008DF858508DF8605063231D4A1A49179688
:101A000019A819AD159704F0D7FB0FCD0CAE0FC672
:101A10000FCD0FC62968179A9DF860309DF8585071
:101A200031600CA821460A928DF82C308DF8245094
:101A300004F05CFD022214490CA804F047FE0CA837
:101A400004F002FA92E722AB03EB0901542A09F1F0
:101A5000010301F8882C1BB27FF46DAF119C054681
:101A6000013C8DE7E8680100B04E0020744A002078
:101A7000386A0100546A01008CFFFF1F6C6A010084
:101A8000B8510020446A0100506A010030B583B0AB
:101A900002AD079C05F8082D8DF80200069A8DF816
:101AA00004304E3428468DF801108DF805208DF84D
:101AB000064007F08BF909F0AFFF09F0A7FF024BD2
:101AC000186003B030BD00BF704A002010B5094C4B
:101AD000204608F0D1FE2046012108F0F3F8204608
:101AE000022108F0E9F8002220461146BDE8104026
:101AF00008F0DEB8B85100202DE9F04782B009F0B7
:101B000085FFB54BB54E18600121B548B54FB64CB1
:101B1000DFF84483B54D08F0CFF80121B04808F054
:101B2000D1F812220021AE4808F0C2F80422B049D0
:101B3000AB480BF047FD3168A9480BF057FD022276
:101B4000AC49A7480BF03EFDA5480BF0C9FD0622A5
:101B5000A949A3480BF036FD3968A1480BF046FDB2
:101B60000322A6499E480BF02DFD0322A4499C4860
:101B70000BF028FD0A222178994800230BF000FE83
:101B800097480BF0ADFDD8F8003055F823000DF064
:101B900051F99C490DF056FA0CF0F6FC02460B4642
:101BA0008F4899490BF0DEFD01218D4808F084F83B
:101BB000D8F80030366855F82330700003FB00F089
:101BC0002C300DF037F94FF08E410DF07FF88D4934
:101BD0000DF038FA8B490DF035FA8C4B1B68012B50
:101BE000814600F0D3804FF07E5830460DF022F948
:101BF00041460DF073F980463868DFF860A2844DE5
:101C000030440DF017F9014640460DF01BFA074627
:101C100020780DF00FF97F4B19680DF05FF97E4BBE
:101C2000044618680DF006F97C4B19680DF056F95A
:101C30007B4B19680DF04AF839460DF04FF93946DB
:101C400080464FF07E500DF03FF8764B19680DF04E
:101C500045F9014640460DF039F8014620460DF0A1
:101C6000F1F971490DF03AF90DF024FBDAF8004072
:101C7000002380462B606B60AB60EB6074B1204644
:101C80000DF0D4F849460DF0DDF90CF07DFC0CF0B8
:101C90008FFA0CF0A5FF286000FB06F4DAF80400C8
:101CA00068B10DF0C3F849460DF0CCF90CF06CFCAE
:101CB0000CF07EFA0CF094FF686000FB06F0DAF896
:101CC0000830044473B118460DF0B0F849460DF0E1
:101CD000B9F90CF059FC0CF06BFA0CF081FFA8601C
:101CE00000FB06F3DAF80C001C4468B10DF09EF816
:101CF00049460DF0A7F90CF047FC0CF059FA0CF02E
:101D00006FFFE86006FB00F020440DF08FF83946C5
:101D10000DF098F9044640460DF088F8014620463B
:101D20000DF098FAF0B901462E222D4807F0C0FFB9
:101D30000D223E492A480BF045FC20463C490DF057
:101D400081F90CF021FC022402460B460094244841
:101D50000BF072FD37492248012202B0BDE8F0477E
:101D60000BF030BC2E2200211D4807F0A1FF0E22EF
:101D700031491B480BF026FC30491948A1FB0831BA
:101D8000090C00230A220BF0FBFCE3E72C4A2D4B45
:101D900010781B78834286BFC3F11803C018C01A9D
:101DA0000DF048F8284A294B80461B78107883426A
:101DB00086BFC3F13C03C018C01A0DF03BF824499C
:101DC000054640460DF08AF829460CF07FFF214970
:101DD0000DF038F9804608E7EC4E00203CFAFF1F72
:101DE000B851002048FAFF1F38FAFF1F14FAFF1FEE
:101DF0007C6A0100846A0100886A0100906A01001F
:101E0000946A010000007A44986A0100F4510020AD
:101E10000C52002044FAFF1F505100204CFAFF1FC3
:101E200050FAFF1F40FAFF1F00006145B46A01002D
:101E300000C0A847106A0100A46A010007452EC22D
:101E40008C510020340A0020F84E002060520020FF
:101E5000000070420000B44430FAFF1F68520020B6
:101E600038B5054606F09EFF1E4C014620460BF095
:101E7000BDFB2D200AF0B8FF284606F06FFF014693
:101E800020460BF0B3FB2D200AF0AEFF284606F0EB
:101E900053FF014620460BF0A9FB012112480AF02E
:101EA000CFFE284606F06CFF014620460BF09EFB55
:101EB0003A200AF099FF284606F01AFF014620460C
:101EC0000BF094FB3A200AF08FFF284606F022FF21
:101ED000014620460BF08AFB2046BDE838400BF057
:101EE000FFBB00BF8CFFFF1F906B01002DE9F0438B
:101EF000434A444BDFF81891DFF81881424D98F8B7
:101F00000010167899F800701A78286883B03C237E
:101F100013FB071713FB062606F032FF044628685A
:101F200006F0E6FEC4EB041400EB8404286806F017
:101F300039FF00F14E0328688DF8063006F00EFFD9
:101F40008DF80500286806F0F7FEB7428DF804000A
:101F500006D2A74232D8A64230D303B0BDE8F08300
:101F6000A742FAD9A642F8D202A8002399F8002085
:101F700000F8083D98F800308DF801308DF8022007
:101F800006F024FF0F21286020480AF059FE286837
:101F9000FFF766FF09F03AFD2B68834204DA03F588
:101FA000A83303F5C0732B600F2118480AF048FED0
:101FB0002868FFF755FF03B0BDE8F08302A80023AF
:101FC00099F8002000F8083D98F800308DF80130AD
:101FD0008DF8022006F0FAFE0F2128600B480A4C0B
:101FE0000AF02EFE2868FFF73BFF09F00FFD2B6873
:101FF0008342D9DA03F5A83303F5C0732360D3E72E
:102000008C510020F84E0020F44E0020C46A0100DC
:10201000340A00206052002010B5002009F00CFBAB
:10202000244C2070012009F007FB6070022009F0A9
:1020300003FBA070032009F0FFFA1F4BE070226839
:102040001A60042009F0F8FA2070052009F0F4FA6B
:102050006070062009F0F0FAA070072009F0ECFA91
:10206000164BE07022681A60082009F0E5FA144B5C
:102070001870092009F0E0FA124B18700A2009F0D4
:10208000DBFA114B18700B2009F0D6FA0F4B1870C1
:102090000C2009F0D1FA0E4B18600D2009F0CCFA93
:1020A0000C4B18600E2009F0C7FA08B10A4B1870E3
:1020B00010BD00BF1C5200203CFAFF1F48FAFF1F52
:1020C000340A0020605200208C510020F84E00207D
:1020D000F451002030FAFF1F38FAFF1F264B10B5CD
:1020E0001968264C00202160C9B209F0FBFA61781A
:1020F000012009F0F7FAA178022009F0F3FAE1785B
:10210000032009F0EFFA1E4B196821600420C9B2C0
:1021100009F0E8FA6178052009F0E4FAA1780620D0
:1021200009F0E0FAE178072009F0DCFA154B082005
:10213000197809F0D7FA144B0920197809F0D2FA66
:10214000124B0A20197809F0CDFA114B0B2019789F
:1021500009F0C8FA0F4B0C20197809F0C3FA0E4B9E
:102160000D20197809F0BEFA0C4B0E201978BDE845
:10217000104009F0B7BA00BF3CFAFF1F1C52002004
:1021800048FAFF1F340A0020605200208C510020C2
:10219000F84E0020F451002030FAFF1F38FAFF1FDC
:1021A0002DE9F04F102983B00C4606467FD0202938
:1021B00076D04FF0000A5FFA8AFA4AF0E063002115
:1021C000009301204AF08E4301930CF049FE014632
:1021D0003A480CF037FF074620460CF027FE014630
:1021E0000CF074FD044630460CF020FE01462046FB
:1021F0000CF074FE014638460CF024FF4FF0010845
:102200004FF07E550746C1464FF0010A4FF0000BD4
:1022100050460CF00FFE39460CF060FE04460DF0FF
:1022200023F80CF007FE014620460CF04DFD294630
:1022300006460CF0F1FF4FF0874148B120460CF004
:10224000EBFF28B120460DF055F835468046D146C3
:102250001AF1010A4BF1000BBBF1000F08BFBAF1F4
:10226000400FD5D11649174C0D681748174E09F184
:10227000FF3208F1FF33120302F47F22C3F30B0392
:10228000134325F010420A602360009B0360019B0A
:1022900033600B6843F010430B6003B0BDE8F08F70
:1022A0000B4B019303F140430A4F009394E70A4B11
:1022B000019303F14043094F00938DE7001B374C16
:1022C00080F0024004F1024008F0024088F0024031
:1022D00001000047001BB74B03000047001B374BB2
:1022E0002DE9F04F0546DFF87C82974E974F98F81E
:1022F00000E02E60FF2085F82400DFF86C9238782B
:1023000059F820C00023BEF1060F8DB00C4685F8A9
:10231000253085F826309CBF88F800309E46BCF1F9
:10232000000F00F0A8808C455BD06346810001E07F
:102330009C4256D00B445B68002BF9D1634603EBFB
:10234000010ADAF80430002BF9D105EB010BCAF8C9
:102350000440BEF1060F4FF0FF044FFA80FACBF8AD
:1023600004308DF82C4002968DF82D308DF82E30EB
:1023700085F824A0644605D8002388F80030002C96
:1023800000F0A980A24226D0234601E0934222D049
:102390000B445B68002BF9D104EB010CDCF8044022
:1023A000002CF9D1CCF804200CAB19440024431CB8
:1023B000BAF1FF3F41F8244C3B708DF82CA00296F7
:1023C00005D0634951F82A3002AA934272D02846B8
:1023D0000DB0BDE8F08F0130387028460DB0BDE873
:1023E000F08F0023FF21BEF1060F02968DF82C100E
:1023F0008DF82D308DF82E3001D888F800309445B6
:10240000E9D06346810001E09A42E4D00B445B6866
:10241000002BF9D18C44DCF804402CB1A4468C4448
:10242000DCF80440002CF9D10CAB19444FFA80FEC3
:10243000431CBEF1FF3FCCF804203B7041F8244C14
:1024400002968DF82CE0C2D0414951F82E3002AAF4
:102450009342BCD159F82E304FEA8E0623B19A1917
:1024600053685460002BFAD10023387049F82E309D
:1024700041F82E30ABE7B0B38100DFF8D4A049F8C3
:10248000204005EB010C00234AF82050BEF1060F56
:10249000CCF804304FFA80FA4FF0FF0C02968DF81A
:1024A0002D308DF82E3085F824A08DF82CC07FF6C5
:1024B00063AF64E759F82A304FEA8A0623B19A19C4
:1024C00053685460002BFAD10023387049F82A3041
:1024D00041F82A307BE7F0B11D4B49F8202002AAD1
:1024E00043F8202060E71B491B480B68019243F02A
:1024F00080630B600368194923F080430360152053
:1025000009F0B8F9164B98F800E0019A4FF4001161
:1025100019603878B0E70F4C0F482368019243F0F8
:102520008063236003680D4923F080430360152016
:1025300009F0A0F90A4B019A4FF40011196038789C
:102540004FFA80FA8100C7E70C690100AD53002003
:102550008C53002004700440007004409504000077
:1025600000E100E0BCF3FF1F6C5300202DE9F041B7
:10257000584D594C594E09F017F80421584808F0A5
:1025800067F92A6826600023637223612372E3607F
:102590000AB99AE01A465369002BFBD1546100270F
:1025A000504B4D486761A780E780236002F08CFEA6
:1025B0004D4A4FF0010E02F118013B4638461772A2
:1025C000D760166082F809E01161174600E03969AA
:1025D00041F82300517A444E01339942F7DC2968CF
:1025E0003C4B09B973E019464B69002BFBD14A619A
:1025F0003E4B3F491C600024184654619480D480AF
:10260000A2F8B0411160A2F8B2415A60C2F8AC41E0
:10261000A2F8B441C2F8B8411C725C72DC600AF0E6
:1026200037FD344A344B5069344A1A600CF002FCCE
:10263000334D344B344E18604FF0FF08334B344A5F
:10264000344985F825402846012785F824802B60E9
:102650006C63AC6385F83C4085F826700CF0F8FF9D
:102660002D4B2B4A2D4986F82480304686F825408C
:10267000336086F8274086F8284086F826700CF0EC
:10268000E7FF2A4631462648264DFFF729FE204A15
:10269000254923480CF0DCFF244A254B25491474B6
:1026A00064204FF47A76547414711473DC7183F8D7
:1026B0003C4483F83D4483F86A4483F860049660A0
:1026C0001560C3F86C14BDE8F0812C6067E71E60EC
:1026D0008EE700BFC054002070510020DC6801006C
:1026E000B8510020F86C0100004F00202851002054
:1026F0002C69010014FAFF1F38510020DC6C010026
:10270000DC5000200452002030520020A06D010057
:10271000FCF9FF1FBD060000B46D010015070000A5
:102720000C0A0020E868010011060000380A0020A9
:10273000744A00200000023810B5184C0A212046C7
:1027400003F030F92046002102F004FF204630213A
:1027500002F000FF2046002102F0FCFE002120468E
:1027600002F0F8FE204603F02FF920460A2103F07C
:1027700019F92046002102F0EDFE2046022102F068
:10278000E9FE2046002102F0E5FE2046002102F08D
:10279000E1FE2046BDE8104003F016B94C5300207E
:1027A0002D4B2E4810B51C680A216CBB03F0FAF8BB
:1027B00021462A4802F0CEFE3021284802F0CAFE07
:1027C0002146264802F0C6FEA221244802F0C2FE9D
:1027D000224803F0F9F80A21204803F0E3F82146E3
:1027E0001E4802F0B7FE02211C4802F0B3FE21464B
:1027F0001A4802F0AFFE4321184802F0ABFE17481A
:10280000BDE8104003F0E0B803F0CCF80021134815
:1028100002F0A0FE3021114802F09CFE00210F487A
:1028200002F098FEAB210D4802F094FE0B4803F035
:10283000CBF80A21094803F0B5F80021074802F057
:1028400089FE0221054802F085FE0021034802F0BE
:1028500081FE6321D0E700BF505100204C5300207F
:102860000238032838B504DC002880F20C820024EA
:1028700000E00C240A21C84803F094F80021C6485F
:1028800002F068FE3021C44802F064FE4021C248D4
:1028900002F060FE6021C04802F05CFEBE4803F01A
:1028A00093F80A21BC4803F07DF80021BA4802F0F1
:1028B00051FE2621B84802F04DFE0021B64802F034
:1028C00049FE6C21B44802F045FEB34803F07CF8A1
:1028D0000A21B14803F066F80021AF4802F03AFE41
:1028E0002821AD4802F036FE0121AB4802F032FE4D
:1028F000F021A94802F02EFEA74803F065F80A214E
:10290000A54803F04FF80021A34802F023FE2A2136
:10291000A14802F01FFE00219F4802F01BFE00218B
:102920009D4802F017FE9C4803F04EF80A219A4891
:1029300003F038F80021984802F00CFE2C2196484C
:1029400002F008FE0F21944802F004FE2221924872
:1029500002F000FE904803F037F80A218E4803F099
:1029600021F800218C4802F0F5FD3C218A4802F054
:10297000F1FD4421884802F0EDFD4621864802F031
:10298000E9FD854803F020F80A21834803F00AF89E
:102990000021814802F0DEFD24217F4802F0DAFDAB
:1029A00001217D4802F0D6FD37217B4802F0D2FD9F
:1029B000794803F009F8794B77481D680A21002D02
:1029C00040F0348102F0EEFF2946734802F0C2FD68
:1029D0003021714802F0BEFD29466F4802F0BAFD71
:1029E000A2216D4802F0B6FD6B4802F0EDFF0A210E
:1029F000694802F0D7FF2946674802F0ABFD022183
:102A0000654802F0A7FD2946634802F0A3FD432173
:102A1000614802F09FFD604802F0D6FF4FF4C87095
:102A200009F072F90A215C4802F0BCFF00215A4803
:102A300002F090FD2E21584802F08CFD19215648D5
:102A400002F088FD1921544802F084FD524802F03A
:102A5000BBFF0A21504802F0A5FF00214E4802F0BA
:102A600079FD04214C4802F075FD00214A4802F02E
:102A700071FD2146484802F06DFD474802F0A4FF71
:102A80000A21454802F08EFF0021434802F062FD12
:102A90000621414802F05EFD01213F4802F05AFD47
:102AA00030213D4802F056FD3B4802F08DFF0A21DF
:102AB000394802F077FF0021374802F04BFD0A2128
:102AC000354802F047FD0021334802F043FD002164
:102AD000314802F03FFD304802F076FF0A212E48CF
:102AE00002F060FF00212C4802F034FD0E212A483C
:102AF00002F030FD0021284802F02CFD0821264874
:102B000002F028FD244802F05FFF0A21224802F06B
:102B100049FF0021204802F01DFD10211E4802F04F
:102B200019FDFF211C4802F015FD3C211A4802F056
:102B300011FD194802F048FF0A21174802F032FF40
:102B40000021154802F006FD2221134802F002FD83
:102B50007F21114802F0FEFC7F210F4802F0FAFCB1
:102B60000D4802F031FF0A210B4802F01BFF012142
:102B7000094802F0EFFC2421074802F0EBFC002199
:102B8000054802F0E7FC0021034802F0E3FC02489C
:102B900002F01AFF0A2103E04C530020505100209C
:102BA0003A4802F0FFFE0021384802F0D3FC24210D
:102BB000364802F0CFFC0021344802F0CBFC14214F
:102BC000324802F0C7FC314802F0FEFE0A212F48CD
:102BD00002F0E8FE00212D4802F0BCFC2A212B481F
:102BE00002F0B8FC0021294802F0B4FC002127487B
:102BF00002F0B0FC254802F0E7FE0A21234802F06B
:102C0000D1FE0021214802F0A5FC20211F4802F03E
:102C1000A1FC00211D4802F09DFC00211B4802F090
:102C200099FC1A4802F0D0FE012038BD02F0BAFE2D
:102C30000021164802F08EFC3021144802F08AFC74
:102C40000021124802F086FCAB21104802F082FC01
:102C50000E4802F0B9FE0A210C4802F0A3FE002142
:102C60000A4802F077FC0221084802F073FC0021B8
:102C7000064802F06FFC6321044802F06BFC034835
:102C800002F0A2FECAE68000C4B2F3E54C53002075
:102C900038B5304B304C1021054653F82000FFF773
:102CA0007FFA2E4802F0FCFC2846FFF7D9FD227877
:102CB0002B48114601F086FF23680F2B0CD8DFE864
:102CC00003F00C1014181C2024282C3034383C40FD
:102CD0004408244B244A1A6038BD224B234A1A6008
:102CE00038BD204B224A1A6038BD1E4B214A1A605B
:102CF00038BD1C4B204A1A6038BD1A4B1F4A1A6057
:102D000038BD184B1E4A1A6038BD164B1D4A1A6052
:102D100038BD144B1C4A1A6038BD124B1B4A1A604E
:102D200038BD104B1A4A1A6038BD0E4B194A1A604A
:102D300038BD0C4B184A1A6038BD0A4B174A1A6046
:102D400038BD084B164A1A6038BD064B154A1A6042
:102D500038BD00BF14FAFF1F00FAFF1F4C530020BC
:102D60003851002054510020BD549341103377C096
:102D7000993918C0BE0D68BFCE71153F8D0903404B
:102D8000CCC9624009A7A3407DDBD140C4160141F4
:102D900054FC1741D0E83041195546419FAB5F4183
:102DA000A04176415E2E86413021014806F046BFA3
:102DB000B851002038B504460D463148012106F0CF
:102DC0007BFF2AB200212E4806F072FF204605F054
:102DD000E9FF01462A480AF009FC2D21284806F09F
:102DE0002DFF204605F0BAFF014625480AF0FEFBFC
:102DF0002D21234806F022FF204605F09DFF0146C5
:102E00001F480AF0F3FB02221E491D480AF0DAFBB4
:102E1000204605F0B5FF092803DC3021184806F0EC
:102E20000DFF204605F0ACFF014615480AF0DEFB19
:102E3000204605F05DFF01220546134910480AF0BF
:102E4000C1FB092D03DC30210D4806F0F7FE2946B1
:102E50000B480AF0CBFB204605F05CFF012204463C
:102E6000094907480AF0AEFB092C03DC302104486D
:102E700006F0E4FE21460248BDE838400AF0B6BB41
:102E8000B8510020D46A0100E86A01002DE9F04140
:102E9000A14D2C682CB1012C00F09C8030BFBDE806
:102EA000F08108F0B3FD9D4FDFF8E08238609C4868
:102EB0009C4E07F0E1FC0121994806F003FF022136
:102EC000974806F0F9FE22462146954806F0F0FEA6
:102ED0000A22954992480AF075FB91480AF000FCD5
:102EE00001218F4806F0E8FE122221468C4806F0A8
:102EF000DFFE05228D498A480AF064FBD8F80010ED
:102F0000874801310AF072FB0122894984480AF09E
:102F100059FBD8F80020874B814853F822102346EC
:102F20000A220AF02DFC30682821FFF743FF3721E1
:102F30003868FFF73FFF7A4807F0DAFE32683B68EF
:102F4000511E994208DCDFF8488298F8001019B148
:102F50007949096800297BD19A4237DC774F3C6870
:102F6000002C5AD00D217648764C09F069FE76483F
:102F70000AF0B6FB754B764A764930681B681268D2
:102F8000096803441A4401293260236000F0538128
:102F90000E21714809F054FE08F038FDFEF760FF7D
:102FA0000B216E4809F04CFE2068FEF759FF0B21FB
:102FB0006B4809F045FE3068FEF752FF0123AE2151
:102FC00057482B6007F060FCFEF798F92C68012C3D
:102FD0007FF464AFFDF7DAFD042008F04BFE0446F1
:102FE000032008F047FE14B9002800F0D5805D4C9E
:102FF0005D4B22681B689A42FFF650AF544B1E6827
:10300000002E36D1594802F01FFFFEF7E1F9FDF717
:1030100087FE266030BFBDE8F0810A21544802F0E7
:10302000C1FC2146524802F095FA0E21504802F0A8
:1030300091FA21464E4802F08DFA0A214C4802F0DE
:1030400089FA4B4802F0C0FC4FF0FF333B6089E740
:103050000121052008F0EAFDC82008F055FE2146B0
:10306000052008F0E3FD01213B68326888F8001074
:1030700072E7FDF73BFEFEF7ABF92A4B3D4E1C68AD
:103080003D4F08F0C3FC3D4A3D4B1268201A841A9C
:1030900024EAE47483FB04232344E017C0EBE32019
:1030A0000BF060FA0BF084F80BF072FD354B364AEA
:1030B000306003FB004482FB043222448046E01768
:1030C000C0EB62100BF04EFA0BF072F80BF060FDE3
:1030D0000201131A821A04EB82049B004FF461620E
:1030E00002FB08333C60DFF8AC801C44092CC8F8B4
:1030F000000000F3A680104B1B68002B40F09E8060
:1031000001233C220221064807F0E8FC00232B6043
:1031100030BFBDE8F08100BF080A0020EC4E00205F
:10312000B8510020F44E0020D86A0100E46A010082
:10313000906B01000C520020505100206C0A0020BE
:10314000EC6A01004C5100208CFFFF1F3CFAFF1F6E
:1031500048FAFF1FF4510020FC6A01000C6B0100CB
:10316000186B0100FC4E0020F0510020480A00209E
:103170004C530020F85100200852002004FAFF1F91
:10318000C5B3A291F0F1FFFF8988888864520020BE
:10319000F94E0020885100203D4B3E4C1B683E4DAF
:1031A0003E485B02002203F124061146A362A5F803
:1031B000B421666003F09AF921462C22374803F0C7
:1031C00085FA364802F040FE354B1B6883BB01236D
:1031D0003C220221334807F081FC642008F094FD72
:1031E000304807F049FB01212E4806F06BFD022113
:1031F0002C4806F061FD002211462A4806F058FDD1
:103200000722294927480AF0DDF926480AF068FA1A
:103210000121244806F050FD1022244921480AF0DB
:10322000D1F920480AF05CFA1E4807F061FDFEE77C
:10323000FEF74CF9CBE7FEF759FEA9E6FEF730F9A9
:103240005EE7174C0021022008F0F0FCFFF774FA4B
:1032500023680BB1FEF73AF9642008F055FD3B787E
:1032600098F800203178124805F0DAFB114805F093
:103270009DF90121022008F0D9FC4FF4967008F066
:1032800043FD23680BB1FEF7F7F8FFF789FA37E73C
:10329000FC4E002078520020004F0020480A0020F9
:1032A00050510020B8510020246B01002C6B01000C
:1032B000DC5000200C0A00202DE9F04F87B0FEF70B
:1032C000ABFE08F0A3FB964BDFF8A492186095487C
:1032D000954F964DDFF89C8207F0CEFA0121914878
:1032E00006F0F0FC02218F4806F0E6FC00221146B1
:1032F0008C4806F0DDFC08228D498A480AF062F904
:103300000121884806F0D8FC10220021854806F0EB
:10331000CFFC1222874983480AF054F981480AF009
:10332000DFF90721844802F06FFC0E21824802F089
:10333000C9FC0C21804802F097FCCA4600240023F7
:1033400045F8043B7D480AF0CBF97C480AF0C8F9FF
:10335000013405217A4809F073FC214677480AF0C8
:1033600045F976480AF0BCF921466E480AF03EF964
:10337000042274496B480AF025F96A4807F0B8FC42
:103380005AF8042B7049D2B2A1F10C004FF0384327
:1033900004F0FEFB58BB1C216C4809F051FC674847
:1033A0000AF09EF906226A495E480AF00BF95D4868
:1033B0000AF096F95B4807F09BFC042CBFD15A4CED
:1033C00099F8002004F58C65284604F26C414FF012
:1033D000384304F0DDFB002840F0CE800B225D492D
:1033E00050480AF0EFF84F4807F082FCFEE75A48D1
:1033F00000F124033B6002F027FD01214A4804F05C
:10340000CBFA014600287AD0DFF84CB1ABF23C4150
:10341000584602F051FF0028BDD097F83C3413F015
:10342000700FB8D0ABF23C40C8F800B004F018FA06
:1034300008210646494809F003FC31463F480AF096
:10344000D5F83E480AF04CF930460BF0F3FC4449FD
:103450000BF044FD064638790BF0ECFC0146304693
:103460000BF03CFD0BF026FF06460BF1240004F0A8
:1034700087FD0BF0DBFC3A490BF030FD0BF01AFF37
:103480000A218346374809F0DBFB594600230A220C
:103490002A480AF075F929480AF022F9C72E8CBF8C
:1034A000C83E0026112145F8046C2F4809F0C8FBDE
:1034B00055F8041C214800230A220AF061F91F482C
:1034C0000AF00EF9002355F8041C16480A220AF0E7
:1034D00057F90122254913480AF074F85946002388
:1034E0000A2210480AF04CF90E480AF0F9F80D4883
:1034F00007F0FEFB4FF47A7008F006FC5DE70A481F
:1035000004F04AFA00283FF446AFDFF84CB0ABF2C3
:103510003C41584602F0D0FE00287FF47EAF3AE7E7
:10352000704A0020B8510020744A002068520020E0
:10353000406B01004C6B010058FAFF1F8CFFFF1F0E
:10354000E46A0100606B0100E04E0020406C010065
:10355000606C0100686C0100B04E0020686B0100D7
:10356000BD37063A746B0100806B0100946B01005B
:10357000585100206453002004F23C40256002F0C2
:1035800063FC0121204604F007FA0146002800F000
:10359000E386A64C04F23C452846214602F08CFE08
:1035A00000283FF41BAF94F83C3413F0700F3FF445
:1035B00015AFC8F80050FEF761F99D4B1A689D4B96
:1035C0009A4202D99A4A3C2313609B4A994B12684B
:1035D0009A4202D9984A3C231360984B1B78172BC8
:1035E00002D9964A00231370954B1B783B2B02D9C6
:1035F000934A00231370934B1B78172B02D9914ADF
:1036000000231370904B1B783B2B02D98E4A00236A
:103610001370DFF85C92D9F80030012B84BF0023CF
:10362000C9F80030894B1B68042B02D9874A05234F
:103630001360874C874E27460025082008F01AFBA8
:1036400038BB854B844A1B680133136002E00A20B3
:1036500008F05AFB082008F00DFB0028F7D07E4A3E
:10366000D9F800301268B3FA83F10B2A4FEA5111EE
:10367000D8BF0021002940F06B86A3F10103B3FA03
:1036800083F30F2A4FEA5313D8BF0023002B40F0D7
:103690005F86724807F0F0F80121704806F012FBCF
:1036A00002216E4806F008FB002211466B4806F026
:1036B000FFFA08F0ABF96A4B674A1B68D2F8008042
:1036C0003060C31A0393B8F10F0F00F2A883DFE84C
:1036D00018F08D03EC0179059F0271042201CE05DB
:1036E0001603E80499011E045102D303D3005E00BF
:1036F0001000554B042093F8008008F0BBFA824676
:10370000032008F0B7FA8346BAF1000F40F0BD86F7
:103710002368544A0121132B117040F3A28701330F
:10372000236008F10108BBF1000F40F0B386DFF819
:1037300044A14C49DAF800200120132A087002DC69
:10374000C82008F0E1FAB8F1090FC8BFDAF8002084
:1037500008F1FF38CCBF01320122B8F1FF3FCAF8AF
:10376000002040F099864FF03B08374B3E493B48DC
:1037700083F80080072209F025FF334B19780929C7
:1037800000F3C380FFF710FB2F4B1978BDE02D4BE2
:10379000042093F8008008F06DFA8246032008F0B8
:1037A00069FA8346BAF1000F40F0D38623682D4AA8
:1037B0000121132B117040F34E870133236008F170
:1037C0000108BBF1000F40F0C986DFF8A8A0254929
:1037D000DAF800200120132A087002DCC82008F063
:1037E00093FAB8F1090FC8BFDAF8002008F1FF38E2
:1037F000CCBF01320122B8F1FF3FCAF8002040F0EF
:10380000AF864FF017080F4B1849144883F8008013
:10381000072209F0D7FE0B4B19780929984674DC6A
:10382000FFF7C2FA98F800106FE000BF744A00205A
:103830003CFAFF1FA086010048FAFF1F340A00204F
:10384000605200208C510020F84E002030FAFF1FFB
:1038500000520020EC4E0020D8500020B85100202B
:10386000704A0020F04E0020386C0100306C0100DE
:10387000F451002020520020B04B042093F8008027
:1038800008F0F8F98246032008F0F4F98346BAF10B
:10389000000F40F0DA852368A94A0121132B11702B
:1038A00040F3D3860133236008F10108BBF1000F18
:1038B00040F0D085DFF8B0A2A149DAF8002001205D
:1038C000132A087002DCC82008F01EFAB8F1090FAC
:1038D000C8BFDAF8002008F1FF38CCBF013201225E
:1038E000B8F1FF3FCAF8002040F0B6854FF03B0822
:1038F000924B9449944883F80080082209F062FEB4
:103900008E4B1978092998468ADD00230A228E48B1
:1039100009F036FF83E205F00FFADFF850828346A4
:103920000420C8F800B008F0A5F90490032008F0BE
:10393000A1F9049B8246002B40F040852368804912
:103940000120132B087040F37A86013323600BF1BA
:10395000010BBAF1000F40F03685DFF80CA2784970
:10396000DAF800200120132A087002DCC82008F0D1
:10397000CBF9BBF1090FC8BFDAF800200BF1FF3B10
:10398000CCBF01320122BBF1000FCAF8002040F386
:103990002085BBF1200FA8BF4FF0010BD8F80030F5
:1039A000DFF8CC815B45C8F800B01DD0306805F069
:1039B000E7F98346306805F09BF98246306805F0E8
:1039C000A9F905903068D8F8008005F0C7F904908F
:1039D000306805F0E7F9049B009301904346059A8F
:1039E00051465846FEF752F804225849564809F005
:1039F000E9FD08F00BF805F09FF90146524809F07F
:103A0000F5FD0CE2524B0420D3F8008008F032F9A7
:103A10008246032008F02EF98346BAF1000F40F0E9
:103A200054852368464A0121132B117040F3018607
:103A30000133236008F10108BBF1000F40F04A8513
:103A4000DFF824A13E49DAF800200120132A08708B
:103A500002DCC82008F058F9B8F1090FC8BFDAF83D
:103A6000002008F1FF38CCBF01320122B8F1000F6D
:103A7000CAF80020C0F23485B8F1060FA8BF4FF095
:103A80000008344B324A53F82800C2F800800BF08B
:103A9000D1F931490BF0D6FA0AF076FD02460B4611
:103AA00029482E4909F05EFEB9E12D4B0420D3F8D8
:103AB00000B008F0DFF80490032008F0DBF8049B66
:103AC0008246002B40F0368523681D490120132BC8
:103AD000087040F3A885013323600BF1010BBAF1A4
:103AE000000F40F02C85DFF880A01549DAF800209F
:103AF0000120132A087002DCC82008F005F9BBF188
:103B0000090FC8BFDAF800200BF1FF3BC8BF02F174
:103B10000108BBF1000FCAF8008040F31685BBF521
:103B2000616FC8BF4FF0010B0D4B0E490648C3F83B
:103B300000B0042209F046FD094B8BE360520020DF
:103B4000F04E0020246C0100B8510020CC6B010025
:103B500030FAFF1F14FAFF1F00007A44EC6B0100DB
:103B60003CFAFF1F7C6A010020520020D450002044
:103B70001C5100200522B449B44809F023FD04205B
:103B8000D9F8008008F076F88246032008F072F831
:103B90008346BAF1000F40F02E842368AC4A01211D
:103BA000132B117040F339850133236008F10108AC
:103BB000BBF1000F40F02484DFF8A8A2A449DAF892
:103BC00000200120132A087002DCC82008F09CF8AD
:103BD000B8F1090FC8BFDAF8002008F1FF38CCBFF0
:103BE00001320122B8F1000FCAF80020C0F20E84A1
:103BF000B8F1010F40F31184C9F800509548FCF763
:103C000041FED9F80030012B40F0098100F001BCE1
:103C100005F0C8F8DFF8508283460420C8F800B0E9
:103C200008F028F80490032008F024F8049B82464A
:103C3000002B40F0A783236885490120132B0870CF
:103C400040F3E584013323600BF1010BBAF1000F5F
:103C500040F09D83DFF80CA27D49DAF800200120B6
:103C6000132A087002DCC82008F04EF8BBF1090FD7
:103C7000C8BFDAF800200BF1FF3BCCBF01320122B4
:103C8000BBF5FA6FCAF80020C0F2878340F6340310
:103C90009B45C8BF4FF4FA6BD8F80030DFF8CC81F1
:103CA0005B45C8F800B01CD0306805F069F8834661
:103CB000306805F01DF88246306805F02BF8059055
:103CC000306805F039F80490306805F047F8D8F806
:103CD0000030059A8DE809005146049B5846FDF7CF
:103CE000D5FE05225C49594809F06CFC07F08EFEB0
:103CF00005F058F80146554809F078FC8FE004F0CB
:103D0000F7FFDFF86C8183460420C8F800B007F0A5
:103D1000B1FF0490032007F0ADFF049B8246002B07
:103D200040F0C18323684A490120132B087040F3F7
:103D30006884013323600BF1010BBAF1000F40F0EE
:103D4000B783DFF820A14249DAF800200120132AC6
:103D5000087002DCC82007F0D7FFBBF1090FC8BF0D
:103D6000DAF800200BF1FF3BCCBF01320122BBF19E
:103D7000000FCAF80020C0F2A183BBF13C0FA8BF1E
:103D80004FF0000BD8F80030DFF8E8805B45C8F84A
:103D900000B01DD0306804F0F3FF83463068D8F8D7
:103DA000008004F0B7FF8246306804F0C5FF05903C
:103DB000306804F0D3FF0490306804F0F3FF0499F6
:103DC00000910190059B524641465846FDF75EFE24
:103DD000072222491D4809F0F5FB07F017FE04F001
:103DE00087FF0146194809F001FC18E0DFF8608000
:103DF00098F80030002B40F0FA830A221849134843
:103E000009F0E0FB042007F035FF8046032007F0AF
:103E100031FFB8F1000F02D1002800F0CA83FDF78E
:103E20006BFE07F0F3FD3721FEF7C4FF074806F0ED
:103E30005FFF0A2007F068FF039BB3F5167F7FF74B
:103E4000FCAB07B0BDE8F08FF86B0100B851002063
:103E5000F04E0020006C0100BC6B0100DC6B010027
:103E6000986B01002052002024520020685100204D
:103E70006C510020E84E0020C54B042093F80080D0
:103E800007F0F8FE8246032007F0F4FE8346BAF1FD
:103E9000000F40F03F832368BE4A0121132B1170AD
:103EA00040F382830133236008F10108BBF1000F66
:103EB00040F03583DFF8F4A2B649DAF8002001209B
:103EC000132A087002DCC82007F01EFFB8F1090FA2
:103ED000C8BFDAF8002008F1FF38CCBF0132012258
:103EE000B8F1FF3FCAF8002040F01B834FF01708DD
:103EF000A74BA949A94883F80080082209F062FB72
:103F0000A34B1978092998463FF7FFAC88E4DFF8FE
:103F1000A082042098F800B007F0ACFE04900320C3
:103F200007F0A8FE049B8246002B40F07D822368A8
:103F300098490120132B087040F33183013323602B
:103F40000BF1010BBAF1000F40F07382DFF85CA2B5
:103F50009049DAF800200120132A087002DCC820FA
:103F600007F0D2FEBBF1090FC8BFDAF800200BF151
:103F7000FF3BCCBF01320122BBF1000FCAF8002089
:103F800040F35D82BBF1080F40F35C824FF0010B00
:103F900005228349814888F800B009F013FB98F89E
:103FA00000107E4800230A2209F0EAFB7B4809F052
:103FB00097FB34E704F0D2FEDFF8F8818346042053
:103FC000C8F800B007F056FE0490032007F052FE38
:103FD000049B8246002B40F0E38123686D49012059
:103FE000132B087040F3D682013323600BF1010BD1
:103FF000BAF1000F40F0D981DFF8B0A16549DAF8D5
:1040000000200120132A087002DCC82007F07CFE83
:10401000BBF1090FC8BFDAF800200BF1FF3BCCBFA2
:1040200001320122BBF1000FCAF8002040F3C38126
:10403000BBF10D0FA8BF4FF0010BD8F80030DFF82F
:1040400078815B45C8F800B01DD0306804F098FE58
:104050008346306804F04CFE8246306804F05AFE15
:104060000590306804F068FE04903068D8F800804D
:1040700004F098FECDF800800190049B059A51460B
:104080005846FDF703FD06224649444809F09AFACE
:1040900007F0BCFC04F062FE0146404809F0A6FAB5
:1040A000BDE604F037FEDFF8148183460420C8F82B
:1040B00000B007F0DFFD0490032007F0DBFD049B58
:1040C0008246002B40F08981236832490120132B5E
:1040D000087040F35A82013323600BF1010BBAF1EF
:1040E000000F40F07F81DFF8C4A02A49DAF80020F1
:1040F0000120132A087002DCC82007F005FEBBF17E
:10410000090FC8BFDAF800200BF1FF3BCCBF01322A
:104110000122BBF1000FCAF80020C0F26981BBF197
:104120003C0FA8BF4FF0000BD8F80030DFF89080AC
:104130005B45C8F800B01DD0306804F021FE83460E
:10414000306804F0D5FD82463068D8F8008004F06D
:10415000F3FD0590306804F001FE0490306804F02F
:1041600021FE049A00920190059B42465146584612
:10417000FDF78CFC07220C49084809F023FA07F0E8
:1041800045FC04F0C7FD0146044809F02FFA46E655
:10419000340A0020F04E0020186C0100B8510020B5
:1041A000106C0100C46B0100E46B01002052002080
:1041B00038FAFF1F5C520020245100202C520020AE
:1041C00020510020C84B0420D3F8008007F052FD96
:1041D0008246032007F04EFD8346BAF1000F40F0FF
:1041E000C3802368C14A0121132B117040F3C88199
:1041F0000133236008F10108BBF1000F40F0B980E2
:10420000DFF804A3B949DAF800200120132A087066
:1042100002DCC82007F078FDB8F1090FC8BFDAF852
:10422000002008F1FF38CCBF01320122B8F1000FA5
:10423000CAF80020C0F2A380AD4B9845C8BF4FF02C
:104240000008A94BAB49AC48C3F80080042209F030
:10425000B9F9A54B1968A84809F0C8F90122A7497E
:10426000A54809F0AFF9A44809F03AFAD7E504F0F7
:1042700087FDDFF89CB280460420CBF8008007F071
:10428000F9FC0490032007F0F5FC049B8246002B08
:1042900040F0ED80236895490120132B087040F30E
:1042A0006A810133236008F10108BAF1000F40F080
:1042B000E380DFF854A28D49DAF800200120132AA8
:1042C000087002DCC82007F01FFDB8F1090FC8BF55
:1042D000DAF8002008F1FF38CCBF01320122B8F132
:1042E000000FCAF80020C0F2CD80B8F1180FA8BFA7
:1042F0004FF00008DBF8003043451BD0306804F075
:10430000F7FC8346306804F005FD8246306804F00F
:1043100013FD0590306804F021FD0490306804F02E
:1043200041FD049900910190059B52465946404633
:10433000FDF7ACFB052272496F4809F043F907F01D
:1043400065FB04F01DFD01466B4809F04FF966E579
:104350006C4B1D60FFF79DB9204603F01DFB002844
:104360007FF417A9FFF73AB82560BBF1000F3FF4BF
:1043700047AF654BB8F1000F1D60BFF65DAFDFF8CA
:1043800070815EE72560BAF1000F3FF463AC5E4BCD
:10439000BBF5FA6F1D60BFF679AC40F6340B7BE4D9
:1043A0002560BAF1000F3FF427AE574BBBF1000F69
:1043B0001D603FF73DAE4FF00C0B3EE62560BAF1B5
:1043C000000F3FF4CAAA504BBBF1000F1D603FF72E
:1043D000E0AA4FF01F0BFFF7E1BA2560BAF1000F1A
:1043E0003FF481AE484BBBF1000F1D60BFF697AEA6
:1043F0004FF03B0B98E62560BBF1000F3FF4DCABC0
:10440000414BB8F1000F1D60BFF6F2AB0123C9F8B4
:1044100000303E48FCF736FA01E5C9F80080B8F1F3
:10442000000F3FF4EBABF4E72560BAF1000F3FF467
:104430008DAD354BBBF1000F1D603FF7A3AD4FF0C5
:10444000080BA5E55FFA8BFBA2E52560BBF1000F29
:104450003FF430AA2C4B1D60B8F13B0F03DD4FF049
:104460000008FFF745BA5FFA88F8FFF741BA256000
:10447000BAF1000F3FF41DAF234BB8F1000F1D60E0
:10448000BFF633AF4FF0170834E72560BBF1000FDC
:104490003FF44DA91C4B1D60B8F13B0F11DD4FF0EF
:1044A0000008FFF762B92560BAF1000F3FF449AC8C
:1044B000154BBBF1000F1D60BFF65FAC4FF03B0B1F
:1044C00060E45FFA88F8FFF750B92560BBF1000F90
:1044D0003FF4B6AA0C4BB8F1000F1D60BFF6CCAA92
:1044E0004FF00508FFF7CDBA48FAFF1FF04E002045
:1044F00080510100B46B0100B8510020B06B010085
:10450000D46B0100D850002020520020086C01001C
:10451000040A00202560BBF1000F3FF4CBAC544BE4
:104520001D60B8F1170F02DD4FF00008E0E45FFAFC
:1045300088F8DDE42560BAF1000F3FF4D4AA4C4BB3
:10454000BBF1000F1D603FF7EAAA4FF4616BFFF764
:10455000EBBA2560BBF1000F3FF437A9444B1D6057
:10456000B8F1170F03DD4FF00008FFF74CB95FFA01
:1045700088F8FFF748B9C82007F0C6FB3B6890E60B
:10458000C82007F0C1FB3B6832E6C82007F0BCFB3F
:104590003B68A0E5C82007F0B7FB3B6824E5C820CE
:1045A00007F0B2FB3B68C9E4C82007F0ADFB3B68ED
:1045B00078E4FDF78BFAFDF791FD2E48FCF762F9E0
:1045C0002D4806F095FB40F2DC5007F09DFBFDF70F
:1045D00093FA07F01BFA3721FEF7ECFB264806F0AA
:1045E00087FB0A2007B0BDE8F04F07F08DBBFDF751
:1045F00075FD88F8005007F009FA204B1860FFF7A6
:10460000FCBBC82007F080FB3B68FFF792BBC820CB
:1046100007F07AFB3B68FFF715BBC82007F074FB77
:104620003B68FFF7C1BAC82007F06EFB3B68FFF795
:1046300052BAC82007F068FB3B68FFF7F9B9C820F9
:1046400007F062FB3B68FFF780B9C82007F05CFB0E
:104650003B68FFF727B9C82007F056FB3B68FFF718
:10466000ACB8C82007F050FB3B68FFF758B800BF54
:1046700020520020A46B0100B8510020704A002095
:104680002DE9F04F8FB072B6C649C74BC7484125D8
:104690000E2480220D70047019461A700B78C24ADD
:1046A0001806FBD5C24BC3481D78C34CC3490570DF
:1046B000033B247809781B78C3704470817062B61C
:1046C00072B6B849B94C41260F2580230E7025706B
:1046D000114613700B781B06FCD5B54CB649B74A8A
:1046E000B74B2478097812781B78C3710471417133
:1046F000827162B6B34BB44FB44EDFF828930024F6
:104700000F2115220A254FF014084FF4FA70596052
:10471000DA601D60C3F8088007F0F6FA64203C6098
:1047200007F0F2FA4FF430533B60642007F0ECFAE4
:104730004FF434533B60642007F0E6FA2A463168B0
:10474000A348234609F01CF8A14808F0C9FF4FF41C
:104750007A7007F0D9FA2A4631689D48234609F055
:104760000FF89B4808F0BCFF4FF47A7007F0CCFAC2
:104770002A46234631689648964D09F001F8944838
:1047800008F0AEFF944800F08BFF2146102007F0A0
:104790007FFA204606F0FEFD0121022007F078FA9C
:1047A0000121022007F042FA0121052007F070FAEA
:1047B0000121052007F03AFA4FF4FA6007F0A4FA55
:1047C0002146052007F032FA844B012221460520BC
:1047D0001A7007F02BFA824B1B680021012B4FF057
:1047E000040008BFC9F8008007F052FA0021032036
:1047F00007F04EFA0021082007F04AFA01210420B0
:1048000007F014FA0121032007F010FA0121082013
:1048100007F00CFA07F0FAF8724B2860984240F360
:10482000A38101233C2202216F48704C06F056F907
:104830008C2007F069FA6C4806F01EF801216A48DE
:1048400005F040FA0221684805F036FA00221146C8
:10485000654805F02DFA0A226549634808F0B2FE62
:10486000614808F03DFF604806F042FA5E4806F0F5
:1048700003F801215C4805F025FA02215A4805F0A9
:104880001BFA00221146584805F012FA0A2258492C
:10489000554808F097FE544808F022FF524806F0A9
:1048A00027FA6E21534808F01FFBFEF705FD524A18
:1048B000524B166853F826000AF0BCFA20603046C6
:1048C000FEF7E6F94E4801F0BFFA4E490EAE01F28E
:1048D0003C4001F0F1FC4C4B46F8343D00238DF890
:1048E00014308DF815308DF808308DF81030474AA7
:1048F0004349462305A84FF47A77039701F05CFCFF
:104900009DF8143053B12922414905A801F0DEFE7B
:10491000304608F0E5FE05A801F096FA32483D4F12
:10492000DFF804A105F0A8FF01212F4805F0CAF91E
:1049300002212D4805F0C0F9002211462A4805F051
:10494000B7F93B683C2B07DDB3F5967FD4BF3C231A
:104950004FF49673CAF8003007F058F8DFF8CC80AF
:104960002D49DAF800302D4ED8F80020096890FB68
:10497000F3FE286003FB0E332948336001291344FA
:10498000036000F0F58010460AF054FA2168DFF861
:10499000A0A0DFF8A0B00AF0A1FA4FF06E510AF023
:1049A0009DFA49E007000240000002400600024074
:1049B0000B000240445100200A000240090002405E
:1049C000080002405851002010D0034000D003409E
:1049D0008CFFFF1FEC4E00204C530020F94E0020AE
:1049E000505100207FC18556B8510020045200204C
:1049F000746C01000082FF1F30FAFF1F14FAFF1FC2
:104A0000B04E0020744A0020E86801005C69010093
:104A1000D469010048FAFF1FF4510020F44E002031
:104A20004C51002004FAFF1F34FAFF1F3CFAFF1F0D
:104A3000F0510020F85100204FF074510AF04EFA66
:104A400009F0A2FD09F02CFB00224C4B09F0F0FD0F
:104A50000AF09EF83A68D9F80040494BCAF80000BD
:104A6000141B24EAE47983FB09234B444FEAE970E1
:104A7000C0EBE32009F076FD09F09AFB0AF088F814
:104A8000404C414BCBF8000004FB009483FB042313
:104A90002344E017C0EB631009F064FD09F088FBC4
:104AA0000AF076F8DFF80CA1DFF80C910346A0EBD2
:104AB000001004EB800410213448C9F80030CAF813
:104AC000004008F0BDF8DBF80010314808F08EFD1A
:104AD000D9F800102E4808F089FDDAF800102C48AB
:104AE00008F084FD2A4808F0FBFD0821294808F059
:104AF000A7F8D8F80010264808F078FD244808F0F8
:104B0000EFFD0821244808F09BF83968204808F098
:104B10006DFD1F4808F0E4FD0E21204808F090F8D4
:104B20002868FDF79DF90C211D4808F089F83068C8
:104B3000FDF796F933682C681A481C1B152108F0FC
:104B40007FF82146124808F051FD114808F0C8FDD1
:104B50001549164B00204FF0FF3208601A60FCF731
:104B600037FC0FB0BDE8F08F114806F055FF58E64E
:104B7000FDF7BCF9D8F8002005E700BF0000404071
:104B8000C5B3A291F0F1FFFF89888888806C01008D
:104B90008CFFFF1F946C0100A06C0100FC6A0100F7
:104BA000AC6C0100BC6C0100080A002028520020F7
:104BB00080C185560852002088510020002070478F
:104BC0000020704738B50F29114C28BF0F210F2A3C
:104BD00028BF0F220D46017A204642EA051500F053
:104BE0000BFE2046002100F0B5FC2046202100F0FD
:104BF000B1FC2046002100F0ADFCE9B2204600F0F7
:104C0000A9FC204600F0E0FEB0FA80F0400938BD73
:104C10004C530020F8B5C34C0126054606712046CA
:104C200000F03EFD052007F06FF8297A204600F0DD
:104C3000E3FD2046002100F08DFC2046302100F0ED
:104C400089FC2046402100F085FC6021204600F0D0
:104C500081FC204600F0B8FE297A204600F0CCFD09
:104C60002046002100F076FC2046262100F072FC50
:104C70002046002100F06EFC6C21204600F06AFC0A
:104C8000204600F0A1FE297A204600F0B5FD20461E
:104C9000002100F05FFC2046282100F05BFC31463B
:104CA000204600F057FCF221204600F053FC20463D
:104CB00000F08AFE297A204600F09EFD2046002161
:104CC00000F048FC20462C2100F044FC20460F2137
:104CD00000F040FC2221204600F03CFC204600F081
:104CE00073FE297A204600F087FD2046002100F05F
:104CF00031FC20463C2100F02DFC2046442100F0F0
:104D000029FC4621204600F025FC204600F05CFEF0
:104D100040F23713EB80297A204600F06DFD2046E3
:104D2000002100F017FC2046242100F013FC31463E
:104D3000204600F00FFC3721204600F00BFC2046F7
:104D400000F042FE297A204600F056FD2046002160
:104D500000F000FC2046302100F0FCFB2046402102
:104D600000F0F8FBFF21204600F0F4FB204600F0A5
:104D70002BFE297A204600F03FFD2046002100F05E
:104D8000E9FB2046022100F0E5FB2046002100F06F
:104D9000E1FB7321204600F0DDFB204600F014FE0D
:104DA0004FF4C87006F0B0FF297A204600F024FDC9
:104DB0002046002100F0CEFB20462E2100F0CAFB49
:104DC00020461D2100F0C6FB1D21204600F0C2FB3D
:104DD000204600F0F9FD297A204600F00DFD20461E
:104DE000002100F0B7FB2046042100F0B3FB204671
:104DF000002100F0AFFB0421204600F0ABFB204671
:104E000000F0E2FD297A204600F0F6FC2046002161
:104E100000F0A0FB2046062100F09CFB3146204616
:104E200000F098FB3021204600F094FB204600F073
:104E3000CBFD297A204600F0DFFC2046002100F05F
:104E400089FB20460A2100F085FB2046002100F066
:104E500081FB1021204600F07DFB204600F0B4FDD0
:104E6000297A204600F0C8FC2046002100F072FBA1
:104E700020460E2100F06EFB2046002100F06AFB68
:104E80000021204600F066FB204600F09DFD297AB7
:104E9000204600F0B1FC2046002100F05BFB2046DC
:104EA000102100F057FB20463C2100F053FB3C2131
:104EB000204600F04FFB204600F086FD297A204670
:104EC00000F09AFC2046002100F044FB20462221FD
:104ED00000F040FB20467F2100F03CFB7F21204674
:104EE00000F038FB3627204600F06EFD297AEF806F
:104EF000204600F081FC2046002100F02BFB2046DC
:104F0000242100F027FB2046002100F023FB394636
:104F1000204600F01FFB204600F056FD6E72304622
:104F2000F8BD00BF4C5300200B462DE9F041454928
:104F30000546184609F0D2FF434909F0C7FE0AF0BA
:104F4000B9F9044600284CD080281FD92B790024B9
:104F500026462BBB297A3D4800F04EFC00213B48F9
:104F600000F0F8FA2221394800F0F4FA31463748C7
:104F700000F0F0FA2146354800F0ECFA334800F032
:104F800023FDB0FA80F04009BDE8F081C0F1800453
:104F90002B7944EA0424C4F30726E4B2002BD9D0C9
:104FA000EF88297A294827F010074FF00008EF8092
:104FB00085F8048000F020FC4146244800F0CAFA3D
:104FC0002421224800F0C6FA390A204800F0C2FA2B
:104FD00007F0EF011D4800F0BDFA1C4800F0F4FC9A
:104FE000B8E701232B71297A184800F005FC214607
:104FF000164800F0AFFA2221144800F0ABFA7F21E6
:10500000124800F0A7FA7F21104800F0A3FA0F48D9
:1050100000F0DAFCEE88297A0C4846F01006B6B2A9
:10502000EE8000F0E9FB2146084800F093FA2421C5
:10503000064800F08FFA310A044800F08BFAF1B20A
:1050400099E700BF00000143EE7CFF3E4C53002077
:1050500070B505460C4619B101293BD0002070BD42
:10506000017A424800F0C8FB2146404800F072FA3D
:1050700020213E4800F06EFA21463C4800F06AFAD2
:1050800055213A4800F066FA384800F09DFC064683
:105090000028E3D1EC88297A344844F00404A4B20F
:1050A000EC8000F0A9FB3146304800F053FA24218F
:1050B0002E4800F04FFA210A2C4800F04BFAE1B2DA
:1050C0002A4800F047FA294800F07EFCB0FA80F048
:1050D000400970BD017A254800F08EFB002123486D
:1050E00000F038FA2A21214800F034FA21461F48FE
:1050F00000F030FA73211D4800F02CFA1B4800F034
:1051000063FC04460028A9D1297A184800F074FBF2
:105110002146164800F01EFA2021144800F01AFA21
:105120002146124800F016FA8821104800F012FAC1
:105130000E4800F049FC044600288FD1EE88297AF9
:105140000A4826F00406EE8000F056FB2146074888
:1051500000F000FA2421054800F0FCF9310A034868
:1051600000F0F8F906F0FB01AAE700BF4C5300205D
:1051700010B5044608F09CF8204610BD024A0349C9
:1051800003480AF065BA00BFFCF9FF1F7151000027
:10519000A45200201B4A1C4B11681C48096970B4BA
:1051A00099421279027009D2194A127832B3194A17
:1051B0004FF08041116003F5807402E01C46A3F5B6
:1051C0008073154A154912680D68AAB1A5B1144E2D
:1051D0003088402810D841000A4440302944023227
:1051E0000231308033F9040B22F8020F9C4233F96C
:1051F000020C21F8020FF5D870BC704703F58074DB
:10520000DFE700BFB4520020B8F2FF1F1F8000404C
:10521000AE52002008E200E0BC520020B052002054
:10522000AC520020F8B5064607F08EFE0446E8B101
:1052300007F08AFE054600283AD072B61F4B1A883E
:105240007F2A19D8002C31D01D490A6842B162B6B4
:10525000204607F0CDFE2846BDE8F84007F0C8BE5E
:1052600018480C601A80056062B6F8BD054672B633
:10527000124B1A887F2AE5D9114A1249176814601F
:1052800000220C681A800D6062B63946304607F07D
:10529000D9FE384607F0ACFE30462146012207F021
:1052A000D1FE2046BDE8F84007F0A2BE62B6F8BDC8
:1052B000204607F09DFE2C46BFE700BFAC52002001
:1052C000BC520020B0520020F8B5284C284E204691
:1052D000012107F04FFF00F083F8264B264A2748AC
:1052E0004FF480611960236800211A609980227947
:1052F000186102F1804202F5043240F20110D880B8
:105300009E614FF48075022006278E26DD82D960CB
:10531000DD8398609F8398821170167007F0D0FE2D
:105320001749184B2279184F08701A70396822797A
:10533000164C174D174E41F0124141F00101531127
:1053400039609B00206803F1604302F1100703F508
:10535000614302F01F02012140F0104001FA02F205
:10536000206045F827601A60F8BD00BFB4520020E5
:1053700000FEFFFF14B00440A0F00240B8F1FF1F90
:10538000AE5200201B80004080F0024000F002403E
:1053900000F4FF1F95510000024A034903480AF038
:1053A00057B900BFFCF9FF1F71510000B452002033
:1053B000024A034903480AF04BB900BFFCF9FF1F3A
:1053C00071510000C0520020024A034903480AF00C
:1053D0003FB900BFFCF9FF1F71510000C852002007
:1053E000284B29491A68294842F400421A600A6881
:1053F00042F002020A601A6842F002021A60036870
:10540000002B3DDB224B1B68002B39DB214A4FF080
:10541000864313601368002BFCDBF0B51E4C1F485D
:10542000DFF8ACE01E491F4B1F4A204F204E214D94
:1054300047F2320CC4F800C0002404600120CEF80A
:105440000000DFF890E0C1F800E04FF4803119600F
:10545000194B1360DFF880E0184A3A603460286026
:105460001748CEF80000174CB9671748174946F897
:10547000503C4FF4C0632A61236003600B60F0BDB1
:10548000704700BF3C8004404080044000F0024070
:1054900080F0024000F1024004F1024060F002405E
:1054A00008F002400CF0024010F0024014F00240FC
:1054B000E0F0024084F002401B0F0100000F0F0FCC
:1054C0000300004708B004400CB0044018B004408A
:1054D00004F002400300000788F00240024A03493A
:1054E00003480AF0B5B800BFFCF9FF1F7151000076
:1054F000D0520020024A034903480AF0A9B800BF6D
:10550000FCF9FF1F71510000D8520020024A0349E4
:1055100003480AF09DB800BFFCF9FF1F715100005D
:10552000E0520020024A034903480AF091B800BF44
:10553000FCF9FF1F71510000E8520020024A0349A4
:1055400003480AF085B800BFFCF9FF1F7151000045
:10555000F05200200A4B1B7813B90A4B1B786BB131
:10556000094A1378202B07D810B4581C074C107028
:10557000E154012010BC70470123037100207047E3
:105580005E530020215300205F5300200053002071
:10559000704700BF024A034B10781B78C01A70474F
:1055A0005D5300205C530020064A074913780978B0
:1055B000994204D90548591CC05C117070474FF0DE
:1055C000FF3070475C5300205D53002024530020BF
:1055D000054B064A1B7812789A4286BF044AD05C73
:1055E0004FF0FF30704700BF5C5300205D53002038
:1055F0002453002070B50D4B1B78144613B90C4B87
:105600001B788BB10B4E3578C5F12103A34202D232
:1056100001221C460271084822462844254405F010
:105620000DFD3570204670BD184670BD5E530020DC
:10563000215300205F53002000530020124BDB78E1
:1056400003F020034BB1114A13780133DBB2012B75
:10565000137012D9122006F095B910B5122003F07C
:10566000FF0406F08FF90A4B1B685BB109490A4A2F
:105670000C701078BDE810401847084B1B78002BC1
:10568000E8D0704710BD00BF0060064048530020BE
:10569000FC5200205C5300205D5300202153002069
:1056A0000D4A0E4BF0B500200D4C10702268DFF84B
:1056B00038E00C4F42F0400222604FF41971282666
:1056C0000325202480229870CEF8001039605E7087
:1056D0009D715C719A70F0BD2153002000600640FE
:1056E0003480044008A004400CA0044010B5384C9D
:1056F000E378DBB2D80623D510225906E2701ED516
:1057000003F0040303F0FF02002B33D0314B324986
:105710001A68324C00230B702370002A3BD090474C
:105720002378002B37D02E4B1B78294A2D49D024C3
:1057300094701371264B012002220870DA7010BD9C
:105740005A06DDD4A27802F0100202F0FF0042B344
:1057500013F001031BD1234920480A7800789042B6
:1057600081BF1F4B501C9B5C08702371184BD022CB
:105770009A7008E01C48164B174902700120C0229D
:1057800008709A701B79124B0222DA7010BDC02388
:10579000A3702379F7E71249002301220B702270CE
:1057A000C3E7124B124918700322122006F06AF860
:1057B0000D4923790A781F2ADBB2E4D8064800781D
:1057C0000028E0D00B4C501CA3540870DBE700BF4E
:1057D0000060064044530020F85200205F53002030
:1057E00000530020605300205D53002048530020E8
:1057F0003D560000245300200548064A10B40123FA
:10580000054C037049001370217010BC704700BF35
:105810005E5300205F530020005300202DE9F04329
:10582000594C1223E370A37803F0200383B0002BBC
:1058300055D0B423DFF86881A370D8F80030524DFA
:105840001C460020EA78D2B29A421CBF14460120BE
:1058500096061346F6D5002840F08C804B4B1B78FB
:10586000002B33D003F1FF3E5FFA8EFE0026D8F8FE
:105870000040474F444D0EF1010E30464FF0020CF0
:1058800017F8013F2B715FFA86F902E013F0200F41
:1058900009D0EB78DBB293421CBF1C46012013F009
:1058A000020F1A46F2D085F803C0EA78D2B29342CA
:1058B0001CBF14460120D30633D4930631D5D30739
:1058C00044D401367645DBD100284AD10020002996
:1058D0002ED1304B00221A7003B0BDE8F0832E4D5C
:1058E000DFF8BC8003F0FF022B680093009ED8F81D
:1058F000000005E02B680193019B9B1B0F2B1BD81D
:10590000E378DBB2834218BF012213F0200F184660
:10591000F0D192BB21481C4B0024B02204709A7035
:105920008BE708BB184B80229A7004200029D0D046
:10593000154B80229A70CCE7CAB9134B0021802204
:10594000042099709A7003B0BDE8F083C0B90E4B83
:10595000B9F1000F4FF080020CBF022003209A70B3
:10596000B7E7C8F80040B1E7C8F80040DAE7C8F880
:105970000000E2E7C8F8004070E7C8F80030C9E767
:10598000C8F80040E3E700BF006006405F53002016
:10599000FF5200205E530020C053002021530020FE
:1059A00054FAFF1F0548064A10B40123054C037042
:1059B00049001370217010BC704700BF5E53002077
:1059C0005F530020005300200121FFF727BF00BFD5
:1059D000044B054A1A604FF47A71002299601A71DB
:1059E0001A7370474C530020046D010010B4047FFB
:1059F0004160022CC26002D010BC07F073BC836807
:105A000010BC1847F0B4464B464A186BDC6A017963
:105A10001170454922790A709A6A00790870002A43
:105A200046D05968C9688A423ED82168CC8B240484
:105A300002F1FF3065D4C0F30E00C883C88B80B27A
:105A4000C882196B0968C88B000452D4C2F30E00D7
:105A5000C883C88B002480B212F1FF32C88218BFFD
:105A600001229C62D96A2E4809680D6800F124045D
:105A7000A54236D00068C46814F0804F0C680D68E9
:105A800015BF248824780235013544F000440D60A8
:105A90004463196B254B09791970214912B1CA6AFF
:105AA00012791A70F0BC7047521A9A620122D9E733
:105AB000586B196805681E4C0A63CC62CC682D6867
:105AC0001C4E24F080440327B542CC6083F8257037
:105AD0001FD1037F4260022BC2601ED0F0BC07F0D2
