:1000000000800020BD0100009DB0000055B0000040
:1000100055B0000055B0000055B0000055B00000CC
:1000200055B0000055B0000055B000009DB0000074
:100030009DB0000055B0000009CC000059CE000072
:100040009DB000009DB000009DB000009DB000007C
:100050009DB000009DB000009DB000009DB000006C
:100060009DB000009DB000009DB000009DB000005C
:100070009DB000009DB000009DB000009DB000004C
:100080009DB000009DB000009DB000009DB000003C
:100090009DB000009DB000009DB000009DB000002C
:1000A000914F00009DB000009DB000009DB0000089
:1000B0009DB000009DB000009DB000009DB000000C
:1000C0009DB000009DB000009DB000009DB00000FC
:1000D0009DB000009DB000009DB000009DB00000EC
:1000E0009DB000009DB000009DB000009DB00000DC
:1000F0009DB000002DD500009DB0000059D6000035
:100100009DB0000085D700009DB000009DB00000AC
:100110009DB000009DB000009DB000009DB00000AB
:100120009DB000009DB000009DB000009DB000009B
:100130009DB000009DB000009DB000009DB000008B
:100140009DB000009DB000009DB000009DB000007B
:100150009DB000009DB000009DB000009DB000006B
:100160009DB0000001B800009DB000009DB00000EF
:100170009DB000009DB000009DB000009DB000004B
:100180009DB000009DB000009DB000009DB000003B
:100190009DB000009DB000009DB000009DB000002B
:1001A0009DB000009DB000009DB000009DB000001B
:1001B0009DB000009DB0000095C90000564B4CF268
:1001C000205210B51A804DF628121A8000BF00BFC9
:1001D00000F07EFB514B4FF010621A60504A9A605B
:1001E000504ADA60504A136813F4807304D14F49BF
:1001F0000B604FF4A85313604D4B1A78110703D5C9
:100200001A7842F008021A704A4B4B492A221A7097
:100210004A4A4B4B8B4204D252F8040F43F8040B6A
:10022000F8E7484B484900228B4202D243F8042B9E
:10023000FAE74649464A002352F8230041F82300D2
:1002400001336F2BF8D1434B434A802103F8011B44
:100250009342FBD1414B3D4A1A60414B8A221A70AE
:10026000A3F5805324225A70A0221A709A7992071B
:10027000FCD59A79D406FCD43A4A937903F00C035E
:10028000082B384BF9D105221A7143225A719A79F9
:100290009006FCD5334A9179324B4906FBD5324A58
:1002A0004FF0817111600521516020221A709A79F6
:1002B00002F00C020C2AFAD12C4B2D4A1A602D4B5D
:1002C0002D4A1A6000225A60072243F8042C2B4A58
:1002D000C3F80C2D62B60BF003F8144B1B68DA0759
:1002E00005D527480AF0EAFF264B274A1A60274B14
:1002F0001B785B0609D5234C234B22689A4204D114
:100300001F480AF0DBFF002323600EF007FE0AF00F
:10031000C9FE0DF069F8FEE70E200540308004406C
:10032000823F04000100002B10D0034014D0034092
:1003300002D0074000E00740E809002008730100F0
:1003400020F9FF1FE8090020FC56002000F4FF1FE1
:100350000000000000E400E05FE400E008ED00E0E1
:1003600000500640004006404480044004800440A1
:10037000C010050014E000E03F190100000020203B
:1003800069EDFF5B1CE00340A5C3945A00F00740F1
:10039000FFFFFFFFFFFFFFFFFFFFFFFFFFFFFFFF6D
:1003A000FFFFFFFFFFFFFFFFFFFFFFFFFFFFFFFF5D
:1003B000FFFFFFFFFFFFFFFFFFFFFFFFFFFFFFFF4D
:1003C000FFFFFFFFFFFFFFFFFFFFFFFFFFFFFFFF3D
:1003D000FFFFFFFFFFFFFFFFFFFFFFFFFFFFFFFF2D
:1003E000FFFFFFFFFFFFFFFFFFFFFFFFFFFFFFFF1D
:1003F000FFFFFFFFFFFFFFFFFFFFFFFFFFFFFFFF0D
:10040000FFFFFFFFFFFFFFFFFFFFFFFFDEF9FFFF23
:1004100010B5054C237833B9044B13B10448AFF33E
:1004200000800123237010BDE809002000000000B7
:1004300004730100084B10B51BB108490848AFF31D
:1004400000800848036803B910BD074B002BFBD0A0
:10045000BDE81040184700BF00000000EC09002074
:1004600004730100E809002000000000002070472C
:10047000704700BF027C02F0080202F0FF0332B1B5
:10048000C36A406A181A48BF6FF0004070471846A8
:10049000704700BFF8B55548554D564C297803783C
:1004A0002278DFF868E1544F544E120442EA0323E5
:1004B000FF222A700270802022708EF800003870AF
:1004C000B2794F480B4312F00C0FC36002D1B379DD
:1004D000DC063DD4494A9379C3F38103032B40D012
:1004E000464B9A79C2F38102022A42D0434A937959
:1004F000C3F38103022B53D0404A9379C3F38103A2
:10050000022B61D03D4A9379C3F38103012B51D073
:100510003A4A9379C3F38103012B5CD0374B9A7924
:1005200012F00C0F03D19A79D20600D49B79354D85
:10053000354B2A7853F82240D4B1236820469B6873
:1005400098472B7804EB83046468002CF5D1F8BD40
:10055000B3799806EBD5294A9379C3F38103032B2A
:10056000BED19379D906BBD493799B06DFD4B7E784
:10057000F8BD9A79D706B9D49A799606B6D559783E
:1005800001F0020101F0FF020029AFD120211A7011
:100590001A461970937903F00C030C2BFAD1C6E7B5
:1005A0009379DD06A8D493799C06A5D4537898074F
:1005B000BDD5A1E79379DF06AAD593799E06A7D486
:1005C00053789D07B3D4A3E79379D9069AD4537887
:1005D0009B07ACD496E79379DC069FD59379980670
:1005E0009CD453789907A2D598E700BF06C007406E
:1005F00005C0074007C0074009C00740004006404B
:10060000D4560020AC5300206C53002008C0074093
:1006100090F92410104B03604B1C06D0F0B40F4E21
:1006200056F82130984201D0F0BC70470C4F57F873
:10063000213033B18D0000245A1953685460002BC7
:10064000FAD1084C23780022013B237047F821207F
:1006500046F82120E8E700BFCC6101008C53002060
:100660006C530020AD53002038B590F924506B1C1A
:100670001BD00E4B0E4953F825400E4BEDB24FF0F8
:10068000FF320D701A6084B1AD0002E02C44646842
:100690005CB194F82530002BF8D0236820462C4418
:1006A0001B6898476468002CF3D138BD6C53002058
:1006B000AC530020B8F3FF1F704700BF90F924101F
:1006C000104B03604B1C06D0F0B40F4E56F821308F
:1006D000984201D0F0BC70470C4F57F8213033B12D
:1006E0008D0000245A1953685460002BFAD1084C2D
:1006F00023780022013B237047F8212046F821206F
:10070000E8E700BFCC6101008C5300206C5300204F
:10071000AD53002090F92410104B03604B1C06D001
:10072000F0B40F4E56F82130984201D0F0BC70471B
:100730000C4F57F8213033B18D0000245A195368FB
:100740005460002BFAD1084C23780022013B23701F
:1007500047F8212046F82120E8E700BFCC610100DE
:100760008C5300206C530020AD53002010B50021A5
:1007700004460CF0D3F8B0B1B4F8B4319BB2C3B1B5
:10078000B4F8B031B4F8B2219BB20133632BC8BFC7
:10079000002392B2934207D09A1D04EB82029BB2CF
:1007A0005060A4F8B03110BDD4F8B8310133C4F8AA
:1007B000B831BDE810400CF06DB800BF103005F046
:1007C000D7BB00BF00B583B002AB012203F8011D07
:1007D0001030194605F0CCFB03B05DF804FB00BFF8
:1007E000103005F0A1BA00BF00B583B001220DF1B1
:1007F0000701103005F0D2F901280CBF9DF8070061
:100800004FF0FF3003B05DF804FB00BF103005F07F
:1008100061BB00BF2DE9F0410E4680460AF048FD5D
:10082000174D286007F010FF0746286807F0E8FE1C
:100830000446286807F0D2FE6401C0B204F4FF54F5
:10084000BFB20443A7F2BC7744EA4724A8F80040AB
:10085000286807F0E7FE0746286807F09BFE044675
:10086000286807F0A9FEFF02640107F4FF2704F4DB
:10087000FF54C0F346003C4304433480BDE8F0819C
:10088000EC4E002038B5054C014620460CF000FB2C
:10089000054620460CF076FB284438BD8CFFFF1F30
:1008A00010B504460FF00CFA21460246BDE8104090
:1008B00001480CF0D9BA00BFBC51002010B5044665
:1008C0000FF0FEF901462046BDE810400BF00ABECD
:1008D000464A474B102010801B781B0734D5F0B5D3
:1008E000444E454D454C31782B782278DFF82CE189
:1008F000434F824042EA03230B43FF2280213270A0
:100900002A7022708EF800103970D9073D4A14D52C
:100910001A2393603C4F3D4E3D4D3E4C3E4910796D
:1009200000233B7053709370D370D3603370137196
:100930002B70237013700870F0BD1F0705D4DE06FE
:1009400006D504239360E5E7704721239360E1E730
:100950009D0604D45C0604D516239360DAE7906004
:10096000D8E7180602D509239360D3E7D90502D545
:100970000A239360CEE79F0502D50D239360C9E754
:100980005E0502D50B239360C4E71D0502D51E2327
:100990009360BFE7DC0402D502239360BAE79804B2
:1009A00002D507239360B5E7590402D50623936067
:1009B000B0E71F0402D515239360ABE7DE0302D531
:1009C00024239360A6E79D0302D522239360A1E729
:1009D000DC0202D5252393609CE71803F5D4590364
:1009E000F3D49B0244BF2323936093E70020054088
:1009F00002D0074005C0074006C0074007C00740B7
:100A000009C00740D456002000C0074001C007407D
:100A100002C0074003C0074004C0074008C00740A9
:100A2000002976D02DE9F04F0C469100631883B071
:100A30005D68002D57D06B185E68002E50D073187B
:100A40005F68002F49D07B18D3F80480B8F1000FFD
:100A50003CD008EB0103D3F80490B9F1000F32D079
:100A600009EB0103D3F804A0BAF1000F27D00AEB79
:100A70000103D3F804B0BBF1000F18D00BEB010356
:100A80005B6863B1194401934968FFF7C9FF019B93
:100A900093F825201AB11A681846536898479BF8AE
:100AA000253023B1DBF8003058465B6898479AF848
:100AB000253023B1DAF8003050465B68984799F842
:100AC0002530002B35D198F8253063BB97F82530B9
:100AD0001BB13B6838465B68984796F82530CBB920
:100AE00095F8253063B994F8253013B903B0BDE803
:100AF000F08F23685B68204603B0BDE8F04F1847CD
:100B00002B6828465B68984794F82530002BEDD079
:100B1000EFE77047336830465B68984795F82530B3
:100B2000002BE0D0ECE7D8F8003040465B689847EF
:100B3000CCE7D9F8003048465B689847C3E700BF68
:100B400090F92420531C26D01B4B2DE9F04153F87B
:100B50002240D2B2ECB19300E1184D68B5B1E9186A
:100B60004E6866B1F1184F6837B13B445968FFF7DA
:100B700057FF97F82530A3B996F8253063B995F853
:100B800025301BB12B6828465B68984794F82530C0
:100B900063B9BDE8F0817047336830465B689847B9
:100BA000EDE73B6838465B689847E5E723682046F1
:100BB0005B68BDE8F04118476C5300202DE9F8430D
:100BC0004F4CB4F8B021B4F8B23192B29BB29A4211
:100BD00038BF6432D31A3F2B67DD4A4DD4F8AC914D
:100BE000DFF81C8105F58047002637E04FF480725E
:100BF000002109F075FE48460BF04CFEC4F8AC61CC
:100C0000B4F8B231B4F8B0219BB292B293424ED054
:100C10000133632B86BF4FF0000E73461FFA83FE2D
:100C2000063304EB83034FF48072D3F80490C4F8C6
:100C3000AC9109F104012846A4F8B2E109F050FE94
:100C4000B9F1000F04D048460BF024FEC8F8AC619F
:100C500005F50075BD424FF0000934D0A5F5807050
:100C6000B9F1000FC2D1B4F8B231B4F8B0219BB2DF
:100C700092B293423DD00133632B86BFCE4673467A
:100C80001FFA83FE063304EB83034FF48072D3F81C
:100C90000490C4F8AC9109F10401A4F8B2E109F0A0
:100CA0001FFEB9F1000FABD0A5E7BDE8F8832846D9
:100CB0004FF48072002105F5007509F011FEBD4268
:100CC0004FF00009CAD14FF480420F490F4805F098
:100CD0004FF9013005D00E4A136820331360BDE888
:100CE000F883012114200AF04FF90A4B0A4A1A60CE
:100CF000F1E749464FF4807209F0F2FD80E700BF4A
:100D0000004F0020700B0020700A0020480A0020CD
:100D1000FC4E00200CED00E00400FA0570B5124C0A
:100D2000124D13480D210BF0DDFB20460CF02AF983
:100D30002E88104810210BF0D5FB314620460CF0D0
:100D4000A7F820460CF01EF90B4A0C4B12882A809B
:100D50000B480022A3F8B42104F0C8FC6420BDE8CD
:100D600070400AF023BC00BF8CFFFF1FC45400205A
:100D7000F061010000620100EC540020004F0020EF
:100D8000480A00202DE9F04F95B00AF091FADFF8FB
:100D90006892884CC9F8000007F032FC236898423A
:100DA00000F067820A218448844E854F0BF09AFB3D
:100DB00084480CF0E7F8D9F8000007F021FC206027
:100DC000D9F8000007F040FC23687F4902467F48BD
:100DD0000EF008FF002401237C4A7D49376007A8F4
:100DE0008DF81C408DF81D4004F09CFDDFF8DC817F
:100DF000002110200AF09EFB98F8002000232F2AE3
:100E00008DF81C308DF81D3000F0B68107AC2046FF
:100E100001236E4A6E4904F021FE58B19DF81C3042
:100E200013F0700F06D00FCC694D0FC50FCC0FC556
:100E300023682B60D9F8000007F006FC0446D9F8B7
:100E4000000007F0DDFB8246D9F8000007F0C6FB82
:100E50000590D9F8000007F0E5FB8346D9F80000BB
:100E600007F098FB0490D9F8000007F0A5FB059A5D
:100E7000049B0092039002932246CDF804B053469F
:100E8000544955480EF0AEFE002508243760102066
:100E900009F05EFF0DF022FC4FF06A510DF072FC7C
:100EA000014628460DF066FB013C0546EFD1484857
:100EB000DFF8489104F01AFC484901F23C4004F084
:100EC0004DFE4FF47A7646230BA8454A40498DF8EB
:100ED0002C408DF82D408DF820408DF82840099643
:100EE000CDF81C9004F0BAFD9DF82C30002B40F09A
:100EF00051810E213B480BF0F5FA012114200AF034
:100F000043F8394B394A1A6098F800202F490023DA
:100F10002F2A8DF81C308DF81D3000F0208107A895
:100F200001232A4A2A4904F099FD60B19DF81C303A
:100F300013F0700F07D007AC0FCC254D0FC50FCCA9
:100F40000FC523682B604FF47A7500240995C223DE
:100F5000214A1F498DF82C400BA80BAD8DF82D4070
:100F60008DF820408DF82840CDF81C9004F076FDD7
:100F70000FCD1F4E9DF82040347106F110040FC4B0
:100F80000FCD0FC4099A9DF828302968B2603373D9
:100F9000114821600EF094FE01460F48154FDFF80E
:100FA00048B0DFF848A00BF09DFA06480BF0EAFFC6
:100FB0006CE000BF2852002014620100685300203A
:100FC000150800008CFFFF1F20620100D050002098
:100FD000B04E00202C62010094510020744A002081
:100FE0004C6201008C6201000CED00E00400FA0587
:100FF000380A0020CC500020EC4E0020A8610100EF
:1010000004F02CFD60B19DF81C30AA4D13F0700F58
:1010100007AC05D00FCC0FC50FCC0FC523682B60D4
:101020004FF47A750024C223A34AA24909950BA85C
:101030000BAD8DF82C408DF82D408DF820408DF8AB
:101040002840CDF81C9004F009FD0FCD9B4C9DF875
:1010500020E086F804E00FC40FCD0FC49DF82830BF
:10106000099A33732968B260934821600EF028FE14
:10107000014691480BF036FA91480BF083FF0A20A5
:101080000AF094FA3B68B3F57A7F61DC347C8D49D1
:101090008948F4B93B6801331A463B600EF0A2FD63
:1010A00098F80050884A83498DF81C402F2D4FF046
:1010B000010307A88DF81D40A2D15478002C9FD1C0
:1010C000084604F013FB814901F23C4004F046FD60
:1010D000A6E77F487F4907687F4C804A804B814D57
:1010E00003C9206092E80300A06093E80300102683
:1010F0000123A382E382E060266138460DF02EFDD5
:101100003946A06138460DF035FA0DF027FD764AD4
:10111000E0612B68668492E803005B0203F1240619
:101120002C226062214602276448A36227846660FD
:1011300004F01EFF09216D480BF0D4F929686048BE
:101140000BF0A6FE5E480BF01DFF15B0BDE8F08F5A
:101150000121142009F018FFCBF800A096E74B7886
:10116000002B7FF4DCAE534804F0C0FA574901F27B
:101170003C4004F0F3FCE6E698F80130002B7FF4E5
:1011800045AE4C4804F0B2FA504901F23C4004F03C
:10119000E5FC4FE64848564E0EF092FD46490246A1
:1011A0000BA804F0E5FE14A92C2301F8383D012218
:1011B0000DEB030004F0DCFE06F1080707AC16F89F
:1011C000011F00230A2220460BF02CFFBE42F6D15D
:1011D000284648490DF0D6FA4FF078510DF0D2FA72
:1011E00014A92C260546012201F8356D0DEB0600E9
:1011F00004F0BEFE404B18680CF01AFE02270B46A6
:101200000246009720460BF06BFF14A9012201F85B
:10121000366D0DEB060004F0ABFE28460CF008FE20
:1012200000970B46024620460BF05AFF14A90122F4
:1012300001F8376D0DEB060004F09AFE2F480EF012
:101240003FFD2E4902460DEB060004F091FE2046BC
:101250000BF098FE28462A490DF032FC60B928466A
:1012600028490DF02DFC002858D10BA804F03EFAB7
:101270004AE6254E254FB9E5254E3368002BEED0C2
:10128000012105200AF024F940F6B8300AF08EF961
:10129000002105200AF01CF91E4A1F490023137083
:1012A0000BA80B22336004F063FE20460BF06AFEAD
:1012B000D5E700BFB04E002094510020480A00201E
:1012C0008CFFFF1F9C620100D0500020744A002058
:1012D00008520020A862010078520020B06201008C
:1012E000B8620100F4510020C0620100C862010030
:1012F00053510020CDCCBC406451002008FAFF1FA0
:101300006666464000004040685300201508000013
:1013100060510020F94E0020546201002822174934
:101320000BA804F025FE20460BF02CFE0BA804F0C1
:10133000DDF900250824102009F00AFD0DF0CEF992
:101340004FF06A510DF01EFA014628460DF012F9D1
:10135000013C0546EFD10A490DF014FA4FF07851DF
:101360000DF010FA07490DF0ABFB00283FF47DAFFC
:1013700047F230500AF01AF9DBE700BF6062010063
:10138000CDCCBC400000404038B50E211C481D4D5E
:101390000BF0A8F81C480BF0F5FDFFF7F3FC1B4B16
:1013A000D5F8AC0100241C6018B10BF073FAC5F835
:1013B000AC41B5F8B241B5F8B031A4B29BB2A3428A
:1013C0000ED00134642C28BF0024A31D05EB830339
:1013D00058680BF05FFAB5F8B0319BB2A342F0D178
:1013E0000123A4B20B210A48A5F8B241A5F8B431F3
:1013F0000BF078F80448BDE838400BF0C3BD00BFDF
:10140000D4620100004F00208CFFFF1FFC4E002023
:10141000E462010070B517488EB004F067F9164910
:101420000EAD01F23C4004F099FB144B45F8343DFD
:1014300000244623124A0F498DF8144005A84FF4A2
:101440007A768DF815408DF808408DF81040039697
:1014500004F004FB9DF8143053B12922094905A872
:1014600004F086FD28460BF08DFD05A804F03EF93A
:101470000EB070BDB04E0020744A0020A86101007B
:101480004C620100F0620100F8B5394D394C2A6810
:1014900054F8223013B1013B44F822301021364871
:1014A000334F0BF01FF82B68344854F823100A22EE
:1014B00000230BF0B7FD31480BF064FD2B6854F8A6
:1014C0002320DAB901332E4A3B600126042B167023
:1014D00022D02C4C2C4A04F58C6712F82320384675
:1014E00004F26C414FF0384305F0A4FFE0B92748FF
:1014F000FFF7E4F928680130FFF7C4F90E2124480A
:101500000AF0F0FF29681D4801310BF0C1FC1B48AF
:10151000BDE8F8400BF036BD0E211E480AF0E2FF90
:1015200016480BF02FFDFEE704F23C40276004F064
:10153000DDF83146204605F081FE014690B1114CA0
:1015400004F23C463046214604F008FB0028CED089
:1015500094F83C3413F0700FC9D00F4B1E60FFF7A6
:1015600059FFCBE7204605F069FE0028E7D1BEE72A
:1015700064520020105200201C6301008CFFFF1FEA
:1015800000520020744A0020BC500020506301002B
:1015900040630100306301006453002008B501215D
:1015A000052009F095FF4FF4FA6009F0FFFF0021D4
:1015B000052009F08DFF024B01221A7008BD00BF03
:1015C000F94E002008B50121052009F081FFC8204F
:1015D00009F0ECFF0021052009F07AFF642009F0F2
:1015E000E5FF024B01221A7008BD00BFF94E002032
:1015F00008B50121052009F06BFF40F6B83009F06D
:10160000D5FF0021052009F063FF024B00221A706C
:1016100008BD00BFF94E00202DE9F0438FB004460D
:101620000EF04EFB00B201281CDDB4F9003044F28C
:101630005372934200F0A68118DD44F6545293424F
:1016400000F0DA8045F2532293422FD044F6521232
:10165000934207D10BAAE01CBD490EF0E9FABD4B3D
:101660000B9A1A6001200FB0BDE8F08344F24E429D
:1016700093420FD044F252429342F3D10BAAE01CA2
:10168000B3490EF0D5FAB44B0B9A1A6001200FB093
:10169000BDE8F0830BAAE01CAD490EF0C9FAAF4BD0
:1016A0000B9A1A6001200FB0BDE8F0830AAD09A9BA
:1016B00008AA05ABE01C039502910192009307AACA
:1016C00006ABA7490EF0B4FAA64B079D59681868F7
:1016D0009A680A9EDDF824E0DDF820C0A5F5FA65D9
:1016E000ADB20BAF2CB207C7069F05991E3415F09B
:1016F000030F4FEAA408FDB240F053819A4B022D2C
:101700008CBF1F4600279948994BC8EB040400FB87
:1017100008F06A1E03FB0400002A00EB070347DD04
:101720009DF82C409048012A00FB043340D09DF8DE
:101730002D40022A00FB04333AD09DF82E40032AA4
:1017400000FB043334D09DF82F40042A00FB0433FF
:101750002ED09DF83040052A00FB043328D09DF898
:101760003140062A00FB043322D09DF83240072A7C
:1017700000FB04331CD09DF83340082A00FB0433DF
:1017800016D09DF83440092A00FB043310D09DF890
:1017900035400A2A00FB04330AD00B2A9DF8364054
:1017A00018BF9DF8372000FB043318BF00FB02333D
:1017B0005FFA8EF2C2EB02125FFA8CF04FF46164B2
:1017C000920004FB0022684D6A4C6B48C9B2013993
:1017D00052FA86F205FB01221344122123600AF01B
:1017E00081FE216865480BF053FB64480BF0CAFB8F
:1017F00001200FB0BDE8F0830AAD09A908AA05AB26
:10180000E01C039502910192009307AA06AB54498C
:101810000EF00EFA534B079F9A68186859680A9E93
:10182000DDF824E0DDF820C0A7F5FA67BFB20BAC05
:101830003DB207C4069A059C1E3517F0030F4FEA08
:10184000A508D7B240F0AA80474B022F8CBF99461B
:101850004FF000094549464BC8EB050501FB08F16F
:101860007A1E03FB0510002A00EB090347DD9DF8F3
:101870002C003D49012A01FB003340D09DF82D008A
:10188000022A01FB00333AD09DF82E00032A01FB07
:10189000003334D09DF82F00042A01FB00332ED0F2
:1018A0009DF83000052A01FB003328D09DF8310057
:1018B000062A01FB003322D09DF83200072A01FBE3
:1018C00000331CD09DF83300082A01FB003316D0EA
:1018D0009DF83400092A01FB003310D09DF8350033
:1018E0000A2A01FB00330AD00B2A9DF8360018BFE4
:1018F0009DF8372001FB003318BF01FB02335FFA6C
:101900008EF2C2EB02125FFA8CF04FF46165920026
:1019100005FB0022E1B2144C164D52FA86F2013951
:1019200004FB01241C4420462C6009F0C7FC0B2159
:1019300013480AF0D7FD214600230A220F480BF076
:1019400071FB0E480BF01EFB01200FB0BDE8F083C9
:101950009063010048FAFF1F3CFAFF1F6C0A002049
:1019600070630100D8610100805101000085E2012F
:101970008033E101F44E0020946301008CFFFF1FCF
:10198000846301000BAAE01C07490EF051F9074BD4
:101990000B9A1A6001200FB0BDE8F0834FF00009E8
:1019A00058E70027AFE600BF9063010000FAFF1F71
:1019B0002DE9F043A3B000254FF47A76764F7748AF
:1019C0000A968DF830508DF831508DF824508DF8EE
:1019D0002C50089703F08AFE714901F23C4004F054
:1019E000BDF801236F4A6D49179619A88DF8645008
:1019F0008DF865508DF858508DF86050159704F0AB
:101A00002DF80DF1640EBEE80F000CAE0FC6BEE857
:101A10000F000FC69DF83080DEF800109DF85800CA
:101A2000179A9DF8603031608DF824000A928DF885
:101A30002C30B8F1000F46D02E468DF800604FF0E4
:101A400000094FF0FF08012215A90CA804F0A6F820
:101A500009F1010322AA01284A441BB224D01D2BFC
:101A600002F8888C05DC9946EDE71D2B01DC0A2A7B
:101A7000F9D1013B9BB222AA1A4402F8886C9DF866
:101A800000202F2A04D0012B02D96846FFF7C4FD9D
:101A90009DF830301B0711D40CA803F027FE2DBB96
:101AA000012023B0BDE8F0839DF854200D2A08BF23
:101AB0004B4662D11D2BDCDC9946C4E7139A119B7F
:101AC0009A42BAD1E8E7142137480AF00BFD3748AB
:101AD0000BF058FA0D22364936480BF0C5F9354857
:101AE0000BF050FA404623B0BDE8F0830B2132489A
:101AF0000AF0F8FC00230A2221462C480BF092FA47
:101B00002A480BF03FFA254803F0F0FD2449002550
:101B100001F23C4004F022F84FF47A768DF86450DC
:101B20008DF865508DF858508DF8605063231D4A2C
:101B30001A49179619A819AD159703F08FFF0FCD05
:101B40000CAE0FC60FCD0FC62968179A9DF86030EE
:101B50009DF8585031600CA821460A928DF82C301F
:101B60008DF8245004F014F9022214490CA804F052
:101B7000FFF90CA803F0BAFD92E722AB03EB0901D1
:101B8000542A09F1010301F8882C1BB27FF46DAFD0
:101B9000119C0546013C8DE7A8610100B04E002074
:101BA000744A0020A8630100C46301008CFFFF1F7A
:101BB000DC630100BC510020B4630100C06301007C
:101BC00030B583B002AD079C05F8082D8DF80200F2
:101BD000069A8DF804304E3428468DF801108DF8A1
:101BE00005208DF8064006F043FD09F067FB09F07B
:101BF0005FFB024B186003B030BD00BF704A00208D
:101C00002DE9F041044604200D46164609F084FCF7
:101C10008046032009F080FC0746B8F1000F2AD166
:101C2000DFF89C80244AD8F800300121132B117072
:101C300039DD0133642BC8F800303ADDC82BD4BF3E
:101C400005343C3467B91D4F1B4A3B680121132BF7
:101C5000117022DD3C2C16DC01233B60013C02E0CC
:101C6000164B00221A60AC4209DBB442C8BF2C46B6
:101C70002046BDE8F081124B00221A60E2E73446AC
:101C80002046BDE8F0813B680133642B3B60E5DD15
:101C9000C82BD4BF053C3C3CE5E7C82009F086FCD6
:101CA0003C2CD9DDEFE7C82009F080FCD8F80030E3
:101CB000BFE70134C6E700BFF04E002020520020ED
:101CC0000452002010B5094C204608F027FA20469F
:101CD000012107F049FC2046022107F03FFC0022C9
:101CE00020461146BDE8104007F034BCBC5100202E
:101CF00038B5054606F0A8FC1E4C014620460BF000
:101D0000C7F82D200AF0C2FC284606F079FC0146EF
:101D100020460BF0BDF82D200AF0B8FC284606F04E
:101D20005DFC014620460BF0B3F8012112480AF091
:101D3000D9FB284606F076FC014620460BF0A8F8B1
:101D40003A200AF0A3FC284606F024FC014620466F
:101D50000BF09EF83A200AF099FC284606F02CFC7D
:101D6000014620460BF094F82046BDE838400BF0C1
:101D700009B900BF8CFFFF1F406501002DE9F0434A
:101D8000434A444BDFF81891DFF81881424D98F828
:101D90000010167899F800701A78286883B03C23F0
:101DA00013FB071713FB062606F03CFC04462868C5
:101DB00006F0F0FBC4EB041400EB8404286806F082
:101DC00043FC00F14E0328688DF8063006F018FC3D
:101DD0008DF80500286806F001FCB7428DF8040074
:101DE00006D2A74232D8A64230D303B0BDE8F08372
:101DF000A742FAD9A642F8D202A8002399F80020F7
:101E000000F8083D98F800308DF801308DF8022078
:101E100006F02EFC0F21286020480AF063FB28689A
:101E2000FFF766FF09F044FA2B68834204DA03F5F2
:101E3000A83303F5C0732B600F2118480AF052FB3A
:101E40002868FFF755FF03B0BDE8F08302A8002320
:101E500099F8002000F8083D98F800308DF801301E
:101E60008DF8022006F004FC0F2128600B480A4C74
:101E70000AF038FB2868FFF73BFF09F019FA2B68D6
:101E80008342D9DA03F5A83303F5C0732360D3E79F
:101E900090510020F84E0020F44E0020EC63010029
:101EA000340A00206052002010B5002009F016F816
:101EB000244C2070012009F011F86070022009F014
:101EC0000DF8A070032009F009F81F4BE07022689C
:101ED0001A60042009F002F82070052008F0FEFFC7
:101EE0006070062008F0FAFFA070072008F0F6FFE7
:101EF000164BE07022681A60082008F0EFFF144BC0
:101F00001870092008F0EAFF124B18700A2008F038
:101F1000E5FF114B18700B2008F0E0FF0F4B187015
:101F20000C2008F0DBFF0E4B18600D2008F0D6FFE8
:101F30000C4B18600E2008F0D1FF08B10A4B187046
:101F400010BD00BF685100203CFAFF1F48FAFF1F78
:101F5000340A00206052002090510020F84E0020EA
:101F6000F851002030FAFF1F38FAFF1F264B10B53A
:101F70001968264C00202160C9B209F005F8617883
:101F8000012009F001F8A178022008F0FDFFE178B6
:101F9000032008F0F9FF1E4B196821600420C9B224
:101FA00008F0F2FF6178052008F0EEFFA178062026
:101FB00008F0EAFFE178072008F0E6FF154B08205B
:101FC000197808F0E1FF144B0920197808F0DCFFBC
:101FD000124B0A20197808F0D7FF114B0B20197803
:101FE00008F0D2FF0F4B0C20197808F0CDFF0E4BF4
:101FF0000D20197808F0C8FF0C4B0E201978BDE8A9
:10200000104008F0C1BF00BF3CFAFF1F685100201C
:1020100048FAFF1F340A002060520020905100202F
:10202000F84E0020F851002030FAFF1F38FAFF1F49
:102030002DE9F04F8DB010290791069000F0BF8078
:10204000202900F0B0800024631C18461D46089328
:102050000CF040FBE4B244F0E06309900021284614
:102060000A9344F08E430B930CF04EFB01465A4802
:102070000CF03CFC054607980CF02CFB01460CF0DC
:1020800079FA044606980CF025FB014620460CF030
:1020900079FB014628460CF029FC4FF001084FF06F
:1020A0007E550746C1464FF0010A4FF0000B5046DF
:1020B0000CF014FB39460CF065FB04460CF028FDCF
:1020C0000CF00CFB014620460CF052FA294606465D
:1020D0000CF0F6FC4FF0874148B120460CF0F0FCC4
:1020E00028B120460CF05AFD35468046D1461AF1FB
:1020F000010A4BF1000BBBF1000F08BFBAF1400F12
:10210000D5D109F1FF34089B079E0593204602961E
:10211000CDF81080CDF80C900CF0DCFA4FF07E5129
:102120000CF028FA2D490CF02DFB054640460CF02A
:10213000D1FA014628460CF0D9FB4FF07C510CF047
:1021400021FB09990CF0D2FB054670000CF0C6FA91
:10215000014628460CF0CAFB0CF0DAFC204B069A2C
:10216000019000921F492048204E214D1A460AF046
:102170004BFF204920480F68220308F1FF3302F487
:102180007F22C3F30B03134327F010420A6033602E
:102190000A9B2B600B9B03600B6843F010430B60A2
:1021A0000DB0BDE8F08F154B0B9303F140430A933C
:1021B0004FF0804309930223114D08935BE7114BC5
:1021C0000B9303F140430A934FF081430993042397
:1021D0000D4D08934FE700BF4054094C4054894CC3
:1021E00000A24A04FC6301008CFFFF1F04F10240BF
:1021F00008F0024080F0024088F0024001000047F1
:102200004054894B030000474054094B2DE9F04FDF
:102210000546DFF87C82974E974F98F800E02E60D5
:10222000FF2085F82400DFF86C92387859F820C038
:102230000023BEF1060F8DB00C4685F8253085F8D9
:1022400026309CBF88F800309E46BCF1000F00F09D
:10225000A8808C455BD06346810001E09C4256D04B
:102260000B445B68002BF9D1634603EB010ADAF8F3
:102270000430002BF9D105EB010BCAF80440BEF184
:10228000060F4FF0FF044FFA80FACBF804308DF8B8
:102290002C4002968DF82D308DF82E3085F824A034
:1022A000644605D8002388F80030002C00F0A9808F
:1022B000A24226D0234601E0934222D00B445B6821
:1022C000002BF9D104EB010CDCF80440002CF9D10F
:1022D000CCF804200CAB19440024431CBAF1FF3F96
:1022E00041F8244C3B708DF82CA0029605D0634930
:1022F00051F82A3002AA934272D028460DB0BDE8A8
:10230000F08F0130387028460DB0BDE8F08F002303
:10231000FF21BEF1060F02968DF82C108DF82D309E
:102320008DF82E3001D888F800309445E9D0634606
:10233000810001E09A42E4D00B445B68002BF9D1A4
:102340008C44DCF804402CB1A4468C44DCF80440F6
:10235000002CF9D10CAB19444FFA80FE431CBEF19E
:10236000FF3FCCF804203B7041F8244C02968DF8D6
:102370002CE0C2D0414951F82E3002AA9342BCD180
:1023800059F82E304FEA8E0623B19A1953685460DB
:10239000002BFAD10023387049F82E3041F82E3046
:1023A000ABE7B0B38100DFF8D4A049F8204005EBDB
:1023B000010C00234AF82050BEF1060FCCF804307F
:1023C0004FFA80FA4FF0FF0C02968DF82D308DF801
:1023D0002E3085F824A08DF82CC07FF663AF64E71B
:1023E00059F82A304FEA8A0623B19A195368546083
:1023F000002BFAD10023387049F82A3041F82A30EE
:102400007BE7F0B11D4B49F8202002AA43F82020B9
:1024100060E71B491B480B68019243F080630B6027
:102420000368194923F080430360152008F074FE07
:10243000164B98F800E0019A4FF4001119603878B3
:10244000B0E70F4C0F482368019243F0806323608C
:1024500003680D4923F080430360152008F05CFEFB
:102460000A4B019A4FF40011196038784FFA80FA3C
:102470008100C7E7CC610100AD5300208C530020E0
:1024800004700440007004409504000000E100E086
:10249000BCF3FF1F6C5300202DE9F041584D594CFF
:1024A000594E08F0D3FC0421584807F023FE2A684F
:1024B00026600023637223612372E3600AB99AE005
:1024C0001A465369002BFBD154610027504B4D48ED
:1024D0006761A780E780236002F048FB4D4A4FF018
:1024E000010E02F118013B4638461772D76016609C
:1024F00082F809E01161174600E0396941F82300CC
:10250000517A444E01339942F7DC29683C4B09B9B2
:1025100073E019464B69002BFBD14A613E4B3F49A2
:102520001C600024184654619480D480A2F8B04105
:102530001160A2F8B2415A60C2F8AC41A2F8B441AD
:10254000C2F8B8411C725C72DC600AF0F3F9344ADC
:10255000344B9069344A1A600CF0C0F8334D344B58
:10256000344E18604FF0FF08334B344A344985F835
:1025700025402846012785F824802B606C63AC63D6
:1025800085F83C4085F826700CF0B6FC2D4B2B4AA4
:102590002D4986F82480304686F82540336086F839
:1025A000274086F8284086F826700CF0A5FC2A46BD
:1025B00031462648264DFFF729FE204A2549234863
:1025C0000CF09AFC244A254B2549147464204FF4DE
:1025D0007A76547414711473DC7183F83C4483F874
:1025E0003D4483F86A4483F8600496601560C3F83C
:1025F0006C14BDE8F0812C6067E71E608EE700BFB9
:10260000C0540020745100209C610100BC51002086
:1026100094660100004F002038510020EC61010059
:1026200014FAFF1F4851002078660100EC5000208A
:1026300008520020305200203C670100FCF9FF1FC7
:10264000BD06000050670100150700000C0A0020BD
:10265000A861010011060000380A0020744A002019
:102660000000023870B5104C06460D4620460A217F
:1026700002F0EAFDC6F30721204602F0BDFBF1B2ED
:10268000204602F0B9FBC5F30721204602F0B4FB57
:10269000E9B2204602F0B0FB204602F0E7FDB0FAB6
:1026A00080F0400970BD00BF4C53002010B5184C9D
:1026B0000A21204602F0C8FD2046002102F09CFBC2
:1026C0002046302102F098FB2046002102F094FBC6
:1026D0000021204602F090FB204602F0C7FD204674
:1026E0000A2102F0B1FD2046002102F085FB2046C0
:1026F000022102F081FB2046002102F07DFB2046F2
:10270000002102F079FB2046BDE8104002F0AEBD8A
:102710004C5300200238032838B504DC002880F22E
:10272000C281002400E00C240A21C64802F08CFD7E
:102730000021C44802F060FB3021C24802F05CFB7B
:102740004021C04802F058FB6021BE4802F054FB13
:10275000BC4802F08BFD0A21BA4802F075FD002149
:10276000B84802F049FB2621B64802F045FB00219B
:10277000B44802F041FB6C21B24802F03DFBB14885
:1027800002F074FD0A21AF4802F05EFD0021AD4861
:1027900002F032FB2821AB4802F02EFB0121A948B0
:1027A00002F02AFBF021A74802F026FBA54802F020
:1027B0005DFD0A21A34802F047FD0021A14802F077
:1027C0001BFB2C219F4802F017FB0F219D4802F0B4
:1027D00013FB22219B4802F00FFB9A4802F046FDB2
:1027E0000A21984802F030FD0021964802F004FBCF
:1027F0003C21944802F000FB0021924802F0FCFAD0
:102800000021904802F0F8FA8E4802F02FFD8E4B1E
:102810008C481D680A21002D40F0188102F014FD3B
:102820002946884802F0E8FA3021864802F0E4FAA6
:102830002946844802F0E0FAA221824802F0DCFA3C
:10284000804802F013FD0A217E4802F0FDFC294673
:102850007C4802F0D1FA02217A4802F0CDFA2946EA
:10286000784802F0C9FA4321764802F0C5FA754863
:1028700002F0FCFC0A21734802F0E6FC00217148DA
:1028800002F0BAFA04216F4802F0B6FA00216D484E
:1028900002F0B2FA21466B4802F0AEFA694802F043
:1028A000E5FC0A21674802F0CFFC0021654802F0F0
:1028B000A3FA0621634802F09FFA0121614802F061
:1028C0009BFA30215F4802F097FA5E4802F0CEFC96
:1028D0000A215C4802F0B8FC00215A4802F08CFA48
:1028E0000A21584802F088FA0021564802F084FA7A
:1028F0000021544802F080FA524802F0B7FC0A2145
:10290000504802F0A1FC00214E4802F075FA0E2159
:102910004C4802F071FA00214A4802F06DFA082191
:10292000484802F069FA474802F0A0FC0A214548ED
:1029300002F08AFC0021434802F05EFA102141486F
:1029400002F05AFAFF213F4802F056FAFF213D48B3
:1029500002F052FA3B4802F089FC0A21394802F0A1
:1029600073FC0021374802F047FA2221354802F073
:1029700043FA7F21334802F03FFA7F21314802F0C9
:102980003BFA304802F072FC0A212E4802F05CFC4F
:1029900001212C4802F030FA24212A4802F02CFAB6
:1029A0000021284802F028FA0021264802F024FAE3
:1029B000244802F05BFC0A21224802F045FC002179
:1029C000204802F019FA24211E4802F015FA0121CC
:1029D0001C4802F011FA14211A4802F00DFA1948A5
:1029E00002F044FC0A21174802F02EFC0021154891
:1029F00002F002FA2A21134802F0FEF900211148E0
:102A000002F0FAF900210F4802F0F6F90D4802F041
:102A10002DFC0A210B4802F017FC0021094802F0A6
:102A2000EBF92021074802F0E7F90021054802F000
:102A3000E3F90021034802F0DFF9024802F016FC36
:102A4000012038BD4C5300206051002002F0FCFBF7
:102A50000021164802F0D0F93021144802F0CCF9D8
:102A60000021124802F0C8F9AB21104802F0C4F965
:102A70000E4802F0FBFB0A210C4802F0E5FB0021A6
:102A80000A4802F0B9F90221084802F0B5F900211C
:102A9000064802F0B1F96321044802F0ADF9034899
:102AA00002F0E4FBE6E68000C4B23DE64C530020B1
:102AB00038B5304B304C1021054653F82000FFF755
:102AC000B7FA2E4802F03EFA2846FFF723FE227896
:102AD0002B48114601F0C8FC23680F2B0CD8DFE807
:102AE00003F00C1014181C2024282C3034383C40DF
:102AF0004408244B244A1A6038BD224B234A1A60EA
:102B000038BD204B224A1A6038BD1E4B214A1A603C
:102B100038BD1C4B204A1A6038BD1A4B1F4A1A6038
:102B200038BD184B1E4A1A6038BD164B1D4A1A6034
:102B300038BD144B1C4A1A6038BD124B1B4A1A6030
:102B400038BD104B1A4A1A6038BD0E4B194A1A602C
:102B500038BD0C4B184A1A6038BD0A4B174A1A6028
:102B600038BD084B164A1A6038BD064B154A1A6024
:102B700038BD00BF14FAFF1F00FAFF1F4C5300209E
:102B80004851002064510020BD549341103377C058
:102B9000993918C0BE0D68BFCE71153F8D0903402D
:102BA000CCC9624009A7A3407DDBD140C4160141D6
:102BB00054FC1741D0E83041195546419FAB5F4165
:102BC000A04176415E2E86413021014806F088BC46
:102BD000BC5100202DE9F04782B008F069FBB34BEF
:102BE000B34E18600121B348B34FB44CDFF82C93B7
:102BF000DFF82C83DFF82CA306F0B0FC0121AD48F0
:102C000006F0B2FC12220021AA4806F0A3FC04221E
:102C1000AB49A8480AF028F93168A6480AF038F903
:102C20000222A849A3480AF01FF9A2480AF0AAF90B
:102C30000622A5499F480AF017F939689D480AF00D
:102C400027F90322A1499B480AF00EF90322A04963
:102C500098480AF009F90A222178964800230AF0D8
:102C6000E1F994480AF08EF9D9F8003058F82300B9
:102C70000BF034FD97490BF039FE0BF0D9F8024602
:102C80000B468C4894490AF0BFF9944989480122BF
:102C90000AF0EAF8DAF80050002128460BF02EFF7F
:102CA00028B12B21834806F01BFCDAF80050284697
:102CB0000BF0BEF80B46024689497E480AF0A4F99B
:102CC000022288497B480AF0CFF80121794806F0B2
:102CD00045FCD9F80030366858F82330700003FB03
:102CE00000F000F500402C300BF0F4FC79490BF0BB
:102CF000FDFD78490BF0FAFD7B4B1B68012B8146EB
:102D000000F014814FF07E5830460BF0E7FC41464E
:102D10000BF038FD80463868DFF80CA2734D304464
:102D20000BF0DCFC014640460BF0E0FD0746207846
:102D30000BF0D4FC6E4B19680BF024FD6D4B044670
:102D400018680BF0CBFC6C4B19680BF01BFD6B4B40
:102D500019680BF00FFC39460BF014FD394680461C
:102D60004FF07E500BF004FC654B19680BF00AFD28
:102D7000014640460BF0FEFB014620460BF0B6FD37
:102D800060490BF0FFFC0BF0E9FEDAF8004000238D
:102D900080462B606B60AB60EB6074B120460BF03B
:102DA00099FC49460BF0A2FD0BF042F80AF054FEE4
:102DB0000BF06AFB286000FB06F4DAF8040068B147
:102DC0000BF088FC49460BF091FD0BF031F80AF04E
:102DD00043FE0BF059FB686000FB06F0DAF80830A0
:102DE000044473B118460BF075FC49460BF07EFDA8
:102DF0000BF01EF80AF030FE0BF046FBA86000FB5B
:102E000006F3DAF80C001C4468B10BF063FC494689
:102E10000BF06CFD0BF00CF80AF01EFE0BF034FB0F
:102E2000E86006FB00F020440BF054FC39460BF040
:102E30005DFD044640460BF04DFC014620460BF07C
:102E40005DFEF0B901462E221A4806F083FB0D22E2
:102E50002D4918480AF008F820462C490BF046FD89
:102E60000AF0E6FF022402460B46009411480AF0DD
:102E700037F927490F48012202B0BDE8F04709F0B1
:102E8000F3BF2E2200210B4806F064FB0E222149DD
:102E9000084809F0E9FF20490648A1FB0831090C60
:102EA00000230A220AF0BEF8E3E700BFEC4E002040
:102EB0003CFAFF1FBC51002048FAFF1F38FAFF1FE1
:102EC0001864010020640100246401002C640100E6
:102ED0003064010000007A44346401004065010060
:102EE000A065010040640100F8510020105200204C
:102EF00044FAFF1F605100204CFAFF1F50FAFF1FD9
:102F000040FAFF1F000061455464010000C0A8475B
:102F1000806301004464010007452EC230FAFF1FA0
:102F200014FAFF1F6451002068520020124A134B0C
:102F300010781B78834286BFC3F11803C018C01AEB
:102F40000BF0CCFB0E4A0F4B80461B781078834267
:102F500086BFC3F13C03C018C01A0BF0BFFB0A497F
:102F6000054640460BF00EFC29460BF003FB0749D3
:102F70000BF0BCFC8046C7E690510020340A0020CC
:102F8000F84E002060520020000070420000B4445F
:102F900038B504460D463148012106F0DFFA2AB261
:102FA00000212E4806F0D6FA204605F04DFB0146DA
:102FB0002A4809F06DFF2D21284806F091FA204695
:102FC00005F01EFB0146254809F062FF2D2123482C
:102FD00006F086FA204605F001FB01461F4809F07D
:102FE00057FF02221E491D4809F03EFF204605F00A
:102FF00019FB092803DC3021184806F071FA204635
:1030000005F010FB0146154809F042FF204605F087
:10301000C1FA012205461349104809F025FF092D80
:1030200003DC30210D4806F05BFA29460B4809F015
:103030002FFF204605F0C0FA01220446094907483F
:1030400009F012FF092C03DC3021044806F048FA8D
:1030500021460248BDE8384009F01ABFBC510020A3
:1030600064640100786401002DE9F041A34D2C68EF
:103070002CB1012C00F0A08030BFBDE8F08108F039
:1030800017F99F4FDFF8E88238609E489E4E07F0A0
:1030900045F801219B4806F067FA0221994806F09D
:1030A0005DFA22462146974806F054FA0A229749CB
:1030B000944809F0D9FE934809F064FF0121914832
:1030C00006F04CFA122221468E4806F043FA0522F9
:1030D0008F498C4809F0C8FED8F8001089480131A2
:1030E00009F0D6FE01228B49864809F0BDFED8F8CA
:1030F0000020894B834853F8221023460A2209F006
:1031000091FF30682821FFF743FF37213868FFF728
:103110003FFF7C4807F03EFA32683B68511E9942F7
:1031200009DCDFF8508298F8001021B17B4909686A
:10313000002940F084809A423ADC794F3C68002CA8
:1031400064D0022C00F0AA810D217648764C09F05B
:10315000C9F9764809F016FF754B764A764930680A
:103160001B681268096803441A440129326023600D
:1031700000F091810E21714809F0B4F908F098F837
:10318000FEF7B6FD0B216E4809F0ACF92068FEF79A
:10319000AFFD0B216B4809F0A5F93068FEF7A8FDDB
:1031A0000123AE2157482B6006F0C0FFFEF7ECF874
:1031B0002C68012C7FF460AFFDF700FD042008F0BF
:1031C000ABF90446032008F0A7F90CB9002847D052
:1031D0005D4C5E4B22681B689A42FFF64DAF554B23
:1031E0001E68002E40F0C880594802F07FFAFEF7B2
:1031F0004BF9FDF7C7FD57482660FDF75FFB564BBF
:103200001888FDF73FFB30BFBDE8F0810A21534825
:1032100002F01AF82146514801F0EEFD0E214F4808
:1032200001F0EAFD21464D4801F0E6FD0A214B4838
:1032300001F0E2FD494802F019F83C6881E70121FC
:10324000052008F045F9C82008F0B0F9214605200E
:1032500008F03EF901213B68326888F800106AE7FF
:10326000394B3F4C1B683F4D39485B02002203F14C
:1032700024061146A362A5F8B421666002F088FD19
:1032800021462C22324802F073FE314802F02EFA19
:10329000224B1B68002B40F0BE8001233C22022100
:1032A000184807F06DF8642008F080F9154806F01A
:1032B00035FF0121134806F057F90221114806F0A5
:1032C0004DF9002211460F4806F044F9072226491D
:1032D0000C4809F0C9FD0B4809F054FE01210948CA
:1032E00006F03CF910222149064809F0BDFD0548C9
:1032F00009F048FE034807F04DF9FEE7080A0020F0
:10330000EC4E0020BC510020F44E00206864010007
:1033100074640100406501001052002060510020DB
:103320006C0A00207C6401005C5100208CFFFF1FB0
:103330003CFAFF1F48FAFF1FF85100208C6401007F
:103340009C640100A8640100FC4E0020F4510020A0
:10335000480A0020D0640100C45400204C530020CF
:1033600078520020004F0020B4640100BC640100CA
:1033700064520020F94E0020FDF7D0FCFEF784F8DF
:10338000494B4A4E1C684A4F07F092FF494A4A4B44
:103390001268201A841A24EAE47483FB0423234469
:1033A000E017C0EBE3200AF031FD0AF055FB0BF00B
:1033B00043F8424B424A306003FB004482FB043234
:1033C00022448046E017C0EB62100AF01FFD0AF0AD
:1033D00043FB0BF031F80201131A821A04EB82044A
:1033E0009B004FF4616202FB08333C60DFF8F08021
:1033F0001C44092CC8F8000013DC324B1B686BB965
:1034000001233C220221304806F0BAFF00232B6042
:1034100030BFBDE8F081FEF7EBF83EE7FEF7D2F8EB
:10342000EEE7284C0021022008F052F8FFF73EF9A1
:1034300023680BB1FEF7DCF82448FDF73FFA31684A
:10344000234809F025FDD8F80010214809F020FD97
:103450003868FDF717FA09F049F9642008F0A6F872
:103460003B7898F8002031781A4804F02BFF1A486E
:1034700004F0EEFC0121022008F02AF84FF49670C7
:1034800008F094F823680BB1FEF788F8134B18681E
:10349000FFF70EFBB4E7FEF771FC6BE60B210E2085
:1034A000FFF7E0F850E600BFF44E0020FC5100208A
:1034B0000C52002004FAFF1FC5B3A291F0F1FFFFE8
:1034C0008988888860510020BC510020DC6401009C
:1034D0008CFFFF1FEC5000200C0A002030FAFF1F69
:1034E0008C5100202DE9F04F87B0FEF7DDFC07F08E
:1034F000DFFE964BDFF8A49218609548954F964DE5
:10350000DFF89C8206F00AFE0121914806F02CF8B3
:1035100002218F4806F022F8002211468C4806F05E
:1035200019F808228D498A4809F09EFC0121884833
:1035300006F014F810220021854806F00BF812223C
:103540008749834809F090FC814809F01BFD072159
:10355000844801F0ABFF0E21824802F005F80C21EF
:10356000804801F0D3FFCA460024002345F8043BFD
:103570007D4809F007FD7C4809F004FD0134052170
:103580007A4808F0AFFF2146774809F081FC764879
:1035900009F0F8FC21466E4809F07AFC04227449CF
:1035A0006B4809F061FC6A4806F0F4FF5AF8042BF6
:1035B0007049D2B2A1F10C004FF0384303F03AFF4A
:1035C00058BB1C216C4808F08DFF674809F0DAFCF5
:1035D00006226A495E4809F047FC5D4809F0D2FCC2
:1035E0005B4806F0D7FF042CBFD15A4C99F8002055
:1035F00004F58C65284604F26C414FF0384303F023
:1036000019FF002840F0CE800B225D49504809F098
:103610002BFC4F4806F0BEFFFEE75A4800F124039A
:103620003B6002F063F801214A4803F007FE0146BF
:1036300000287AD0DFF84CB1ABF23C41584602F09A
:103640008DFA0028BDD097F83C3413F0700FB8D035
:10365000ABF23C40C8F800B003F054FD0821064628
:10366000494808F03FFF31463F4809F011FC3E4809
:1036700009F088FC30460BF031F844490BF082F831
:10368000064638790BF02AF8014630460BF07AF8F6
:103690000BF064FA06460BF1240004F0C3F80BF0BB
:1036A00019F83A490BF06EF80BF058FA0A218346E4
:1036B000374808F017FF594600230A222A4809F024
:1036C000B1FC294809F05EFCC72E8CBFC83E00261D
:1036D000112145F8046C2F4808F004FF55F8041C2C
:1036E000214800230A2209F09DFC1F4809F04AFCEA
:1036F000002355F8041C16480A2209F093FC012205
:103700002549134809F0B0FB594600230A22104806
:1037100009F088FC0E4809F035FC0D4806F03AFF28
:103720004FF47A7007F042FF5DE70A4803F086FD28
:1037300000283FF446AFDFF84CB0ABF23C415846AE
:1037400002F00CFA00287FF47EAF3AE7704A0020BE
:10375000BC510020744A002068520020F06401002F
:10376000FC64010058FAFF1F8CFFFF1F7464010006
:1037700010650100E04E0020F065010010660100B8
:1037800018660100B04E002018650100BD37063AEA
:10379000246501003065010044650100BC50002033
:1037A0006453002004F23C40256001F09FFF01219A
:1037B000204603F043FD0146002800F08083AA4C18
:1037C00004F23C452846214602F0C8F900283FF49F
:1037D0001BAF94F83C3413F0700F3FF415AFA34EB9
:1037E000C8F80050FEF7E4F83268A14B9A4201D9BC
:1037F0003C2333609F4F9E4B3A68DFF8C4929A4255
:1038000084BF3C233B6099F80030172B84BF002312
:1038100089F80030984B1B783B2B02D9964A00233D
:103820001370964B1B78172B02D9944A0023137000
:10383000934B1B783B2B02D9914A00231370DFF87E
:103840008482D8F80030012B84BF0023C8F80030F0
:103850008C4B1B68052B02D98A4A062313608A4DBC
:103860008A4C082007F058FE20BB2B6801332B60E0
:1038700002E00A2007F09AFE082007F04DFE00281B
:10388000F7D0D8F800302A68B3FA83F10B2A4FEA50
:103890005111D8BF0021002940F00E83A3F101038C
:1038A000B3FA83F30F2A4FEA5313D8BF0023002B38
:1038B00040F00283764806F031FC0121744805F09F
:1038C00053FE0221724805F049FE0022114670485D
:1038D00005F040FE07F0ECFC6E4B20601A682B6888
:1038E000821A02920F2B28D8DFE813F03A02210245
:1038F000D9029A02E301A5016C012E01F000A40097
:103900008A0072005E0052003B0010005C4B3B22BC
:10391000002118789A46FEF773F95F498AF800008B
:1039200007225B4809F0A0FA9AF8001009292ADD5D
:10393000574800230A2209F075FBFFF74BF907F0FF
:10394000B7FC3721FFF724FB514806F023FE0A207D
:1039500007F02CFE029BB3F5167F82DD07B0BDE8B1
:10396000F08F464B1722002118789A46FEF748F947
:103970004A498AF800000722454809F075FA9AF882
:1039800000100929D4DCFFF71FF99AF80010CFE7DF
:10399000394B3B22002118789A46FEF731F908226C
:1039A0008AF800003E49BCE71722002199F8000080
:1039B000DFF80CA1FEF724F93A4989F80000082243
:1039C000334809F051FA99F800100929B0DCDAE718
:1039D000052235492E48DFF8ECA009F045FA01220E
:1039E0000021D8F80000FEF70BF9C8F80000002805
:1039F00000F078820128A0D12C48FCF751FF9CE709
:103A0000DFF8C4A008229AF800000121FEF7F8F8B8
:103A100005228AF8000026491D4809F025FA9AF87F
:103A200000101B4800230A2209F0FCFA184809F08C
:103A3000A9FA82E7134B002106221868FEF7E0F886
:103A40001C4B104A106053F820000AF047FE1A4938
:103A50000AF04CFF0AF0ECF902460B460C481749F5
:103A600009F0D2FA69E700BF744A00203CFAFF1F50
:103A7000A086010048FAFF1F6052002090510020EC
:103A8000F84E002030FAFF1FE8500020EC4E0020D6
:103A9000BC510020704A0020E8650100E06501008B
:103AA000D4650100C8650100A8650100B865010082
:103AB000C065010014FAFF1F00007A449C650100F4
:103AC000340A0020F851002038FAFF1F04F074FD7A
:103AD000DFF824B3DFF824A3CBF800003B22002159
:103AE000FEF78EF8DBF80030CAF8000098421DD0CF
:103AF000206804F097FD8346206804F04BFD059094
:103B00002068DAF800A004F069FD0490206804F051
:103B100077FD0390206804F097FD039A00920190CE
:103B2000049B059952465846FEF74AF80722A849D1
:103B3000A84809F099F907F0BBFB04F03DFD0146E8
:103B4000A44809F0A5F9F8E604F024FDDFF8B0B2C6
:103B5000DFF8B0A2CBF800003B220021FEF750F8BE
:103B6000DBF80030CAF8000098421DD0206804F04D
:103B700059FD83462068DAF800A004F01DFD059089
:103B8000206804F02BFD0490206804F039FD0390B8
:103B9000206804F059FD039900910190049B059A57
:103BA00051465846FEF70CF807228B49894809F020
:103BB0005BF907F07DFB04F0EDFC0146854809F058
:103BC00067F9BAE604F02EFDDFF83CB217220021B7
:103BD000CBF80000FEF714F8DBF80030984282467C
:103BE0001BD0206804F0D6FC8346206804F0E4FC77
:103BF0000590206804F0F2FC0490206804F000FDB9
:103C00000390206804F020FD039900910190049B2B
:103C1000059A59465046FDF7D3FF05226F496D4876
:103C200009F022F907F044FB04F0FCFC0146694866
:103C300009F02EF981E604F0D1FCDFF8D0B1DFF80D
:103C4000D0A1CBF800001F220121FDF7D9FFDBF83E
:103C50000030CAF8000098421DD0206804F0E2FC51
:103C60008346206804F096FC0590206804F0A4FCCC
:103C700004902068DAF800A004F0C2FC03902068E9
:103C800004F0E2FC039B009301905346049A0599CB
:103C90005846FDF795FF042251494E4809F0E4F8D3
:103CA00007F006FB04F09AFC01464A4809F0F0F8D8
:103CB00043E604F0A5FCDFF85CB1DFF85CA1CBF8CB
:103CC00000000C220121FDF79BFFDBF80030CAF851
:103CD000000098421DD0206804F0A4FC83462068B0
:103CE00004F058FC0590206804F066FC04902068FD
:103CF00004F074FC03902068DAF800A004F0A4FC3F
:103D0000CDF800A00190039B049A05995846FDF751
:103D100057FF062233492F4809F0A6F807F0C8FAE2
:103D200004F06EFC01462B4809F0B2F805E645F2B6
:103D3000604201213068FDF763FF2B4930600422A7
:103D4000244809F091F83168224809F0A1F80122CD
:103D50002649204809F088F81E4809F013F9ECE5D7
:103D6000DFF8B8A09AF80030002B40F0B0800A22AB
:103D70001F49184809F078F8042007F0CDFB824667
:103D8000032007F0C9FBBAF1000F7FF4D6AD00287D
:103D90007FF4D3ADFDF796FFFEF7E8F81548FCF782
:103DA0007FFD0C4806F0F6FB40F2DC5007F0FEFB0E
:103DB000FEF710FF07F07CFA3721FFF7E9F8054816
:103DC00006F0E8FB0A2007B0BDE8F04F07F0EEBBB5
:103DD00094650100BC5100208C65010084650100E0
:103DE0007C650100746501001864010060650100D4
:103DF00048650100546501002C520020305100201C
:103E000070510020E84E0020040A0020E4500020F9
:103E10002C5100205C52002034510020F04E002034
:103E200004F012FCDFF8E0B0DFF8E0A0CBF800000F
:103E300040F634024FF4FA61FDF7E2FEDBF80030A1
:103E4000CAF8000098421CD0206804F0EBFB8346BF
:103E5000206804F09FFB0590206804F0ADFB0490FF
:103E6000206804F0BBFB0390206804F0C9FBDAF87B
:103E70000030049A05998DE80900039B5846FDF728
:103E80009FFE05221A491B4808F0EEFF07F010FAC2
:103E900004F0DAFB0146174808F0FAFF4DE5164A30
:103EA00038680021FDF7ACFE14493860042211483F
:103EB00008F0DAFF396847E700232B60FAE4204670
:103EC00003F0BCF900287FF47AACFFF79DBBFEF746
:103ED0004DF84FF000038AF8003007F0E9F9084B7D
:103EE000186044E70748FCF7DBFCDAF8000081E5DE
:103EF0006C650100BC510020805101006465010027
:103F0000704A0020B0650100245200206C5100204E
:103F10002DE9F04F8FB072B6C449C54BC548412555
:103F20000E2480220D70047019461A700B78C04A56
:103F30001806FBD5C04BC1481D78C14CC14905705E
:103F4000033B247809781B78C3704470817062B693
:103F500072B6B649B74C41260F2580230E702570E6
:103F6000114613700B781B06FCD5B34CB449B54A07
:103F7000B54B2478097812781B78C37104714171AC
:103F8000827162B6B14BB24FB24EDFF8209300247B
:103F90000F2115220A254FF014084FF4FA705960CA
:103FA000DA601D60C3F8088007F000FB64203C6005
:103FB00007F0FCFA4FF430533B60642007F0F6FA48
:103FC0004FF434533B60642007F0F0FA2A4631681E
:103FD000A148234609F026F89F4808F0D3FF4FF484
:103FE0007A7007F0E3FA2A4631689B48234609F0C5
:103FF00019F8994808F0C6FF4FF47A7007F0D6FA1E
:104000002A46234631689448944D09F00BF89248AB
:1040100008F0B8FF924800F095FF2146102007F005
:1040200089FA204606F008FE0121022007F082FAF4
:104030000121022007F04CFA0121052007F07AFA4D
:104040000121052007F044FA4FF4FA6007F0AEFAB8
:104050002146052007F03CFA824B0122214605202B
:104060001A7007F035FA804B1B680021012B4FF0C6
:10407000040008BFC9F8008007F05CFA00210320A3
:1040800007F058FA0021082007F054FA0121042013
:1040900007F01EFA0121032007F01AFA0121082077
:1040A00007F016FA07F004F9704B2860984240F3C5
:1040B000A98101233C2202216D486E4E6E4F6F4C48
:1040C00006F05EF98C2007F071FA694806F026F8D0
:1040D0000121674805F048FA0221654805F03EFADB
:1040E00000221146624805F035FA0A226449604808
:1040F00008F0BAFE5E4808F045FF5D4806F04AFA4F
:104100005B4806F00BF80121594805F02DFA022111
:10411000574805F023FA00221146554805F01AFACF
:104120000A225749524808F09FFE514808F02AFFDA
:104130004F4806F02FFA6E21524808F027FBD6F8B8
:10414000008057F828000AF0C9FA20604046FEF7C0
:10415000AFFCFFF7C7F9366857F826000AF0BEFA39
:1041600020603046FEF7A4FC474801F0BFFA4749FB
:104170000EAE01F23C4001F0F1FC454B46F8343DF7
:1041800000238DF814308DF815308DF808308DF837
:104190001030404A3C49462305A84FF47A770397EC
:1041A00001F05CFC9DF8143053B129223A4905A86E
:1041B00001F0DEFE304608F0E5FE05A801F096FAB3
:1041C0002B48364FDFF8E8A005F0A8FF012128486A
:1041D00005F0CAF90221264805F0C0F9002211466F
:1041E000234805F0B7F93B683C2B07DDB3F5967F14
:1041F000D4BF3C234FF49673CAF8003007F058F848
:10420000DFF8B0802649DAF80030264ED8F80020D2
:10421000096890FBF3FE286003FB0E3322483360ED
:1042200001291344036000F0F18045E007000240DB
:1042300000000240060002400B00024054510020E2
:104240000A0002400900024008000240BC50002061
:1042500010D0034000D003408CFFFF1FEC4E002025
:104260004C530020F94E0020605100207FC185563C
:10427000BC51002030FAFF1F14FAFF1F0852002023
:10428000246601000082FF1FB04E0020744A002007
:10429000A86101004C620100F062010048FAFF1FB2
:1042A000F8510020F44E00205C51002004FAFF1F5A
:1042B00034FAFF1F3CFAFF1F10460AF00FFA21687C
:1042C000DFF88CA1DFF88CB10AF05CFA4FF06E5188
:1042D0000AF058FA4FF074510AF054FA09F0A8FDA8
:1042E00009F032FB00224C4B09F0F6FD0AF0A4F86D
:1042F0003A68D9F80040494BCAF80000141B24EA78
:10430000E47983FB09234B444FEAE970C0EBE320D7
:1043100009F07CFD09F0A0FB0AF08EF8404C414BFF
:10432000CBF8000004FB009483FB04232344E01734
:10433000C0EB631009F06AFD09F08EFB0AF07CF80F
:10434000DFF814A1DFF814910346A0EB001004EB92
:10435000800410213448C9F80030CAF8004008F041
:10436000C1F8DBF80010314808F092FDD9F80010D0
:104370002E4808F08DFDDAF800102C4808F088FD72
:104380002A4808F0FFFD0821294808F0ABF8D8F8C2
:104390000010264808F07CFD244808F0F3FD0821B1
:1043A000244808F09FF83968204808F071FD1F483C
:1043B00008F0E8FD0E21204808F094F82868FDF781
:1043C00097FC0C211D4808F08DF83068FDF790FC33
:1043D00033682C681A481C1B152108F083F8214605
:1043E000124808F055FD114808F0CCFD1549164B50
:1043F00000204FF0FF3208601A60FDF745F80FB05B
:10440000BDE8F08F114806F059FF52E6FDF7B6FC03
:10441000D8F8002050E700BF00004040C5B3A2918B
:10442000F0F1FFFF89888888DC6401008CFFFF1FA2
:10443000306601003C6601008C64010048660100A2
:1044400058660100080A00202852002080C18556C5
:10445000F4510020FC5100200C5200208C5100200F
:10446000002070470020704738B50F29114C28BF35
:104470000F210F2A28BF0F220D46017A204642EA5B
:10448000051500F00BFE2046002100F0B5FC20468B
:10449000202100F0B1FC2046002100F0ADFCE9B283
:1044A000204600F0A9FC204600F0E0FEB0FA80F0C3
:1044B000400938BD4C530020F8B5C34C01260546D1
:1044C0000671204600F03EFD052007F06FF8297ABE
:1044D000204600F0E3FD2046002100F08DFC204640
:1044E000302100F089FC2046402100F085FC60214D
:1044F000204600F081FC204600F0B8FE297A2046D4
:1045000000F0CCFD2046002100F076FC204626215C
:1045100000F072FC2046002100F06EFC6C21204669
:1045200000F06AFC204600F0A1FE297A204600F047
:10453000B5FD2046002100F05FFC2046282100F058
:104540005BFC3146204600F057FCF221204600F08B
:1045500053FC204600F08AFE297A204600F09EFD9A
:104560002046002100F048FC20462C2100F044FCAD
:1045700020460F2100F040FC2221204600F03CFCA8
:10458000204600F073FE297A204600F087FD204681
:10459000002100F031FC20463C2100F02DFC20469B
:1045A000442100F029FC4621204600F025FC20464D
:1045B00000F05CFE40F23713EB80297A204600F0D1
:1045C0006DFD2046002100F017FC2046242100F05C
:1045D00013FC3146204600F00FFC3721204600F046
:1045E0000BFC204600F042FE297A204600F056FDE2
:1045F0002046002100F000FC2046302100F0FCFBAA
:104600002046402100F0F8FBFF21204600F0F4FB9B
:10461000204600F02BFE297A204600F03FFD204680
:10462000002100F0E9FB2046022100F0E5FB2046D6
:10463000002100F0E1FB7321204600F0DDFB204665
:1046400000F014FE4FF4C87006F0B0FF297A20463F
:1046500000F024FD2046002100F0CEFB20462E2154
:1046600000F0CAFB20461D2100F0C6FB1D2120469C
:1046700000F0C2FB204600F0F9FD297A204600F048
:104680000DFD2046002100F0B7FB2046042100F07C
:10469000B3FB2046002100F0AFFB0421204600F0D0
:1046A000ABFB204600F0E2FD297A204600F0F6FC44
:1046B0002046002100F0A0FB2046062100F09CFBD4
:1046C0003146204600F098FB3021204600F094FB54
:1046D000204600F0CBFD297A204600F0DFFC204682
:1046E000002100F089FB20460A2100F085FB2046CE
:1046F000002100F081FB1021204600F07DFB2046C8
:1047000000F0B4FD297A204600F0C8FC20460021C4
:1047100000F072FB20460E2100F06EFB20460021C7
:1047200000F06AFB0021204600F066FB204600F006
:104730009DFD297A204600F0B1FC2046002100F0C2
:104740005BFB2046102100F057FB20463C2100F087
:1047500053FB3C21204600F04FFB204600F086FD35
:10476000297A204600F09AFC2046002100F044FB04
:104770002046222100F040FB20467F2100F03CFB38
:104780007F21204600F038FB3627204600F06EFDE2
:10479000297AEF80204600F081FC2046002100F0BD
:1047A0002BFB2046242100F027FB2046002100F0AF
:1047B00023FB3946204600F01FFB204600F056FD43
:1047C0006E723046F8BD00BF4C5300200B462DE9F9
:1047D000F04145490546184609F0D4FF434909F020
:1047E000C9FE0AF0BBF9044600284CD080281FD926
:1047F0002B79002426462BBB297A3D4800F04EFC3D
:1048000000213B4800F0F8FA2221394800F0F4FA80
:104810003146374800F0F0FA2146354800F0ECFA0E
:10482000334800F023FDB0FA80F04009BDE8F08184
:10483000C0F180042B7944EA0424C4F30726E4B2CF
:10484000002BD9D0EF88297A294827F010074FF09C
:104850000008EF8085F8048000F020FC41462448E1
:1048600000F0CAFA2421224800F0C6FA390A20488A
:1048700000F0C2FA07F0EF011D4800F0BDFA1C4835
:1048800000F0F4FCB8E701232B71297A184800F0F6
:1048900005FC2146164800F0AFFA2221144800F02A
:1048A000ABFA7F21124800F0A7FA7F21104800F0F0
:1048B000A3FA0F4800F0DAFCEE88297A0C4846F09B
:1048C0001006B6B2EE8000F0E9FB2146084800F081
:1048D00093FA2421064800F08FFA310A044800F0C8
:1048E0008BFAF1B299E700BF00000143EE7CFF3E76
:1048F0004C53002070B505460C4619B101293BD038
:10490000002070BD017A424800F0C8FB21464048B3
:1049100000F072FA20213E4800F06EFA21463C4831
:1049200000F06AFA55213A4800F066FA384800F07B
:104930009DFC06460028E3D1EC88297A344844F0EF
:104940000404A4B2EC8000F0A9FB3146304800F02A
:1049500053FA24212E4800F04FFA210A2C4800F087
:104960004BFAE1B22A4800F047FA294800F07EFCF1
:10497000B0FA80F0400970BD017A254800F08EFB46
:104980000021234800F038FA2A21214800F034FAA7
:1049900021461F4800F030FA73211D4800F02CFA20
:1049A0001B4800F063FC04460028A9D1297A184866
:1049B00000F074FB2146164800F01EFA202114482E
:1049C00000F01AFA2146124800F016FA8821104821
:1049D00000F012FA0E4800F049FC044600288FD17E
:1049E000EE88297A0A4826F00406EE8000F056FB8D
:1049F0002146074800F000FA2421054800F0FCF9A0
:104A0000310A034800F0F8F906F0FB01AAE700BFFD
:104A10004C53002010B5044608F09CF8204610BD09
:104A2000024A034903480AF067BA00BFFCF9FF1FB6
:104A3000154A0000A45200201B4A1C4B11681C4858
:104A4000096970B499421279027009D2194A127830
:104A500032B3194A4FF08041116003F5807402E0CF
:104A60001C46A3F58073154A154912680D68AAB152
:104A7000A5B1144E3088402810D841000A44403077
:104A8000294402320231308033F9040B22F8020F3C
:104A90009C4233F9020C21F8020FF5D870BC704724
:104AA00003F58074DFE700BFB4520020B8F2FF1FA7
:104AB0001F800040AE52002008E200E0BC520020FF
:104AC000B0520020AC520020F8B5064607F08EFE2A
:104AD0000446E8B107F08AFE054600283AD072B6CF
:104AE0001F4B1A887F2A19D8002C31D01D490A681B
:104AF00042B162B6204607F0CDFE2846BDE8F84038
:104B000007F0C8BE18480C601A80056062B6F8BD90
:104B1000054672B6124B1A887F2AE5D9114A124906
:104B20001768146000220C681A800D6062B639465E
:104B3000304607F0D9FE384607F0ACFE3046214635
:104B4000012207F0D1FE2046BDE8F84007F0A2BEE2
:104B500062B6F8BD204607F09DFE2C46BFE700BFB9
:104B6000AC520020BC520020B0520020F8B5284CB6
:104B7000284E2046012107F04FFF00F083F8264B16
:104B8000264A27484FF480611960236800211A6083
:104B900099802279186102F1804202F5043240F2D4
:104BA0000110D8809E614FF48075022006278E2662
:104BB000DD82D960DD8398609F83988211701670C2
:104BC00007F0D0FE1749184B2279184F08701A7059
:104BD00039682279164C174D174E41F0124141F0B9
:104BE0000101531139609B00206803F1604302F119
:104BF000100703F5614302F01F02012140F010404D
:104C000001FA02F2206045F827601A60F8BD00BF83
:104C1000B452002000FEFFFF14B00440A0F0024098
:104C2000B8F1FF1FAE5200201B80004080F0024010
:104C300000F0024000F4FF1F394A0000024A034915
:104C400003480AF059B900BFFCF9FF1F154A0000DC
:104C5000B4520020024A034903480AF04DB900BF8C
:104C6000FCF9FF1F154A0000C0520020024A034908
:104C700003480AF041B900BFFCF9FF1F154A0000C4
:104C8000C8520020284B29491A68294842F400429A
:104C90001A600A6842F002020A601A6842F00202D0
:104CA0001A600368002B3DDB224B1B68002B39DBAD
:104CB000214A4FF0864313601368002BFCDBF0B5EC
:104CC0001E4C1F48DFF8ACE01E491F4B1F4A204F07
:104CD000204E214D47F2320CC4F800C0002404607D
:104CE0000120CEF80000DFF890E0C1F800E04FF4BA
:104CF00080311960194B1360DFF880E0184A3A6080
:104D0000346028601748CEF80000174CB967174880
:104D1000174946F8503C4FF4C0632A612360036092
:104D20000B60F0BD704700BF3C80044040800440F1
:104D300000F0024080F0024000F1024004F1024025
:104D400060F0024008F002400CF0024010F0024017
:104D500014F00240E0F0024084F002401B0F01001A
:104D6000000F0F0F0300004708B004400CB00440D0
:104D700018B0044004F002400300000788F002402D
:104D8000024A034903480AF0B7B800BFFCF9FF1F05
:104D9000154A0000D0520020024A034903480AF095
:104DA000ABB800BFFCF9FF1F154A0000D852002025
:104DB000024A034903480AF09FB800BFFCF9FF1FED
:104DC000154A0000E0520020024A034903480AF055
:104DD00093B800BFFCF9FF1F154A0000E8520020FD
:104DE000024A034903480AF087B800BFFCF9FF1FD5
:104DF000154A0000F05200200A4B1B7813B90A4BE9
:104E00001B786BB1094A1378202B07D810B4581CB3
:104E1000074C1070E154012010BC7047012303714E
:104E2000002070475E530020215300205F53002074
:104E300000530020704700BF024A034B10781B78D4
:104E4000C01A70475D5300205C530020064A074992
:104E500013780978994204D90548591CC05C11702F
:104E600070474FF0FF3070475C5300205D530020C7
:104E700024530020054B064A1B7812789A4286BFBD
:104E8000044AD05C4FF0FF30704700BF5C530020F5
:104E90005D5300202453002070B50D4B1B78144641
:104EA00013B90C4B1B788BB10B4E3578C5F1210330
:104EB000A34202D201221C4602710848224628441D
:104EC000254405F00DFD3570204670BD184670BDB7
:104ED0005E530020215300205F5300200053002028
:104EE000124BDB7803F020034BB1114A13780133E6
:104EF000DBB2012B137012D9122006F095B910B550
:104F0000122003F0FF0406F08FF90A4B1B685BB117
:104F100009490A4A0C701078BDE810401847084B40
:104F20001B78002BE8D0704710BD00BF0060064022
:104F300048530020FC5200205C5300205D530020A9
:104F4000215300200D4A0E4BF0B500200D4C10707F
:104F50002268DFF838E00C4F42F0400222604FF444
:104F6000197128260325202480229870CEF800107D
:104F700039605E709D715C719A70F0BD21530020A4
:104F8000006006403480044008A004400CA00440A7
:104F900010B5384CE378DBB2D80623D51022590679
:104FA000E2701ED503F0040303F0FF02002B33D0A0
:104FB000314B32491A68324C00230B702370002A9F
:104FC0003BD090472378002B37D02E4B1B78294AB3
:104FD0002D49D02494701371264B012002220870B1
:104FE000DA7010BD5A06DDD4A27802F0100202F089
:104FF000FF0042B313F001031BD1234920480A7874
:105000000078904281BF1F4B501C9B5C087023713D
:10501000184BD0229A7008E01C48164B17490270B2
:105020000120C02208709A701B79124B0222DA709C
:1050300010BDC023A3702379F7E712490023012292
:105040000B702270C3E7124B124918700322122012
:1050500006F06AF80D4923790A781F2ADBB2E4D8F2
:10506000064800780028E0D00B4C501CA354087070
:10507000DBE700BF0060064044530020F8520020E8
:105080005F53002000530020605300205D53002038
:1050900048530020E14E0000245300200548064AF2
:1050A00010B40123054C037049001370217010BC2B
:1050B000704700BF5E5300205F5300200053002064
:1050C0002DE9F043594C1223E370A37803F0200339
:1050D00083B0002B55D0B423DFF86881A370D8F8D3
:1050E0000030524D1C460020EA78D2B29A421CBFD2
:1050F0001446012096061346F6D5002840F08C8011
:105100004B4B1B78002B33D003F1FF3E5FFA8EFE32
:105110000026D8F80040474F444D0EF1010E3046AE
:105120004FF0020C17F8013F2B715FFA86F902E08D
:1051300013F0200F09D0EB78DBB293421CBF1C4662
:10514000012013F0020F1A46F2D085F803C0EA7866
:10515000D2B293421CBF14460120D30633D4930627
:1051600031D5D30744D401367645DBD100284AD166
:10517000002000292ED1304B00221A7003B0BDE868
:10518000F0832E4DDFF8BC8003F0FF022B68009304
:10519000009ED8F8000005E02B680193019B9B1B43
:1051A0000F2B1BD8E378DBB2834218BF012213F028
:1051B000200F1846F0D192BB21481C4B0024B0228E
:1051C00004709A708BE708BB184B80229A700420F9
:1051D0000029D0D0154B80229A70CCE7CAB9134B66
:1051E00000218022042099709A7003B0BDE8F083FA
:1051F000C0B90E4BB9F1000F4FF080020CBF022076
:1052000003209A70B7E7C8F80040B1E7C8F800403B
:10521000DAE7C8F80000E2E7C8F8004070E7C8F82D
:105220000030C9E7C8F80040E3E700BF006006406F
:105230005F530020FF5200205E530020C053002027
:105240002153002054FAFF1F0548064A10B40123D9
:10525000054C037049001370217010BC704700BFEB
:105260005E5300205F530020005300200121FFF710
:1052700027BF00BF044B054A1A604FF47A71002221
:1052800099601A711A7370474C530020A066010090
:1052900010B4047F4160022CC26002D010BC07F041
:1052A00073BC836810BC1847F0B4464B464A186B71
:1052B000DC6A01791170454922790A709A6A00798D
:1052C0000870002A46D05968C9688A423ED82168C9
:1052D000CC8B240402F1FF3065D4C0F30E00C883E8
:1052E000C88B80B2C882196B0968C88B000452D47D
:1052F000C2F30E00C883C88B002480B212F1FF32C3
:10530000C88218BF01229C62D96A2E4809680D68BC
:1053100000F12404A54236D00068C46814F0804F20
:105320000C680D6815BF248824780235013544F0D7
:1053300000440D604463196B254B097919702149AC
:1053400012B1CA6A12791A70F0BC7047521A9A6286
:105350000122D9E7586B196805681E4C0A63CC62B4
:10536000CC682D681C4E24F080440327B542CC60E5
:1053700083F825701FD1037F4260022BC2601ED0CC
:10538000F0BC07F001BC016890F82400CC6840F044
:1053900000404863CFE7CC8BC2F3080004F47E449E
:1053A0002043C883A7E7CC8BC0F3080004F47E44F5
:1053B0002043C88394E72B461146F0BC1847836806
:1053C000F0BC184758FAFF1F1F8000401C800040A7
:1053D0001B80004000000FFF9152000090E80C007D
:1053E000F0B41C6859682568164F174E2943216090
:1053F000164D17491760D66015611160417A154A3C
:105400005C180A3194F8244053F8215002EBC4018F
:1054100049680D60017A5C1803EB8101247ECD6937
:1054200002EBC40149680D60817A581803EB8103CF
:1054300090F83000596B02EBC002F0BC5368196061
:10544000704700BF01401F000110003801100078B4
:1054500000001F80146D01004268036805CA10B483
:10546000046822430260D868840100F0E06205D538
:10547000080900F4706021F470410143D8681143B9
:10548000814209D01A68500408D40748186041F0D6
:105490008040D96018611A6010BC704741F08042AA
:1054A000D96010BC1A61704701401F004268437AFE
:1054B000134493F824308B4209D0F0B492F824407E
:1054C0008C4205D092F825408C421AD0F0BC70472F
:1054D000002421461668556836682E420FD00A4DC2
:1054E00005EBC30300275E685318376093F8243038
:1054F00005EBC3050A316B6852F821201A6044722B
:10550000E4E701242146E5E7146D01004268037ACF
:1055100013441B7E8B4207D0F0B4147E8C4204D01F
:10552000547E8C421AD0F0BC704700242146166885
:10553000556836682E420FD00A4D05EBC30300278D
:105540005E68531837601B7E063105EBC30502EB1E
:1055500081026B6852681A600472E4E701242146F4
:10556000E5E700BF146D01004268837A134493F8A5
:1055700030308B4209D0F0B492F830408C4205D0E4
:1055800092F831408C421BD0F0BC70470024214679
:105590001668556836682E4210D00B4D05EBC303D4
:1055A00000275E685318376093F830300C3105EBF4
:1055B000C30502EB81026B6852681A608472E3E7EC
:1055C00001242146E4E700BF146D010038B590F9CD
:1055D0000230002B044612DBA56805F1240001F01F
:1055E000FDF928B9637843F001036370002038BDEA
:1055F00005F50C7001F0F2F90028F3D038BD806891
:10560000A1692430012201F0A3F90028EAD0A3887F
:1056100003F00F035B01C518E4D0C35CE52BE1D0B8
:1056200023780B4A1B0744BFE369EB61236A1268C6
:105630006B831B0CAB8232B105F1160105F118002A
:1056400090472B8B6B82A37803F07F03A370C3E793
:10565000685300202DE9F041037803F020032BB9B3
:1056600003F0FF044269204B9A4203D900263046DA
:10567000BDE8F08183780169054663F07F038068A7
:10568000AB7005F1100201F01DFB06460028EDD0BD
:105690002969A86801F0CAF90746A8683946243084
:1056A000052201F055F980460028DFD04FF4007242
:1056B00021460AF043F8AB681A79012A0FD9012470
:1056C00003E0AB681A79A24209D9E1191868424689
:1056D00002F014F90134E4B20028F2D1C6E76B6994
:1056E00003EB42226A61C2E7FFFD1F0038B5037871
:1056F00004461BB900232370012038BD90F9023005
:10570000002B14DBA56805F1240001F067F938B916
:10571000637843F00103637000232370002038BDD9
:1057200005F50C7001F05AF90028F1D0E2E7806825
:10573000A1692430012201F00BF90028E8D0A388E8
:1057400003F00F035B01C518E2D0C35CE52BDFD08B
:1057500023780B4A1B0744BFE369EB61236A126895
:105760006B831B0CAB8232B105F1160105F11800F9
:1057700090472B8B6B82A37803F07F03A370C1E764
:10578000685300202DE9F0470D7815F0700F88B0B0
:1057900003D1002008B0BDE8F087C32304460D46BE
:1057A00000F07EFE0028F4D05D4B626901261021D6
:1057B0009A42A6702170ECD881236218A3702169E7
:1057C000A06801F07FFA0028E3D02169A06801F009
:1057D0002DF90746A06839462430052201F0B8F8B3
:1057E00080460028D5D04FF40072002109F0A6FFB2
:1057F00008E0F1190068424602F080F80136F6B27E
:105800000028C6D0A0680279B242F2D86369217834
:105810002669266203EB42236361002974D1243098
:105820000122A16901F094F80028B2D0A68806F000
:105830000F0610EB4616ACD01023F372B268306836
:105840007168F368B6F81490B6F81AA06F460FC7DF
:1058500030697169B269F36908AE0FC74FF02E085D
:105860004FF02033216AA06806F8208DCDF805306E
:10587000CDF80130ADF8093001F0D8F8A368014641
:10588000012203F1240001F063F88646002880D04D
:105890003746ADF81490ADF81AA00FCFCEF800003F
:1058A000CEF80410CEF80820CEF80C300FCFCEF88A
:1058B0001000CEF81410CEF81820CEF81C302B6A49
:1058C0008DF801801A0C3546ADF81A30ADF8142069
:1058D0000FCD0EF12006CEF820007160B260F360AB
:1058E0000FCD30617161B261F361A46804F12400ED
:1058F00001F074F800283FF44CAF04F50C7008B0C8
:10590000BDE8F04701F06AB813B100232361636179
:105910002046FFF75BFE00283FF43BAFA0687EE720
:10592000FFFD1F002DE9F041064692B03478019248
:1059300000208DF824008DF8250024B90D46097843
:1059400011F0700F03D1002012B0BDE8F0811446B1
:1059500012782F2A2DD00DF1040803AF002B53D05D
:1059600042463946204600F0F5FB3A4629460123D7
:105970000028E8D0019C24783046002C61D000F04B
:105980008FFD3A46294620B93046FFF7FBFE002836
:10599000D9D035460FCD09AC0FC40FCD0FC4337825
:1059A0002A682260002B48D100233370019C09AD86
:1059B000D6E70134019422782F2AFAD0AD680093FB
:1059C000242209A8002109F0B9FE0B95EA79009B71
:1059D000102A3ED0202AB6D140228DF82420012260
:1059E00009AD8DF826200DF1040803AF63B1B7E7C8
:1059F0000FCD0FC40FCD0FC433782A682260C3B90E
:105A00000023019C337009AD42463946204600F020
:105A1000A1FB3A4629460123002894D0019C247812
:105A2000304674B100F03CFD354609AC00288AD000
:105A3000DEE73046FFF7CAFDE2E73046FFF7C6FD76
:105A4000B2E73A4629463046FFF79CFE12B0BDE861
:105A5000F08120228DF82420C1E700BF2DE9F0411C
:105A6000064692B03478019200208DF824008DF81B
:105A700025002CB91F460B7813F0700F0D4603D18B
:105A8000002012B0BDE8F08113782F2B144624D1EA
:105A90000134019494F80080B8F12F0FF8D0B8F1D8
:105AA000000F45D0AD6809A82422002109F046FE68
:105AB0000B95EB79102B37D0202BE1D140238DF8BB
:105AC0002430012309AD8DF8263006E03046FFF77B
:105AD0007DFD0023019C337009AD01AA03A9204676
