:1000000000800020BD01000071B9000029B9000086
:1000100029B9000029B9000029B9000029B9000058
:1000200029B9000029B9000029B9000071B9000000
:1000300071B9000029B90000D1D4000021D7000017
:1000400071B9000071B9000071B9000071B9000008
:1000500071B9000071B9000071B9000071B90000F8
:1000600071B9000071B9000071B9000071B90000E8
:1000700071B9000071B9000071B9000071B90000D8
:1000800071B9000071B9000071B9000071B90000C8
:1000900071B9000071B9000071B9000071B90000B8
:1000A0006958000071B9000071B9000071B9000011
:1000B00071B9000071B9000071B9000071B9000098
:1000C00071B9000071B9000071B9000071B9000088
:1000D00071B9000071B9000071B9000071B9000078
:1000E00071B9000071B9000071B9000071B9000068
:1000F00071B90000F5DD000071B9000021DF0000DA
:1001000071B900004DE0000071B9000071B9000044
:1001100071B9000071B9000071B9000071B9000037
:1001200071B9000071B9000071B9000071B9000027
:1001300071B9000071B9000071B9000071B9000017
:1001400071B9000071B9000071B9000071B9000007
:1001500071B9000071B9000071B9000071B90000F7
:1001600071B90000C9C0000071B9000071B9000088
:1001700071B9000071B9000071B9000071B90000D7
:1001800071B9000071B9000071B9000071B90000C7
:1001900071B9000071B9000071B9000071B90000B7
:1001A00071B9000071B9000071B9000071B90000A7
:1001B00071B9000071B900005DD20000564B4CF2DD
:1001C000205210B51A804DF628121A8000BF00BFC9
:1001D00000F066FB514B4FF010621A60504A9A6073
:1001E000504ADA60504A136813F4807304D14F49BF
:1001F0000B604FF4A85313604D4B1A78110703D5C9
:100200001A7842F008021A704A4B4B492A221A7097
:100210004A4A4B4B8B4204D252F8040F43F8040B6A
:10022000F8E7484B484900228B4202D243F8042B9E
:10023000FAE74649464A002352F8230041F82300D2
:1002400001336F2BF8D1434B434A802103F8011B44
:100250009342FBD1414B3D4A1A60414B8A221A70AE
:10026000A3F5805324225A70A0221A709A7992071B
:10027000FCD59A79D406FCD43A4A937903F00C035E
:10028000082B384BF9D103221A7140225A719A79FE
:100290009006FCD5334A9179324B4906FBD5324A58
:1002A000324911600221516020221A709A7902F0BD
:1002B0000C020C2AFAD12E4B2E4A1A602E4B4BF60A
:1002C0007F321A6000225A60072243F8042C2B4A1E
:1002D000C3F80C2D62B60BF06DFC144B1B68DA07EB
:1002E00005D527480BF054FC264B274A1A60274BAC
:1002F0001B785B0609D5234C234B22689A4204D114
:100300001F480BF045FC002323600FF06BFA0BF045
:1003100033FB0DF0CDFCFEE70E200540308004409D
:10032000823F04000100002B10D0034014D0034092
:1003300002D0074000E00740E8090020E87A010009
:1003400020F9FF1FE8090020FC56002000F4FF1FE1
:100350000000000000E400E05FE400E008ED00E0E1
:100360000050064000400640448004400000131145
:1003700004800440C010050014E000E000002020CC
:1003800003E8A05B1CE00340A5C3945A00F00740BB
:10039000FFFFFFFFFFFFFFFFFFFFFFFFFFFFFFFF6D
:1003A000FFFFFFFFFFFFFFFFFFFFFFFFFFFFFFFF5D
:1003B000FFFFFFFFFFFFFFFFFFFFFFFFFFFFFFFF4D
:1003C000FFFFFFFFFFFFFFFFFFFFFFFFFFFFFFFF3D
:1003D000FFFFFFFFFFFFFFFFFFFFFFFFFFFFFFFF2D
:1003E000FFFFFFFFFFFFFFFFFFFFFFFFFFFFFFFF1D
:1003F000FFFFFFFFFFFFFFFFFFFFFFFFFFFFFFFF0D
:10040000FFFFFFFFFFFFFFFFFFFFFFFFDEF9FFFF23
:1004100010B5054C237833B9044B13B10448AFF33E
:1004200000800123237010BDE809002000000000B7
:10043000E47A0100084B10B51BB108490848AFF336
:1004400000800848036803B910BD074B002BFBD0A0
:10045000BDE81040184700BF00000000EC09002074
:10046000E47A0100E8090020000000000020704745
:10047000704700BF027C02F0080202F0FF0332B1B5
:10048000C36A406A181A48BF6FF0004070471846A8
:10049000704700BFF8B55548554D564C297803783C
:1004A0002278DFF868E1544F544E120442EA0323E5
:1004B000FF222A700270802022708EF800003870AF
:1004C000B2794F480B4312F00C0FC36002D1B379DD
:1004D000DC063DD4494A9379C3F38103032B40D012
:1004E000464B9A79C2F38102022A42D0434A937959
:1004F000C3F38103022B53D0404A9379C3F38103A2
:10050000022B61D03D4A9379C3F38103012B51D073
:100510003A4A9379C3F38103012B5CD0374B9A7924
:1005200012F00C0F03D19A79D20600D49B79354D85
:10053000354B2A7853F82240D4B1236820469B6873
:1005400098472B7804EB83046468002CF5D1F8BD40
:10055000B3799806EBD5294A9379C3F38103032B2A
:10056000BED19379D906BBD493799B06DFD4B7E784
:10057000F8BD9A79D706B9D49A799606B6D559783E
:1005800001F0020101F0FF020029AFD120211A7011
:100590001A461970937903F00C030C2BFAD1C6E7B5
:1005A0009379DD06A8D493799C06A5D4537898074F
:1005B000BDD5A1E79379DF06AAD593799E06A7D486
:1005C00053789D07B3D4A3E79379D9069AD4537887
:1005D0009B07ACD496E79379DC069FD59379980670
:1005E0009CD453789907A2D598E700BF06C007406E
:1005F00005C0074007C0074009C00740004006404B
:10060000D4560020AC5300206C53002008C0074093
:1006100090F92410104B03604B1C06D0F0B40F4E21
:1006200056F82130984201D0F0BC70470C4F57F873
:10063000213033B18D0000245A1953685460002BC7
:10064000FAD1084C23780022013B237047F821207F
:1006500046F82120E8E700BF8C6A01008C53002097
:100660006C530020AD53002038B590F924506B1C1A
:100670001BD00E4B0E4953F825400E4BEDB24FF0F8
:10068000FF320D701A6084B1AD0002E02C44646842
:100690005CB194F82530002BF8D0236820462C4418
:1006A0001B6898476468002CF3D138BD6C53002058
:1006B000AC530020B8F3FF1F704700BF90F924101F
:1006C000104B03604B1C06D0F0B40F4E56F821308F
:1006D000984201D0F0BC70470C4F57F8213033B12D
:1006E0008D0000245A1953685460002BFAD1084C2D
:1006F00023780022013B237047F8212046F821206F
:10070000E8E700BF8C6A01008C5300206C53002086
:10071000AD53002090F92410104B03604B1C06D001
:10072000F0B40F4E56F82130984201D0F0BC70471B
:100730000C4F57F8213033B18D0000245A195368FB
:100740005460002BFAD1084C23780022013B23701F
:1007500047F8212046F82120E8E700BF8C6A010015
:100760008C5300206C530020AD53002010B50021A5
:1007700004460CF037FDB0B1B4F8B4319BB2C3B14C
:10078000B4F8B031B4F8B2219BB20133632BC8BFC7
:10079000002392B2934207D09A1D04EB82029BB2CF
:1007A0005060A4F8B03110BDD4F8B8310133C4F8AA
:1007B000B831BDE810400CF0D1BC00BF103006F0DD
:1007C00043B800BF00B583B002AB012203F8011D9E
:1007D0001030194606F038F803B05DF804FB00BF8E
:1007E000103005F00DBF00BF00B583B001220DF140
:1007F0000701103005F03EFE01280CBF9DF80700F0
:100800004FF0FF3003B05DF804FB00BF103005F07F
:10081000CDBF00BF2DE9F0410E4680460BF0B2F986
:10082000174D286008F07AFB0746286808F052FB4D
:100830000446286808F03CFB6401C0B204F4FF548D
:10084000BFB20443A7F2BC7744EA4724A8F80040AB
:10085000286808F051FB0746286808F005FB0446A5
:10086000286808F013FBFF02640107F4FF2704F473
:10087000FF54C0F346003C4304433480BDE8F0819C
:10088000F04E002010B504460FF07AFE21460246D5
:10089000BDE8104001480CF04BBF00BFB85100202C
:1008A000464A474B102010801B781B0734D5F0B503
:1008B000444E454D454C31782B782278DFF82CE1B9
:1008C000434F824042EA03230B43FF2280213270D0
:1008D0002A7022708EF800103970D9073D4A14D55D
:1008E0001A2393603C4F3D4E3D4D3E4C3E4910799E
:1008F00000233B7053709370D370D36033701371C7
:100900002B70237013700870F0BD1F0705D4DE062E
:1009100006D504239360E5E7704721239360E1E760
:100920009D0604D45C0604D516239360DAE7906034
:10093000D8E7180602D509239360D3E7D90502D575
:100940000A239360CEE79F0502D50D239360C9E784
:100950005E0502D50B239360C4E71D0502D51E2357
:100960009360BFE7DC0402D502239360BAE79804E2
:1009700002D507239360B5E7590402D50623936097
:10098000B0E71F0402D515239360ABE7DE0302D561
:1009900024239360A6E79D0302D522239360A1E759
:1009A000DC0202D5252393609CE71803F5D4590394
:1009B000F3D49B0244BF2323936093E700200540B8
:1009C00002D0074005C0074006C0074007C00740E7
:1009D00009C00740D456002000C0074001C00740AE
:1009E00002C0074003C0074004C0074008C00740DA
:1009F000002976D02DE9F04F0C469100631883B0A2
:100A00005D68002D57D06B185E68002E50D07318AB
:100A10005F68002F49D07B18D3F80480B8F1000F2D
:100A20003CD008EB0103D3F80490B9F1000F32D0A9
:100A300009EB0103D3F804A0BAF1000F27D00AEBA9
:100A40000103D3F804B0BBF1000F18D00BEB010386
:100A50005B6863B1194401934968FFF7C9FF019BC3
:100A600093F825201AB11A681846536898479BF8DE
:100A7000253023B1DBF8003058465B6898479AF878
:100A8000253023B1DAF8003050465B68984799F872
:100A90002530002B35D198F8253063BB97F82530E9
:100AA0001BB13B6838465B68984796F82530CBB950
:100AB00095F8253063B994F8253013B903B0BDE833
:100AC000F08F23685B68204603B0BDE8F04F1847FD
:100AD0002B6828465B68984794F82530002BEDD0AA
:100AE000EFE77047336830465B68984795F82530E4
:100AF000002BE0D0ECE7D8F8003040465B68984720
:100B0000CCE7D9F8003048465B689847C3E700BF98
:100B100090F92420531C26D01B4B2DE9F04153F8AB
:100B20002240D2B2ECB19300E1184D68B5B1E9189A
:100B30004E6866B1F1184F6837B13B445968FFF70A
:100B400057FF97F82530A3B996F8253063B995F883
:100B500025301BB12B6828465B68984794F82530F0
:100B600063B9BDE8F0817047336830465B689847E9
:100B7000EDE73B6838465B689847E5E72368204621
:100B80005B68BDE8F04118476C5300202DE9F8433D
:100B90004F4CB4F8B021B4F8B23192B29BB29A4241
:100BA00038BF6432D31A3F2B67DD4A4DD4F8AC917D
:100BB000DFF81C8105F58047002637E04FF480728E
:100BC00000210AF0F7FA48460CF0C8FAC4F8AC6104
:100BD000B4F8B231B4F8B0219BB292B293424ED085
:100BE0000133632B86BF4FF0000E73461FFA83FE5E
:100BF000063304EB83034FF48072D3F80490C4F8F7
:100C0000AC9109F104012846A4F8B2E10AF0D2FA45
:100C1000B9F1000F04D048460CF0A0FAC8F8AC6156
:100C200005F50075BD424FF0000934D0A5F5807080
:100C3000B9F1000FC2D1B4F8B231B4F8B0219BB20F
:100C400092B293423DD00133632B86BFCE467346AA
:100C50001FFA83FE063304EB83034FF48072D3F84C
:100C60000490C4F8AC9109F10401A4F8B2E10AF0CF
:100C7000A1FAB9F1000FABD0A5E7BDE8F88328468B
:100C80004FF48072002105F500750AF093FABD4219
:100C90004FF00009CAD14FF480420F490F4805F0C8
:100CA000D3FD013005D00E4A136820331360BDE830
:100CB000F883012114200AF0D1FD0A4B0A4A1A6078
:100CC000F1E749464FF480720AF074FA80E700BFFA
:100CD000044F0020740B0020740A0020480A0020F2
:100CE000004F00200CED00E00400FA0508B50849AB
:100CF000084A094B0988118008480022A3F8B4214A
:100D000005F060F96420BDE808400BF0B5B800BFFD
:100D1000EC540020C4540020044F0020480A002056
:100D20002DE9F04F95B00AF02DFFDFF82893B84C6D
:100D3000C9F8000008F0CEF82368984200F05D8200
:100D4000D9F80000B34EB44F08F0C4F82060D9F8C9
:100D5000000008F0E3F82368B0490246B0480FF0FD
:100D6000A1FB00240123AE4AAE49376007A88DF8E5
:100D70001C408DF81D4005F041FADFF8A4820021E7
:100D800010200BF03DF898F8002000232F2A8DF852
:100D90001C308DF81D3000F0B48107AC20460123D3
:100DA0009F4AA04905F0C6FA58B19DF81C3013F0CF
:100DB000700F06D00FCC9B4D0FC50FCC0FC523680D
:100DC0002B60D9F8000008F0A9F80446D9F8000013
:100DD00008F080F88246D9F8000008F069F805901C
:100DE000D9F8000008F088F88346D9F8000008F028
:100DF0003BF80490D9F8000008F048F8059A049BE5
:100E00000092039002932246CDF804B053468649DF
:100E100086480FF047FB00250824376010200AF0B1
:100E200001FC0EF0BFF84FF06A510EF00FF90146C9
:100E300028460EF003F8013C0546EFD17948DFF86B
:100E4000189205F0BFF87A4901F23C4005F0F2FA39
:100E50004FF47A7646230BA8764A72498DF82C40D7
:100E60008DF82D408DF820408DF828400996CDF85A
:100E70001C9005F05FFA9DF82C30002B40F04F815C
:100E8000012114200AF0EAFC6B4B6C4A1A6098F8B6
:100E90000020634900232F2A8DF81C308DF81D3067
:100EA00000F0228107A801235D4A5E4905F042FA5D
:100EB00060B19DF81C3013F0700F07D007AC0FCC59
:100EC000584D0FC50FCC0FC523682B604FF47A75B2
:100ED00000240995C223554A52498DF82C400BA88D
:100EE0000BAD8DF82D408DF820408DF82840CDF8C1
:100EF0001C9005F01FFA0FCD514E9DF82040347123
:100F000006F110040FC40FCD0FC4099A9DF82830C4
:100F10002968B2603373454821600FF031FB014608
:100F20004248484FDFF810B1DFF810A10BF03EFF48
:100F300045480CF08BFC46E005F0FCF960B19DF8EB
:100F40001C30384D13F0700F07AC05D00FCC0FC517
:100F50000FCC0FC523682B604FF47A750024C22391
:100F6000324A304909950BA80BAD8DF82C408DF80D
:100F70002D408DF820408DF82840CDF81C9005F0CC
:100F8000D9F90FCD314C9DF820E086F804E00FC46C
:100F90000FCD0FC49DF82830099A33732968B260C9
:100FA000224821600FF0ECFA014620480BF0FEFECB
:100FB00025480CF04BFC0A200AF05EFF3B68B3F5B5
:100FC0007A7F00F38A80347C21491848002C45D16F
:100FD0003B6801331A463B600FF064FA98F8005002
:100FE0000F4A10498DF81C402F2D4FF0010307A820
:100FF0008DF81D40A0D15478002C9DD1084604F0F6
:10100000E1FF0B4901F23C4005F014FAA4E700BFF0
:10101000285200206853002015080000B06A010023
:10102000C4500020B44E0020BC6A01009051002042
:10103000784A0020DC6A01000CED00E00400FA05AB
:10104000380A0020C05000208CFFFF1F480A0020F3
:101050001C6B0100F04E0020686A01008E488F4929
:1010600007688F4C8F4A904B904D03C9206092E8DF
:101070000300A06093E8030010260123A382E3820B
:10108000E060266138460EF0CDF93946A061384659
:101090000DF0D4FE0EF0C6F9854AE0612B68668437
:1010A00092E803005B0203F124062C2260622146D1
:1010B00002278048A3622784666005F0C5FB0921EA
:1010C0007D480BF073FE29687C480CF045FB7B489B
:1010D0000CF0BCFB15B0BDE8F08F012114200AF024
:1010E000BDFBCBF800A06EE74B78002B7FF4DAAEA7
:1010F000734804F067FF734901F23C4005F09AF928
:10110000E4E698F80130002B7FF447AE6C4804F019
:1011100059FF6C4901F23C4005F08CF951E66A48F0
:101120006A4E0FF02DFA684902460BA805F08CFBB9
:1011300014A92C2301F8383D01220DEB030005F022
:1011400083FB06F1080707AC16F8011F00230A22EB
:1011500020460CF0CBFBB742F6D128465C490DF097
:1011600075FF4FF078510DF071FF14A92C2605463C
:10117000012201F8356D0DEB060005F065FB554BBE
:1011800018680DF0B9FA02270B4602460097204670
:101190000CF00AFC14A9012201F8366D0DEB0600D3
:1011A00005F052FB28460DF0A7FA00970B460246C1
:1011B00020460CF0F9FB14A9012201F8376D0DEB64
:1011C000060005F041FB44480FF0DAF942490246B7
:1011D0000DEB060005F038FB20460CF037FB2846E7
:1011E0003E490EF0D1F858B928463D490EF0CCF8EA
:1011F00018BB0BA804F0E6FE49E63A4E3A4FBCE5B0
:101200003A4E3368002BEFD0012105200AF0C6FDCD
:1012100040F6B8300AF030FE002105200AF0BEFD8D
:10122000334A3449002313700BA80B22336005F0B6
:101230000BFB20460CF00AFBD6E728222E490BA810
:1012400005F002FB20460CF001FB0BA804F0BAFEEF
:101250000025082410200AF0E5F90DF0A3FE4FF058
:101260006A510DF0F3FE014628460DF0E7FD013C02
:101270000546EFD116490DF0E9FE4FF078510DF01B
:10128000E5FE17490EF080F80028B2D047F2305042
:101290000AF0F2FDDCE700BF04520020286B0100D9
:1012A00078520020306B0100386B0100F0510020B3
:1012B000406B0100480A0020486B01008CFFFF1FB3
:1012C000B44E0020784A0020905100203F51002069
:1012D000CDCCBC405451002008FAFF1F6666464042
:1012E00000004040685300201508000050510020C5
:1012F000FD4E0020E46A0100F06A010038B5154D8A
:10130000FFF70EFD144BD5F8AC0100241C6018B19A
:101310000BF024FFC5F8AC41B5F8B241B5F8B031D7
:10132000A4B29BB29C420ED00134642C28BF00248E
:10133000A31D05EB830358680BF010FFB5F8B0311F
:101340009BB2A342F0D1A4B20123A5F8B241A5F803
:10135000B43138BD044F0020004F002070B517484D
:101360008EB004F02FFE16490EAD01F23C4005F0A0
:1013700061F8144B45F8343D00244623124A0F49C6
:101380008DF8144005A84FF47A768DF815408DF845
:1013900008408DF81040039604F0CCFF9DF81430FF
:1013A00053B12922094905A805F04EFA28460CF048
:1013B0004DFA05A804F006FE0EB070BDB44E002034
:1013C000784A0020686A0100DC6A0100546B010061
:1013D000234924480B6850F8232070B592BB013391
:1013E000214A0B600125042B157031D01F4C204A77
:1013F00004F58C6612F82320304604F26C414FF05D
:10140000384306F083FC10B304F23C40266004F03D
:10141000D9FD2946204606F07DFB0146D0B1134C8C
:1014200004F23C452846214605F004F888B194F8BA
:101430003C3413F0700F0AD00E4B1D60BDE87040B5
:10144000FFF78CBF013A40F82320002AC7D070BDB7
:10145000FEE770BD204606F05DFB0028DFD170BDC1
:10146000645200200C520020FC510020784A0020D9
:10147000585100206453002008B5012105200AF0CE
:101480008DFC4FF4FA600AF0F7FC002105200AF009
:1014900085FC024B01221A7008BD00BFFD4E0020E2
:1014A00008B5012105200AF079FCC8200AF0E4FC07
:1014B000002105200AF072FC64200AF0DDFC024BDA
:1014C00001221A7008BD00BFFD4E002008B50121A1
:1014D00005200AF063FC40F6B8300AF0CDFC00218C
:1014E00005200AF05BFC024B00221A7008BD00BF09
:1014F000FD4E00202DE9F0438FB004460FF040F878
:1015000000B201281CDDB4F9003044F2537293425A
:1015100000F0878118DD44F65452934200F0D580E4
:1015200045F2532293422AD044F65212934207D1F5
:101530000BAAE01CC3490EF0DBFFC34B0B9A1A60E9
:1015400001200FB0BDE8F08344F24E4293420FD029
:1015500044F252429342F3D10BAAE01CB9490EF077
:10156000C7FFBA4B0B9A1A6001200FB0BDE8F08399
:10157000B74B012201201A600FB0BDE8F0830AAD1D
:1015800009A908AA05ABE01C0395029101920093FA
:1015900007AA06ABAF490EF0ABFFAF4B079D5968EA
:1015A00018689A680A9EDDF824E0DDF820C0A5F5E9
:1015B000FA65ADB20BAF2CB207C7069F05991E3472
:1015C00015F0030F4FEAA408FDB240F03981A34B98
:1015D000022D8CBF1F460027A148A24BC8EB040474
:1015E00000FB08F06A1E03FB0400002A00EB07035F
:1015F00047DD9DF82C409948012A00FB043340D078
:101600009DF82D40022A00FB04333AD09DF82E406D
:10161000032A00FB043334D09DF82F40042A00FB3A
:1016200004332ED09DF83040052A00FB043328D027
:101630009DF83140062A00FB043322D09DF8324049
:10164000072A00FB04331CD09DF83340082A00FB16
:10165000043316D09DF83440092A00FB043310D01F
:101660009DF835400A2A00FB04330AD00B2A9DF866
:10167000364018BF9DF8372000FB043318BF00FB2D
:1016800002335FFA8EF2C2EB02125FFA8CF04FF473
:101690006164920004FB0022704D734C7348C9B220
:1016A000013952FA86F205FB01221344122123600C
:1016B0000BF07CFB21686E480CF04EF86C480CF087
:1016C000C5F801200FB0BDE8F0830AAD09A908AA4A
:1016D00005ABE01C039502910192009307AA06ABAB
:1016E0005C490EF005FF5C4B079F9A6818685968C3
:1016F0000A9EDDF824E0DDF820C0A7F5FA67BFB246
:101700000BAC3DB207C4069A059C1E3517F0030FBB
:101710004FEAA508D7B240F09080504B022F8CBF03
:1017200099464FF000094E494E4BC8EB050501FBA9
:1017300008F17A1E03FB0510002A00EB090347DDC0
:101740009DF82C004549012A01FB003340D09DF84B
:101750002D00022A01FB00333AD09DF82E00032A07
:1017600001FB003334D09DF82F00042A01FB003325
:101770002ED09DF83000052A01FB003328D09DF8BB
:101780003100062A01FB003322D09DF83200072ADF
:1017900001FB00331CD09DF83300082A01FB003305
:1017A00016D09DF83400092A01FB003310D09DF8B3
:1017B00035000A2A01FB00330AD00B2A9DF83600B7
:1017C00018BF9DF8372001FB003318BF01FB02331F
:1017D0005FFA8EF2C2EB02125FFA8CF04FF4616591
:1017E000920005FB0022E1B21C4C1F4D52FA86F21A
:1017F000013904FB01241C4420462C600AF0C8F97E
:101800000B211C480BF0D2FA214600230A2218486B
:101810000CF06CF816480CF019F801200FB0BDE878
:10182000F0830BAAE01C07490EF062FE124B0B9AE4
:101830001A6001200FB0BDE8F0834FF0000972E795
:101840000027C9E6A06B010048FAFF1F3CFAFF1F02
:10185000700A0020806B0100986A0100805101002D
:101860000085E2018033E101F84E0020A46B010005
:101870008CFFFF1F946B010000FAFF1F2DE9F0435E
:10188000A3B000254FF47A76764F77480A968DF804
:1018900030508DF831508DF824508DF82C50089729
:1018A00004F090FB714901F23C4004F0C3FD0123B8
:1018B0006F4A6D49179619A88DF864508DF86550D8
:1018C0008DF858508DF86050159704F033FD0DF1E8
:1018D000640EBEE80F000CAE0FC6BEE80F000FC6C8
:1018E0009DF83080DEF800109DF85800179A9DF89A
:1018F000603031608DF824000A928DF82C30B8F1F8
:10190000000F46D02E468DF800604FF000094FF0D2
:10191000FF08012215A90CA804F0ACFD09F1010390
:1019200022AA01284A441BB224D01D2B02F8888C1D
:1019300005DC9946EDE71D2B01DC0A2AF9D1013BB4
:101940009BB222AA1A4402F8886C9DF800202F2A24
:1019500004D0012B02D96846FFF7CCFD9DF830304A
:101960001B0711D40CA804F02DFB2DBB012023B0C4
:10197000BDE8F0839DF854200D2A08BF4B4662D184
:101980001D2BDCDC9946C4E7139A119B9A42BAD10D
:10199000E8E7142137480BF009FA37480BF056FFF7
:1019A0000D22364936480BF0C3FE35480BF04EFF8A
:1019B000404623B0BDE8F0830B2132480BF0F6F926
:1019C00000230A2221462C480BF090FF2A480BF0F6
:1019D0003DFF254804F0F6FA2449002501F23C4079
:1019E00004F028FD4FF47A768DF864508DF8655038
:1019F0008DF858508DF8605063231D4A1A49179688
:101A000019A819AD159704F095FC0FCD0CAE0FC6B3
:101A10000FCD0FC62968179A9DF860309DF8585071
:101A200031600CA821460A928DF82C308DF8245094
:101A300004F01AFE022214490CA804F005FF0CA8B9
:101A400004F0C0FA92E722AB03EB0901542A09F132
:101A5000010301F8882C1BB27FF46DAF119C054681
:101A6000013C8DE7686A0100B44E0020784A0020EE
:101A7000B86B0100D46B01008CFFFF1FEC6B010001
:101A8000B8510020C46B0100D06B010030B583B0A9
:101A900002AD079C05F8082D8DF80200069A8DF816
:101AA00004304E3428468DF801108DF805208DF84D
:101AB000064007F047FA0AF06BF80AF063F8024BA9
:101AC000186003B030BD00BF744A002010B5094C47
:101AD000204608F08DFF2046012108F0AFF920468E
:101AE000022108F0A5F9002220461146BDE8104069
:101AF00008F09AB9B85100202DE9F04782B00AF0F9
:101B000041F8B54BB54E18600121B548B54FB64CFC
:101B1000DFF84483B54D08F08BF90121B04808F097
:101B20008DF912220021AE4808F07EF90422B04956
:101B3000AB480BF0FDFD3168A9480BF00DFE022209
:101B4000AC49A7480BF0F4FDA5480BF07FFE062238
:101B5000A949A3480BF0ECFD3968A1480BF0FCFD46
:101B60000322A6499E480BF0E3FD0322A4499C48AA
:101B70000BF0DEFD0A222178994800230BF0B6FE17
:101B800097480BF063FED8F8003055F823000DF0AD
:101B900009FA9C490DF00EFB0CF0AEFD02460B4617
:101BA0008F4899490BF094FE01218D4808F040F9C7
:101BB000D8F80030366855F82330700003FB00F089
:101BC0002C300DF0EFF94FF08E410DF037F98D49C3
:101BD0000DF0F0FA8B490DF0EDFA8C4B1B68012BE0
:101BE000814600F0D3804FF07E5830460DF0DAF990
:101BF00041460DF02BFA80463868DFF860A2844D2C
:101C000030440DF0CFF9014640460DF0D3FA0746B7
:101C100020780DF0C7F97F4B19680DF017FA7E4B4D
:101C2000044618680DF0BEF97C4B19680DF00EFAE9
:101C30007B4B19680DF002F939460DF007FA394669
:101C400080464FF07E500DF0F7F8764B19680DF096
:101C5000FDF9014640460DF0F1F8014620460DF031
:101C6000A9FA71490DF0F2F90DF0DCFBDAF8004049
:101C7000002380462B606B60AB60EB6074B1204644
:101C80000DF08CF949460DF095FA0CF035FD0CF08D
:101C900047FB0DF05DF8286000FB06F4DAF804005D
:101CA00068B10DF07BF949460DF084FA0CF024FD83
:101CB0000CF036FB0DF04CF8686000FB06F0DAF82B
:101CC0000830044473B118460DF068F949460DF028
:101CD00071FA0CF011FD0CF023FB0DF039F8A8603F
:101CE00000FB06F3DAF80C001C4468B10DF056F95D
:101CF00049460DF05FFA0CF0FFFC0CF011FB0DF003
:101D000027F8E86006FB00F020440DF047F939465B
:101D10000DF050FA044640460DF040F901462046C9
:101D20000DF050FBF0B901462E222D4808F07CF84A
:101D30000D223E492A480BF0FBFC20463C490DF0A1
:101D400039FA0CF0D9FC022402460B4600942448D0
:101D50000BF02AFE37492248012202B0BDE8F047C5
:101D60000BF0E6BC2E2200211D4808F05DF80E2283
:101D700031491B480BF0DCFC30491948A1FB083104
:101D8000090C00230A220BF0B1FDE3E72C4A2D4B8E
:101D900010781B78834286BFC3F11803C018C01A9D
:101DA0000DF000F9284A294B80461B7810788342B1
:101DB00086BFC3F13C03C018C01A0DF0F3F82449E4
:101DC000054640460DF042F929460DF037F8214905
:101DD0000DF0F0F9804608E7F04E00203CFAFF1FB6
:101DE000B851002048FAFF1F38FAFF1F14FAFF1FEE
:101DF000FC6B0100046C0100086C0100106C010018
:101E0000146C010000007A44186C0100F4510020A9
:101E10000C52002044FAFF1F505100204CFAFF1FC3
:101E200050FAFF1F40FAFF1F00006145346C0100AB
:101E300000C0A847906B0100246C010007452EC22A
:101E40008C510020340A0020FC4E002060520020FB
:101E5000000070420000B44430FAFF1F68520020B6
:101E600038B5054607F05AF81E4C014620460BF0DF
:101E700073FC2D200BF06EF8284607F02BF8014676
:101E800020460BF069FC2D200BF064F8284607F083
:101E90000FF8014620460BF05FFC012112480AF0C2
:101EA00085FF284607F028F8014620460BF054FC31
:101EB0003A200BF04FF8284606F0D6FF01462046A0
:101EC0000BF04AFC3A200BF045F8284606F0DEFFFE
:101ED000014620460BF040FC2046BDE838400BF0A0
:101EE000B5BC00BF8CFFFF1F986C01002DE9F043CB
:101EF000434A444BDFF81891DFF81881424D98F8B7
:101F00000010167899F800701A78286883B03C237E
:101F100013FB071713FB062606F0EEFF044628689E
:101F200006F0A2FFC4EB041400EB8404286806F05A
:101F3000F5FF00F14E0328688DF8063006F0CAFF61
:101F40008DF80500286806F0B3FFB7428DF804004D
:101F500006D2A74232D8A64230D303B0BDE8F08300
:101F6000A742FAD9A642F8D202A8002399F8002085
:101F700000F8083D98F800308DF801308DF8022007
:101F800006F0E0FF0F21286020480AF00FFF2868C4
:101F9000FFF766FF09F0F6FD2B68834204DA03F5CC
:101FA000A83303F5C0732B600F2118480AF0FEFE1A
:101FB0002868FFF755FF03B0BDE8F08302A80023AF
:101FC00099F8002000F8083D98F800308DF80130AD
:101FD0008DF8022006F0B6FF0F2128600B480A4C4E
:101FE0000AF0E4FE2868FFF73BFF09F0CBFD2B6801
:101FF0008342D9DA03F5A83303F5C0732360D3E72E
:102000008C510020FC4E0020F84E0020446C010052
:10201000340A00206052002010B5002009F0C8FBEF
:10202000244C2070012009F0C3FB6070022009F0ED
:10203000BFFBA070032009F0BBFB1F4BE0702268C0
:102040001A60042009F0B4FB2070052009F0B0FBF1
:102050006070062009F0ACFBA070072009F0A8FB17
:10206000164BE07022681A60082009F0A1FB144B9F
:102070001870092009F09CFB124B18700A2009F017
:1020800097FB114B18700B2009F092FB0F4B187047
:102090000C2009F08DFB0E4B18600D2009F088FB19
:1020A0000C4B18600E2009F083FB08B10A4B187026
:1020B00010BD00BF1C5200203CFAFF1F48FAFF1F52
:1020C000340A0020605200208C510020FC4E002079
:1020D000F451002030FAFF1F38FAFF1F264B10B5CD
:1020E0001968264C00202160C9B209F0B7FB61785D
:1020F000012009F0B3FBA178022009F0AFFBE178E1
:10210000032009F0ABFB1E4B196821600420C9B203
:1021100009F0A4FB6178052009F0A0FBA178062056
:1021200009F09CFBE178072009F098FB154B08208B
:10213000197809F093FB144B0920197809F08EFBEC
:10214000124B0A20197809F089FB114B0B201978E2
:1021500009F084FB0F4B0C20197809F07FFB0E4B24
:102160000D20197809F07AFB0C4B0E201978BDE888
:10217000104009F073BB00BF3CFAFF1F1C52002047
:1021800048FAFF1F340A0020605200208C510020C2
:10219000FC4E0020F451002030FAFF1F38FAFF1FD8
:1021A0002DE9F04F102983B00C4606467FD0202938
:1021B00076D04FF0000A5FFA8AFA4AF0E063002115
:1021C000009301204AF08E4301930CF001FF014679
:1021D0003A480CF0EFFF074620460CF0DFFE0146C0
:1021E0000CF02CFE044630460CF0D8FE014620468A
:1021F0000CF02CFF014638460CF0DCFF4FF00108D4
:102200004FF07E550746C1464FF0010A4FF0000BD4
:1022100050460CF0C7FE39460CF018FF04460DF08E
:10222000DBF80CF0BFFE014620460CF005FE294607
:1022300006460DF0A9F84FF0874148B120460DF051
:10224000A3F828B120460DF00DF935468046D14659
:102250001AF1010A4BF1000BBBF1000F08BFBAF1F4
:10226000400FD5D11649174C0D681748174E09F184
:10227000FF3208F1FF33120302F47F22C3F30B0392
:10228000134325F010420A602360009B0360019B0A
:1022900033600B6843F010430B6003B0BDE8F08F70
:1022A0000B4B019303F140430A4F009394E70A4B11
:1022B000019303F14043094F00938DE7001B374C16
:1022C00080F0024004F1024008F0024088F0024031
:1022D00001000047001BB74B03000047001B374BB2
:1022E0002DE9F04F0546DFF87C82974E974F98F81E
:1022F00000E02E60FF2085F82400DFF86C9238782B
:1023000059F820C00023BEF1060F8DB00C4685F8A9
:10231000253085F826309CBF88F800309E46BCF1F9
:10232000000F00F0A8808C455BD06346810001E07F
:102330009C4256D00B445B68002BF9D1634603EBFB
:10234000010ADAF80430002BF9D105EB010BCAF8C9
:102350000440BEF1060F4FF0FF044FFA80FACBF8AD
:1023600004308DF82C4002968DF82D308DF82E30EB
:1023700085F824A0644605D8002388F80030002C96
:1023800000F0A980A24226D0234601E0934222D049
:102390000B445B68002BF9D104EB010CDCF8044022
:1023A000002CF9D1CCF804200CAB19440024431CB8
:1023B000BAF1FF3F41F8244C3B708DF82CA00296F7
:1023C00005D0634951F82A3002AA934272D02846B8
:1023D0000DB0BDE8F08F0130387028460DB0BDE873
:1023E000F08F0023FF21BEF1060F02968DF82C100E
:1023F0008DF82D308DF82E3001D888F800309445B6
:10240000E9D06346810001E09A42E4D00B445B6866
:10241000002BF9D18C44DCF804402CB1A4468C4448
:10242000DCF80440002CF9D10CAB19444FFA80FEC3
:10243000431CBEF1FF3FCCF804203B7041F8244C14
:1024400002968DF82CE0C2D0414951F82E3002AAF4
:102450009342BCD159F82E304FEA8E0623B19A1917
:1024600053685460002BFAD10023387049F82E309D
:1024700041F82E30ABE7B0B38100DFF8D4A049F8C3
:10248000204005EB010C00234AF82050BEF1060F56
:10249000CCF804304FFA80FA4FF0FF0C02968DF81A
:1024A0002D308DF82E3085F824A08DF82CC07FF6C5
:1024B00063AF64E759F82A304FEA8A0623B19A19C4
:1024C00053685460002BFAD10023387049F82A3041
:1024D00041F82A307BE7F0B11D4B49F8202002AAD1
:1024E00043F8202060E71B491B480B68019243F02A
:1024F00080630B600368194923F080430360152053
:1025000009F074FA164B98F800E0019A4FF40011A4
:1025100019603878B0E70F4C0F482368019243F0F8
:102520008063236003680D4923F080430360152016
:1025300009F05CFA0A4B019A4FF4001119603878DF
:102540004FFA80FA8100C7E78C6A0100AD53002082
:102550008C53002004700440007004409504000077
:1025600000E100E0BCF3FF1F6C5300202DE9F041B7
:10257000584D594C594E09F0D3F80421584808F0E9
:1025800023FA2A6826600023637223612372E360C2
:102590000AB99AE01A465369002BFBD1546100270F
:1025A000504B4D486761A780E780236002F04AFFE7
:1025B0004D4A4FF0010E02F118013B4638461772A2
:1025C000D760166082F809E01161174600E03969AA
:1025D00041F82300517A444E01339942F7DC2968CF
:1025E0003C4B09B973E019464B69002BFBD14A619A
:1025F0003E4B3F491C600024184654619480D480AF
:10260000A2F8B0411160A2F8B2415A60C2F8AC41E0
:10261000A2F8B441C2F8B8411C725C72DC600AF0E6
:10262000EDFD344A344B5069344A1A600CF0BAFC60
:10263000334D344B344E18604FF0FF08334B344A5F
:10264000344985F825402846012785F824802B60E9
:102650006C63AC6385F83C4085F826700DF0B0F8EB
:102660002D4B2B4A2D4986F82480304686F825408C
:10267000336086F8274086F8284086F826700DF0EB
:102680009FF82A4631462648264DFFF729FE204A64
:10269000254923480DF094F8244A254B2549147404
:1026A00064204FF47A76547414711473DC7183F8D7
:1026B0003C4483F83D4483F86A4483F860049660A0
:1026C0001560C3F86C14BDE8F0812C6067E71E60EC
:1026D0008EE700BFC0540020705100205C6A0100EA
:1026E000B8510020746E0100044F002024510020D6
:1026F000AC6A010014FAFF1F34510020586E01002B
:10270000DC50002004520020305200201C6F0100D9
:10271000FCF9FF1FBD060000306F01001507000027
:102720000C0A0020686A010011060000380A002027
:10273000784A00200110013810B5184C0A212046B3
:1027400003F0EEF92046002102F0C2FF20463021BE
:1027500002F0BEFF2046002102F0BAFF0021204611
:1027600002F0B6FF204603F0EDF920460A2103F0FF
:10277000D7F92046002102F0ABFF2046022102F0EB
:10278000A7FF2046002102F0A3FF2046002102F00F
:102790009FFF2046BDE8104003F0D4B94C53002001
:1027A0002D4B2E4810B51C680A216CBB03F0B8F9FC
:1027B00021462A4802F08CFF3021284802F088FF89
:1027C0002146264802F084FFA221244802F080FF1F
:1027D000224803F0B7F90A21204803F0A1F9214665
:1027E0001E4802F075FF02211C4802F071FF2146CD
:1027F0001A4802F06DFF4321184802F069FF17489C
:10280000BDE8104003F09EB903F08AF90021134897
:1028100002F05EFF3021114802F05AFF00210F48FC
:1028200002F056FFAB210D4802F052FF0B4803F0B7
:1028300089F90A21094803F073F90021074802F0D9
:1028400047FF0221054802F043FF0021034802F040
:102850003FFF6321D0E700BF505100204C530020C0
:102860000238032838B504DC002880F20C820024EA
:1028700000E00C240A21C84803F052F90021C648A0
:1028800002F026FF3021C44802F022FF4021C24856
:1028900002F01EFF6021C04802F01AFFBE4803F09C
:1028A00051F90A21BC4803F03BF90021BA4802F073
:1028B0000FFF2621B84802F00BFF0021B64802F0B6
:1028C00007FF6C21B44802F003FFB34803F03AF964
:1028D0000A21B14803F024F90021AF4802F0F8FEC4
:1028E0002821AD4802F0F4FE0121AB4802F0F0FED1
:1028F000F021A94802F0ECFEA74803F023F90A21D1
:10290000A54803F00DF90021A34802F0E1FE2A21B9
:10291000A14802F0DDFE00219F4802F0D9FE00210F
:102920009D4802F0D5FE9C4803F00CF90A219A4814
:1029300003F0F6F80021984802F0CAFE2C219648D0
:1029400002F0C6FE0F21944802F0C2FE22219248F6
:1029500002F0BEFE904803F0F5F80A218E4803F01D
:10296000DFF800218C4802F0B3FE3C218A4802F0D7
:10297000AFFE4421884802F0ABFE4621864802F0B3
:10298000A7FE854803F0DEF80A21834803F0C8F863
:102990000021814802F09CFE24217F4802F098FE2D
:1029A00001217D4802F094FE37217B4802F090FE21
:1029B000794803F0C7F8794B77481D680A21002D44
:1029C00040F0348103F0ACF82946734802F080FEF1
:1029D0003021714802F07CFE29466F4802F078FEF3
:1029E000A2216D4802F074FE6B4803F0ABF80A2197
:1029F000694803F095F82946674802F069FE02210C
:102A0000654802F065FE2946634802F061FE4321F5
:102A1000614802F05DFE604803F094F84FF4C8701E
:102A200009F02AFA0A215C4803F07AF800215A4892
:102A300002F04EFE2E21584802F04AFE1921564857
:102A400002F046FE1921544802F042FE524803F0BB
:102A500079F80A21504803F063F800214E4802F04B
:102A600037FE04214C4802F033FE00214A4802F0B0
:102A70002FFE2146484802F02BFE474803F062F83B
:102A80000A21454803F04CF80021434802F020FE9B
:102A90000621414802F01CFE01213F4802F018FEC9
:102AA00030213D4802F014FE3B4803F04BF80A2168
:102AB000394803F035F80021374802F009FE0A21B1
:102AC000354802F005FE0021334802F001FE0021E6
:102AD000314802F0FDFD304803F034F80A212E4859
:102AE00003F01EF800212C4802F0F2FD0E212A48C6
:102AF00002F0EEFD0021284802F0EAFD08212648F8
:102B000002F0E6FD244803F01DF80A21224803F0F4
:102B100007F80021204802F0DBFD10211E4802F0DA
:102B2000D7FDFF211C4802F0D3FD3C211A4802F0DA
:102B3000CFFD194803F006F80A21174802F0F0FF0C
:102B40000021154802F0C4FD2221134802F0C0FD07
:102B50007F21114802F0BCFD7F210F4802F0B8FD33
:102B60000D4802F0EFFF0A210B4802F0D9FF0121C6
:102B7000094802F0ADFD2421074802F0A9FD00211B
:102B8000054802F0A5FD0021034802F0A1FD02481E
:102B900002F0D8FF0A2103E04C53002050510020DE
:102BA0003A4802F0BDFF0021384802F091FD24218F
:102BB000364802F08DFD0021344802F089FD1421D1
:102BC000324802F085FD314802F0BCFF0A212F484F
:102BD00002F0A6FF00212D4802F07AFD2A212B48A1
:102BE00002F076FD0021294802F072FD00212748FD
:102BF00002F06EFD254802F0A5FF0A21234802F0ED
:102C00008FFF0021214802F063FD20211F4802F0C0
:102C10005FFD00211D4802F05BFD00211B4802F012
:102C200057FD1A4802F08EFF012038BD02F078FFF0
:102C30000021164802F04CFD3021144802F048FDF6
:102C40000021124802F044FDAB21104802F040FD83
:102C50000E4802F077FF0A210C4802F061FF0021C4
:102C60000A4802F035FD0221084802F031FD00213A
:102C7000064802F02DFD6321044802F029FD0348B7
:102C800002F060FFCAE68000C4B2F3E54C530020B6
:102C900038B5304B304C1021054653F82000FFF773
:102CA0007FFA2E4802F0BAFD2846FFF7D9FD2278B8
:102CB0002B48114602F044F823680F2B0CD8DFE8AC
:102CC00003F00C1014181C2024282C3034383C40FD
:102CD0004408244B244A1A6038BD224B234A1A6008
:102CE00038BD204B224A1A6038BD1E4B214A1A605B
:102CF00038BD1C4B204A1A6038BD1A4B1F4A1A6057
:102D000038BD184B1E4A1A6038BD164B1D4A1A6052
:102D100038BD144B1C4A1A6038BD124B1B4A1A604E
:102D200038BD104B1A4A1A6038BD0E4B194A1A604A
:102D300038BD0C4B184A1A6038BD0A4B174A1A6046
:102D400038BD084B164A1A6038BD064B154A1A6042
:102D500038BD00BF14FAFF1F00FAFF1F4C530020BC
:102D60003451002054510020BD549341103377C09A
:102D7000993918C0BE0D68BFCE71153F8D0903404B
:102D8000CCC9624009A7A3407DDBD140C4160141F4
:102D900054FC1741D0E83041195546419FAB5F4183
:102DA000A04176415E2E86413021014807F002B8ED
:102DB000B851002038B504460D463148012107F0CE
:102DC00037F82AB200212E4807F02EF8204606F0E8
:102DD000A5F801462A480AF0BFFC2D21284806F034
:102DE000E9FF204606F076F8014625480AF0B4FCD3
:102DF0002D21234806F0DEFF204606F059F8014653
:102E00001F480AF0A9FC02221E491D480AF090FC46
:102E1000204606F071F8092803DC3021184806F036
:102E2000C9FF204606F068F8014615480AF094FCF0
:102E3000204606F019F801220546134910480AF009
:102E400077FC092D03DC30210D4806F0B3FF29463D
:102E50000B480AF081FC204606F018F801220446CF
:102E6000094907480AF064FC092C03DC30210448B6
:102E700006F0A0FF21460248BDE838400AF06CBCCD
:102E8000B8510020546C01007C6C010038B5012160
:102E90000446314806F0CCFF372200212E4806F0C8
:102EA000C3FF204606F03AF801462B480AF054FCCE
:102EB0002D21294806F07EFF204606F00BF801463A
:102EC00025480AF049FC2D21234806F073FF2046CF
:102ED00005F0EEFF014620480AF03EFC02221F49A1
:102EE0001D480AF025FC204606F006F8092803DCF8
:102EF0003021194806F05EFF204605F0FDFF01462F
:102F000015480AF029FC204605F0AEFF01220546CF
:102F1000134911480AF00CFC092D03DC30210E483E
:102F200006F048FF29460C480AF016FC204605F03A
:102F3000ADFF012204460A4907480AF0F9FB092CB3
:102F400003DC3021044806F035FF21460248BDE885
:102F500038400AF001BC00BFB8510020546C010099
:102F60007C6C01002DE9F04F87B0FFF755F808F0B1
:102F700009FEBD4BDFF868831860BC48BC4EBD4DF0
:102F8000BD4F07F035FD0121B84806F057FF02217B
:102F9000B64806F04DFF00221146B44806F044FF43
:102FA0000822B649B1480AF0C3FB0121AF4806F038
:102FB0003FFF10220021AD4806F036FF1222B04933
:102FC000AA480AF0B5FBA9480AF040FCC146002413
:102FD000002345F8043BAB480AF038FCA9480AF046
:102FE00035FC01340521A84809F0E0FE2146A5483A
:102FF0000AF0B2FBA3480AF029FC21469B480AF0DC
:10300000ABFB0422A14999480AF092FB974807F0CC
:103010002BFF07219E4802F0B5FE0E219C4802F0CE
:103020000FFF0C219A4802F0DDFE59F8042B994954
:10303000D2B2A1F10C004FF0384304F067FE58BB48
:103040001C21954809F0B2FE8E480AF0FFFB0622CB
:10305000924986480AF06CFB84480AF0F7FB8348E3
:1030600007F002FF042CB3D1814C98F8002004F53E
:103070008C65284604F26C414FF0384304F046FE5C
:10308000002840F085800B22854978480AF050FBE3
:10309000764807F0E9FEFEE7824800F1240333603A
:1030A00002F090FF0121724804F034FD014600282F
:1030B0005ED0DFF8F0B1ABF23C41584603F0BAF90C
:1030C0000028BDD096F83C3413F0700FB8D0ABF2A6
:1030D0003C40C7F800B004F081FC0BF05FFF724980
:1030E0000BF0B4FF824630790BF05CFF014650468E
:1030F0000BF0ACFF0CF096F982460BF1240004F0C3
:10310000FDFF0BF04BFF68490BF0A0FF0CF08AF9B4
:10311000BAF1C70F8CBFAAF1C8030023834645F854
:10312000043C1121614809F041FE55F8041C554842
:1031300000230A220AF0DAFB52480AF087FB002338
:1031400055F8041C49480A220AF0D0FB01225849CC
:1031500046480AF0EDFA594600230A2243480AF08D
:10316000C5FB42480AF072FB404807F07DFE79E754
:103170003F4804F0CFFC00283FF462AFDFF824B1F1
:10318000ABF23C41584603F055F900289AD157E775
:1031900004F23C40256002F015FF0121204604F0B6
:1031A000B9FC0146002800F01887314C04F23C4578
:1031B0002846214603F03EF900283FF464AF94F816
:1031C0003C3413F0700F3FF45EAF3D60FEF756FBEA
:1031D000384B1A68384B9A4202D9364A3C2313605E
:1031E000364A354B12689A4202D9344A3C2313605E
:1031F000334B1B78172B02D9314A00231370314B04
:103200001B783B2B02D92F4A002313702E4B1B78BF
:10321000172B02D92C4A002313702C4B1B783B2B05
:1032200002D92A4A00231370DFF8B890D9F8003089
:10323000012B84BF0023C9F80030254B1B68042BE9
:1032400002D9234A05231360224C234E274600252A
:10325000082008F0C7FD002868D1204B1F4A1B68D2
:103260000133136043E000BF744A0020B8510020CE
:10327000784A00206852002064530020586C0100F6
:10328000646C01008CFFFF1F786C0100806C0100F2
:1032900058FAFF1FE44E0020486D0100686D0100E0
:1032A000706D0100B44E0020BD37063A886C0100F5
:1032B0009C6C01003CFAFF1FA086010048FAFF1F2A
:1032C000340A0020605200208C510020FC4E002067
:1032D00030FAFF1F00520020F04E0020D85000208E
:1032E00058510020F45100200A2008F0C5FD0820A4
:1032F00008F078FD0028F7D09A4AD9F80030126813
:10330000B3FA83F10B2A4FEA5111D8BF00210029EB
:1033100040F05F86A3F10103B3FA83F30F2A4FEA6B
:103320005313D8BF0023002B40F053868E4807F07C
:103330005FFB01218C4806F081FD02218A4806F0DE
:1033400077FD00221146884806F06EFD08F01AFC51
:10335000864B844A1B68D2F800803060C31A0393FE
:10336000B8F10F0F00F29983DFE818F07E03DC015B
:103370004F05900261041201C2050703D8048901B8
:103380000E042502AB03AC005E001000784B042055
:1033900093F8008008F026FD8246032008F022FD05
:1033A0008346BAF1000F40F0B1862368714A0121CB
:1033B000132B117040F38E870133236008F101084D
:1033C000BBF1000F40F0A786DFF8C0A16949DAF829
:1033D00000200120132A087002DCC82008F04CFDF0
:1033E000B8F1090FC8BFDAF8002008F1FF38CCBFE8
:1033F00001320122B8F1FF3FCAF8002040F08D866B
:103400004FF03B085A4B5C49574883F8008007222D
:103410000AF08EF9564B1978092900F39C80FFF7C2
:10342000C3FC534B197896E0544B042093F800806A
:1034300008F0D8FC8246032008F0D4FC8346BAF199
:10344000000F40F0B18623684A4A0121132B117006
:1034500040F33A870133236008F10108BBF1000F04
:1034600040F0A786DFF824A14249DAF800200120C5
:10347000132A087002DCC82008F0FEFCB8F1090F1E
:10348000C8BFDAF8002008F1FF38CCBF01320122B2
:10349000B8F1FF3FCAF8002040F08D864FF01708C2
:1034A000364B3749304883F8008007220AF040F94C
:1034B000324B1978092998464DDCFFF775FC98F8CE
:1034C000001048E02F4B042093F8008008F08AFC9D
:1034D0008246032008F086FC8346BAF1000F40F0D4
:1034E000F5852368234A0121132B117040F3E686EA
:1034F0000133236008F10108BBF1000F40F0EB85B8
:10350000DFF888A01B49DAF800200120132A087090
:1035100002DCC82008F0B0FCB8F1090FC8BFDAF827
:10352000002008F1FF38CCBF01320122B8F1FF3F83
:10353000CAF8002040F0D1854FF03B08114B1249EA
:10354000094883F8008008220AF0F2F80D4B197838
:1035500009299846B1DD00230A2203480AF0C6F97A
:103560009BE200BFD8500020B8510020744A0020D0
:10357000FC4E0020F44E0020406D01008C510020D4
:10358000386D0100605200202C6D01002052002097
:1035900005F08EFCDFF8E88283460420C8F800B00E
:1035A00008F020FC0490032008F01CFC049B8246D9
:1035B000002B40F044852368A6490120132B087096
:1035C00040F37686013323600BF1010BBAF1000F53
:1035D00040F03A85DFF8ACA29E49DAF800200120DD
:1035E000132A087002DCC82008F046FCBBF1090F62
:1035F000C8BFDAF800200BF1FF3BCCBF013201223B
:10360000BBF1000FCAF8002040F32485BBF1200F66
:10361000A8BF4FF0010BD8F80030DFF86C825B4593
:10362000C8F800B01DD0306805F066FC83463068ED
:1036300005F01AFC8246306805F028FC05903068D9
:10364000D8F8008005F046FC0490306805F066FC70
:10365000049B009301904346059A51465846FEF755
:1036600015FA04227C497D480AF062F808F08AFACB
:1036700005F01EFC014679480AF06EF80DE2784B21
:103680000420D3F8008008F0ADFB8246032008F048
:10369000A9FB8346BAF1000F40F0588523686D4AB4
:1036A0000121132B117040F3FD850133236008F1D4
:1036B0000108BBF1000F40F04E85DFF8C8A1654955
:1036C000DAF800200120132A087002DCC82008F074
:1036D000D3FBB8F1090FC8BFDAF8002008F1FF38B2
:1036E000CCBF01320122B8F1000FCAF80020C0F2AD
:1036F0003885B8F1060FA8BF4FF00008594B584A5B
:1037000053F82800C2F800800BF04CFC56490BF02F
:1037100051FD0AF0F1FF02460B46504853490AF0AA
:10372000D7F8BAE1524B0420D3F800B008F05AFBA6
:103730000490032008F056FB049B8246002B40F0C7
:103740002485236843490120132B087040F3A48586
:10375000013323600BF1010BBAF1000F40F01A8521
:10376000DFF820A13B49DAF800200120132A087075
:1037700002DCC82008F080FBBBF1090FC8BFDAF8F3
:1037800000200BF1FF3BC8BF02F10108BBF1000FA5
:10379000CAF8008040F30485BBF5616FC8BF4FF0E5
:1037A000010B334B33492D48C3F800B0042209F014
:1037B000BFFF2F4B71E305222F49284809F0B8FFBE
:1037C0000420D9F8008008F00DFB8246032008F0A1
:1037D00009FB8346BAF1000F40F04E8423681D4A6E
:1037E0000121132B117040F351850133236008F13F
:1037F0000108BBF1000F40F04484DFF888A01549B0
:10380000DAF800200120132A087002DCC82008F032
:1038100033FBB8F1090FC8BFDAF8002008F1FF3810
:10382000CCBF01320122B8F1000FCAF80020C0F26B
:103830002E84B8F1010F40F33184C9F800500F48CD
:10384000FDF720F8D9F80030012B40F0268100F078
:1038500021BC00BFF44E0020D46C0100B851002000
:1038600030FAFF1F14FAFF1F00007A44F46C0100C5
:103870003CFAFF1FFC6B0100006D0100086D0100A8
:103880008851002020520020F851002005F046FB0E
:10389000DFF8E08283460420C8F800B008F0A2FAFE
:1038A0000490032008F09EFA049B8246002B40F00F
:1038B000AA832368A8490120132B087040F3E084F1
:1038C000013323600BF1010BBAF1000F40F0A0832C
:1038D000DFF8A4A2A049DAF800200120132A08701A
:1038E00002DCC82008F0C8FABBF1090FC8BFDAF83B
:1038F00000200BF1FF3BCCBF01320122BBF5FA6F78
:10390000CAF80020C0F28A8340F634039B45C8BF42
:103910004FF4FA6BD8F80030DFF860825B45C8F8E6
:1039200000B01CD0306805F0E7FA8346306805F037
:103930009BFA8246306805F0A9FA0590306805F0D8
:10394000B7FA0490306805F0C5FAD8F80030059A47
:103950008DE809005146049B5846FEF797F805226A
:103960007E497F4809F0E4FE08F00CF905F0D6FA2C
:1039700001467B4809F0F0FE8FE005F075FADFF8AC
:10398000008283460420C8F800B008F02BFA0490A7
:10399000032008F027FA049B8246002B40F0C483E2
:1039A00023686D490120132B087040F363840133B1
:1039B00023600BF1010BBAF1000F40F0BA83DFF87E
:1039C000B8A16549DAF800200120132A087002DC4A
:1039D000C82008F051FABBF1090FC8BFDAF800207F
:1039E0000BF1FF3BCCBF01320122BBF1000FCAF843
:1039F0000020C0F2A483BBF13C0FA8BF4FF0000B26
:103A0000D8F80030DFF87C815B45C8F800B01DD0E5
:103A1000306805F071FA83463068D8F8008005F008
:103A200035FA8246306805F043FA0590306805F0B3
:103A300051FA0490306805F071FA049900910190F0
:103A4000059B524641465846FEF720F80722454955
:103A5000434809F06DFE08F095F805F005FA0146B7
:103A60003F4809F079FE18E0DFF8EC8098F8003064
:103A7000002B40F0F6830A223B49394809F058FEF2
:103A8000042008F0AFF98046032008F0ABF9B8F144
:103A9000000F02D1002800F0C783FEF72DF808F0D0
:103AA00071F8FFF7F3F92E4807F0DEF90A2008F065
:103AB000E3F9039BB3F5167F7FF7CAAB07B0BDE808
:103AC000F08F2A4B042093F8008008F08BF982468F
:103AD000032008F087F98346BAF1000F40F04583D0
:103AE00023681D4A0121132B117040F38883013391
:103AF000236008F10108BBF1000F40F03B83DFF8C1
:103B000078A01549DAF800200120132A087002DC99
:103B1000C82008F0B1F9B8F1090FC8BFDAF80020E1
:103B200008F1FF38CCBF01320122B8F1FF3FCAF8DB
:103B3000002040F021834FF017080C4B0C49084837
:103B400083F80080082209F0F3FD084B1978092951
:103B500098463FF700ADB0E4F44E0020C46C01007D
:103B6000B8510020E46C0100A06C0100340A002070
:103B7000206D0100245200202052002068510020B6
:103B80006C510020EC4E0020DFF84C83042098F8A4
:103B900000B008F027F90490032008F023F9049BF3
:103BA0008246002B40F081822368C2490120132BFA
:103BB000087040F31F83013323600BF1010BBAF14E
:103BC000000F40F07782DFF814A3BA49DAF800203A
:103BD0000120132A087002DCC82008F04DF9BBF15F
:103BE000090FC8BFDAF800200BF1FF3BCCBF013250
:103BF0000122BBF1000FCAF8002040F36182BBF143
:103C0000080F40F360824FF0010B0522AA49AB4830
:103C100088F800B009F08CFD98F80010A748002340
:103C20000A2209F063FEA54809F010FE35E705F009
:103C300051F9DFF8AC8283460420C8F800B008F0E0
:103C4000D1F80490032008F0CDF8049B8246002BA5
:103C500040F0E781236897490120132B087040F357
:103C6000C482013323600BF1010BBAF1000F40F065
:103C7000DD81DFF868A28F49DAF800200120132ADD
:103C8000087002DCC82008F0F7F8BBF1090FC8BFC4
:103C9000DAF800200BF1FF3BCCBF01320122BBF16F
:103CA000000FCAF8002040F3C781BBF10D0FA8BF79
:103CB0004FF0010BD8F80030DFF828825B45C8F8D8
:103CC00000B01DD0306805F017F98346306805F064
:103CD000CBF88246306805F0D9F80590306805F0D9
:103CE000E7F804903068D8F8008005F017F9CDF8AF
:103CF00000800190049B059A51465846FDF7C6FE88
:103D000006226F496D4809F013FD07F03BFF05F0EF
:103D1000E1F80146694809F01FFDBEE605F0B6F876
:103D2000DFF8C48183460420C8F800B008F05AF8D0
:103D30000490032008F056F8049B8246002B40F0C4
:103D40008D8123685B490120132B087040F3488262
:103D5000013323600BF1010BBAF1000F40F08381B6
:103D6000DFF878A15349DAF800200120132A0870FF
:103D700002DCC82008F080F8BBF1090FC8BFDAF8F0
:103D800000200BF1FF3BCCBF01320122BBF1000F41
:103D9000CAF80020C0F26D81BBF13C0FA8BF4FF004
:103DA000000BD8F80030DFF844815B45C8F800B05C
:103DB0001DD0306805F0A0F88346306805F054F84F
:103DC00082463068D8F8008005F072F805903068B7
:103DD00005F080F80490306805F0A0F8049A00928D
:103DE0000190059B424651465846FDF74FFE07227B
:103DF0003449324809F09CFC07F0C4FE05F046F84F
:103E000001462E4809F0A8FC47E62F4B0420D3F8C2
:103E1000008007F0E7FF8246032007F0E3FF8346B8
:103E2000BAF1000F40F0E1802368224A0121132BF0
:103E3000117040F3D0810133236008F10108BBF118
:103E4000000F40F0D780DFF894A01A49DAF800207C
:103E50000120132A087002DCC82008F00DF8B8F120
:103E6000090FC8BFDAF8002008F1FF38CCBF0132D3
:103E70000122B8F1000FCAF80020C0F2C180134B34
:103E80009845C8BF4FF000080F4B11490B48C3F8C5
:103E90000080042209F04CFC0B4B1968074809F01C
:103EA0005BFC01220B49054809F042FC034809F07C
:103EB000CDFCF2E5F44E0020186D0100B851002051
:103EC000CC6C0100EC6C010048FAFF1F805101002E
:103ED000BC6C0100B86C010038FAFF1F20520020B2
:103EE0005C520020205100202C5200201C51002048
:103EF00005F002F8DFF828B380460420CBF80080F4
:103F000007F070FF0490032007F06CFF049B8246CB
:103F1000002B40F0ED802368BB490120132B087073
:103F200040F354810133236008F10108BAF1000F16
:103F300040F0E380DFF8E0A2B349DAF80020012086
:103F4000132A087002DCC82007F096FFB8F1090FA9
:103F5000C8BFDAF8002008F1FF38CCBF01320122D7
:103F6000B8F1000FCAF80020C0F2CD80B8F1180FE8
:103F7000A8BF4FF00008DBF8003043451BD0306885
:103F800004F072FF8346306804F080FF8246306898
:103F900004F08EFF0590306804F09CFF04903068B8
:103FA00004F0BCFF049900910190059B52465946CC
:103FB0004046FDF76BFD05229449954809F0B8FB92
:103FC00007F0E0FD04F098FF0146914809F0C4FBBA
:103FD00063E5904B1D60FFF7A9B9204603F09AFDF9
:103FE00000287FF4E2A8FFF74EB82560BBF1000F70
:103FF0003FF429AF884BB8F1000F1D60BFF63FAF0B
:10400000DFF8208240E72560BAF1000F3FF460AC92
:10401000814BBBF5FA6F1D60BFF676AC40F6340BF2
:1040200078E42560BAF1000F3FF423AE7A4BBBF180
:10403000000F1D603FF739AE4FF00C0B3AE62560DC
:10404000BAF1000F3FF4C6AA734BBBF1000F1D601D
:104050003FF7DCAA4FF01F0BFFF7DDBA2560BAF17E
:10406000000F3FF47DAE6C4BBBF1000F1D60BFF63F
:1040700093AE4FF03B0B94E62560BBF1000F3FF48D
:10408000BCAB654BB8F1000F1D60BFF6D2AB01238E
:10409000C9F800306148FCF7F5FBFEE4C9F8008080
:1040A000B8F1000F3FF4CBABF4E72560BAF1000F95
:1040B0003FF489AD584BBBF1000F1D603FF79FAD3A
:1040C0004FF0080BA1E55FFA8BFB9EE52560BBF185
:1040D000000F3FF415AA504B1D60B8F13B0F03DDF4
:1040E0004FF00008FFF72ABA5FFA88F8FFF726BA00
:1040F0002560BAF1000F3FF41DAF474BB8F1000F38
:104100001D60BFF633AF4FF0170834E72560BBF1F1
:10411000000F3FF459A9404B1D60B8F13B0F11DD72
:104120004FF00008FFF76EB92560BAF1000F3FF4B9
:1041300046AC394BBBF1000F1D60BFF65CAC4FF0D5
:104140003B0B5DE45FFA88F8FFF75CB92560BBF1D3
:10415000000F3FF4B2AA304BB8F1000F1D60BFF65C
:10416000C8AA4FF00508FFF7C9BA2560BBF1000FD8
:104170003FF4C5AC284B1D60B8F1170F02DD4FF0BE
:104180000008DAE45FFA88F8D7E42560BAF1000F96
:104190003FF4E6AA204BBBF1000F1D603FF7FCAADD
:1041A0004FF4616BFFF7FDBA2560BBF1000F3FF4E0
:1041B00059A9194B1D60B8F1170F03DD4FF0000826
:1041C000FFF76EB95FFA88F8FFF76AB9C82007F001
:1041D00053FE3B68A6E6C82007F04EFE3B682AE681
:1041E000C82007F049FE3B68B2E5C82007F044FE4E
:1041F0003B6836E5C82007F03FFE3B68DBE4C8209B
:1042000007F03AFE3B6872E4F44E0020DC6C0100DB
:10421000B8510020D850002020520020106D01001D
:10422000040A002080510100FDF750FCFDF756FF05
:104230002B48FCF727FB2B4806F016FE40F2DC501B
:1042400007F01AFEFDF758FC07F09CFCFEF71EFE77
:10425000244806F009FE0A2007B0BDE8F04F07F039
:104260000BBEFDF73BFF88F8005007F08BFC1E4BA0
:10427000186000E4C82007F0FFFD3B68FFF797BB1C
:10428000C82007F0F9FD3B68FFF71ABBC82007F00C
:10429000F3FD3B68FFF7A9BAC82007F0EDFD3B68C6
:1042A000FFF756BAC82007F0E7FD3B68FFF7FDB9F6
:1042B000C82007F0E1FD3B68FFF784B9C82007F08C
:1042C000DBFD3B68FFF714B9C82007F0D5FD3B685C
:1042D000FFF7C0B8C82007F0CFFD3B68FFF76CB808
:1042E000AC6C0100B8510020744A00202DE9F04F59
:1042F0008FB072B6A649A74BA74841250E2480224D
:104300000D70047019461A700B78A24A1806FBD576
:10431000A249A34B0D78A34CA3481D700339247800
:1043200000780978D9705C70987062B672B6984956
:10433000994C41260F2580200E7025701146107073
:104340000A781206FCD5954C96489749974A2478E6
:10435000007809781278DA711C715871997162B617
:10436000934B944F944E00240F2115220A254FF0B1
:1043700014084FF4FA705960DA601D60C3F80880C1
:1043800007F07AFD3C60642007F076FD4FF430536F
:104390003B60642007F070FD4FF434533B606420B1
:1043A00007F06AFD23462A463168844809F09EFAE0
:1043B000824809F04BFA4FF47A7007F05DFD23460E
:1043C0002A4631687D4809F091FA7C4809F03EFAA6
:1043D0004FF47A7007F050FD2A462346316877483B
:1043E000774D09F083FA754809F030FA754801F005
:1043F00015FA2146102007F003FD204607F086F845
:104400000121022007F0FCFC0121022007F0C6FC7C
:104410000121052007F0F4FC0121052007F0BEFC76
:104420004FF4FA6007F028FD2146052007F0B6FC9E
:10443000654B0122214605201A7007F0AFFC634B43
:10444000634C1B680021012B4FF0040008BFC4F827
:10445000008007F0D5FC0021032007F0D1FC0021EB
:10446000082007F0CDFC0121042007F097FC012172
:10447000032007F093FC0121082007F08FFC07F0D0
:1044800081FB544B2860984202DC534807F080FBC4
:1044900001233C2202215148514E06F0DBFB8C20C7
:1044A00007F0EAFC4D4806F0A3FA01214B4805F05D
:1044B000C5FC0221494805F0BBFC002211464748D3
:1044C00005F0B2FC0A224749444809F031F9434853
:1044D00009F0BCF9414806F0C7FC404806F088FAEC
:1044E00001213E4805F0AAFC02213C4805F0A0FC51
:1044F00000221146394805F097FC0A22394937480D
:1045000009F016F9354809F0A1F9344806F0ACFC79
:104510000721354801F036FC06F58C670E2132483C
:1045200001F08EFC384606F26C414FF038430A2207
:1045300003F0ECFB00285DD11C212C4808F036FC70
:104540001E4809F083F9254806F052FA0121234854
:1045500005F074FC0221214805F06AFC0022114696
:104560001E4805F061FC122221491C4809F0E0F8C0
:104570001A4809F06BF907F005FBFEF787FC1748AE
:1045800006F072FC4FF47A7007F076FCDBE700BFB0
:104590000700024000000240060002400B000240FB
:1045A000405100200A000240090002400800024079
:1045B0005851002010D0034000D003408CFFFF1F53
:1045C000F04E00204C530020FD4E002050510020A2
:1045D00004FAFF1F7FC1855680C18556B85100205F
:1045E000784A00207C6D010058FAFF1F486D0100D9
:1045F000886D010006F23C40376001F0E3FC0121C8
:10460000304603F087FA0146002800F026819F4FCC
:1046100007F23C463046394601F00CFF00288BD0AB
:1046200097F83C3413F0700F86D0994B99481E6070
:104630006E2108F00FFDFEF795FC974A974BD2F8D4
:104640000080DFF8B09253F828000AF0ABFCC9F8FC
:1046500000004046FEF71CFB304601F0B3FC394633
:1046600030460EAF01F0E6FE8D4B47F8343D002397
:1046700031468DF814308DF815308DF808308DF8EE
:104680001030884A462305A84FF47A76039601F045
:1046900051FE9DF81430002B40F0EB808248834F90
:1046A000DFF854A206F0A4F901217F4805F0C6FB0B
:1046B00002217D4805F0BCFB002211467A4805F036
:1046C000B3FB3B683C2B0BDDB3F5967F4FF03C0210
:1046D000C8BF4FF49673CAF80020C8BFCAF80030AC
:1046E00007F050FADFF814827149DAF80030714EA1
:1046F000D8F80020096890FBF3FE286003FB0E3316
:104700006D48336001291344036000F0AD8010460A
:104710000AF048FCD9F80010DFF8E4A1DFF8E4B1B2
:104720000AF094FC4FF06E510AF090FC4FF0745177
:104730000AF08CFC09F0E0FF09F06AFD00225F4BF3
:104740000AF02EF80AF0DCFA21683A685C4BCAF8E5
:104750000000521A22EAE27983FB09234B444FEA14
:10476000E970C0EBE32009F0B5FF09F0D9FD0AF0CC
:10477000C7FA544C544BCBF8000004FB009483FB65
:1047800004232344E017C0EB631009F0A3FF09F0F2
:10479000C7FD0AF0B5FADFF870A1DFF87091A0EB61
:1047A000001204EB8204034610214848C9F8003087
:1047B000CAF8004008F0FAFADBF80010444808F0A4
:1047C000CBFFD9F80010424808F0C6FFDAF8001015
:1047D0003F4808F0C1FF3E4809F038F808213D483D
:1047E00008F0E4FAD8F80010394808F0B5FF384866
:1047F00009F02CF80821384808F0D8FA396834480C
:1048000008F0AAFF324809F021F80E21334808F0D9
:10481000CDFA2868FDF724FB0C21314808F0C6FAD0
:104820003068FDF71DFB33682C682E481C1B1521D2
:1048300008F0BCFA2146264808F08EFF244809F00B
:1048400005F82949294B00204FF0FF3208601A6013
:10485000FCF7BEFD0FB0BDE8F08F304603F05AF90B
:1048600000287FF4D4AE67E6FDF740FBD8F80020BF
:104870004DE729221E4905A801F0E6FF384608F059
:10488000E5FF05A801F09EFB08E700BF784A00207D
:10489000645300200082FF1F30FAFF1F14FAFF1F2D
:1048A000686A0100DC6A0100B851002048FAFF1F65
:1048B000F4510020F84E00204851002000004040F4
:1048C000C5B3A291F0F1FFFF898888889C6D010033
:1048D0008CFFFF1FB06D0100BC6D0100C86D0100B1
:1048E000D86D0100E86D0100080A00202852002060
:1048F000546B01000452002034FAFF1F3CFAFF1FE2
:10490000F05100206C0A0020085200204C51002079
:104910002DE9F041A04D2C682CB1012C00F09B80BA
:1049200030BFBDE8F08107F02DF99C4FDFF8DC8245
:1049300038609B489B4E06F05BF80121984805F0D3
:104940007DFA0221964805F073FA224621469448E2
:1049500005F06AFA0A229449914808F0E9FE904865
:1049600008F074FF01218E4805F062FA12222146F8
:104970008B4805F059FA05228C49894808F0D8FE81
:10498000D8F800108648013108F0E6FE0122884977
:10499000834808F0CDFED8F80020864B804853F8B5
:1049A000221023460A2208F0A1FF28213068FEF7D2
:1049B00001FA3868FEF76AFA794806F055FA326863
:1049C0003B68511E994208DCDFF8448298F80010D9
:1049D00019B17949096800297BD19A4237DC774FB0
:1049E0003C68002C5AD00D217548764C08F0DEF951
:1049F000754808F02BFF754B754A764930681B687F
:104A00001268096803441A4401293260236000F0E7
:104A100052810E21704808F0C9F907F0B3F8FDF78C
:104A20001FFA0B216D4808F0C1F92068FDF718FA4C
:104A30000B216B4808F0BAF93068FDF711FA012331
:104A4000AE2157482B6005F0DBFFFCF757FC2C68C4
:104A5000012C7FF465AFFCF799F8042007F0C2F948
:104A60000446032007F0BEF914B9002800F0D480F2
:104A70005C4C5D4B22681B689A42FFF651AF544B69
:104A80001E68002E36D1594801F09CFAFCF7A0FCB4
:104A9000FCF746F9266030BFBDE8F0810A21544892
:104AA00001F03EF82146524800F012FE0E21504817
:104AB00000F00EFE21464E4800F00AFE0A214C4846
:104AC00000F006FE4A4801F03DF84FF0FF333B602E
:104AD00089E70121052007F061F9C82007F0CCF92A
:104AE0002146052007F05AF901213B68326888F811
:104AF000001072E7FCF7FAF8FCF76AFC294B3D4E10
:104B00001C683D4F07F03EF83C4A3D4B1268201AA6
:104B1000841A24EAE47483FB04232344E017C0EBE3
:104B2000E32009F0D7FD09F0FBFB0AF0E9F8354B6B
:104B3000354A306003FB004482FB04322244804645
:104B4000E017C0EB621009F0C5FD09F0E9FB0AF0BF
:104B5000D7F80201131A821A04EB82049B004FF467
:104B6000616202FB08333C60DFF8A8801C44092C1A
:104B7000C8F8000000F3A5800F4B1B68002B40F025
:104B80009D8001233C220221054806F063F80023A2
:104B90002B6030BFBDE8F081080A0020F04E0020F5
:104BA000B8510020F84E0020006E0100786C010022
:104BB000986C01000C52002050510020700A002017
:104BC0000C6E0100485100208CFFFF1F3CFAFF1FB4
:104BD00048FAFF1FF4510020C86D01001C6E01004F
:104BE000286E0100004F0020F0510020480A0020EC
:104BF0004C5300206C0A00200852002004FAFF1FCA
:104C0000C5B3A291F0F1FFFF898888886452002023
:104C1000FD4E00204C5100203D4B3E4C1B683E4D4C
:104C20003E485B02002203F124061146A362A5F868
:104C3000B421666001F018FD21462C22374801F0AE
:104C400003FE364801F0BEF9354B1B6883BB0123D8
:104C50003C220221334805F0FDFF642007F00CF9E7
:104C6000304805F0C5FE01212E4805F0E7F8022185
:104C70002C4805F0DDF8002211462A4805F0D4F84A
:104C800007222949274808F053FD264808F0DEFD91
:104C90000121244805F0CCF810222449214808F0CD
:104CA00047FD204808F0D2FD1E4806F0DDF8FEE77B
:104CB000FCF70CFCCBE7FDF719F9AAE6FCF7F0FBD3
:104CC0005FE7174C0021022007F068F8FDF734FD7C
:104CD00023680BB1FCF7FAFB642007F0CDF83B78B2
:104CE00098F800203178124803F056FF114803F07D
:104CF0001BFD0121022007F051F84FF4967007F0D8
:104D0000BBF823680BB1FCF7B7FBFDF749FD38E7AB
:104D1000004F002078520020044F0020480A002055
:104D200050510020B8510020346E01003C6E01004B
:104D3000DC5000200C0A0020002070470020704743
:104D400038B50F29114C28BF0F210F2A28BF0F2279
:104D50000D46017A204642EA051500F00BFE20467A
:104D6000002100F0B5FC2046202100F0B1FC2046D7
:104D7000002100F0ADFCE9B2204600F0A9FC20467D
:104D800000F0E0FEB0FA80F0400938BD4C5300203E
:104D9000F8B5C34C012605460671204600F03EFDDD
:104DA000052007F069F8297A204600F0E3FD204647
:104DB000002100F08DFC2046302100F089FC2046C7
:104DC000402100F085FC6021204600F081FC204657
:104DD00000F0B8FE297A204600F0CCFD20460021E4
:104DE00000F076FC2046262100F072FC20460021CF
:104DF00000F06EFC6C21204600F06AFC204600F0BA
:104E0000A1FE297A204600F0B5FD2046002100F0E1
:104E10005FFC2046282100F05BFC3146204600F074
:104E200057FCF221204600F053FC204600F08AFE99
:104E3000297A204600F09EFD2046002100F048FC23
:104E400020462C2100F044FC20460F2100F040FCBD
:104E50002221204600F03CFC204600F073FE297A17
:104E6000204600F087FD2046002100F031FC20465E
:104E70003C2100F02DFC2046442100F029FC462175
:104E8000204600F025FC204600F05CFE40F237137F
:104E9000EB80297A204600F06DFD2046002100F0CD
:104EA00017FC2046242100F013FC3146204600F078
:104EB0000FFC3721204600F00BFC204600F042FE9C
:104EC000297A204600F056FD2046002100F000FC23
:104ED0002046302100F0FCFB2046402100F0F8FB8A
:104EE000FF21204600F0F4FB204600F02BFE297A3B
:104EF000204600F03FFD2046002100F0E9FB20465F
:104F0000022100F0E5FB2046002100F0E1FB7321C7
:104F1000204600F0DDFB204600F014FE4FF4C87080
:104F200006F0AAFF297A204600F024FD2046002141
:104F300000F0CEFB20462E2100F0CAFB20461D21AA
:104F400000F0C6FB1D21204600F0C2FB204600F009
:104F5000F9FD297A204600F00DFD2046002100F0E1
:104F6000B7FB2046042100F0B3FB2046002100F0EF
:104F7000AFFB0421204600F0ABFB204600F0E2FD31
:104F8000297A204600F0F6FC2046002100F0A0FB24
:104F90002046062100F09CFB3146204600F098FB9D
:104FA0003021204600F094FB204600F0CBFD297A0A
:104FB000204600F0DFFC2046002100F089FB20465F
:104FC0000A2100F085FB2046002100F081FB102122
:104FD000204600F07DFB204600F0B4FD297A2046F3
:104FE00000F0C8FC2046002100F072FB20460E2194
:104FF00000F06EFB2046002100F06AFB00212046F5
:1050000000F066FB204600F09DFD297A204600F066
:10501000B1FC2046002100F05BFB2046102100F08F
:1050200057FB20463C2100F053FB3C21204600F07A
:105030004FFB204600F086FD297A204600F09AFCBE
:105040002046002100F044FB2046222100F040FBD6
:1050500020467F2100F03CFB7F21204600F038FBFA
:105060003627204600F06EFD297AEF80204600F0BA
:1050700081FC2046002100F02BFB2046242100F07B
:1050800027FB2046002100F023FB3946204600F094
:105090001FFB204600F056FD6E723046F8BD00BF83
:1050A0004C5300200B462DE9F04145490546184672
:1050B00009F0CCFF434909F0C1FE0AF0B3F90446F8
:1050C00000284CD080281FD92B79002426462BBBE2
:1050D000297A3D4800F04EFC00213B4800F0F8FAE8
:1050E0002221394800F0F4FA3146374800F0F0FA4E
:1050F0002146354800F0ECFA334800F023FDB0FAC1
:1051000080F04009BDE8F081C0F180042B7944EAC9
:105110000424C4F30726E4B2002BD9D0EF88297AFF
:10512000294827F010074FF00008EF8085F8048029
:1051300000F020FC4146244800F0CAFA242122480D
:1051400000F0C6FA390A204800F0C2FA07F0EF0171
:105150001D4800F0BDFA1C4800F0F4FCB8E701233C
:105160002B71297A184800F005FC2146164800F0FA
:10517000AFFA2221144800F0ABFA7F21124800F068
:10518000A7FA7F21104800F0A3FA0F4800F0DAFCDC
:10519000EE88297A0C4846F01006B6B2EE8000F090
:1051A000E9FB2146084800F093FA2421064800F064
:1051B0008FFA310A044800F08BFAF1B299E700BF88
:1051C00000000143EE7CFF3E4C53002070B50546C5
:1051D0000C4619B101293BD0002070BD017A42482C
:1051E00000F0C8FB2146404800F072FA20213E48FA
:1051F00000F06EFA21463C4800F06AFA55213A4820
:1052000000F066FA384800F09DFC06460028E3D11D
:10521000EC88297A344844F00404A4B2EC8000F00D
:10522000A9FB3146304800F053FA24212E4800F003
:105230004FFA210A2C4800F04BFAE1B22A4800F05C
:1052400047FA294800F07EFCB0FA80F0400970BDB2
:10525000017A254800F08EFB0021234800F038FA3F
:105260002A21214800F034FA21461F4800F030FA84
:1052700073211D4800F02CFA1B4800F063FC044623
:105280000028A9D1297A184800F074FB2146164855
:1052900000F01EFA2021144800F01AFA21461248A4
:1052A00000F016FA8821104800F012FA0E4800F0BB
:1052B00049FC044600288FD1EE88297A0A4826F056
:1052C0000406EE8000F056FB2146074800F000FA85
:1052D0002421054800F0FCF9310A034800F0F8F9F0
:1052E00006F0FB01AAE700BF4C53002010B50446AE
:1052F00008F094F8204610BD024A034903480AF01A
:105300005FBA00BFFCF9FF1FED520000A45200205D
:105310001B4A1C4B11681C48096970B499421279E8
:10532000027009D2194A127832B3194A4FF08041FB
:10533000116003F5807402E01C46A3F58073154AE2
:10534000154912680D68AAB1A5B1144E30884028DD
:1053500010D841000A4440302944023202313080E2
:1053600033F9040B22F8020F9C4233F9020C21F8A6
:10537000020FF5D870BC704703F58074DFE700BFFB
:10538000B4520020B8F2FF1F1F800040AE52002030
:1053900008E200E0BC520020B0520020AC520020D5
:1053A000F8B5064607F086FE0446E8B107F082FE2F
:1053B000054600283AD072B61F4B1A887F2A19D8A2
:1053C000002C31D01D490A6842B162B6204607F070
:1053D000C5FE2846BDE8F84007F0C0BE18480C607E
:1053E0001A80056062B6F8BD054672B6124B1A887F
:1053F0007F2AE5D9114A12491768146000220C6807
:105400001A800D6062B63946304607F0D1FE384644
:1054100007F0A4FE30462146012207F0C9FE2046CF
:10542000BDE8F84007F09ABE62B6F8BD204607F026
:1054300095FE2C46BFE700BFAC520020BC520020B6
:10544000B0520020F8B5284C284E2046012107F024
:1054500047FF00F083F8264B264A27484FF4806127
:105460001960236800211A6099802279186102F17D
:10547000804202F5043240F20110D8809E614FF460
:105480008075022006278E26DD82D960DD83986034
:105490009F8398821170167007F0C8FE1749184B49
:1054A0002279184F08701A7039682279164C174DF6
:1054B000174E41F0124141F00101531139609B0038
:1054C000206803F1604302F1100703F5614302F025
:1054D0001F02012140F0104001FA02F2206045F85D
:1054E00027601A60F8BD00BFB452002000FEFFFF25
:1054F00014B00440A0F00240B8F1FF1FAE520020EB
:105500001B80004080F0024000F0024000F4FF1FCA
:1055100011530000024A034903480AF051B900BF81
:10552000FCF9FF1FED520000B4520020024A03496B
:1055300003480AF045B900BFFCF9FF1FED52000017
:10554000C0520020024A034903480AF039B900BF9B
:10555000FCF9FF1FED520000C8520020284B2949DA
:105560001A68294842F400421A600A6842F00202AE
:105570000A601A6842F002021A600368002B3DDBE1
:10558000224B1B68002B39DB214A4FF08643136006
:105590001368002BFCDBF0B51E4C1F48DFF8ACE0B5
:1055A0001E491F4B1F4A204F204E214D41F2100C27
:1055B000C4F800C0002404600120CEF80000DFF829
:1055C00090E0C1F800E04FF480311960194B13608E
:1055D000DFF880E0184A3A60346028601748CEF857
:1055E0000000174CB9671748174946F8503C4FF46C
:1055F000C0632A61236003600B60F0BD704700BF89
:105600003C8004404080044000F0024080F00240B2
:1056100000F1024004F1024060F0024008F0024054
:105620000CF0024010F0024014F00240E0F00240A2
:1056300084F002401B0F0100000F0F0F0300004712
:1056400008B004400CB0044018B0044004F002401C
:105650000300000788F00240024A034903480AF0A9
:10566000AFB800BFFCF9FF1FED520000D052002080
:10567000024A034903480AF0A3B800BFFCF9FF1F20
:10568000ED520000D8520020024A034903480AF0B4
:1056900097B800BFFCF9FF1FED520000E052002058
:1056A000024A034903480AF08BB800BFFCF9FF1F08
:1056B000ED520000E8520020024A034903480AF074
:1056C0007FB800BFFCF9FF1FED520000F052002030
:1056D0000A4B1B7813B90A4B1B786BB1094A137834
:1056E000202B07D810B4581C074C1070E15401202F
:1056F00010BC704701230371002070475E530020E7
:10570000215300205F53002000530020704700BF4A
:10571000024A034B10781B78C01A70475D53002073
:105720005C530020064A074913780978994204D946
:105730000548591CC05C117070474FF0FF3070472E
:105740005C5300205D53002024530020054B064A83
:105750001B7812789A4286BF044AD05C4FF0FF3023
:10576000704700BF5C5300205D530020245300208D
:1057700070B50D4B1B78144613B90C4B1B788BB1CD
:105780000B4E3578C5F12103A34202D201221C46FB
:105790000271084822462844254405F00BFD357067
:1057A000204670BD184670BD5E5300202153002076
:1057B0005F53002000530020124BDB7803F02003DE
:1057C0004BB1114A13780133DBB2012B137012D99C
:1057D000122006F093B910B5122003F0FF0406F072
:1057E0008DF90A4B1B685BB109490A4A0C701078A5
:1057F000BDE810401847084B1B78002BE8D07047D5
:1058000010BD00BF0060064048530020FC5200203D
:105810005C5300205D530020215300200D4A0E4BA5
:10582000F0B500200D4C10702268DFF838E00C4F06
:1058300042F0400222604FF41971272604252024EB
:1058400080229870CEF8001039605E709D715C7196
:105850009A70F0BD2153002000600640348004405F
:1058600008A004400CA0044010B5384CE378DBB22B
:10587000D80623D510225906E2701ED503F0040382
:1058800003F0FF02002B33D0314B32491A68324CFF
:1058900000230B702370002A3BD090472378002B05
:1058A00037D02E4B1B78294A2D49D0249470137180
:1058B000264B012002220870DA7010BD5A06DDD492
:1058C000A27802F0100202F0FF0042B313F00103CD
:1058D0001BD1234920480A780078904281BF1F4B92
:1058E000501C9B5C08702371184BD0229A7008E002
:1058F0001C48164B174902700120C02208709A708C
:105900001B79124B0222DA7010BDC023A3702379D9
:10591000F7E71249002301220B702270C3E7124BF4
:10592000124918700322122006F068F80D492379F5
:105930000A781F2ADBB2E4D8064800780028E0D0B5
:105940000B4C501CA3540870DBE700BF00600640FE
:1059500044530020F85200205F53002000530020E1
:10596000605300205D53002048530020B9570000C9
:10597000245300200548064A10B40123054C037047
:1059800049001370217010BC704700BF5E530020A7
:105990005F530020005300202DE9F043594C12239F
:1059A000E370A37803F0200383B0002B55D0B42319
:1059B000DFF86881A370D8F80030524D1C460020F3
:1059C000EA78D2B29A421CBF1446012096061346CA
:1059D000F6D5002840F08C804B4B1B78002B33D041
:1059E00003F1FF3E5FFA8EFE0026D8F80040474FD5
:1059F000444D0EF1010E30464FF0020C17F8013FF6
:105A00002B715FFA86F902E013F0200F09D0EB78D2
:105A1000DBB293421CBF1C46012013F0020F1A4652
:105A2000F2D085F803C0EA78D2B293421CBF144684
:105A30000120D30633D4930631D5D30744D401369D
:105A40007645DBD100284AD1002000292ED1304BE9
:105A500000221A7003B0BDE8F0832E4DDFF8BC8041
:105A600003F0FF022B680093009ED8F8000005E0C9
:105A70002B680193019B9B1B0F2B1BD8E378DBB298
:105A8000834218BF012213F0200F1846F0D192BBB9
:105A900021481C4B0024B02204709A708BE708BB8D
:105AA000184B80229A7004200029D0D0154B8022F8
:105AB0009A70CCE7CAB9134B002180220420997058
:105AC0009A7003B0BDE8F083C0B90E4BB9F1000F76
:105AD0004FF080020CBF022003209A70B7E7C8F88D
