:1000000000800020BD010000C18900007989000046
:1000100079890000798900007989000079890000D8
:10002000798900007989000079890000C189000080
:10003000C1890000798900009DA20000A1A30000F1
:10004000C1890000C1890000C1890000C189000088
:10005000C1890000C1890000C1890000C189000078
:10006000C1890000C1890000C1890000C189000068
:10007000C1890000C1890000C1890000C189000058
:10008000C1890000C1890000C1890000C189000048
:10009000C1890000C1890000C1890000C189000038
:1000A000014E0000C1890000C1890000C189000023
:1000B000C1890000C1890000C1890000C189000018
:1000C000C1890000C1890000C1890000C189000008
:1000D000C1890000C1890000C1890000C1890000F8
:1000E000C1890000C1890000C1890000C1890000E8
:1000F000C1890000658F0000C189000025A80000AB
:10010000C189000051A90000C1890000C189000017
:10011000C1890000C1890000C1890000C1890000B7
:10012000C1890000C1890000C1890000C1890000A7
:10013000C1890000C1890000C1890000C189000097
:10014000C1890000C1890000C1890000C189000087
:10015000C1890000C1890000C1890000C189000077
:10016000C1890000E1910000C1890000C18900003F
:10017000C1890000C1890000C1890000C189000057
:10018000C1890000C1890000C1890000C189000047
:10019000C1890000C1890000C1890000C189000037
:1001A000C1890000C1890000C1890000C189000027
:1001B000C1890000C189000059A00000564B4CF2D3
:1001C000205210B51A804DF628121A8000BF00BFC9
:1001D00000F08AFB514B4FF010621A60504A9A604F
:1001E000504ADA60504A136813F4807304D14F49BF
:1001F0000B604FF4A85313604D4B1A78110703D5C9
:100200001A7842F008021A704A4B4B492A221A7097
:100210004A4A4B4B8B4204D252F8040F43F8040B6A
:10022000F8E7484B484900228B4202D243F8042B9E
:10023000FAE74649464A002352F8230041F82300D2
:1002400001336F2BF8D1434B434A802103F8011B44
:100250009342FBD1414B3D4A1A60414B8A221A70AE
:10026000A3F5805324225A70A0221A709A7992071B
:10027000FCD59A79D406FCD43A4A937903F00C035E
:10028000082B384BF9D103221A7140225A719A79FE
:100290009006FCD5334A9179324B4906FBD5324A58
:1002A000324911600221516020221A709A7902F0BD
:1002B0000C020C2AFAD12E4B2E4A1A602E4B4BF60A
:1002C0007F321A6000225A60072243F8042C2B4A1E
:1002D000C3F80C2D62B608F057FD144B1B68DA0703
:1002E00005D5274808F0D6FC264B274A1A60274B2D
:1002F0001B785B0609D5234C234B22689A4204D114
:100300001F4808F0C7FC002323600CF0C5FD08F06F
:100310005BFB0AF0E5F9FEE70E2005403080044063
:10032000823F04000100002B10D0034014D0034092
:1003300002D0074000E00740E8FFFF1F184F02000F
:1003400020EFFF1FE8FFFF1F2014002000EAFF1F1F
:100350000000000000E400E05FE400E008ED00E0E1
:100360000050064000400640448004400000131145
:1003700004800440C010050014E000E000002020CC
:100380007558F45A1CE00340A5C3945A00F0074086
:10039000FFFFFFFFFFFFFFFFFFFFFFFFFFFFFFFF6D
:1003A000FFFFFFFFFFFFFFFFFFFFFFFFFFFFFFFF5D
:1003B000FFFFFFFFFFFFFFFFFFFFFFFFFFFFFFFF4D
:1003C000FFFFFFFFFFFFFFFFFFFFFFFFFFFFFFFF3D
:1003D000FFFFFFFFFFFFFFFFFFFFFFFFFFFFFFFF2D
:1003E000FFFFFFFFFFFFFFFFFFFFFFFFFFFFFFFF1D
:1003F000FFFFFFFFFFFFFFFFFFFFFFFFFFFFFFFF0D
:10040000FFFFFFFFFFFFFFFFFFFFFFFFDEF9FFFF23
:1004100010B5054C237833B9044B13B10448AFF33E
:1004200000800123237010BDE8FFFF1F00000000C3
:10043000144F0200084B10B51BB108490848AFF330
:1004400000800848036803B910BD074B002BFBD0A0
:10045000BDE81040184700BF00000000ECFFFF1F80
:10046000144F0200E8FFFF1F00000000002070474B
:10047000704700BF027C02F0080202F0FF0332B1B5
:10048000C36A406A181A48BF6FF0004070471846A8
:10049000704700BFF8B55548554D564C297803783C
:1004A0002278DFF868E1544F544E120442EA0323E5
:1004B000FF222A700270802022708EF800003870AF
:1004C000B2794F480B4312F00C0FC36002D1B379DD
:1004D000DC063DD4494A9379C3F38103032B40D012
:1004E000464B9A79C2F38102022A42D0434A937959
:1004F000C3F38103022B53D0404A9379C3F38103A2
:10050000022B61D03D4A9379C3F38103012B51D073
:100510003A4A9379C3F38103012B5CD0374B9A7924
:1005200012F00C0F03D19A79D20600D49B79354D85
:10053000354B2A7853F82240D4B1236820469B6873
:1005400098472B7804EB83046468002CF5D1F8BD40
:10055000B3799806EBD5294A9379C3F38103032B2A
:10056000BED19379D906BBD493799B06DFD4B7E784
:10057000F8BD9A79D706B9D49A799606B6D559783E
:1005800001F0020101F0FF020029AFD120211A7011
:100590001A461970937903F00C030C2BFAD1C6E7B5
:1005A0009379DD06A8D493799C06A5D4537898074F
:1005B000BDD5A1E79379DF06AAD593799E06A7D486
:1005C00053789D07B3D4A3E79379D9069AD4537887
:1005D0009B07ACD496E79379DC069FD59379980670
:1005E0009CD453789907A2D598E700BF06C007406E
:1005F00005C0074007C0074009C00740004006404B
:10060000F8130020CC1000208C10002008C00740F8
:1006100090F92410104B03604B1C06D0F0B40F4E21
:1006200056F82130984201D0F0BC70470C4F57F873
:10063000213033B18D0000245A1953685460002BC7
:10064000FAD1084C23780022013B237047F821207F
:1006500046F82120E8E700BF34410100AC1000203B
:100660008C100020CD10002038B590F924506B1C60
:100670001BD00E4B0E4953F825400E4BEDB24FF0F8
:10068000FF320D701A6084B1AD0002E02C44646842
:100690005CB194F82530002BF8D0236820462C4418
:1006A0001B6898476468002CF3D138BD8C1000207B
:1006B000CC10002090E9FF1F704700BF90F9241074
:1006C000104B03604B1C06D0F0B40F4E56F821308F
:1006D000984201D0F0BC70470C4F57F8213033B12D
:1006E0008D0000245A1953685460002BFAD1084C2D
:1006F00023780022013B237047F8212046F821206F
:10070000E8E700BF34410100AC1000208C1000204D
:10071000CD10002090F92410104B03604B1C06D024
:10072000F0B40F4E56F82130984201D0F0BC70471B
:100730000C4F57F8213033B18D0000245A195368FB
:100740005460002BFAD1084C23780022013B23701F
:1007500047F8212046F82120E8E700BF3441010096
:10076000AC1000208C100020CD100020083005F0C7
:100770007FB800BF103005F07BB800BF00B583B074
:1007800002AB012203F8011D1030194605F070F884
:1007900003B05DF804FB00BF00B583B002AB0122DB
:1007A00003F8011D0830194605F062F803B05DF842
:1007B00004FB00BF103004F07DBF00BF00B583B064
:1007C00001220DF10701103004F0AEFE01280CBF2C
:1007D0009DF807004FF0FF3003B05DF804FB00BF49
:1007E000103005F03FB800BF083005F03BB800BF3F
:1007F0002DE9F0410E46804608F046FA174D286074
:1008000006F070FE0746286806F05EFE044628687B
:1008100006F04CFE6401C0B204F4FF54BFB20443BE
:10082000A7F2BC7744EA4724A8F80040286806F0FD
:1008300013FE0746286806F01DFE0446286806F0E9
:1008400027FEFF02640107F4FF2704F4FF54C0F3FE
:1008500046003C4304433480BDE8F0816000002042
:1008600030B5164CADF5017D204604F033F84FF459
:10087000807501462A46684607F0A4FD204604F02C
:1008800047F8204604F026F82A4601460DEB0500FD
:1008900007F098FD204604F03BF869464FF40072DB
:1008A000074804F0E5FF0748074902680B68013272
:1008B000013302600B600DF5017D30BD2005002085
:1008C000640F002080070020BC0F002070B5044694
:1008D00008460D460DF014FA2368024629462046C4
:1008E0005B68BDE870401847404A414B10201080BB
:1008F0001B781B072CD5F0B53E4E3F4D3F4C317851
:100900002B7822783E4FDFF810E1824042EA032341
:100910000B43FF22802132702A7022708EF8001063
:100920003970DF07374A0CD51A239360364D374CA0
:100930003748384900232B70D360237003700B7045
:10094000F0BD1E0705D4DD0606D504239360EDE750
:10095000704721239360E9E79C0604D4590604D527
:1009600016239360E2E79060E0E71F0602D50923B3
:100970009360DBE7DE0502D50A239360D6E79D0589
:1009800002D50D239360D1E75C0502D50B2393605C
:10099000CCE7180502D51E239360C7E7D90402D51A
:1009A00002239360C2E79F0402D507239360BDE74B
:1009B0005E0402D506239360B8E71D0402D5152313
:1009C0009360B3E7DC0302D524239360AEE798037A
:1009D00002D522239360A9E7D90202D5252393608B
:1009E000A4E79B0244BF232393609FE700200540B8
:1009F00002D0074005C0074006C0074007C00740B7
:100A000009C00740F813002000C0074001C007409C
:100A100002C0074003C0074008C00740002976D045
:100A20002DE9F04F0C469100631883B05D68002DEE
:100A300057D06B185E68002E50D073185F68002F77
:100A400049D07B18D3F80480B8F1000F3CD008EBF4
:100A50000103D3F80490B9F1000F32D009EB010380
:100A6000D3F804A0BAF1000F27D00AEB0103D3F8A2
:100A700004B0BBF1000F18D00BEB01035B6863B14E
:100A8000194401934968FFF7C9FF019B93F825209A
:100A90001AB11A681846536898479BF8253023B155
:100AA000DBF8003058465B6898479AF8253023B148
:100AB000DAF8003050465B68984799F82530002BEB
:100AC00035D198F8253063BB97F825301BB13B68CA
:100AD00038465B68984796F82530CBB995F82530AD
:100AE00063B994F8253013B903B0BDE8F08F2368DB
:100AF0005B68204603B0BDE8F04F18472B682846D6
:100B00005B68984794F82530002BEDD0EFE77047ED
:100B1000336830465B68984795F82530002BE0D065
:100B2000ECE7D8F8003040465B689847CCE7D9F846
:100B3000003048465B689847C3E700BF90F924201F
:100B4000531C26D01B4B2DE9F04153F82240D2B262
:100B5000ECB19300E1184D68B5B1E9184E6866B183
:100B6000F1184F6837B13B445968FFF757FF97F8C2
:100B70002530A3B996F8253063B995F825301BB117
:100B80002B6828465B68984794F8253063B9BDE820
:100B9000F0817047336830465B689847EDE73B6803
:100BA00038465B689847E5E7236820465B68BDE800
:100BB000F04118478C10002008B5054803F058FE96
:100BC000012803DDBDE80840FFF74ABE08BD00BFAD
:100BD0002005002070B5124C124D13480D2109F06C
:100BE00033F8204609F0F8FB2E881048102109F050
:100BF0002BF83146204609F03FFC204609F0ECFB7B
:100C00000B4A0C4B12882A800B48002283F8F620EE
:100C100004F026FB6420BDE8704008F067B800BF10
:100C200088F5FF1F7C1200204C4101005C4101004F
:100C3000A412002020050020640F002070B58EB0A3
:100C40000EAD124B45F8343D00244623104A11499D
:100C50008DF8144005A84FF47A768DF815408DF87C
:100C600008408DF81040039604F0FEFB9DF8143008
:100C700053B12922084905A804F0FAFD284609F0D5
:100C8000ABFB05A804F0ECFA0EB070BDF840010013
:100C900070410100D4040020784101002DE9F047A3
:100CA000414C424D2268424855F822301021013B08
:100CB00045F8223008F0C8FF23683E4855F8231055
:100CC0000A22002309F098FB3A4809F085FB2368C3
:100CD00055F82320002A53D10133DFF8FC9023601C
:100CE0000122042B89F8002026D0DFF8E880324E5C
:100CF00008F58C6A314916F82320A1F10C004FF059
:100D0000384305F0C5FC00BB1E212D48264F08F0D6
:100D10009BFF21682748013109F0AEFB254809F007
:100D20005BFB236855F823200121013342BB042BD0
:100D30003B6089F80010DDD10E2222491D4809F0E0
:100D4000E3FC1C4809F048FBFEE71F4FC8F800A071
:100D5000384604F085FA0121A7F23C4005F04CFB2F
:100D60000146D8B1A7F23C41384604F0D7FB002831
:100D7000CAD098F83C3413F0700FC5D0134B1F60E5
:100D80000E21134808F060FF21680A48013109F07C
:100D900073FB0848BDE8F04709F01EBB0D4805F09D
:100DA0002BFB0028DED1AFE768000020B80600204A
:100DB000A441010088F5FF1F440F00200405002016
:100DC000D8410100B8410100D40400208410002063
:100DD000C841010098000020280F002010B5294CC0
:100DE00029482278114603F0ADFA23680F2B0CD85E
:100DF000DFE803F00C1014181C2024282C303438A1
:100E00003C404408214B224A1A6010BD1F4B214A26
:100E10001A6010BD1D4B204A1A6010BD1B4B1F4AA3
:100E20001A6010BD194B1E4A1A6010BD174B1D4A9F
:100E30001A6010BD154B1C4A1A6010BD134B1B4A9B
:100E40001A6010BD114B1A4A1A6010BD0F4B194A97
:100E50001A6010BD0D4B184A1A6010BD0B4B174A93
:100E60001A6010BD094B164A1A6010BD074B154A8F
:100E70001A6010BD054B144A1A6010BD034B134A8B
:100E80001A6010BD08F0FF1F8C0700202000002012
:100E9000BD549341103377C0993918C0BE0D68BF57
:100EA000CE71153F8D090340CCC9624009A7A3400C
:100EB0007DDBD140C416014154FC1741D0E83041DC
:100EC000195546419FAB5F41A04176415E2E864158
:100ED000F0B5214BB0F9086059689A68054685B0AD
:100EE000186801AC07C406F11E03B2074FEAA30756
:100EF000297929D04FF0000E184E194ADC1B06FB49
:100F000007F302FB0433012903EB0E0209DD01ABF9
:100F1000481E144C184413F8011B984204FB01228C
:100F2000F9D16B78AE782C78E9780E48C3EB0313CF
:100F30004FF461659B0005FB06332344013900FB38
:100F40000130104405B0F0BD064A032934BF4FF00C
:100F5000000E9646D0E700BF404101000085E20147
:100F60008033E1018051010070B472B61B491C4B03
:100F70001C4841250E2480220D70047019461A70F9
:100F80000B78174A1806FBD5174B18481D78184CD4
:100F900018490570033B247809781B78C3704470A6
:100FA000817062B672B60D490E4C41260F25802322
:100FB0000E702570114613700B781B06FCD50A4C79
:100FC0000B490C4A0C4B2478097812781B78C371B2
:100FD00004714171827162B670BC704707000240B3
:100FE00000000240060002400B0002402C0F0020CF
:100FF0000A000240090002400800024038B5002102
:10100000102007F06DFE00252024102007F0ACFB17
:101010000BF05CFB014628460BF0A4FA013C0546A8
:10102000F3D109490BF0A6FB4FF06A510BF0A2FB7C
:1010300001210446102007F053FE20464FF0745162
:101040000BF098FB38BD00BF438BAA4008B50121C7
:10105000052007F031FE4FF4FA6007F047FE00214B
:10106000052007F029FE024B01221A7008BD00BFBF
:10107000A407002008B50121002007F01DFE012172
:10108000052007F019FEC82007F030FE00210520DA
:1010900007F012FE014B01221A7008BDA4070020C0
:1010A00008B50121052007F007FEC82007F01EFE45
:1010B0000021052007F000FE642007F017FE044B16
:1010C000002101221A700846BDE8084007F0F4BD6F
:1010D000A407002008B50121052007F0EDFD40F62A
:1010E000B83007F003FE0021052007F0E5FD0021E0
:1010F000084607F0E1FD024B00221A7008BD00BF50
:10110000A40700202DE9F04FA3B007F0BDFD174C58
:10111000174D206006F0D8F92B688342154B40F03C
:1011200087811A78002A40F083810DF1540900214B
:10113000102007F0D5FD206806F0B8F905462068B4
:1011400006F08AF90746206806F094F906462068FA
:1011500006F09EF92B46029000970196064A074931
:1011600007480CF00FFD002526E000BF60000020BE
:10117000B4060020280F00209C0F00201042010020
:1011800004000020206806F091F90646206806F069
:1011900063F98046206806F06DF90746206806F07E
:1011A00077F9CDF800800290019733460395B24A53
:1011B000B249B3480CF0E6FC00260123B04AB1491D
:1011C0008DF8546048468DF8556004F04DF90135AE
:1011D00006460028D6D1FFF711FF4FF47A75AA4CC6
:1011E000AA4AA8498DF8306046238DF831608DF801
:1011F00024608DF82C608DF864608DF865608DF842
:1012000058608DF86060074619AE19A80A951795C1
:101210000894159404F028F90FCE0CAD0FC50FCE2D
:101220000FC59DF8303036689DF8580017999DF825
:1012300060202E608DF824000A918DF82C20002B60
:1012400040F048810E21924808F0FEFC4FF47A7677
:101250000025C2238A4A8B49179619A819AE8DF822
:1012600064508DF865508DF858508DF86050159485
:1012700004F0FAF80FCEDFF854829DF8585088F841
:10128000045008F110050FC50FCE0FC59DF8603052
:10129000179A316888F80C30C8F808207848296017
:1012A0000CF02EFD0146764808F0CEFC794809F096
:1012B00093F898F81030002B7BD1DFF8149208AD2A
:1012C000D9F8003074496E4801331A46C9F8003025
:1012D0000CF058FC19A84FF0000A4FF47A7B462313
:1012E0006A4A6849159406468DF864A08DF865A091
:1012F0008DF858A08DF860A0CDF85CB004F0B4F87B
:101300000FCE0CAF0FC70FCE0FC732689DF858C075
:101310009DF860E0179B61493A600CA819228DF88E
:1013200024C08DF82CE00A9304F0A2FA54485C4FD4
:101330000CF0E6FC524902460CA804F099FA284643
:1013400009F04AF80CA803F08BFFC2234C4A4D4920
:10135000CDF85CB019A88DF864A08DF865A08DF863
:1013600058A08DF860A0159404F07EF80DF1640E7D
:10137000BEE80F000FC7BEE80F000FC79DF858C0AA
:101380009DF86030179A88F80C3088F804C0C8F8C7
:10139000082036683A483E600CF0B2FC01463848F6
:1013A00008F052FC3B4809F017F898F81030002B71
:1013B00086D03C483C4907683C4C3D4A3D4B3E4D3D
:1013C00003C9206092E80300A06093E803001026A0
:1013D0000123A382E382E060266138460BF0B6FB6E
:1013E0003946A06138460BF0BDF80BF0AFFB334A2D
:1013F000E0612B68668492E803005B0203F1240637
:101400002C226062214602272548A3622784666059
:1014100004F02EFA09212A4808F016FC29681D4814
:1014200009F02AF81B4808F0D7FF23B0BDE8F08F79
:101430000A21002623481E7008F006FC154808F013
:10144000CBFF206806F040F82860206806F04AF8D4
:101450000DF1540902462B681B4907480CF092FB1A
:1014600048460123044A07498DF854608DF85560B9
:1014700003F0A0FF5BE600BF9C0F002028420100A4
:1014800004000020D4040020F84001007041010055
:101490008442010088F5FF1FC0420100CC420100D8
:1014A000640F002040F0FF1F944201002C00002038
:1014B0009C420100A44201008C060020AC420100C5
:1014C000B4420100F841010004420100540F002021
:1014D000A00700208848894E0CF012FC864902467D
:1014E0000CA804F0C5F922A92C2301F86E3D0122B5
:1014F0000CA804F0BDF906F1080808AD16F8011FA4
:1015000000230A22284608F077FFB045F6D17C4B2D
:101510001B68002B4DD1DFF834A222A92C26012212
:1015200001F8696D0CA804F0A3F9DAF800000AF0DC
:1015300077FC4FF002080B460246CDF800802846A3
:1015400008F0A2FF22A9012201F86A6D0CA804F09C
:101550008FF938460AF064FCCDF800800B4602464D
:10156000284608F091FF22A9012201F86B6D0CA812
:1015700004F07EF963480CF0C3FB624902460CA8F4
:1015800004F076F9284608F027FF5F4938460BF04B
:101590008FFA20B15D4E3368002B40F0A0803846B2
:1015A0005B490BF085FA002871D10CA803F058FEB6
:1015B0004CE6584EDFF894A106F1100B2C230122C3
:1015C0000DF11B010CA88DF81B3004F051F956F8F1
:1015D000048B514940460BF089FA504B5049042284
:1015E000002850D018680BF071F8014640460BF007
:1015F00075F90AF015FC09F0A3FF4A4B80461868FC
:1016000089460AF00DFC09F09BFF0022CDE9040198
:10161000454B404649460AF057FC00228046894621
:10162000424BDDE904010AF04FFC02460B464046FE
:1016300049460AF095FA0AF03FFF3D4B19680AF057
:101640008FFFDAF800100AF08BFF0AF0E9FB4FF089
:10165000020E02460B46CDF800E0284608F014FFC3
:10166000B345ABD122A92C2301F86C3D01220CA873
:1016700004F0FEF82F4B2846196808F0FDFE2846B6
:1016800008F0AAFE49E70CA804F0F2F8E8E72822DF
:1016900029490CA804F0ECF8284608F09DFE0CA897
:1016A00003F0DEFD0EE0022007F006FB00221146EB
:1016B0001423224805F0C6FD214805F0A9FB0A20A5
:1016C00007F014FBFFF79AFC1E490BF0F1F900211B
:1016D0000028E8D10121022007F0EEFA65E7FFF7C4
:1016E000F9FC00230B22184933600CA804F0C0F861
:1016F000284608F071FE52E7040000202B0F00205E
:10170000880F00201CF0FF1F6666464030F0FF1F68
:1017100000004040A0060020ACC52737AC070020E1
:10172000444201006C0000200000344000002440CE
:1017300044F0FF1F1C07002058420100D80600207B
:1017400064060020CDCC4C404C420100200000201B
:1017500038B50E4C0E480F4D0E2108F075FA204694
:1017600008F03AFEFFF7CEFC0B4B284600221A6029
:1017700003F08AF801230B21084885F8F63008F0B9
:1017800063FA2046BDE8384008F026BE88F5FF1F02
:10179000E84201002005002080070020F8420100F7
:1017A0002DE9F0470A2182B03448354C354D08F018
:1017B0004BFA354808F010FE04F1100A54F8046B97
:1017C000324930460BF092F900284FD028680AF0D1
:1017D0007DFF014630460BF081F80AF021FB09F04D
:1017E000AFFE2B4B064618680F460AF019FB09F0AE
:1017F000A7FE002280468946264B304639460AF02D
:1018000063FB002206460F46234B404649460AF03A
:101810005BFB02460B46304639460AF0A1F90AF056
:101820004BFE1E4B19680AF09BFE1D4B19680AF00F
:1018300097FE0AF0F5FA022602460B460096124879
:1018400008F022FE104808F0C7FDA245B6D10A21D3
:10185000144808F0F9F9144B0B48196808F00CFE0D
:10186000094802B0BDE8F04708F0B6BD28680AF0A4
:101870002DFF014630460BF031F8DAE70443010052
:10188000A0060020AC07002088F5FF1FACC5273755
:101890006C000020000034400000244044F0FF1F92
:1018A00020000020104301001C07002070B58EB0FE
:1018B00004460CF025FA00B201281BDDB4F9003013
:1018C00044F25372934200F0A08016DD44F6545265
:1018D000934260D045F25322934227D044F65212ED
:1018E000934207D10BAAE01C4D490CF071F94D4B06
:1018F0000B9A1A6001200EB070BD44F24E42934222
:101900000ED044F252429342F4D10BAAE01C444957
:101910000CF05EF9444B0B9A1A6001200EB070BDBA
:10192000424B012201201A600EB070BD0AAD09A918
:1019300008AA05AB039502910192009307AA06AB92
:10194000E01C3B493B4C0CF043F9079B0A98069A74
:101950000599099E089D8DF82C00A3F5FA630BA844
:10196000ADF834308DF830208DF82F108DF82D60C3
:101970008DF82E50FFF7ACFA122120602E4808F0A7
:1019800063F921682D4808F077FD2C4808F024FD04
:1019900001200EB070BD0AAD09A908AA05AB0395D8
:1019A00002910192009307AA06ABE01C20490CF0BB
:1019B0000FF9079B0A98069A0599089C099D8DF8CE
:1019C0002C00A3F5FA630BA88DF830208DF82F10AA
:1019D000ADF834308DF82E408DF82D50FFF778FAA1
:1019E000144B0446186007F055F90B21144808F011
:1019F0002BF9214600230A22104808F0FDFC0F486D
:101A000008F0EAFC01200EB070BD0BAAE01C0449EE
:101A10000CF0DEF80B4B0B9A1A6001200EB070BD73
:101A20003C4301002CF0FF1F48F0FF1F2006002060
:101A30001C430100180700204043010088F5FF1FE8
:101A40003043010008F0FF1F2DE9F043A3B000254B
:101A50004FF47A766E4F6F4A6F490A96012319A8A0
:101A600017968DF830508DF831508DF824508DF840
:101A70002C508DF864508DF865508DF858508DF8C5
:101A800060500897159703F0EFFC0DF1640EBEE867
:101A90000F000CAE0FC6BEE80F000FC69DF83080D9
:101AA000DEF800109DF85800179A9DF860303160FC
:101AB0008DF824000A928DF82C30B8F1000F46D032
:101AC0002E468DF800604FF000094FF0FF0801220C
:101AD00015A90CA803F028FD09F1010322AA012889
:101AE0004A441BB224D01D2B02F8888C05DC994691
:101AF000EDE71D2B01DC0A2AF9D1013B9BB222AA9A
:101B00001A4402F8886C9DF800202F2A04D0012B7B
:101B100002D96846FFF7CAFE9DF830301B0711D482
:101B20000CA803F09DFB2DBB012023B0BDE8F08382
:101B30009DF854200D2A08BF4B465AD11D2BDCDCE2
:101B40009946C4E7139A119B9A42BAD1E8E7142147
:101B5000324808F079F8324808F03EFC0D2231494D
:101B6000314808F025FC304808F036FC404623B0E8
:101B7000BDE8F0830B212D4808F066F821460023CC
:101B80000A22274808F038FC0025254808F024FCE4
:101B90004FF47A768DF864508DF865508DF8585072
:101BA0008DF8605063231B4A1B49179619A819AD7D
:101BB000159703F059FC0FCD0CAE0FC60FCD0FC615
:101BC0002968179A9DF860309DF8585031600CA82C
:101BD00021460A928DF82C308DF8245003F09EFD9A
:101BE000022213490CA803F043FE0CA803F038FBB3
:101BF0009AE722AB03EB0901542A09F1010301F82A
:101C0000882C1BB27FF475AF119C0546013C95E70B
:101C1000F840010054430100D40400207043010047
:101C200088F5FF1F8843010028060020604301005B
:101C30006C43010030B583B002AD079C05F8082D58
:101C40008DF80200069A8DF804304E3428468DF83F
:101C500001108DF805208DF8064005F053FC07F0C3
:101C600019F807F011F8024B186003B030BD00BF3F
:101C7000580000202DE9F041044604200D46164688
:101C800007F020F88046032007F01CF80746B8F15B
:101C9000000F2ED1DFF888801F4AD8F800300121CC
:101CA000132B11702DDD0133C8F800300134BFB99A
:101CB0001A4F194A3B680121132B11701DDD092CA5
:101CC000C8BF3B6804F1FF34CCBF01330123AC42F1
:101CD0003B600ADBB442C8BF2C462046BDE8F08119
:101CE0000E4B0022AC421A60F4DA34462046BDE8BE
:101CF000F0810B4B00221A60D9E7C82006F0F6FFEE
:101D0000DDE7C82006F0F2FFD8F800300133C8F84C
:101D100000300134CBE700BF20070020240F002053
:101D2000C00F002010B5094C204606F009F92046E6
:101D3000012105F05BFE2046022105F051FE002244
:101D400020461146BDE8104005F046BE280600209A
:101D500038B5054605F0C6FB1E4C0146204608F086
:101D60008BFB2D2007F0F4FF284605F0ADFB014664
:101D7000204608F081FB2D2007F0EAFF284605F0F9
:101D800095FB0146204608F077FB0121124807F039
:101D90005BFF284605F060FB0146204608F06CFB1F
:101DA0003A2007F0D5FF284605F064FB014620469F
:101DB00008F062FB3A2007F0CBFF284605F068FBED
:101DC0000146204608F058FB2046BDE8384008F0A0
:101DD00003BB00BF88F5FF1F144501002DE9F04348
:101DE000434A444BDFF81891DFF81881424D98F8C8
:101DF0000010167899F800701A78286883B03C2390
:101E000013FB071713FB062605F026FB044628687C
:101E100005F030FBC4EB041400EB8404286805F0E3
:101E200061FB00F14E0328688DF8063005F04CFB8D
:101E30008DF80500286805F039FBB7428DF80400DD
:101E400006D2A74232D8A64230D303B0BDE8F08311
:101E5000A742FAD9A642F8D202A8002399F8002096
:101E600000F8083D98F800308DF801308DF8022018
:101E700005F048FB0F212860204807F0E5FE2868A0
:101E8000FFF766FF06F000FF2B68834204DA03F5D4
:101E9000A83303F5C0732B600F21184807F0D4FE58
:101EA0002868FFF755FF03B0BDE8F08302A80023C0
:101EB00099F8002000F8083D98F800308DF80130BE
:101EC0008DF8022005F01EFB0F2128600B480A4CFC
:101ED00007F0BAFE2868FFF73BFF06F0D5FE2B6837
:101EE0008342D9DA03F5A83303F5C0732360D3E73F
:101EF0009C070020D406002018070020984301000A
:101F0000A80F0020B007002038B5054606F0F2FC07
:101F1000074C2070681C06F0EDFC6070A81C06F0F1
:101F2000E9FCA070E81C06F0E5FCE070206838BD14
:101F30006400002008B50020FFF7E6FF134B18608F
:101F40000420FFF7E1FF124B1860082006F0D2FCD6
:101F5000104B1870092006F0CDFC0F4B18700A20AA
:101F600006F0C8FC0D4B18700B2006F0C3FC0C4BA0
:101F700018700C2006F0BEFC0A4B18600D2006F00D
:101F8000B9FC08B1084B187008BD00BF48F0FF1F2E
:101F90002CF0FF1FA80F0020B00700209C07002096
:101FA000D40600208807002034F0FF1F38B50A4C03
:101FB0000B460546C9B2236006F0B6FC6178681C82
:101FC00006F0B2FCA178A81C06F0AEFCE178E81C93
:101FD000BDE8384006F0A8BC6400002008B5154BE9
:101FE00000201968FFF7E2FF134B04201968FFF780
:101FF000DDFF124B0820197806F096FC104B0920E3
:10200000197806F091FC0F4B0A20197806F08CFC29
:102010000D4B0B20197806F087FC0C4B0C2019781F
:1020200006F082FC0A4B0D201978BDE8084006F046
:102030007BBC00BF48F0FF1F2CF0FF1FA80F002043
:10204000B00700209C070020D4060020880700204D
:1020500034F0FF1F2DE9F04F0546934E934FDFF804
:102060005C8296F800E02F60FF2085F82400DFF8FE
:10207000509298F80000BEF1060F59F820E04FF09A
:1020800000038DB00C4685F8253085F8263098BFC2
:102090003370BEF1000F00F0AD808E455ED0734608
:1020A000810001E09C4259D00B445B68002BF9D1C0
:1020B000734600E053460B44D3F804A0BAF1000F76
:1020C000F8D15C603478029705EB010B4FFA80FC85
:1020D000FF23062CCBF804A08DF82DA08DF82EA0A0
:1020E00085F824C08DF82C30744604D80023337052
:1020F000002C00F0B480A24229D0234601E0934294
:1021000025D00B445B68002BF9D104EB010EDEF8FF
:102110000440002CF9D1CEF804200CAB1944BCF1DA
:10212000FF3F00F101034FF0000041F8240C88F854
:1021300000308DF82CC0029705D05D4951F82C2055
:1021400002AB9A4276D028460DB0BDE8F08F013040
:1021500088F8000028460DB0BDE8F08F317802976E
:10216000FF24002306298DF82C408DF82D308DF8A2
:102170002E304D4C00D823709645E8D07346810030
:1021800001E09A42E3D00B445B68002BF9D18E4406
:10219000DEF804402CB1A6468E44DEF80440002C44
:1021A000F9D10CAB46B219440130731CCEF80420AF
:1021B00088F8000041F8244C02978DF82C60C2D0BA
:1021C0003B4951F8262002AB9A42BCD159F826303F
:1021D000B00023B11A1853685460002BFAD198F854
:1021E00000300022013B88F8003049F8262041F8F1
:1021F0002620A8E700283AD02D4B96F800E043F8B7
:102200002050810005EB010C002349F820408DF897
:102210002D30CCF804308DF82E304FFA80FCFF239F
:10222000BEF1060F029785F824C08DF82C307FF69A
:102230005DAF5DE759F82C304FEA8C0423B11A19D1
:1022400053685060002BFAD198F800300022013B0F
:1022500088F8003049F82C2041F82C2073E798B119
:10226000134B49F8202002AA43F8202055E71149D2
:102270000192152006F040FC0F4B019A4FF400111B
:10228000196098F80000B7E70A490192152006F096
:1022900033FC094B019A4FF40011196098F80000C3
:1022A0004FFA80FC8100DBE794E9FF1F3441010015
:1022B000AC1000209504000000E100E0CD100020EB
:1022C0008C1000202DE9F84FA84CA94EA94F06F01C
:1022D000C9FA0421A84805F01FFE226837600023D0
:1022E000737233613372F3600AB938E11A46536985
:1022F000002BFBD15661A14DA14B9D4833604FF09F
:102300000008C6F81480A6F80480A6F8068002F03B
:1023100049F9012005F22472434641462F6085F8B1
:102320000880C5F80C8068722A61AE4601E0DEF8CC
:10233000102042F823106A7A904801339A42F6DC62
:1023400022688A4B0AB90CE11A465369002BFBD16B
:1023500055614FF000088B49DFF8B4E2296042462E
:1023600001234FF480718848C5F81480A5F80480D3
:10237000A5F80680C5F818E185F8218785F8228739
:1023800008F078FF814AC5F81C814FF0010E02F178
:1023900018011760082782F809E04346404682F892
:1023A0000880C2F80C801161964685F8207701E01C
:1023B000DEF8101041F82300517A744F013399422E
:1023C000F6DC2168694B09B9CDE019464B69002B51
:1023D000FBD14A616E4B6F495A600024546194806E
:1023E000D480184682F8F440C2F8F04082F8F540F4
:1023F000116082F8F6401E601C725C72DC6007F0AF
:10240000FBFD654B654F1C7218461E605D605C727B
:10241000DC6007F0F1FD624B624A634D6348DFF810
:10242000F4E1DC71642683F83C4483F83D4483F88E
:102430006A4483F86064C3F86C045D4EC2F800E03F
:102440000A2339681472547214712E602B724FF083
:1024500087400AF043FA574D574B584E18604FF0DB
:10246000FF09574B85F825404FF0010885F8249067
:10247000544A55496C632846AC6385F83C402B6050
:1024800085F826800AF0F6FC504B86F8249086F8F2
:1024900025404C4A4E493360304686F826800AF083
:1024A000E9FC2A4631464B48DFF86CB1DFF86CA1F5
:1024B000DFF86C91DFF86C81FFF7CCFD4649414AAB
:1024C00044480AF0D7FC454A454B10681C744FF449
:1024D0007A729A60434A1A605C741C711C730AF029
:1024E000F5F801463868404F0AF0F8F93F4B0546C9
:1024F0001D6029463E480AF0F1F93E4B06461E6033
:1025000029463D480AF0EAF90AF0FAFA2946CBF8DA
:1025100000003A480AF0E2F90AF0F2FA2946CAF84D
:10252000000037480AF0DAF90AF0EAFA3146C9F849
:10253000000034480AF0D2F90AF0E2FAC8F80000C4
:1025400030460AF0DDFA214638602F4808F0B4F82A
:102550001C4A2E492C48BDE8F84F0AF08BBC266077
:10256000C9E61860F5E61F6034E700BF7812002066
:1025700028070020EC40010028060020BC070020AE
:10258000D0480100A8480100E40E002020050020EA
:1025900074000020DC4801008400002040F0FF1F90
:1025A00098000020F40E00208C0700200110013854
:1025B000B4480100D8060020C806002040070020CB
:1025C000C8490100FCEFFF1FBD060000DC49010007
:1025D0001507000064060020110600003CF0FF1FF4
:1025E000540F0020F84001001C0600206C00002061
:1025F00000007A44200F002000409C4500007A46ED
:102600000000FA43000096430C05002039A60000A4
:10261000A04601001C410100B80F0020B0060020B8
:102620007C0700206006002070B5104C06460D4661
:1026300020460A2102F03EFDC6F30721204602F0A3
:1026400013FBF1B2204602F00FFBC5F30721204631
:1026500002F00AFBE9B2204602F006FB204602F037
:102660003BFDB0FA80F0400970BD00BF6C10002047
:1026700008B500213020FFF7D7FF00210220BDE878
:102680000840FFF7D1BF00BF08B5AB213020FFF7EE
:10269000CBFF63210220BDE80840FFF7C5BF00BFA4
:1026A00008B544F260013020FFF7BEFF6C21262000
:1026B000FFF7BAFF4FF4F8712820FFF7B5FF0021AC
:1026C0002A20FFF7B1FF40F622712C20FFF7ACFF64
:1026D00044F246413C20FFF7A7FF40F23711242087
:1026E000FFF7A2FFFFF7D0FF4FF4C87006F0FEFA25
:1026F00041F619112E20FFF797FF04210846FFF736
:1027000093FF4FF498710620FFF78EFF00210A20F7
:10271000FFF78AFF08210E20FFF786FF4FF63C7176
:102720001020FFF781FF47F67F712220FFF77CFF23
:1027300000214FF49270FFF777FF14212420FFF758
:1027400073FF00212A20FFF76FFF00212020FFF7F1
:102750006BFF012008BD00BF3021014805F002B920
:102760002806002010B5012204460749074807F053
:102770001FFE092C01DCFFF7EFFF21460348BDE8EF
:10278000104007F079BE00BF444401002806002035
:102790002DE9F04F85B006F077FAB24BB24E1860D3
:1027A0000121B248B24C05F01BF90121AF4805F0F8
:1027B0001DF912220021AD4805F00EF90422AD49A1
:1027C000AA4807F0F5FD3168A84807F055FE022237
:1027D000A949A64807F0ECFD0622A849A34807F03E
:1027E000E7FD2368002B00F00181012B00F00A8136
:1027F000DFF80083A2499D48A24D062207F0D8FDCC
:10280000D8F80010994807F037FE01229E499748F2
:1028100007F0CEFD03229D49944807F0C9FD00232F
:10282000297892480A2207F0E7FD904807F0D4FD86
:102830002368012B00F0608101218C4805F0D0F85D
:102840003768780009F042FF914B196809F092FF50
:10285000904909F087FE4FF08E4109F083FE8E49C2
:102860000AF03CF88C490AF039F82368012B8346BA
:1028700000F0D1804FF07E59384609F027FF4946D5
:1028800009F078FF8146D8F80000844C844E384423
:1028900009F01CFF014648460AF020F880462878D7
:1028A00009F014FF7F4B196809F064FF7E4B054661
:1028B000186809F00BFF7D4B196809F05BFF7C4B32
:1028C000196809F04FFE414609F054FF4146814620
:1028D0004FF07E5009F044FE764B196809F04AFF2C
:1028E0000146484609F03EFE0146284609F0F6FF3B
:1028F000714909F03FFF0AF029F90025039004F11E
:10290000100AA94656F8041B44F8049B084671B106
:1029100009F0D8FE594609F0E1FF09F081FA08F004
:1029200087FD09F0A9FD44F8040C07FB00F1A2455E
:102930000D44E7D1284609F0C5FE414609F0CEFF17
:10294000039D0446284609F0BDFE014620460AF0D4
:10295000CDF8F0B130220021444805F03DF80E22B8
:102960005649424807F024FD554940482B46A1FBF3
:102970000331090C00230A2207F03EFD01225149D0
:102980003A4807F015FD484B1B6813BB05B0BDE87E
:10299000F08F01463022354805F01EF80D224A49D5
:1029A000324807F005FD2046484909F097FF09F035
:1029B00037FA02240B46024600942C4807F064FDC7
:1029C00001224049294807F0F3FC374B1B68002BD4
:1029D000DCD012227821254804F0FEFF3C49234830
:1029E000012205B0BDE8F04F07F0E2BC04223949EE
:1029F0001E4807F0DDFC1D4807F0EEFC2368012BA4
:102A00007FF4F6AE04223449184807F0D1FC174889
:102A100007F0E2FCECE6314A314B10781B78834238
:102A200086BFC3F11803C018C01A09F04FFE2D4A23
:102A30002D4B06461B781078834286BFC3F13C03BA
:102A4000C018C01A09F042FE28490446304609F071
:102A500091FE214609F086FD254909F03FFF814698
:102A60000AE700BF6000002048F0FF1F2806002092
:102A700088070020C8430100D0430100D44301006F
:102A8000EC43010034F0FF1FF4430100F843010060
:102A900040F0FF1F0000304200007A44B8060020DA
:102AA000340F002014F0FF1F30F0FF1F10F0FF1F45
:102AB00004F0FF1F38F0FF1F000061450C440100C7
:102AC00007452EC22C4301001C44010000C0A8474A
:102AD0002C440100DC430100E44301009C0700207A
:102AE000A80F0020D4060020B0070020000070428C
:102AF0000000B4442CF0FF1F174F18491848082253
:102B000007F056FC397809291EDD0A2200231448F3
:102B1000144F07F071FC144B1878FFF723FE13498C
:102B20000F48012207F044FC3978092910DD0A22F8
:102B300000230B4807F060FC0D4B1878FFF712FEDE
:102B4000074807F049FC77E6FFF706FE3978DCE72F
:102B5000FFF702FE3978EAE7A80F0020FC430100E6
:102B6000280600209C070020B00700200844010030
:102B7000D406002070B504460E46244801211546AF
:102B800004F02EFF32B20021204804F025FF204639
:102B900004F0A8FC01461D4807F06EFC2D211B48DF
:102BA00004F0E0FE204604F08FFC0146174807F0D1
:102BB00063FC2D21154804F0D5FE204604F076FC78
:102BC0000146124807F058FC022211490F4807F04D
:102BD000EFFB204604F040FC092814DD204604F0F9
:102BE0003BFC0146094807F047FC204604F042FC44
:102BF000FFF7B8FD05B970BD204604F049FCBDE8FB
:102C00007040FFF7AFBDFFF7A7FDE7E728060020FC
:102C1000304401002DE9F04FDFF87883D8F8004008
:102C200085B02CB1012C00F0958005B0BDE8F08F87
:102C300006F02AF8B24FDFF860933860FFF772F8B9
:102C40000A22B049B048B14D07F0B2FBAE4807F0D8
:102C5000C3FB0121AC4804F0C3FE12222146AA485E
:102C600004F0BAFE0522AA49A74807F0A1FBD9F84B
:102C70000010A548013107F0FFFB0122A549A24839
:102C800007F096FBD9F80020A34B9F4853F8221079
:102C900023460A2207F0B0FB286801222821FFF70B
:102CA00069FF012239213868FFF764FF964805F073
:102CB000C1FA2A683B68511E994207DC9749097896
:102CC00021B197490968002940F00D829A423CDC05
:102CD000944C2368002B00F044820D219248934CC1
:102CE00006F0B2FF924807F077FB924B924A934965
:102CF00028681B681268096803441A4401292A607D
:102D0000236000F039820E218D4806F09DFF05F00A
:102D1000BBFFFFF71DF80B218A4806F095FF2068DE
:102D2000FFF716F80B21884806F08EFF2868FFF79A
:102D30000FF8864A744801230024AE211460C8F8B5
:102D4000003005F005F9FEF703FDD8F80040012C2E
:102D50007FF46BAFFDF730FF7D4B93F82237002BEC
:102D600043D07C4B7A491B680022DB0781F822277D
:102D70003BD5794B1D687F2D00F2B38105F10C0323
:102D800031F8130009F09EFC4FF0625109F0F2FC9B
:102D90000746724BD3F800906C1C4C4551DA6C4BD3
:102DA0000D3503EB450512E0288809F08BFC4FF048
:102DB000625109F0DFFC82463946504609F096FE22
:102DC000023508B15746264601344C4539D07F2C90
:102DD000EAD94FF0000AEFE7CAF8000009F101094B
:102DE000B9F1040F0AF1040A57D15D4C5D4B22681A
:102DF0001B689A42FFF619AF564E3368002B40F01D
:102E0000B8814D4B1D68002D40F0C880564802F037
:102E100027FAFDF743FFFEF775F933682560002BAD
:102E20003FF403AF514B524E484C52485249356023
:102E300000221A605A609A60DA60256005600D60B1
:102E4000F3E64C4A13689E42C0F26281002B00F008
:102E50005F8149490B689E4200F35881002B00F0C6
:102E60005581464C464823680068F31A002BB8BFCA
:102E70005B42834280F24E81424A13680133136001
:102E8000324A414B029313684049DFF8E0A00391B6
:102E90000133266013604FF00009029B53F804BB16
:102EA0000293039B53F8046B03935E4596DD384B06
:102EB00053F8290009F00AFC254BDAF800500BF111
:102EC0000C04074603EB440415E0208809F0FAFBE4
:102ED0004FF0625109F04EFC394609F0FFFC014603
:102EE000284609F03FFB0BF1010B5E4504F102049B
:102EF00005463FF471AFBBF17F0FE6D90020EBE749
:102F0000600000203444010028060020180700203B
:102F10004044010014450100B8060020A407002029
:102F200030F0FF1F200600204844010084070020E5
:102F300088F5FF1F48F0FF1F2CF0FF1F88070020B7
:102F4000584401006844010074440100AC070020AB
:102F5000BC070020880F0020B80F0020B00600201A
:102F6000800700208C060020640F0020A0060020AF
:102F70001C07002028000020B407002024070020A0
:102F80007C07002070000020900600206C070020C5
:102F90008C0F0020B807002068000020FDF71AFE03
:102FA000FDF77CFE336873B1794A7A4E7A4D7B4CDB
:102FB0007B4800210023116051609160D160336033
:102FC0002B6023600360774B774D1C68774E05F0CC
:102FD0005BFE774A774B1268201A841A24EAE4745D
:102FE00083FB04232344E017C0EBE32008F006FF33
:102FF00008F01EFA09F018FA6F4B704A286003FBBC
:10300000004482FB043222440746E017C0EB621002
:1030100008F0F4FE08F00CFA09F006FA0201131A9F
:10302000821A04EB82049B004FF4616202FB0733B7
:103030003460634F1C44092C386059DD122161480B
:10304000614C06F001FE614807F0C6F9002102203C
:1030500005F032FE2368002B40F097800E215C487B
:1030600006F0F2FD594807F0B7F9FFF701FB102110
:10307000584806F0E9FD554807F0AEF910215648CA
:1030800006F0E2FD2968514807F0F6F939684F4823
:1030900007F0F2F931684D4807F0EEF94B4807F0B8
:1030A0009BF9642005F022FE0E214C4806F0CCFD71
:1030B000464807F091F9642005F018FE33783A7815
:1030C0002978474804F0BEF8464803F0A1FE0121E4
:1030D000022005F0F1FD2368002B53D1FFF7D4FA4D
:1030E0000AE0002755E6FDF7C5FF3B682A68EDE5D5
:1030F000354B1B68002B42D101233C2202213A4868
:1031000004F08EFF0023C8F800308EE50E60A8E6BC
:1031100016609EE635480B6811680268344D5B1AEC
:10312000934228681ADD334B1B68984216DB09F07E
:10313000CDFA314B196809F01DFB08F071FE02272A
:1031400002460B460097214807F09EF901212B48C3
:1031500006F07AFD0F4A13680133136001232B60D8
:103160008EE60A210E20FFF75FFA4FF0FF3323604F
:10317000B3E5FEF715FB44E6FEF730FEC3E5FDF7C9
:103180008FFFB9E7FDF762FFA8E7FDF7A3FF65E74B
:10319000A00600201C070020AC070020280000200B
:1031A000B4070020180700205C000020B40F0020A6
:1031B00018F0FF1FC5B3A291F0F1FFFF898888883E
:1031C000980700208044010030F0FF1F88F5FF1FA2
:1031D00094440100A4440100B8440100CC4401001F
:1031E000D806002064060020280600201C060020C7
:1031F0007000002060060020200F00201445010010
:103200002DE9F04F87B0FEF795FE05F03DFDB64B7A
:10321000DFF83C931860FEF785FD0822B349B448F7
:10322000B44EB54FDFF82C8307F0C2F80121B04847
:1032300004F0D6FB10220021AD4804F0CDFB122291
:10324000AE49AB4807F0B4F8A94807F0C5F8CA463C
:103250000025002347F8043BA94807F0BDF8A8481B
:1032600007F0BAF801350521A64806F0EDFC29461D
:10327000A34807F001F9A24807F0AEF829469C4898
:1032800007F0FAF80422A049994807F091F8984805
:1032900004F0D0FF07219D4801F056FC0E219B4809
:1032A00001F0B0FC0C21994801F07EFC5AF8042B87
:1032B0009749D2B2A1F10C004FF0384303F0E8F97E
:1032C00058BB1C21934806F0BFFC8D4807F084F8DA
:1032D00006229149864807F06BF8854807F07CF88C
:1032E000834804F0A7FF042DB3D1824C99F8002045
:1032F00004F58C65284604F26C414FF0384303F026
:10330000C7F9002840F081800B228449784807F0F3
:103310004FF8774804F08EFFFEE7814800F1240360
:10332000336001F09DFF0121724803F065F801460A
:1033300000285AD0DFF8E8B1ABF23C41584602F021
:10334000EDF80028BDD096F83C3413F0700FB8D0DB
:10335000ABF23C40C8F800B002F0F6FF09F0B2F959
:10336000704909F007FA0446307909F0AFF90146CF
:10337000204609F0FFF909F0E9FB04460BF12400AF
:1033800003F086FA09F09EF9664909F0F3F909F0AD
:10339000DDFB11218346644806F056FC21460023DC
:1033A0000A22574807F028F8554807F015F8C72CA7
:1033B00094BF0021A4F1C80147F8041C00230A228D
:1033C0004B4807F019F801225849494806F0F0FF28
:1033D000594600230A22464807F00EF8444806F0F2
:1033E000FBFF434804F026FF7DE7424803F004F862
:1033F00000283FF466AFDFF828B1ABF23C415846F5
:1034000002F08CF800289ED15BE704F23C40256076
:1034100001F026FF0121204602F0EEFF01460028C0
:1034200000F07083334C04F23C452846214602F0FC
:1034300075F800283FF468AF94F83C3413F0700F2F
:103440003FF462AF3A4FC8F80050FEF7FDFA3A6811
:10345000384B9A4201D93C233B60DFF8FC80354B66
:10346000D8F80020DFF8F4909A4284BF3C23C8F8D3
:10347000003099F80030172B84BF002389F8003002
:103480002D4B1B783B2B02D92B4A002313702B4B5F
:103490001B78172B02D9294A00231370284B1B785D
:1034A0003B2B02D9264A00231370264E264D336843
:1034B000264C012B88BF00234FF4FA6088BF33608D
:1034C00005F014FCFEF72EFC094804F0B3FE4FF49F
:1034D000167005F00BFC082005F0F4FB00285FD106
:1034E0002B6801332B603EE058000020DC440100D3
:1034F0002806002098000020340F0020E844010036
:1035000088F5FF1F40440100FC4401004CF0FF1F00
:1035100004050020A4450100C4450100CC4501007C
:10352000D4040020BD37063A0445010018450100C7
:1035300048F0FF1FA0860100B00700209C07002074
:10354000D40600208807002094000020600000209E
:10355000440F0020841000202CF0FF1FA80F002033
:103560000A2005F0C3FB082005F0ACFB0028F7D0CB
:1035700033682A68B3FA83F10A2A4FEA5111D8BF97
:103580000021002940F0BB82A3F10103B3FA83F3C9
:103590000E2A4FEA5313D8BF0023002B40F0AF820E
:1035A000FEF7C0FB05F070FBA44B20601A682B6887
:1035B000821A02920E2B27D8DFE813F03E02250272
:1035C00091027702E601A8016A010601C8008A009B
:1035D00073005F0053003C000F00994B3B22002119
:1035E0001878FEF747FB964B9649187007229648C5
:1035F00006F0DEFE924B1978092940F39C8292482E
:1036000000230A2206F0F8FEFFF7C2F805F03CFBA3
:1036100001223921FFF7AEFA8B4804F00BFE0A2095
:1036200005F064FB029BB3F5167F7FF754AF07B03C
:10363000BDE8F08F854B1722002118789A46FEF7D7
:1036400019FB83498AF8000007227F4806F0B0FE84
:103650009AF800100929D2DCFFF77EF89AF80010DA
:10366000CDE77C4B3B22002118789A46FEF702FBFF
:1036700008228AF800007849E7E71722002199F824
:103680000000DFF8F0A1FEF7F5FA744989F80000B0
:1036900008226D4806F08CFE99F800100929AEDC6E
:1036A000DAE705226E496848DFF8CCA106F080FE13
:1036B000012200213068FEF7DDFA3060002800F0BA
:1036C00033820128A0D167495F48FDF7FFF89BE7E7
:1036D00003F0DEFEDFF8A4B1DFF8A4A1CBF8000010
:1036E0003B220021FEF7C6FADBF80030CAF80000E2
:1036F00098421DD0206803F0AFFE8346206803F097
:10370000B9FE05902068DAF800A003F0CFFE04901F
:10371000206803F0D9FE0390206803F0E3FE039ACB
:1037200000920190049B059952465846FEF782FA92
:1037300007224D49444806F03BFE05F0A5FA03F088
:10374000A7FE0146404806F097FE5DE703F092FEB3
:10375000DFF830B1DFF830A1CBF800003B220021C8
:10376000FEF788FADBF80030CAF8000098421DD056
:10377000206803F071FE83462068DAF800A003F0A9
:1037800087FE0590206803F091FE0490206803F006
:103790009BFE0390206803F0A5FE03990091019021
:1037A000049B059A51465846FEF744FA07222F49D2
:1037B000254806F0FDFD05F067FA03F05BFE0146C3
:1037C000214806F059FE1FE703F046FEDFF8BCB0C3
:1037D00017220021CBF80000FEF74CFADBF800308E
:1037E000984282461BD0206803F044FE834620683E
:1037F00003F04EFE0590206803F058FE0490206808
:1038000003F062FE0390206803F06CFE03990091C0
:103810000190049B059A59465046FEF70BFA052283
:103820001349094806F0C4FD05F02EFA03F014FE12
:103830000146054806F020FEE6E600BF58000020DD
:10384000D40600209C450100280600209C0700208B
:1038500094450100B0070020884501007C45010027
:1038600074450100E44301006C450100644501001A
:103870005C450100A80F00208807002018060020E2
:1038800024000020D0060020A40F0020A80700205C
:1038900003F00CFEDFF8E0B2DFF8E0A2CBF80000A6
:1038A0001F220121FEF7E6F9DBF80030CAF800001C
:1038B00098421DD0206803F0CFFD8346206803F0B6
:1038C000D9FD0590206803F0E3FD04902068DAF844
:1038D00000A003F0F9FD0390206803F003FE039BB2
:1038E000009301905346049A05995846FEF7A2F9B1
:1038F00004229349934806F05BFD05F0C5F903F0F7
:10390000D5FD01468F4806F0B7FD7DE603F0DCFDEE
:10391000DFF86CB2DFF86CA2CBF800000C220121BA
:10392000FEF7A8F9DBF80030CAF8000098421DD075
:10393000206803F091FD8346206803F09BFD05900D
:10394000206803F0A5FD0490206803F0AFFD03900C
:103950002068DAF800A003F0C5FDCDF800A00190C2
:10396000039B049A05995846FEF764F906227649A6
:10397000744806F01DFD05F087F903F0A5FD01462A
:10398000704806F079FD3FE603F0ACFDDFF8F8B1D2
:10399000DFF8F8A1CBF8000040F634024FF4FA61EA
:1039A000FEF768F9DBF80030CAF8000098421CD036
:1039B000206803F051FD8346206803F05BFD05900D
:1039C000206803F065FD0490206803F06FFD03900C
:1039D000206803F079FDDAF80030049A05998DE843
:1039E0000900039B5846FEF725F90522574955481B
:1039F00006F0DEFC05F048F903F074FD014651487D
:103A000006F03AFD00E64FF4616201213868FEF7E6
:103A100031F94F49386004224A4806F0C9FC396838
:103A2000484806F029FD01224A49464806F0C0FCF4
:103A3000444806F0D1FCE7E5DFF854A19AF80030DD
:103A4000002B67D10A2244493E4806F0B1FC04200D
:103A500005F038F98246032005F034F9BAF1000F79
:103A60007FF4D2AD00287FF4CFADFEF75BF9FEF70F
:103A7000B5FA3A493348FCF729FF324804F0DAFB3B
:103A800040F2DC5005F032F9FEF782FE05F0FCF85A
:103A900001223921FFF76EF82A4804F0CBFB0A20F7
:103AA00007B0BDE8F04F05F021B9DFF8E8A0082223
:103AB0009AF800000121FEF7DDF805228AF80000DF
:103AC0002749204806F074FC9AF800101D4800238E
:103AD0000A2206F091FC1B4806F07EFC94E5214A80
:103AE000D8F800000021FEF7C5F81F49C8F800000B
:103AF0000422144806F05CFCD8F8001090E700237C
:103B00002B604DE5204602F077FC00287FF48AAC5C
:103B1000FFF7FABBFEF762FA00238AF8003005F0DF
:103B2000B3F8124B18608DE711490648FCF7CEFE3A
:103B3000DAF80000C5E5FEF70FFE0E4B19785EE5DA
:103B400054450100280600204C4501004445010071
:103B5000C8430100F44301001C4501002845010051
:103B60003C4501008051010034450100580000200F
:103B7000DC430100D4060020B00F00202406002002
:103B80001C050020CC060020AC0F00206807002098
:103B90002007002034F0FF1F2DE9F04FCD4ECE4D11
:103BA000CE4F83B0FDF7E0F9D6F80090CC48012461
:103BB00049462C6008F092FE08F0A2FF8046494674
:103BC000C848C5F80480C7F8008008F087FE08F0F0
:103BD00097FF034649467B60AB60C34808F07EFE12
:103BE00008F08EFF03464946BB60EB60BF4808F013
:103BF00075FE08F085FFF86020460024BC490134BA
:103C0000C0EB0800042C3A462B4641F8040B0AD0BE
:103C100052F8048F53F8040F0134C0EB0800042C51
:103C200041F8040BF4D1B34BB34A1868B34F4308BF
:103C30000F2503F1B763556014210A2503F5584396
:103C4000B3FBF0F015239160D360156005F00CF91B
:103C50004FF4FA7005F04AF82946A94805F0F4FF38
:103C6000306808F0DDF8022502460B460095A548AD
:103C700006F00AFCA34806F0AFFB1321A24805F0AA
:103C8000E3FFA24B186808F0CBF8009502460B46FC
:103C90009C4806F0F9FB9B4806F09EFB0E219C48D1
:103CA00005F0D2FF9B4B9748196806F0E5FB954855
:103CB00006F092FB0E21984805F0C6FF974B9148FD
:103CC000196806F0D9FB8F4806F086FB1621944848
:103CD00005F0BAFF934B8B48196806F0CDFB894875
:103CE00006F07AFB1721904805F0AEFF8F4B854810
:103CF000196806F0C1FB834806F06EFB8C4801F0A2
:103D000059F82846012104F0EBFF0121062004F0B8
:103D1000E7FF0121052004F0E3FF0121002004F06A
:103D2000DFFFFDF793F90021102004F0D9FF0020F8
:103D300004F0F4FC2846002104F0BEFF0121062017
:103D400004F0BAFF0021052004F0B6FF0021084668
:103D500004F0B2FF0021204604F0C2FF002103203E
:103D600004F0BEFF0021082004F0BAFF2046012124
:103D700004F0A2FF0121032004F09EFF012108208E
:103D800004F09AFF4FF4FA7004F0B0FF04F07CFFE7
:103D9000684B3860984240F37D810B216648DFF81C
:103DA000CC81664E05F050FF564806F015FB04F036
:103DB0006BFF0346014653483B6006F05DFB5148EC
:103DC00006F00AFB4FF47A7004F090FF04F05CFFF9
:103DD000034601464B483B6006F04EFB494806F05F
:103DE000FBFA01233C220221554804F019F9642012
:103DF00004F07CFFFDF796FF0A225249504806F076
:103E0000D7FA4F4806F0E8FA4D4804F013FAFDF7E8
:103E100089FF0A224B494A4806F0CAFA484806F088
:103E2000DBFA474804F006FA0121022004F044FFBF
:103E30006421454806F00CF8FEF732FCFCF7CEFF93
:103E4000424B012483F82047FFF7DAF9FCF7C6FF5D
:103E50003F4B404A1A600021042004F02DFF00214E
:103E6000032004F029FF0021082004F025FF21464B
:103E7000042004F035FF2146032004F031FF2146E1
:103E8000082004F02DFFFDF74DFF04F0FDFE386023
:103E900004F0FAFE304B31491B68D8F8002009685D
:103EA00090FBF3F02E4C00FB03339818012920609F
:103EB000336000F0F380104608F008FC294ADFF870
:103EC000B0901168284CDFF8ACB0DFF8ACA008F077
:103ED00051FC53E06C000020900600206C0700208D
:103EE00000007A440000FA4400409C4500409C4693
:103EF0008C0F00200CF0FF1F440F002060000020FA
:103F0000D845010088F5FF1FE4450100200F00207F
:103F1000F845010060060020084601007C070020EB
:103F200018460100B80F002030460100B0060020FE
:103F30006C1000207FC185564846010018070020FC
:103F400028060020544601000082FF1FBC07002005
:103F500088100020F107000000F0FF1F88070020F4
:103F60008407002040F0FF1F8C06002048F0FF1F50
:103F70002CF0FF1F5C000020980700204FF06E51CE
:103F800008F0F8FB08F0BCFD474AD9F800102060A3
:103F90001468464A0C1B24EAE47582FB05322A4465
:103FA000E817C0EBE22007F029FF07F041FA08F01C
:103FB0003BFA3F4C3F4ACBF8000004FB005482FB25
:103FC00004322244E017C0EB621007F017FF07F03D
:103FD0002FFA08F029FA384B0246A0EB001004EB48
:103FE000800410213548CAF800201C6005F02CFE22
:103FF000DBF80010324806F03FFADAF800103048DB
:1040000006F03AFA2C4B2E48196806F035FA2C487F
:1040100006F0E2F908212B4805F016FED8F800104A
:10402000274806F029FA264806F0D6F9082126483E
:1040300005F00AFED9F80010214806F01DFA2048C4
:1040400006F0CAF90E21214805F0FEFD3868FDF79B
:104050007FFE0C211E4805F0F7FD3068FDF778FE65
:1040600033683C681B481C1B152105F0EDFD2146FB
:10407000134806F001FA124806F0AEF91649174B3C
:1040800000204FF0FF3208601A6003B0BDE8F04F27
:10409000FCF7D4BD124804F0FDFD7EE6FDF79EFE60
:1040A000D8F8002007E700BF18F0FF1FC5B3A291A2
:1040B000F0F1FFFF89888888B40F0020B844010020
:1040C00088F5FF1F604601006C460100584401005E
:1040D0007846010088460100B8070020B406002099
:1040E00080C18556F8B50021054605F079FF002806
:1040F00055D0D5F81C710646002F4ED005F58E74AC
:104100003B1D224605F5907107F5827733F8020BC7
:1041100042F8040F9F42F9D1331D05F5477206F5A9
:10412000827733F8020B42F8040FBB42F9D1D5F87D
:10413000180180B105F5927200F5007E32F9043C59
:1041400030F9027B03FB07F3DB13864522F8043CBE
:1041500002F10402F2D105F5E56007F06DF895F87B
:104160002177EFB905F21C5C95F82027E64605F2A9
:104170001C7154F8043F23FB03F3B3FBF2F34EF836
:10418000043F7145F5D17B1CDBB2934220D085F80A
:104190002137D5F81C0105F0DFFEC5F81C61F8BD1C
:1041A00005F21C5C95F82027E64605F21C7154F8D0
:1041B000043F23FB03F35EF8040FB3FBF2F37145F6
:1041C0000344CEF80030F2D17B1CDBB29342DED147
:1041D0000023DFF83CE085F82137604605F116073B
:1041E00050F8044FB4FA84F381423EF81320B4FB34
:1041F000F2F31A444FEA5203B4FBF3F423444FEAB8
:10420000530327F8023FEBD1012385F82237C0E79B
:10421000E0480100002070470020704738B524298D
:1042200008BFC2800C46017A0E48154600F06EFEAB
:10423000C4F307210B4800F017FDE1B2094800F074
:1042400013FDC5F30721074800F00EFDE9B205484C
:1042500000F00AFD034800F03FFFB0FA80F040098B
:1042600038BD00BF6C10002038B50125044605712B
:10427000334800F09FFD052004F038FD204644F24D
:1042800060023021FFF7CAFF20466C222621FFF78B
:10429000C5FF20464FF4F9722821FFF7BFFF2046E3
:1042A00040F622722C21FFF7B9FF204644F2464225
:1042B0003C21FFF7B3FF204640F237122421FFF7DD
:1042C000ADFF204644F2FF023021FFF7A7FF732223
:1042D00002212046FFF7A2FF4FF4C87004F006FD4C
:1042E000204641F61D522E21FFF798FF0422114669
:1042F0002046FFF793FF20464FF498720621FFF700
:104300008DFF204610220A21FFF788FF2046002259
:104310000E21FFF783FF204643F63C421021FFF7B2
:104320007DFF204647F67F722221FFF777FF204668
:1043300036222421FFF772FF6572284638BD00BF80
:104340006C1000200F2928BF0F210F2A28BF0F2231
:1043500042EA01122021FFF761BF00BF38B50546D0
:10436000F1B1802903799ABFC1F1800444EA0424A1
:10437000002433B9224628462221BDE83840FFF701
:104380004DBFC288002322F0100203712421FFF7E1
:1043900045FF224628462221BDE83840FFF73EBFB0
:1043A0000123037147F67F722221FFF737FFEA8866
:1043B00042F01002284692B22421BDE83840FFF7AF
:1043C0002DBF00BF0B4610B507490446184608F03C
:1043D000D1F9064908F0C6F808F0B8FB01462046B6
:1043E000BDE81040FFF7BABF00000143EE7CFF3E7E
:1043F00010B5044619B1012911D0002010BD552275
:104400002021FFF70BFF0028F7D0E28842F00402DA
:10441000204692B22421BDE81040FFF7FFBE40F2D3
:1044200073122A21FFF7FAFE0028E6D08822202105
:104430002046FFF7F3FE0028DFD0E288204622F076
:1044400004022421BDE81040FFF7E8BE10B5044681
:1044500005F0A8FE204610BD024A0349034808F0B3
:1044600009BD00BFFCEFFF1F4D440000C40F00203A
:104470001B4A1C4B11681C48096970B49942127997
:10448000027009D2194A127832B3194A4FF08041AA
:10449000116003F5807402E01C46A3F58073154A91
:1044A000154912680D68AAB1A5B1144E308840288C
:1044B00010D841000A444030294402320231308091
:1044C00033F9040B22F8020F9C4233F9020C21F855
:1044D000020FF5D870BC704703F58074DFE700BFAA
:1044E000D40F002090E8FF1F1F800040CE0F002057
:1044F00008E200E0DC0F0020D00F0020CC0F0020ED
:10450000F8B5064605F0D4FC0446E8B105F0D0FC49
:10451000054600283AD072B61F4B1A887F2A19D850
:10452000002C31D01D490A6842B162B6204605F020
:1045300013FD2846BDE8F84005F00EBD18480C6094
:104540001A80056062B6F8BD054672B6124B1A882D
:104550007F2AE5D9114A12491768146000220C68B5
:104560001A800D6062B63946304605F01FFD3846A8
:1045700005F0F2FC30462146012205F017FD2046E9
:10458000BDE8F84005F0E8BC62B6F8BD204605F08D
:10459000E3FC2C46BFE700BFCC0F0020DC0F00205F
:1045A000D00F0020F8B5284C284E2046012105F0F8
:1045B00095FD00F083F8264B264A27484FF480618A
:1045C0001960236800211A6099802279186102F12C
:1045D000804202F5043240F20110D8809E614FF40F
:1045E0008075022006278E26DD82D960DD839860E3
:1045F0009F8398821170167005F016FD1749184BAD
:104600002279184F08701A7039682279164C174DA4
:10461000174E41F0124141F00101531139609B00E6
:10462000206803F1604302F1100703F5614302F0D3
:104630001F02012140F0104001FA02F2206045F80B
:1046400027601A60F8BD00BFD40F002000FEFFFFF6
:1046500014B00440A0F0024090E7FF1FCE0F0020EE
:104660001B80004080F0024000F0024000EAFF1F83
:1046700071440000024A0349034808F0FBBB00BF35
:10468000FCEFFF1F4D440000D40F0020024A0349F5
:10469000034808F0EFBB00BFFCEFFF1F4D440000D4
:1046A000E00F0020024A0349034808F0E3BB00BFC3
:1046B000FCEFFF1F4D440000E80F0020284B294964
:1046C0001A68294842F400421A600A6842F002025D
:1046D0000A601A6842F002021A600368002B3DDB90
:1046E000224B1B68002B39DB214A4FF086431360B5
:1046F0001368002BFCDBF0B51E4C1F48DFF8ACE064
:104700001E491F4B1F4A204F204E214D41F2100CD5
:10471000C4F800C0002404600120CEF80000DFF8D7
:1047200090E0C1F800E04FF480311960194B13603C
:10473000DFF880E0184A3A60346028601748CEF805
:104740000000174CB9671748174946F8503C4FF41A
:10475000C0632A61236003600B60F0BD704700BF37
:104760003C8004404080044000F0024080F0024061
:1047700000F1024004F1024060F0024008F0024003
:104780000CF0024010F0024014F00240E0F0024051
:1047900084F002401B0F0100000F0F0F03000047C1
:1047A00008B004400CB0044018B0044004F00240CB
:1047B0000300000788F00240024A0349034808F05A
:1047C00059BB00BFFCEFFF1F4D440000F00F00205D
:1047D000024A0349034808F04DBB00BFFCEFFF1F2E
:1047E0004D440000F80F0020024A0349034808F036
:1047F00041BB00BFFCEFFF1F4D4400000010002034
:10480000024A0349034808F035BB00BFFCEFFF1F15
:104810004D44000008100020024A0349034808F0F4
:1048200029BB00BFFCEFFF1F4D440000101000200B
:1048300010B50021044605F0D3FB98B194F8F6308A
:104840008BB194F8F43094F8F5200133342BC8BFC1
:104850000023934207D09A1D04EB8202DBB2506022
:1048600084F8F43010BDBDE8104005F075BB00BF02
:1048700090F8F42090F8F530D0B2DBB2984238BF0F
:104880003530C01A704700BF38B50546D0F8F00083
:1048900020B105F061FB0023C5F8F03095F8F54034
:1048A00095F8F430E4B2DBB29C420ED00134352CE2
:1048B00028BF0024A31D05EB8303586805F04CFBBB
:1048C00095F8F430DBB29C42F0D1DBB285F8F530DC
:1048D00038BD00BF0246D0F8F000B0B992F8F5300C
:1048E00092F8F410DBB28B4210D00133342B86BF28
:1048F00001460B46D9B2063302EB83035868C2F86F
:10490000F00082F8F510043070470020704700BFB7
:10491000D0F8F03043B110B50446184605F01CFB42
:104920000023C4F8F03010BD704700BF10B4047FFE
:104930004160022CC26002D010BC05F04DBC8368FF
:1049400010BC1847F0B4464B464A186BDC6A017934
:104950001170454922790A709A6A00790870002A14
:1049600046D05968C9688A423ED82168CC8B240455
:1049700002F1FF3065D4C0F30E00C883C88B80B24B
:10498000C882196B0968C88B000452D4C2F30E00A8
:10499000C883C88B002480B212F1FF32C88218BFCE
:1049A00001229C62D96A2E4809680D6800F124042E
:1049B000A54236D00068C46814F0804F0C680D68BA
:1049C00015BF248824780235013544F000440D6079
:1049D0004463196B254B09791970214912B1CA6AD0
:1049E00012791A70F0BC7047521A9A620122D9E704
:1049F000586B196805681E4C0A63CC62CC682D6838
:104A00001C4E24F080440327B542CC6083F8257007
:104A10001FD1037F4260022BC2601ED0F0BC05F0A4
:104A2000DBBB016890F82400CC6840F0004048638C
:104A3000CFE7CC8BC2F3080004F47E442043C88344
:104A4000A7E7CC8BC0F3080004F47E442043C8835E
:104A500094E72B461146F0BC18478368F0BC184712
:104A60004CF0FF1F1F8000401C8000401B80004056
:104A700000000FFF2D49000090E80C00F0B41C6806
:104A800059682568164F174E29432160164D17495E
:104A90001760D66015611160417A154A5C180A31B9
:104AA00094F8244053F8215002EBC40149680D608A
:104AB000017A5C1803EB8101247ECD6902EBC4010D
:104AC00049680D60817A581803EB810390F8300033
:104AD000596B02EBC002F0BC53681960704700BF0D
:104AE00001401F00011000380110007800001F80F5
:104AF000A04F01004268036805CA10B4046822434D
:104B00000260D868840100F0E06205D5080900F46D
:104B1000706021F470410143D8681143814209D08B
:104B20001A68500408D40748186041F08040D960E2
:104B300018611A6010BC704741F08042D96010BC07
:104B40001A61704701401F004268437A134493F88A
:104B500024308B4209D0F0B492F824408C4205D026
:104B600092F825408C421AD0F0BC704700242146B0
:104B70001668556836682E420FD00A4D05EBC30300
:104B800000275E685318376093F8243005EBC3059F
:104B90000A316B6852F821201A604472E4E701245C
:104BA0002146E5E7A04F01004268037A13441B7ECB
:104BB0008B4207D0F0B4147E8C4204D0547E8C42D9
:104BC0001AD0F0BC70470024214616685568366834
:104BD0002E420FD00A4D05EBC30300275E68531821
:104BE00037601B7E063105EBC30502EB81026B6863
:104BF00052681A600472E4E701242146E5E700BF29
:104C0000A04F01004268837A134493F830308B42FE
:104C100009D0F0B492F830408C4205D092F831407F
:104C20008C421BD0F0BC70470024214616685568A2
:104C300036682E4210D00B4D05EBC30300275E688B
:104C40005318376093F830300C3105EBC30502EB95
:104C500081026B6852681A608472E3E7012421467E
:104C6000E4E700BFA04F01000A4B1B7813B90A4BC1
:104C70001B786BB1094A1378202B07D810B4581C45
:104C8000074C1070E154012010BC704701230371E0
:104C9000002070477E100020411000207F1000206F
:104CA00020100020704700BF024A034B10781B7889
:104CB000C01A70477D1000207C100020064A07496A
:104CC00013780978994204D90548591CC05C1170C1
:104CD00070474FF0FF3070477C1000207D1000209F
:104CE00044100020054B064A1B7812789A4286BF72
:104CF000044AD05C4FF0FF30704700BF7C100020AA
:104D00007D1000204410002070B50D4B1B78144618
:104D100013B90C4B1B788BB10B4E3578C5F12103C1
:104D2000A34202D201221C460271084822462844AE
:104D3000254403F047FB3570204670BD184670BD12
:104D40007E100020411000207F1000202010002045
:104D5000124BDB7803F020034BB1114A1378013377
:104D6000DBB2012B137012D9122003F049BF10B52A
:104D7000122003F0FF0403F043FF0A4B1B685BB1F2
:104D800009490A4A0C701078BDE810401847084BD2
:104D90001B78002BE8D0704710BD00BF00600640B4
:104DA000681000201C1000207C1000207D100020C6
:104DB000411000200D4A0E4BF0B500200D4C107034
:104DC0002268DFF838E00C4F42F0400222604FF4D6
:104DD000197127260425202480229870CEF800100F
:104DE00039605E709D715C719A70F0BD4110002059
:104DF000006006403480044008A004400CA0044039
:104E000010B5384CE378DBB2D80623D5102259060A
:104E1000E2701ED503F0040303F0FF02002B33D031
:104E2000314B32491A68324C00230B702370002A30
:104E30003BD090472378002B37D02E4B1B78294A44
:104E40002D49D02494701371264B01200222087042
:104E5000DA7010BD5A06DDD4A27802F0100202F01A
:104E6000FF0042B313F001031BD1234920480A7805
:104E70000078904281BF1F4B501C9B5C08702371CF
:104E8000184BD0229A7008E01C48164B1749027044
:104E90000120C02208709A701B79124B0222DA702E
:104EA00010BDC023A3702379F7E712490023012224
:104EB0000B702270C3E7124B1249187003221220A4
:104EC00003F022FE0D4923790A781F2ADBB2E4D8C9
:104ED000064800780028E0D00B4C501CA354087002
:104EE000DBE700BF006006406410002018100020BF
:104EF0007F10002020100020801000207D10002056
:104F000068100020514D0000441000200548064A5A
:104F100010B40123054C037049001370217010BCBC
:104F2000704700BF7E1000207F100020201000205E
:104F30002DE9F047584C1223E370A37803F02003C7
:104F400082B0002B54D0B423DFF860A1A370DAF84C
:104F50000020514C0020E378DBB2934218BF0120BF
:104F60009F061A46F7D5002840F08D804B4B1B78E2
:104F7000002B34D003F1FF3C5FFA8CFC0027DAF8F9
:104F80000020DFF82CE1444D0CF1010C3C464FF0C1
:104F900002081EF8013F2B715FFA87F9104601E005
:104FA0009E0608D5EB78DBB293421CBF184601245D
:104FB0009E071A46F4D585F80380EE78F6B2B34220
:104FC0000EBF024632460124F30633D4B30631D570
:104FD000F30744D401376745DBD1002C4AD10020C8
:104FE00000292ED12E4B00221A7002B0BDE8F087A6
:104FF0002C4DDFF8B8A003F0FF022B680093009E51
:10500000DAF8000005E02B680193019B9B1B0F2B36
:105010001BD8E378DBB2834218BF012213F0200FC4
:105020001846F0D192BB20481B4B0024B0220470DC
:105030009A708CE70CBB184B80229A7004200029D0
:10504000D0D0154B80229A70CCE7CAB9124B002100
:105050008022042099709A7002B0BDE8F087C4B92C
:105060000D4BB9F1000F4FF080020CBF022003205E
:105070009A70B7E7CAF80020B1E7CAF80020DAE76B
:10508000CAF80000E2E7CAF800306FE7CAF800305B
:10509000C9E7CAF80020E3E7006006407F1000205F
:1050A0007E100020E01000204110002084F0FF1F3F
:1050B0001F1000200548064A10B40123054C037058
:1050C00049001370217010BC704700BF7E10002093
:1050D0007F100020201000200121FFF729BF00BF12
:1050E000044B054A1A604FF47A71002299601A71D4
:1050F0001A7370476C100020A449010038B50446AB
:105100000D462422002108F0E1FAA560EB79102B6E
:1051100008D0202B04D1402301202370A07038BD7B
:10512000002038BD202301202370A07038BD00BFAF
:105130002DE9F041037803F020032BB903F0FF04BD
:105140004269204B9A4203D900263046BDE8F081DF
:1051500083780169054663F07F038068AB7005F1D1
:10516000100201F099F806460028EDD02969A868D8
:1051700001F02EF80746A86839462430052200F0D1
:10518000F1FF80460028DFD04FF40072214608F07E
:105190009DFAAB681A79012A0FD9012403E0AB68A4
:1051A0001A79A24209D9E1191868424601F02CFC8B
:1051B0000134E4B20028F2D1C6E76B6903EB422266
:1051C0006A61C2E7FFFD1F0010B5044680680A4609
:1051D0002430A16900F0C6FF20B1A38803F00F03BB
:1051E00000EB431010BD00BF38B590F90230002B22
:1051F000044612DBA56805F1240000F0E1FF28B9A0
:10520000637843F001036370002038BD05F50C702E
:1052100000F0D6FF0028F3D038BD0121FFF7D4FFFE
:1052200005460028ECD00378E52BE9D023780B4A1B
:105230001B0744BFE369C361236A126843831B0CE5
:1052400083822AB100F11601183090472B8B6B82B4
:10525000A37803F07F03A370CCE700BF8810002081
:1052600010B5037804461BB900232370012010BD3C
:10527000FFF7BAFF0023237010BD00BF2DE9F043F4
:105280000D7815F0700F89B003D1002009B0BDE88A
:10529000F083C32304460D4600F05EFD0028F4D0E1
:1052A00001221023A27023702046FFF741FF00283F
:1052B000EBD0237822692262002B6ED10121204697
:1052C000FFF782FF06460028DFD01023C3728268F2
:1052D0007168F3680068B6F81480B6F81A906F46E3
:1052E0000FC77169B269F369306908AE0FC72E2321
:1052F00006F8203D0DF10A013346202203F8012F64
:105300008B42FBD1216AA06800F062FFA3680146CE
:10531000012203F1240000F025FF86460028B4D0C6
:105320003746ADF81480ADF81A900FCFCEF80000D4
:10533000CEF80410CEF80820CEF80C300FCFCEF8FF
:105340001000CEF81410CEF81820CEF81C302B6ABE
:10535000ADF81A302E221B0C3546ADF814308DF8FE
:1053600001200FCD0EF12006CEF820007160B26052
:10537000F3600FCD30617161B261F361A46804F133
:10538000240000F01DFF00283FF47FAF04F50C70EF
:1053900009B0BDE8F04300F013BF636913B1002307
:1053A000236163612046FFF71FFF00283FF46DAFC4
:1053B00084E700BFF0B5064693B03578019200202F
:1053C0008DF824008DF825002DB91F460B7813F0B9
:1053D000700F0C4602D1002013B0F0BD13782F2BB4
:1053E000104628D001AA03A900F034FB03AA2146E5
:1053F00001230028EFD0019D2D783046002D2CD0C0
:1054000000F0AAFC40B9002FE5D0214603AA30469F
:10541000FFF734FF0028DED035460FCD09AC0FC4AE
:105420000FCD0FC433782A68226093B900233370FC
:10543000019809ACD6E70130019003782F2BFAD000
:10544000A16809A8FFF75AFE0028C4D0019809AC4A
:10545000C8E73046FFF7C8FEE8E703AA2146304612
:10546000FFF70CFF13B0F0BDF0B5064693B03578EA
:10547000019200208DF824008DF825002DB91F46DB
:105480000B7813F0700F0C4602D1002013B0F0BD62
:1054900013782F2B104616D10130019003782F2B53
:1054A000FAD0002B34D0A16809A8FFF727FE002806
:1054B000EBD0019809AC06E03046FFF795FE0023DB
:1054C0000198337009AC01AA03A900F0C3FA03AA3A
:1054D000214601230028D8D0019D2D7830467DB18A
:1054E00000F03AFC354609AC0028CED00FCD0FC4F1
:1054F0000FCD0FC433782A682260002BDFD0DBE7A2
:105500003B4603AA2146304600F026FC13B0F0BD0E
:10551000A1683046FFF7F2FDB8E700BF03780BB192
:1055200000207047FFF7EABD2DE9F04F0F460178E4
:1055300083B0054611B18378DC0708D46B784FF04F
:10554000FF3043F002036B7003B0BDE8F08F0B0730
:10555000914600F18580880608D5AA686B69128992
:10556000C3EB42139BB2994528BF9946B9F1000F8E
:1055700000F094806B698A064E464FF0000805F1F2
:10558000100AC3F3080B3DD5AA68116A01EB532139
:10559000BBF1000F50D1B6F5007F4DD3D36A9942CD
:1055A0004AD0B6F5806F64D328788006C6F3472BBF
:1055B00006D41079C8EB0000C0B2834528BF8346EB
:1055C00099424FEA4B240BD85B44994208D202F12E
:1055D0002400019100F0F4FD0028AFD0AA680199E1
:1055E00010685B463A4601F0C7F90028A6D06B69FF
:1055F000361B234427446B6150D029788A06C3F3B5
:10560000080BC1D4A86890F8058008EA5328BBF1BC
:10561000000F2CD1B8F1000F29D1002B33D14C064B
:105620004CBF016A296A296100F0D2FDAA6808EB23
:105630000001BBF1000FAED002F12400002200F007
:1056400091FD00283FF47AAFCBF50074B44228BF37
:10565000344600EB0B012246384602F0B3FEC6E7A3
:10566000EB696A699B1A994528BF99467EE72969C3
:10567000DAE710683A4601F0C5F800283FF45EAF5B
:105680004FF40074B3E75246296900F0A7FD0028E3
:10569000FFF654AF08D0A8682969C5E70026C6EB15
:1056A000090003B0BDE8F08F2B7813F0700FF6D12E
:1056B00044E700BF70B582B001220DF10701044636
:1056C00046690569FFF730FF012805BF9DF807000F
:1056D00066614FF0FF30256102B070BD30B543699F
:1056E000C3F3431583B0044605B189B901220DF116
:1056F00007012046FFF718FF40B201280BD163696C
:105700001F336361A068303000EB451003B030BD3B
:1057100020334361F6E7002003B030BD2DE9F041AE
:1057200003780769044693B142698A420E4636D02F
:1057300021B9216166610120BDE8F08118070AD412
:1057400099060BD5A3681B89B6EB431FF2D92761D5
:105750000020BDE8F081E1698E42F8D8D4F808E075
:105760009EF80650511E05F10900751EC140C54046
:10577000A94200D8B2B95B064CBFDEF82030236ADC
:10578000236104F110084246002DD3D02169A0689E
:1057900000F024FD002805F1FF35F4DCD7E70120F7
:1057A000BDE8F0816D1AECE72DE9F0418846154619
:1057B0000021242204461E469DF8187007F086FF3B
:1057C000D8F80800D8F82030E36005F00F02520145
:1057D00000F130011144A060A580CB7A1B0714D4DE
:1057E000831893F83B3003F017032370C97AE770EE
:1057F00011F0180F04BF43F00803237016F0320FA6
:1058000007D0237813F0110F03D000202070BDE8DB
:10581000F08106F00F05A5700244C36AA361B2F8D7
:105820004410B2F84A30F70643EA014107D4216236
:10583000D36CE361B30607D40120BDE8F08151B910
:1058400065F07F05A570F5E7E1692046FFF766FF83
:105850000028F1D1D9E700F05BFD0028D5D0A5786C
:10586000EEE700BF03780BB1FFF7BEBC0120704725
:105870002DE9F84F03781E0704466ED583789D07FF
:105880006BD55B070F46904600F1CB806369DA4326
:10589000904562D8B8F1000F00F0B48046464FF052
:1058A000000932E0002940F08180216A002900F0DF
:1058B0008880216100F08CFC0146B6F5007F54D34E
:1058C000B6F5806F65D3A2681379D06A5B1BDBB233
:1058D000C6F34725AB4228BF2B4681424FEA4325FA
:1058E00008D81844814205D282F824904FF0FF3046
:1058F000D062A26810683A4601F018F968B363698B
:10590000761B2B442F4463617CD0A06821694579C4
:1059100015EA5325C3F3080A34D1BAF1000FC1D0F8
:1059200000F056FC0146CAF50075B54228BF354661
:105930000122A068243000F015FC70B150442A46C2
:105940003946AA4402F03EFDBAF5007FD7D1A068DF
:10595000243000F035FC0028D1D1637843F00103F6
:1059600063704FF0FF30BDE8F88F6369E269B6F508
:10597000007F354628BF4FF40075934234BF0122A3
:105980000522D6E700F024FC2918BAF1000F94D0C4
:10599000C9E7A368DA6A914221D018683A4601F053
:1059A00033F80028D9D04FF40075A8E704F1100BA4
:1059B0005A4600F013FC0028CFDB17D0A0682169FD
:1059C00078E7A37863F07F03A37004F1100200F07E
:1059D00063FC0028C1D021692162A0686AE783F8CE
:1059E00024904FF0FF32DA62A368D6E7A3782169EA
:1059F000A06863F07F035A46A37000F04DFC0028B6
:105A0000DCD1AAE7E2699A4212D2A278E36142F0BD
:105A10008003A3701A0701D523788BB94046BDE8EF
:105A2000F88FE169FFF77AFE00287FF42FAF94E743
:105A3000074B1B6853B1A37843F08003A370E9E7D9
:105A40002046FFF7D1FB0028E8D186E7A378E1E7FD
:105A5000881000202DE9F04F0378202B03D110F897
:105A6000013F202BFBD088600378002B00F00781DA
:105A70002F2B2FD05C2B22D0A3F12204E4B21D2CBB
:105A800020D9DFF818E2461C00247C2BA3F1200566
:105A9000374614D05E2D12D816F8013BA3F122052B
:105AA000EDB20134002B00F0D3802F2B13D05C2BF0
:105AB0002EFA05F703D01D2DE7D8FF07E5D5002006
:105AC000BDE8F08F754D25FA04F4E407D9D5002020
:105AD000BDE8F08F002407193E4625462F2302E03B
