:1000000000800020BD010000D5B200008DB20000CC
:100010008DB200008DB200008DB200008DB20000E4
:100020008DB200008DB200008DB20000D5B200008C
:10003000D5B200008DB200003DCF00008DD1000090
:10004000D5B20000D5B20000D5B20000D5B2000094
:10005000D5B20000D5B20000D5B20000D5B2000084
:10006000D5B20000D5B20000D5B20000D5B2000074
:10007000D5B20000D5B20000D5B20000D5B2000064
:10008000D5B20000D5B20000D5B20000D5B2000054
:10009000D5B20000D5B20000D5B20000D5B2000044
:1000A000C9510000D5B20000D5B20000D5B20000A1
:1000B000D5B20000D5B20000D5B20000D5B2000024
:1000C000D5B20000D5B20000D5B20000D5B2000014
:1000D000D5B20000D5B20000D5B20000D5B2000004
:1000E000D5B20000D5B20000D5B20000D5B20000F4
:1000F000D5B2000091D60000D5B20000BDD70000F7
:10010000D5B20000E9D80000D5B20000D5B2000099
:10011000D5B20000D5B20000D5B20000D5B20000C3
:10012000D5B20000D5B20000D5B20000D5B20000B3
:10013000D5B20000D5B20000D5B20000D5B20000A3
:10014000D5B20000D5B20000D5B20000D5B2000093
:10015000D5B20000D5B20000D5B20000D5B2000083
:10016000D5B2000039BA0000D5B20000D5B2000007
:10017000D5B20000D5B20000D5B20000D5B2000063
:10018000D5B20000D5B20000D5B20000D5B2000053
:10019000D5B20000D5B20000D5B20000D5B2000043
:1001A000D5B20000D5B20000D5B20000D5B2000033
:1001B000D5B20000D5B20000C9CC0000564B4CF2BD
:1001C000205210B51A804DF628121A8000BF00BFC9
:1001D00000F06CFB514B4FF010621A60504A9A606D
:1001E000504ADA60504A136813F4807304D14F49BF
:1001F0000B604FF4A85313604D4B1A78110703D5C9
:100200001A7842F008021A704A4B4B492A221A7097
:100210004A4A4B4B8B4204D252F8040F43F8040B6A
:10022000F8E7484B484900228B4202D243F8042B9E
:10023000FAE74649464A002352F8230041F82300D2
:1002400001336F2BF8D1434B434A802103F8011B44
:100250009342FBD1414B3D4A1A60414B8A221A70AE
:10026000A3F5805324225A70A0221A709A7992071B
:10027000FCD59A79D406FCD43A4A937903F00C035E
:10028000082B384BF9D105221A7143225A719A79F9
:100290009006FCD5334A9179324B4906FBD5324A58
:1002A0004FF0817111600521516020221A709A79F6
:1002B00002F00C020C2AFAD12C4B2D4A1A602D4B5D
:1002C0002D4A1A6000225A60072243F8042C2B4A58
:1002D000C3F80C2D62B60BF01FF9144B1B68DA073C
:1002E00005D527480BF006F9264B274A1A60274BFD
:1002F0001B785B0609D5234C234B22689A4204D114
:100300001F480BF0F7F8002323600EF0BBFE0AF045
:10031000E5FF0DF01BF9FEE70E200540308004409C
:10032000823F04000100002B10D0034014D0034092
:1003300002D0074000E00740F009002048740100A7
:1003400020F9FF1FF00900200457002000F4FF1FD0
:100350000000000000E400E05FE400E008ED00E0E1
:1003600000500640004006404480044004800440A1
:10037000C010050014E000E03F190100000020203B
:10038000EB32555D1CE00340A5C3945A00F00740D2
:10039000FFFFFFFFFFFFFFFFFFFFFFFFFFFFFFFF6D
:1003A000FFFFFFFFFFFFFFFFFFFFFFFFFFFFFFFF5D
:1003B000FFFFFFFFFFFFFFFFFFFFFFFFFFFFFFFF4D
:1003C000FFFFFFFFFFFFFFFFFFFFFFFFFFFFFFFF3D
:1003D000FFFFFFFFFFFFFFFFFFFFFFFFFFFFFFFF2D
:1003E000FFFFFFFFFFFFFFFFFFFFFFFFFFFFFFFF1D
:1003F000FFFFFFFFFFFFFFFFFFFFFFFFFFFFFFFF0D
:10040000FFFFFFFFFFFFFFFFFFFFFFFFDEF9FFFF23
:1004100010B5054C237833B9044B13B10448AFF33E
:1004200000800123237010BDF009002000000000AF
:1004300044740100084B10B51BB108490848AFF3DC
:1004400000800848036803B910BD074B002BFBD0A0
:10045000BDE81040184700BF00000000F40900206C
:1004600044740100F00900200000000000207047E3
:10047000704700BF027C02F0080202F0FF0332B1B5
:10048000C36A406A181A48BF6FF0004070471846A8
:10049000704700BFF8B55548554D564C297803783C
:1004A0002278DFF868E1544F544E120442EA0323E5
:1004B000FF222A700270802022708EF800003870AF
:1004C000B2794F480B4312F00C0FC36002D1B379DD
:1004D000DC063DD4494A9379C3F38103032B40D012
:1004E000464B9A79C2F38102022A42D0434A937959
:1004F000C3F38103022B53D0404A9379C3F38103A2
:10050000022B61D03D4A9379C3F38103012B51D073
:100510003A4A9379C3F38103012B5CD0374B9A7924
:1005200012F00C0F03D19A79D20600D49B79354D85
:10053000354B2A7853F82240D4B1236820469B6873
:1005400098472B7804EB83046468002CF5D1F8BD40
:10055000B3799806EBD5294A9379C3F38103032B2A
:10056000BED19379D906BBD493799B06DFD4B7E784
:10057000F8BD9A79D706B9D49A799606B6D559783E
:1005800001F0020101F0FF020029AFD120211A7011
:100590001A461970937903F00C030C2BFAD1C6E7B5
:1005A0009379DD06A8D493799C06A5D4537898074F
:1005B000BDD5A1E79379DF06AAD593799E06A7D486
:1005C00053789D07B3D4A3E79379D9069AD4537887
:1005D0009B07ACD496E79379DC069FD59379980670
:1005E0009CD453789907A2D598E700BF06C007406E
:1005F00005C0074007C0074009C00740004006404B
:10060000DC560020B45300207453002008C007407B
:1006100090F92410104B03604B1C06D0F0B40F4E21
:1006200056F82130984201D0F0BC70470C4F57F873
:10063000213033B18D0000245A1953685460002BC7
:10064000FAD1084C23780022013B237047F821207F
:1006500046F82120E8E700BF0C6301009453002016
:1006600074530020B553002038B590F924506B1C0A
:100670001BD00E4B0E4953F825400E4BEDB24FF0F8
:10068000FF320D701A6084B1AD0002E02C44646842
:100690005CB194F82530002BF8D0236820462C4418
:1006A0001B6898476468002CF3D138BD7453002050
:1006B000B4530020B8F3FF1F704700BF90F9241017
:1006C000104B03604B1C06D0F0B40F4E56F821308F
:1006D000984201D0F0BC70470C4F57F8213033B12D
:1006E0008D0000245A1953685460002BFAD1084C2D
:1006F00023780022013B237047F8212046F821206F
:10070000E8E700BF0C6301009453002074530020FD
:10071000B553002090F92410104B03604B1C06D0F9
:10072000F0B40F4E56F82130984201D0F0BC70471B
:100730000C4F57F8213033B18D0000245A195368FB
:100740005460002BFAD1084C23780022013B23701F
:1007500047F8212046F82120E8E700BF0C6301009C
:100760009453002074530020B553002010B500218D
:1007700004460CF0EFF9B0B1B4F8B4319BB2C3B198
:10078000B4F8B031B4F8B2219BB20133632BC8BFC7
:10079000002392B2934207D09A1D04EB82029BB2CF
:1007A0005060A4F8B03110BDD4F8B8310133C4F8AA
:1007B000B831BDE810400CF089B900BF103005F029
:1007C000F3BC00BF00B583B002AB012203F8011DEA
:1007D0001030194605F0E8FC03B05DF804FB00BFDB
:1007E000103005F0BDBB00BF00B583B001220DF194
:1007F0000701103005F0EEFA01280CBF9DF8070044
:100800004FF0FF3003B05DF804FB00BF103005F07F
:100810007DBC00BF2DE9F0410E4680460AF064FE23
:10082000174D286008F02CF80746286808F004F8EF
:100830000446286807F0EEFF6401C0B204F4FF54D8
:10084000BFB20443A7F2BC7744EA4724A8F80040AB
:10085000286808F003F80746286807F0B7FF044641
:10086000286807F0C5FFFF02640107F4FF2704F4BE
:10087000FF54C0F346003C4304433480BDE8F0819C
:10088000F44E002010B504460CF0A4F9204610BD2B
:1008900010B504460FF0B4FA21460246BDE81040F8
:1008A00001480CF07BBC00BFC4510020464A474BB6
:1008B000102010801B781B0734D5F0B5444E454DF1
:1008C000454C31782B782278DFF82CE1434F824079
:1008D00042EA03230B43FF22802132702A702270E8
:1008E0008EF800103970D9073D4A14D51A23936049
:1008F0003C4F3D4E3D4D3E4C3E49107900233B70F0
:1009000053709370D370D360337013712B70237056
:1009100013700870F0BD1F0705D4DE0606D504234A
:100920009360E5E7704721239360E1E79D0604D4D7
:100930005C0604D516239360DAE79060D8E71806C2
:1009400002D509239360D3E7D90502D50A23936022
:10095000CEE79F0502D50D239360C9E75E0502D55A
:100960000B239360C4E71D0502D51E239360BFE7E8
:10097000DC0402D502239360BAE7980402D507236A
:100980009360B5E7590402D506239360B0E71F04CE
:1009900002D515239360ABE7DE0302D524239360D1
:1009A000A6E79D0302D522239360A1E7DC0202D5CE
:1009B000252393609CE71803F5D45903F3D49B02D5
:1009C00044BF2323936093E70020054002D00740F3
:1009D00005C0074006C0074007C0074009C00740E0
:1009E000DC56002000C0074001C0074002C007409D
:1009F00003C0074004C0074008C00740002976D064
:100A00002DE9F04F0C469100631883B05D68002D0E
:100A100057D06B185E68002E50D073185F68002F97
:100A200049D07B18D3F80480B8F1000F3CD008EB14
:100A30000103D3F80490B9F1000F32D009EB0103A0
:100A4000D3F804A0BAF1000F27D00AEB0103D3F8C2
:100A500004B0BBF1000F18D00BEB01035B6863B16E
:100A6000194401934968FFF7C9FF019B93F82520BA
:100A70001AB11A681846536898479BF8253023B175
:100A8000DBF8003058465B6898479AF8253023B168
:100A9000DAF8003050465B68984799F82530002B0B
:100AA00035D198F8253063BB97F825301BB13B68EA
:100AB00038465B68984796F82530CBB995F82530CD
:100AC00063B994F8253013B903B0BDE8F08F2368FB
:100AD0005B68204603B0BDE8F04F18472B682846F6
:100AE0005B68984794F82530002BEDD0EFE770470E
:100AF000336830465B68984795F82530002BE0D086
:100B0000ECE7D8F8003040465B689847CCE7D9F866
:100B1000003048465B689847C3E700BF90F924203F
:100B2000531C26D01B4B2DE9F04153F82240D2B282
:100B3000ECB19300E1184D68B5B1E9184E6866B1A3
:100B4000F1184F6837B13B445968FFF757FF97F8E2
:100B50002530A3B996F8253063B995F825301BB137
:100B60002B6828465B68984794F8253063B9BDE840
:100B7000F0817047336830465B689847EDE73B6823
:100B800038465B689847E5E7236820465B68BDE820
:100B9000F0411847745300202DE9F8434F4CB4F846
:100BA000B021B4F8B23192B29BB29A4238BF6432EB
:100BB000D31A3F2B67DD4A4DD4F8AC91DFF81C8186
:100BC00005F58047002637E04FF48072002109F0D8
:100BD000A3FF48460BF07AFFC4F8AC61B4F8B23119
:100BE000B4F8B0219BB292B293424ED00133632B42
:100BF00086BF4FF0000E73461FFA83FE063304EBE8
:100C000083034FF48072D3F80490C4F8AC9109F1D7
:100C100004012846A4F8B2E109F07EFFB9F1000F03
:100C200004D048460BF052FFC8F8AC6105F50075DA
:100C3000BD424FF0000934D0A5F58070B9F1000F26
:100C4000C2D1B4F8B231B4F8B0219BB292B293429F
:100C50003DD00133632B86BFCE4673461FFA83FE19
:100C6000063304EB83034FF48072D3F80490C4F886
:100C7000AC9109F10401A4F8B2E109F04DFFB9F11A
:100C8000000FABD0A5E7BDE8F88328464FF480728B
:100C9000002105F5007509F03FFFBD424FF0000946
:100CA000CAD14FF480420F490F4805F07DFA013058
:100CB00005D00E4A136820331360BDE8F883012184
:100CC00014200AF07DFA0A4B0A4A1A60F1E74946F5
:100CD0004FF4807209F020FF80E700BF084F00202A
:100CE000780B0020780A0020500A0020044F0020D2
:100CF0000CED00E00400FA0508B50849084A094B64
:100D00000988118008480022A3F8B42104F00AFEE3
:100D10006420BDE808400AF065BD00BFF45400201F
:100D2000CC540020084F0020500A00202DE9F04F3D
:100D300095B00AF0D9FBDFF82893B84CC9F8000049
:100D400007F07AFD2368984200F05D82D9F8000030
:100D5000B34EB44F07F070FD2060D9F8000007F0E3
:100D60008FFD2368B0490246B0480EF0EBFF002427
:100D70000123AE4AAE49376007A88DF81C408DF8B4
:100D80001D4004F0EBFEDFF8A482002110200AF0E1
:100D9000EDFC98F8002000232F2A8DF81C308DF8E8
:100DA0001D3000F0B48107AC204601239F4AA049C2
:100DB00004F070FF58B19DF81C3013F0700F06D08E
:100DC0000FCC9B4D0FC50FCC0FC523682B60D9F8F6
:100DD000000007F055FD0446D9F8000007F02CFD8F
:100DE0008246D9F8000007F015FD0590D9F80000FB
:100DF00007F034FD8346D9F8000007F0E7FC0490C3
:100E0000D9F8000007F0F4FC059A049B00920390C7
:100E100002932246CDF804B05346864986480EF028
:100E200091FF00250824376010200AF0ADF80DF07E
:100E300009FD4FF06A510DF059FD014628460DF0AD
:100E40004DFC013C0546EFD17948DFF8189204F0DB
:100E500069FD7A4901F23C4004F09CFF4FF47A7638
:100E600046230BA8764A72498DF82C408DF82D4008
:100E70008DF820408DF828400996CDF81C9004F09C
:100E800009FF9DF82C30002B40F04F8101211420E8
:100E90000AF096F96B4B6C4A1A6098F80020634987
:100EA00000232F2A8DF81C308DF81D3000F0228190
:100EB00007A801235D4A5E4904F0ECFE60B19DF88D
:100EC0001C3013F0700F07D007AC0FCC584D0FC576
:100ED0000FCC0FC523682B604FF47A750024099559
:100EE000C223554A52498DF82C400BA80BAD8DF802
:100EF0002D408DF820408DF82840CDF81C9004F04E
:100F0000C9FE0FCD514E9DF82040347106F11004FA
:100F10000FC40FCD0FC4099A9DF828302968B2601C
:100F20003373454821600EF06BFF01464248484F3D
:100F3000DFF810B1DFF810A10BF0F0FB45480CF022
:100F40009BF946E004F0A6FE60B19DF81C30384DD8
:100F500013F0700F07AC05D00FCC0FC50FCC0FC529
:100F600023682B604FF47A750024C223324A30493B
:100F700009950BA80BAD8DF82C408DF82D408DF800
:100F800020408DF82840CDF81C9004F083FE0FCD52
:100F9000314C9DF820E086F804E00FC40FCD0FC45B
:100FA0009DF82830099A33732968B260224821607D
:100FB0000EF026FF014620480BF0B0FB25480CF050
:100FC0005BF90A200AF00EFC3B68B3F57A7F00F368
:100FD0008A80347C21491848002C45D13B68013374
:100FE0001A463B600EF0AEFE98F800500F4A1049CA
:100FF0008DF81C402F2D4FF0010307A88DF81D40E0
:10100000A0D15478002C9DD1084604F08BFC0B49EC
:1010100001F23C4004F0BEFEA4E700BF30520020C5
:10102000705300201508000030630100D8500020E4
:10103000B84E00203C6301009C5100207C4A0020F7
:101040005C6301000CED00E00400FA05400A00209A
:10105000D450002090FFFF1F500A00209C63010025
:10106000F44E0020E8620100914892490768924CD2
:10107000924A934B934D03C9206092E80300A0600D
:1010800093E8030010260123A382E382E060266137
:1010900038460DF017FE3946A06138460DF01EFBAC
:1010A0000DF010FE884AE0612B68668492E8030028
:1010B0005B0203F124062C2260622146022783484A
:1010C000A3622784666005F06FF8092180480BF061
:1010D00025FB29687F480CF077F87E480CF0CCF8A7
:1010E00015B0BDE8F08F012114200AF069F8CBF8A3
:1010F00000A06EE74B78002B7FF4DAAE764804F060
:1011000011FC764901F23C4004F044FEE4E698F814
:101110000130002B7FF447AE6F4804F003FC6F49A9
:1011200001F23C4004F036FE51E66D486D4E0EF083
:1011300067FE6B4902460BA805F036F814A92C236C
:1011400001F8383D01220DEB030005F02DF806F102
:10115000080707AC16F8011F00230A2220460CF0EE
:10116000B1F8B742F6D128465F490DF0BFFB4FF00A
:1011700078510DF0BBFB14A92C260546012201F87D
:10118000356D0DEB060005F00FF8584B18680CF0A4
:1011900003FF02270B460246009720460CF0D4F8C6
:1011A00014A9012201F8366D0DEB060004F0FCFFD6
:1011B00028460CF0F1FE00970B46024620460CF044
:1011C000C3F814A9012201F8376D0DEB060004F0F5
:1011D000EBFF47480EF014FE454902460DEB0600B2
:1011E00004F0E2FF20460CF047F8284641490DF094
:1011F0001BFD58B9284640490DF016FD18BB0BA839
:1012000004F090FB49E63D4E3D4FBCE53D4E336852
:10121000002BEFD0012105200AF076FA40F6B83015
:101220000AF0E0FA002105200AF06EFA364A374942
:10123000002313700BA80B22336004F0B5FF204687
:101240000CF01AF8D6E7282231490BA804F0ACFFBD
:1012500020460CF011F80BA804F064FB00250824CC
:10126000102009F091FE0DF0EDFA4FF06A510DF0EB
:101270003DFB014628460DF031FA013C0546EFD111
:1012800019490DF033FB4FF078510DF02FFB214938
:101290000DF0CAFC20B147F230500AF0A3FADDE7A6
:1012A0000121142009F08CFF1B4B1C4A1A60A6E791
:1012B00010520020A863010080520020B06301009A
:1012C000B8630100FC510020C0630100500A0020F7
:1012D000C863010090FFFF1FB84E00207C4A002029
:1012E0009C5100205F510020CDCCBC406C510020AF
:1012F0000CFAFF1F66664640000040407053002015
:101300001508000008FAFF1F014F00206463010068
:1013100070630100333353400CED00E00400FA0524
:1013200038B5154DFFF702FD144BD5F8AC0100247C
:101330001C6018B10BF0CAFBC5F8AC41B5F8B2415E
:10134000B5F8B031A4B29BB29C420ED00134642CEB
:1013500028BF0024A31D05EB830358680BF0B6FBE0
:10136000B5F8B0319BB2A342F0D1A4B20123A5F8E5
:10137000B241A5F8B43138BD084F0020044F002019
:1013800070B517488EB004F0CDFA16490EAD01F2D3
:101390003C4004F0FFFC144B45F8343D0024462348
:1013A000124A0F498DF8144005A84FF47A768DF84B
:1013B00015408DF808408DF81040039604F06AFC43
:1013C0009DF8143053B12922094905A804F0ECFE18
:1013D00028460BF051FF05A804F0A4FA0EB070BD2A
:1013E000B84E00207C4A0020E86201005C630100E6
:1013F000D4630100264B1B680F2B0CD8DFE803F0E9
:101400000C1014181C2024282C3034383C4044087C
:10141000204B214A1A6070471E4B204A1A607047C1
:101420001C4B1F4A1A6070471A4B1E4A1A607047BD
:10143000184B1D4A1A607047164B1C4A1A607047B9
:10144000144B1B4A1A607047124B1A4A1A607047B5
:10145000104B194A1A6070470E4B184A1A607047B1
:101460000C4B174A1A6070470A4B164A1A607047AD
:10147000084B154A1A607047064B144A1A607047A9
:10148000044B134A1A607047024B124A1A607047A5
:1014900000FAFF1F6C510020BD549341103377C0F8
:1014A000993918C0BE0D68BFCE71153F8D09034034
:1014B000CCC9624009A7A3407DDBD140C4160141DD
:1014C00054FC1741D0E83041195546419FAB5F416C
:1014D000A04176415E2E8641234924480B6850F88E
:1014E000232070B592BB0133214A0B600125042BE8
:1014F000157031D01F4C204A04F58C6612F8232059
:10150000304604F26C414FF0384306F0AFF810B3A8
:1015100004F23C40266004F005FA2946204605F016
:10152000A9FF0146D0B1134C04F23C4528462146A0
:1015300004F030FC88B194F83C3413F0700F0AD0FA
:101540000E4B1D60BDE87040FFF71ABF013A40F82E
:101550002320002AC7D070BDFEE770BD204605F0ED
:1015600089FF0028DFD170BD6C5200201852002086
:10157000085200207C4A0020C45000206C530020F8
:10158000F8B53348334A344B3449354F0978067837
:1015900015781A7838683C2313FB061613FB0525CB
:1015A00007F05CF90446386807F010F9C4EB04143E
:1015B00000EB840412212B480BF0B0F800230A2220
:1015C000314629480BF07EFE27480BF055FE1021CE
:1015D00026480BF0A3F800230A22294622480BF0E4
:1015E00071FE21480BF048FE102121480BF096F8BF
:1015F000214600230A221C480BF064FE1A480BF017
:101600003BFEAE4205D2A64201D8A5420ED800202C
:10161000F8BDA64298BFB4F5B46F10D3002C18BF24
:10162000A5428CBF0120002009D8F8BD2121114816
:101630000BF074F80C480BF01FFE0120F8BD2121BF
:101640000D480BF06BF808480BF016FE0120F8BDB2
:101650003C0A002098510020004F002068520020D2
:10166000FC4E00200064010090FFFF1F1464010085
:10167000286401003C6401006064010008B5012198
:1016800005200AF041F84FF4FA600AF0ABF80021A7
:1016900005200AF039F8024B01221A7008BD00BF7C
:1016A000014F002008B5012105200AF02DF8C820BF
:1016B0000AF098F8002105200AF026F8014B0122D3
:1016C0001A7008BD014F002008B5012105200AF05D
:1016D0001BF8C8200AF086F8002105200AF014F84B
:1016E00064200AF07FF8024B01221A7008BD00BF87
:1016F000014F002008B5012105200AF005F840F649
:10170000B8300AF06FF80021052009F0FDFF024B08
:1017100000221A7008BD00BF014F00202DE9F043E0
:101720008FB004460EF06CFB00B201281CDDB4F94A
:10173000003044F25372934200F0A68118DD44F663
:101740005452934200F0DA8045F2532293422FD054
:1017500044F65212934207D10BAAE01CBD490EF089
:1017600017FBBD4B0B9A1A6001200FB0BDE8F08348
:1017700044F24E4293420FD044F252429342F3D18C
:101780000BAAE01CB3490EF003FBB44B0B9A1A6092
:1017900001200FB0BDE8F0830BAAE01CAD490EF0AC
:1017A000F7FAAF4B0B9A1A6001200FB0BDE8F08337
:1017B0000AAD09A908AA05ABE01C039502910192A4
:1017C000009307AA06ABA7490EF0E2FAA64B079DC5
:1017D000596818689A680A9EDDF824E0DDF820C090
:1017E000A5F5FA65ADB20BAF2CB207C7069F0599F8
:1017F0001E3415F0030F4FEAA408FDB240F05981E2
:101800009A4B022D8CBF1F4600279948994BC8EB75
:10181000040400FB08F06A1E03FB0400002A00EB2E
:10182000070347DD9DF82C409048012A00FB043354
:1018300040D09DF82D40022A00FB04333AD09DF899
:101840002E40032A00FB043334D09DF82F40042A95
:1018500000FB04332ED09DF83040052A00FB0433F2
:1018600028D09DF83140062A00FB043322D09DF891
:101870003240072A00FB04331CD09DF83340082A6D
:1018800000FB043316D09DF83440092A00FB0433D2
:1018900010D09DF835400A2A00FB04330AD00B2AE9
:1018A0009DF8364018BF9DF8372000FB043318BF61
:1018B00000FB02335FFA8EF2C2EB02125FFA8CF089
:1018C0004FF46164920004FB0022684D6A4C6B483F
:1018D000C9B2013952FA86F205FB012213441221E2
:1018E00023600AF01BFF216865480BF06DFC64481B
:1018F0000BF0C2FC01200FB0BDE8F0830AAD09A9CE
:1019000008AA05ABE01C039502910192009307AA77
:1019100006AB54490EF03CFA534B079F9A6818687F
:1019200059680A9EDDF824E0DDF820C0A7F5FA67C3
:10193000BFB20BAC3DB207C4069A059C1E3517F02A
:10194000030F4FEAA508D7B240F0B080474B022FF3
:101950008CBF99464FF000094549464BC8EB050539
:1019600001FB08F17A1E03FB0510002A00EB0903B6
:1019700047DD9DF82C003D49012A01FB003340D092
:101980009DF82D00022A01FB00333AD09DF82E006D
:10199000032A01FB003334D09DF82F00042A01FBF9
:1019A00000332ED09DF83000052A01FB003328D0EB
:1019B0009DF83100062A01FB003322D09DF8320049
:1019C000072A01FB00331CD09DF83300082A01FBD5
:1019D000003316D09DF83400092A01FB003310D0E3
:1019E0009DF835000A2A01FB00330AD00B2A9DF826
:1019F000360018BF9DF8372001FB003318BF01FBEC
:101A000002335FFA8EF2C2EB02125FFA8CF04FF4EF
:101A10006165920005FB0022E1B2144C164D52FAAA
:101A200086F2013904FB01241C4420462C6009F095
:101A300061FD0B2113480AF071FE214600230A22A2
:101A40000F480BF03FFC0E480BF016FC01200FB0C6
:101A5000BDE8F083A46401004CFAFF1F40FAFF1FA9
:101A6000740A0020846401001863010080510100A1
:101A70000085E2018033E101FC4E0020A8640100F2
:101A800090FFFF1F98640100E01C0BAA0C490EF0A8
:101A90007FF90B9B0F2B0ED90A4B042119600F20E5
:101AA00009F08EFB01200FB0BDE8F0834FF0000974
:101AB00052E70027A9E6034AD9B21360EFE700BF57
:101AC000A464010000FAFF1F2DE9F043A3B0002534
:101AD0004FF47A76764F77480A968DF830508DF825
:101AE00031508DF824508DF82C50089703F01AFFD0
:101AF000714901F23C4004F04DF901236F4A6D49F0
:101B0000179619A88DF864508DF865508DF85850C7
:101B10008DF86050159704F0BDF80DF1640EBEE825
:101B20000F000CAE0FC6BEE80F000FC69DF8308048
:101B3000DEF800109DF85800179A9DF8603031606B
:101B40008DF824000A928DF82C30B8F1000F46D0A1
:101B50002E468DF800604FF000094FF0FF0801227B
:101B600015A90CA804F036F909F1010322AA0128ED
:101B70004A441BB224D01D2B02F8888C05DC994600
:101B8000EDE71D2B01DC0A2AF9D1013B9BB222AA09
:101B90001A4402F8886C9DF800202F2A04D0012BEB
:101BA00002D96846FFF7BAFD9DF830301B0711D403
:101BB0000CA803F0B7FE2DBB012023B0BDE8F083D5
:101BC0009DF854200D2A08BF4B4662D11D2BDCDC4A
:101BD0009946C4E7139A119B9A42BAD1E8E71421B7
:101BE00037480AF09BFD37480BF046FB0D2236497B
:101BF00036480BF0D3FA35480BF03EFB404623B095
:101C0000BDE8F0830B2132480AF088FD00230A2248
:101C100021462C480BF056FB2A480BF02DFB25489B
:101C200003F080FE2449002501F23C4004F0B2F8A4
:101C30004FF47A768DF864508DF865508DF85850D1
:101C40008DF8605063231D4A1A49179619A819ADDB
:101C5000159704F01FF80FCD0CAE0FC60FCD0FC6B1
:101C60002968179A9DF860309DF8585031600CA88B
:101C700021460A928DF82C308DF8245004F0A4F9F6
:101C8000022214490CA804F08FFA0CA803F04AFEB3
:101C900092E722AB03EB0901542A09F1010301F891
:101CA000882C1BB27FF46DAF119C0546013C8DE77B
:101CB000E8620100B84E00207C4A0020BC640100AC
:101CC000D864010090FFFF1FF0640100C4510020A0
:101CD000C8640100D464010030B583B002AD079C34
:101CE00005F8082D8DF80200069A8DF804304E3460
:101CF00028468DF801108DF805208DF8064006F075
:101D0000D3FD09F0F7FB09F0EFFB024B186003B0BD
:101D100030BD00BF784A00202DE9F0410446042080
:101D20000D46164609F014FD8046032009F010FD0B
:101D30000746B8F1000F2AD1DFF89C80244AD8F872
:101D400000300121132B117039DD0133642BC8F8E9
:101D500000303ADDC82BD4BF05343C3467B91D4F81
:101D60001B4A3B680121132B117022DD3C2C16DC31
:101D700001233B60013C02E0164B00221A60AC429A
:101D800009DBB442C8BF2C462046BDE8F081124BA7
:101D900000221A60E2E734462046BDE8F0813B6845
:101DA0000133642B3B60E5DDC82BD4BF053C3C3CD4
:101DB000E5E7C82009F016FD3C2CD9DDEFE7C82087
:101DC00009F010FDD8F80030BFE70134C6E700BFC6
:101DD000F84E0020285200200C52002010B5094C6B
:101DE000204608F0B7FA2046012107F0D9FC20462A
:101DF000022107F0CFFC002220461146BDE810402A
:101E000007F0C4BCC451002038B5054606F038FDC3
:101E10001E4C014620460BF0D7F92D200AF052FD4A
:101E2000284606F009FD014620460BF0CDF92D208D
:101E30000AF048FD284606F0EDFC014620460BF06E
:101E4000C3F9012112480AF069FC284606F006FD94
:101E5000014620460BF0B8F93A200AF033FD284637
:101E600006F0B4FC014620460BF0AEF93A200AF029
:101E700029FD284606F0BCFC014620460BF0A4F9DB
:101E80002046BDE838400BF0F7B900BF90FFFF1FB8
:101E9000606601002DE9F043434A444BDFF8189196
:101EA000DFF81881424D98F80010167899F8007004
:101EB0001A78286883B03C2313FB071713FB062608
:101EC00006F0CCFC0446286806F080FCC4EB041441
:101ED00000EB8404286806F0D3FC00F14E03286868
:101EE0008DF8063006F0A8FC8DF80500286806F08D
:101EF00091FCB7428DF8040006D2A74232D8A64220
:101F000030D303B0BDE8F083A742FAD9A642F8D295
:101F100002A8002399F8002000F8083D98F8003046
:101F20008DF801308DF8022006F0BEFC0F212860EC
:101F300020480AF0F3FB2868FFF766FF09F0D4FA9F
:101F40002B68834204DA03F5A83303F5C0732B60D2
:101F50000F2118480AF0E2FB2868FFF755FF03B08D
:101F6000BDE8F08302A8002399F8002000F8083D9E
:101F700098F800308DF801308DF8022006F094FCBE
:101F80000F2128600B480A4C0AF0C8FB2868FFF7AD
:101F90003BFF09F0A9FA2B688342D9DA03F5A8338D
:101FA00003F5C0732360D3E798510020004F002051
:101FB000FC4E0020006501003C0A00206852002011
:101FC00010B5002009F0A6F8264C2070012009F079
:101FD000A1F86070022009F09DF8A070032009F0BC
:101FE00099F8214BE07022681A60042009F092F8F9
:101FF0002070052009F08EF86070062009F08AF83C
:10200000A070072009F086F8184BE07022681A606B
:10201000082009F07FF8164B1870092009F07AF8AB
:10202000144B18700A2009F075F8134B18700B2028
:1020300009F070F8114B18700C2009F06BF8104B78
:1020400018600D2009F066F80E4B18600E2009F09C
:1020500061F808B10C4B18700F2009F05BF80B4BBE
:10206000186010BD7051002040FAFF1F4CFAFF1F8E
:102070003C0A00206852002098510020004F0020A8
:102080000052002034FAFF1F3CFAFF1F00FAFF1F26
:1020900038B50A4C0B460546C9B2236009F090F8E2
:1020A0006178681C09F08CF8A178A81C09F088F800
:1020B000E178E81CBDE8384009F082B87051002092
:1020C000284B10B51968284C00202160C9B209F0CE
:1020D00077F86178012009F073F8A178022009F0FF
:1020E0006FF8E178032009F06BF8204B1968216044
:1020F0000420C9B209F064F86178052009F060F89D
:10210000A178062009F05CF8E178072009F058F87A
:10211000174B0820197809F053F8164B0920197845
:1021200009F04EF8144B0A20197809F049F8134BBE
:102130000B20197809F044F8114B0C20197809F09C
:102140003FF8104B0D20197809F03AF80E4B0E208D
:10215000197809F035F80D4B0F201978BDE81040BB
:1021600009F02EB840FAFF1F705100204CFAFF1FF3
:102170003C0A00206852002098510020004F0020A7
:102180000052002034FAFF1F3CFAFF1F00FAFF1F25
:102190002DE9F04F8DB010290791069000F0BF8017
:1021A000202900F0B0800024631C18461D460893C7
:1021B0000CF044FBE4B244F0E063099000212846AF
:1021C0000A9344F08E430B930CF052FB01465A489D
:1021D0000CF040FC054607980CF030FB01460CF073
:1021E0007DFA044606980CF029FB014620460CF0C7
:1021F0007DFB014628460CF02DFC4FF001084FF006
:102200007E550746C1464FF0010A4FF0000B50467D
:102210000CF018FB39460CF069FB04460CF02CFD61
:102220000CF010FB014620460CF056FA29460646F3
:102230000CF0FAFC4FF0874148B120460CF0F4FC5A
:1022400028B120460CF05EFD35468046D1461AF195
:10225000010A4BF1000BBBF1000F08BFBAF1400FB0
:10226000D5D109F1FF34089B079E059320460296BD
:10227000CDF81080CDF80C900CF0E0FA4FF07E51C4
:102280000CF02CFA2D490CF031FB054640460CF0C1
:10229000D5FA014628460CF0DDFB4FF07C510CF0DE
:1022A00025FB09990CF0D6FB054670000CF0CAFA24
:1022B000014628460CF0CEFB0CF0DEFC204B069AC3
:1022C000019000921F492048204E214D1A460AF0E5
:1022D000EBFF204920480F68220308F1FF3302F486
:1022E0007F22C3F30B03134327F010420A603360CD
:1022F0000A9B2B600B9B03600B6843F010430B6041
:102300000DB0BDE8F08F154B0B9303F140430A93DA
:102310004FF0804309930223114D08935BE7114B63
:102320000B9303F140430A934FF081430993042335
:102330000D4D08934FE700BF4054094C4054894C61
:1023400000A24A041065010090FFFF1F04F1024043
:1023500008F0024080F0024088F00240010000478F
:102360004054894B030000474054094B2DE9F04F7E
:102370000546DFF87C82974E974F98F800E02E6074
:10238000FF2085F82400DFF86C92387859F820C0D7
:102390000023BEF1060F8DB00C4685F8253085F878
:1023A00026309CBF88F800309E46BCF1000F00F03C
:1023B000A8808C455BD06346810001E09C4256D0EA
:1023C0000B445B68002BF9D1634603EB010ADAF892
:1023D0000430002BF9D105EB010BCAF80440BEF123
:1023E000060F4FF0FF044FFA80FACBF804308DF857
:1023F0002C4002968DF82D308DF82E3085F824A0D3
:10240000644605D8002388F80030002C00F0A9802D
:10241000A24226D0234601E0934222D00B445B68BF
:10242000002BF9D104EB010CDCF80440002CF9D1AD
:10243000CCF804200CAB19440024431CBAF1FF3F34
:1024400041F8244C3B708DF82CA0029605D06349CE
:1024500051F82A3002AA934272D028460DB0BDE846
:10246000F08F0130387028460DB0BDE8F08F0023A2
:10247000FF21BEF1060F02968DF82C108DF82D303D
:102480008DF82E3001D888F800309445E9D06346A5
:10249000810001E09A42E4D00B445B68002BF9D143
:1024A0008C44DCF804402CB1A4468C44DCF8044095
:1024B000002CF9D10CAB19444FFA80FE431CBEF13D
:1024C000FF3FCCF804203B7041F8244C02968DF875
:1024D0002CE0C2D0414951F82E3002AA9342BCD11F
:1024E00059F82E304FEA8E0623B19A19536854607A
:1024F000002BFAD10023387049F82E3041F82E30E5
:10250000ABE7B0B38100DFF8D4A049F8204005EB79
:10251000010C00234AF82050BEF1060FCCF804301D
:102520004FFA80FA4FF0FF0C02968DF82D308DF89F
:102530002E3085F824A08DF82CC07FF663AF64E7B9
:1025400059F82A304FEA8A0623B19A195368546021
:10255000002BFAD10023387049F82A3041F82A308C
:102560007BE7F0B11D4B49F8202002AA43F8202058
:1025700060E71B491B480B68019243F080630B60C6
:102580000368194923F080430360152008F0E0FE3A
:10259000164B98F800E0019A4FF400111960387852
:1025A000B0E70F4C0F482368019243F0806323602B
:1025B00003680D4923F080430360152008F0C8FE2E
:1025C0000A4B019A4FF40011196038784FFA80FADB
:1025D0008100C7E70C630100B5530020945300202D
:1025E00004700440007004409504000000E100E025
:1025F000BCF3FF1F745300202DE9F0415C4D5D4C8E
:102600005D4E08F03FFD4FF0FF315C4807F08EFE55
:102610002A6826600023637223612372E3600AB98B
:10262000A2E01A465369002BFBD154610027544B9A
:1026300050486761A780E780A772236002F0B2FB71
:10264000504A4FF0010E02F118013B46384617720E
:10265000D760166082F809E01161174600E0396919
:1026600041F82300517A474E01339942F7DC29683B
:102670003F4B09B97AE019464B69002BFBD14A61FF
:10268000414D424B2C600024284654619480D480F4
:102690009472A2F8B0411360A2F8B2416A60C2F825
:1026A000AC41A2F8B441C2F8B8412C726C72EC6033
:1026B0002C740AF05BFA3649364A374F374E2846B3
:1026C0000CF0CEFC364A374B9069374A1A600CF052
:1026D000B9F8364D38604FF0FF08354B2D4A354973
:1026E00085F825402846012785F824802B606C63F7
:1026F000AC6385F83C4085F826700CF0B1FC2E4B9D
:10270000244A2E4986F82480304686F825403360D6
:1027100086F8274086F8284086F826700CF0A0FC42
:102720002A4631462648274DFFF720FE194A2649FA
:1027300023480CF095FC254A254B26491474642047
:102740004FF47A76547414711473DC7183F83C443A
:1027500083F83D4483F86A4483F86004966015600A
:10276000C3F86C14BDE8F0812C605FE71E6087E75A
:10277000C85400207C510020DC620100C4510020BC
:10278000D0670100084F0020405100202C63010059
:1027900085080000FCF9FF1F10520020385200206D
:1027A00018FAFF1F54510020B4670100F4500020B4
:1027B00078680100BD0600008C6801001507000064
:1027C000140A0020E862010011060000400A0020FF
:1027D0007C4A00200000023870B5104C06460D46B9
:1027E00020460A2102F04CFEC6F30721204602F0E3
:1027F0001FFCF1B2204602F01BFCC5F30721204666
:1028000002F016FCE9B2204602F012FC204602F06B
:1028100049FEB0FA80F0400970BD00BF545300205B
:1028200010B5184C0A21204602F02AFE204600214D
:1028300002F0FEFB2046302102F0FAFB2046002188
:1028400002F0F6FB0021204602F0F2FB204602F0E7
:1028500029FE20460A2102F013FE2046002102F044
:10286000E7FB2046022102F0E3FB2046002102F0B4
:10287000DFFB2046002102F0DBFB2046BDE81040D4
:1028800002F010BE545300200238032838B504DC8F
:10289000002880F2E181002400E00C240A21C848CD
:1028A00002F0EEFD0021C64802F0C2FB3021C44810
:1028B00002F0BEFB4021C24802F0BAFB6021C048D2
:1028C00002F0B6FBBE4802F0EDFD0A21BC4802F062
:1028D000D7FD0021BA4802F0ABFB2621B84802F030
:1028E000A7FB0021B64802F0A3FB6C21B44802F01C
:1028F0009FFBB34802F0D6FD0A21B14802F0C0FDAB
:102900000021AF4802F094FB2821AD4802F090FB73
:102910000121AB4802F08CFBF021A94802F088FBB2
:10292000A74802F0BFFD0A21A54802F0A9FD002139
:10293000A34802F07DFB2C21A14802F079FB0F2176
:102940009F4802F075FB22219D4802F071FB9C48D4
:1029500002F0A8FD0A219A4802F092FD0021984851
:1029600002F066FB3C21964802F062FB002194488D
:1029700002F05EFB0021924802F05AFB904802F000
:1029800091FD904B8E481D680A21002D40F0378143
:1029900002F076FD29468A4802F04AFB3021884839
:1029A00002F046FB2946864802F042FBA2218448F9
:1029B00002F03EFB824802F075FD0A21804802F0D9
:1029C0005FFD29467E4802F033FB02217C4802F07D
:1029D0002FFB29467A4802F02BFB4321784802F06E
:1029E00027FB774802F05EFD0A217548764D02F01C
:1029F00047FD0021724802F01BFB0421704802F0E1
:102A000017FB00216E4802F013FB21466C4802F0D0
:102A10000FFB6B4802F046FD0A21694802F030FDC9
:102A20000021674802F004FB0621654802F000FB24
:102A30000121634802F0FCFA3021614802F0F8FA03
:102A40005F4802F02FFD0A215D4802F019FD0021C8
:102A50005B4802F0EDFA0A21594802F0E9FA002138
:102A6000574802F0E5FA0021554802F0E1FA5448CF
:102A700002F018FD0A21524802F002FD00215048E0
:102A800002F0D6FA0E214E4802F0D2FA00214C484C
:102A900002F0CEFA08214A4802F0CAFA484802F089
:102AA00001FD0A21464802F0EBFC0021444802F0F7
:102AB000BFFA1021424802F0BBFAFF21404802F061
:102AC000B7FAFF213E4802F0B3FA3D4802F0EAFCB3
:102AD0000A213B4802F0D4FC0021394802F0A8FA50
:102AE0002221374802F0A4FA7F21354802F0A0FAEB
:102AF0007F21334802F09CFA314802F0D3FC0A21CE
:102B00002F4802F0BDFC01212D4802F091FA24214A
:102B10002B4802F08DFA0021294802F089FA0021A1
:102B2000274802F085FA264802F0BCFC0A21244816
:102B300002F0A6FC0021224802F07AFA2421204863
:102B400002F076FA01211E4802F072FA14211C48A4
:102B500002F06EFA1A4802F0A5FC0A21184802F0A9
:102B60008FFC0021164802F063FA2A21144802F073
:102B70005FFA0021124802F05BFA0021104802F0CF
:102B800057FA0F4802F08EFC0921104809F0C6FDE3
:102B900029680F480AF018FB0D480AF06DFB0A215E
:102BA00007482C6802F06CFC0021054802F040FA4E
:102BB0002021034802F03CFAC4F307210AE000BFD9
:102BC0005453002008FAFF1F00FAFF1F2C65010074
:102BD00090FFFF1F224802F02BFAE1B2204802F0DA
:102BE00027FA1F4802F05EFCB0FA80F149091D483F
:102BF0000AF0EAFA1B480AF03FFB012038BD02F058
:102C00003FFC0021164802F013FA3021144802F06C
:102C10000FFA0021124802F00BFAAB21104802F023
:102C200007FA0F4802F03EFC0A210D4802F028FC8A
:102C300000210B4802F0FCF90221094802F0F8F9E2
:102C40000021074802F0F4F96321054802F0F0F989
:102C5000034802F027FCC7E68000C4B21EE600BFAE
:102C60005453002090FFFF1F10B5074B044610215E
:102C700053F82000FFF78CFA044802F07FFA204650
:102C8000BDE81040FFF700BE18FAFF1F54530020A4
:102C90003021014806F040BDC45100202DE9F04F1D
:102CA00085B008F021FCBC4BBC4C18600121BC482D
:102CB000BC4DBD4E06F06EFD0121B94806F070FD19
:102CC00012220021B64806F061FD0422B749B4483B
:102CD0000AF064FA2168B2480AF076FA0222B4498E
:102CE000AF480AF05BFA2B68012B00F0ED81AC488D
:102CF000B04FDFF808A3DFF80883DFF808B30AF065
:102D0000BBFA0622AC49A6480AF048FA3968A4483A
:102D10000AF05AFA0322A949A1480AF03FFA03220D
:102D2000A7499F480AF03AFAA64B9D4819780A220B
:102D300000230AF0C7FA9A480AF09EFADAF800303F
:102D400058F823000BF07EFD9F490BF083FE0BF03B
:102D500023F902460B4692489C490AF0A5FA9C4981
:102D60008F4801220AF01AFADBF800900021484649
:102D70000BF078FF28B12B21894806F0CDFCDBF859
:102D8000009048460BF008F90B46024691498448EA
:102D90000AF08AFA0222904981480AF0FFF90121DB
:102DA0007F4806F0F7FCDAF80030246858F8233042
:102DB000600003FB00F000F500402C300BF03EFDFE
:102DC00081490BF047FE80490BF044FE2D68012D30
:102DD000804600F053814FF07E5302937F4B36685C
:102DE0001B68204699460BF02DFD8246386820442A
:102DF0000BF028FD5146834602980BF077FD5946AB
:102E00000BF028FE074630460BF01CFD744B19688A
:102E10000BF06CFD4946CDF80C900BF05FFC394689
:102E20000BF064FD394681464FF07E500BF054FCA8
:102E30006C4A11680BF05AFD014648460BF04EFCF7
:102E4000012D14BF002506F001058146ADB10299A0
:102E50004FF07E500BF040FC5946054650460BF0B3
:102E6000F9FD014628460BF041FD03990BF03EFDAC
:102E7000014648460BF032FC8146524BDFF888B1E0
:102E80001878DFF888A10BF0DDFC574A11680BF0C9
:102E90002DFD49460BF0DEFD54490BF027FD0BF0EC
:102EA00011FFDBF8005000238146CAF80030CAF851
:102EB0000430CAF80830CAF80C307DB128460BF04F
:102EC000BDFC41460BF0C6FD0BF066F80AF078FE3B
:102ED0000BF08EFBCAF8000000FB04F5DBF80400E1
:102EE00070B10BF0ABFC41460BF0B4FD0BF054F8A5
:102EF0000AF066FE0BF07CFBCAF8040004FB00F04D
:102F0000DBF8083005447BB118460BF097FC4146CE
:102F10000BF0A0FD0BF040F80AF052FE0BF068FB3E
:102F2000CAF8080004FB00F3DBF80C001D4470B184
:102F30000BF084FC41460BF08DFD0BF02DF80AF0F0
:102F40003FFE0BF055FBCAF80C0004FB00F02844D0
:102F5000002E5DD0394626480BF07CFD04464846DD
:102F60000BF06CFC014620460BF07CFE00287DD067
:102F70002E2200210A4806F009FC0E221D490848AD
:102F80000AF00CF91C490648A1FB0931090C002381
:102F90000A220AF097F961E0F44E002040FAFF1F80
:102FA000C45100200052002008FAFF1F38650100BC
:102FB000406501004CFAFF1F586501006065010083
:102FC000646501003CFAFF1F00007A446865010057
:102FD00060660100C06601007465010054FAFF1FBD
:102FE00050FAFF1F44FAFF1F48FAFF1F0000614517
:102FF00000C028477865010007452EC234FAFF1F3C
:1030000018FAFF1F6C510020705200201852002047
:103010000BF014FC39460BF01DFD044648460BF03E
:103020000DFC014620460BF01DFE002854D1314610
:103030002E22364806F0AAFB35490D2233480AF005
:10304000ADF8204633490BF005FD0AF0A5FF022438
:1030500002460B4600942D480AF076F92E492B487B
:10306000012205B0BDE8F04F0AF098B801462E22C3
:10307000264806F08BFB0A222849DFE7284A294B1D
:1030800010781B78834286BFC3F11803C018C01A9A
:103090000BF0D8FB244A254B83461B7810788342DB
:1030A00086BFC3F13C03C018C01A0BF0CBFB20490C
:1030B000824658460BF01AFC51460BF00FFB1D4997
:1030C0000BF0C8FC029089E63368CBB905221A4997
:1030D0000E480AF063F80AE631462E220B4806F045
:1030E00055FB0E22154909480AF058F814490748BB
:1030F000A1FB0931090C33460A220AF0E3F8ADE7D7
:103100000922104901480AF049F8F0E5C4510020AD
:103110009465010000C0A84794640100886501001F
:10312000985100203C0A0020004F002068520020E7
:10313000000070420000B44444650100786501005D
:1031400007452EC24C65010038B504460D4631488E
:10315000012106F01FFB2AB200212E4806F016FBC3
:10316000204605F08DFB01462A480AF02DF82D2156
:10317000284806F0D1FA204605F05EFB01462548B6
:103180000AF022F82D21234806F0C6FA204605F061
:1031900041FB01461F480AF017F802221E491D484C
:1031A00009F0FCFF204605F059FB092803DC30211B
:1031B000184806F0B1FA204605F050FB01461548C4
:1031C0000AF002F8204605F001FB012205461349EA
:1031D000104809F0E3FF092D03DC30210D4806F00B
:1031E0009BFA29460B4809F0EFFF204605F000FB4B
:1031F000012204460949074809F0D0FF092C03DCE5
:103200003021044806F088FA21460248BDE83840DB
:1032100009F0DABFC4510020A4650100B8650100BF
:103220002DE9F041A14D2C682CB1012C00F09B80C0
:1032300030BFBDE8F08108F057F99D4FDFF8E0821C
:1032400038609C489C4E07F085F80121994806F0AB
:10325000A7FA0221974806F09DFA22462146954892
:1032600006F094FA0A229549924809F097FF91488E
:103270000AF002F801218F4806F08CFA122221464A
:103280008C4806F083FA05228D498A4809F086FFAA
:10329000D8F800108748013109F096FF01228949CA
:1032A000844809F07BFFD8F80020874B814853F809
:1032B000221023460A220AF005F830682821FFF779
:1032C00043FF38683721FFF73FFF7A4807F07EFA5F
:1032D0003A6833689A4242DB7C4F3C68002C64D0E9
:1032E000022C00F075810D2179487A4CDFF8348288
:1032F00009F014FA784809F0BFFF2368002B6DD15C
:10330000764A7749306812680968D8F80070754CB9
:1033100002441144012F3160226002D10BB9FEF743
:10332000B9FD0E21704809F0F9F908F0DDF8FEF753
:103330006BFD0B216D4809F0F1F92068FEF764FD83
:103340000B216B4809F0EAF93068FEF75DFD0123B7
:10335000AE2158482B6007F005F8FDF7E1FF2C6817
:10336000012C7FF465AFFDF717FC042008F0F0F99D
:103370000446032008F0ECF914B9002800F0D680C8
:103380005C4C5D4B22681B689A42FFF651AF544B70
:103390001E6896BB594802F0C5FAFEF79DF8FDF786
:1033A000C5FC266030BFBDE8F0810A21544802F018
:1033B00067F82146524801F03BFE0E21504801F0CB
:1033C00037FE21464E4801F033FE0A214C4801F0F9
:1033D0002FFE4B4802F066F83C6881E7D8F8007091
:1033E000B7FA87F77F09FEF7CBF8002F40F0ED80A2
:1033F000002840F0EA80236882E7FDF77DFCFEF7B5
:103400006BF82D4B3F4E1C683F4F08F06DF83F4A5C
:103410003F4B1268201A841A24EAE47483FB0423C5
:103420002344E017C0EBE3200AF0A4FD0AF0C8FB38
:103430000BF0B6F8374B384A306003FB004482FB90
:10344000043222448046E017C0EB62100AF092FD7D
:103450000AF0B6FB0BF0A4F80201131A821A04EB6F
:1034600082049B004FF4616202FB08333C60DFF88A
:10347000B8801C44092CC8F8000000F3B180274A2A
:10348000144B12781B68002A0CBF002303F00103C1
:10349000002B40F0A28001233C220221054807F0C6
:1034A0008BF800232B6030BFBDE8F081100A0020AC
:1034B000F44E0020C4510020FC4E0020A8650100FD
:1034C000B46501006066010018520020740A0020F3
:1034D000BC65010008FAFF1F90FFFF1F40FAFF1FA5
:1034E0004CFAFF1F68510020CC650100DC6501002B
:1034F000E8650100044F0020FC510020500A002024
:1035000054530020045200201452002004FAFF1FDC
:10351000C5B3A291F0F1FFFF89888888014F002090
:103520006C5200200052002094510020464B474C22
:103530001B68474D47485B02002203F124061146F1
:10354000A362A5F8B421666002F03EFD21462C225C
:10355000404802F029FE3F4802F0E4F93E4B1B6868
:1035600083BB01233C2202213C4807F025F864205C
:1035700008F038F9394806F0EDFE0121374806F029
:103580000FF90221354806F005F9002211463348AB
:1035900006F0FCF807223249304809F0FFFD2F48B9
:1035A00009F06AFE01212D4806F0F4F810222D4999
:1035B0002A4809F0F3FD294809F05EFE274807F084
:1035C00005F9FEE7FEF796F8CBE7FEF76BF812E792
:1035D0000B210E20FFF700F985E6FEF775F85AE794
:1035E0000021022008F090F81B4CFFF719F91E4A41
:1035F00023681278002A0CBF002303F001030BB1EB
:10360000FEF778F8642008F0EDF83B7898F8002091
:103610003178164804F072FF154804F035FD012199
:10362000022008F071F84FF4967008F0DBF8FDF70F
:10363000A7FF2368184201D0FEF720F80D4B186849
:10364000FFF712FB27E700BF044F00208052002045
:10365000084F0020500A002008FAFF1FC451002024
:10366000F4650100FC650100014F0020F4500020CA
:10367000140A002034FAFF1F2DE9F04F87B0FEF73F
:103680009FFCFDF7B7FE07F02FFF964BDFF8A492E3
:1036900018609548954F964DDFF89C8206F05AFECB
:1036A0000121914806F07CF802218F4806F072F85B
:1036B000002211468C4806F069F808228D498A4894
:1036C00009F06CFD0121884806F064F81022002101
:1036D000854806F05BF812228749834809F05EFDB1
:1036E000814809F0C9FD0721844801F0FBFF0E2144
:1036F000824802F055F80C21804802F023F8CA46AF
:103700000024002345F8043B7D4809F0B5FD7C48C2
:1037100009F0B2FD013405217A4808F0FFFF214687
:10372000774809F051FD764809F0A6FD21466E481C
:1037300009F04AFD042274496B4809F02FFD6A48DC
:1037400007F044F85AF8042B7049D2B2A1F10C00EA
:103750004FF0384303F08AFF58BB1C216C4808F037
:10376000DDFF674809F088FD06226A495E4809F0D6
:1037700015FD5D4809F080FD5B4807F027F8042C33
:10378000BFD15A4C99F8002004F58C65284604F204
:103790006C414FF0384303F069FF002840F0CE80C1
:1037A0000B225D49504809F0F9FC4F4807F00EF82C
:1037B000FEE75A4800F124033B6002F0B3F8012110
:1037C0004A4803F057FE014600287AD0DFF84CB192
:1037D000ABF23C41584602F0DDFA0028BDD097F824
:1037E0003C3413F0700FB8D0ABF23C40C8F800B0D6
:1037F00003F0A4FD08210646494808F08FFF314632
:103800003F4809F0E1FC3E4809F036FD30460BF038
:1038100019F844490BF06AF8064638790BF012F8AB
:10382000014630460BF062F80BF04CFA06460BF1FD
:10383000240004F013F90BF001F83A490BF056F8A4
:103840000BF040FA0A218346374808F067FF5946D3
:1038500000230A222A4809F035FD294809F00CFD09
:10386000C72E8CBFC83E0026112145F8046C2F4896
:1038700008F054FF55F8041C214800230A2209F0DF
:1038800021FD1F4809F0F8FC002355F8041C1648D8
:103890000A2209F017FD01222549134809F07EFC90
:1038A000594600230A22104809F00CFD0E4809F081
:1038B000E3FC0D4806F08AFF4FF47A7007F092FFA0
:1038C0005DE70A4803F0D6FD00283FF446AFDFF875
:1038D0004CB0ABF23C41584602F05CFA00287FF451
:1038E0007EAF3AE7784A0020C45100207C4A00208D
:1038F00070520020106601001C6601005CFAFF1F78
:1039000090FFFF1FB465010030660100E84E002003
:10391000186701003867010040670100B84E0020B9
:1039200038660100BD37063A446601005066010062
:1039300064660100C45000206C53002004F23C4037
:10394000256001F0EFFF0121204603F093FD0146C1
:10395000002800F08C83AE4C04F23C4528462146FA
:1039600002F018FA00283FF41BAF94F83C3413F02F
:10397000700F3FF415AFA74EC8F80050FEF7A4F83B
:10398000FDF738FDFEF79CFB3268A34B9A4200F22C
:10399000C983A24FA04B3A689A4200F2BC83DFF879
:1039A000D49299F80030172B00F2AD839C4B1B7812
:1039B0003B2B00F2A0839B4B1B78172B00F29383C9
:1039C000994B1B783B2B00F28683DFF8AC82D8F84A
:1039D0000030012B06D9002319460C20C8F800300E
:1039E00007F0EEFB914B1B68052B00F26C83904BAC
:1039F0001B78082B00F25F838E4B1A680F2A00F2A7
:103A00004F838D4D8D4C082007F0A2FE20BB2B6804
:103A100001332B6002E00A2007F0E4FE082007F0E3
:103A200097FE0028F7D0D8F800302A68B3FA83F15F
:103A30000B2A4FEA5111D8BF0021002940F014830E
:103A4000A3F10103B3FA83F30F2A4FEA5313D8BF4C
:103A50000023002B40F00883794806F07BFC01210D
:103A6000774805F09DFE0221754805F093FE00227F
:103A70001146734805F08AFE07F036FD714B206051
:103A80001A682B68821A02920F2B28D8DFE813F0ED
:103A900040022702DF02A002E901AB0172013401FA
:103AA000F600A7008F0072005E0052003B0010007D
:103AB0005D4B3B22002118789A46FEF72DF96249AA
:103AC0008AF8000007225E4809F068FB9AF80010A7
:103AD00009292ADD5A4800230A2209F0F3FBFFF7DF
:103AE000DDF807F001FD3721FFF72EFB544806F003
:103AF0006DFE0A2007F076FE029BB3F5167F82DD8D
:103B000007B0BDE8F08F474B1722002118789A467E
:103B1000FEF702F94D498AF800000722484809F0EB
:103B20003DFB9AF800100929D4DCFFF7B1F89AF8A8
:103B30000010CFE73A4B3B22002118789A46FEF757
:103B4000EBF808228AF800004149BCE7172200215F
:103B500099F80000DFF81CA1FEF7DEF83D4989F86E
:103B600000000822364809F019FB99F800100929CD
:103B7000B0DCDAE7052238493148DFF8FCA009F06B
:103B80000DFB01220021D8F80000FEF7C5F8C8F8A7
:103B90000000002800F07E820128A0D12F4B1B6876
:103BA000002B40F084822E48FCF772FE97E7204BF2
:103BB000082201211878FEF7AFF81D4B294918702B
:103BC00005221F4809F0EAFA19491D48097800231F
:103BD0000A2209F077FB1A4809F04EFB7FE7134BE6
:103BE000002106221868FEF797F81F4B0F4A106055
:103BF00053F820000AF026FE1C490AF02BFF0AF0B9
:103C0000CBF902460B460E48194909F04DFB66E711
:103C10007C4A002040FAFF1FA08601004CFAFF1FDB
:103C20006852002098510020004F002034FAFF1FF6
:103C30003CFAFF1F00FAFF1FF0500020F44E002056
:103C4000C4510020784A0020106701000867010075
:103C5000FC660100F0660100C866010008FAFF1F5B
:103C6000D8660100E866010018FAFF1F00007A44D8
:103C7000BC6601003C0A00200052002004F0B8FDA0
:103C8000DFF824B3DFF824A3CBF800003B220021A7
:103C9000FEF742F8DBF80030CAF8000098421DD069
:103CA000206804F0DBFD8346206804F08FFD05905A
:103CB0002068DAF800A004F0ADFD0490206804F05C
:103CC000BBFD0390206804F0DBFD039A0092019095
:103CD000049B059952465846FDF7FEFF0722A84966
:103CE000A84809F05BFA07F0FFFB04F081FD0146EC
:103CF000A44809F069FAF2E604F068FDDFF8B0B212
:103D0000DFF8B0A2CBF800003B220021FEF704F858
:103D1000DBF80030CAF8000098421DD0206804F09B
:103D20009DFD83462068DAF800A004F061FD05904F
:103D3000206804F06FFD0490206804F07DFD03907E
:103D4000206804F09DFD039900910190049B059A61
:103D500051465846FDF7C0FF07228B49894809F0B4
:103D60001DFA07F0C1FB04F031FD0146854809F05A
:103D70002BFAB4E604F072FDDFF83CB21722002102
:103D8000CBF80000FDF7C8FFDBF800309842824610
:103D90001BD0206804F01AFD8346206804F028FD3B
:103DA0000590206804F036FD0490206804F044FD7E
:103DB0000390206804F064FD039900910190049B36
:103DC000059A59465046FDF787FF05226F496D4811
:103DD00009F0E4F907F088FB04F040FD014669486A
:103DE00009F0F2F97BE604F015FDDFF8D0B1DFF859
:103DF000D0A1CBF800001F220121FDF78DFFDBF8D9
:103E00000030CAF8000098421DD0206804F026FD5A
:103E10008346206804F0DAFC0590206804F0E8FC92
:103E200004902068DAF800A004F006FD03902068F2
:103E300004F026FD039B009301905346049A0599D4
:103E40005846FDF749FF042251494E4809F0A6F9AA
:103E500007F04AFB04F0DEFC01464A4809F0B4F9D9
:103E60003DE604F0E9FCDFF85CB1DFF85CA1CBF8DB
:103E700000000C220121FDF74FFFDBF80030CAF8EB
:103E8000000098421DD0206804F0E8FC83462068BA
:103E900004F09CFC0590206804F0AAFC04902068C3
:103EA00004F0B8FC03902068DAF800A004F0E8FC05
:103EB000CDF800A00190039B049A05995846FDF7A0
:103EC0000BFF062233492F4809F068F907F00CFB75
:103ED00004F0B2FC01462B4809F076F9FFE545F203
:103EE000604201213068FDF717FF2B493060042242
:103EF000244809F053F93168224809F065F9012294
:103F00002649204809F04AF91E4809F0B5F9E6E5C6
:103F1000DFF8B8A09AF80030002B40F0B0800A22F9
:103F20001F49184809F03AF9042007F011FC8246AD
:103F3000032007F00DFCBAF1000F7FF4D0AD00288C
:103F40007FF4CDADFDF74AFFFEF7BAF81548FCF750
:103F50009FFC0C4806F03AFC40F2DC5007F042FCB3
:103F6000FEF79CFE07F0C0FA3721FFF7EDF8054891
:103F700006F02CFC0A2007B0BDE8F04F07F032BC79
:103F8000B4660100C4510020AC660100A4660100C3
:103F90009C6601009466010038650100806601009E
:103FA0006866010074660100345200203851002018
:103FB00078510020F04E00200C0A0020EC50002028
:103FC00034510020645200203C510020F84E002063
:103FD00004F056FCDFF88CB1DFF88CA1CBF80000C0
:103FE00040F634024FF4FA61FDF796FEDBF800303C
:103FF000CAF8000098421CD0206804F02FFC8346C9
:10400000206804F0E3FB0590206804F0F1FB0490C5
:10401000206804F0FFFB0390206804F00DFCDAF840
:104020000030049A05998DE80900039B5846FDF776
:1040300053FE05223F49404809F0B0F807F054FA12
:1040400004F01EFC01463C4809F0BEF847E53B4A37
:1040500038680021FDF760FE39493860042236488F
:1040600009F09CF8396847E700232B60F4E4204608
:1040700003F000FA00287FF46EACFFF791BBFEF767
:104080001FF84FF000038AF8003007F02DFA2D4B8F
:10409000186044E72C48FCF7FBFBDAF800007BE5EE
:1040A000042211460F201A6007F08AF8A9E4274875
:1040B000FCF7EEFB13E50823254A19460E20137082
:1040C00007F07EF898E40623224A19460D20136073
:1040D00007F076F88BE400231F4A19460B20137073
:1040E00007F06EF871E400231C4A19460A20137089
:1040F00007F066F864E40023194A19460920137092
:1041000007F05EF857E400231946082089F80030CC
:1041100007F056F84AE43C23194604203B60FDF7BB
:10412000B7FF3CE43C23194600203360FDF7B0FFA5
:104130002FE400BF8C660100C451002080510100B3
:1041400084660100784A0020D0660100E066010024
:104150003CFAFF1F34FAFF1F004F00209851002047
:10416000685200202C520020745100202DE9F04F9D
:1041700091B072B6C749C84BC84841250E24802269
:104180000D70047019461A700B78C34A1806FBD5D7
:10419000C34BC4481D78C44CC4490570033B247804
:1041A00009781B78C3704470817062B672B6B949E1
:1041B000BA4C41260F2580230E70257011461370CE
:1041C0000B781B06FCD5B64CB749B84AB84B2478D7
:1041D000097812781B78C37104714171827162B6DB
:1041E000B44BB54FB54EDFF8209300240F211522B4
:1041F0000A254FF014084FF4FA705960DA601D6018
:10420000C3F8088007F0EEFA64203C6007F0EAFA91
:104210004FF430533B60642007F0E4FA4FF434531A
:104220003B60642007F0DEFA3168A5482A46234641
:1042300009F048F8A24809F01FF84FF47A7007F027
:10424000D1FA31689E482A46234609F03BF89C483B
:1042500009F012F84FF47A7007F0C4FA2A462346A0
:1042600031689748974D984E09F02CF8944809F01A
:1042700003F8964800F082FF0121062007F076FA45
:104280000121062007F040FA2146102007F06EFABF
:10429000204606F0EDFD0121022007F067FA01211A
:1042A000022007F031FA0121052007F05FFA2146CC
:1042B000052007F029FAD9F800300221012B4FF030
:1042C000040008BFC5F8008007F050FA022103205F
:1042D00007F04CFA0221082007F048FA07F004F929
:1042E0007B4B3060984240F3D58101233C22022170
:1042F0007848794FDFF81482784C06F05DF98C200D
:1043000007F070FA734806F025F80121714805F0AE
:1043100047FA02216F4805F03DFA002211466D4828
:1043200005F034FA0A226E496A4808F037FF6948F6
:1043300008F0A2FF674806F049FA664806F00AF856
:104340000121644805F02CFA0221624805F022FAA6
:10435000002211465F4805F019FA0A2260495D48BB
:1043600008F01CFF5B4808F087FF5A4806F02EFA59
:104370006E215C4808F026FBD7F800A058F82AB058
:1043800058460AF05FFA102120605846FDF700FFFA
:104390004E4800F0F3FE5046FEF776FAFFF76CF950
:1043A0003F6858F8278040460AF04CFA10212060F8
:1043B0004046FDF7EDFE454800F0E0FE3846FEF7CA
:1043C00063FA494801F0AEFA484910AF01F23C40A7
:1043D00001F0E0FC464B47F8343D00234FF47A7E71
:1043E0008DF81C308DF81D308DF810308DF8183098
:1043F000404A3D49CDF814E0462307A801F04AFCA5
:104400009DF81C3053B129223B4907A801F0CCFE8E
:10441000384608F031FF07A801F084FA2D48DFF88C
:10442000F080DFF8F0B005F095FF0121294805F094
:10443000B7F90221274805F0ADF9002211462548B9
:1044400005F0A4F9D8F800303C2B07DDB3F5967FD2
:10445000D4BF3C234FF49673CBF8003007F044F8F8
:10446000DFF8B4A02549DBF80030254FDAF800204A
:10447000096890FBF3FE306003FB0E3321483B607C
:1044800001291344036049D1D9F80030002B00F012
:10449000FC8043E0070002400000024006000240AA
:1044A0000B000240605100200A0002400900024057
:1044B00008000240C450002010D0034000D0034048
:1044C00090FFFF1F04FAFF1FF44E002054530020FA
:1044D0007FC18556C451002034FAFF1F10520020BE
:1044E0004C6701000082FF1FB84E00207C4A00206C
:1044F000E86201005C630100D46301000052002007
:10450000FC4E00206851002008FAFF1F18FAFF1F18
:104510004CFAFF1F38FAFF1F40FAFF1F10460AF03F
:1045200091F92168DFF8B8B10AF0E0F94FF06E5167
:104530000AF0DCF94FF074510AF0D8F909F02CFDBB
:1045400009F0B6FA0022554B09F07AFD0AF028F876
:10455000D8F800202C68524BCBF80000141B24EA3A
:10456000E47583FB05232B44E817C0EBE32009F037
:1045700001FD09F025FB0AF013F84A4C4A4B4B4A5F
:10458000186004FB0054019382FB04322244E017BC
:10459000C0EB621009F0EEFC09F012FB0AF000F823
:1045A000DFF840B1424D0246A0EB001004EB80045E
:1045B000102140482A60CBF8004008F0AFF8019B7A
:1045C0003D48196808F000FE29683B4808F0FCFDEA
:1045D000DBF80010384808F0F7FD374808F04CFECB
:1045E0000821364808F09AF8DAF80010324808F046
:1045F000EBFD314808F040FE0821314808F08EF804
:10460000D8F800102C4808F0DFFD2B4808F034FEE5
:104610000E212C4808F082F83068FDF7F5FB0C21DC
:10462000294808F07BF83868FDF7EEFB3B683468F2
:1046300026481C1B152108F071F821461E4808F079
:10464000C3FD1D4808F018FE214B22494FF0FF32F0
:1046500000241A600C60FCF73FFFFCF791FFD9F8CB
:10466000003018420ED00121052007F04DF84FF41C
:10467000FA6007F0B7F82146052007F045F8164B19
:1046800001221A7011B0BDE8F08FFDF703FCDAF8D3
:10469000002043E7114806F02DFF26E600004040C9
:1046A000C5B3A291F0F1FFFF0452002089888888E9
:1046B000945100205867010090FFFF1F6C670100B4
:1046C00078670100CC6501008467010094670100F0
:1046D00030520020100A0020014F002080C1855672
:1046E000FC51002014520020002070470020704729
:1046F000F8B5C34C012605460671204600F03EFD84
:10470000052007F06FF8297A204600F0E3FD2046E7
:10471000002100F08DFC2046302100F089FC20466D
:10472000402100F085FC6021204600F081FC2046FD
:1047300000F0B8FE297A204600F0CCFD204600218A
:1047400000F076FC2046262100F072FC2046002175
:1047500000F06EFC6C21204600F06AFC204600F060
:10476000A1FE297A204600F0B5FD2046002100F088
:104770005FFC2046282100F05BFC3146204600F01B
:1047800057FCF221204600F053FC204600F08AFE40
:10479000297A204600F09EFD2046002100F048FCCA
:1047A00020462C2100F044FC20460F2100F040FC64
:1047B0002221204600F03CFC204600F073FE297ABE
:1047C000204600F087FD2046002100F031FC204605
:1047D0003C2100F02DFC2046442100F029FC46211C
:1047E000204600F025FC204600F05CFE40F2371326
:1047F000EB80297A204600F06DFD2046002100F074
:1048000017FC2046242100F013FC3146204600F01E
:104810000FFC3721204600F00BFC204600F042FE42
:10482000297A204600F056FD2046002100F000FCC9
:104830002046302100F0FCFB2046402100F0F8FB30
:10484000FF21204600F0F4FB204600F02BFE297AE1
:10485000204600F03FFD2046002100F0E9FB204605
:10486000022100F0E5FB2046002100F0E1FB73216E
:10487000204600F0DDFB204600F014FE4FF4C87027
:1048800006F0B0FF297A204600F024FD20460021E2
:1048900000F0CEFB20462E2100F0CAFB20461D2151
:1048A00000F0C6FB1D21204600F0C2FB204600F0B0
:1048B000F9FD297A204600F00DFD2046002100F088
:1048C000B7FB2046042100F0B3FB2046002100F096
:1048D000AFFB0421204600F0ABFB204600F0E2FDD8
:1048E000297A204600F0F6FC2046002100F0A0FBCB
:1048F0002046062100F09CFB3146204600F098FB44
:104900003021204600F094FB204600F0CBFD297AB0
:10491000204600F0DFFC2046002100F089FB204605
:104920000A2100F085FB2046002100F081FB1021C8
:10493000204600F07DFB204600F0B4FD297A204699
:1049400000F0C8FC2046002100F072FB20460E213A
:1049500000F06EFB2046002100F06AFB002120469B
:1049600000F066FB204600F09DFD297A204600F00D
:10497000B1FC2046002100F05BFB2046102100F036
:1049800057FB20463C2100F053FB3C21204600F021
:104990004FFB204600F086FD297A204600F09AFC65
:1049A0002046002100F044FB2046222100F040FB7D
:1049B00020467F2100F03CFB7F21204600F038FBA1
:1049C0003627204600F06EFD297AEF80204600F061
:1049D00081FC2046002100F02BFB2046242100F022
:1049E00027FB2046002100F023FB3946204600F03B
:1049F0001FFB204600F056FD6E723046F8BD00BF2A
:104A0000545300200B462DE9F04145490546184610
:104A100009F06CFF434909F061FE0AF053F90446BE
:104A200000284CD080281FD92B79002426462BBB88
:104A3000297A3D4800F04EFC00213B4800F0F8FA8E
:104A40002221394800F0F4FA3146374800F0F0FAF4
:104A50002146354800F0ECFA334800F023FDB0FA67
:104A600080F04009BDE8F081C0F180042B7944EA70
:104A70000424C4F30726E4B2002BD9D0EF88297AA6
:104A8000294827F010074FF00008EF8085F80480D0
:104A900000F020FC4146244800F0CAFA24212248B4
:104AA00000F0C6FA390A204800F0C2FA07F0EF0118
:104AB0001D4800F0BDFA1C4800F0F4FCB8E70123E3
:104AC0002B71297A184800F005FC2146164800F0A1
:104AD000AFFA2221144800F0ABFA7F21124800F00F
:104AE000A7FA7F21104800F0A3FA0F4800F0DAFC83
:104AF000EE88297A0C4846F01006B6B2EE8000F037
:104B0000E9FB2146084800F093FA2421064800F00A
:104B10008FFA310A044800F08BFAF1B299E700BF2E
:104B200000000143EE7CFF3E5453002070B5054663
:104B30000C4619B101293BD0002070BD017A4248D2
:104B400000F0C8FB2146404800F072FA20213E48A0
:104B500000F06EFA21463C4800F06AFA55213A48C6
:104B600000F066FA384800F09DFC06460028E3D1C4
:104B7000EC88297A344844F00404A4B2EC8000F0B4
:104B8000A9FB3146304800F053FA24212E4800F0AA
:104B90004FFA210A2C4800F04BFAE1B22A4800F003
:104BA00047FA294800F07EFCB0FA80F0400970BD59
:104BB000017A254800F08EFB0021234800F038FAE6
:104BC0002A21214800F034FA21461F4800F030FA2B
:104BD00073211D4800F02CFA1B4800F063FC0446CA
:104BE0000028A9D1297A184800F074FB21461648FC
:104BF00000F01EFA2021144800F01AFA214612484B
:104C000000F016FA8821104800F012FA0E4800F061
:104C100049FC044600288FD1EE88297A0A4826F0FC
:104C20000406EE8000F056FB2146074800F000FA2B
:104C30002421054800F0FCF9310A034800F0F8F996
:104C400006F0FB01AAE700BF5453002010B504464C
:104C500008F01AF9204610BD024A034903480AF039
:104C6000FFB900BFFCF9FF1F4D4C0000AC52002003
:104C70001B4A1C4B11681C48096970B4994212798F
:104C8000027009D2194A127832B3194A4FF08041A2
:104C9000116003F5807402E01C46A3F58073154A89
:104CA000154912680D68AAB1A5B1144E3088402884
:104CB00010D841000A444030294402320231308089
:104CC00033F9040B22F8020F9C4233F9020C21F84D
:104CD000020FF5D870BC704703F58074DFE700BFA2
:104CE000BC520020B8F2FF1F1F800040B6520020C7
:104CF00008E200E0C4520020B8520020B452002064
:104D0000F8B5064607F08EFE0446E8B107F08AFEC5
:104D1000054600283AD072B61F4B1A887F2A19D848
:104D2000002C31D01D490A6842B162B6204607F016
:104D3000CDFE2846BDE8F84007F0C8BE18480C6014
:104D40001A80056062B6F8BD054672B6124B1A8825
:104D50007F2AE5D9114A12491768146000220C68AD
:104D60001A800D6062B63946304607F0D9FE3846E3
:104D700007F0ACFE30462146012207F0D1FE204666
:104D8000BDE8F84007F0A2BE62B6F8BD204607F0C5
:104D90009DFE2C46BFE700BFB4520020C452002045
:104DA000B8520020F8B5284C284E2046012107F0C3
:104DB000CDFF00F083F8264B264A27484FF4806148
:104DC0001960236800211A6099802279186102F124
:104DD000804202F5043240F20110D8809E614FF407
:104DE0008075022006278E26DD82D960DD839860DB
:104DF0009F8398821170167007F04EFF1749184B69
:104E00002279184F08701A7039682279164C174D9C
:104E1000174E41F0124141F00101531139609B00DE
:104E2000206803F1604302F1100703F5614302F0CB
:104E30001F02012140F0104001FA02F2206045F803
:104E400027601A60F8BD00BFBC52002000FEFFFFC3
:104E500014B00440A0F00240B8F1FF1FB652002089
:104E60001B80004080F0024000F0024000F4FF1F71
:104E7000714C0000024A034903480AF0F1B800BF30
:104E8000FCF9FF1F4D4C0000BC520020024A0349B0
:104E900003480AF0E5B800BFFCF9FF1F4D4C0000C5
:104EA000C8520020024A034903480AF0D9B800BF9B
:104EB000FCF9FF1F4D4C0000D0520020284B29491F
:104EC0001A68294842F400421A600A6842F0020255
:104ED0000A601A6842F002021A600368002B3DDB88
:104EE000224B1B68002B39DB214A4FF086431360AD
:104EF0001368002BFCDBF0B51E4C1F48DFF8ACE05C
:104F00001E491F4B1F4A204F204E214D47F2320CA5
:104F1000C4F800C0002404600120CEF80000DFF8CF
:104F200090E0C1F800E04FF480311960194B136034
:104F3000DFF880E0184A3A60346028601748CEF8FD
:104F40000000174CB9671748174946F8503C4FF412
:104F5000C0632A61236003600B60F0BD704700BF2F
:104F60003C8004404080044000F0024080F0024059
:104F700000F1024004F1024060F0024008F00240FB
:104F80000CF0024010F0024014F00240E0F0024049
:104F900084F002401B0F0100000F0F0F03000047B9
:104FA00008B004400CB0044018B0044004F00240C3
:104FB0000300000788F00240024A034903480AF050
:104FC0004FB800BFFCF9FF1F4D4C0000D852002025
:104FD000024A034903480AF043B800BFFCF9FF1F27
:104FE0004D4C0000E0520020024A034903480AF0F9
:104FF00037B800BFFCF9FF1F4D4C0000E8520020FD
:10500000024A034903480AF02BB800BFFCF9FF1F0E
:105010004D4C0000F0520020024A034903480AF0B8
:105020001FB800BFFCF9FF1F4D4C0000F8520020D4
:105030000A4B1B7813B90A4B1B786BB1094A1378DA
:10504000202B07D810B4581C074C1070E1540120D5
:1050500010BC704701230371002070476653002085
:10506000295300206753002008530020704700BFD9
:10507000024A034B10781B78C01A70476553002012
:1050800064530020064A074913780978994204D9E5
:105090000548591CC05C117070474FF0FF307047D5
:1050A00064530020655300202C530020054B064A12
:1050B0001B7812789A4286BF044AD05C4FF0FF30CA
:1050C000704700BF64530020655300202C5300201C
:1050D00070B50D4B1B78144613B90C4B1B788BB174
:1050E0000B4E3578C5F12103A34202D201221C46A2
:1050F0000271084822462844254405F00DFD35700C
:10510000204670BD184670BD66530020295300200C
:105110006753002008530020124BDB7803F0200374
:105120004BB1114A13780133DBB2012B137012D942
:10513000122006F095B910B5122003F0FF0406F016
:105140008FF90A4B1B685BB109490A4A0C70107849
:10515000BDE810401847084B1B78002BE8D070477B
:1051600010BD00BF006006405053002004530020D3
:105170006453002065530020295300200D4A0E4B34
:10518000F0B500200D4C10702268DFF838E00C4FAD
:1051900042F0400222604FF4197128260325202492
:1051A00080229870CEF8001039605E709D715C713D
:1051B0009A70F0BD295300200060064034800440FE
:1051C00008A004400CA0044010B5384CE378DBB2D2
:1051D000D80623D510225906E2701ED503F0040329
:1051E00003F0FF02002B33D0314B32491A68324CA6
:1051F00000230B702370002A3BD090472378002BAC
:1052000037D02E4B1B78294A2D49D0249470137126
:10521000264B012002220870DA7010BD5A06DDD438
:10522000A27802F0100202F0FF0042B313F0010373
:105230001BD1234920480A780078904281BF1F4B38
:10524000501C9B5C08702371184BD0229A7008E0A8
:105250001C48164B174902700120C02208709A7032
:105260001B79124B0222DA7010BDC023A370237980
:10527000F7E71249002301220B702270C3E7124B9B
:10528000124918700322122006F06AF80D4923799A
:105290000A781F2ADBB2E4D8064800780028E0D05C
:1052A0000B4C501CA3540870DBE700BF00600640A5
:1052B0004C53002000530020675300200853002067
:1052C00068530020655300205053002019510000FE
:1052D0002C5300200548064A10B40123054C0370E6
:1052E00049001370217010BC704700BF6653002046
:1052F00067530020085300202DE9F043594C122336
:10530000E370A37803F0200383B0002B55D0B423BF
:10531000DFF86881A370D8F80030524D1C46002099
:10532000EA78D2B29A421CBF144601209606134670
:10533000F6D5002840F08C804B4B1B78002B33D0E7
:1053400003F1FF3E5FFA8EFE0026D8F80040474F7B
:10535000444D0EF1010E30464FF0020C17F8013F9C
:105360002B715FFA86F902E013F0200F09D0EB7879
:10537000DBB293421CBF1C46012013F0020F1A46F9
:10538000F2D085F803C0EA78D2B293421CBF14462B
:105390000120D30633D4930631D5D30744D4013644
:1053A0007645DBD100284AD1002000292ED1304B90
:1053B00000221A7003B0BDE8F0832E4DDFF8BC80E8
:1053C00003F0FF022B680093009ED8F8000005E070
:1053D0002B680193019B9B1B0F2B1BD8E378DBB23F
:1053E000834218BF012213F0200F1846F0D192BB60
:1053F00021481C4B0024B02204709A708BE708BB34
:10540000184B80229A7004200029D0D0154B80229E
:105410009A70CCE7CAB9134B0021802204209970FE
:105420009A7003B0BDE8F083C0B90E4BB9F1000F1C
:105430004FF080020CBF022003209A70B7E7C8F833
:105440000040B1E7C8F80040DAE7C8F80000E2E73A
:10545000C8F8004070E7C8F80030C9E7C8F8004055
:10546000E3E700BF006006406753002007530020B9
:1054700066530020C85300202953002058FAFF1F0C
:105480000548064A10B40123054C03704900137007
:10549000217010BC704700BF665300206753002086
:1054A000085300200121FFF727BF00BF044B054A26
:1054B0001A604FF47A71002299601A711A7370475A
:1054C00054530020DC67010010B4047F4160022CBB
:1054D000C26002D010BC07F0F1BC836810BC184752
:1054E000F0B4464B464A186BDC6A017911704549A5
:1054F00022790A709A6A00790870002A46D05968A1
:10550000C9688A423ED82168CC8B240402F1FF305E
:1055100065D4C0F30E00C883C88B80B2C882196BF3
:105520000968C88B000452D4C2F30E00C883C88B2C
:10553000002480B212F1FF32C88218BF01229C629F
:10554000D96A2E4809680D6800F12404A54236D0B6
:105550000068C46814F0804F0C680D6815BF24887B
:1055600024780235013544F000440D604463196B22
:10557000254B09791970214912B1CA6A12791A703A
:10558000F0BC7047521A9A620122D9E7586B196829
:1055900005681E4C0A63CC62CC682D681C4E24F052
:1055A00080440327B542CC6083F825701FD1037F68
:1055B0004260022BC2601ED0F0BC07F07FBC0168C5
:1055C00090F82400CC6840F000404863CFE7CC8BD3
:1055D000C2F3080004F47E442043C883A7E7CC8BC1
:1055E000C0F3080004F47E442043C88394E72B46AC
:1055F0001146F0BC18478368F0BC18475CFAFF1FDF
:105600001F8000401C8000401B80004000000FFFF6
:10561000C954000090E80C00F0B41C685968256873
:10562000164F174E29432160164D17491760D66053
:1056300015611160417A154A5C180A3194F82440CA
:1056400053F8215002EBC40149680D60017A5C18DF
:1056500003EB8101247ECD6902EBC40149680D6032
:10566000817A581803EB810390F83000596B02EBF4
:10567000C002F0BC53681960704700BF01401F00B2
:10568000011000380110007800001F80506E0100EA
:105690004268036805CA10B4046822430260D868EF
:1056A000840100F0E06205D5080900F4706021F47F
:1056B00070410143D8681143814209D01A685004EF
:1056C00008D40748186041F08040D96018611A601A
:1056D00010BC704741F08042D96010BC1A6170471D
:1056E00001401F004268437A134493F824308B42F0
:1056F00009D0F0B492F824408C4205D092F82540AD
:105700008C421AD0F0BC70470024214616685568B8
:1057100036682E420FD00A4D05EBC30300275E68A2
:105720005318376093F8243005EBC3050A316B68D2
:1057300052F821201A604472E4E701242146E5E78B
:10574000506E01004268037A13441B7E8B4207D0DF
:10575000F0B4147E8C4204D0547E8C421AD0F0BC3B
:105760007047002421461668556836682E420FD0CF
:105770000A4D05EBC30300275E68531837601B7E94
:10578000063105EBC30502EB81026B6852681A60B3
:105790000472E4E701242146E5E700BF506E0100F2
:1057A0004268837A134493F830308B4209D0F0B4C6
:1057B00092F830408C4205D092F831408C421BD098
:1057C000F0BC7047002421461668556836682E42A2
:1057D00010D00B4D05EBC30300275E6853183760EC
:1057E00093F830300C3105EBC30502EB81026B6896
:1057F00052681A608472E3E701242146E4E700BF9F
:10580000506E010038B590F90230002B044612DBCF
:10581000A56805F1240001F0FDF928B9637843F08B
:1058200001036370002038BD05F50C7001F0F2F93A
:105830000028F3D038BD8068A1692430012201F02E
:10584000A3F90028EAD0A38803F00F035B01C51871
:10585000E4D0C35CE52BE1D023780B4A1B0744BF9F
:10586000E369EB61236A12686B831B0CAB8232B174
:1058700005F1160105F1180090472B8B6B82A37878
:1058800003F07F03A370C3E7705300202DE9F041BC
:10589000037803F020032BB903F0FF044269204B87
:1058A0009A4203D900263046BDE8F0818378016929
:1058B000054663F07F038068AB7005F1100201F0CC
:1058C0001DFB06460028EDD02969A86801F0CAF939
:1058D0000746A86839462430052201F055F980466C
:1058E0000028DFD04FF40072214609F0D7FFAB68E3
:1058F0001A79012A0FD9012403E0AB681A79A24270
:1059000009D9E1191868424602F014F90134E4B2E9
:105910000028F2D1C6E76B6903EB42226A61C2E755
:10592000FFFD1F0038B5037804461BB90023237020
:10593000012038BD90F90230002B14DBA56805F179
:10594000240001F067F938B9637843F0010363700C
:1059500000232370002038BD05F50C7001F05AF9C2
:105960000028F1D0E2E78068A1692430012201F02B
:105970000BF90028E8D0A38803F00F035B01C518DA
:10598000E2D0C35CE52BDFD023780B4A1B0744BF72
:10599000E369EB61236A12686B831B0CAB8232B143
:1059A00005F1160105F1180090472B8B6B82A37847
:1059B00003F07F03A370C1E7705300202DE9F04787
:1059C0000D7815F0700F88B003D1002008B0BDE845
:1059D000F087C32304460D4600F07EFE0028F4D075
:1059E0005D4B6269012610219A42A6702170ECD8A5
:1059F00081236218A3702169A06801F07FFA002852
:105A0000E3D02169A06801F02DF90746A068394666
:105A10002430052201F0B8F880460028D5D04FF494
:105A20000072002109F03AFF08E0F11900684246CF
:105A300002F080F80136F6B20028C6D0A0680279DC
:105A4000B242F2D8636921782669266203EB4223C9
:105A50006361002974D124300122A16901F094F816
:105A60000028B2D0A68806F00F0610EB4616ACD080
:105A70001023F372B26830687168F368B6F8149056
:105A8000B6F81AA06F460FC730697169B269F36939
:105A900008AE0FC74FF02E084FF02033216AA068E0
:105AA00006F8208DCDF80530CDF80130ADF809307D
:105AB00001F0D8F8A3680146012203F1240001F0A7
:105AC00063F88646002880D03746ADF81490ADF8CC
:105AD0001AA00FCFCEF80000CEF80410CEF80820A0
