:1000000000800020BD01000075B100002DB100008E
:100010002DB100002DB100002DB100002DB1000068
:100020002DB100002DB100002DB1000075B1000010
:1000300075B100002DB10000D5CC000025CF000027
:1000400075B1000075B1000075B1000075B1000018
:1000500075B1000075B1000075B1000075B1000008
:1000600075B1000075B1000075B1000075B10000F8
:1000700075B1000075B1000075B1000075B10000E8
:1000800075B1000075B1000075B1000075B10000D8
:1000900075B1000075B1000075B1000075B10000C8
:1000A0006D50000075B1000075B1000075B1000021
:1000B00075B1000075B1000075B1000075B10000A8
:1000C00075B1000075B1000075B1000075B1000098
:1000D00075B1000075B1000075B1000075B1000088
:1000E00075B1000075B1000075B1000075B1000078
:1000F00075B10000F5D5000075B1000021D70000F2
:1001000075B100004DD8000075B1000075B1000058
:1001100075B1000075B1000075B1000075B1000047
:1001200075B1000075B1000075B1000075B1000037
:1001300075B1000075B1000075B1000075B1000027
:1001400075B1000075B1000075B1000075B1000017
:1001500075B1000075B1000075B1000075B1000007
:1001600075B10000CDB8000075B1000075B1000098
:1001700075B1000075B1000075B1000075B10000E7
:1001800075B1000075B1000075B1000075B10000D7
:1001900075B1000075B1000075B1000075B10000C7
:1001A00075B1000075B1000075B1000075B10000B7
:1001B00075B1000075B1000061CA0000564B4CF2E9
:1001C000205210B51A804DF628121A8000BF00BFC9
:1001D00000F07EFB514B4FF010621A60504A9A605B
:1001E000504ADA60504A136813F4807304D14F49BF
:1001F0000B604FF4A85313604D4B1A78110703D5C9
:100200001A7842F008021A704A4B4B492A221A7097
:100210004A4A4B4B8B4204D252F8040F43F8040B6A
:10022000F8E7484B484900228B4202D243F8042B9E
:10023000FAE74649464A002352F8230041F82300D2
:1002400001336F2BF8D1434B434A802103F8011B44
:100250009342FBD1414B3D4A1A60414B8A221A70AE
:10026000A3F5805324225A70A0221A709A7992071B
:10027000FCD59A79D406FCD43A4A937903F00C035E
:10028000082B384BF9D103221A7140225A719A79FE
:100290009006FCD5334A9179324B4906FBD5324A58
:1002A000324911600221516020221A709A7902F0BD
:1002B0000C020C2AFAD12E4B2E4A1A602E4B4BF60A
:1002C0007F321A6000225A60072243F8042C2B4A1E
:1002D000C3F80C2D62B60BF06FF8144B1B68DA07ED
:1002E00005D527480BF056F8264B274A1A60274BAE
:1002F0001B785B0609D5234C234B22689A4204D114
:100300001F480BF047F8002323600EF06BFE0AF045
:1003100035FF0DF0CDF8FEE70E200540308004409B
:10032000823F04000100002B10D0034014D0034092
:1003300002D0074000E00740F0090020C873010028
:1003400020F9FF1FF00900200057002000F4FF1FD4
:100350000000000000E400E05FE400E008ED00E0E1
:100360000050064000400640448004400000131145
:1003700004800440C010050014E000E000002020CC
:10038000AB1EF45B1CE00340A5C3945A00F0074089
:10039000FFFFFFFFFFFFFFFFFFFFFFFFFFFFFFFF6D
:1003A000FFFFFFFFFFFFFFFFFFFFFFFFFFFFFFFF5D
:1003B000FFFFFFFFFFFFFFFFFFFFFFFFFFFFFFFF4D
:1003C000FFFFFFFFFFFFFFFFFFFFFFFFFFFFFFFF3D
:1003D000FFFFFFFFFFFFFFFFFFFFFFFFFFFFFFFF2D
:1003E000FFFFFFFFFFFFFFFFFFFFFFFFFFFFFFFF1D
:1003F000FFFFFFFFFFFFFFFFFFFFFFFFFFFFFFFF0D
:10040000FFFFFFFFFFFFFFFFFFFFFFFFDEF9FFFF23
:1004100010B5054C237833B9044B13B10448AFF33E
:1004200000800123237010BDF009002000000000AF
:10043000C4730100084B10B51BB108490848AFF35D
:1004400000800848036803B910BD074B002BFBD0A0
:10045000BDE81040184700BF00000000F40900206C
:10046000C4730100F0090020000000000020704764
:10047000704700BF027C02F0080202F0FF0332B1B5
:10048000C36A406A181A48BF6FF0004070471846A8
:10049000704700BFF8B55548554D564C297803783C
:1004A0002278DFF868E1544F544E120442EA0323E5
:1004B000FF222A700270802022708EF800003870AF
:1004C000B2794F480B4312F00C0FC36002D1B379DD
:1004D000DC063DD4494A9379C3F38103032B40D012
:1004E000464B9A79C2F38102022A42D0434A937959
:1004F000C3F38103022B53D0404A9379C3F38103A2
:10050000022B61D03D4A9379C3F38103012B51D073
:100510003A4A9379C3F38103012B5CD0374B9A7924
:1005200012F00C0F03D19A79D20600D49B79354D85
:10053000354B2A7853F82240D4B1236820469B6873
:1005400098472B7804EB83046468002CF5D1F8BD40
:10055000B3799806EBD5294A9379C3F38103032B2A
:10056000BED19379D906BBD493799B06DFD4B7E784
:10057000F8BD9A79D706B9D49A799606B6D559783E
:1005800001F0020101F0FF020029AFD120211A7011
:100590001A461970937903F00C030C2BFAD1C6E7B5
:1005A0009379DD06A8D493799C06A5D4537898074F
:1005B000BDD5A1E79379DF06AAD593799E06A7D486
:1005C00053789D07B3D4A3E79379D9069AD4537887
:1005D0009B07ACD496E79379DC069FD59379980670
:1005E0009CD453789907A2D598E700BF06C007406E
:1005F00005C0074007C0074009C00740004006404B
:10060000D8560020B05300207053002008C0074087
:1006100090F92410104B03604B1C06D0F0B40F4E21
:1006200056F82130984201D0F0BC70470C4F57F873
:10063000213033B18D0000245A1953685460002BC7
:10064000FAD1084C23780022013B237047F821207F
:1006500046F82120E8E700BF8C620100905300209B
:1006600070530020B153002038B590F924506B1C12
:100670001BD00E4B0E4953F825400E4BEDB24FF0F8
:10068000FF320D701A6084B1AD0002E02C44646842
:100690005CB194F82530002BF8D0236820462C4418
:1006A0001B6898476468002CF3D138BD7053002054
:1006B000B0530020B8F3FF1F704700BF90F924101B
:1006C000104B03604B1C06D0F0B40F4E56F821308F
:1006D000984201D0F0BC70470C4F57F8213033B12D
:1006E0008D0000245A1953685460002BFAD1084C2D
:1006F00023780022013B237047F8212046F821206F
:10070000E8E700BF8C620100905300207053002086
:10071000B153002090F92410104B03604B1C06D0FD
:10072000F0B40F4E56F82130984201D0F0BC70471B
:100730000C4F57F8213033B18D0000245A195368FB
:100740005460002BFAD1084C23780022013B23701F
:1007500047F8212046F82120E8E700BF8C6201001D
:100760009053002070530020B153002010B5002199
:1007700004460CF039F9B0B1B4F8B4319BB2C3B14E
:10078000B4F8B031B4F8B2219BB20133632BC8BFC7
:10079000002392B2934207D09A1D04EB82029BB2CF
:1007A0005060A4F8B03110BDD4F8B8310133C4F8AA
:1007B000B831BDE810400CF0D3B800BF103005F0E0
:1007C00045BC00BF00B583B002AB012203F8011D98
:1007D0001030194605F03AFC03B05DF804FB00BF89
:1007E000103005F00FBB00BF00B583B001220DF142
:1007F0000701103005F040FA01280CBF9DF80700F2
:100800004FF0FF3003B05DF804FB00BF103005F07F
:10081000CFBB00BF2DE9F0410E4680460AF0B4FD83
:10082000174D286007F07CFF0746286807F054FF43
:100830000446286807F03EFF6401C0B204F4FF5488
:10084000BFB20443A7F2BC7744EA4724A8F80040AB
:10085000286807F053FF0746286807F007FF04469B
:10086000286807F015FFFF02640107F4FF2704F46E
:10087000FF54C0F346003C4304433480BDE8F0819C
:10088000F44E002038B5054C014620460CF066FBBE
:10089000054620460CF0DCFB284438BD90FFFF1FC6
:1008A00010B504460FF06CFA21460246BDE8104030
:1008B00001480CF03FBB00BFC051002010B50446FA
:1008C0000FF05EFA01462046BDE810400BF070BE06
:1008D000464A474B102010801B781B0734D5F0B5D3
:1008E000444E454D454C31782B782278DFF82CE189
:1008F000434F824042EA03230B43FF2280213270A0
:100900002A7022708EF800103970D9073D4A14D52C
:100910001A2393603C4F3D4E3D4D3E4C3E4910796D
:1009200000233B7053709370D370D3603370137196
:100930002B70237013700870F0BD1F0705D4DE06FE
:1009400006D504239360E5E7704721239360E1E730
:100950009D0604D45C0604D516239360DAE7906004
:10096000D8E7180602D509239360D3E7D90502D545
:100970000A239360CEE79F0502D50D239360C9E754
:100980005E0502D50B239360C4E71D0502D51E2327
:100990009360BFE7DC0402D502239360BAE79804B2
:1009A00002D507239360B5E7590402D50623936067
:1009B000B0E71F0402D515239360ABE7DE0302D531
:1009C00024239360A6E79D0302D522239360A1E729
:1009D000DC0202D5252393609CE71803F5D4590364
:1009E000F3D49B0244BF2323936093E70020054088
:1009F00002D0074005C0074006C0074007C00740B7
:100A000009C00740D856002000C0074001C0074079
:100A100002C0074003C0074004C0074008C00740A9
:100A2000002976D02DE9F04F0C469100631883B071
:100A30005D68002D57D06B185E68002E50D073187B
:100A40005F68002F49D07B18D3F80480B8F1000FFD
:100A50003CD008EB0103D3F80490B9F1000F32D079
:100A600009EB0103D3F804A0BAF1000F27D00AEB79
:100A70000103D3F804B0BBF1000F18D00BEB010356
:100A80005B6863B1194401934968FFF7C9FF019B93
:100A900093F825201AB11A681846536898479BF8AE
:100AA000253023B1DBF8003058465B6898479AF848
:100AB000253023B1DAF8003050465B68984799F842
:100AC0002530002B35D198F8253063BB97F82530B9
:100AD0001BB13B6838465B68984796F82530CBB920
:100AE00095F8253063B994F8253013B903B0BDE803
:100AF000F08F23685B68204603B0BDE8F04F1847CD
:100B00002B6828465B68984794F82530002BEDD079
:100B1000EFE77047336830465B68984795F82530B3
:100B2000002BE0D0ECE7D8F8003040465B689847EF
:100B3000CCE7D9F8003048465B689847C3E700BF68
:100B400090F92420531C26D01B4B2DE9F04153F87B
:100B50002240D2B2ECB19300E1184D68B5B1E9186A
:100B60004E6866B1F1184F6837B13B445968FFF7DA
:100B700057FF97F82530A3B996F8253063B995F853
:100B800025301BB12B6828465B68984794F82530C0
:100B900063B9BDE8F0817047336830465B689847B9
:100BA000EDE73B6838465B689847E5E723682046F1
:100BB0005B68BDE8F0411847705300202DE9F84309
:100BC0004F4CB4F8B021B4F8B23192B29BB29A4211
:100BD00038BF6432D31A3F2B67DD4A4DD4F8AC914D
:100BE000DFF81C8105F58047002637E04FF480725E
:100BF000002109F0E1FE48460BF0B2FEC4F8AC61FA
:100C0000B4F8B231B4F8B0219BB292B293424ED054
:100C10000133632B86BF4FF0000E73461FFA83FE2D
:100C2000063304EB83034FF48072D3F80490C4F8C6
:100C3000AC9109F104012846A4F8B2E109F0BCFE28
:100C4000B9F1000F04D048460BF08AFEC8F8AC6139
:100C500005F50075BD424FF0000934D0A5F5807050
:100C6000B9F1000FC2D1B4F8B231B4F8B0219BB2DF
:100C700092B293423DD00133632B86BFCE4673467A
:100C80001FFA83FE063304EB83034FF48072D3F81C
:100C90000490C4F8AC9109F10401A4F8B2E109F0A0
:100CA0008BFEB9F1000FABD0A5E7BDE8F88328466D
:100CB0004FF48072002105F5007509F07DFEBD42FC
:100CC0004FF00009CAD14FF480420F490F4805F098
:100CD000BDF9013005D00E4A136820331360BDE81A
:100CE000F883012114200AF0BBF90A4B0A4A1A6062
:100CF000F1E749464FF4807209F05EFE80E700BFDD
:100D0000084F0020780B0020780A0020540A0020A9
:100D1000044F00200CED00E00400FA0570B5124C01
:100D2000124D13480D210BF043FC20460CF090F9B6
:100D30002E88104810210BF03BFC314620460CF069
:100D40000DF920460CF084F90B4A0C4B12882A80CE
:100D50000B480022A3F8B42104F036FD6420BDE85E
:100D600070400AF08BBC00BF90FFFF1FC8540020EA
:100D7000B0620100C0620100F0540020084F002062
:100D8000540A00202DE9F04F95B00AF0FDFADFF883
:100D90006892884CC9F8000007F09EFC23689842CE
:100DA00000F067820A218448844E854F0BF000FCD6
:100DB00084480CF04DF9D9F8000007F08DFC206054
:100DC000D9F8000007F0ACFC23687F4902467F4851
:100DD0000EF068FF002401237C4A7D49376007A894
:100DE0008DF81C408DF81D4004F00AFEDFF8DC8110
:100DF000002110200AF006FC98F8002000232F2A7A
:100E00008DF81C308DF81D3000F0B68107AC2046FF
:100E100001236E4A6E4904F08FFE58B19DF81C30D4
:100E200013F0700F06D00FCC694D0FC50FCC0FC556
:100E300023682B60D9F8000007F072FC0446D9F84B
:100E4000000007F049FC8246D9F8000007F032FCA8
:100E50000590D9F8000007F051FC8346D9F800004E
:100E600007F004FC0490D9F8000007F011FC059A83
:100E7000049B0092039002932246CDF804B053469F
:100E8000544955480EF00EFF002508243760102005
:100E900009F0CAFF0DF086FC4FF06A510DF0D6FC48
:100EA000014628460DF0CAFB013C0546EFD14848F3
:100EB000DFF8489104F088FC484901F23C4004F016
:100EC000BBFE4FF47A7646230BA8454A40498DF87D
:100ED0002C408DF82D408DF820408DF82840099643
:100EE000CDF81C9004F028FE9DF82C30002B40F02B
:100EF00051810E213B480BF05BFB012114200AF0CD
:100F0000AFF8394B394A1A6098F800202F4900236E
:100F10002F2A8DF81C308DF81D3000F0208107A895
:100F200001232A4A2A4904F007FE60B19DF81C30CB
:100F300013F0700F07D007AC0FCC254D0FC50FCCA9
:100F40000FC523682B604FF47A7500240995C223DE
:100F5000214A1F498DF82C400BA80BAD8DF82D4070
:100F60008DF820408DF82840CDF81C9004F0E4FD69
:100F70000FCD1F4E9DF82040347106F110040FC4B0
:100F80000FCD0FC4099A9DF828302968B2603373D9
:100F9000114821600EF0F4FE01460F48154FDFF8AE
:100FA00048B0DFF848A00BF003FB06480CF050F8FF
:100FB0006CE000BF2C520020D46201006C53002072
:100FC0001508000090FFFF1FE0620100C8500020DC
:100FD000B84E0020EC620100985100207C4A0020AD
:100FE0000C6301004C6301000CED00E00400FA0505
:100FF000440A0020C4500020F44E00206862010022
:1010000004F09AFD60B19DF81C30AA4D13F0700FEA
:1010100007AC05D00FCC0FC50FCC0FC523682B60D4
:101020004FF47A750024C223A34AA24909950BA85C
:101030000BAD8DF82C408DF82D408DF820408DF8AB
:101040002840CDF81C9004F077FD0FCD9B4C9DF807
:1010500020E086F804E00FC40FCD0FC49DF82830BF
:10106000099A33732968B260934821600EF088FEB4
:10107000014691480BF09CFA91480BF0E9FF0A20D9
:101080000AF0FCFA3B68B3F57A7F61DC347C8D4969
:101090008948F4B93B6801331A463B600EF002FE02
:1010A00098F80050884A83498DF81C402F2D4FF046
:1010B000010307A88DF81D40A2D15478002C9FD1C0
:1010C000084604F081FB814901F23C4004F0B4FD84
:1010D000A6E77F487F4907687F4C804A804B814D57
:1010E00003C9206092E80300A06093E80300102683
:1010F0000123A382E382E060266138460DF092FD71
:101100003946A06138460DF099FA0DF08BFD764A0C
:10111000E0612B68668492E803005B0203F1240619
:101120002C226062214602276448A36227846660FD
:1011300004F08CFF09216D480BF03AFA29686048E9
:101140000BF00CFF5E480BF083FF15B0BDE8F08F8D
:101150000121142009F084FFCBF800A096E74B781A
:10116000002B7FF4DCAE534804F02EFB574901F20C
:101170003C4004F061FDE6E698F80130002B7FF476
:1011800045AE4C4804F020FB504901F23C4004F0CD
:1011900053FD4FE64848564E0EF0F2FD46490246D2
:1011A0000BA804F053FF14A92C2301F8383D0122A9
:1011B0000DEB030004F04AFF06F1080707AC16F830
:1011C000011F00230A2220460BF092FFBE42F6D1F7
:1011D000284648490DF03AFB4FF078510DF036FBA8
:1011E00014A92C260546012201F8356D0DEB0600E9
:1011F00004F02CFF404B18680CF07EFE02270B46D3
:101200000246009720460BF0CFFF14A9012201F8F7
:10121000366D0DEB060004F019FF28460CF06CFE4D
:1012200000970B46024620460BF0BEFF14A9012290
:1012300001F8376D0DEB060004F008FF2F480EF0A3
:101240009FFD2E4902460DEB060004F0FFFE2046EE
:101250000BF0FEFE28462A490DF096FC60B92846A0
:1012600028490DF091FC002858D10BA804F0ACFAE5
:101270004AE6254E254FB9E5254E3368002BEED0C2
:10128000012105200AF08CF940F6B8300AF0F6F991
:10129000002105200AF084F91E4A1F49002313701B
:1012A0000BA80B22336004F0D1FE20460BF0D0FED9
:1012B000D5E700BFB84E002098510020540A002006
:1012C00090FFFF1F5C630100C85000207C4A002093
:1012D0000C520020686301007C5200207063010002
:1012E00078630100F85100208063010088630100E9
:1012F0004B510020CDCCBC405C51002008FAFF1FB0
:1013000066664640000040406C530020150800000F
:1013100058510020014F0020146301002822174972
:101320000BA804F093FE20460BF092FE0BA804F0ED
:101330004BFA00250824102009F076FD0DF032FA52
:101340004FF06A510DF082FA014628460DF076F909
:10135000013C0546EFD10A490DF078FA4FF078517B
:101360000DF074FA07490DF00FFC00283FF47DAF33
:1013700047F230500AF082F9DBE700BF206301003A
:10138000CDCCBC400000404038B50E211C481D4D5E
:101390000BF00EF91C480BF05BFEFFF7F3FC1B4B48
:1013A000D5F8AC0100241C6018B10BF0D9FAC5F8CF
:1013B000AC41B5F8B241B5F8B031A4B29BB2A3428A
:1013C0000ED00134642C28BF0024A31D05EB830339
:1013D00058680BF0C5FAB5F8B0319BB2A342F0D112
:1013E0000123A4B20B210A48A5F8B241A5F8B431F3
:1013F0000BF0DEF80448BDE838400BF029BE00BF12
:1014000094630100084F002090FFFF1F044F00204D
:10141000A463010070B517488EB004F0D5F91649E1
:101420000EAD01F23C4004F007FC144B45F8343D8E
:1014300000244623124A0F498DF8144005A84FF4A2
:101440007A768DF815408DF808408DF81040039697
:1014500004F072FB9DF8143053B12922094905A804
:1014600004F0F4FD28460BF0F3FD05A804F0ACF9F8
:101470000EB070BDB84E00207C4A002068620100AA
:101480000C630100B0630100F8B5394D394C2A688E
:1014900054F8223013B1013B44F822301021364871
:1014A000334F0BF085F82B68344854F823100A2288
:1014B00000230BF01DFE31480BF0CAFD2B6854F8D9
:1014C0002320DAB901332E4A3B600126042B167023
:1014D00022D02C4C2C4A04F58C6712F82320384675
:1014E00004F26C414FF0384306F012F8E0B9274897
:1014F000FFF7E4F928680130FFF7C4F90E2124480A
:101500000BF056F829681D4801310BF027FD1B48E8
:10151000BDE8F8400BF09CBD0E211E480BF048F8CA
:1015200016480BF095FDFEE704F23C40276004F0FE
:101530004BF93146204605F0EFFE014690B1114CC3
:1015400004F23C463046214604F076FB0028CED01B
:1015500094F83C3413F0700FC9D00F4B1E60FFF7A6
:1015600059FFCBE7204605F0D7FE0028E7D1BEE7BC
:101570006852002014520020DC63010090FFFF1F1E
:10158000045200207C4A00206051002010640100B9
:1015900000640100F06301006853002008B50121D8
:1015A000052009F0FDFF4FF4FA600AF067F800210A
:1015B000052009F0F5FF024B01221A7008BD00BF9B
:1015C000014F002008B50121052009F0E9FFC820DE
:1015D0000AF054F80021052009F0E2FF64200AF027
:1015E0004DF8024B01221A7008BD00BF014F0020C8
:1015F00008B50121052009F0D3FF40F6B8300AF004
:101600003DF80021052009F0CBFF024B00221A70A3
:1016100008BD00BF014F00202DE9F0438FB0044604
:101620000EF0AEFB00B201281CDDB4F9003044F22C
:101630005372934200F0A68118DD44F6545293424F
:1016400000F0DA8045F2532293422FD044F6521232
:10165000934207D10BAAE01CBD490EF049FBBD4BDC
:101660000B9A1A6001200FB0BDE8F08344F24E429D
:1016700093420FD044F252429342F3D10BAAE01CA2
:10168000B3490EF035FBB44B0B9A1A6001200FB032
:10169000BDE8F0830BAAE01CAD490EF029FBAF4B6F
:1016A0000B9A1A6001200FB0BDE8F0830AAD09A9BA
:1016B00008AA05ABE01C039502910192009307AACA
:1016C00006ABA7490EF014FBA64B079D5968186896
:1016D0009A680A9EDDF824E0DDF820C0A5F5FA65D9
:1016E000ADB20BAF2CB207C7069F05991E3415F09B
:1016F000030F4FEAA408FDB240F053819A4B022D2C
:101700008CBF1F4600279948994BC8EB040400FB87
:1017100008F06A1E03FB0400002A00EB070347DD04
:101720009DF82C409048012A00FB043340D09DF8DE
:101730002D40022A00FB04333AD09DF82E40032AA4
:1017400000FB043334D09DF82F40042A00FB0433FF
:101750002ED09DF83040052A00FB043328D09DF898
:101760003140062A00FB043322D09DF83240072A7C
:1017700000FB04331CD09DF83340082A00FB0433DF
:1017800016D09DF83440092A00FB043310D09DF890
:1017900035400A2A00FB04330AD00B2A9DF8364054
:1017A00018BF9DF8372000FB043318BF00FB02333D
:1017B0005FFA8EF2C2EB02125FFA8CF04FF46164B2
:1017C000920004FB0022684D6A4C6B48C9B2013993
:1017D00052FA86F205FB01221344122123600AF01B
:1017E000E7FE216865480BF0B9FB64480BF030FC5C
:1017F00001200FB0BDE8F0830AAD09A908AA05AB26
:10180000E01C039502910192009307AA06AB54498C
:101810000EF06EFA534B079F9A68186859680A9E33
:10182000DDF824E0DDF820C0A7F5FA67BFB20BAC05
:101830003DB207C4069A059C1E3517F0030F4FEA08
:10184000A508D7B240F0AA80474B022F8CBF99461B
:101850004FF000094549464BC8EB050501FB08F16F
:101860007A1E03FB0510002A00EB090347DD9DF8F3
:101870002C003D49012A01FB003340D09DF82D008A
:10188000022A01FB00333AD09DF82E00032A01FB07
:10189000003334D09DF82F00042A01FB00332ED0F2
:1018A0009DF83000052A01FB003328D09DF8310057
:1018B000062A01FB003322D09DF83200072A01FBE3
:1018C00000331CD09DF83300082A01FB003316D0EA
:1018D0009DF83400092A01FB003310D09DF8350033
:1018E0000A2A01FB00330AD00B2A9DF8360018BFE4
:1018F0009DF8372001FB003318BF01FB02335FFA6C
:101900008EF2C2EB02125FFA8CF04FF46165920026
:1019100005FB0022E1B2144C164D52FA86F2013951
:1019200004FB01241C4420462C6009F033FD0B21EC
:1019300013480AF03DFE214600230A220F480BF00F
:10194000D7FB0E480BF084FB01200FB0BDE8F083FD
:101950005064010048FAFF1F3CFAFF1F54FAFF1FB2
:101960003064010098620100805101000085E201AD
:101970008033E101FC4E00205464010090FFFF1F02
:10198000446401000BAAE01C07490EF0B1F9074BB3
:101990000B9A1A6001200FB0BDE8F0834FF00009E8
:1019A00058E70027AFE600BF5064010000FAFF1FB0
:1019B0002DE9F043A3B000254FF47A76764F7748AF
:1019C0000A968DF830508DF831508DF824508DF8EE
:1019D0002C50089703F0F8FE714901F23C4004F0E6
:1019E0002BF901236F4A6D49179619A88DF8645099
:1019F0008DF865508DF858508DF86050159704F0AB
:101A00009BF80DF1640EBEE80F000CAE0FC6BEE8E9
:101A10000F000FC69DF83080DEF800109DF85800CA
:101A2000179A9DF8603031608DF824000A928DF885
:101A30002C30B8F1000F46D02E468DF800604FF0E4
:101A400000094FF0FF08012215A90CA804F014F9B1
:101A500009F1010322AA01284A441BB224D01D2BFC
:101A600002F8888C05DC9946EDE71D2B01DC0A2A7B
:101A7000F9D1013B9BB222AA1A4402F8886C9DF866
:101A800000202F2A04D0012B02D96846FFF7C4FD9D
:101A90009DF830301B0711D40CA803F095FE2DBB28
:101AA000012023B0BDE8F0839DF854200D2A08BF23
:101AB0004B4662D11D2BDCDC9946C4E7139A119B7F
:101AC0009A42BAD1E8E7142137480AF071FD374845
:101AD0000BF0BEFA0D22364936480BF02BFA35488A
:101AE0000BF0B6FA404623B0BDE8F0830B21324834
:101AF0000AF05EFD00230A2221462C480BF0F8FA7A
:101B00002A480BF0A5FA254803F05EFE244900257B
:101B100001F23C4004F090F84FF47A768DF864506E
:101B20008DF865508DF858508DF8605063231D4A2C
:101B30001A49179619A819AD159703F0FDFF0FCD97
:101B40000CAE0FC60FCD0FC62968179A9DF86030EE
:101B50009DF8585031600CA821460A928DF82C301F
:101B60008DF8245004F082F9022214490CA804F0E4
:101B70006DFA0CA803F028FE92E722AB03EB0901F3
:101B8000542A09F1010301F8882C1BB27FF46DAFD0
:101B9000119C0546013C8DE768620100B84E0020AB
:101BA0007C4A0020686401008464010090FFFF1FEC
:101BB0009C640100C0510020746401008064010035
:101BC00030B583B002AD079C05F8082D8DF80200F2
:101BD000069A8DF804304E3428468DF801108DF8A1
:101BE00005208DF8064006F0AFFD09F0D3FB09F0A3
:101BF000CBFB024B186003B030BD00BF784A002019
:101C00002DE9F041044604200D46164609F0ECFC8F
:101C10008046032009F0E8FC0746B8F1000F2AD1FE
:101C2000DFF89C80244AD8F800300121132B117072
:101C300039DD0133642BC8F800303ADDC82BD4BF3E
:101C400005343C3467B91D4F1B4A3B680121132BF7
:101C5000117022DD3C2C16DC01233B60013C02E0CC
:101C6000164B00221A60AC4209DBB442C8BF2C46B6
:101C70002046BDE8F081124B00221A60E2E73446AC
:101C80002046BDE8F0813B680133642B3B60E5DD15
:101C9000C82BD4BF053C3C3CE5E7C82009F0EEFC6E
:101CA0003C2CD9DDEFE7C82009F0E8FCD8F800307B
:101CB000BFE70134C6E700BFF84E002028520020DD
:101CC0000852002010B5094C204608F093FA20462F
:101CD000012107F0B5FC2046022107F0ABFC0022F1
:101CE00020461146BDE8104007F0A0BCC0510020BE
:101CF0002DE9F04782B009F047FBB44BB44E1860B1
:101D00000121B448B44FB54CDFF84083B44D07F01F
:101D100091FC0121AF4807F093FC12220021AD484D
:101D200007F084FC0422AF49AA480BF003F931689C
:101D3000A8480BF013F90222AB49A6480BF0FAF8B9
:101D4000A4480BF085F90622A849A2480BF0F2F846
:101D50003968A0480BF002F90322A5499D480BF011
:101D6000E9F80322A3499B480BF0E4F80A22217802
:101D7000984800230BF0BCF996480BF069F9D8F8A5
:101D8000003055F823000CF00DFD9B490CF012FEBD
:101D90000CF0B2F802460B468E4898490BF09AF9BF
:101DA00001218C4807F046FCD8F80030366855F819
:101DB0002330700003FB00F000F500402C300CF0E5
:101DC000EDFC8D490CF0F6FD8B490CF0F3FD8C4BCE
:101DD0001B68012B814600F0D3804FF07E583046BF
:101DE0000CF0E0FC41460CF031FD80463868DFF82D
:101DF00060A2844D30440CF0D5FC014640460CF006
:101E0000D9FD074620780CF0CDFC7F4B19680CF00B
:101E10001DFD7E4B044618680CF0C4FC7C4B196811
:101E20000CF014FD7B4B19680CF008FC39460CF0E3
:101E30000DFD394680464FF07E500CF0FDFB764B91
:101E400019680CF003FD014640460CF0F7FB014613
:101E500020460CF0AFFD71490CF0F8FC0CF0E2FEEE
:101E6000DAF80040002380462B606B60AB60EB60CB
:101E700074B120460CF092FC49460CF09BFD0CF02E
:101E80003BF80BF04DFE0CF063FB286000FB06F402
:101E9000DAF8040068B10CF081FC49460CF08AFDC8
:101EA0000CF02AF80BF03CFE0CF052FB686000FBD3
:101EB00006F0DAF80830044473B118460CF06EFCF2
:101EC00049460CF077FD0CF017F80BF029FE0CF0EA
:101ED0003FFBA86000FB06F3DAF80C001C4468B175
:101EE0000CF05CFC49460CF065FD0CF005F80BF0BD
:101EF00017FE0CF02DFBE86006FB00F020440CF010
:101F00004DFC39460CF056FD044640460CF046FCAC
:101F1000014620460CF056FEF0B901462E222D480F
:101F200007F084FB0D223E492A480BF003F82046B7
:101F30003C490CF03FFD0BF0DFFF022402460B464C
:101F4000009424480BF030F937492248012202B0AE
:101F5000BDE8F0470AF0EEBF2E2200211D4807F031
:101F600065FB0E2231491B480AF0E4FF304919484D
:101F7000A1FB0831090C00230A220BF0B9F8E3E7B2
:101F80002C4A2D4B10781B78834286BFC3F118036F
:101F9000C018C01A0CF006FC284A294B80461B7852
:101FA0001078834286BFC3F13C03C018C01A0CF0FE
:101FB000F9FB2449054640460CF048FC29460CF044
:101FC0003DFB21490CF0F6FC804608E7F44E00206A
:101FD0003CFAFF1FC051002048FAFF1F38FAFF1FCC
:101FE00014FAFF1FAC640100B4640100B86401007E
:101FF000C0640100C464010000007A44C8640100A8
:10200000FC5100201452002044FAFF1F58510020B8
:102010004CFAFF1F50FAFF1F40FAFF1F00006145F6
:10202000E464010000C0A84740640100D4640100DA
:1020300007452EC2945100203C0A0020004F00208A
:1020400064520020000070420000B44430FAFF1FC8
:102050006C52002038B5054606F062FB1E4C014666
:1020600020460AF07BFF2D200AF076FB284606F07A
:1020700033FB014620460AF071FF2D200AF06CFB6D
:10208000284606F017FB014620460AF067FF0121AB
:1020900012480AF08DFA284606F030FB0146204629
:1020A0000AF05CFF3A200AF057FB284606F0DEFAF9
:1020B000014620460AF052FF3A200AF04DFB28461E
:1020C00006F0E6FA014620460AF048FF2046BDE841
:1020D00038400AF0BDBF00BF90FFFF1FFC65010044
:1020E0002DE9F043434A444BDFF81891DFF818819B
:1020F000424D98F80010167899F800701A78286800
:1021000083B03C2313FB071713FB062606F0F6FAF1
:102110000446286806F0AAFAC4EB041400EB840411
:10212000286806F0FDFA00F14E0328688DF80630A5
:1021300006F0D2FA8DF80500286806F0BBFAB7421F
:102140008DF8040006D2A74232D8A64230D303B09D
:10215000BDE8F083A742FAD9A642F8D202A800232C
:1021600099F8002000F8083D98F800308DF801300B
:102170008DF8022006F0E8FA0F21286020480AF0C6
:1021800017FA2868FFF766FF09F0FEF82B6883420C
:1021900004DA03F5A83303F5C0732B600F21184848
:1021A0000AF006FA2868FFF755FF03B0BDE8F08390
:1021B00002A8002399F8002000F8083D98F80030A4
:1021C0008DF801308DF8022006F0BEFA0F2128604C
:1021D0000B480A4C0AF0ECF92868FFF73BFF09F0BE
:1021E000D3F82B688342D9DA03F5A83303F5C0731B
:1021F0002360D3E794510020004F0020FC4E0020C4
:10220000F46401003C0A00206452002010B5002054
:1022100008F0D0FE244C2070012008F0CBFE607046
:10222000022008F0C7FEA070032008F0C3FE1F4B79
:10223000E07022681A60042008F0BCFE20700520BF
:1022400008F0B8FE6070062008F0B4FEA070072009
:1022500008F0B0FE164BE07022681A60082008F003
:10226000A9FE144B1870092008F0A4FE124B187038
:102270000A2008F09FFE114B18700B2008F09AFE00
:102280000F4B18700C2008F095FE0E4B18600D20B7
:1022900008F090FE0C4B18600E2008F08BFE08B181
:1022A0000A4B187010BD00BF245200203CFAFF1FDB
:1022B00048FAFF1F3C0A002064520020945100207D
:1022C000004F0020FC51002030FAFF1F38FAFF1F9A
:1022D000264B10B51968264C00202160C9B208F0C1
:1022E000BFFE6178012008F0BBFEA178022008F053
:1022F000B7FEE178032008F0B3FE1E4B1968216099
:102300000420C9B208F0ACFE6178052008F0A8FEF0
:10231000A178062008F0A4FEE178072008F0A0FECE
:10232000154B0820197808F09BFE144B09201978EA
:1023300008F096FE124B0A20197808F091FE114B16
:102340000B20197808F08CFE0F4B0C20197808F040
:1023500087FE0E4B0D20197808F082FE0C4B0E20E4
:102360001978BDE8104008F07BBE00BF3CFAFF1FA3
:102370002452002048FAFF1F3C0A0020645200202B
:1023800094510020004F0020FC51002030FAFF1F24
:1023900038FAFF1F2DE9F04F8DB0102907910690F4
:1023A00000F0BF80202900F0B0800024631C184694
:1023B0001D4608930CF0F2F9E4B244F0E063099092
:1023C000002128460A9344F08E430B930CF000FA48
:1023D00001465A480CF0EEFA054607980CF0DEF973
:1023E00001460CF02BF9044606980CF0D7F901468B
:1023F00020460CF02BFA014628460CF0DBFA4FF091
:1024000001084FF07E550746C1464FF0010A4FF0D4
:10241000000B50460CF0C6F939460CF017FA04468A
:102420000CF0DAFB0CF0BEF9014620460CF004F982
:10243000294606460CF0A8FB4FF0874148B12046DC
:102440000CF0A2FB28B120460CF00CFC354680466F
:10245000D1461AF1010A4BF1000BBBF1000F08BF86
:10246000BAF1400FD5D109F1FF34089B079E0593BF
:1024700020460296CDF81080CDF80C900CF08EF925
:102480004FF07E510CF0DAF82D490CF0DFF90546DB
:1024900040460CF083F9014628460CF08BFA4FF0C9
:1024A0007C510CF0D3F909990CF084FA05467000C0
:1024B0000CF078F9014628460CF07CFA0CF08CFB05
:1024C000069B009301901F4B1F4A20492048214E34
:1024D000214D0AF0FFFD214921480F68220308F130
:1024E000FF3302F47F22C3F30B03134327F01042A0
:1024F0000A6033600A9B2B600B9B03600B6843F000
:1025000010430B600DB0BDE8F08F164B0B9303F139
:1025100040430A934FF0804309930223124D0893DE
:102520005BE7124B0B9303F140430A934FF0814357
:10253000099304230E4D08934FE700BF001B374C4F
:10254000001BB74C00D8B805006CDC020465010024
:1025500090FFFF1F04F1024008F0024080F00240AB
:1025600088F0024001000047001BB74B0300004702
:10257000001B374B2DE9F04F0546DFF87C82974E64
:10258000974F98F800E02E60FF2085F82400DFF8D0
:102590006C92387859F820C00023BEF1060F8DB038
:1025A0000C4685F8253085F826309CBF88F8003029
:1025B0009E46BCF1000F00F0A8808C455BD06346BE
:1025C000810001E09C4256D00B445B68002BF9D19E
:1025D000634603EB010ADAF80430002BF9D105EB6E
:1025E000010BCAF80440BEF1060F4FF0FF044FFA8A
:1025F00080FACBF804308DF82C4002968DF82D30FF
:102600008DF82E3085F824A0644605D8002388F87C
:102610000030002C00F0A980A24226D0234601E021
:10262000934222D00B445B68002BF9D104EB010CE0
:10263000DCF80440002CF9D1CCF804200CAB194490
:102640000024431CBAF1FF3F41F8244C3B708DF845
:102650002CA0029605D0634951F82A3002AA934271
:1026600072D028460DB0BDE8F08F01303870284692
:102670000DB0BDE8F08F0023FF21BEF1060F0296DA
:102680008DF82C108DF82D308DF82E3001D888F86B
:1026900000309445E9D06346810001E09A42E4D0DD
:1026A0000B445B68002BF9D18C44DCF804402CB15E
:1026B000A4468C44DCF80440002CF9D10CAB19443E
:1026C0004FFA80FE431CBEF1FF3FCCF804203B7064
:1026D00041F8244C02968DF82CE0C2D0414951F8C3
:1026E0002E3002AA9342BCD159F82E304FEA8E0602
:1026F00023B19A1953685460002BFAD10023387023
:1027000049F82E3041F82E30ABE7B0B38100DFF846
:10271000D4A049F8204005EB010C00234AF82050D2
:10272000BEF1060FCCF804304FFA80FA4FF0FF0CE0
:1027300002968DF82D308DF82E3085F824A08DF876
:102740002CC07FF663AF64E759F82A304FEA8A0657
:1027500023B19A1953685460002BFAD100233870C2
:1027600049F82A3041F82A307BE7F0B11D4B49F88F
:10277000202002AA43F8202060E71B491B480B6871
:10278000019243F080630B600368194923F0804392
:102790000360152008F02CFD164B98F800E0019A14
:1027A0004FF4001119603878B0E70F4C0F482368D8
:1027B000019243F08063236003680D4923F0804356
:1027C0000360152008F014FD0A4B019A4FF4001124
:1027D000196038784FFA80FA8100C7E78C620100EF
:1027E000B153002090530020047004400070044056
:1027F0009504000000E100E0BCF3FF1F70530020CF
:102800002DE9F041584D594C594E08F08BFB0421ED
:10281000584807F0DBFC2A682660002363722361B6
:102820002372E3600AB99AE01A465369002BFBD180
:1028300054610027504B4D486761A780E7802360B3
:1028400002F002FA4D4A4FF0010E02F118013B4628
:1028500038461772D760166082F809E01161174692
:1028600000E0396941F82300517A444E013399421E
:10287000F7DC29683C4B09B973E019464B69002B1A
:10288000FBD14A613E4B3F491C600024184654610D
:102890009480D480A2F8B0411160A2F8B2415A608D
:1028A000C2F8AC41A2F8B441C2F8B8411C725C72E3
:1028B000DC600AF0A5F8344A344B9069344A1A6057
:1028C0000BF070FF334D344B344E18604FF0FF085F
:1028D000334B344A344985F825402846012785F88A
:1028E00024802B606C63AC6385F83C4085F82670CF
:1028F0000CF066FB2D4B2B4A2D4986F82480304680
:1029000086F82540336086F8274086F8284086F808
:1029100026700CF055FB2A4631462648264DFFF717
:1029200029FE204A254923480CF04AFB244A254B1E
:102930002549147464204FF47A7654741471147316
:10294000DC7183F83C4483F83D4483F86A4483F89F
:10295000600496601560C3F86C14BDE8F0812C60CB
:1029600067E71E608EE700BFC45400207851002046
:102970005C620100C051002050670100084F002038
:1029800030510020AC62010014FAFF1F40510020BA
:1029900034670100E45000200C5200203452002023
:1029A000F8670100FCF9FF1FBD0600000C6801007C
:1029B00015070000140A00206862010011060000DB
:1029C000440A00207C4A00200110013870B5104CE8
:1029D00006460D4620460A2102F0A4FCC6F3072154
:1029E000204602F077FAF1B2204602F073FAC5F3FE
:1029F0000721204602F06EFAE9B2204602F06AFA98
:102A0000204602F0A1FCB0FA80F0400970BD00BF82
:102A10005053002010B5184C0A21204602F082FCC9
:102A20002046002102F056FA2046302102F052FAE8
:102A30002046002102F04EFA0021204602F04AFA18
:102A4000204602F081FC20460A2102F06BFC204661
:102A5000002102F03FFA2046022102F03BFA204614
:102A6000002102F037FA2046002102F033FA204616
:102A7000BDE8104002F068BC505300202D4B2E489A
:102A800010B51C680A216CBB02F04CFC21462A4898
:102A900002F020FA3021284802F01CFA214626488C
:102AA00002F018FAA221244802F014FA224802F097
:102AB0004BFC0A21204802F035FC21461E4802F05A
:102AC00009FA02211C4802F005FA21461A4802F0D0
:102AD00001FA4321184802F0FDF91748BDE81040FB
:102AE00002F032BC02F01EFC0021134802F0F2F9A1
:102AF0003021114802F0EEF900210F4802F0EAF906
:102B0000AB210D4802F0E6F90B4802F01DFC0A214A
:102B1000094802F007FC0021074802F0DBF9022116
:102B2000054802F0D7F90021034802F0D3F96321E8
:102B3000D0E700BF5851002050530020023803282E
:102B400038B504DC002880F20C82002400E00C245C
:102B50000A21C84802F0E6FB0021C64802F0BAF993
:102B60003021C44802F0B6F94021C24802F0B2F95F
:102B70006021C04802F0AEF9BE4802F0E5FB0A2130
:102B8000BC4802F0CFFB0021BA4802F0A3F926218D
:102B9000B84802F09FF90021B64802F09BF96C2179
:102BA000B44802F097F9B34802F0CEFB0A21B148CD
:102BB00002F0B8FB0021AF4802F08CF92821AD48A3
:102BC00002F088F90121AB4802F084F9F021A9480C
:102BD00002F080F9A74802F0B7FB0A21A54802F0ED
:102BE000A1FB0021A34802F075F92A21A14802F0B7
:102BF00071F900219F4802F06DF900219D4802F013
:102C000069F99C4802F0A0FB0A219A4802F08AFB6D
:102C10000021984802F05EF92C21964802F05AF9FA
:102C20000F21944802F056F92221924802F052F9FD
:102C3000904802F089FB0A218E4802F073FB0021C4
:102C40008C4802F047F93C218A4802F043F94421BC
:102C5000884802F03FF94621864802F03BF9854852
:102C600002F072FB0A21834802F05CFB00218148DC
:102C700002F030F924217F4802F02CF901217D482F
:102C800002F028F937217B4802F024F9794802F054
:102C90005BFB794B77481D680A21002D40F0348199
:102CA00002F040FB2946734802F014F930217148C4
:102CB00002F010F929466F4802F00CF9A2216D4884
:102CC00002F008F96B4802F03FFB0A21694802F064
:102CD00029FB2946674802F0FDF80221654802F009
:102CE000F9F82946634802F0F5F84321614802F0FB
:102CF000F1F8604802F028FB4FF4C87008F0BEFC01
:102D00000A215C4802F00EFB00215A4802F0E2F86A
:102D10002E21584802F0DEF81921564802F0DAF860
:102D20001921544802F0D6F8524802F00DFB0A214E
:102D3000504802F0F7FA00214E4802F0CBF8042187
:102D40004C4802F0C7F800214A4802F0C3F8214677
:102D5000484802F0BFF8474802F0F6FA0A21454811
:102D600002F0E0FA0021434802F0B4F8062141489D
:102D700002F0B0F801213F4802F0ACF830213D48A4
:102D800002F0A8F83B4802F0DFFA0A21394802F0C5
:102D9000C9FA0021374802F09DF80A21354802F0AF
:102DA00099F80021334802F095F80021314802F0EB
:102DB00091F8304802F0C8FA0A212E4802F0B2FA1F
:102DC00000212C4802F086F80E212A4802F082F8F1
:102DD0000021284802F07EF80821264802F07AF8FF
:102DE000244802F0B1FA0A21224802F09BFA00219D
:102DF000204802F06FF810211E4802F06BF8FF2106
:102E00001C4802F067F83C211A4802F063F81948A0
:102E100002F09AFA0A21174802F084FA00211548B4
:102E200002F058F82221134802F054F87F2111488B
:102E300002F050F87F210F4802F04CF80D4802F0E4
:102E400083FA0A210B4802F06DFA0121094802F0C9
:102E500041F82421074802F03DF80021054802F01E
:102E600039F80021034802F035F8024802F06CFA04
:102E70000A2103E050530020585100203A4802F044
:102E800051FA0021384802F025F82421364802F092
:102E900021F80021344802F01DF81421324802F0D4
:102EA00019F8314802F050FA0A212F4802F03AFA94
:102EB00000212D4802F00EF82A212B4802F00AF8D2
:102EC0000021294802F006F80021274802F002F804
:102ED000254802F039FA0A21234802F023FA00219A
:102EE000214801F0F7FF20211F4801F0F3FF0021E6
:102EF0001D4801F0EFFF00211B4801F0EBFF1A48CD
:102F000002F022FA012038BD02F00CFA0021164826
:102F100001F0E0FF3021144801F0DCFF00211248ED
:102F200001F0D8FFAB21104801F0D4FF0E4802F0A9
:102F30000BFA0A210C4802F0F5F900210A4801F0C9
:102F4000C9FF0221084801F0C5FF0021064801F031
:102F5000C1FF6321044801F0BDFF034802F0F4F90A
:102F6000CAE68000C4B2F3E55053002038B5304BB8
:102F7000304C1021054653F82000FFF70BFA2E487D
:102F800002F04EF82846FFF7D9FD22782B4811466B
:102F900001F0D8FA23680F2B0CD8DFE803F00C10EF
:102FA00014181C2024282C3034383C404408244B6E
:102FB000244A1A6038BD224B234A1A6038BD204B80
:102FC000224A1A6038BD1E4B214A1A6038BD1C4B7C
:102FD000204A1A6038BD1A4B1F4A1A6038BD184B78
:102FE0001E4A1A6038BD164B1D4A1A6038BD144B74
:102FF0001C4A1A6038BD124B1B4A1A6038BD104B70
:103000001A4A1A6038BD0E4B194A1A6038BD0C4B6B
:10301000184A1A6038BD0A4B174A1A6038BD084B67
:10302000164A1A6038BD064B154A1A6038BD00BFF3
:1030300014FAFF1F00FAFF1F5053002040510020D8
:103040005C510020BD549341103377C0993918C0AA
:10305000BE0D68BFCE71153F8D090340CCC96240DB
:1030600009A7A3407DDBD140C416014154FC1741A0
:10307000D0E83041195546419FAB5F41A0417641B0
:103080005E2E86413021014806F096BAC0510020DC
:1030900038B504460D463148012106F0CBFA2AB274
:1030A00000212E4806F0C2FA204605F039FB014601
:1030B0002A4809F053FF2D21284806F07DFA2046C2
:1030C00005F00AFB0146254809F048FF2D21234859
:1030D00006F072FA204605F0EDFA01461F4809F0A5
:1030E0003DFF02221E491D4809F024FF204605F03D
:1030F00005FB092803DC3021184806F05DFA20465C
:1031000005F0FCFA0146154809F028FF204605F0B5
:10311000ADFA012205461349104809F00BFF092DAD
:1031200003DC30210D4806F047FA29460B4809F028
:1031300015FF204605F0ACFA01220446094907486C
:1031400009F0F8FE092C03DC3021044806F034FABB
:1031500021460248BDE8384009F000BFC0510020B8
:1031600020650100346501002DE9F041A44D2C6873
:103170002CB1012C00F0A08030BFBDE8F08108F038
:1031800003F9A04FDFF8EC8238609F489F4E07F0AC
:1031900031F801219C4806F053FA02219A4806F0C2
:1031A00049FA22462146984806F040FA0A229849F0
:1031B000954809F0BFFE944809F04AFF0121924862
:1031C00006F038FA122221468F4806F02FFA05221F
:1031D00090498D4809F0AEFED8F800108A480131B8
:1031E00009F0BCFE01228C49874809F0A3FED8F8FB
:1031F00000208A4B844853F8221023460A2209F003
:1032000077FF30682821FFF743FF37213868FFF741
:103210003FFF7D4807F02AFA33683A68591E914209
:1032200009DCDFF8548298F8001021B17C49096864
:10323000002940F086809A423ADB7A4F3C68002CA5
:1032400064D0022C00F0AA810D217748774C09F058
:10325000AFF9774809F0FCFE764B774A774930683A
:103260001B681268096803441A440129326023600C
:1032700000F091810E21724809F09AF908F084F863
:10328000FEF7E8FE0B216F4809F092F92068FEF77F
:10329000E1FE0B216C4809F08BF93068FEF7DAFE8D
:1032A0000123AE2158482B6006F0ACFFFEF76CF806
:1032B0002C68012C7FF460AFFDF780FC042008F03F
:1032C00093F90446032008F08FF90CB9002849D07F
:1032D0005E4C5F4B22681B689A42FFF64DAF564B1F
:1032E0001E68002E40F0CA805A4802F06DFAFEF7C0
:1032F000CBF8FDF747FD58482660FDF7DFFA574B3E
:103300001888FDF7BFFA30BFBDE8F0810A215448A4
:1033100002F008F82146524801F0DCFD0E21504829
:1033200001F0D8FD21464E4801F0D4FD0A214C4859
:1033300001F0D0FD4A4802F007F84FF0FF333B6040
:1033400082E70121052008F02BF9C82008F096F942
:103350002146052008F024F901213A68336888F8ED
:10336000001068E7394B3F4C1B683F4D39485B0202
:10337000002203F124061146A362A5F8B421666079
:1033800002F074FD21462C22324802F05FFE3148E3
:1033900002F01AFA224B1B68002B40F0BE8001237A
:1033A0003C220221184807F057F8642008F066F91B
:1033B000154806F01FFF0121134806F041F90221CC
:1033C000114806F037F9002211460F4806F02EF991
:1033D000072226490C4809F0ADFD0B4809F038FEDC
:1033E0000121094806F026F910222149064809F072
:1033F000A1FD054809F02CFE034807F037F9FEE768
:10340000100A0020F44E0020C0510020FC4E002085
:103410002465010030650100FC65010014520020A4
:103420005851002054FAFF1F386501005451002004
:1034300090FFFF1F3CFAFF1F48FAFF1FFC510020BE
:10344000486501005865010064650100044F0020D3
:10345000F8510020540A00208C650100C854002057
:10346000505300207C520020084F0020706501005E
:103470007865010068520020014F0020FDF74EFCE6
:10348000FEF702F8494B4A4E1C684A4F07F07CFF92
:10349000494A4A4B1268201A841A24EAE47483FBCE
:1034A00004232344E017C0EBE3200AF013FD0AF0E5
:1034B00037FB0BF025F8424B424A306003FB0044D7
:1034C00082FB043222448046E017C0EB62100AF00F
:1034D00001FD0AF025FB0BF013F80201131A821A02
:1034E00004EB82049B004FF4616202FB08333C60F2
:1034F000DFF8EC801C44092CC8F8000013DC324BC8
:103500001B686BB901233C220221304806F0A4FF5E
:1035100000232B6030BFBDE8F081FEF769F83EE77D
:10352000FEF750F8EEE7284C0021022008F038F8AA
:10353000FFF770FA23680BB1FEF75AF82448FDF73D
:10354000BDF93168234809F009FDD8F80010214879
:1035500009F004FD3868FDF795F909F02DF96420AC
:1035600008F08CF83B7898F8002031781A4804F07D
:1035700015FF1A4804F0DAFC0121022008F010F8C7
:103580004FF4967008F07AF823680BB1FEF706F84E
:10359000FFF774FAB6E7FEF7A3FD6BE60B210E20EA
:1035A000FFF714FA4FF0FF333B604DE6FC4E00206E
:1035B000005200201052002004FAFF1FC5B3A29150
:1035C000F0F1FFFF8988888858510020C051002001
:1035D0009865010090FFFF1FE4500020140A0020AE
:1035E000905100202DE9F04F87B0FEF70FFE07F055
:1035F000CBFE964BDFF8A49218609548954F964DF8
:10360000DFF89C8206F0F6FD0121914806F018F8DB
:1036100002218F4806F00EF8002211468C4806F071
:1036200005F808228D498A4809F084FC0121884860
:1036300006F000F810220021854805F0F7FF12225D
:103640008749834809F076FC814809F001FD07218C
:10365000844801F099FF0E21824801F0F3FF0C210C
:10366000804801F0C1FFCA460024002345F8043B0E
:103670007D4809F0EDFC7C4809F0EAFC01340521A5
:103680007A4808F095FF2146774809F067FC7648AC
:1036900009F0DEFC21466E4809F060FC0422744902
:1036A0006B4809F047FC6A4806F0E0FF5AF8042B23
:1036B0007049D2B2A1F10C004FF0384303F028FF5B
:1036C00058BB1C216C4808F073FF674809F0C0FC28
:1036D00006226A495E4809F02DFC5D4809F0B8FCF5
:1036E0005B4806F0C3FF042CBFD15A4C99F8002068
:1036F00004F58C65284604F26C414FF0384303F022
:1037000007FF002840F0CE800B225D49504809F0A9
:1037100011FC4F4806F0AAFFFEE75A4800F12403C7
:103720003B6002F051F801214A4803F0F5FD0146E3
:1037300000287AD0DFF84CB1ABF23C41584602F099
:103740007BFA0028BDD097F83C3413F0700FB8D046
:10375000ABF23C40C8F800B003F042FD0821064639
:10376000494808F025FF31463F4809F0F7FB3E483D
:1037700009F06EFC30460BF015F844490BF066F882
:10378000064638790BF00EF8014630460BF05EF82D
:103790000BF048FA06460BF1240004F0B1F80AF0E9
:1037A000FDFF3A490BF052F80BF03CFA0A21834630
:1037B000374808F0FDFE594600230A222A4809F03E
:1037C00097FC294809F044FCC72E8CBFC83E002650
:1037D000112145F8046C2F4808F0EAFE55F8041C46
:1037E000214800230A2209F083FC1F4809F030FC1D
:1037F000002355F8041C16480A2209F079FC01221E
:103800002549134809F096FB594600230A2210481F
:1038100009F06EFC0E4809F01BFC0D4806F026FF6F
:103820004FF47A7007F02AFF5DE70A4803F074FD51
:1038300000283FF446AFDFF84CB0ABF23C415846AD
:1038400002F0FAF900287FF47EAF3AE7784A0020C8
:10385000C05100207C4A00206C520020AC65010061
:10386000B86501005CFAFF1F90FFFF1F3065010083
:10387000CC650100E84E0020AC660100CC6601007A
:10388000D4660100B84E0020D4650100BD37063A69
:10389000E0650100EC650100006601006051002058
:1038A0006853002004F23C40256001F08DFF0121A7
:1038B000204603F031FD0146002800F07883A64C35
:1038C00004F23C452846214602F0B6F900283FF4B0
:1038D0001BAF94F83C3413F0700F3FF415AF9F4EBC
:1038E000C8F80050FEF764F832689D4B9A4201D93F
:1038F0003C2333609B4F9A4B3A689A4284BF3C23E7
:103900003B60994B1B78172B02D9974A0023137001
:10391000964B1B783B2B02D9944A00231370944B8F
:103920001B78172B02D9924A00231370DFF880927C
:10393000DFF8808299F800303B2B84BF002389F8A0
:103940000030D8F80030012B84BF0023C8F80030C5
:10395000884B1B68052B02D9864A06231360864DC7
:10396000864C082007F040FE20BB2B6801332B60FB
:1039700002E00A2007F082FE082007F035FE00284A
:10398000F7D0D8F800302A68B3FA83F10B2A4FEA4F
:103990005111D8BF0021002940F00683A3F1010393
:1039A000B3FA83F30F2A4FEA5313D8BF0023002B37
:1039B00040F0FA82724806F01DFC0121704805F0C3
:1039C0003FFE02216E4805F035FE002211466C488C
:1039D00005F02CFE07F0D8FC6A4B20601A682B68B3
:1039E000821A02920F2B29D8DFE813F03202190253
:1039F000D1029202DB019D0164012601E8009D00D5
:103A000083006B005F0053003C0010003B2200214C
:103A100099F80000DFF898A1FEF7F2F85A4989F802
:103A200000000722564809F085FA99F80010092984
:103A30002ADD534800230A2209F05AFBFEF758F901
:103A400007F0A2FC3721FFF723FB4D4806F00EFEDE
:103A50000A2007F013FE029BB3F5167F81DD07B045
:103A6000BDE8F08F424B1722002118789A46FEF7E6
:103A7000C7F846498AF800000722414809F05AFA77
:103A80009AF800100929D4DCFFF7FCFA9AF8001024
:103A9000CFE7364B3B22002118789A46FEF7B0F864
:103AA00008228AF800003A49E7E72F4B1722002145
:103AB00018789A46FEF7A4F808228AF800003549DB
:103AC000DBE7052234492E48DFF8E8A009F032FA96
:103AD00001220021D8F80000FEF792F8C8F8000093
:103AE000002800F077820128A8D12C48FCF7D8FEE6
:103AF000A4E7DFF8C4A008229AF800000121FEF72D
:103B00007FF805228AF8000025491D4809F012FABD
:103B10009AF800101A4800230A2209F0E9FA184816
:103B200009F096FA8AE7134B002106221868FEF77F
:103B300067F81C4B0F4A106053F820000AF032FE61
:103B400019490AF037FF0AF0D7F902460B460C482C
:103B5000164909F0BFFA71E77C4A00203CFAFF1FC2
:103B6000A086010048FAFF1F3C0A00206452002092
:103B70009451002030FAFF1FE0500020F44E002046
:103B8000C0510020784A0020A46601009C66010014
:103B9000906601008466010064660100746601009D
:103BA0007C66010014FAFF1F00007A445866010089
:103BB000004F0020FC51002038FAFF1F04F068FD80
:103BC000DFF824B3DFF824A3CBF800003B22002168
:103BD000FEF716F8DBF80030CAF8000098421DD056
:103BE000206804F08BFD8346206804F03FFD0590BB
:103BF0002068DAF800A004F05DFD0490206804F06D
:103C00006BFD0390206804F08BFD039A00920190F5
:103C1000049B059952465846FDF7D2FF0722A84952
:103C2000A84809F087F907F0AFFB04F031FD014621
:103C3000A44809F093F901E704F018FDDFF8B0B2E9
:103C4000DFF8B0A2CBF800003B220021FDF7D8FF3F
:103C5000DBF80030CAF8000098421DD0206804F05C
:103C60004DFD83462068DAF800A004F011FD0590B0
:103C7000206804F01FFD0490206804F02DFD0390DF
:103C8000206804F04DFD039900910190049B059A72
:103C900051465846FDF794FF07228B49894809F0A1
:103CA00049F907F071FB04F0E1FC0146854809F091
:103CB00055F9C3E604F022FDDFF83CB217220021DB
:103CC000CBF80000FDF79CFFDBF8003098428246FD
:103CD0001BD0206804F0CAFC8346206804F0D8FC9E
:103CE0000590206804F0E6FC0490206804F0F4FCE1
:103CF0000390206804F014FD039900910190049B47
:103D0000059A59465046FDF75BFF05226F496D48FD
:103D100009F010F907F038FB04F0F0FC014669489F
:103D200009F01CF98AE604F0C5FCDFF8D0B1DFF831
:103D3000D0A1CBF800001F220121FDF761FFDBF8C5
:103D40000030CAF8000098421DD0206804F0D6FC6C
:103D50008346206804F08AFC0590206804F098FCF3
:103D600004902068DAF800A004F0B6FC0390206804
:103D700004F0D6FC039B009301905346049A0599E6
:103D80005846FDF71DFF042251494E4809F0D2F86C
:103D900007F0FAFA04F08EFC01464A4809F0DEF812
:103DA0004CE604F099FCDFF85CB1DFF85CA1CBF8DD
:103DB00000000C220121FDF723FFDBF80030CAF8D8
:103DC000000098421DD0206804F098FC83462068CB
:103DD00004F04CFC0590206804F05AFC0490206824
:103DE00004F068FC03902068DAF800A004F098FC66
:103DF000CDF800A00190039B049A05995846FDF761
:103E0000DFFE062233492F4809F094F807F0BCFA88
:103E100004F062FC01462B4809F0A0F80EE645F2DA
:103E2000604201213068FDF7EBFE2B49306004222F
:103E3000244809F07FF83168224809F08FF8012200
:103E40002649204809F076F81E4809F001F9F5E501
:103E5000DFF8B8A09AF80030002B40F0B0800A22BA
:103E60001F49184809F066F8042007F0BDFB824698
:103E7000032007F0B9FBBAF1000F7FF4DFAD002893
:103E80007FF4DCADFDF71EFFFEF722FA1548FCF7C4
:103E900007FD0C4806F0EAFB40F2DC5007F0EEFBB1
:103EA000FDF726FF07F070FA3721FFF7F1F8054814
:103EB00006F0DCFB0A2007B0BDE8F04F07F0DEBBE0
:103EC00050660100C05100204866010040660100B4
:103ED0003866010030660100AC6401001C66010018
:103EE00004660100106601003052002028510020B5
:103EF00074510020F04E00200C0A0020DC500020FD
:103F000024510020605200202C510020F84E002047
:103F100004F006FCDFF8E0B0DFF8E0A0CBF800002A
:103F200040F634024FF4FA61FDF76AFEDBF8003028
:103F3000CAF8000098421CD0206804F0DFFB8346DA
:103F4000206804F093FB0590206804F0A1FB049026
:103F5000206804F0AFFB0390206804F0BDFBDAF8A2
:103F60000030049A05998DE80900039B5846FDF737
:103F700027FE05221A491B4808F0DCFF07F004FA67
:103F800004F0CEFB0146174808F0E8FF56E5164A54
:103F900038680021FDF734FE1449386004221148C6
:103FA00008F0C8FF396847E700232B6002E5204688
:103FB00003F0B2F900287FF482ACFFF7A5BBFEF74F
:103FC00087F94FF000038AF8003007F0DDF9084B5D
:103FD000186044E70748FCF763FCDAF8000082E564
:103FE00028660100C05100208051010020660100B8
:103FF000784A00206C660100400A002070510020C1
:104000002DE9F04F8FB072B6C649C74BC74841255E
:104010000E2480220D70047019461A700B78C24A63
:104020001806FBD5C24BC3481D78C34CC349057065
:10403000033B247809781B78C3704470817062B6A2
:1040400072B6B849B94C41260F2580230E702570F1
:10405000114613700B781B06FCD5B54CB649B74A10
:10406000B74B2478097812781B78C37104714171B9
:10407000827162B6B34BB44FB44EDFF8289300247C
:104080000F2115220A254FF014084FF4FA705960D9
:10409000DA601D60C3F8088007F0F0FA64203C6025
:1040A00007F0ECFA4FF430533B60642007F0E6FA77
:1040B0004FF434533B60642007F0E0FA2A4631683D
:1040C000A348234609F014F8A14808F0C1FF4FF4B3
:1040D0007A7007F0D3FA2A4631689D48234609F0E2
:1040E00007F89B4808F0B4FF4FF47A7007F0C6FA5F
:1040F0002A46234631689648964D08F0F9FF9448C1
:1041000008F0A6FF944800F08BFF2146102007F02E
:1041100079FA204606F0FCFD0121022007F072FA30
:104120000121022007F03CFA0121052007F06AFA7C
:104130000121052007F034FA4FF4FA6007F09EFAE7
:104140002146052007F02CFA844B01222146052048
:104150001A7007F025FA824B1B680021012B4FF0E3
:10416000040008BFC9F8008007F04CFA00210320C2
:1041700007F048FA0021082007F044FA0121042042
:1041800007F00EFA0121032007F00AFA01210820A6
:1041900007F006FA07F0F8F8724B2860984240F3EF
:1041A000A38101233C2202216F48704C06F054F990
:1041B0008C2007F063FA6C4806F01CF801216A486D
:1041C00005F03EFA0221684805F034FA0022114653
:1041D000654805F02BFA0A226549634808F0AAFEF3
:1041E000614808F035FF604806F040FA5E4806F086
:1041F00001F801215C4805F023FA02215A4805F034
:1042000019FA00221146584805F010FA0A225849B6
:10421000554808F08FFE544808F01AFF524806F03F
:1042200025FA6E21534808F017FBFFF7DBF9524AD5
:10423000524B166853F826000AF0B4FA2060304654
:10424000FEF794FE4E4801F0BFFA4E490EAE01F261
:104250003C4001F0F1FC4C4B46F8343D00238DF816
:1042600014308DF815308DF808308DF81030474A2D
:104270004349462305A84FF47A77039701F05CFC85
:104280009DF8143053B12922414905A801F0DEFE02
:10429000304608F0DDFE05A801F096FA32483D4FA1
:1042A000DFF804A105F0A6FF01212F4805F0C8F9A9
:1042B00002212D4805F0BEF9002211462A4805F0DA
:1042C000B5F93B683C2B07DDB3F5967FD4BF3C23A3
:1042D0004FF49673CAF8003007F056F8DFF8CC8038
:1042E0002D49DAF800302D4ED8F80020096890FBEF
:1042F000F3FE286003FB0E33294833600129134481
:10430000036000F0F58010460AF04CFA2168DFF8EF
:10431000A0A0DFF8A0B00AF099FA4FF06E510AF0B1
:1043200095FA49E007000240000002400600024002
:104330000B0002404C5100200A00024009000240DC
:10434000080002406051002010D0034000D003401C
:1043500090FFFF1FF44E002050530020014F00201B
:10436000585100207FC18556C05100200C520020BA
:10437000E06601000082FF1F30FAFF1F14FAFF1FE2
:10438000B84E00207C4A0020686201000C630100E6
:10439000B063010048FAFF1FFC510020FC4E0020D2
:1043A0005451002004FAFF1F34FAFF1F3CFAFF1F8C
:1043B000F8510020005200204FF074510AF046FAE4
:1043C00009F09AFD09F024FB00224C4B09F0E8FDAE
:1043D0000AF096F83A68D9F80040494BCAF800004C
:1043E000141B24EAE47983FB09234B444FEAE97068
:1043F000C0EBE32009F06EFD09F092FB0AF080F8B3
:10440000404C414BCBF8000004FB009483FB042399
:104410002344E017C0EB631009F05CFD09F080FB5A
:104420000AF06EF8DFF80CA1DFF80C910346A0EB60
:10443000001004EB800410213448C9F80030CAF899
:10444000004008F0B5F8DBF80010314808F086FDB0
:10445000D9F800102E4808F081FDDAF800102C4839
:1044600008F07CFD2A4808F0F3FD0821294808F0EF
:104470009FF8D8F80010264808F070FD244808F08E
:10448000E7FD0821244808F093F83968204808F02F
:1044900065FD1F4808F0DCFD0E21204808F088F873
:1044A0002868FDF7D7FD0C211D4808F081F8306819
:1044B000FDF7D0FD33682C681A481C1B152108F045
:1044C00077F82146124808F049FD114808F0C0FD70
:1044D0001549164B00204FF0FF3208601A60FCF7B8
:1044E000D3FF0FB0BDE8F08F114806F053FF58E638
:1044F000FDF7F6FDD8F8002005E700BF00004040BA
:10450000C5B3A291F0F1FFFF898888889865010002
:1045100090FFFF1FEC660100F8660100486501008E
:104520000467010014670100100A00202C520020CB
:1045300080C1855610520020905100200020704705
:104540000020704738B50F29114C28BF0F210F2AC2
:1045500028BF0F220D46017A204642EA051500F0D9
:104560000BFE2046002100F0B5FC2046202100F083
:10457000B1FC2046002100F0ADFCE9B2204600F07D
:10458000A9FC204600F0E0FEB0FA80F0400938BDFA
:1045900050530020F8B5C34C01260546067120464D
:1045A00000F03EFD052007F069F8297A204600F06A
:1045B000E3FD2046002100F08DFC2046302100F074
:1045C00089FC2046402100F085FC6021204600F057
:1045D00081FC204600F0B8FE297A204600F0CCFD90
:1045E0002046002100F076FC2046262100F072FCD7
:1045F0002046002100F06EFC6C21204600F06AFC91
:10460000204600F0A1FE297A204600F0B5FD2046A4
:10461000002100F05FFC2046282100F05BFC3146C1
:10462000204600F057FCF221204600F053FC2046C3
:1046300000F08AFE297A204600F09EFD20460021E7
:1046400000F048FC20462C2100F044FC20460F21BD
:1046500000F040FC2221204600F03CFC204600F007
:1046600073FE297A204600F087FD2046002100F0E5
:1046700031FC20463C2100F02DFC2046442100F076
:1046800029FC4621204600F025FC204600F05CFE77
:1046900040F23713EB80297A204600F06DFD20466A
:1046A000002100F017FC2046242100F013FC3146C5
:1046B000204600F00FFC3721204600F00BFC20467E
:1046C00000F042FE297A204600F056FD20460021E7
:1046D00000F000FC2046302100F0FCFB2046402189
:1046E00000F0F8FBFF21204600F0F4FB204600F02C
:1046F0002BFE297A204600F03FFD2046002100F0E5
:10470000E9FB2046022100F0E5FB2046002100F0F5
:10471000E1FB7321204600F0DDFB204600F014FE93
:104720004FF4C87006F0AAFF297A204600F024FD55
:104730002046002100F0CEFB20462E2100F0CAFBCF
:1047400020461D2100F0C6FB1D21204600F0C2FBC3
:10475000204600F0F9FD297A204600F00DFD2046A4
:10476000002100F0B7FB2046042100F0B3FB2046F7
:10477000002100F0AFFB0421204600F0ABFB2046F7
:1047800000F0E2FD297A204600F0F6FC20460021E8
:1047900000F0A0FB2046062100F09CFB314620469D
:1047A00000F098FB3021204600F094FB204600F0FA
:1047B000CBFD297A204600F0DFFC2046002100F0E6
:1047C00089FB20460A2100F085FB2046002100F0ED
:1047D00081FB1021204600F07DFB204600F0B4FD57
:1047E000297A204600F0C8FC2046002100F072FB28
:1047F00020460E2100F06EFB2046002100F06AFBEF
:104800000021204600F066FB204600F09DFD297A3D
:10481000204600F0B1FC2046002100F05BFB204662
:10482000102100F057FB20463C2100F053FB3C21B7
:10483000204600F04FFB204600F086FD297A2046F6
:1048400000F09AFC2046002100F044FB2046222183
:1048500000F040FB20467F2100F03CFB7F212046FA
:1048600000F038FB3627204600F06EFD297AEF80F5
:10487000204600F081FC2046002100F02BFB204662
:10488000242100F027FB2046002100F023FB3946BD
:10489000204600F01FFB204600F056FD6E723046A9
:1048A000F8BD00BF505300200B462DE9F0414549AB
:1048B0000546184609F0CAFF434909F0BFFE0AF051
:1048C000B1F9044600284CD080281FD92B79002448
:1048D00026462BBB297A3D4800F04EFC00213B4880
:1048E00000F0F8FA2221394800F0F4FA314637484E
:1048F00000F0F0FA2146354800F0ECFA334800F0B9
:1049000023FDB0FA80F04009BDE8F081C0F18004D9
:104910002B7944EA0424C4F30726E4B2002BD9D04F
:10492000EF88297A294827F010074FF00008EF8018
:1049300085F8048000F020FC4146244800F0CAFAC3
:104940002421224800F0C6FA390A204800F0C2FAB1
:1049500007F0EF011D4800F0BDFA1C4800F0F4FC20
:10496000B8E701232B71297A184800F005FC21468D
:10497000164800F0AFFA2221144800F0ABFA7F216C
:10498000124800F0A7FA7F21104800F0A3FA0F4860
:1049900000F0DAFCEE88297A0C4846F01006B6B230
:1049A000EE8000F0E9FB2146084800F093FA24214C
:1049B000064800F08FFA310A044800F08BFAF1B291
:1049C00099E700BF00000143EE7CFF3E50530020FA
:1049D00070B505460C4619B101293BD0002070BDC9
:1049E000017A424800F0C8FB2146404800F072FAC4
:1049F00020213E4800F06EFA21463C4800F06AFA59
:104A000055213A4800F066FA384800F09DFC064609
:104A10000028E3D1EC88297A344844F00404A4B295
:104A2000EC8000F0A9FB3146304800F053FA242115
:104A30002E4800F04FFA210A2C4800F04BFAE1B260
:104A40002A4800F047FA294800F07EFCB0FA80F0CE
:104A5000400970BD017A254800F08EFB00212348F3
:104A600000F038FA2A21214800F034FA21461F4884
:104A700000F030FA73211D4800F02CFA1B4800F0BA
:104A800063FC04460028A9D1297A184800F074FB79
:104A90002146164800F01EFA2021144800F01AFAA8
:104AA0002146124800F016FA8821104800F012FA48
:104AB0000E4800F049FC044600288FD1EE88297A80
:104AC0000A4826F00406EE8000F056FB214607480F
:104AD00000F000FA2421054800F0FCF9310A0348EF
:104AE00000F0F8F906F0FB01AAE700BF50530020E0
:104AF00010B5044608F094F8204610BD024A034958
:104B000003480AF05DBA00BFFCF9FF1FF14A00003C
:104B1000A85200201B4A1C4B11681C48096970B43C
:104B200099421279027009D2194A127832B3194A9D
:104B30004FF08041116003F5807402E01C46A3F53C
:104B40008073154A154912680D68AAB1A5B1144EB3
:104B50003088402810D841000A44403029440232AD
:104B60000231308033F9040B22F8020F9C4233F9F2
:104B7000020C21F8020FF5D870BC704703F5807461
:104B8000DFE700BFB8520020B8F2FF1F1F800040CF
:104B9000B252002008E200E0C0520020B4520020CF
:104BA000B0520020F8B5064607F086FE0446E8B18C
:104BB00007F082FE054600283AD072B61F4B1A88CD
:104BC0007F2A19D8002C31D01D490A6842B162B63B
:104BD000204607F0C5FE2846BDE8F84007F0C0BEF5
:104BE00018480C601A80056062B6F8BD054672B6BA
:104BF000124B1A887F2AE5D9114A124917681460A6
:104C000000220C681A800D6062B63946304607F003
:104C1000D1FE384607F0A4FE30462146012207F0B7
:104C2000C9FE2046BDE8F84007F09ABE62B6F8BD5E
:104C3000204607F095FE2C46BFE700BFB05200208B
:104C4000C0520020B4520020F8B5284C284E20460F
:104C5000012107F047FF00F083F8264B264A27483A
:104C60004FF480611960236800211A6099802279CD
:104C7000186102F1804202F5043240F20110D8803E
:104C80009E614FF48075022006278E26DD82D96052
:104C9000DD8398609F8398821170167007F0C8FEBC
:104CA0001749184B2279184F08701A703968227901
:104CB000164C174D174E41F0124141F001015311AE
:104CC00039609B00206803F1604302F1100703F58F
:104CD000614302F01F02012140F0104001FA02F28C
:104CE000206045F827601A60F8BD00BFB852002068
:104CF00000FEFFFF14B00440A0F00240B8F1FF1F17
:104D0000B25200201B80004080F0024000F00240C0
:104D100000F4FF1F154B0000024A034903480AF044
:104D20004FB900BFFCF9FF1FF14A0000B852002044
:104D3000024A034903480AF043B900BFFCF9FF1FC8
:104D4000F14A0000C4520020024A034903480AF015
:104D500037B900BFFCF9FF1FF14A0000CC52002018
:104D6000284B29491A68294842F400421A600A6807
:104D700042F002020A601A6842F002021A600368F6
:104D8000002B3DDB224B1B68002B39DB214A4FF007
:104D9000864313601368002BFCDBF0B51E4C1F48E4
:104DA000DFF8ACE01E491F4B1F4A204F204E214D1B
:104DB00041F2100CC4F800C0002404600120CEF8B9
:104DC0000000DFF890E0C1F800E04FF48031196096
:104DD000194B1360DFF880E0184A3A6034602860AD
:104DE0001748CEF80000174CB9671748174946F81E
:104DF000503C4FF4C0632A61236003600B60F0BD38
:104E0000704700BF3C8004404080044000F00240F6
:104E100080F0024000F1024004F1024060F00240E4
:104E200008F002400CF0024010F0024014F0024082
:104E3000E0F0024084F002401B0F0100000F0F0F52
:104E40000300004708B004400CB0044018B0044010
:104E500004F002400300000788F00240024A0349C0
:104E600003480AF0ADB800BFFCF9FF1FF14A00008B
:104E7000D4520020024A034903480AF0A1B800BFF7
:104E8000FCF9FF1FF14A0000DC520020024A0349EE
:104E900003480AF095B800BFFCF9FF1FF14A000073
:104EA000E4520020024A034903480AF089B800BFCF
:104EB000FCF9FF1FF14A0000EC520020024A0349AE
:104EC00003480AF07DB800BFFCF9FF1FF14A00005B
:104ED000F45200200A4B1B7813B90A4B1B786BB1B4
:104EE000094A1378202B07D810B4581C074C1070AF
:104EF000E154012010BC704701230371002070476A
:104F000062530020255300206353002004530020E7
:104F1000704700BF024A034B10781B78C01A7047D5
:104F20006153002060530020064A0749137809782E
:104F3000994204D90548591CC05C117070474FF064
:104F4000FF30704760530020615300202853002039
:104F5000054B064A1B7812789A4286BF044AD05CF9
:104F60004FF0FF30704700BF6053002061530020B6
:104F70002853002070B50D4B1B78144613B90C4B09
:104F80001B788BB10B4E3578C5F12103A34202D2B9
:104F900001221C460271084822462844254405F097
:104FA0000BFD3570204670BD184670BD6253002061
:104FB000255300206353002004530020124BDB785C
:104FC00003F020034BB1114A13780133DBB2012BFC
:104FD000137012D9122006F093B910B5122003F005
:104FE000FF0406F08DF90A4B1B685BB109490A4AB8
:104FF0000C701078BDE810401847084B1B78002B48
:10500000E8D0704710BD00BF006006404C53002040
:1050100000530020605300206153002025530020DE
:105020000D4A0E4BF0B500200D4C10702268DFF8D1
:1050300038E00C4F42F0400222604FF419712726ED
:105040000425202480229870CEF8001039605E700C
:105050009D715C719A70F0BD255300200060064080
:105060003480044008A004400CA0044010B5384C23
:10507000E378DBB2D80623D510225906E2701ED59C
:1050800003F0040303F0FF02002B33D0314B32490D
:105090001A68324C00230B702370002A3BD09047D3
:1050A0002378002B37D02E4B1B78294A2D49D0244A
:1050B00094701371264B012002220870DA7010BD23
:1050C0005A06DDD4A27802F0100202F0FF0042B3CB
:1050D00013F001031BD1234920480A78007890423D
:1050E00081BF1F4B501C9B5C08702371184BD02252
:1050F0009A7008E01C48164B174902700120C02224
:1051000008709A701B79124B0222DA7010BDC0230E
:10511000A3702379F7E71249002301220B70227054
:10512000C3E7124B124918700322122006F068F8E8
:105130000D4923790A781F2ADBB2E4D806480078A3
:105140000028E0D00B4C501CA3540870DBE700BFD4
:105150000060064048530020FC52002063530020AA
:105160000453002064530020615300204C5300205E
:10517000BD4F0000285300200548064A10B4012303
:10518000054C037049001370217010BC704700BFBC
:105190006253002063530020045300202DE9F043A4
:1051A000594C1223E370A37803F0200383B0002B43
:1051B00055D0B423DFF86881A370D8F80030524D81
:1051C0001C460020EA78D2B29A421CBF1446012045
:1051D00096061346F6D5002840F08C804B4B1B7882
:1051E000002B33D003F1FF3E5FFA8EFE0026D8F885
:1051F0000040474F444D0EF1010E30464FF0020C77
:1052000017F8013F2B715FFA86F902E013F0200FC7
:1052100009D0EB78DBB293421CBF1C46012013F08F
:10522000020F1A46F2D085F803C0EA78D2B2934250
:105230001CBF14460120D30633D4930631D5D307BF
:1052400044D401367645DBD100284AD1002000291C
:105250002ED1304B00221A7003B0BDE8F0832E4DE2
:10526000DFF8BC8003F0FF022B680093009ED8F8A3
:10527000000005E02B680193019B9B1B0F2B1BD8A3
:10528000E378DBB2834218BF012213F0200F1846E7
:10529000F0D192BB21481C4B0024B02204709A70BC
:1052A0008BE708BB184B80229A7004200029D0D0CD
:1052B000154B80229A70CCE7CAB9134B002180228B
:1052C000042099709A7003B0BDE8F083C0B90E4B0A
:1052D000B9F1000F4FF080020CBF022003209A703A
:1052E000B7E7C8F80040B1E7C8F80040DAE7C8F807
:1052F0000000E2E7C8F8004070E7C8F80030C9E7EE
:10530000C8F80040E3E700BF006006406353002098
:105310000353002062530020C45300202553002073
:1053200058FAFF1F0548064A10B40123054C0370C4
:1053300049001370217010BC704700BF62530020F9
:1053400063530020045300200121FFF727BF00BF53
:10535000044B054A1A604FF47A71002299601A7161
:105360001A737047505300205C67010010B4047F2B
:105370004160022CC26002D010BC07F06BBC836895
:1053800010BC1847F0B4464B464A186BDC6A0179EA
:105390001170454922790A709A6A00790870002ACA
:1053A00046D05968C9688A423ED82168CC8B24040B
:1053B00002F1FF3065D4C0F30E00C883C88B80B201
:1053C000C882196B0968C88B000452D4C2F30E005E
:1053D000C883C88B002480B212F1FF32C88218BF84
:1053E00001229C62D96A2E4809680D6800F12404E4
:1053F000A54236D00068C46814F0804F0C680D6870
:1054000015BF248824780235013544F000440D602E
:105410004463196B254B09791970214912B1CA6A85
:1054200012791A70F0BC7047521A9A620122D9E7B9
:10543000586B196805681E4C0A63CC62CC682D68ED
:105440001C4E24F080440327B542CC6083F82570BD
:105450001FD1037F4260022BC2601ED0F0BC07F058
:10546000F9BB016890F82400CC6840F00040486324
:10547000CFE7CC8BC2F3080004F47E442043C883FA
:10548000A7E7CC8BC0F3080004F47E442043C88314
:1054900094E72B461146F0BC18478368F0BC1847C8
:1054A0005CFAFF1F1F8000401C8000401B800040F2
:1054B00000000FFF6D53000090E80C00F0B41C6872
:1054C00059682568164F174E29432160164D174914
:1054D0001760D66015611160417A154A5C180A316F
:1054E00094F8244053F8215002EBC40149680D6040
:1054F000017A5C1803EB8101247ECD6902EBC401C3
:1055000049680D60817A581803EB810390F83000E8
:10551000596B02EBC002F0BC53681960704700BFC2
:1055200001401F00011000380110007800001F80AA
:10553000D06D01004268036805CA10B404682243B4
:105540000260D868840100F0E06205D5080900F423
:10555000706021F470410143D8681143814209D041
:105560001A68500408D40748186041F08040D96098
:1055700018611A6010BC704741F08042D96010BCBD
:105580001A61704701401F004268437A134493F840
:1055900024308B4209D0F0B492F824408C4205D0DC
:1055A00092F825408C421AD0F0BC70470024214666
:1055B0001668556836682E420FD00A4D05EBC303B6
:1055C00000275E685318376093F8243005EBC30555
:1055D0000A316B6852F821201A604472E4E7012412
:1055E0002146E5E7D06D01004268037A13441B7E33
:1055F0008B4207D0F0B4147E8C4204D0547E8C428F
:105600001AD0F0BC704700242146166855683668E9
:105610002E420FD00A4D05EBC30300275E685318D6
:1056200037601B7E063105EBC30502EB81026B6818
:1056300052681A600472E4E701242146E5E700BFDE
:10564000D06D01004268837A134493F830308B4266
:1056500009D0F0B492F830408C4205D092F8314035
:105660008C421BD0F0BC7047002421461668556858
:1056700036682E4210D00B4D05EBC30300275E6841
:105680005318376093F830300C3105EBC30502EB4B
:1056900081026B6852681A608472E3E70124214634
:1056A000E4E700BFD06D010038B590F90230002B5F
:1056B000044612DBA56805F1240001F0FDF928B9C4
:1056C000637843F001036370002038BD05F50C706A
:1056D00001F0F2F90028F3D038BD8068A1692430C8
:1056E000012201F0A3F90028EAD0A38803F00F03F8
:1056F0005B01C518E4D0C35CE52BE1D023780B4AED
:105700001B0744BFE369EB61236A12686B831B0CC0
:10571000AB8232B105F1160105F1180090472B8BD1
:105720006B82A37803F07F03A370C3E76C53002060
:105730002DE9F041037803F020032BB903F0FF04B7
:105740004269204B9A4203D900263046BDE8F081D9
:1057500083780169054663F07F038068AB7005F1CB
:10576000100201F01DFB06460028EDD02969A8684B
:1057700001F0CAF90746A86839462430052201F02D
:1057800055F980460028DFD04FF4007221460AF018
:1057900035F8AB681A79012A0FD9012403E0AB6808
:1057A0001A79A24209D9E1191868424602F014F99F
:1057B0000134E4B20028F2D1C6E76B6903EB422260
:1057C0006A61C2E7FFFD1F0038B5037804461BB9C4
:1057D00000232370012038BD90F90230002B14DB28
:1057E000A56805F1240001F067F938B9637843F042
:1057F0000103637000232370002038BD05F50C7091
:1058000001F05AF90028F1D0E2E78068A16924305C
:10581000012201F00BF90028E8D0A38803F00F0360
:105820005B01C518E2D0C35CE52BDFD023780B4ABF
:105830001B0744BFE369EB61236A12686B831B0C8F
:10584000AB8232B105F1160105F1180090472B8BA0
:105850006B82A37803F07F03A370C1E76C53002031
:105860002DE9F0470D7815F0700F88B003D10020B6
:1058700008B0BDE8F087C32304460D4600F07EFE65
:105880000028F4D05D4B6269012610219A42A6706F
:105890002170ECD881236218A3702169A06801F0FF
:1058A0007FFA0028E3D02169A06801F02DF90746AE
:1058B000A06839462430052201F0B8F88046002857
:1058C000D5D04FF40072002109F098FF08E0F119DB
:1058D0000068424602F080F80136F6B20028C6D0D1
:1058E000A0680279B242F2D86369217826692662FB
:1058F00003EB42236361002974D124300122A169A2
:1059000001F094F80028B2D0A68806F00F0610EB3C
:105910004616ACD01023F372B26830687168F36831
:10592000B6F81490B6F81AA06F460FC730697169BF
:10593000B269F36908AE0FC74FF02E084FF020335D
:10594000216AA06806F8208DCDF80530CDF8013029
:10595000ADF8093001F0D8F8A3680146012203F13F
:10596000240001F063F88646002880D03746ADF861
:105970001490ADF81AA00FCFCEF80000CEF80410A6
:10598000CEF80820CEF80C300FCFCEF81000CEF8AD
:105990001410CEF81820CEF81C302B6A8DF8018038
:1059A0001A0C3546ADF81A30ADF814200FCD0EF1B3
:1059B0002006CEF820007160B260F3600FCD306138
:1059C0007161B261F361A46804F1240001F074F81C
:1059D00000283FF44CAF04F50C7008B0BDE8F04768
:1059E00001F06AB813B10023236163612046FFF719
:1059F0005BFE00283FF43BAFA0687EE7FFFD1F0081
:105A00002DE9F041064692B03478019200208DF8DD
:105A100024008DF8250024B90D46097811F0700F87
:105A200003D1002012B0BDE8F081144612782F2A6D
:105A30002DD00DF1040803AF002B53D04246394658
:105A4000204600F0F5FB3A46294601230028E8D01D
:105A5000019C24783046002C61D000F08FFD3A463E
:105A6000294620B93046FFF7FBFE0028D9D035463D
:105A70000FCD09AC0FC40FCD0FC433782A68226054
:105A8000002B48D100233370019C09ADD6E70134C7
:105A9000019422782F2AFAD0AD680093242209A815
:105AA000002109F0ABFE0B95EA79009B102A3ED04D
:105AB000202AB6D140228DF82420012209AD8DF88C
:105AC00026200DF1040803AF63B1B7E70FCD0FC473
:105AD0000FCD0FC433782A682260C3B90023019C1C
