:1000000000800020BD010000F5BC0000ADBC000078
:10001000ADBC0000ADBC0000ADBC0000ADBC00003C
:10002000ADBC0000ADBC0000ADBC0000F5BC0000E4
:10003000F5BC0000ADBC00005DDA0000ADDC0000E6
:10004000F5BC0000F5BC0000F5BC0000F5BC0000EC
:10005000F5BC0000F5BC0000F5BC0000F5BC0000DC
:10006000F5BC0000F5BC0000F5BC0000F5BC0000CC
:10007000F5BC0000F5BC0000F5BC0000F5BC0000BC
:10008000F5BC0000F5BC0000F5BC0000F5BC0000AC
:10009000F5BC0000F5BC0000F5BC0000F5BC00009C
:1000A000615F0000F5BC0000F5BC0000F5BC00007D
:1000B000F5BC0000F5BC0000F5BC0000F5BC00007C
:1000C000F5BC0000F5BC0000F5BC0000F5BC00006C
:1000D000F5BC0000F5BC0000F5BC0000F5BC00005C
:1000E000F5BC0000F5BC0000F5BC0000F5BC00004C
:1000F000F5BC000095C30000F5BC00008DE30000D6
:10010000F5BC0000B9E40000F5BC0000F5BC00003F
:10011000F5BC0000F5BC0000F5BC0000F5BC00001B
:10012000F5BC0000F5BC0000F5BC0000F5BC00000B
:10013000F5BC0000F5BC0000F5BC0000F5BC0000FB
:10014000F5BC0000F5BC0000F5BC0000F5BC0000EB
:10015000F5BC0000F5BC0000F5BC0000F5BC0000DB
:10016000F5BC000055C60000F5BC0000F5BC000061
:10017000F5BC0000F5BC0000F5BC0000F5BC0000BB
:10018000F5BC0000F5BC0000F5BC0000F5BC0000AB
:10019000F5BC0000F5BC0000F5BC0000F5BC00009B
:1001A000F5BC0000F5BC0000F5BC0000F5BC00008B
:1001B000F5BC0000F5BC0000E9D70000564B4CF23E
:1001C000205210B51A804DF628121A8000BF00BFC9
:1001D00000F08AFB514B4FF010621A60504A9A604F
:1001E000504ADA60504A136813F4807304D14F49BF
:1001F0000B604FF4A85313604D4B1A78110703D5C9
:100200001A7842F008021A704A4B4B492A221A7097
:100210004A4A4B4B8B4204D252F8040F43F8040B6A
:10022000F8E7484B484900228B4202D243F8042B9E
:10023000FAE74649464A002352F8230041F82300D2
:1002400001336F2BF8D1434B434A802103F8011B44
:100250009342FBD1414B3D4A1A60414B8A221A70AE
:10026000A3F5805324225A70A0221A709A7992071B
:10027000FCD59A79D406FCD43A4A937903F00C035E
:10028000082B384BF9D103221A7140225A719A79FE
:100290009006FCD5334A9179324B4906FBD5324A58
:1002A000324911600221516020221A709A7902F0BD
:1002B0000C020C2AFAD12E4B2E4A1A602E4B4BF60A
:1002C0007F321A6000225A60072243F8042C2B4A1E
:1002D000C3F80C2D62B60BF02FFE144B1B68DA0727
:1002E00005D527480BF016FE264B274A1A60274BE8
:1002F0001B785B0609D5234C234B22689A4204D114
:100300001F480BF007FE0023236010F0A5FB0BF045
:10031000F5FC0DF099FFFEE70E200540308004400B
:10032000823F04000100002B10D0034014D0034092
:1003300002D0074000E00740E0FFFF1FD88A02001C
:1003400020EFFF1FE0FFFF1F1C14002000EAFF1F2B
:100350000000000000E400E05FE400E008ED00E0E1
:100360000050064000400640448004400000131145
:1003700004800440C010050014E000E000002020CC
:100380005E68505B1CE00340A5C3945A00F0074030
:10039000FFFFFFFFFFFFFFFFFFFFFFFFFFFFFFFF6D
:1003A000FFFFFFFFFFFFFFFFFFFFFFFFFFFFFFFF5D
:1003B000FFFFFFFFFFFFFFFFFFFFFFFFFFFFFFFF4D
:1003C000FFFFFFFFFFFFFFFFFFFFFFFFFFFFFFFF3D
:1003D000FFFFFFFFFFFFFFFFFFFFFFFFFFFFFFFF2D
:1003E000FFFFFFFFFFFFFFFFFFFFFFFFFFFFFFFF1D
:1003F000FFFFFFFFFFFFFFFFFFFFFFFFFFFFFFFF0D
:10040000FFFFFFFFFFFFFFFFFFFFFFFFDEF9FFFF23
:1004100010B5054C237833B9044B13B10448AFF33E
:1004200000800123237010BDE0FFFF1F00000000CB
:10043000D48A0200084B10B51BB108490848AFF335
:1004400000800848036803B910BD074B002BFBD0A0
:10045000BDE81040184700BF00000000E4FFFF1F88
:10046000D48A0200E0FFFF1F000000000020704758
:10047000704700BF027C02F0080202F0FF0332B1B5
:10048000C36A406A181A48BF6FF0004070471846A8
:10049000704700BFF8B55548554D564C297803783C
:1004A0002278DFF868E1544F544E120442EA0323E5
:1004B000FF222A700270802022708EF800003870AF
:1004C000B2794F480B4312F00C0FC36002D1B379DD
:1004D000DC063DD4494A9379C3F38103032B40D012
:1004E000464B9A79C2F38102022A42D0434A937959
:1004F000C3F38103022B53D0404A9379C3F38103A2
:10050000022B61D03D4A9379C3F38103012B51D073
:100510003A4A9379C3F38103012B5CD0374B9A7924
:1005200012F00C0F03D19A79D20600D49B79354D85
:10053000354B2A7853F82240D4B1236820469B6873
:1005400098472B7804EB83046468002CF5D1F8BD40
:10055000B3799806EBD5294A9379C3F38103032B2A
:10056000BED19379D906BBD493799B06DFD4B7E784
:10057000F8BD9A79D706B9D49A799606B6D559783E
:1005800001F0020101F0FF020029AFD120211A7011
:100590001A461970937903F00C030C2BFAD1C6E7B5
:1005A0009379DD06A8D493799C06A5D4537898074F
:1005B000BDD5A1E79379DF06AAD593799E06A7D486
:1005C00053789D07B3D4A3E79379D9069AD4537887
:1005D0009B07ACD496E79379DC069FD59379980670
:1005E0009CD453789907A2D598E700BF06C007406E
:1005F00005C0074007C0074009C00740004006404B
:10060000F4130020C81000208810002008C0074004
:1006100090F92410104B03604B1C06D0F0B40F4E21
:1006200056F82130984201D0F0BC70470C4F57F873
:10063000213033B18D0000245A1953685460002BC7
:10064000FAD1084C23780022013B237047F821207F
:1006500046F82120E8E700BFF47C0100A810002044
:1006600088100020C910002038B590F924506B1C68
:100670001BD00E4B0E4953F825400E4BEDB24FF0F8
:10068000FF320D701A6084B1AD0002E02C44646842
:100690005CB194F82530002BF8D0236820462C4418
:1006A0001B6898476468002CF3D138BD881000207F
:1006B000C810002090E9FF1F704700BF90F9241078
:1006C000104B03604B1C06D0F0B40F4E56F821308F
:1006D000984201D0F0BC70470C4F57F8213033B12D
:1006E0008D0000245A1953685460002BFAD1084C2D
:1006F00023780022013B237047F8212046F821206F
:10070000E8E700BFF47C0100A8100020881000205A
:10071000C910002090F92410104B03604B1C06D028
:10072000F0B40F4E56F82130984201D0F0BC70471B
:100730000C4F57F8213033B18D0000245A195368FB
:100740005460002BFAD1084C23780022013B23701F
:1007500047F8212046F82120E8E700BFF47C01009B
:10076000A810002088100020C9100020083006F0D2
:1007700049BA00BF103006F045BA00BF00B583B0DB
:1007800002AB012203F8011D1030194606F03AFAB7
:1007900003B05DF804FB00BF00B583B002AB0122DB
:1007A00003F8011D0830194606F02CFA03B05DF875
:1007B00004FB00BF103006F001B900BF00B583B0E4
:1007C00001220DF10701103006F032F801280CBFAC
:1007D0009DF807004FF0FF3003B05DF804FB00BF49
:1007E000103006F0C1B900BF083006F0BDB900BF37
:1007F0002DE9F0410E4680460BF086FB174D286030
:1008000008F04EFD0746286808F026FD04462868D3
:1008100008F010FD6401C0B204F4FF54BFB20443F9
:10082000A7F2BC7744EA4724A8F80040286808F0FB
:1008300025FD0746286808F0D9FC0446286808F01A
:10084000E7FCFF02640107F4FF2704F4FF54C0F340
:1008500046003C4304433480BDE8F081580000204A
:1008600030B5164CADF5017D204605F0E3F84FF4A8
:10087000807501462A4668460AF05EFE204605F06D
:10088000F7F8204605F0D6F82A4601460DEB05009C
:100890000AF052FE204605F0EBF869464FF400726C
:1008A000074806F0AFF90748074902680B680132AC
:1008B000013302600B600DF5017D30BD180500208D
:1008C0005C0F002078070020B80F002010B5044608
:1008D00010F0F6FF21460246BDE8104001480DF039
:1008E000EDB900BF20060020404A414B1020108087
:1008F0001B781B072CD5F0B53E4E3F4D3F4C317851
:100900002B7822783E4FDFF810E1824042EA032341
:100910000B43FF22802132702A7022708EF8001063
:100920003970DF07374A0CD51A239360364D374CA0
:100930003748384900232B70D360237003700B7045
:10094000F0BD1E0705D4DD0606D504239360EDE750
:10095000704721239360E9E79C0604D4590604D527
:1009600016239360E2E79060E0E71F0602D50923B3
:100970009360DBE7DE0502D50A239360D6E79D0589
:1009800002D50D239360D1E75C0502D50B2393605C
:10099000CCE7180502D51E239360C7E7D90402D51A
:1009A00002239360C2E79F0402D507239360BDE74B
:1009B0005E0402D506239360B8E71D0402D5152313
:1009C0009360B3E7DC0302D524239360AEE798037A
:1009D00002D522239360A9E7D90202D5252393608B
:1009E000A4E79B0244BF232393609FE700200540B8
:1009F00002D0074005C0074006C0074007C00740B7
:100A000009C00740F413002000C0074001C00740A0
:100A100002C0074003C0074008C00740002976D045
:100A20002DE9F04F0C469100631883B05D68002DEE
:100A300057D06B185E68002E50D073185F68002F77
:100A400049D07B18D3F80480B8F1000F3CD008EBF4
:100A50000103D3F80490B9F1000F32D009EB010380
:100A6000D3F804A0BAF1000F27D00AEB0103D3F8A2
:100A700004B0BBF1000F18D00BEB01035B6863B14E
:100A8000194401934968FFF7C9FF019B93F825209A
:100A90001AB11A681846536898479BF8253023B155
:100AA000DBF8003058465B6898479AF8253023B148
:100AB000DAF8003050465B68984799F82530002BEB
:100AC00035D198F8253063BB97F825301BB13B68CA
:100AD00038465B68984796F82530CBB995F82530AD
:100AE00063B994F8253013B903B0BDE8F08F2368DB
:100AF0005B68204603B0BDE8F04F18472B682846D6
:100B00005B68984794F82530002BEDD0EFE77047ED
:100B1000336830465B68984795F82530002BE0D065
:100B2000ECE7D8F8003040465B689847CCE7D9F846
:100B3000003048465B689847C3E700BF90F924201F
:100B4000531C26D01B4B2DE9F04153F82240D2B262
:100B5000ECB19300E1184D68B5B1E9184E6866B183
:100B6000F1184F6837B13B445968FFF757FF97F8C2
:100B70002530A3B996F8253063B995F825301BB117
:100B80002B6828465B68984794F8253063B9BDE820
:100B9000F0817047336830465B689847EDE73B6803
:100BA00038465B689847E5E7236820465B68BDE800
:100BB000F04118478810002070B5124C124D1348B0
:100BC0000D210CF0B9FB20460DF006F92E881048D7
:100BD00010210CF0B1FB314620460DF083F8204681
:100BE0000DF0FAF80B4A0C4B12882A800B480022B1
:100BF00083F8F62005F0C4FB6420BDE870400BF0DC
:100C0000FDBA00BF84F5FF1F781200200C7D0100A3
:100C10001C7D0100A0120020180500205C0F0020A0
:100C20002DE9F04FA3B00BF06FF9174C174D206072
:100C300008F012FB2B688342154B40F099811A781B
:100C4000002A40F095810DF15409002110200BF08D
:100C500099FA206808F0EEFA0546206808F00EFBC5
:100C60000746206808F0C2FA0646206808F0D0FA65
:100C70002B46029000970196064A0749074810F054
:100C800061FD002526E000BF58000020AC060020D2
:100C9000200F0020980F0020487D0100FCFFFF1F5F
:100CA000206808F0C7FA0646206808F0E7FA804690
:100CB000206808F09BFA0746206808F0A9FACDF8EA
:100CC00000800290019733460395BB4ABB49BC485C
:100CD00010F038FD00260123B94ABA498DF8546056
:100CE00048468DF8556005F003FD01350028D7D141
:100CF000014610200BF046FA0024202610200AF0AE
:100D000053FE0FF0C3FA014620460FF00BFA013EE6
:100D10000446F3D14FF47A77012110200BF032FA18
:100D2000A94DAA4AA7490A974623179719A819AFA8
:100D30008DF830608DF831608DF824608DF82C606E
:100D40008DF864608DF865608DF858608DF860608E
:100D50000895159505F0CCFC0FCF0CAE0FC60FCF44
:100D60000FC69DF830303F689DF8580017999DF8E0
:100D7000602037608DF824000A918DF82C20002B1C
:100D800040F048810E2192480CF0D6FA4FF47A7662
:100D90000024C2238A4A8B49179619A819AE8DF8E8
:100DA00064408DF865408DF858408DF86040159589
:100DB00005F09EFC0FCEDFF854829DF8584088F86D
:100DC000044008F110040FC40FCE0FC49DF860302A
:100DD000179A316888F80C30C8F8082078482160E4
:100DE00010F06EFD014676480CF0A6FA79480CF03A
:100DF000F3FF98F81030002B7BD1DFF8149208AE87
:100E0000D9F8003074496E4801331A46C9F80030E9
:100E100010F098FC19A84FF0000A4FF47A7B462393
:100E20006A4A6849159504468DF864A08DF865A056
:100E30008DF858A08DF860A0CDF85CB005F058FC96
:100E40000FCC0CAF0FC70FCC0FC722689DF858C04E
:100E50009DF860E0179B61493A600CA819228DF853
:100E600024C08DF82CE00A9305F0CCFE54485C4F6A
:100E700010F026FD524902460CA805F0C3FE30468C
:100E80000CF0AAFF0CA805F07BFAC2234C4A4D498E
:100E9000CDF85CB019A88DF864A08DF865A08DF828
:100EA00058A08DF860A0159505F022FC0DF1640E98
:100EB000BEE80F000FC7BEE80F000FC79DF858C06F
:100EC0009DF86030179A88F80C3088F804C0C8F88C
:100ED000082024683A483C6010F0F2FC014638488B
:100EE0000CF02AFA3B480CF077FF98F81030002BF2
:100EF00086D03C483C4907683C4C3D4A3D4B3E4D02
:100F000003C9206092E80300A06093E80300102664
:100F10000123A382E382E060266138460FF0F6FBEE
:100F20003946A06138460FF0FDF80FF0EFFB334A69
:100F3000E0612B68668492E803005B0203F12406FB
:100F40002C226062214602272548A362278466601E
:100F500005F058FE09212A480CF0EEF929681D48D1
:100F60000CF0C0FE1B480CF037FF23B0BDE8F08F3B
:100F70000A21002623481E700CF0DEF915480CF0FB
:100F80002BFF206808F068F92860206808F088F9CD
:100F90000DF1540902462B681B49074810F0D2FB9B
:100FA00048460123044A07498DF854608DF855607E
:100FB00005F002FB49E600BF980F0020607D0100AC
:100FC000FCFFFF1FCC040020B87C01007C7D0100E9
:100FD000C47D010084F5FF1F007E01000C7E01002E
:100FE0005C0F00203CF0FF1FD47D01002400002096
:100FF000DC7D0100E47D010084060020EC7D010021
:10100000F47D0100307D01003C7D01004C0F00208B
:1010100098070020A748A84F10F052FCA5490246A7
:101020000CA805F0EFFD22A92C2301F86E3D01224A
:101030000CA805F0E7FD07F1080808AE17F8011F36
:1010400000230A2230460CF0E9FE4745F6D19B4BBF
:101050001B68002B5AD1DFF8B8A2994920460FF03F
:1010600069F94FF06A510FF065F94FF074510FF0C4
:1010700061F922A92C270446012201F8697D0CA8F8
:1010800005F0C0FDDAF800000EF0AAFC4FF00208EF
:101090000B460246CDF8008030460CF01DFF22A919
:1010A000012201F86A7D0CA805F0ACFD20460EF087
:1010B00097FCCDF800800B46024630460CF00CFF42
:1010C00022A9012201F86B7D0CA805F09BFD7D484B
:1010D00010F0F6FB7B4902460CA805F093FD304664
:1010E0000CF07AFE204678490FF0C2FA20B1774F13
:1010F0003B68002B40F0C080204675490FF0B8FADD
:10110000002871D10CA805F03BF93FE6714FDFF8DC
:1011100000A207F1100B2C2301220DF11B010CA8DA
:101120008DF81B3005F06EFD57F8048B6A49404678
:101130000FF0BCFA694B6A490422002850D01868A5
:101140000FF0A4F8014640460FF0A8F90EF048FC55
:101150000DF0D6FF634B8046186889460EF040FCC0
:101160000DF0CEFF0022CDE904015F4B4046494619
:101170000EF08AFC0022804689465C4BDDE90401C2
:101180000EF082FC02460B46404649460EF0C8FA75
:101190000EF072FF564B19680EF0C2FFDAF800101D
:1011A0000EF0BEFF0EF01CFC4FF0020E02460B4686
:1011B000CDF800E030460CF08FFEBB45ABD122A944
:1011C0002C2301F86C3D01220CA805F01BFD494BB6
:1011D000304619680CF086FD30460CF0FDFD3CE70A
:1011E0000CA805F00FFDE8E7282243490CA805F0FC
:1011F00009FD30460CF0F0FD0CA805F0C1F8002107
:1012000010200AF0BFFF0026202410200AF0CCFB9B
:101210000FF03CF8014630460EF084FF013C0646D4
:10122000F3D127490FF086F84FF06A510FF082F89A
:101230000121064610200AF0A5FF4FF074513046F8
:101240000FF078F82D490FF013FA80B121460220F3
:101250000AF066FF142322462146294807F06CFE57
:10126000284807F03FFC0A200AF0C8FFC7E7012121
:1012700002200AF055FF45E7012105200AF050FF42
:1012800040F6B8300AF0BAFF002105200AF048FF06
:10129000002108460AF044FF1B4A1C490023137032
:1012A0000CA80B223B6005F0ADFC30460CF094FD21
:1012B00022E700BFFCFFFF1F230F0020800F00204C
:1012C000438BAA401CF0FF1F6666464010060020B4
:1012D0000000404098060020ACC52737A407002036
:1012E000847D0100640000200000344000002440A0
:1012F00040F0FF1F14070020987D0100CDCC4C402A
:10130000D00600205C0600209C0700208C7D010098
:10131000180000202DE9F047414C424D2268424818
:1013200055F822301021013B45F822300CF004F82A
:1013300023683E4855F823100A2200230CF06EFD66
:101340003A480CF049FD236855F82320002A52D171
:101350000133DFF8FC9023600122042B89F8002080
:1013600026D0DFF8E880324E08F58C6A314916F84D
:101370002320A1F10C004FF0384306F0A5FEF8B988
:101380001E212D48264F0BF0D7FF21682748013139
:101390000CF0A8FC25480CF01FFD236855F823200D
:1013A000012101333ABB042B3B6089F80010DDD1E9
:1013B0000E2122480BF0C0FF1C480CF00DFDFEE78B
:1013C0001F4FC8F800A0384604F0DAFF0121A7F249
:1013D0003C4006F07DFD0146D8B1A7F23C413846BD
:1013E00005F006FA0028CBD098F83C3413F0700FC3
:1013F000C6D0144B1F600E2113480BF09DFF2168CF
:101400000A4801310CF06EFC0848BDE8F0470CF0CA
:10141000E3BC0E4806F05CFD0028DED1B0E700BF5B
:1014200060000020B0060020707E010084F5FF1FE0
:101430003C0F0020FC040020A47E0100847E0100FB
:10144000CC04002080100020947E01009000002039
:10145000200F002010B5294C29482278114603F0AE
:10146000CFFD23680F2B0CD8DFE803F00C10141805
:101470001C2024282C3034383C404408214B224A7C
:101480001A6010BD1F4B214A1A6010BD1D4B204A27
:101490001A6010BD1B4B1F4A1A6010BD194B1E4A23
:1014A0001A6010BD174B1D4A1A6010BD154B1C4A1F
:1014B0001A6010BD134B1B4A1A6010BD114B1A4A1B
:1014C0001A6010BD0F4B194A1A6010BD0D4B184A17
:1014D0001A6010BD0B4B174A1A6010BD094B164A13
:1014E0001A6010BD074B154A1A6010BD054B144A0F
:1014F0001A6010BD034B134A1A6010BD08F0FF1F9D
:101500008407002018000020BD549341103377C099
:10151000993918C0BE0D68BFCE71153F8D090340C3
:10152000CCC9624009A7A3407DDBD140C41601416C
:1015300054FC1741D0E83041195546419FAB5F41FB
:10154000A04176415E2E86412DE9F0470A2182B006
:101550003448354C354D0BF0EFFE35480CF03CFC73
:1015600004F1100A54F8046B324930460FF09EF82B
:1015700000284FD028680EF089FE014630460EF054
:101580008DFF0EF02DFA0DF0BBFD2B4B06461868B3
:101590000F460EF025FA0DF0B3FD00228046894675
:1015A000264B304639460EF06FFA002206460F46AB
:1015B000234B404649460EF067FA02460B4630463A
:1015C00039460EF0ADF80EF057FD1E4B19680EF0BF
:1015D000A7FD1D4B19680EF0A3FD0EF001FA0226BF
:1015E00002460B46009612480CF076FC10480CF0B0
:1015F000F3FBA245B6D10A2114480BF09DFE144B13
:101600000B4819680CF06EFB094802B0BDE8F047C2
:101610000CF0E2BB28680EF039FE014630460EF0B1
:101620003DFFDAE7C47E010098060020A4070020F1
:1016300084F5FF1FACC5273764000020000034404C
:101640000000244040F0FF1F18000020D07E010061
:10165000140700202DE9F0438FB0044610F030F954
:1016600000B201281CDDB4F9003044F253729342F9
:1016700000F0878118DD44F65452934200F0D58083
:1016800045F2532293422AD044F65212934207D194
:101690000BAAE01CC34910F07BF8C34B0B9A1A60ED
:1016A00001200FB0BDE8F08344F24E4293420FD0C8
:1016B00044F252429342F3D10BAAE01CB94910F014
:1016C00067F8BA4B0B9A1A6001200FB0BDE8F0839F
:1016D000B74B012201201A600FB0BDE8F0830AADBC
:1016E00009A908AA05ABE01C039502910192009399
:1016F00007AA06ABAF4910F04BF8AF4B079D5968EE
:1017000018689A680A9EDDF824E0DDF820C0A5F587
:10171000FA65ADB20BAF2CB207C7069F05991E3410
:1017200015F0030F4FEAA408FDB240F03981A34B36
:10173000022D8CBF1F460027A148A24BC8EB040412
:1017400000FB08F06A1E03FB0400002A00EB0703FD
:1017500047DD9DF82C409948012A00FB043340D016
:101760009DF82D40022A00FB04333AD09DF82E400C
:10177000032A00FB043334D09DF82F40042A00FBD9
:1017800004332ED09DF83040052A00FB043328D0C6
:101790009DF83140062A00FB043322D09DF83240E8
:1017A000072A00FB04331CD09DF83340082A00FBB5
:1017B000043316D09DF83440092A00FB043310D0BE
:1017C0009DF835400A2A00FB04330AD00B2A9DF805
:1017D000364018BF9DF8372000FB043318BF00FBCC
:1017E00002335FFA8EF2C2EB02125FFA8CF04FF412
:1017F0006164920004FB0022704D734C7348C9B2BF
:10180000013952FA86F205FB0122134412212360AA
:101810000BF092FD21686E480CF064FA6C480CF0F5
:10182000DBFA01200FB0BDE8F0830AAD09A908AAD0
:1018300005ABE01C039502910192009307AA06AB49
:101840005C490FF0A5FF5C4B079F9A6818685968C0
:101850000A9EDDF824E0DDF820C0A7F5FA67BFB2E4
:101860000BAC3DB207C4069A059C1E3517F0030F5A
:101870004FEAA508D7B240F09080504B022F8CBFA2
:1018800099464FF000094E494E4BC8EB050501FB48
:1018900008F17A1E03FB0510002A00EB090347DD5F
:1018A0009DF82C004549012A01FB003340D09DF8EA
:1018B0002D00022A01FB00333AD09DF82E00032AA6
:1018C00001FB003334D09DF82F00042A01FB0033C4
:1018D0002ED09DF83000052A01FB003328D09DF85A
:1018E0003100062A01FB003322D09DF83200072A7E
:1018F00001FB00331CD09DF83300082A01FB0033A4
:1019000016D09DF83400092A01FB003310D09DF851
:1019100035000A2A01FB00330AD00B2A9DF8360055
:1019200018BF9DF8372001FB003318BF01FB0233BD
:101930005FFA8EF2C2EB02125FFA8CF04FF461652F
:10194000920005FB0022E1B21C4C1F4D52FA86F2B8
:10195000013904FB01241C4420462C600AF0DAFA09
:101960000B211C480BF0E8FC214600230A221848F2
:101970000CF054FA16480CF02FFA01200FB0BDE815
:10198000F0830BAAE01C07490FF002FF124B0B9AE1
:101990001A6001200FB0BDE8F0834FF0000972E734
:1019A0000027C9E6FC7E01002CF0FF1F44F0FF1F5A
:1019B00018060020DC7E0100007D0100805101003E
:1019C0000085E2018033E10110070020007F010063
:1019D00084F5FF1FF07E010008F0FF1F2DE9F043A2
:1019E000A3B000254FF47A766E4F6F4A6F490A967E
:1019F000012319A817968DF830508DF831508DF8C5
:101A000024508DF82C508DF864508DF865508DF869
:101A100058508DF860500897159704F069FE0DF145
:101A2000640EBEE80F000CAE0FC6BEE80F000FC676
:101A30009DF83080DEF800109DF85800179A9DF848
:101A4000603031608DF824000A928DF82C30B8F1A6
:101A5000000F46D02E468DF800604FF000094FF081
:101A6000FF08012215A90CA804F0E2FE09F1010308
:101A700022AA01284A441BB224D01D2B02F8888CCC
:101A800005DC9946EDE71D2B01DC0A2AF9D1013B63
:101A90009BB222AA1A4402F8886C9DF800202F2AD3
:101AA00004D0012B02D96846FFF7D4FD9DF83030F1
:101AB0001B0711D40CA804F063FC2DBB012023B03C
:101AC000BDE8F0839DF854200D2A08BF4B465AD13B
:101AD0001D2BDCDC9946C4E7139A119B9A42BAD1BC
:101AE000E8E7142132480BF027FC32480CF074F977
:101AF0000D22314931480CF0E1F830480CF06CF916
:101B0000404623B0BDE8F0830B212D480BF014FCB8
:101B1000214600230A2227480CF080F90025254899
:101B20000CF05AF94FF47A768DF864508DF86550C0
:101B30008DF858508DF8605063231B4A1B49179647
:101B400019A819AD159704F0D3FD0FCD0CAE0FC633
:101B50000FCD0FC62968179A9DF860309DF8585030
:101B600031600CA821460A928DF82C308DF8245053
:101B700004F058FF022213490CA805F043F80CA802
:101B800004F0FEFB9AE722AB03EB0901542A09F1AA
:101B9000010301F8882C1BB27FF475AF119C054638
:101BA000013C95E7B87C0100147F0100CC040020C3
:101BB000307F010084F5FF1F487F010020060020D0
:101BC000207F01002C7F010030B583B002AD079C5F
:101BD00005F8082D8DF80200069A8DF804304E3471
:101BE00028468DF801108DF805208DF8064007F085
:101BF0006BFB0AF08FF90AF087F9024B186003B00B
:101C000030BD00BF5000002010B5094C204609F03F
:101C1000B1F82046012108F0D3FA2046022108F04D
:101C2000C9FA002220461146BDE8104008F0BEBAAD
:101C30002006002038B5054607F032FB1E4C014651
:101C400020460CF04FF82D200BF04AFC284607F0F8
:101C500003FB014620460CF045F82D200BF040FC1C
:101C6000284607F0E7FA014620460CF03BF8012130
:101C700012480BF061FB284607F000FB01462046A6
:101C80000CF030F83A200BF02BFC284607F0AEFAA7
:101C9000014620460CF026F83A200BF021FC28469D
:101CA00007F0B6FA014620460CF01CF82046BDE8C5
:101CB00038400CF091B800BF84F5FF1FD4800100BC
:101CC0002DE9F043434A444BDFF81891DFF81881BF
:101CD000424D98F80010167899F800701A78286824
:101CE00083B03C2313FB071713FB062607F0C6FA45
:101CF0000446286807F07AFAC4EB041400EB840465
:101D0000286807F0CDFA00F14E0328688DF80630F8
:101D100007F0A2FA8DF80500286807F08BFAB742A1
:101D20008DF8040006D2A74232D8A64230D303B0C1
:101D3000BDE8F083A742FAD9A642F8D202A8002350
:101D400099F8002000F8083D98F800308DF801302F
:101D50008DF8022007F0B8FA0F21286020480BF018
:101D6000EBFA2868FFF766FF0AF0CEF82B6883428B
:101D700004DA03F5A83303F5C0732B600F2118486C
:101D80000BF0DAFA2868FFF755FF03B0BDE8F083DF
:101D900002A8002399F8002000F8083D98F80030C8
:101DA0008DF801308DF8022007F08EFA0F2128609F
:101DB0000B480A4C0BF0C0FA2868FFF73BFF0AF00B
:101DC000A3F82B688342D9DA03F5A83303F5C0736F
:101DD0002360D3E794070020CC06002010070020E2
:101DE000587F0100A40F0020A807002010B5002094
:101DF00009F0A0FE214C2070012009F09BFE6070CC
:101E0000022009F097FEA070032009F093FE1C4BFE
:101E1000E07022681A60042009F08CFE2070052012
:101E200009F088FE6070062009F084FEA07007208B
:101E300009F080FE134BE07022681A60082009F058
:101E400079FE114B1870092009F074FE0F4B1870C1
:101E50000A2009F06FFE0E4B18700B2009F06AFE85
:101E60000C4B18700C2009F065FE0B4B18600D2010
:101E700009F060FE08B1094B187010BD5C0000202D
:101E800044F0FF1F2CF0FF1FA40F0020A807002024
:101E900094070020CC0600208007002030F0FF1FB0
:101EA000234B10B51968234C00202160C9B209F0FA
:101EB00097FE6178012009F093FEA178022009F0D5
:101EC0008FFEE178032009F08BFE1B4B196821601F
:101ED0000420C9B209F084FE6178052009F080FE73
:101EE000A178062009F07CFEE178072009F078FE51
:101EF000124B0820197809F073FE114B092019784C
:101F000009F06EFE0F4B0A20197809F069FE0E4B9E
:101F10000B20197809F064FE0C4B0C20197809F09D
:101F20005FFE0B4B0D201978BDE8104009F058BE3C
:101F300044F0FF1F5C0000202CF0FF1FA40F0020C6
:101F4000A807002094070020CC060020800700206E
:101F500030F0FF1F2DE9F04F0546DFF84C828D4E23
:101F60008D4F98F800E02E60FF2085F82400DFF800
:101F70003C92387859F820C00023BEF1060F8DB08E
:101F80000C4685F8253085F826309CBF88F800304F
:101F90009E46BCF1000F00F0A8808C455BD06346E4
:101FA000810001E09C4256D00B445B68002BF9D1C4
:101FB000634603EB010ADAF80430002BF9D105EB94
:101FC000010BCAF80440BEF1060F4FF0FF044FFAB0
:101FD00080FACBF804308DF82C4002968DF82D3025
:101FE0008DF82E3085F824A0644605D8002388F8A3
:101FF0000030002C00F0A980A24226D0234601E048
:10200000934222D00B445B68002BF9D104EB010C06
:10201000DCF80440002CF9D1CCF804200CAB1944B6
:102020000024431CBAF1FF3F41F8244C3B708DF86B
:102030002CA0029605D0594951F82A3002AA9342A1
:1020400072D028460DB0BDE8F08F013038702846B8
:102050000DB0BDE8F08F0023FF21BEF1060F029600
:102060008DF82C108DF82D308DF82E3001D888F891
:1020700000309445E9D06346810001E09A42E4D003
:102080000B445B68002BF9D18C44DCF804402CB184
:10209000A4468C44DCF80440002CF9D10CAB194464
:1020A0004FFA80FE431CBEF1FF3FCCF804203B708A
:1020B00041F8244C02968DF82CE0C2D0374951F8F3
:1020C0002E3002AA9342BCD159F82E304FEA8E0628
:1020D00023B19A1953685460002BFAD10023387049
:1020E00049F82E3041F82E30ABE7B0B38100DFF86D
:1020F000ACA049F8204005EB010C00234AF8205021
:10210000BEF1060FCCF804304FFA80FA4FF0FF0C06
:1021100002968DF82D308DF82E3085F824A08DF89C
:102120002CC07FF663AF64E759F82A304FEA8A067D
:1021300023B19A1953685460002BFAD100233870E8
:1021400049F82A3041F82A307BE7A0B1134B49F80F
:10215000202002AA43F8202060E7114901921520AF
:1021600009F006FE0F4B98F800E0019A4FF40011B9
:1021700019603878BAE70A490192152009F0F8FD8C
:10218000084B019A4FF40011196038784FFA80FA21
:102190008100DBE7F47C0100C9100020A8100020BA
:1021A0009504000000E100E094E9FF1F8810002082
:1021B0002DE9F84FA84CA94EA94F09F073FC042152
:1021C000A84808F0C3FD22683760002373723361AA
:1021D0003372F3600AB938E11A465369002BFBD118
:1021E0005661A14DA14B9D4833604FF00008C6F8E1
:1021F0001480A6F80480A6F8068003F083FA012074
:1022000005F22472434641462F6085F80880C5F8E0
:102210000C8068722A61AE4601E0DEF8102042F8B8
:1022200023106A7A904801339A42F6DC22688A4B7E
:102230000AB90CE11A465369002BFBD155614FF0E6
:1022400000088B49DFF8B4E22960424601234FF4CD
:1022500080718848C5F81480A5F80480A5F8068028
:10226000C5F818E185F8218785F822870CF0E4FD90
:10227000814AC5F81C814FF0010E02F11801176068
:10228000082782F809E04346404682F80880C2F8F1
:102290000C801161964685F8207701E0DEF8101079
:1022A00041F82300517A744F01339942F6DC2168DA
:1022B000694B09B9CDE019464B69002BFBD14A6146
:1022C0006E4B6F495A60002454619480D480184644
:1022D00082F8F440C2F8F04082F8F540116082F8CC
:1022E000F6401E601C725C72DC600BF04DFA654BB0
:1022F000654F1C7218461E605D605C72DC600BF0FE
:1023000043FA624B624A634D6348DFF8F4E1DC71E3
:10231000642683F83C4483F83D4483F86A4483F898
:102320006064C3F86C045D4EC2F800E00A233968AB
:102330001472547214712E602B724FF087400EF09D
:10234000ADF8574D574B584E18604FF0FF09574B9B
:1023500085F825404FF0010885F82490544A5549E6
:102360006C632846AC6385F83C402B6085F826807A
:102370000EF060FB504B86F8249086F825404C4ABE
:102380004E493360304686F826800EF053FB2A46CD
:1023900031464B48DFF86CB1DFF86CA1DFF86C9187
:1023A000DFF86C81FFF7D6FD4649414A44480EF0FC
:1023B00041FB454A454B10681C744FF47A729A6091
:1023C000434A1A605C741C711C730DF05FFF014678
:1023D0003868404F0EF062F83F4B05461D602946B5
:1023E0003E480EF05BF83E4B06461E6029463D48CF
:1023F0000EF054F80EF064F92946CBF800003A4884
:102400000EF04CF80EF05CF92946CAF80000374887
:102410000EF044F80EF054F93146C9F80000344883
:102420000EF03CF80EF04CF9C8F8000030460EF003
:1024300047F9214638602F480BF0D2FE1C4A2E493E
:102440002C48BDE8F84F0EF0F5BA2660C9E61860D2
:10245000F5E61F6034E700BF74120020200700205B
:10246000AC7C010020060020B4070020908401000D
:1024700068840100DC0E0020180500206C0000209C
:102480009C8401007C0000203CF0FF1F9000002095
:10249000EC0E002084070020011001387484010034
:1024A000D0060020C00600203807002088850100E3
:1024B000FCEFFF1FBD0600009C8501001507000012
:1024C0005C0600201106000038F0FF1F4C0F0020B2
:1024D000B87C0100140600206400002000007A444B
:1024E000180F002000409C4500007A460000FA4387
:1024F000000096430405002039E2000060820100DC
:10250000DC7C0100B40F0020A80600207407002026
:102510005806002010B5E94C0A21204603F07CFE45
:102520002046002103F050FC2046302103F04CFCF3
:102530002046402103F048FC6021204603F044FC83
:10254000204603F07BFE20460A2103F065FE20466C
:10255000002103F039FC2046262103F035FC2046FB
:10256000002103F031FC6C21204603F02DFC2046B5
:1025700003F064FE20460A2103F04EFE20460021AF
:1025800003F022FC2046282103F01EFC20460121F6
:1025900003F01AFCF021204603F016FC204603F05D
:1025A0004DFE20460A2103F037FE2046002103F0AD
:1025B0000BFC20462A2103F007FC2046002103F0F3
:1025C00003FC0021204603F0FFFB204603F036FE0B
:1025D00020460A2103F020FE2046002103F0F4FBF0
:1025E00020462C2103F0F0FB20460F2103F0ECFBEA
:1025F0002221204603F0E8FB204603F01FFE204680
:102600000A2103F009FE2046002103F0DDFB2046ED
:102610003C2103F0D9FB2046442103F0D5FB4621A1
:10262000204603F0D1FB204603F008FE20460A2195
:1026300003F0F2FD2046002103F0C6FB20462421D2
:1026400003F0C2FB2046012103F0BEFB37212046E8
:1026500003F0BAFB204603F0F1FD20460A2103F007
:10266000DBFD2046002103F0AFFB2046302103F0C4
:10267000ABFB2046002103F0A7FBAB21204603F073
:10268000A3FB204603F0DAFD20460A2103F0C4FD37
:102690002046002103F098FB2046022103F094FB22
:1026A0002046002103F090FB6321204603F08CFBC1
:1026B000204603F0C3FD4FF4C87009F09FFD20468B
:1026C0000A2103F0A9FD2046002103F07DFB2046EE
:1026D0002E2103F079FB2046192103F075FB192107
:1026E000204603F071FB204603F0A8FD20460A2196
:1026F00003F092FD2046002103F066FB20460421F2
:1027000003F062FB2046002103F05EFB042120461B
:1027100003F05AFB204603F091FD20460A2103F006
:102720007BFD2046002103F04FFB2046062103F0ED
:102730004BFB2046012103F047FB3021204603F0EC
:1027400043FB204603F07AFD20460A2103F064FD96
:102750002046002103F038FB20460A2103F034FB19
:102760002046002103F030FB0021204603F02CFB23
:10277000204603F063FD20460A2103F04DFD20466C
:10278000002103F021FB20460E2103F01DFB204613
:10279000002103F019FB0821204603F015FB204619
:1027A00003F04CFD20460A2103F036FD20460021AF
:1027B00003F00AFB2046102103F006FB2046FF2110
:1027C00003F002FB3C21204603F0FEFA204603F012
:1027D00035FD20460A2103F01FFD2046002103F0AD
:1027E000F3FA2046222103F0EFFA20467F2103F07E
:1027F000EBFA7F21204603F0E7FA204603F01EFDA6
:1028000020460A2103F008FD2046012103F0DCFAEE
:102810002046242103F0D8FA2046002103F0D4FA00
:102820000021204603F0D0FA204603F007FD2046A1
:102830000A2103F0F1FC2046002103F0C5FA2046EE
:10284000242103F0C1FA2046002103F0BDFA14212F
:10285000204603F0B9FA204603F0F0FC20460A2196
:1028600003F0DAFC2046002103F0AEFA20462A21CC
:1028700003F0AAFA2046002103F0A6FA0021204620
:1028800003F0A2FA204603F0D9FC20460A2103F007
:10289000C3FC2046002103F097FA2046202103F0D4
:1028A00093FA2046002103F08FFA0021204603F01E
:1028B0008BFA204603F0C2FC012010BD68100020F6
:1028C0003021014807F038BC2006002070B50446CE
:1028D0000D4633480121164607F06CFC2AB2002150
:1028E0002F4807F063FC204606F0DAFC01462C482E
:1028F0000BF0F8F92D212A4807F01EFC204606F0BF
:10290000ABFC014626480BF0EDF92D21244807F0D9
:1029100013FC204606F08EFC014621480BF0E2F93C
:10292000022220491E480BF0C9F9204606F0A6FCF9
:10293000092830DD204606F0A1FC014618480BF0BE
:10294000D1F9204606F052FC0122054616491448EA
:102950000BF0B4F9092D03DC3021114807F0ECFB32
:1029600029460F480BF0BEF906B970BD204606F0A7
:102970004FFC012204460C4909480BF09FF9092C31
:1029800003DC3021064807F0D7FB21460448BDE8A8
:1029900070400BF0A7B93021014807F0CDFBC9E723
:1029A00020060020887F01009C7F01002DE9F04F68
:1029B000DFF80883D8F8004085B02CB1012C00F076
:1029C000BB8005B0BDE8F08F09F09EFA9A4FDFF8A2
:1029D000F092386099489A4D08F0CCF90121974857
:1029E00007F0EEFB0221954807F0E4FB2246214662
:1029F000924807F0DBFB0A22924990480BF05EF9FF
:102A00008E480BF0E9F901218C4807F0D3FB122224
:102A100021468A4807F0CAFB05228B4987480BF0FC
:102A20004DF9D9F80010854801310BF05BF901220E
:102A3000864982480BF042F9D9F80020844B7F4840
:102A400053F8221023460A220BF0E8F928680122E5
:102A50002821FFF73BFF012239213868FFF736FFB5
:102A6000764808F0C3FB2B683A68591E914209DC8E
:102A7000DFF8509299F8001021B1764909680029D1
:102A800040F081829A4252DB734F3C68002C00F088
:102A900004830D217148724C0AF04EFC71480BF012
:102AA0009BF9714B714A724928681B681268096862
:102AB00003441A4401292A60236000F00C830E218C
:102AC0006C486D4F0AF038FC09F01EFAFFF7B2F8B7
:102AD0000B216A480AF030FC2068FFF7ABF80B21A5
:102AE00067480AF029FC2868FFF7A4F8654B5348AB
:102AF00000250124AE211D60C8F8004008F042F90D
:102B00000E2161480AF018FC56480BF065F9FEF7F3
:102B100087F85E4B38461D6002F066FF0B215C486B
:102B200087F8F6400AF008FC4E480BF055F9D8F843
:102B30000040012C7FF445AF4F4802F049FF0128C7
:102B400001DDFDF78DFE534B93F82237002B46D065
:102B5000514B50491B680022DB0781F822273ED5E4
:102B60004E4B1D687F2D00F20C8205F10C0331F8ED
:102B700013000DF087FB4FF062510DF0DBFB0746B1
:102B8000474BD3F800906C1C4C4580F29D80414B24
:102B90000D3503EB450513E028880DF073FB4FF06E
:102BA00062510DF0C7FB8246394650460DF07EFD5E
:102BB000023508B15746264601344C4500F0848062
:102BC0007F2CE9D94FF0000AEEE7CAF8000009F1BE
:102BD0000109B9F1040F0AF1040A40F0A1802B4C5D
:102BE000304B22681B689A42FFF6EBAE2A4E3368E0
:102BF000002B40F06D821D4B1D68002D40F0C480FD
:102C0000294803F0BDFBFEF785FBFEF709F83368A2
:102C10002560002B3FF4D5AE244B254E194C25489A
:102C20002549356000221A605A609A60DA60256092
:102C300005600D60C5E600BF58000020200600209A
:102C4000100700208C7F0100987F0100D4800100D4
:102C5000B00600201006002018060020A07F01000A
:102C60007C07002084F5FF1F44F0FF1F2CF0FF1F9E
:102C700080070020B07F010018050020C07F010000
:102C8000CC7F0100A4070020287E010078070020E7
:102C9000387E0100B4070020800F0020B40F002010
:102CA000A8060020840600205C0F00209806002063
:102CB0001407002020000020AC070020B0070020EF
:102CC000600000209C070020B94B1968B14200F356
:102CD000BC81002900F0B981B64B1A68B242C0F23B
:102CE000B181002A00F0AE81B34CB448236800687B
:102CF000F31A002BB8BF5B42834280F2A981B04A2D
:102D0000136801331360AF4AAF4B02931368AF49A6
:102D1000DFF8C4A203910133266013604FF000096D
:102D2000029B53F804BB0293039B53F8046B039379
:102D30005E457FF74CAFA64B53F829000DF0A6FA7D
:102D4000A44BDAF800500BF10C04074603EB4404E3
:102D500015E020880DF096FA4FF062510DF0EAFA76
:102D600039460DF09BFB014628460DF0DBF90BF1CF
:102D7000010B5E4504F1020405463FF426AFBBF1AA
:102D80007F0FE6D90020EBE7FDF716FFFEF7C2FA4A
:102D9000336873B1904A914E8A4D854C8548002125
:102DA0000023116051609160D16033602B6023601B
:102DB00003608B4B8B4D1C688B4E09F0A5F88B4A3A
:102DC0008B4B1268201A841A24EAE47483FB0423D0
:102DD0002344E017C0EBE3200CF0F0FD0CF008F901
:102DE0000DF002F9834B844A286003FB004482FB08
:102DF000043222440746E017C0EB62100CF0DEFDFF
:102E00000CF0F6F80DF0F0F80201131A821A04EB38
:102E100082049B004FF4616202FB07333460774FFA
:102E20001C44092C386040F3FF8012217448754C13
:102E30000AF082FA74480AF0CFFF0021022009F05C
:102E40006FF92368002B40F06F810E216F480AF064
:102E500073FA6D480AF0C0FF0A216D4803F0DCF9EF
:102E600000216B4802F0B0FF3021694802F0ACFF4E
:102E70000021674802F0A8FF0021654802F0A4FF86
:102E8000634803F0DBF90A21614803F0C5F900212A
:102E90005F4802F099FF02215D4802F095FF002192
:102EA0005B4802F091FF0021594802F08DFF58481D
:102EB00003F0C4F9102157480AF03EFA52480AF0CC
:102EC0008BFF102154480AF037FA29684E480AF05F
:102ED00009FF39684C480AF005FF31684A480AF092
:102EE00001FF49480AF078FF642009F087F90E21B4
:102EF0004A480AF021FA44480AF06EFF642009F0BB
:102F00007DF933783A782978454806F015F8454830
:102F100005F0E8FD0121022009F002F92368002BE9
:102F200040F0F2800A213A4803F076F9002138484F
:102F300002F04AFF3021364802F046FF00213448B3
:102F400002F042FFAB21324802F03EFF304803F06E
:102F500075F90A212E4803F05FF900212C4802F090
:102F600033FF02212A4802F02FFF0021284802F0F7
:102F70002BFF6321264802F027FF254803F05EF966
:102F800056E00027FCE50121204609F0C9F801219F
:102F9000052009F0C5F8C82009F030F921460520C0
:102FA00009F0BEF801213A682B6889F8001069E53C
:102FB00020000020AC0700201C0700207407002020
:102FC00068000020A4070020880600206407002075
:102FD000880F0020B4070020980600201407002066
:102FE0001007002054000020B00F002018F0FF1F31
:102FF000C5B3A291F0F1FFFF89888888900700206F
:10300000D87F01001006002084F5FF1FEC7F01002F
:1030100068100020FC7F0100108001002480010066
:10302000D00600205C060020494B1B68002B55D1C0
:1030300001233C220221474807F0CEFF0023C8F8B5
:103040000030BEE41E6032464EE61E60314643E666
:10305000414B424D1B682868521A9A421ADD404B78
:103060001B68984216DB0DF011F93E4B19680DF004
:1030700061F90CF0B5FC022702460B4600973A486E
:103080000AF02AFF012139480AF056F9384A136834
:103090000133136001232B6035E60A21354803F024
:1030A000BBF82146334802F08FFE0E21314802F072
:1030B0008BFE21462F4802F087FE0A212D4802F0A0
:1030C00083FE2C4803F0BAF84FF0FF333B60E0E496
:1030D000FEF73AFA8FE5FEF7F3FDF0E40121052053
:1030E00009F01EF8C82009F089F80021052009F030
:1030F00017F8642009F082F81F4B002101220846CE
:103100001A7009F00DF893E70121052009F008F87D
:103110004FF4FA6009F072F80021052009F000F878
:10312000154B01221A70FDE60121052008F0F8FF79
:1031300040F6B83009F062F80021052008F0F0FFF1
:103140000021084608F0ECFF0B4B00221A707CE6C9
:103150001006002020060020140600206800002031
:1031600058060020180F002084F5FF1FD4800100AE
:1031700014070020681000209C0700202DE9F04F64
:1031800083B008F0C1FEB84BB84D18600121B848B3
:10319000B84C07F00FF80121B54807F011F81222DA
:1031A0000021B34807F002F80422B349B0480AF0FE
:1031B00085FD2968AE480AF095FD0222AF49AC486A
:1031C0000AF07CFD0622AE49A9480AF077FD236883
:1031D000002B00F03381012B00F03C81A94FAA495C
:1031E000A348DFF8F48206220AF068FD3968A04897
:1031F0000AF078FD0122A5499D480AF05FFD0322EF
:10320000A3499B480AF05AFD002398F800109848FB
:103210000A220AF003FE96480AF0DEFD2368012B1D
:1032200000F086810121924806F0C4FF2E687000EC
:103230000DF02CF8974B19680DF07CF896490CF0BE
:1032400071FF4FF08E410CF06DFF94490DF026F99F
:1032500092490DF023F92368012B824600F0428148
:103260004FF07E5430460DF011F821460DF062F813
:1032700004463868DFF86492DFF864B2884D304461
:103280000DF004F8014620460DF008F9074698F8BD
:1032900000000CF0FBFF834B19680DF04BF804465F
:1032A000D9F800000CF0F2FF7F4B19680DF042F8DE
:1032B0007E4B19680CF036FF39460DF03BF8394665
:1032C00080464FF07E500CF02BFF794B19680DF0C3
:1032D00031F8014640460CF025FF014620460DF02E
:1032E000DDF874490DF026F80DF010FADBF8004017
:1032F000002380462B606B60AB60EB6074B12046AE
:103300000CF0C0FF51460DF0C9F80CF069FB0BF052
:103310006FFE0CF091FE286000FB06F4DBF8040061
:1033200068B10CF0AFFF51460DF0B8F80CF058FB47
:103330000BF05EFE0CF080FE686006FB00F0DBF830
:103340000830044473B118460CF09CFF51460DF050
:10335000A5F80CF045FB0BF04BFE0CF06DFEA860E1
:1033600006FB00F3DBF80C001C4468B10CF08AFF8C
:1033700051460DF093F80CF033FB0BF039FE0CF0D6
:103380005BFEE86006FB00F020440CF07BFF394652
:103390000DF084F8044640460CF074FF01462046C8
:1033A0000DF084F9E8B130220021314806F0FEFE2C
:1033B0000E2241492E480AF081FC40492C48A1FBCD
:1033C0000831090C00230A220AF028FD01223C4999
:1033D00027480AF073FCD9F8003013BB03B0BDE8EE
:1033E000F08F01463022224806F0E0FE0D223549DA
:1033F0001F480AF063FC204633490DF04FF80CF0EB
:10340000EFFA02240B460246009419480AF064FDC4
:1034100001222B4916480AF051FCD9F80030002B44
:10342000DCD012227821124806F0C0FE274910484D
:10343000012203B0BDE8F04F0AF040BC0422244949
:103440000B480AF03BFC0A480AF0C6FC2368012B33
:103450007FF4C4AE04221F4905480AF02FFC04483B
:103460000AF0BAFCBAE600BF5800002044F0FF1F83
:103470002006002080070020348001003C800100ED
:10348000408001002CF0FF1F588001006080010087
:10349000648001003CF0FF1F0000304200007A44CD
:1034A000B006002014F0FF1F10F0FF1F04F0FF1FF4
:1034B00034F0FF1F000061457880010007452EC2EF
:1034C000EC7E01008880010000C0A84798800100C0
:1034D000488001005080010030F0FF1F10060020DE
:1034E0002C0F0020394A3A4B10781B78834286BF54
:1034F000C3F11803C018C01A0CF0C8FE354A364B89
:1035000005461B781078834286BFC3F13C03C01880
:10351000C01A0CF0BBFE3149044628460CF00AFFE5
:1035200021460CF0FFFD2E490CF0B8FF044699E649
:10353000274E2C492C4808220AF0C0FB3178092973
:1035400038DD00230A2228480AF068FC224B27496C
:103550001E78254801220AF0B1FB092E03DC302138
:10356000214806F0E9FD31461F48184E0AF0BAFB23
:103570001F491D4801220AF0A1FB317809291FDDEE
:1035800000230A2218480AF049FC124B17491E78FA
:10359000154801220AF092FB092E03DC3021124863
:1035A00006F0CAFD314610480AF09CFB0E480AF0AE
:1035B00013FC37E630210C4806F0BEFD3178C0E739
:1035C0003021094806F0B8FD3178D9E7940700208A
:1035D000A40F0020CC060020A807002000007042A5
:1035E0000000B44468800100200600209C7F010098
:1035F000748001002DE9F04F87B0FEF7F7FB08F06B
:1036000083FC864BDFF85C9218608548854E864FB8
:10361000DFF8548207F0AEFB0121814806F0D0FDAF
:1036200002217F4806F0C6FD002211467C4806F0C4
:10363000BDFD08227D497A480AF040FB0121784807
:1036400006F0B8FD10220021754806F0AFFD1222E9
:10365000774973480AF032FB71480AF0BDFBCA464D
:103660000025002347F8043B72480AF0B5FB714877
:103670000AF0B2FB013505216F4809F05DFE2946CD
:103680006C480AF02FFB6B480AF0A6FB29466448F9
:103690000AF028FB0422694961480AF00FFB6048E0
:1036A00007F0A4FD0721664802F0FEFA0E216448E7
:1036B00002F058FB0C21624802F026FB5AF8042B5A
:1036C0006049D2B2A1F10C004FF0384304F0FCFC89
:1036D00058BB1C215C4809F02FFE56480AF07CFBC1
:1036E00006225A494E480AF0E9FA4D480AF074FB9E
:1036F0004B4807F07BFD042DB3D14A4C99F80020CC
:1037000004F58C65284604F26C414FF0384304F010
:10371000DBFC002840F0AA800B224D4940480AF00B
:10372000CDFA3F4807F062FDFEE74A4800F1240366
:10373000336002F025FE01213A4804F0C9FB01463E
:1037400000285AD0DFF80CB1ABF23C41584603F0E8
:103750004FF80028BDD096F83C3413F0700FB8D065
:10376000ABF23C40C8F800B004F016FB0CF08AFD48
:1037700039490CF0DFFD044630790CF087FD014635
:1037800020460CF0D7FD0CF0C1FF04460BF12400DD
:1037900004F092FE0CF076FD2F490CF0CBFD0CF0FE
:1037A000B5FF112183462D4809F0C6FD21460023AF
:1037B0000A2220480AF032FB1E480AF00DFBC72CF3
:1037C0008CBFC83C0024214600230A2247F8044C41
:1037D00013480AF023FB0122214911480AF06EFA2E
:1037E000594600230A220E480AF018FB0C480AF03A
:1037F000F3FA0B4807F0FAFC7DE70A4804F068FB8F
:1038000000283FF466AFDFF84CB0ABF23C415846BD
:1038100002F0EEFF00289ED15BE700BF50000020C1
:1038200020060020900000202C0F00209C8001002A
:10383000A880010084F5FF1F987F0100BC80010073
:1038400048F0FF1FFC040020648101008481010016
:103850008C810100CC040020BD37063AC4800100F1
:10386000D88001003C0F00208010002004F23C4072
:10387000256002F085FD0121204604F029FB014668
:10388000002800F05D86A74C04F23C4528462146FE
:1038900002F0AEFF00283FF43FAF94F83C3413F041
:1038A000700F3FF439AFC8F80050FEF797F89E4B01
:1038B0001A689E4B9A4202D99B4A3C2313609C4A49
:1038C0009A4B12689A4202D9994A3C231360994B49
:1038D0001B78172B02D9974A00231370964B1B783D
:1038E0003B2B02D9944A00231370944B1B78172B5F
:1038F00002D9924A00231370914B1B783B2B02D9BB
:103900008F4A00231370DFF858828E4CD8F80030AD
:10391000DFF850A28C4D012B88BF00234FF4FA60D2
:1039200088BFC8F8003008F069FC884807F022FA20
:103930000121864806F044FC0221844806F03AFC46
:1039400000221146814806F031FC804807F04EFC09
:103950004FF4167008F052FC2646082008F004FCCC
:1039600038BBDAF800300133CAF8003002E00A2030
:1039700008F044FC082008F0F7FB0028F7D0D8F83E
:103980000030DAF80020B3FA83F10A2A4FEA511125
:10399000D8BF0021002940F0CE85A3F10103B3FA7E
:1039A00083F30E2A4FEA5313D8BF0023002B40F0B5
:1039B000C285664807F0DEF90121644806F000FC84
:1039C0000221624806F0F6FB002211465F4806F02D
:1039D000EDFB08F099FA5E4BDAF800701B6828607E
:1039E000C31A03930E2F00F22583DFE817F00E03AE
:1039F000A401C7045102E103BF003105A20254042F
:103A000031017E03EC01390354000F004C4B0420BC
:103A10001F7808F0A9FB8146032008F0A5FB834628
:103A2000B9F1000F40F03A8623684A4A0121132B6E
:103A3000117040F3F986013323600137BBF1000FA9
:103A400040F03286DFF820914249D9F80020012069
:103A5000132A087002DCC82008F0D0FB092FC8BF69
:103A6000D9F8002007F1FF37CCBF013201227B1CBF
:103A7000C9F8002040F01B863B27314B36493348BC
:103A80001F7007220AF01AF92D4B197809291F46D1
:103A900000F3DD8141E0294B04201F7808F064FB2E
:103AA0008146032008F060FB8346B9F1000F40F027
:103AB000D7852368274A0121132B117040F3AE8666
:103AC000013323600137BBF1000F40F0CF85DFF8F1
:103AD00098902049D9F800200120132A087002DCB0
:103AE000C82008F08BFB092FCABFD9F8002001229B
:103AF0000132013FC9F800207A1C40F0BA8517272F
:103B00000E4B164911481F7007220AF0D7F80B4BCD
:103B1000197809291F4600F39A81FEF7D1FE3978FA
:103B200095E100BF9000002044F0FF1FA086010037
:103B30002CF0FF1FA40F0020A807002094070020EE
:103B4000CC060020BC0F00205800002020060020DA
:103B500050000020180700205C8101005481010002
:103B6000800700208C0000201C0F002005F074FB53
:103B7000BA4F83460420C7F800B008F0F5FA049065
:103B8000032008F0F1FA049B8146002B40F00E85DB
:103B90002368B3490120132B087040F339860133A1
:103BA00023600BF1010BB9F1000F40F00585DFF840
:103BB000DC92AB49D9F800200120132A087002DCFE
:103BC000C82008F01BFBBBF1090FC8BFD9F80020C3
:103BD0000BF1FF3BCCBF01320122BBF1000FC9F852
:103BE000002040F3F084BBF10D0FA8BF4FF0010B94
:103BF0003B689C4F5B45C7F800B01BD0286805F0B8
:103C00003DFB8346286805F0F1FA8146286805F0F7
:103C1000FFFA0590286805F00DFB049028683F68BE
:103C200005F03EFB00970190049B059A49465846D3
:103C3000FDF7CAFF06228C498C480AF03FF808F0CD
:103C400063F905F009FB014688480AF04BF8F1E1F9
:103C500005F0DEFA864F83460420C7F800B008F06E
:103C600083FA0490032008F07FFA049B8146002B1E
:103C700040F0498523687A490120132B087040F3EE
:103C8000C185013323600BF1010BB9F1000F40F046
:103C90004085DFF8F8917249D9F800200120132AF5
:103CA000087002DCC82008F0A9FABBF1090FC8BFF0
:103CB000D9F800200BF1FF3BCCBF01320122BBF150
:103CC000000FC9F80020C0F22B85BBF13C0FA8BF44
:103CD0004FF0000B3B68674F5B45C7F800B01CD046
:103CE000286805F0CBFA8346286805F07FFA8146FC
:103CF00028683F6805F09EFA0590286805F0ACFA40
:103D00000490286805F0CCFA049A00920190059B73
:103D10003A4649465846FDF757FF07225649534849
:103D200009F0CCFF08F0F0F805F072FA01464F48B0
:103D300009F0D8FF7EE1514B0420D3F800B008F021
:103D400013FA0490032008F00FFA049B8146002B1D
:103D500040F0B284236842490120132B087040F3DD
:103D60004B85013323600BF1010BB9F1000F40F0DB
:103D7000A984DFF818913A49D9F800200120132AC4
:103D8000087002DCC82008F039FABBF1090FC8BF7F
:103D9000D9F800700BF1FF3BC8BF0137BBF1000F32
:103DA000C9F8007040F39584BBF5616FC8BF4FF050
:103DB000010B324B32492D48C3F800B0042209F000
:103DC0007DFF2E4B1CE32F4B04201F7808F0CCF90D
:103DD0008146032008F0C8F98346B9F1000F40F08E
:103DE000098423681E4A0121132B117040F3FE84BD
:103DF000013323600137BBF1000F40F00184DFF88D
:103E00008C901749D9F800200120132A087002DC91
:103E1000C82008F0F3F9092FC8BFD9F8002007F12E
:103E2000FF37CCBF01320122781CC9F8002040F0D6
:103E3000EA831727134B14490C481F70082209F016
:103E40003DFF104B197809291F467FF766AE002306
:103E50000A22064809F0E2FFECE000BF140500204A
:103E600018070020C40600200C8101002006002055
:103E7000840F00201C0000202C81010044F0FF1F53
:103E800034800100A40F00203C8101001C0F0020A1
:103E9000BB4F042097F800B008F066F904900320A7
:103EA00008F062F9049B8146002B40F05F83236891
:103EB000B4490120132B087040F39284013323602E
:103EC0000BF1010BB9F1000F40F05683DFF8D892E7
:103ED000AC49D9F800200120132A087002DCC82060
:103EE00008F08CF9BBF1090FC8BFD9F800200BF11D
:103EF000FF3BCCBF01320122BBF1000FC9F800200B
:103F000040F34183BBF1080F40F361834FF0010B95
:103F100005229D499D4887F800B009F0CFFE397809
:103F20009A4800230A2209F079FF984809F054FFC3
:103F300080E005F0A3F9DFF874B207460420CBF85F
:103F4000007008F011F90490032008F00DF9049BAB
:103F50008146002B40F0C98323688A490120132B36
:103F6000087040F33784013323600137B9F1000F43
:103F700040F0C183DFF830928249D9F80020012057
:103F8000132A087002DCC82008F038F9092FC8BFCE
:103F9000D9F8002007F1FF37CCBF01320122002FF2
:103FA000C9F80020C0F2AD83182FA8BF0027DBF8A6
:103FB0000030BB421BD0286805F018F983462868FA
:103FC00005F026F98146286805F034F9059028683F
:103FD00005F042F90490286805F062F9049900910F
:103FE0000190059B4A4659463846FDF7EDFD0522EE
:103FF0006749664809F062FE07F086FF05F03EF962
:104000000146624809F06EFE14E05E4F3B78002BDB
:1040100040F0D7830A225F495C4809F04FFE042034
:1040200008F0A2F80746032008F09EF817B9002808
:1040300000F0A883FFF7A2F807F066FF01223921FC
:10404000FEF744FC514807F0D1F80A2008F0D6F8F2
:10405000039BB3F5167F7FF780AC07B0BDE8F08F08
:104060004D4B04201F7808F07FF88146032008F0AC
:104070007BF88346B9F1000F40F003832368414A7F
:104080000121132B117040F3688301332360013742
:10409000BBF1000F40F0FB82DFF80C913949D9F8F1
:1040A00000200120132A087002DCC82008F0A6F8BE
:1040B000092FC8BFD9F8002007F1FF37CCBF013264
:1040C0000122791CC9F8002040F0E4823B27324BE2
:1040D00032492E481F70082209F0F0FD2E4B197846
:1040E00009291F463FF7B3AE17E505222C4927489B
:1040F00009F0E4FD0420D8F8007008F035F8814696
:10410000032008F031F88346B9F1000F40F08F82A8
:1041100023681C4A0121132B117040F319830133CA
:1041200023600137BBF1000F40F08782DFF8789001
:104130001449D9F800200120132A087002DCC82095
:1041400008F05CF8092FC8BFD9F8002007F1FF3745
:10415000CCBF01320122002FC9F80020C0F27382C7
:10416000012F40F377820023C8F800300D48FCF798
:10417000ADFBD8F80030012B7FF45CAF66E200BFE6
:1041800030F0FF1F18070020FC80010020060020EF
:104190001C810100DC800100A8070020488101008B
:1041A00034810100488001001C0F0020A00700207E
:1041B00005F076F8994F83460420C7F800B007F061
:1041C000D3FF0490032007F0CFFF049B8146002B10
:1041D00040F0DC81236892490120132B087040F3E2
:1041E000B282013323600BF1010BB9F1000F40F0F3
:1041F000D381DFF858928A49D9F800200120132A88
:10420000087002DCC82007F0F9FFBBF1090FC8BF36
:10421000D9F800200BF1FF3BCCBF01320122BBF5E6
:10422000FA6FC9F80020C0F2BE8140F634039B4506
:10423000C8BF4FF4FA6B3B687A4F5B45C7F800B0D4
:104240001BD0286805F01AF88346286804F0CEFFD2
:104250008146286804F0DCFF0590286804F0EAFF36
:104260000490286804F0F8FF3F68049B0090059ACA
:10427000019749465846FDF7A7FC05226A496B4855
:1042800009F01CFD07F040FE05F00AF801466748FA
:1042900009F028FDCEE604F0A9FF654F834604200F
:1042A000C7F800B007F060FF0490032007F05CFF40
:1042B000049B8146002B40F08D81236858490120E2
:1042C000132B087040F33A82013323600BF1010B8A
:1042D000B9F1000F40F08481DFF870915049D9F8AE
:1042E00000200120132A087002DCC82007F086FF96
:1042F000BBF1090FC8BFD9F800200BF1FF3BCCBFC1
:1043000001320122BBF1000FC9F80020C0F26F8119
:10431000BBF13C0FA8BF4FF0000B3B68454F5B451E
:10432000C7F800B01CD0286804F0A8FF83462868AE
:104330003F6804F06DFF8146286804F07BFF05901C
:10434000286804F089FF0490286804F0A9FF049904
:1043500000910190059B4A4639465846FDF734FCCA
:1043600007223549314809F0A9FC07F0CDFD04F0DA
:104370003DFF01462D4809F0B5FC5BE62F4B0420BC
:104380001F6807F0F1FE8146032007F0EDFE83462B
:10439000B9F1000F40F0DC802368214A0121132B82
:1043A000117040F3C681013323600137BBF1000F68
:1043B00040F0D480DFF894901949D9F8002001200A
:1043C000132A087002DCC82007F018FF092FC8BFA5
:1043D000D9F8002007F1FF37CCBF01320122002FAE
:1043E000C9F80020C0F2C080154B9F42C8BF00270B
:1043F000124B14490D481F60042209F05FFC0F4B5B
:1044000019680A4809F06EFC01220F49074809F0B3
:1044100055FC064809F0E0FC0CE600BFA80F0020A0
:1044200018070020600700200481010020060020FA
:10443000C8060020A00F0020248101002CF0FF1FDF
:1044400080510100F4800100608001001C0F0020F9
:1044500004F0F0FEC34F83460420C7F800B007F015
:1044600083FE0490032007F07FFE049B8146002B0F
:1044700040F0CD802368BC490120132B087040F325
:104480005381013323600BF1010BB9F1000F40F0B0
:10449000C480DFF8E492B449D9F800200120132A3F
:1044A000087002DCC82007F0A9FEBBF1090FC8BFE5
:1044B000D9F800200BF1FF3BCCBF01320122BBF148
:1044C000000FC9F8002040F3AF80BBF1200FA8BF58
:1044D0004FF0010B3B68A54F5B45C7F800B01CD0FF
:1044E000286804F0CBFE8346286804F07FFE8146EE
:1044F000286804F08DFE059028683F6804F0ACFE43
:104500000490286804F0CCFE049B009301903B4685
:10451000059A49465846FDF757FB042294499548A9
:1045200009F0CCFB07F0F0FC04F084FE0146914852
:1045300009F0D8FB7EE50023CAF80030FFF739BA4E
:10454000204603F0C5FC00287FF49DA9FFF7E4B8DE
:1045500000232360BBF1000F3FF42CAF864B0022F9
:10456000002F1A60BFF640AF844F41E7002323605D
:10457000B9F1000F3FF4AAAC7F4B0022BBF1000F52
:104580001A603FF7BFAC4FF0080BC1E40023236073
:10459000B9F1000F3FF42DAE774B0022BBF5FA6F57
:1045A0001A60BFF642AE40F6340B44E600232360A7
:1045B000B9F1000F3FF4FBAA6F4B0022BBF1000FD3
:1045C0001A603FF710AB4FF00C0BFFF711BB5FFA0F
:1045D0008BFB9DE400232360B9F1000F3FF47CAE18
:1045E000654B0022BBF1000F1A60BFF691AE4FF091
:1045F0003B0B92E600232360BBF1000F3FF4FFABBF
:104600005D4B00221A60172F69DD002712E400239A
:104610002360B9F1000F3FF43CAF574B0022BBF1D0
:10462000000F1A603FF751AF4FF01F0B52E7002306
:104630002360BBF1000F3FF479AD4F4B0022002FF8
:104640001A60BFF68DAD0123C8F800304C48FCF766
:104650003DF9EFE4C8F80070002F3FF487ADF5E7AF
:1046600000232360BBF1000F3FF431AA424B00222C
:104670001A60172F02DD0027FFF742BAFFB2FFF7DB
:104680003FBA00232360BBF1000F3FF405AD3A4B66
:1046900000221A603B2F20DD002718E5002323604D
:1046A000BBF1000F3FF4CEA9334B00221A603B2F21
:1046B00018DD0027FFF7E1B900232360B9F1000FEF
:1046C0003FF457AB2C4B0022BBF1000F1A603FF7B1
:1046D0006BAB4FF4616BFFF76CBBFFB2F7E4FFB25B
:1046E000FFF7A8BBFFB2FFF7C8B900232360B9F1F9
:1046F000000F3FF43FAC204B0022002F1A60BFF6A2
:1047000053AC172753E400232360B9F1000F3FF4A3
:10471000C0AA194B0022BBF1000F1A60BFF6D5AA40
:104720004FF03B0BFFF7D6BAC82007F067FD3368A0
:10473000A7E6C82007F062FD336834E6C82007F01A
:104740005DFD3368C0E5C82007F058FD336848E5D3
:10475000C82007F053FD3368E1E4C82007F04EFDA0
:10476000336892E4AC0F0020180700201C060020DC
:1047700014810100200600201C0F00208051010040
:1047800050800100FDF740FAFDF78AFB2948FCF74D
:104790009DF8294806F02AFD40F2DC5007F02EFD76
:1047A000FEF7ECFC07F0B0FB01223921FEF78EF892
:1047B000214806F01BFD0A2007B0BDE8F04F07F0C6
:1047C0001DBDFDF76DFB00233B7007F09DFB1B4BF0
:1047D00018601FE4C82007F011FD3368FFF7C3BB62
:1047E000C82007F00BFD3368FFF768BBC82007F04F
:1047F00005FD3368FFF7FCBAC82007F0FFFC3368FB
:10480000FFF7AFBAC82007F0F9FC3368FFF739BAF1
:10481000C82007F0F3FC3368FFF7C1B9C82007F0E0
:10482000EDFC3368FFF74CB9C82007F0E7FC3368AC
:10483000FFF701B9E88001002006002050000020A9
:104840002DE9F04F93B072B6CC49CD4BCD48412500
:104850000E2480220D70047019461A700B78C84A15
:104860001806FBD5C84BC9481D78C94CC949057005
:10487000033B247809781B78C3704470817062B65A
:1048800072B6BE49BF4C41260F2580230E7025709D
:10489000114613700B781B06FCD5BB4CBC49BD4AB6
:1048A000BD4B2478097812781B78C371047141716B
:1048B000827162B6B94BDFF84CA3D3F800B0B848A8
:1048C000039301245946CAF800400BF0E7FD0BF0B2
:1048D000F7FEDFF83493B34E80465946CAF8048099
:1048E000C9F80080B0480BF0D9FD0BF0E9FE07468F
:1048F0005946C9F80470CAF80870AC480BF0CEFDF0
:104900000BF0DEFE05465946C9F80850CAF80C50AF
:10491000A7480BF0C3FD0BF0D3FEA64AC9F80C0064
:10492000D2F80090DFF8E4C2DFF8E4E229FA04F1FB
:10493000C5EB000A08F1FF32ED1B01F1B761CCF8BD
:104940000020CCF8085015220A25C8EB070701F50E
:1049500058414FF00F08B1FBF9F01421CEF80810C0
:10496000CEF80C20CEF80050CCF80470CCF80CA097
:10497000CEF8048007F090FC4FF4FA7007F03EFC8C
:1049800029468D4808F0D8FC039B18680BF028F8DE
:10499000022502460B460095884809F09DFA874893
:1049A00009F01AFA1321864808F0C6FC854B1868EE
:1049B0000BF016F8009502460B46804809F08CFA79
:1049C0007E4809F009FA0E217F4808F0B5FC7F4BBC
:1049D0007A48196809F086F9784809F0FDF90E213E
:1049E0007B4808F0A9FC7B4B7448196809F07AF9F8
:1049F000724809F0F1F91621774808F09DFC774BD1
:104A00006E48196809F06EF96C4809F0E5F917214C
:104A1000734808F091FC734B6848196809F062F913
:104A2000664809F0D9F9704801F074FA2146284621
:104A300007F0A8FB2146062007F0A4FB214605202D
:104A400007F0A0FB2146002007F09CFB2146052033
:104A500007F066FB4FF4FA6007F0D0FB0021052059
:104A600007F05EFB614B002110201C7007F08AFBF1
:104A7000002006F00DFF2846002107F051FB2146DB
:104A8000062007F04DFB0021052007F049FB00211F
:104A9000084607F045FB0021042007F073FB0021C6
:104AA000032007F06FFB0021082007F06BFB214675
:104AB000042007F035FB2146032007F031FB214697
:104AC000082007F02DFB4FF4FA7007F097FB07F072
:104AD0001BFA474B3060984240F3AB810B214548AD
:104AE000DFF83081444F08F027FC344809F074F9AE
:104AF00007F00AFA034601463048336009F0F2F83D
:104B00002E4809F069F94FF47A7007F077FB07F047
:104B1000FBF9034601462948336009F0E3F82748CA
:104B200009F05AF901233C220221344806F054FAD4
:104B3000642007F063FB314806F01CF901212F487F
:104B400005F03EFB02212D4805F034FB0022114602
:104B50002A4805F02BFB0A222949284809F0AEF81B
:104B6000264809F039F9254806F040FB234806F0AD
:104B700001F90121214805F023FB4DE00700024027
:104B800000000240060002400B000240240F0020FB
:104B90000A000240090002400800024064000020B0
:104BA00000007A44580000200000FA4400409C4570
:104BB00000409C460CF0FF1F9881010084F5FF1F08
:104BC000A4810100180F0020B881010058060020C0
:104BD000C881010074070020D8810100B40F0020B3
:104BE000F0810100A8060020681000209C0700202A
:104BF0007FC1855608820100100700202006002092
:104C0000148201008806002064070020880F00201D
:104C10003C0F002044F0FF1F02218A4805F0CAFA29
:104C200000221146874805F0C1FA0A2286498548C4
:104C300009F044F8834809F0CFF8824806F0D6FA24
:104C40000121022007F06CFA6421804808F0C8FCBA
:104C5000FDF760FCFCF7FEFB7D4B012483F8204749
:104C6000FEF7C8FCFCF7F6FB7A4B7B4A75481A60E6
:104C700006F080F821467348784C05F0A1FA02212D
:104C8000704805F097FA002211466E4805F08EFA3A
:104C900007F03AF9306007F037F9714B71491B683A
:104CA000D8F80020096890FBF3F000FB0333981854
:104CB000012920603B6000F0C08010460BF0E6FA4E
:104CC000694ADFF8F8911168684CDFF8F4B1DFF851
:104CD000F4A10BF02FFB4FF06E510BF02BFB0BF000
:104CE000EFFC634A2060D9F800101468614A0C1B7D
:104CF00024EAE47582FB05322A44E817C0EBE2207F
:104D00000AF05CFE0AF074F90BF06EF95A4C5B4A3B
:104D1000CBF8000004FB005482FB04322244E0176D
:104D2000C0EB62100AF04AFE0AF062F90BF05CF97F
:104D3000534B0246A0EB001004EB800410215148B5
:104D4000CAF800201C6008F0F7FADBF800104E48A3
:104D500008F0C8FFDAF800104B4808F0C3FF484BD2
:104D60004948196808F0BEFF474809F035F808219E
:104D7000464808F0E1FAD8F80010434808F0B2FFBE
:104D8000414809F029F80821414808F0D5FAD9F836
:104D900000103D4808F0A6FF3B4809F01DF80E2121
:104DA0003C4808F0C9FA3068FCF744FF0C213A4847
:104DB00008F0C2FA3868FCF73DFF3B6834683748B2
:104DC000374F1C1B152108F0B7FA21462E4808F072
:104DD00089FF2D4809F000F812AD324B324845F8F2
:104DE000340D00244FF0FF3E1C60304A30498DF8EE
:104DF0002440462309A84FF47A768DF825408DF893
:104E000018408DF82040C7F800E0079601F070FCCC
:104E10009DF8243053B12922264909A801F0F2FE59
:104E2000284608F0D9FF09A801F0AAFA13B0BDE896
:104E3000F08F214807F06EF850E6FCF741FFD8F8F4
:104E400000203AE720060020148201000082FF1FA4
:104E5000B407002084100020F10700007C07002028
:104E600000F0FF1F800700203CF0FF1F8406002099
:104E700018F0FF1FC5B3A291F0F1FFFF8988888861
:104E8000B00F00201080010084F5FF1F2082010078
:104E90002C820100B07F01003882010048820100AD
:104EA000AC060020B0070020B87C01007C7D01002A
:104EB000CC040020447E010080C185562CF0FF1FE9
:104EC0005400002090070020F8B50021054608F0A6
:104ED0004FFC002855D0D5F81C710646002F4ED047
:104EE00005F58E743B1D224605F5907107F5827716
:104EF00033F8020B42F8040FBB42F9D1331D05F51C
:104F0000477206F5827733F8020B42F8040FBB4272
:104F1000F9D1D5F8180180B105F5927200F5007E3F
:104F200032F9043C30F9027B03FB07F3DB138645BF
:104F300022F8043C02F10402F2D105F5E56009F023
:104F40005DFF95F82177EFB905F21C5C95F82027F5
:104F5000E64605F21C7154F8043F23FB03F3B3FB50
:104F6000F2F34EF8043F7145F5D17B1CDBB293425E
:104F700020D085F82137D5F81C0108F0B5FBC5F81D
:104F80001C61F8BD05F21C5C95F82027E64605F289
:104F90001C7154F8043F23FB03F35EF8040FB3FBCA
:104FA000F2F38E450344CEF80030F2D17B1CDBB225
:104FB0009342DED10023DFF83CE085F821376046DC
:104FC00005F1160750F8044FB4FA84F381423EF815
:104FD0001320B4FBF2F31A444FEA5203B4FBF3F488
:104FE00023444FEA530327F8023FEBD1012385F80E
:104FF0002237C0E7A08401000020704700207047DE
:1050000038B50F29114C28BF0F210F2A28BF0F22B6
:105010000D46017A204642EA051501F027F82046A0
:10502000002100F0D1FE2046202100F0CDFE2046D8
:10503000002100F0C9FEE9B2204600F0C5FE20467E
:1050400001F0FCF8B0FA80F0400938BD681000208B
:10505000F8B5C34C012605460671204600F05AFFFC
:10506000052007F0CBF8297A204600F0FFFF204604
:10507000002100F0A9FE2046302100F0A5FE2046C8
:10508000402100F0A1FE6021204600F09DFE204658
:1050900001F0D4F8297A204600F0E8FF20460021EC
:1050A00000F092FE2046262100F08EFE20460021D0
:1050B00000F08AFE6C21204600F086FE204601F0BA
:1050C000BDF8297A204600F0D1FF2046002100F0EB
:1050D0007BFE2046282100F077FE3146204600F076
:1050E00073FEF221204600F06FFE204601F0A6F884
:1050F000297A204600F0BAFF2046002100F064FE25
:1051000020462C2100F060FE20460F2100F05CFEBE
:105110002221204600F058FE204601F08FF8297A1F
:10512000204600F0A3FF2046002100F04DFE20465F
:105130003C2100F049FE2046442100F045FE462176
:10514000204600F041FE204601F078F840F2371387
:10515000EB80297A204600F089FF2046002100F0EC
:1051600033FE2046242100F02FFE3146204600F079
:105170002BFE3721204600F027FE204601F05EF886
:10518000297A204600F072FF2046002100F01CFE24
:105190002046302100F018FE2046402100F014FE89
:1051A000FF21204600F010FE204601F047F8297A42
:1051B000204600F05BFF2046002100F005FE20465F
:1051C000022100F001FE2046002100F0FDFD7321C8
:1051D000204600F0F9FD204601F030F84FF4C87089
:1051E00007F00CF8297A204600F040FF2046002105
:1051F00000F0EAFD20462E2100F0E6FD20461D21AC
:1052000000F0E2FD1D21204600F0DEFD204601F009
:1052100015F8297A204600F029FF2046002100F0E9
:10522000D3FD2046042100F0CFFD2046002100F0F0
:10523000CBFD0421204600F0C7FD204600F0FEFF14
:10524000297A204600F012FF2046002100F0BCFD24
:105250002046062100F0B8FD3146204600F0B4FD9E
:105260003021204600F0B0FD204600F0E7FF297A0B
:10527000204600F0FBFE2046002100F0A5FD204660
:105280000A2100F0A1FD2046002100F09DFD102123
:10529000204600F099FD204600F0D0FF297A2046F4
:1052A00000F0E4FE2046002100F08EFD20460E2195
:1052B00000F08AFD2046002100F086FD00212046F6
:1052C00000F082FD204600F0B9FF297A204600F068
:1052D000CDFE2046002100F077FD2046102100F091
:1052E00073FD20463C2100F06FFD3C21204600F07C
:1052F0006BFD204600F0A2FF297A204600F0B6FEA2
:105300002046002100F060FD2046222100F05CFDD7
:1053100020467F2100F058FD7F21204600F054FDFB
:105320003627204600F08AFF297AEF80204600F0D9
:105330009DFE2046002100F047FD2046242100F07C
:1053400043FD2046002100F03FFD3946204600F095
:105350003BFD204600F072FF6E723046F8BD00BF84
:10536000681000200B462DE9F041454905461846D6
:105370000AF0E0FF43490AF0D5FE0BF0C7F90446F6
:1053800000284CD080281FD92B79002426462BBB1F
:10539000297A3D4800F06AFE00213B4800F014FDE8
:1053A0002221394800F010FD3146374800F00CFD4D
:1053B0002146354800F008FD334800F03FFFB0FAC1
:1053C00080F04009BDE8F081C0F180042B7944EA07
:1053D0000424C4F30726E4B2002BD9D0EF88297A3D
:1053E000294827F010074FF00008EF8085F8048067
:1053F00000F03CFE4146244800F0E6FC242122480F
:1054000000F0E2FC390A204800F0DEFC07F0EF0172
:105410001D4800F0D9FC1C4800F010FFB8E701233C
:105420002B71297A184800F021FE2146164800F019
:10543000CBFC2221144800F0C7FC7F21124800F069
:10544000C3FC7F21104800F0BFFC0F4800F0F6FEBF
:10545000EE88297A0C4846F01006B6B2EE8000F0CD
:1054600005FE2146084800F0AFFC2421064800F064
:10547000ABFC310A044800F0A7FCF1B299E700BF89
:1054800000000143EE7CFF3E6810002070B5054629
:105490000C4619B101293BD0002070BD017A424869
:1054A00000F0E4FD2146404800F08EFC20213E48FB
:1054B00000F08AFC21463C4800F086FC55213A4821
:1054C00000F082FC384800F0B9FE06460028E3D11F
:1054D000EC88297A344844F00404A4B2EC8000F04B
:1054E000C5FD3146304800F06FFC24212E4800F005
:1054F0006BFC210A2C4800F067FCE1B22A4800F05E
:1055000063FC294800F09AFEB0FA80F0400970BDB3
:10551000017A254800F0AAFD0021234800F054FC40
:105520002A21214800F050FC21461F4800F04CFC85
:1055300073211D4800F048FC1B4800F07FFE044624
:105540000028A9D1297A184800F090FD2146164874
:1055500000F03AFC2021144800F036FC21461248A5
:1055600000F032FC8821104800F02EFC0E4800F0BC
:1055700065FE044600288FD1EE88297A0A4826F075
:105580000406EE8000F072FD2146074800F01CFC86
:105590002421054800F018FC310A034800F014FCEF
:1055A00006F0FB01AAE700BF6810002010B5044612
:1055B00008F0FAF9204610BD024A034903480BF0EF
:1055C00039BA00BFFCEFFF1FAD550000C00F00202F
:1055D0001B4A1C4B11681C48096970B49942127926
:1055E000027009D2194A127832B3194A4FF0804139
:1055F000116003F5807402E01C46A3F58073154A20
:10560000154912680D68AAB1A5B1144E308840281A
:1056100010D841000A44403029440232023130801F
:1056200033F9040B22F8020F9C4233F9020C21F8E3
:10563000020FF5D870BC704703F58074DFE700BF38
:10564000D00F002090E8FF1F1F800040CA0F0020ED
:1056500008E200E0D80F0020CC0F0020C80F002087
:10566000F8B5064607F0ECFF0446E8B107F0E8FF9E
:10567000054600283AD072B61F4B1A887F2A19D8DF
:10568000002C31D01D490A6842B162B6204608F0AC
:105690002BF82846BDE8F84008F026B818480C60FA
:1056A0001A80056062B6F8BD054672B6124B1A88BC
:1056B0007F2AE5D9114A12491768146000220C6844
:1056C0001A800D6062B63946304608F037F8384621
:1056D00008F00AF830462146012208F02FF820464B
:1056E000BDE8F84008F000B862B6F8BD204607F003
:1056F000FBFF2C46BFE700BFC80F0020D80F0020DB
:10570000CC0F0020F8B5284C284E2046012108F087
:10571000ADF800F083F8264B264A27484FF4806105
:105720001960236800211A6099802279186102F1BA
:10573000804202F5043240F20110D8809E614FF49D
:105740008075022006278E26DD82D960DD83986071
:105750009F8398821170167008F02EF81749184B25
:105760002279184F08701A7039682279164C174D33
:10577000174E41F0124141F00101531139609B0075
:10578000206803F1604302F1100703F5614302F062
:105790001F02012140F0104001FA02F2206045F89A
:1057A00027601A60F8BD00BFD00F002000FEFFFF89
:1057B00014B00440A0F0024090E7FF1FCA0F002081
:1057C0001B80004080F0024000F0024000EAFF1F12
:1057D000D1550000024A034903480BF02BB900BF22
:1057E000FCEFFF1FAD550000D00F0020024A034917
:1057F00003480BF01FB900BFFCEFFF1FAD550000C1
:10580000DC0F0020024A034903480BF013B900BF24
:10581000FCEFFF1FAD550000E40F0020284B294985
:105820001A68294842F400421A600A6842F00202EB
:105830000A601A6842F002021A600368002B3DDB1E
:10584000224B1B68002B39DB214A4FF08643136043
:105850001368002BFCDBF0B51E4C1F48DFF8ACE0F2
:105860001E491F4B1F4A204F204E214D41F2100C64
:10587000C4F800C0002404600120CEF80000DFF866
:1058800090E0C1F800E04FF480311960194B1360CB
:10589000DFF880E0184A3A60346028601748CEF894
:1058A0000000174CB9671748174946F8503C4FF4A9
:1058B000C0632A61236003600B60F0BD704700BFC6
:1058C0003C8004404080044000F0024080F00240F0
:1058D00000F1024004F1024060F0024008F0024092
:1058E0000CF0024010F0024014F00240E0F00240E0
:1058F00084F002401B0F0100000F0F0F0300004750
:1059000008B004400CB0044018B0044004F0024059
:105910000300000788F00240024A034903480BF0E5
:1059200089B800BFFCEFFF1FAD550000EC0F002051
:10593000024A034903480BF07DB800BFFCEFFF1F8C
:10594000AD550000F40F0020024A034903480BF054
:1059500071B800BFFCEFFF1FAD550000FC0F002029
:10596000024A034903480BF065B800BFFCEFFF1F74
:10597000AD55000004100020024A034903480BF013
:1059800059B800BFFCEFFF1FAD5500000C10002000
:1059900010B50021044607F0EBFE98B194F8F630FC
:1059A0008BB194F8F43094F8F5200133342BC8BF50
:1059B0000023934207D09A1D04EB8202DBB25060B1
:1059C00084F8F43010BDBDE8104007F08DBE00BF74
:1059D00090F8F42090F8F530D0B2DBB2984238BF9E
:1059E0003530C01A704700BF38B50546D0F8F00012
:1059F00020B107F079FE0023C5F8F03095F8F540A6
:105A000095F8F430E4B2DBB29C420ED00134352C70
:105A100028BF0024A31D05EB8303586807F064FE2C
:105A200095F8F430DBB29C42F0D1DBB285F8F5306A
:105A300038BD00BF0246D0F8F000B0B992F8F5309A
:105A400092F8F410DBB28B4210D00133342B86BFB6
:105A500001460B46D9B2063302EB83035868C2F8FD
:105A6000F00082F8F510043070470020704700BF46
:105A7000D0F8F03043B110B50446184607F034FEB4
:105A80000023C4F8F03010BD704700BF10B4047F8D
:105A90004160022CC26002D010BC07F09FBF836837
:105AA00010BC1847F0B4464B464A186BDC6A0179C3
:105AB0001170454922790A709A6A00790870002AA3
:105AC00046D05968C9688A423ED82168CC8B2404E4
:105AD00002F1FF3065D4C0F30E00C883C88B80B2DA
