:1000000000800020BD01000011B10000C9B0000057
:10001000C9B00000C9B00000C9B00000C9B00000FC
:10002000C9B00000C9B00000C9B0000011B10000A3
:1000300011B10000C9B000007DCC0000CDCE0000A1
:1000400011B1000011B1000011B1000011B10000A8
:1000500011B1000011B1000011B1000011B1000098
:1000600011B1000011B1000011B1000011B1000088
:1000700011B1000011B1000011B1000011B1000078
:1000800011B1000011B1000011B1000011B1000068
:1000900011B1000011B1000011B1000011B1000058
:1000A0000550000011B1000011B1000011B10000B5
:1000B00011B1000011B1000011B1000011B1000038
:1000C00011B1000011B1000011B1000011B1000028
:1000D00011B1000011B1000011B1000011B1000018
:1000E00011B1000011B1000011B1000011B1000008
:1000F00011B100009DD5000011B10000C9D600006B
:1001000011B10000F5D7000011B1000011B10000DD
:1001100011B1000011B1000011B1000011B10000D7
:1001200011B1000011B1000011B1000011B10000C7
:1001300011B1000011B1000011B1000011B10000B7
:1001400011B1000011B1000011B1000011B10000A7
:1001500011B1000011B1000011B1000011B1000097
:1001600011B1000075B8000011B1000011B100001C
:1001700011B1000011B1000011B1000011B1000077
:1001800011B1000011B1000011B1000011B1000067
:1001900011B1000011B1000011B1000011B1000057
:1001A00011B1000011B1000011B1000011B1000047
:1001B00011B1000011B1000009CA0000564B4CF209
:1001C000205210B51A804DF628121A8000BF00BFC9
:1001D00000F07EFB514B4FF010621A60504A9A605B
:1001E000504ADA60504A136813F4807304D14F49BF
:1001F0000B604FF4A85313604D4B1A78110703D5C9
:100200001A7842F008021A704A4B4B492A221A7097
:100210004A4A4B4B8B4204D252F8040F43F8040B6A
:10022000F8E7484B484900228B4202D243F8042B9E
:10023000FAE74649464A002352F8230041F82300D2
:1002400001336F2BF8D1434B434A802103F8011B44
:100250009342FBD1414B3D4A1A60414B8A221A70AE
:10026000A3F5805324225A70A0221A709A7992071B
:10027000FCD59A79D406FCD43A4A937903F00C035E
:10028000082B384BF9D105221A7143225A719A79F9
:100290009006FCD5334A9179324B4906FBD5324A58
:1002A0004FF0817111600521516020221A709A79F6
:1002B00002F00C020C2AFAD12C4B2D4A1A602D4B5D
:1002C0002D4A1A6000225A60072243F8042C2B4A58
:1002D000C3F80C2D62B60BF03DF8144B1B68DA071F
:1002E00005D527480BF024F8264B274A1A60274BE0
:1002F0001B785B0609D5234C234B22689A4204D114
:100300001F480BF015F8002323600EF03FFE0AF0A3
:1003100003FF0DF0A1F8FEE70E20054030800440F9
:10032000823F04000100002B10D0034014D0034092
:1003300002D0074000E00740E809002048730100B0
:1003400020F9FF1FE8090020FC56002000F4FF1FE1
:100350000000000000E400E05FE400E008ED00E0E1
:1003600000500640004006404480044004800440A1
:10037000C010050014E000E03F190100000020203B
:10038000A4EEC55B1CE00340A5C3945A00F00740EF
:10039000FFFFFFFFFFFFFFFFFFFFFFFFFFFFFFFF6D
:1003A000FFFFFFFFFFFFFFFFFFFFFFFFFFFFFFFF5D
:1003B000FFFFFFFFFFFFFFFFFFFFFFFFFFFFFFFF4D
:1003C000FFFFFFFFFFFFFFFFFFFFFFFFFFFFFFFF3D
:1003D000FFFFFFFFFFFFFFFFFFFFFFFFFFFFFFFF2D
:1003E000FFFFFFFFFFFFFFFFFFFFFFFFFFFFFFFF1D
:1003F000FFFFFFFFFFFFFFFFFFFFFFFFFFFFFFFF0D
:10040000FFFFFFFFFFFFFFFFFFFFFFFFDEF9FFFF23
:1004100010B5054C237833B9044B13B10448AFF33E
:1004200000800123237010BDE809002000000000B7
:1004300044730100084B10B51BB108490848AFF3DD
:1004400000800848036803B910BD074B002BFBD0A0
:10045000BDE81040184700BF00000000EC09002074
:1004600044730100E80900200000000000207047EC
:10047000704700BF027C02F0080202F0FF0332B1B5
:10048000C36A406A181A48BF6FF0004070471846A8
:10049000704700BFF8B55548554D564C297803783C
:1004A0002278DFF868E1544F544E120442EA0323E5
:1004B000FF222A700270802022708EF800003870AF
:1004C000B2794F480B4312F00C0FC36002D1B379DD
:1004D000DC063DD4494A9379C3F38103032B40D012
:1004E000464B9A79C2F38102022A42D0434A937959
:1004F000C3F38103022B53D0404A9379C3F38103A2
:10050000022B61D03D4A9379C3F38103012B51D073
:100510003A4A9379C3F38103012B5CD0374B9A7924
:1005200012F00C0F03D19A79D20600D49B79354D85
:10053000354B2A7853F82240D4B1236820469B6873
:1005400098472B7804EB83046468002CF5D1F8BD40
:10055000B3799806EBD5294A9379C3F38103032B2A
:10056000BED19379D906BBD493799B06DFD4B7E784
:10057000F8BD9A79D706B9D49A799606B6D559783E
:1005800001F0020101F0FF020029AFD120211A7011
:100590001A461970937903F00C030C2BFAD1C6E7B5
:1005A0009379DD06A8D493799C06A5D4537898074F
:1005B000BDD5A1E79379DF06AAD593799E06A7D486
:1005C00053789D07B3D4A3E79379D9069AD4537887
:1005D0009B07ACD496E79379DC069FD59379980670
:1005E0009CD453789907A2D598E700BF06C007406E
:1005F00005C0074007C0074009C00740004006404B
:10060000D4560020AC5300206C53002008C0074093
:1006100090F92410104B03604B1C06D0F0B40F4E21
:1006200056F82130984201D0F0BC70470C4F57F873
:10063000213033B18D0000245A1953685460002BC7
:10064000FAD1084C23780022013B237047F821207F
:1006500046F82120E8E700BF0C6201008C5300201F
:100660006C530020AD53002038B590F924506B1C1A
:100670001BD00E4B0E4953F825400E4BEDB24FF0F8
:10068000FF320D701A6084B1AD0002E02C44646842
:100690005CB194F82530002BF8D0236820462C4418
:1006A0001B6898476468002CF3D138BD6C53002058
:1006B000AC530020B8F3FF1F704700BF90F924101F
:1006C000104B03604B1C06D0F0B40F4E56F821308F
:1006D000984201D0F0BC70470C4F57F8213033B12D
:1006E0008D0000245A1953685460002BFAD1084C2D
:1006F00023780022013B237047F8212046F821206F
:10070000E8E700BF0C6201008C5300206C5300200E
:10071000AD53002090F92410104B03604B1C06D001
:10072000F0B40F4E56F82130984201D0F0BC70471B
:100730000C4F57F8213033B18D0000245A195368FB
:100740005460002BFAD1084C23780022013B23701F
:1007500047F8212046F82120E8E700BF0C6201009D
:100760008C5300206C530020AD53002010B50021A5
:1007700004460CF00DF9B0B1B4F8B4319BB2C3B17A
:10078000B4F8B031B4F8B2219BB20133632BC8BFC7
:10079000002392B2934207D09A1D04EB82029BB2CF
:1007A0005060A4F8B03110BDD4F8B8310133C4F8AA
:1007B000B831BDE810400CF0A7B800BF103005F00C
:1007C00011BC00BF00B583B002AB012203F8011DCC
:1007D0001030194605F006FC03B05DF804FB00BFBD
:1007E000103005F0DBBA00BF00B583B001220DF177
:1007F0000701103005F00CFA01280CBF9DF8070026
:100800004FF0FF3003B05DF804FB00BF103005F07F
:100810009BBB00BF2DE9F0410E4680460AF082FDE9
:10082000174D286007F04AFF0746286807F022FFA7
:100830000446286807F00CFF6401C0B204F4FF54BA
:10084000BFB20443A7F2BC7744EA4724A8F80040AB
:10085000286807F021FF0746286807F0D5FE044600
:10086000286807F0E3FEFF02640107F4FF2704F4A1
:10087000FF54C0F346003C4304433480BDE8F0819C
:10088000EC4E002038B5054C014620460CF03AFBF2
:10089000054620460CF0B0FB284438BD8CFFFF1FF6
:1008A00010B504460FF02CFA21460246BDE8104070
:1008B00001480CF013BB00BFB851002010B504462E
:1008C0000FF01EFA01462046BDE810400BF044BE72
:1008D000464A474B102010801B781B0734D5F0B5D3
:1008E000444E454D454C31782B782278DFF82CE189
:1008F000434F824042EA03230B43FF2280213270A0
:100900002A7022708EF800103970D9073D4A14D52C
:100910001A2393603C4F3D4E3D4D3E4C3E4910796D
:1009200000233B7053709370D370D3603370137196
:100930002B70237013700870F0BD1F0705D4DE06FE
:1009400006D504239360E5E7704721239360E1E730
:100950009D0604D45C0604D516239360DAE7906004
:10096000D8E7180602D509239360D3E7D90502D545
:100970000A239360CEE79F0502D50D239360C9E754
:100980005E0502D50B239360C4E71D0502D51E2327
:100990009360BFE7DC0402D502239360BAE79804B2
:1009A00002D507239360B5E7590402D50623936067
:1009B000B0E71F0402D515239360ABE7DE0302D531
:1009C00024239360A6E79D0302D522239360A1E729
:1009D000DC0202D5252393609CE71803F5D4590364
:1009E000F3D49B0244BF2323936093E70020054088
:1009F00002D0074005C0074006C0074007C00740B7
:100A000009C00740D456002000C0074001C007407D
:100A100002C0074003C0074004C0074008C00740A9
:100A2000002976D02DE9F04F0C469100631883B071
:100A30005D68002D57D06B185E68002E50D073187B
:100A40005F68002F49D07B18D3F80480B8F1000FFD
:100A50003CD008EB0103D3F80490B9F1000F32D079
:100A600009EB0103D3F804A0BAF1000F27D00AEB79
:100A70000103D3F804B0BBF1000F18D00BEB010356
:100A80005B6863B1194401934968FFF7C9FF019B93
:100A900093F825201AB11A681846536898479BF8AE
:100AA000253023B1DBF8003058465B6898479AF848
:100AB000253023B1DAF8003050465B68984799F842
:100AC0002530002B35D198F8253063BB97F82530B9
:100AD0001BB13B6838465B68984796F82530CBB920
:100AE00095F8253063B994F8253013B903B0BDE803
:100AF000F08F23685B68204603B0BDE8F04F1847CD
:100B00002B6828465B68984794F82530002BEDD079
:100B1000EFE77047336830465B68984795F82530B3
:100B2000002BE0D0ECE7D8F8003040465B689847EF
:100B3000CCE7D9F8003048465B689847C3E700BF68
:100B400090F92420531C26D01B4B2DE9F04153F87B
:100B50002240D2B2ECB19300E1184D68B5B1E9186A
:100B60004E6866B1F1184F6837B13B445968FFF7DA
:100B700057FF97F82530A3B996F8253063B995F853
:100B800025301BB12B6828465B68984794F82530C0
:100B900063B9BDE8F0817047336830465B689847B9
:100BA000EDE73B6838465B689847E5E723682046F1
:100BB0005B68BDE8F04118476C5300202DE9F8430D
:100BC0004F4CB4F8B021B4F8B23192B29BB29A4211
:100BD00038BF6432D31A3F2B67DD4A4DD4F8AC914D
:100BE000DFF81C8105F58047002637E04FF480725E
:100BF000002109F0AFFE48460BF086FEC4F8AC6158
:100C0000B4F8B231B4F8B0219BB292B293424ED054
:100C10000133632B86BF4FF0000E73461FFA83FE2D
:100C2000063304EB83034FF48072D3F80490C4F8C6
:100C3000AC9109F104012846A4F8B2E109F08AFE5A
:100C4000B9F1000F04D048460BF05EFEC8F8AC6165
:100C500005F50075BD424FF0000934D0A5F5807050
:100C6000B9F1000FC2D1B4F8B231B4F8B0219BB2DF
:100C700092B293423DD00133632B86BFCE4673467A
:100C80001FFA83FE063304EB83034FF48072D3F81C
:100C90000490C4F8AC9109F10401A4F8B2E109F0A0
:100CA00059FEB9F1000FABD0A5E7BDE8F88328469F
:100CB0004FF48072002105F5007509F04BFEBD422E
:100CC0004FF00009CAD14FF480420F490F4805F098
:100CD00089F9013005D00E4A136820331360BDE84E
:100CE000F883012114200AF089F90A4B0A4A1A6094
:100CF000F1E749464FF4807209F02CFE80E700BF0F
:100D0000004F0020700B0020700A0020480A0020CD
:100D1000FC4E00200CED00E00400FA0570B5124C0A
:100D2000124D13480D210BF017FC20460CF064F90E
:100D30002E88104810210BF00FFC314620460CF095
:100D4000E1F820460CF058F90B4A0C4B12882A8027
:100D50000B480022A3F8B42104F002FD6420BDE892
:100D600070400AF05DBC00BF8CFFFF1FC454002020
:100D70003062010040620100EC540020004F00206E
:100D8000480A00202DE9F04F95B00AF0CBFADFF8C1
:100D90006892884CC9F8000007F06CFC2368984200
:100DA00000F067820A218448844E854F0BF0D4FB03
:100DB00084480CF021F9D9F8000007F05BFC2060B2
:100DC000D9F8000007F07AFC23687F4902467F4883
:100DD0000EF040FF002401237C4A7D49376007A8BC
:100DE0008DF81C408DF81D4004F0D6FDDFF8DC8145
:100DF000002110200AF0D8FB98F8002000232F2AA9
:100E00008DF81C308DF81D3000F0B68107AC2046FF
:100E100001236E4A6E4904F05BFE58B19DF81C3008
:100E200013F0700F06D00FCC694D0FC50FCC0FC556
:100E300023682B60D9F8000007F040FC0446D9F87D
:100E4000000007F017FC8246D9F8000007F000FC0C
:100E50000590D9F8000007F01FFC8346D9F8000080
:100E600007F0D2FB0490D9F8000007F0DFFB059AE9
:100E7000049B0092039002932246CDF804B053469F
:100E8000544955480EF0E6FE00250824376010202E
:100E900009F098FF0DF05AFC4FF06A510DF0AAFCD2
:100EA000014628460DF09EFB013C0546EFD148481F
:100EB000DFF8489104F054FC484901F23C4004F04A
:100EC00087FE4FF47A7646230BA8454A40498DF8B1
:100ED0002C408DF82D408DF820408DF82840099643
:100EE000CDF81C9004F0F4FD9DF82C30002B40F060
:100EF00051810E213B480BF02FFB012114200AF0F9
:100F00007DF8394B394A1A6098F800202F490023A0
:100F10002F2A8DF81C308DF81D3000F0208107A895
:100F200001232A4A2A4904F0D3FD60B19DF81C3000
:100F300013F0700F07D007AC0FCC254D0FC50FCCA9
:100F40000FC523682B604FF47A7500240995C223DE
:100F5000214A1F498DF82C400BA80BAD8DF82D4070
:100F60008DF820408DF82840CDF81C9004F0B0FD9D
:100F70000FCD1F4E9DF82040347106F110040FC4B0
:100F80000FCD0FC4099A9DF828302968B2603373D9
:100F9000114821600EF0B4FE01460F48154FDFF8EE
:100FA00048B0DFF848A00BF0D7FA06480CF024F858
:100FB0006CE000BF285200205462010068530020FA
:100FC000150800008CFFFF1F60620100C050002068
:100FD000B04E00206C62010090510020744A002045
:100FE0008C620100CC6201000CED00E00400FA0507
:100FF000380A0020BC500020EC4E0020E8610100BF
:1010000004F066FD60B19DF81C30AA4D13F0700F1E
:1010100007AC05D00FCC0FC50FCC0FC523682B60D4
:101020004FF47A750024C223A34AA24909950BA85C
:101030000BAD8DF82C408DF82D408DF820408DF8AB
:101040002840CDF81C9004F043FD0FCD9B4C9DF83B
:1010500020E086F804E00FC40FCD0FC49DF82830BF
:10106000099A33732968B260934821600EF048FEF4
:10107000014691480BF070FA91480BF0BDFF0A2031
:101080000AF0CEFA3B68B3F57A7F61DC347C8D4997
:101090008948F4B93B6801331A463B600EF0DAFD2B
:1010A00098F80050884A83498DF81C402F2D4FF046
:1010B000010307A88DF81D40A2D15478002C9FD1C0
:1010C000084604F04DFB814901F23C4004F080FDEC
:1010D000A6E77F487F4907687F4C804A804B814D57
:1010E00003C9206092E80300A06093E80300102683
:1010F0000123A382E382E060266138460DF066FD9D
:101100003946A06138460DF06DFA0DF05FFD764A64
:10111000E0612B68668492E803005B0203F1240619
:101120002C226062214602276448A36227846660FD
:1011300004F058FF09216D480BF00EFA2968604849
:101140000BF0E0FE5E480BF057FF15B0BDE8F08FE6
:101150000121142009F052FFCBF800A096E74B784C
:10116000002B7FF4DCAE534804F0FAFA574901F241
:101170003C4004F02DFDE6E698F80130002B7FF4AA
:1011800045AE4C4804F0ECFA504901F23C4004F002
:101190001FFD4FE64848564E0EF0B2FD4649024646
:1011A0000BA804F01FFF14A92C2301F8383D0122DD
:1011B0000DEB030004F016FF06F1080707AC16F864
:1011C000011F00230A2220460BF066FFBE42F6D123
:1011D000284648490DF00EFB4FF078510DF00AFB00
:1011E00014A92C260546012201F8356D0DEB0600E9
:1011F00004F0F8FE404B18680CF052FE02270B4634
:101200000246009720460BF0A3FF14A9012201F823
:10121000366D0DEB060004F0E5FE28460CF040FEAE
:1012200000970B46024620460BF092FF14A90122BC
:1012300001F8376D0DEB060004F0D4FE2F480EF0D8
:101240005FFD2E4902460DEB060004F0CBFE204662
:101250000BF0D2FE28462A490DF06AFC60B92846F8
:1012600028490DF065FC002858D10BA804F078FA45
:101270004AE6254E254FB9E5254E3368002BEED0C2
:10128000012105200AF05EF940F6B8300AF0C8F9ED
:10129000002105200AF056F91E4A1F490023137049
:1012A0000BA80B22336004F09DFE20460BF0A4FE39
:1012B000D5E700BFB04E002090510020480A002022
:1012C0008CFFFF1FDC620100C0500020744A002028
:1012D00004520020E862010078520020F062010010
:1012E000F8620100F0510020006301000863010072
:1012F00043510020CDCCBC405451002008FAFF1FC0
:101300006666464000004040685300201508000013
:1013100050510020F94E0020946201002822174904
:101320000BA804F05FFE20460BF066FE0BA804F04D
:1013300017FA00250824102009F044FD0DF006FAE4
:101340004FF06A510DF056FA014628460DF04AF961
:10135000013C0546EFD10A490DF04CFA4FF07851A7
:101360000DF048FA07490DF0E3FB00283FF47DAF8C
:1013700047F230500AF054F9DBE700BFA0620100E9
:10138000CDCCBC400000404038B50E211C481D4D5E
:101390000BF0E2F81C480BF02FFEFFF7F3FC1B4BA1
:1013A000D5F8AC0100241C6018B10BF0ADFAC5F8FB
:1013B000AC41B5F8B241B5F8B031A4B29BB2A3428A
:1013C0000ED00134642C28BF0024A31D05EB830339
:1013D00058680BF099FAB5F8B0319BB2A342F0D13E
:1013E0000123A4B20B210A48A5F8B241A5F8B431F3
:1013F0000BF0B2F80448BDE838400BF0FDBD00BF6B
:1014000014630100004F00208CFFFF1FFC4E0020E2
:101410002463010070B517488EB004F0A1F9164995
:101420000EAD01F23C4004F0D3FB144B45F8343DC3
:1014300000244623124A0F498DF8144005A84FF4A2
:101440007A768DF815408DF808408DF81040039697
:1014500004F03EFB9DF8143053B12922094905A838
:1014600004F0C0FD28460BF0C7FD05A804F078F98C
:101470000EB070BDB04E0020744A0020E86101003B
:101480008C62010030630100F8B5394D394C2A688F
:1014900054F8223013B1013B44F822301021364871
:1014A000334F0BF059F82B68344854F823100A22B4
:1014B00000230BF0F1FD31480BF09EFD2B6854F832
:1014C0002320DAB901332E4A3B600126042B167023
:1014D00022D02C4C2C4A04F58C6712F82320384675
:1014E00004F26C414FF0384305F0DEFFE0B92748C5
:1014F000FFF7E4F928680130FFF7C4F90E2124480A
:101500000BF02AF829681D4801310BF0FBFC1B4841
:10151000BDE8F8400BF070BD0E211E480BF01CF822
:1015200016480BF069FDFEE704F23C40276004F02A
:1015300017F93146204605F0BBFE014690B1114C2B
:1015400004F23C463046214604F042FB0028CED04F
:1015500094F83C3413F0700FC9D00F4B1E60FFF7A6
:1015600059FFCBE7204605F0A3FE0028E7D1BEE7F0
:10157000645200200C5200205C6301008CFFFF1FAE
:10158000FC510020744A0020585100209063010053
:1015900080630100706301006453002008B50121DD
:1015A000052009F0CFFF4FF4FA600AF039F8002166
:1015B000052009F0C7FF024B01221A7008BD00BFC9
:1015C000F94E002008B50121052009F0BBFFC82015
:1015D0000AF026F80021052009F0B4FF64200AF083
:1015E0001FF8024B01221A7008BD00BFF94E0020FF
:1015F00008B50121052009F0A5FF40F6B8300AF032
:101600000FF80021052009F09DFF024B00221A70FF
:1016100008BD00BFF94E00202DE9F0438FB004460D
:101620000EF06EFB00B201281CDDB4F9003044F26C
:101630005372934200F0878118DD44F6545293426E
:1016400000F0D58045F2532293422AD044F652123C
:10165000934207D10BAAE01CC3490EF021FBC34BF8
:101660000B9A1A6001200FB0BDE8F08344F24E429D
:1016700093420FD044F252429342F3D10BAAE01CA2
:10168000B9490EF00DFBBA4B0B9A1A6001200FB04E
:10169000BDE8F083B74B012201201A600FB0BDE80E
:1016A000F0830AAD09A908AA05ABE01C03950291D5
:1016B0000192009307AA06ABAF490EF0F1FAAF4BC7
:1016C000079D596818689A680A9EDDF824E0DDF8DD
:1016D00020C0A5F5FA65ADB20BAF2CB207C7069FC7
:1016E00005991E3415F0030F4FEAA408FDB240F02F
:1016F0003981A34B022D8CBF1F460027A148A24B66
:10170000C8EB040400FB08F06A1E03FB0400002A77
:1017100000EB070347DD9DF82C409948012A00FBA8
:10172000043340D09DF82D40022A00FB04333AD008
:101730009DF82E40032A00FB043334D09DF82F403F
:10174000042A00FB04332ED09DF83040052A00FB0C
:10175000043328D09DF83140062A00FB043322D000
:101760009DF83240072A00FB04331CD09DF833401B
:10177000082A00FB043316D09DF83440092A00FBE8
:10178000043310D09DF835400A2A00FB04330AD0F8
:101790000B2A9DF8364018BF9DF8372000FB043314
:1017A00018BF00FB02335FFA8EF2C2EB02125FFA3F
:1017B0008CF04FF46164920004FB0022704D734C76
:1017C0007348C9B2013952FA86F205FB012213446B
:1017D000122123600AF0C0FE21686E480BF092FBD4
:1017E0006C480BF009FC01200FB0BDE8F0830AAD96
:1017F00009A908AA05ABE01C039502910192009388
:1018000007AA06AB5C490EF04BFA5C4B079F9A683F
:10181000186859680A9EDDF824E0DDF820C0A7F5B5
:10182000FA67BFB20BAC3DB207C4069A059C1E35E1
:1018300017F0030F4FEAA508D7B240F09080504B45
:10184000022F8CBF99464FF000094E494E4BC8EB12
:10185000050501FB08F17A1E03FB0510002A00EBC9
:10186000090347DD9DF82C004549012A01FB00339F
:1018700040D09DF82D00022A01FB00333AD09DF89C
:101880002E00032A01FB003334D09DF82F00042AD8
:1018900001FB00332ED09DF83000052A01FB0033F8
:1018A00028D09DF83100062A01FB003322D09DF894
:1018B0003200072A01FB00331CD09DF83300082AB0
:1018C00001FB003316D09DF83400092A01FB0033D8
:1018D00010D09DF835000A2A01FB00330AD00B2AEC
:1018E0009DF8360018BF9DF8372001FB003318BF64
:1018F00001FB02335FFA8EF2C2EB02125FFA8CF048
:101900004FF46165920005FB0022E1B21C4C1F4DB3
:1019100052FA86F2013904FB01241C4420462C6053
:1019200009F006FD0B211C480AF016FE2146002393
:101930000A2218480BF0B0FB16480BF05DFB0120A3
:101940000FB0BDE8F0830BAAE01C07490EF0A8F920
:10195000124B0B9A1A6001200FB0BDE8F0834FF0D4
:10196000000972E70027C9E6D063010048FAFF1FAB
:101970003CFAFF1F6C0A0020B063010018620100EE
:10198000805101000085E2018033E101F44E002026
:10199000D46301008CFFFF1FC463010000FAFF1F26
:1019A0002DE9F043A3B000254FF47A76764F7748BF
:1019B0000A968DF830508DF831508DF824508DF8FE
:1019C0002C50089703F0CCFE714901F23C4004F022
:1019D000FFF801236F4A6D49179619A88DF86450D6
:1019E0008DF865508DF858508DF86050159704F0BB
:1019F0006FF80DF1640EBEE80F000CAE0FC6BEE826
:101A00000F000FC69DF83080DEF800109DF85800DA
:101A1000179A9DF8603031608DF824000A928DF895
:101A20002C30B8F1000F46D02E468DF800604FF0F4
:101A300000094FF0FF08012215A90CA804F0E8F8EE
:101A400009F1010322AA01284A441BB224D01D2B0C
:101A500002F8888C05DC9946EDE71D2B01DC0A2A8B
:101A6000F9D1013B9BB222AA1A4402F8886C9DF876
:101A700000202F2A04D0012B02D96846FFF7CCFDA5
:101A80009DF830301B0711D40CA803F069FE2DBB64
:101A9000012023B0BDE8F0839DF854200D2A08BF33
:101AA0004B4662D11D2BDCDC9946C4E7139A119B8F
:101AB0009A42BAD1E8E7142137480AF04DFD374879
:101AC0000BF09AFA0D22364936480BF007FA3548E2
:101AD0000BF092FA404623B0BDE8F0830B21324868
:101AE0000AF03AFD00230A2221462C480BF0D4FAD2
:101AF0002A480BF081FA254803F032FE24490025DC
:101B000001F23C4004F064F84FF47A768DF86450AA
:101B10008DF865508DF858508DF8605063231D4A3C
:101B20001A49179619A819AD159703F0D1FF0FCDD3
:101B30000CAE0FC60FCD0FC62968179A9DF86030FE
:101B40009DF8585031600CA821460A928DF82C302F
:101B50008DF8245004F056F9022214490CA804F020
:101B600041FA0CA803F0FCFD92E722AB03EB09015C
:101B7000542A09F1010301F8882C1BB27FF46DAFE0
:101B8000119C0546013C8DE7E8610100B04E002044
:101B9000744A0020E8630100046401008CFFFF1F09
:101BA0001C640100B8510020F463010000640100CE
:101BB00030B583B002AD079C05F8082D8DF8020002
:101BC000069A8DF804304E3428468DF801108DF8B1
:101BD00005208DF8064006F085FD09F0A9FB09F007
:101BE000A1FB024B186003B030BD00BF704A00205B
:101BF0002DE9F041044604200D46164609F0C6FCC6
:101C00008046032009F0C2FC0746B8F1000F2AD134
:101C1000DFF89C80244AD8F800300121132B117082
:101C200039DD0133642BC8F800303ADDC82BD4BF4E
:101C300005343C3467B91D4F1B4A3B680121132B07
:101C4000117022DD3C2C16DC01233B60013C02E0DC
:101C5000164B00221A60AC4209DBB442C8BF2C46C6
:101C60002046BDE8F081124B00221A60E2E73446BC
:101C70002046BDE8F0813B680133642B3B60E5DD25
:101C8000C82BD4BF053C3C3CE5E7C82009F0C8FCA4
:101C90003C2CD9DDEFE7C82009F0C2FCD8F80030B1
:101CA000BFE70134C6E700BFF04E002020520020FD
:101CB0000052002010B5094C204608F069FA204671
:101CC000012107F08BFC2046022107F081FC002255
:101CD00020461146BDE8104007F076BCB851002000
:101CE0002DE9F04782B009F01DFBB44BB44E1860EB
:101CF0000121B448B44FB54CDFF84083B44D07F030
:101D000067FC0121AF4807F069FC12220021AD48B1
:101D100007F05AFC0422AF49AA480BF0DFF83168FB
:101D2000A8480BF0EFF80222AB49A6480BF0D6F812
:101D3000A4480BF061F90622A849A2480BF0CEF89E
:101D40003968A0480BF0DEF80322A5499D480BF046
:101D5000C5F80322A3499B480BF0C0F80A2221785A
:101D6000984800230BF098F996480BF045F9D8F8FD
:101D7000003055F823000CF0E9FC9B490CF0EEFD17
:101D80000CF08EF802460B468E4898490BF076F917
:101D900001218C4807F01CFCD8F80030366855F853
:101DA0002330700003FB00F000F500402C300CF0F5
:101DB000C9FC8D490CF0D2FD8B490CF0CFFD8C4B4A
:101DC0001B68012B814600F0D3804FF07E583046CF
:101DD0000CF0BCFC41460CF00DFD80463868DFF885
:101DE00060A2844D30440CF0B1FC014640460CF03A
:101DF000B5FD074620780CF0A9FC7F4B19680CF064
:101E0000F9FC7E4B044618680CF0A0FC7C4B19686A
:101E10000CF0F0FC7B4B19680CF0E4FB39460CF03D
:101E2000E9FC394680464FF07E500CF0D9FB764BEA
:101E300019680CF0DFFC014640460CF0D3FB01466C
:101E400020460CF08BFD71490CF0D4FC0CF0BEFE6A
:101E5000DAF80040002380462B606B60AB60EB60DB
:101E600074B120460CF06EFC49460CF077FD0CF086
:101E700017F80BF029FE0CF03FFB286000FB06F47E
:101E8000DAF8040068B10CF05DFC49460CF066FD20
:101E90000CF006F80BF018FE0CF02EFB686000FB4F
:101EA00006F0DAF80830044473B118460CF04AFC26
:101EB00049460CF053FD0BF0F3FF0BF005FE0CF060
:101EC0001BFBA86000FB06F3DAF80C001C4468B1A9
:101ED0000CF038FC49460CF041FD0BF0E1FF0BF033
:101EE000F3FD0CF009FBE86006FB00F020440CF069
:101EF00029FC39460CF032FD044640460CF022FC29
:101F0000014620460CF032FEF0B901462E222D4843
:101F100007F05AFB0D223E492A480AF0DFFF20460F
:101F20003C490CF01BFD0BF0BBFF022402460B46A4
:101F3000009424480BF00CF937492248012202B0E2
:101F4000BDE8F0470AF0CABF2E2200211D4807F065
:101F50003BFB0E2231491B480AF0C0FF30491948AB
:101F6000A1FB0831090C00230A220BF095F8E3E7E6
:101F70002C4A2D4B10781B78834286BFC3F118037F
:101F8000C018C01A0CF0E2FB284A294B80461B7887
:101F90001078834286BFC3F13C03C018C01A0CF00E
:101FA000D5FB2449054640460CF024FC29460CF09C
:101FB00019FB21490CF0D2FC804608E7EC4E0020CA
:101FC0003CFAFF1FB851002048FAFF1F38FAFF1FE4
:101FD00014FAFF1F2C64010034640100386401000E
:101FE000406401004464010000007A444864010038
:101FF000F45100200C52002044FAFF1F50510020E1
:102000004CFAFF1F50FAFF1F40FAFF1F0000614506
:102010006464010000C0A847C0630100546401006B
:1020200007452EC28C510020340A0020F84E0020B3
:1020300060520020000070420000B44430FAFF1FDC
:102040006852002038B5054606F038FB1E4C0146A4
:1020500020460AF057FF2D200AF052FB284606F0D2
:1020600009FB014620460AF04DFF2D200AF048FBEF
:10207000284606F0EDFA014620460AF043FF01210A
:1020800012480AF069FA284606F006FB0146204687
:102090000AF038FF3A200AF033FB284606F0B4FA7B
:1020A000014620460AF02EFF3A200AF029FB284676
:1020B00006F0BCFA014620460AF024FF2046BDE89F
:1020C00038400AF099BF00BF8CFFFF1F7C650100FC
:1020D0002DE9F043434A444BDFF81891DFF81881AB
:1020E000424D98F80010167899F800701A78286810
:1020F00083B03C2313FB071713FB062606F0CCFA2C
:102100000446286806F080FAC4EB041400EB84044B
:10211000286806F0D3FA00F14E0328688DF80630DF
:1021200006F0A8FA8DF80500286806F091FAB74283
:102130008DF8040006D2A74232D8A64230D303B0AD
:10214000BDE8F083A742FAD9A642F8D202A800233C
:1021500099F8002000F8083D98F800308DF801301B
:102160008DF8022006F0BEFA0F21286020480AF000
:10217000F3F92868FFF766FF09F0D4F82B6883426B
:1021800004DA03F5A83303F5C0732B600F21184858
:102190000AF0E2F92868FFF755FF03B0BDE8F083C5
:1021A00002A8002399F8002000F8083D98F80030B4
:1021B0008DF801308DF8022006F094FA0F21286086
:1021C0000B480A4C0AF0C8F92868FFF73BFF09F0F2
:1021D000A9F82B688342D9DA03F5A83303F5C07355
:1021E0002360D3E78C510020F84E0020F44E0020ED
:1021F00074640100340A00206052002010B50020F1
:1022000008F0A6FE244C2070012008F0A1FE6070AA
:10221000022008F09DFEA070032008F099FE1F4BDD
:10222000E07022681A60042008F092FE20700520F9
:1022300008F08EFE6070062008F08AFEA07007206D
:1022400008F086FE164BE07022681A60082008F03D
:102250007FFE144B1870092008F07AFE124B18709C
:102260000A2008F075FE114B18700B2008F070FE64
:102270000F4B18700C2008F06BFE0E4B18600D20F1
:1022800008F066FE0C4B18600E2008F061FE08B1E5
:102290000A4B187010BD00BF1C5200203CFAFF1FF3
:1022A00048FAFF1F340A0020605200208C510020A1
:1022B000F84E0020F451002030FAFF1F38FAFF1FBB
:1022C000264B10B51968264C00202160C9B208F0D1
:1022D00095FE6178012008F091FEA178022008F0B7
:1022E0008DFEE178032008F089FE1E4B19682160FD
:1022F0000420C9B208F082FE6178052008F07EFE55
:10230000A178062008F07AFEE178072008F076FE32
:10231000154B0820197808F071FE144B0920197824
:1023200008F06CFE124B0A20197808F067FE114B7A
:102330000B20197808F062FE0F4B0C20197808F07A
:102340005DFE0E4B0D20197808F058FE0C4B0E2048
:102350001978BDE8104008F051BE00BF3CFAFF1FDD
:102360001C52002048FAFF1F340A0020605200204F
:102370008C510020F84E0020F451002030FAFF1F4D
:1023800038FAFF1F2DE9F04F8DB010290791069004
:1023900000F0BF80202900F0B0800024631C1846A4
:1023A0001D4608930CF0CEF9E4B244F0E0630990C6
:1023B000002128460A9344F08E430B930CF0DCF97D
:1023C00001465A480CF0CAFA054607980CF0BAF9CB
:1023D00001460CF007F9044606980CF0B3F90146E3
:1023E00020460CF007FA014628460CF0B7FA4FF0E9
:1023F00001084FF07E550746C1464FF0010A4FF0E5
:10240000000B50460CF0A2F939460CF0F3F90446E3
:102410000CF0B6FB0CF09AF9014620460CF0E0F8FF
:10242000294606460CF084FB4FF0874148B1204610
:102430000CF07EFB28B120460CF0E8FB35468046C8
:10244000D1461AF1010A4BF1000BBBF1000F08BF96
:10245000BAF1400FD5D109F1FF34089B079E0593CF
:1024600020460296CDF81080CDF80C900CF06AF959
:102470004FF07E510CF0B6F82D490CF0BBF9054633
:1024800040460CF05FF9014628460CF067FA4FF021
:102490007C510CF0AFF909990CF060FA0546700018
:1024A0000CF054F9014628460CF058FA0CF068FB81
:1024B000204B069A019000921F492048204E214D42
:1024C0001A460AF0DBFD204920480F68220308F174
:1024D000FF3302F47F22C3F30B03134327F01042B0
:1024E0000A6033600A9B2B600B9B03600B6843F010
:1024F00010430B600DB0BDE8F08F154B0B9303F14B
:1025000040430A934FF0804309930223114D0893EF
:102510005BE7114B0B9303F140430A934FF0814368
:10252000099304230D4D08934FE700BF4054094C15
:102530004054894C00A24A04846401008CFFFF1FB0
:1025400004F1024008F0024080F0024088F00240AE
:10255000010000474054894B030000474054094B99
:102560002DE9F04F0546DFF87C82974E974F98F89B
:1025700000E02E60FF2085F82400DFF86C923878A8
:1025800059F820C00023BEF1060F8DB00C4685F827
:10259000253085F826309CBF88F800309E46BCF177
:1025A000000F00F0A8808C455BD06346810001E0FD
:1025B0009C4256D00B445B68002BF9D1634603EB79
:1025C000010ADAF80430002BF9D105EB010BCAF847
:1025D0000440BEF1060F4FF0FF044FFA80FACBF82B
:1025E00004308DF82C4002968DF82D308DF82E3069
:1025F00085F824A0644605D8002388F80030002C14
:1026000000F0A980A24226D0234601E0934222D0C6
:102610000B445B68002BF9D104EB010CDCF804409F
:10262000002CF9D1CCF804200CAB19440024431C35
:10263000BAF1FF3F41F8244C3B708DF82CA0029674
:1026400005D0634951F82A3002AA934272D0284635
:102650000DB0BDE8F08F0130387028460DB0BDE8F0
:10266000F08F0023FF21BEF1060F02968DF82C108B
:102670008DF82D308DF82E3001D888F80030944533
:10268000E9D06346810001E09A42E4D00B445B68E4
:10269000002BF9D18C44DCF804402CB1A4468C44C6
:1026A000DCF80440002CF9D10CAB19444FFA80FE41
:1026B000431CBEF1FF3FCCF804203B7041F8244C92
:1026C00002968DF82CE0C2D0414951F82E3002AA72
:1026D0009342BCD159F82E304FEA8E0623B19A1995
:1026E00053685460002BFAD10023387049F82E301B
:1026F00041F82E30ABE7B0B38100DFF8D4A049F841
:10270000204005EB010C00234AF82050BEF1060FD3
:10271000CCF804304FFA80FA4FF0FF0C02968DF897
:102720002D308DF82E3085F824A08DF82CC07FF642
:1027300063AF64E759F82A304FEA8A0623B19A1941
:1027400053685460002BFAD10023387049F82A30BE
:1027500041F82A307BE7F0B11D4B49F8202002AA4E
:1027600043F8202060E71B491B480B68019243F0A7
:1027700080630B600368194923F0804303601520D0
:1027800008F004FD164B98F800E0019A4FF4001190
:1027900019603878B0E70F4C0F482368019243F076
:1027A0008063236003680D4923F080430360152094
:1027B00008F0ECFC0A4B019A4FF4001119603878CC
:1027C0004FFA80FA8100C7E70C620100AD53002088
:1027D0008C530020047004400070044095040000F5
:1027E00000E100E0BCF3FF1F6C5300202DE9F04135
:1027F000584D594C594E08F063FB0421584807F0D6
:10280000B3FC2A6826600023637223612372E360AD
:102810000AB99AE01A465369002BFBD1546100278C
:10282000504B4D486761A780E780236002F0D8F9DC
:102830004D4A4FF0010E02F118013B46384617721F
:10284000D760166082F809E01161174600E0396927
:1028500041F82300517A444E01339942F7DC29684C
:102860003C4B09B973E019464B69002BFBD14A6117
:102870003E4B3F491C600024184654619480D4802C
:10288000A2F8B0411160A2F8B2415A60C2F8AC415E
:10289000A2F8B441C2F8B8411C725C72DC600AF064
:1028A00083F8344A344B9069344A1A600BF04EFF77
:1028B000334D344B344E18604FF0FF08334B344ADD
:1028C000344985F825402846012785F824802B6067
:1028D0006C63AC6385F83C4085F826700CF044FBD3
:1028E0002D4B2B4A2D4986F82480304686F825400A
:1028F000336086F8274086F8284086F826700CF06A
:1029000033FB2A4631462648264DFFF729FE204A4A
:10291000254923480CF028FB244A254B25491474EB
:1029200064204FF47A76547414711473DC7183F854
:102930003C4483F83D4483F86A4483F8600496601D
:102940001560C3F86C14BDE8F0812C6067E71E6069
:102950008EE700BFC054002070510020DC610100F0
:10296000B8510020D0660100004F002028510020FF
:102970002C62010014FAFF1F38510020B4660100D8
:10298000DC50002004520020305200207867010003
:10299000FCF9FF1FBD0600008C6701001507000051
:1029A0000C0A0020E861010011060000380A00202E
:1029B000744A00200000023810B5184C0A21204645
:1029C00002F07CFC2046002102F050FA2046302123
:1029D00002F04CFA2046002102F048FA002120467D
:1029E00002F044FA204602F07BFC20460A2102F065
:1029F00065FC2046002102F039FA2046022102F04F
:102A000035FA2046002102F031FA2046002102F07A
:102A10002DFA2046BDE8104002F062BC4C53002065
:102A20002D4B2E4810B51C680A216CBB02F046FCE9
:102A300021462A4802F01AFA3021284802F016FAF4
:102A40002146264802F012FAA221244802F00EFA8A
:102A5000224802F045FC0A21204802F02FFC2146C2
:102A60001E4802F003FA02211C4802F0FFF9214639
:102A70001A4802F0FBF94321184802F0F7F9174809
:102A8000BDE8104002F02CBC02F018FC00211348F5
:102A900002F0ECF93021114802F0E8F900210F486A
:102AA00002F0E4F9AB210D4802F0E0F90B4802F026
:102AB00017FC0A21094802F001FC0021074802F036
:102AC000D5F90221054802F0D1F90021034802F0AE
:102AD000CDF96321D0E700BF505100204C530020B6
:102AE0000238032838B504DC002880F20C82002468
:102AF00000E00C240A21C84802F0E0FB0021C6488F
:102B000002F0B4F93021C44802F0B0F94021C248C3
:102B100002F0ACF96021C04802F0A8F9BE4802F00A
:102B2000DFFB0A21BC4802F0C9FB0021BA4802F0D1
:102B30009DF92621B84802F099F90021B64802F023
:102B400095F96C21B44802F091F9B34802F0C8FB42
:102B50000A21B14802F0B2FB0021AF4802F086F929
:102B60002821AD4802F082F90121AB4802F07EF93C
:102B7000F021A94802F07AF9A74802F0B1FB0A2136
:102B8000A54802F09BFB0021A34802F06FF92A211F
:102B9000A14802F06BF900219F4802F067F900217B
:102BA0009D4802F063F99C4802F09AFB0A219A487A
:102BB00002F084FB0021984802F058F92C21964835
:102BC00002F054F90F21944802F050F92221924862
:102BD00002F04CF9904802F083FB0A218E4802F083
:102BE0006DFB00218C4802F041F93C218A4802F03B
:102BF0003DF94421884802F039F94621864802F01F
:102C000035F9854802F06CFB0A21834802F056FB37
:102C10000021814802F02AF924217F4802F026F998
:102C200001217D4802F022F937217B4802F01EF98C
:102C3000794802F055FB794B77481D680A21002D31
:102C400040F0348102F03AFB2946734802F00EF955
:102C50003021714802F00AF929466F4802F006F95E
:102C6000A2216D4802F002F96B4802F039FB0A21FB
:102C7000694802F023FB2946674802F0F7F8022171
:102C8000654802F0F3F82946634802F0EFF8432163
:102C9000614802F0EBF8604802F022FB4FF4C87084
:102CA00008F0BEFC0A215C4802F008FB00215A48EB
:102CB00002F0DCF82E21584802F0D8F819215648C5
:102CC00002F0D4F81921544802F0D0F8524802F02A
:102CD00007FB0A21504802F0F1FA00214E4802F0A9
:102CE000C5F804214C4802F0C1F800214A4802F01E
:102CF000BDF82146484802F0B9F8474802F0F0FA1A
:102D00000A21454802F0DAFA0021434802F0AEF801
:102D10000621414802F0AAF801213F4802F0A6F836
:102D200030213D4802F0A2F83B4802F0D9FA0A21CE
:102D3000394802F0C3FA0021374802F097F80A2117
:102D4000354802F093F80021334802F08FF8002153
:102D5000314802F08BF8304802F0C2FA0A212E48BE
:102D600002F0ACFA00212C4802F080F80E212A482B
:102D700002F07CF80021284802F078F80821264863
:102D800002F074F8244802F0ABFA0A21224802F05B
:102D900095FA0021204802F069F810211E4802F03F
:102DA00065F8FF211C4802F061F83C211A4802F046
:102DB0005DF8194802F094FA0A21174802F07EFAE9
:102DC0000021154802F052F82221134802F04EF873
:102DD0007F21114802F04AF87F210F4802F046F89F
:102DE0000D4802F07DFA0A210B4802F067FA012132
:102DF000094802F03BF82421074802F037F8002187
:102E0000054802F033F80021034802F02FF8024889
:102E100002F066FA0A2103E04C53002050510020D2
:102E20003A4802F04BFA0021384802F01FF82421FA
:102E3000364802F01BF80021344802F017F814213C
:102E4000324802F013F8314802F04AFA0A212F48BA
:102E500002F034FA00212D4802F008F82A212B480C
:102E600002F004F80021294802F000F80021274868
:102E700001F0FCFF254802F033FA0A21234802F052
:102E80001DFA0021214801F0F1FF20211F4801F027
:102E9000EDFF00211D4801F0E9FF00211B4801F072
:102EA000E5FF1A4802F01CFA012038BD02F006FACC
:102EB0000021164801F0DAFF3021144801F0D6FF56
:102EC0000021124801F0D2FFAB21104801F0CEFFE3
:102ED0000E4802F005FA0A210C4802F0EFF9002131
:102EE0000A4801F0C3FF0221084801F0BFFF00219A
:102EF000064801F0BBFF6321044801F0B7FF034817
:102F000002F0EEF9CAE68000C4B2F3E54C530020AB
:102F100038B5304B304C1021054653F82000FFF7F0
:102F200031FA2E4802F048F82846FFF7D9FD2278FA
:102F30002B48114601F0D2FA23680F2B0CD8DFE89A
:102F400003F00C1014181C2024282C3034383C407A
:102F50004408244B244A1A6038BD224B234A1A6085
:102F600038BD204B224A1A6038BD1E4B214A1A60D8
:102F700038BD1C4B204A1A6038BD1A4B1F4A1A60D4
:102F800038BD184B1E4A1A6038BD164B1D4A1A60D0
:102F900038BD144B1C4A1A6038BD124B1B4A1A60CC
:102FA00038BD104B1A4A1A6038BD0E4B194A1A60C8
:102FB00038BD0C4B184A1A6038BD0A4B174A1A60C4
:102FC00038BD084B164A1A6038BD064B154A1A60C0
:102FD00038BD00BF14FAFF1F00FAFF1F4C5300203A
:102FE0003851002054510020BD549341103377C014
:102FF000993918C0BE0D68BFCE71153F8D090340C9
:10300000CCC9624009A7A3407DDBD140C416014171
:1030100054FC1741D0E83041195546419FAB5F4100
:10302000A04176415E2E86413021014806F092BAD9
:10303000B851002038B504460D463148012106F04C
:10304000C7FA2AB200212E4806F0BEFA204605F043
:1030500035FB01462A4809F055FF2D21284806F086
:1030600079FA204605F006FB0146254809F04AFF9B
:103070002D21234806F06EFA204605F0E9FA0146B4
:103080001F4809F03FFF02221E491D4809F026FF94
:10309000204605F001FB092803DC3021184806F022
:1030A00059FA204605F0F8FA0146154809F02AFFBA
:1030B000204605F0A9FA012205461349104809F0F7
:1030C0000DFF092D03DC30210D4806F043FA294697
:1030D0000B4809F017FF204605F0A8FA0122044624
:1030E0000949074809F0FAFE092C03DC302104489D
:1030F00006F030FA21460248BDE8384009F002BF28
:10310000B8510020A0640100B46401002DE9F04131
:10311000A54D2C682CB1012C00F09D8030BFBDE87E
:10312000F08108F0FFF8A14FDFF8F8823860A0487E
:10313000A04E07F02DF801219D4806F04FFA02211C
:103140009B4806F045FA22462146994806F03CFA8B
:103150000A229949964809F0C1FE954809F04CFFAA
:103160000121934806F034FA12222146904806F0D5
:103170002BFA052291498E4809F0B0FED8F80010CC
:103180008B48013109F0BEFE01228D49884809F0C3
:10319000A5FED8F800208B4B854853F82210234613
:1031A0000A2209F079FF30682821FFF743FF372111
:1031B0003868FFF73FFF7E4807F026FA32683B6821
:1031C000511E994209DCDFF8608298F8001021B1A5
:1031D0007D490968002940F083809A4237DC7B4FA3
:1031E0003C68002C61D00D2179487A4C09F0B4F983
:1031F000794809F001FF794B794A7A4930681B68B0
:103200001268096803441A4401293260236000F0FF
:103210005E810E21744809F09FF908F083F8FEF7EB
:1032200011FF0B21714809F097F92068FEF70AFF9A
:103230000B216F4809F090F93068FEF703FF012376
:10324000AE215B482B6006F0ABFFFEF79DF82C68C3
:10325000012C7FF463AFFDF7B1FC042008F096F970
:103260000446032008F092F914B9002800F0E08029
:10327000604C614B22681B689A42FFF64FAF584B77
:103280001E68002E3DD15D4802F06AFAFEF7FCF898
:10329000FDF778FD5A482660FDF710FB594B18885A
:1032A000FDF7F0FA30BFBDE8F0810A21564802F080
:1032B00005F82146544801F0D9FD0E21524801F08D
:1032C000D5FD2146504801F0D1FD0A214E4801F0BC
:1032D000CDFD4D4802F004F84FF0FF333B6082E72C
:1032E0000121052008F02EF9C82008F099F921469F
:1032F000052008F027F901213B68326888F80010A2
:103300006BE7FDF70BFDFEF7BFF82A4B3F4E1C683D
:103310003F4F08F007F83F4A3F4B1268201A841AC3
:1033200024EAE47483FB04232344E017C0EBE32086
:103330000AF0A4FD0AF0C8FB0BF0B6F8374B384A88
:10334000306003FB004482FB043222448046E017D5
:10335000C0EB62100AF092FD0AF0B6FB0BF0A4F885
:103360000201131A821A04EB82049B004FF461627B
:1033700002FB08333C60DFF8B4801C44092CC8F819
:10338000000000F3AA80104B1B68002B40F0A280C5
:1033900001233C220221064807F02CF800232B6071
:1033A00030BFBDE8F08100BF080A0020EC4E0020CD
:1033B000B8510020F44E0020A4640100B064010064
:1033C0007C6501000C520020505100206C0A002046
:1033D000B86401004C5100208CFFFF1F3CFAFF1F16
:1033E00048FAFF1FF4510020C8640100D8640100AE
:1033F000E4640100FC4E0020F0510020480A002047
:103400000C650100C45400204C530020F8510020EA
:103410000852002004FAFF1FC5B3A291F0F1FFFF8C
:103420008988888864520020F94E00208851002045
:10343000464B474C1B68474D47485B02002203F14F
:1034400024061146A362A5F8B421666002F0DAFCF6
:1034500021462C22404802F0C5FD3F4802F080F989
:103460003E4B1B6883BB01233C2202213C4806F0F3
:10347000C1FF642008F0D4F8394806F089FE012124
:10348000374806F0ABF80221354806F0A1F80022D3
:103490001146334806F098F807223249304809F0BF
:1034A0001DFD2F4809F0A8FD01212D4806F090F8D8
:1034B00010222D492A4809F011FD294809F09CFDE8
:1034C000274807F0A1F8FEE7FEF792F8CBE7FEF7F2
:1034D000FFFD9EE6FEF776F85AE7204C0021022019
:1034E00008F030F8FFF768FA23680BB1FEF780F8B0
:1034F0001E48FDF7E3F931681D4809F003FDD8F8CF
:1035000000101B4809F0FEFC3868FDF7BBF909F014
:1035100027F9642008F084F83B7898F80020317887
:10352000144804F009FF144804F0CCFC01210220E7
:1035300008F008F84FF4967008F072F823680BB1A1
:10354000FEF72CF8FFF76CFA22E700BFFC4E0020D4
:1035500078520020004F0020480A002050510020DF
:10356000B8510020F0640100F86401001865010002
:103570008CFFFF1FDC5000200C0A00202DE9F04FCB
:1035800087B0FEF73BFE07F0CDFE964BDFF8A49226
:1035900018609548954F964DDFF89C8206F0F8FD2F
:1035A0000121914806F01AF802218F4806F010F820
:1035B000002211468C4806F007F808228D498A48F7
:1035C00009F08CFC0121884806F002F81022002145
:1035D000854805F0F9FF12228749834809F07EFCEF
:1035E000814809F009FD0721844801F099FF0E2167
:1035F000824801F0F3FF0C21804801F0C1FFCA4668
:103600000024002345F8043B7D4809F0F5FC7C4884
:1036100009F0F2FC013405217A4808F09DFF2146AB
:10362000774809F06FFC764809F0E6FC21466E48C1
:1036300009F068FC042274496B4809F04FFC6A48A1
:1036400006F0E2FF5AF8042B7049D2B2A1F10C0047
:103650004FF0384303F028FF58BB1C216C4808F09A
:103660007BFF674809F0C8FC06226A495E4809F0FA
:1036700035FC5D4809F0C0FC5B4806F0C5FF042C32
:10368000BFD15A4C99F8002004F58C65284604F205
:103690006C414FF0384303F007FF002840F0CE8024
:1036A0000B225D49504809F019FC4F4806F0ACFF69
:1036B000FEE75A4800F124033B6002F051F8012173
:1036C0004A4803F0F5FD014600287AD0DFF84CB1F6
:1036D000ABF23C41584602F07BFA0028BDD097F887
:1036E0003C3413F0700FB8D0ABF23C40C8F800B0D7
:1036F00003F042FD08210646494808F02DFF3146F7
:103700003F4809F0FFFB3E4809F076FC30460BF0DD
:103710001DF844490BF06EF8064638790BF016F8A0
:10372000014630460BF066F80BF050FA06460BF1F6
:10373000240004F0B1F80BF005F83A490BF05AF800
:103740000BF044FA0A218346374808F005FF594632
:1037500000230A222A4809F09FFC294809F04CFC62
:10376000C72E8CBFC83E0026112145F8046C2F4897
:1037700008F0F2FE55F8041C214800230A2209F043
:103780008BFC1F4809F038FC002355F8041C164830
:103790000A2209F081FC01222549134809F09EFB09
:1037A000594600230A22104809F076FC0E4809F019
:1037B00023FC0D4806F028FF4FF47A7007F030FF25
:1037C0005DE70A4803F074FD00283FF446AFDFF8D8
:1037D0004CB0ABF23C41584602F0FAF900287FF4B5
:1037E0007EAF3AE7704A0020B8510020744A0020AA
:1037F000685200202C6501003865010058FAFF1F4F
:103800008CFFFF1FB06401004C650100E04E0020FA
:103810002C6601004C66010054660100B04E002089
:1038200054650100BD37063A606501006C65010012
:1038300080650100585100206453002004F23C4090
:10384000256001F08DFF0121204603F031FD014686
:10385000002800F07883A64C04F23C452846214617
:1038600002F0B6F900283FF41BAF94F83C3413F093
:10387000700F3FF415AF9F4EC8F80050FEF790F858
:1038800032689D4B9A4201D93C2333609B4F9A4B3F
:103890003A689A4284BF3C233B60994B1B78172BB4
:1038A00002D9974A00231370964B1B783B2B02D901
:1038B000944A00231370944B1B78172B02D9924A19
:1038C00000231370DFF88092DFF8808299F80030CF
:1038D0003B2B84BF002389F80030D8F80030012B3F
:1038E00084BF0023C8F80030884B1B68052B02D921
:1038F000864A06231360864D864C082007F046FE54
:1039000020BB2B6801332B6002E00A2007F088FE01
:10391000082007F03BFE0028F7D0D8F800302A68CE
:10392000B3FA83F10B2A4FEA5111D8BF00210029C5
:1039300040F00683A3F10103B3FA83F30F2A4FEAA1
:103940005313D8BF0023002B40F0FA82724806F0D0
:103950001FFC0121704805F041FE02216E4805F070
:1039600037FE002211466C4805F02EFE07F0DAFC07
:103970006A4B20601A682B68821A02920F2B29D892
:10398000DFE813F032021902D1029202DB019D013D
:1039900064012601E8009D0083006B005F00530076
:1039A0003C0010003B22002199F80000DFF898A1AC
:1039B000FEF71EF95A4989F800000722564809F017
:1039C0008DFA99F8001009292ADD534800230A22AC
:1039D00009F062FBFEF784F907F0A4FC3721FFF73A
:1039E00029FB4D4806F010FE0A2007F019FE029B45
:1039F000B3F5167F81DD07B0BDE8F08F424B17228B
:103A0000002118789A46FEF7F3F846498AF8000034
:103A10000722414809F062FA9AF800100929D4DC1B
:103A2000FFF702FB9AF80010CFE7364B3B2200214C
:103A300018789A46FEF7DCF808228AF800003A491E
:103A4000E7E72F4B1722002118789A46FEF7D0F8A7
:103A500008228AF800003549DBE7052234492E4860
:103A6000DFF8E8A009F03AFA01220021D8F80000B6
:103A7000FEF7BEF8C8F80000002800F077820128A1
:103A8000A8D12C48FCF70CFFA4E7DFF8C4A008225B
:103A90009AF800000121FEF7ABF805228AF8000031
:103AA00025491D4809F01AFA9AF800101A4800230F
:103AB0000A2209F0F1FA184809F09EFA8AE7134B36
:103AC000002106221868FEF793F81C4B0F4A10607D
:103AD00053F820000AF03AFE19490AF03FFF0AF0B5
:103AE000DFF902460B460C48164909F0C7FA71E7A0
:103AF000744A00203CFAFF1FA086010048FAFF1F0D
:103B0000340A0020605200208C51002030FAFF1F40
:103B1000D8500020EC4E0020B8510020704A002000
:103B2000246601001C6601001066010004660100A5
:103B3000E4650100F4650100FC65010014FAFF1F53
:103B400000007A44D8650100F84E0020F4510020AE
:103B500038FAFF1F04F06AFDDFF824B3DFF824A36E
:103B6000CBF800003B220021FEF742F8DBF80030E2
:103B7000CAF8000098421DD0206804F08DFD8346ED
:103B8000206804F041FD05902068DAF800A004F0F8
:103B90005FFD0490206804F06DFD0390206804F040
:103BA0008DFD039A00920190049B05995246584658
:103BB000FDF7FEFF0722A849A84809F08FF907F092
:103BC000B1FB04F033FD0146A44809F09BF901E77D
:103BD00004F01AFDDFF8B0B2DFF8B0A2CBF80000B5
:103BE0003B220021FEF704F8DBF80030CAF80000A1
:103BF00098421DD0206804F04FFD83462068DAF813
:103C000000A004F013FD0590206804F021FD04904D
:103C1000206804F02FFD0390206804F04FFD039905
:103C200000910190049B059A51465846FDF7C0FF4C
:103C300007228B49894809F051F907F073FB04F01A
:103C4000E3FC0146854809F05DF9C3E604F024FD74
:103C5000DFF83CB217220021CBF80000FDF7C8FFC7
:103C6000DBF80030984282461BD0206804F0CCFC80
:103C70008346206804F0DAFC0590206804F0E8FC34
:103C80000490206804F0F6FC0390206804F016FD10
:103C9000039900910190049B059A59465046FDF7FF
:103CA00087FF05226F496D4809F018F907F03AFBC4
:103CB00004F0F2FC0146694809F024F98AE604F0B0
:103CC000C7FCDFF8D0B1DFF8D0A1CBF800001F228D
:103CD0000121FDF78DFFDBF80030CAF800009842A3
:103CE0001DD0206804F0D8FC8346206804F08CFCCA
:103CF0000590206804F09AFC04902068DAF800A08F
:103D000004F0B8FC0390206804F0D8FC039B0093F7
:103D100001905346049A05995846FDF749FF04223D
:103D200051494E4809F0DAF807F0FCFA04F090FC2B
:103D300001464A4809F0E6F84CE604F09BFCDFF83F
:103D40005CB1DFF85CA1CBF800000C220121FDF78B
:103D50004FFFDBF80030CAF8000098421DD0206801
:103D600004F09AFC8346206804F04EFC059020681D
:103D700004F05CFC0490206804F06AFC0390206866
:103D8000DAF800A004F09AFCCDF800A00190039BA3
:103D9000049A05995846FDF70BFF062233492F4830
:103DA00009F09CF807F0BEFA04F064FC01462B48C9
:103DB00009F0A8F80EE645F2604201213068FDF7EF
:103DC00017FF2B4930600422244809F087F8316836
:103DD000224809F097F801222649204809F07EF888
:103DE0001E4809F009F9F5E5DFF8B8A09AF80030A7
:103DF000002B40F0B0800A221F49184809F06EF8E5
:103E0000042007F0C3FB8246032007F0BFFBBAF192
:103E1000000F7FF4DFAD00287FF4DCADFDF74AFF33
:103E2000FEF74EFA1548FCF73BFD0C4806F0ECFB9C
:103E300040F2DC5007F0F4FBFDF752FF07F072FA96
:103E40003721FFF7F7F8054806F0DEFB0A2007B038
:103E5000BDE8F04F07F0E4BBD0650100B851002089
:103E6000C8650100C0650100B8650100B0650100CA
:103E70002C6401009C6501008465010090650100CF
:103E80002C520020205100206C510020E84E0020D0
:103E9000040A0020D45000201C5100205C52002055
:103EA00024510020F04E002004F008FCDFF8E0B0C0
:103EB000DFF8E0A0CBF8000040F634024FF4FA61DE
:103EC000FDF796FEDBF80030CAF8000098421CD0DF
:103ED000206804F0E1FB8346206804F095FB059020
:103EE000206804F0A3FB0490206804F0B1FB039069
:103EF000206804F0BFFBDAF80030049A05998DE8D9
:103F00000900039B5846FDF753FE05221A491B483A
:103F100008F0E4FF07F006FA04F0D0FB014617486A
:103F200008F0F0FF56E5164A38680021FDF760FEFC
:103F3000144938600422114808F0D0FF396847E777
:103F400000232B6002E5204603F0B2F900287FF43D
:103F500082ACFFF7A5BBFEF7B3F94FF000038AF878
:103F6000003007F0DFF9084B186044E70748FCF71A
:103F700097FCDAF8000082E5A8650100B85100203E
:103F800080510100A0650100704A0020EC6501002D
:103F900024520020685100202DE9F04F8FB072B6F6
:103FA000C649C74BC74841250E2480220D700470B6
:103FB00019461A700B78C24A1806FBD5C24BC34883
:103FC0001D78C34CC3490570033B247809781B78DE
:103FD000C3704470817062B672B6B849B94C41265C
:103FE0000F2580230E702570114613700B781B0669
:103FF000FCD5B54CB649B74AB74B24780978127846
:104000001B78C37104714171827162B6B34BB44FB6
:10401000B44EDFF8289300240F2115220A254FF013
:1040200014084FF4FA705960DA601D60C3F8088014
:1040300007F0F6FA64203C6007F0F2FA4FF43053D0
:104040003B60642007F0ECFA4FF434533B6064208B
:1040500007F0E6FA2A463168A348234609F01CF81F
:10406000A14808F0C9FF4FF47A7007F0D9FA2A4640
:1040700031689D48234609F00FF89B4808F0BCFFC3
:104080004FF47A7007F0CCFA2A46234631689648F6
:10409000964D09F001F8944808F0AEFF944800F0FE
:1040A0008BFF2146102007F07FFA204606F0FEFD28
:1040B0000121022007F078FA0121022007F042FADC
:1040C0000121052007F070FA0121052007F03AFAD6
:1040D0004FF4FA6007F0A4FA2146052007F032FAFF
:1040E000844B0122214605201A7007F02BFA824BDF
:1040F0001B680021012B4FF0040008BFC9F80080A5
:1041000007F052FA0021032007F04EFA00210820A0
:1041100007F04AFA0121042007F014FA01210320D4
:1041200007F010FA0121082007F00CFA07F0FAF85E
:10413000724B2860984240F3A38101233C22022164
:104140006F48704C06F056F98C2007F069FA6C48FD
:1041500006F01EF801216A4805F040FA022168487D
:1041600005F036FA00221146654805F02DFA0A22BC
:104170006549634808F0B2FE614808F03DFF6048B9
:1041800006F042FA5E4806F003F801215C4805F0AB
:1041900025FA02215A4805F01BFA00221146584818
:1041A00005F012FA0A225849554808F097FE54487B
:1041B00008F022FF524806F027FA6E21534808F013
:1041C0001FFBFFF7DBF9524A524B166853F82600E3
:1041D0000AF0BCFA20603046FEF79AFE4E4801F025
:1041E000BFFA4E490EAE01F23C4001F0F1FC4C4BDF
:1041F00046F8343D00238DF814308DF815308DF8D5
:1042000008308DF81030474A4349462305A84FF43B
:104210007A77039701F05CFC9DF8143053B12922A2
:10422000414905A801F0DEFE304608F0E5FE05A88C
:1042300001F096FA32483D4FDFF804A105F0A8FFDF
:1042400001212F4805F0CAF902212D4805F0C0F9D7
:10425000002211462A4805F0B7F93B683C2B07DDE0
:10426000B3F5967FD4BF3C234FF49673CAF8003061
:1042700007F058F8DFF8CC802D49DAF800302D4EE1
:10428000D8F80020096890FBF3FE286003FB0E338A
:104290002948336001291344036000F0F58010467B
:1042A0000AF054FA2168DFF8A0A0DFF8A0B00AF005
:1042B000A1FA4FF06E510AF09DFA49E00700024062
:1042C00000000240060002400B0002404451002062
:1042D0000A00024009000240080002405851002034
:1042E00010D0034000D003408CFFFF1FEC4E002095
:1042F0004C530020F94E0020505100207FC18556BC
:10430000B851002004520020606601000082FF1FA7
:1043100030FAFF1F14FAFF1FB04E0020744A00202D
:10432000E86101008C6201003063010048FAFF1F60
:10433000F4510020F44E00204C51002004FAFF1FDD
:1043400034FAFF1F3CFAFF1FF0510020F851002003
:104350004FF074510AF04EFA09F0A2FD09F02CFB5F
:1043600000224C4B09F0F0FD0AF09EF83A68D9F8AB
:104370000040494BCAF80000141B24EAE47983FB8F
:1043800009234B444FEAE970C0EBE32009F076FDC6
:1043900009F09AFB0AF088F8404C414BCBF800003A
:1043A00004FB009483FB04232344E017C0EB631059
:1043B00009F064FD09F088FB0AF076F8DFF80CA13B
:1043C000DFF80C910346A0EB001004EB80041021F1
:1043D0003448C9F80030CAF8004008F0BDF8DBF8EE
:1043E0000010314808F08EFDD9F800102E4808F072
:1043F00089FDDAF800102C4808F084FD2A4808F0FE
:10440000FBFD0821294808F0A7F8D8F80010264835
:1044100008F078FD244808F0EFFD0821244808F052
:104420009BF83968204808F06DFD1F4808F0E4FD4E
:104430000E21204808F090F82868FDF703FE0C21B3
:104440001D4808F089F83068FDF7FCFD33682C68DA
:104450001A481C1B152108F07FF82146124808F065
:1044600051FD114808F0C8FD1549164B00204FF0CA
:10447000FF3208601A60FDF707F80FB0BDE8F08F53
:10448000114806F055FF58E6FDF722FED8F8002047
:1044900005E700BF00004040C5B3A291F0F1FFFF67
:1044A00089888888186501008CFFFF1F6C660100F1
:1044B00078660100C864010084660100946601000A
:1044C000080A00202852002080C18556085200208A
:1044D00088510020002070470020704738B50F2910
:1044E000114C28BF0F210F2A28BF0F220D46017A39
:1044F000204642EA051500F00BFE2046002100F0A0
:10450000B5FC2046202100F0B1FC2046002100F03F
:10451000ADFCE9B2204600F0A9FC204600F0E0FE28
:10452000B0FA80F0400938BD4C530020F8B5C34CB8
:10453000012605460671204600F03EFD052007F0E5
:104540006FF8297A204600F0E3FD2046002100F0B4
:104550008DFC2046302100F089FC2046402100F0EF
:1045600085FC6021204600F081FC204600F0B8FE6A
:10457000297A204600F0CCFD2046002100F076FC90
:104580002046262100F072FC2046002100F06EFC3F
:104590006C21204600F06AFC204600F0A1FE297A3A
:1045A000204600F0B5FD2046002100F05FFC2046CB
:1045B000282100F05BFC3146204600F057FCF22138
:1045C000204600F053FC204600F08AFE297A20465F
:1045D00000F09EFD2046002100F048FC20462C21E2
:1045E00000F044FC20460F2100F040FC2221204630
:1045F00000F03CFC204600F073FE297A204600F0D3
:1046000087FD2046002100F031FC20463C2100F0CF
:104610002DFC2046442100F029FC4621204600F0D4
:1046200025FC204600F05CFE40F23713EB80297A2F
:10463000204600F06DFD2046002100F017FC2046CA
:10464000242100F013FC3146204600F00FFC3721F6
:10465000204600F00BFC204600F042FE297A20465E
:1046600000F056FD2046002100F000FC20463021DD
:1046700000F0FCFB2046402100F0F8FBFF21204623
:1046800000F0F4FB204600F02BFE297A204600F0D3
:104690003FFD2046002100F0E9FB2046022100F00A
:1046A000E5FB2046002100F0E1FB7321204600F0ED
:1046B000DDFB204600F014FE4FF4C87006F0B0FF9A
:1046C000297A204600F024FD2046002100F0CEFB90
:1046D00020462E2100F0CAFB20461D2100F0C6FB1B
:1046E0001D21204600F0C2FB204600F0F9FD297A8A
:1046F000204600F00DFD2046002100F0B7FB2046CB
:10470000042100F0B3FB2046002100F0AFFB0421A0
:10471000204600F0ABFB204600F0E2FD297A20465F
:1047200000F0F6FC2046002100F0A0FB2046062108
:1047300000F09CFB3146204600F098FB30212046DB
:1047400000F094FB204600F0CBFD297A204600F0D3
:10475000DFFC2046002100F089FB20460A2100F002
:1047600085FB2046002100F081FB1021204600F04F
:104770007DFB204600F0B4FD297A204600F0C8FCFD
:104780002046002100F072FB20460E2100F06EFB57
:104790002046002100F06AFB0021204600F066FB65
:1047A000204600F09DFD297A204600F0B1FC20460D
:1047B000002100F05BFB2046102100F057FB204653
:1047C0003C2100F053FB3C21204600F04FFB2046EB
:1047D00000F086FD297A204600F09AFC2046002150
:1047E00000F044FB2046222100F040FB20467F21C0
:1047F00000F03CFB7F21204600F038FB36272046A6
:1048000000F06EFD297AEF80204600F081FC204602
:10481000002100F02BFB2046242100F027FB20463E
:10482000002100F023FB3946204600F01FFB204604
:1048300000F056FD6E723046F8BD00BF4C530020AC
:104840000B462DE9F04145490546184609F0D2FFCF
:10485000434909F0C7FE0AF0B9F9044600284CD0D4
:1048600080281FD92B79002426462BBB297A3D4866
:1048700000F04EFC00213B4800F0F8FA22213948B4
:1048800000F0F4FA3146374800F0F0FA2146354896
:1048900000F0ECFA334800F023FDB0FA80F0400954
:1048A000BDE8F081C0F180042B7944EA0424C4F30C
:1048B0000726E4B2002BD9D0EF88297A294827F0BF
:1048C00010074FF00008EF8085F8048000F020FC0E
:1048D0004146244800F0CAFA2421224800F0C6FAD2
:1048E000390A204800F0C2FA07F0EF011D4800F035
:1048F000BDFA1C4800F0F4FCB8E701232B71297ABB
:10490000184800F005FC2146164800F0AFFA2221B5
:10491000144800F0ABFA7F21124800F0A7FA7F217B
:10492000104800F0A3FA0F4800F0DAFCEE88297A6C
:104930000C4846F01006B6B2EE8000F0E9FB2146C6
:10494000084800F093FA2421064800F08FFA310A53
:10495000044800F08BFAF1B299E700BF0000014370
:10496000EE7CFF3E4C53002070B505460C4619B155
:1049700001293BD0002070BD017A424800F0C8FBFD
:104980002146404800F072FA20213E4800F06EFABD
:1049900021463C4800F06AFA55213A4800F066FA90
:1049A000384800F09DFC06460028E3D1EC88297ABF
:1049B000344844F00404A4B2EC8000F0A9FB314672
:1049C000304800F053FA24212E4800F04FFA210A13
:1049D0002C4800F04BFAE1B22A4800F047FA294887
:1049E00000F07EFCB0FA80F0400970BD017A2548E5
:1049F00000F08EFB0021234800F038FA2A212148DC
:104A000000F034FA21461F4800F030FA73211D48A7
:104A100000F02CFA1B4800F063FC04460028A9D1E2
:104A2000297A184800F074FB2146164800F01EFA57
:104A30002021144800F01AFA2146124800F016FA14
:104A40008821104800F012FA0E4800F049FC044694
:104A500000288FD1EE88297A0A4826F00406EE80D5
:104A600000F056FB2146074800F000FA24210548D3
:104A700000F0FCF9310A034800F0F8F906F0FB01F8
:104A8000AAE700BF4C53002010B5044608F09CF87C
:104A9000204610BD024A034903480AF065BA00BF28
:104AA000FCF9FF1F894A0000A45200201B4A1C4B3E
:104AB00011681C48096970B499421279027009D2D0
:104AC000194A127832B3194A4FF08041116003F548
:104AD000807402E01C46A3F58073154A15491268DC
:104AE0000D68AAB1A5B1144E3088402810D84100F5
:104AF0000A444030294402320231308033F9040B39
:104B000022F8020F9C4233F9020C21F8020FF5D86B
:104B100070BC704703F58074DFE700BFB45200201B
:104B2000B8F2FF1F1F800040AE52002008E200E0F4
:104B3000BC520020B0520020AC520020F8B506460E
:104B400007F08EFE0446E8B107F08AFE054600280D
:104B50003AD072B61F4B1A887F2A19D8002C31D050
:104B60001D490A6842B162B6204607F0CDFE2846CC
:104B7000BDE8F84007F0C8BE18480C601A80056010
:104B800062B6F8BD054672B6124B1A887F2AE5D97F
:104B9000114A12491768146000220C681A800D60CF
:104BA00062B63946304607F0D9FE384607F0ACFE0B
:104BB00030462146012207F0D1FE2046BDE8F840EC
:104BC00007F0A2BE62B6F8BD204607F09DFE2C4657
:104BD000BFE700BFAC520020BC520020B052002002
:104BE000F8B5284C284E2046012107F04FFF00F071
:104BF00083F8264B264A27484FF4806119602368C2
:104C000000211A6099802279186102F1804202F530
:104C1000043240F20110D8809E614FF4807502206A
:104C200006278E26DD82D960DD8398609F83988277
:104C30001170167007F0D0FE1749184B2279184FE3
:104C400008701A7039682279164C174D174E41F0CA
:104C5000124141F00101531139609B00206803F1BA
:104C6000604302F1100703F5614302F01F020121C6
:104C700040F0104001FA02F2206045F827601A6007
:104C8000F8BD00BFB452002000FEFFFF14B0044086
:104C9000A0F00240B8F1FF1FAE5200201B80004080
:104CA00080F0024000F0024000F4FF1FAD4A000017
:104CB000024A034903480AF057B900BFFCF9FF1F35
:104CC000894A0000B4520020024A034903480AF00E
:104CD0004BB900BFFCF9FF1F894A0000C0520020F9
:104CE000024A034903480AF03FB900BFFCF9FF1F1D
:104CF000894A0000C8520020284B29491A682948CF
:104D000042F400421A600A6842F002020A601A681D
:104D100042F002021A600368002B3DDB224B1B6845
:104D2000002B39DB214A4FF0864313601368002BB8
:104D3000FCDBF0B51E4C1F48DFF8ACE01E491F4BF2
:104D40001F4A204F204E214D47F2320CC4F800C0BC
:104D5000002404600120CEF80000DFF890E0C1F8E4
:104D600000E04FF480311960194B1360DFF880E0E8
:104D7000184A3A60346028601748CEF80000174C93
:104D8000B9671748174946F8503C4FF4C0632A6189
:104D9000236003600B60F0BD704700BF3C8004409F
:104DA0004080044000F0024080F0024000F10240E8
:104DB00004F1024060F0024008F002400CF00240B2
:104DC00010F0024014F00240E0F0024084F0024093
:104DD0001B0F0100000F0F0F0300004708B0044035
:104DE0000CB0044018B0044004F002400300000777
:104DF00088F00240024A034903480AF0B5B800BFF0
:104E0000FCF9FF1F894A0000D0520020024A0349E2
:104E100003480AF0A9B800BFFCF9FF1F894A000047
:104E2000D8520020024A034903480AF09DB800BF47
:104E3000FCF9FF1F894A0000E0520020024A0349A2
:104E400003480AF091B800BFFCF9FF1F894A00002F
:104E5000E8520020024A034903480AF085B800BF1F
:104E6000FCF9FF1F894A0000F05200200A4B1B7812
:104E700013B90A4B1B786BB1094A1378202B07D85A
:104E800010B4581C074C1070E154012010BC70473E
:104E900001230371002070475E530020215300203E
:104EA0005F53002000530020704700BF024A034BAD
:104EB00010781B78C01A70475D5300205C530020A7
:104EC000064A074913780978994204D90548591CBC
:104ED000C05C117070474FF0FF3070475C5300208A
:104EE0005D53002024530020054B064A1B7812789E
:104EF0009A4286BF044AD05C4FF0FF30704700BF33
:104F00005C5300205D5300202453002070B50D4BEE
:104F10001B78144613B90C4B1B788BB10B4E3578AC
:104F2000C5F12103A34202D201221C4602710848A6
:104F300022462844254405F00DFD3570204670BDFD
:104F4000184670BD5E530020215300205F5300209F
:104F500000530020124BDB7803F020034BB1114AC1
:104F600013780133DBB2012B137012D9122006F033
:104F700095B910B5122003F0FF0406F08FF90A4B23
:104F80001B685BB109490A4A0C701078BDE81040F3
:104F90001847084B1B78002BE8D0704710BD00BFA6
:104FA0000060064048530020FC5200205C53002063
:104FB0005D530020215300200D4A0E4BF0B5002018
:104FC0000D4C10702268DFF838E00C4F42F04002C0
:104FD00022604FF41971282603252024802298701E
:104FE000CEF8001039605E709D715C719A70F0BDF2
:104FF00021530020006006403480044008A0044093
:105000000CA0044010B5384CE378DBB2D80623D5A9
:1050100010225906E2701ED503F0040303F0FF02CC
:10502000002B33D0314B32491A68324C00230B70BD
:105030002370002A3BD090472378002B37D02E4B8B
:105040001B78294A2D49D02494701371264B0120D6
:1050500002220870DA7010BD5A06DDD4A27802F080
:10506000100202F0FF0042B313F001031BD12349E9
:1050700020480A780078904281BF1F4B501C9B5CEF
:1050800008702371184BD0229A7008E01C48164B08
:10509000174902700120C02208709A701B79124BC8
:1050A0000222DA7010BDC023A3702379F7E71249FA
:1050B000002301220B702270C3E7124B12491870B3
:1050C0000322122006F06AF80D4923790A781F2A74
:1050D000DBB2E4D8064800780028E0D00B4C501C26
:1050E000A3540870DBE700BF006006404453002073
:1050F000F85200205F53002000530020605300202E
:105100005D53002048530020554F000024530020D9
:105110000548064A10B40123054C0370490013707A
:10512000217010BC704700BF5E5300205F53002009
:10513000005300202DE9F043594C1223E370A3786B
:1051400003F0200383B0002B55D0B423DFF868812F
:10515000A370D8F80030524D1C460020EA78D2B235
:105160009A421CBF1446012096061346F6D5002825
:1051700040F08C804B4B1B78002B33D003F1FF3E6B
:105180005FFA8EFE0026D8F80040474F444D0EF1DE
:10519000010E30464FF0020C17F8013F2B715FFAF9
:1051A00086F902E013F0200F09D0EB78DBB29342CE
:1051B0001CBF1C46012013F0020F1A46F2D085F8DE
:1051C00003C0EA78D2B293421CBF14460120D30632
:1051D00033D4930631D5D30744D401367645DBD199
:1051E00000284AD1002000292ED1304B00221A700D
:1051F00003B0BDE8F0832E4DDFF8BC8003F0FF0262
:105200002B680093009ED8F8000005E02B680193FE
:10521000019B9B1B0F2B1BD8E378DBB2834218BF8B
:10522000012213F0200F1846F0D192BB21481C4BED
:105230000024B02204709A708BE708BB184B8022C0
:105240009A7004200029D0D0154B80229A70CCE7A8
:10525000CAB9134B00218022042099709A7003B0C0
:10526000BDE8F083C0B90E4BB9F1000F4FF08002DA
:105270000CBF022003209A70B7E7C8F80040B1E7DE
:10528000C8F80040DAE7C8F80000E2E7C8F80040D4
:1052900070E7C8F80030C9E7C8F80040E3E700BF8E
:1052A000006006405F530020FF5200205E53002044
:1052B000C05300202153002054FAFF1F0548064A1E
:1052C00010B40123054C037049001370217010BC09
:1052D000704700BF5E5300205F5300200053002042
:1052E0000121FFF727BF00BF044B054A1A604FF4A6
:1052F0007A71002299601A711A7370474C5300201A
:10530000DC66010010B4047F4160022CC26002D050
:1053100010BC07F073BC836810BC1847F0B4464B50
:10532000464A186BDC6A01791170454922790A7086
:105330009A6A00790870002A46D05968C9688A427A
:105340003ED82168CC8B240402F1FF3065D4C0F331
:105350000E00C883C88B80B2C882196B0968C88BDD
:10536000000452D4C2F30E00C883C88B002480B25C
:1053700012F1FF32C88218BF01229C62D96A2E48FE
:1053800009680D6800F12404A54236D00068C4689D
:1053900014F0804F0C680D6815BF248824780235FE
:1053A000013544F000440D604463196B254B0979C5
:1053B0001970214912B1CA6A12791A70F0BC70478B
:1053C000521A9A620122D9E7586B196805681E4C77
:1053D0000A63CC62CC682D681C4E24F080440327FD
:1053E000B542CC6083F825701FD1037F4260022B49
:1053F000C2601ED0F0BC07F001BC016890F8240028
:10540000CC6840F000404863CFE7CC8BC2F3080083
:1054100004F47E442043C883A7E7CC8BC0F3080084
:1054200004F47E442043C88394E72B461146F0BC25
:1054300018478368F0BC184758FAFF1F1F800040C8
:105440001C8000401B80004000000FFF055300003F
:1054500090E80C00F0B41C6859682568164F174E88
:1054600029432160164D17491760D66015611160F8
:10547000417A154A5C180A3194F8244053F82150B7
:1054800002EBC40149680D60017A5C1803EB8101ED
:10549000247ECD6902EBC40149680D60817A5818F9
:1054A00003EB810390F83000596B02EBC002F0BCB3
:1054B00053681960704700BF01401F000110003899
:1054C0000110007800001F80506D010042680368E1
:1054D00005CA10B4046822430260D868840100F051
:1054E000E06205D5080900F4706021F470410143C1
:1054F000D8681143814209D01A68500408D407487B
:10550000186041F08040D96018611A6010BC704783
:1055100041F08042D96010BC1A61704701401F0001
:105520004268437A134493F824308B4209D0F0B494
:1055300092F824408C4205D092F825408C421AD033
:10554000F0BC7047002421461668556836682E4224
:105550000FD00A4D05EBC30300275E685318376070
:1055600093F8243005EBC3050A316B6852F821200B
:105570001A604472E4E701242146E5E7506D01001A
:105580004268037A13441B7E8B4207D0F0B4147E2A
:105590008C4204D0547E8C421AD0F0BC7047002458
:1055A00021461668556836682E420FD00A4D05EB25
:1055B000C30300275E68531837601B7E063105EB76
:1055C000C30502EB81026B6852681A600472E4E75B
:1055D00001242146E5E700BF506D01004268837A4F
:1055E000134493F830308B4209D0F0B492F8304035
:1055F0008C4205D092F831408C421BD0F0BC7047F1
:10560000002421461668556836682E4210D00B4D8E
:1056100005EBC30300275E685318376093F83030FA
:105620000C3105EBC30502EB81026B6852681A600E
:105630008472E3E701242146E4E700BF506D0100D6
:1056400038B590F90230002B044612DBA56805F14D
:10565000240001F0FDF928B9637843F00103637079
:10566000002038BD05F50C7001F0F2F90028F3D0E8
:1056700038BD8068A1692430012201F0A3F9002817
:10568000EAD0A38803F00F035B01C518E4D0C35C24
:10569000E52BE1D023780B4A1B0744BFE369EB619C
:1056A000236A12686B831B0CAB8232B105F11601C1
:1056B00005F1180090472B8B6B82A37803F07F03D2
:1056C000A370C3E7685300202DE9F041037803F08D
:1056D00020032BB903F0FF044269204B9A4203D9FF
:1056E00000263046BDE8F08183780169054663F005
:1056F0007F038068AB7005F1100201F01DFB0646C8
:105700000028EDD02969A86801F0CAF90746A86801
:1057100039462430052201F055F980460028DFD0B3
:105720004FF4007221460AF041F8AB681A79012A59
:105730000FD9012403E0AB681A79A24209D9E11913
:105740001868424602F014F90134E4B20028F2D19C
:10575000C6E76B6903EB42226A61C2E7FFFD1F00E7
:1057600038B5037804461BB900232370012038BDE7
:1057700090F90230002B14DBA56805F1240001F03C
:1057800067F938B9637843F001036370002323702D
:10579000002038BD05F50C7001F05AF90028F1D051
:1057A000E2E78068A1692430012201F00BF90028AA
:1057B000E8D0A38803F00F035B01C518E2D0C35CF7
:1057C000E52BDFD023780B4A1B0744BFE369EB616D
:1057D000236A12686B831B0CAB8232B105F1160190
:1057E00005F1180090472B8B6B82A37803F07F03A1
:1057F000A370C1E7685300202DE9F0470D7815F03C
:10580000700F88B003D1002008B0BDE8F087C32333
:1058100004460D4600F07EFE0028F4D05D4B626920
:10582000012610219A42A6702170ECD881236218BB
:10583000A3702169A06801F07FFA0028E3D02169F4
:10584000A06801F02DF90746A068394624300522EA
:1058500001F0B8F880460028D5D04FF4007200213E
:1058600009F0A4FF08E0F1190068424602F080F850
:105870000136F6B20028C6D0A0680279B242F2D84A
:10588000636921782669266203EB4223636100295C
:1058900074D124300122A16901F094F80028B2D01B
:1058A000A68806F00F0610EB4616ACD01023F37254
:1058B000B26830687168F368B6F81490B6F81AA048
:1058C0006F460FC730697169B269F36908AE0FC7D7
:1058D0004FF02E084FF02033216AA06806F8208D83
:1058E000CDF80530CDF80130ADF8093001F0D8F829
:1058F000A3680146012203F1240001F063F8864603
:10590000002880D03746ADF81490ADF81AA00FCF1C
:10591000CEF80000CEF80410CEF80820CEF80C30F7
:105920000FCFCEF81000CEF81410CEF81820CEF815
:105930001C302B6A8DF801801A0C3546ADF81A30F0
:10594000ADF814200FCD0EF12006CEF820007160C6
:10595000B260F3600FCD30617161B261F361A46830
:1059600004F1240001F074F800283FF44CAF04F572
:105970000C7008B0BDE8F04701F06AB813B100231D
:10598000236163612046FFF75BFE00283FF43BAFD5
:10599000A0687EE7FFFD1F002DE9F041064692B0AA
:1059A0003478019200208DF824008DF8250024B968
:1059B0000D46097811F0700F03D1002012B0BDE838
:1059C000F081144612782F2A2DD00DF1040803AF70
:1059D000002B53D042463946204600F0F5FB3A46AC
:1059E000294601230028E8D0019C24783046002C69
:1059F00061D000F08FFD3A46294620B93046FFF7C6
:105A0000FBFE0028D9D035460FCD09AC0FC40FCD11
:105A10000FC433782A682260002B48D100233370EA
:105A2000019C09ADD6E70134019422782F2AFAD0DF
:105A3000AD680093242209A8002109F0B7FE0B9558
:105A4000EA79009B102A3ED0202AB6D140228DF858
:105A50002420012209AD8DF826200DF1040803AFA2
:105A600063B1B7E70FCD0FC40FCD0FC433782A68E9
:105A70002260C3B90023019C337009AD4246394608
:105A8000204600F0A1FB3A4629460123002894D085
:105A9000019C2478304674B100F03CFD354609ACD9
:105AA00000288AD0DEE73046FFF7CAFDE2E730463D
:105AB000FFF7C6FDB2E73A4629463046FFF79CFE9F
:105AC00012B0BDE8F08120228DF82420C1E700BF8C
:105AD0002DE9F041064692B03478019200208DF80D
