:1000000000800020BD01000099B1000051B1000046
:1000100051B1000051B1000051B1000051B10000D8
:1000200051B1000051B1000051B1000099B1000080
:1000300099B1000051B10000F9CC000049CF000097
:1000400099B1000099B1000099B1000099B1000088
:1000500099B1000099B1000099B1000099B1000078
:1000600099B1000099B1000099B1000099B1000068
:1000700099B1000099B1000099B1000099B1000058
:1000800099B1000099B1000099B1000099B1000048
:1000900099B1000099B1000099B1000099B1000038
:1000A0008D50000099B1000099B1000099B1000095
:1000B00099B1000099B1000099B1000099B1000018
:1000C00099B1000099B1000099B1000099B1000008
:1000D00099B1000099B1000099B1000099B10000F8
:1000E00099B1000099B1000099B1000099B10000E8
:1000F00099B100001DD6000099B1000049D7000059
:1001000099B1000075D8000099B1000099B10000C4
:1001100099B1000099B1000099B1000099B10000B7
:1001200099B1000099B1000099B1000099B10000A7
:1001300099B1000099B1000099B1000099B1000097
:1001400099B1000099B1000099B1000099B1000087
:1001500099B1000099B1000099B1000099B1000077
:1001600099B10000F1B8000099B1000099B1000008
:1001700099B1000099B1000099B1000099B1000057
:1001800099B1000099B1000099B1000099B1000047
:1001900099B1000099B1000099B1000099B1000037
:1001A00099B1000099B1000099B1000099B1000027
:1001B00099B1000099B1000085CA0000564B4CF27D
:1001C000205210B51A804DF628121A8000BF00BFC9
:1001D00000F07EFB514B4FF010621A60504A9A605B
:1001E000504ADA60504A136813F4807304D14F49BF
:1001F0000B604FF4A85313604D4B1A78110703D5C9
:100200001A7842F008021A704A4B4B492A221A7097
:100210004A4A4B4B8B4204D252F8040F43F8040B6A
:10022000F8E7484B484900228B4202D243F8042B9E
:10023000FAE74649464A002352F8230041F82300D2
:1002400001336F2BF8D1434B434A802103F8011B44
:100250009342FBD1414B3D4A1A60414B8A221A70AE
:10026000A3F5805324225A70A0221A709A7992071B
:10027000FCD59A79D406FCD43A4A937903F00C035E
:10028000082B384BF9D103221A7140225A719A79FE
:100290009006FCD5334A9179324B4906FBD5324A58
:1002A000324911600221516020221A709A7902F0BD
:1002B0000C020C2AFAD12E4B2E4A1A602E4B2F4AD2
:1002C0001A6000225A60072243F8042C2C4AC3F813
:1002D0000C2D62B60BF082F8144B1B68DA0705D5BB
:1002E00028480BF069F8284B284A1A60284B1B78DD
:1002F0005B0609D5244C254B22689A4204D121483B
:100300000BF05AF8002323600EF080FE0AF048FF3D
:100310000DF0E2F8FEE700BF0E20054030800440FB
:10032000823F04000100002B10D0034014D0034092
:1003300002D0074000E00740E8090020D873010020
:1003400020F9FF1FE8090020FC56002000F4FF1FE1
:100350000000000000E400E05FE400E008ED00E0E1
:100360000050064000400640448004400000030165
:1003700004800440C010050014E000E0FF76010096
:100380000000202013D5AD5C1CE00340A5C3945AA7
:1003900000F00740FFFFFFFFFFFFFFFFFFFFFFFF32
:1003A000FFFFFFFFFFFFFFFFFFFFFFFFFFFFFFFF5D
:1003B000FFFFFFFFFFFFFFFFFFFFFFFFFFFFFFFF4D
:1003C000FFFFFFFFFFFFFFFFFFFFFFFFFFFFFFFF3D
:1003D000FFFFFFFFFFFFFFFFFFFFFFFFFFFFFFFF2D
:1003E000FFFFFFFFFFFFFFFFFFFFFFFFFFFFFFFF1D
:1003F000FFFFFFFFFFFFFFFFFFFFFFFFFFFFFFFF0D
:10040000FFFFFFFFFFFFFFFFFFFFFFFFDEF9FFFF23
:1004100010B5054C237833B9044B13B10448AFF33E
:1004200000800123237010BDE809002000000000B7
:10043000D4730100084B10B51BB108490848AFF34D
:1004400000800848036803B910BD074B002BFBD0A0
:10045000BDE81040184700BF00000000EC09002074
:10046000D4730100E809002000000000002070475C
:10047000704700BF027C02F0080202F0FF0332B1B5
:10048000C36A406A181A48BF6FF0004070471846A8
:10049000704700BFF8B55548554D564C297803783C
:1004A0002278DFF868E1544F544E120442EA0323E5
:1004B000FF222A700270802022708EF800003870AF
:1004C000B2794F480B4312F00C0FC36002D1B379DD
:1004D000DC063DD4494A9379C3F38103032B40D012
:1004E000464B9A79C2F38102022A42D0434A937959
:1004F000C3F38103022B53D0404A9379C3F38103A2
:10050000022B61D03D4A9379C3F38103012B51D073
:100510003A4A9379C3F38103012B5CD0374B9A7924
:1005200012F00C0F03D19A79D20600D49B79354D85
:10053000354B2A7853F82240D4B1236820469B6873
:1005400098472B7804EB83046468002CF5D1F8BD40
:10055000B3799806EBD5294A9379C3F38103032B2A
:10056000BED19379D906BBD493799B06DFD4B7E784
:10057000F8BD9A79D706B9D49A799606B6D559783E
:1005800001F0020101F0FF020029AFD120211A7011
:100590001A461970937903F00C030C2BFAD1C6E7B5
:1005A0009379DD06A8D493799C06A5D4537898074F
:1005B000BDD5A1E79379DF06AAD593799E06A7D486
:1005C00053789D07B3D4A3E79379D9069AD4537887
:1005D0009B07ACD496E79379DC069FD59379980670
:1005E0009CD453789907A2D598E700BF06C007406E
:1005F00005C0074007C0074009C00740004006404B
:10060000D4560020AC5300206C53002008C0074093
:1006100090F92410104B03604B1C06D0F0B40F4E21
:1006200056F82130984201D0F0BC70470C4F57F873
:10063000213033B18D0000245A1953685460002BC7
:10064000FAD1084C23780022013B237047F821207F
:1006500046F82120E8E700BF8C6201008C5300209F
:100660006C530020AD53002038B590F924506B1C1A
:100670001BD00E4B0E4953F825400E4BEDB24FF0F8
:10068000FF320D701A6084B1AD0002E02C44646842
:100690005CB194F82530002BF8D0236820462C4418
:1006A0001B6898476468002CF3D138BD6C53002058
:1006B000AC530020B8F3FF1F704700BF90F924101F
:1006C000104B03604B1C06D0F0B40F4E56F821308F
:1006D000984201D0F0BC70470C4F57F8213033B12D
:1006E0008D0000245A1953685460002BFAD1084C2D
:1006F00023780022013B237047F8212046F821206F
:10070000E8E700BF8C6201008C5300206C5300208E
:10071000AD53002090F92410104B03604B1C06D001
:10072000F0B40F4E56F82130984201D0F0BC70471B
:100730000C4F57F8213033B18D0000245A195368FB
:100740005460002BFAD1084C23780022013B23701F
:1007500047F8212046F82120E8E700BF8C6201001D
:100760008C5300206C530020AD53002010B50021A5
:1007700004460CF04BF9B0B1B4F8B4319BB2C3B13C
:10078000B4F8B031B4F8B2219BB20133632BC8BFC7
:10079000002392B2934207D09A1D04EB82029BB2CF
:1007A0005060A4F8B03110BDD4F8B8310133C4F8AA
:1007B000B831BDE810400CF0E5B800BF103005F0CE
:1007C00055BC00BF00B583B002AB012203F8011D88
:1007D0001030194605F04AFC03B05DF804FB00BF79
:1007E000103005F01FBB00BF00B583B001220DF132
:1007F0000701103005F050FA01280CBF9DF80700E2
:100800004FF0FF3003B05DF804FB00BF103005F07F
:10081000DFBB00BF2DE9F0410E4680460AF0C6FD61
:10082000174D286007F08EFF0746286807F066FF1F
:100830000446286807F050FF6401C0B204F4FF5476
:10084000BFB20443A7F2BC7744EA4724A8F80040AB
:10085000286807F065FF0746286807F019FF044677
:10086000286807F027FFFF02640107F4FF2704F45C
:10087000FF54C0F346003C4304433480BDE8F0819C
:10088000EC4E002038B5054C014620460CF078FBB4
:10089000054620460CF0EEFB284438BD8CFFFF1FB8
:1008A00010B504460FF06CFA21460246BDE8104030
:1008B00001480CF051BB00BFBC51002010B50446EC
:1008C0000FF05EFA01462046BDE810400BF082BEF4
:1008D000464A474B102010801B781B0734D5F0B5D3
:1008E000444E454D454C31782B782278DFF82CE189
:1008F000434F824042EA03230B43FF2280213270A0
:100900002A7022708EF800103970D9073D4A14D52C
:100910001A2393603C4F3D4E3D4D3E4C3E4910796D
:1009200000233B7053709370D370D3603370137196
:100930002B70237013700870F0BD1F0705D4DE06FE
:1009400006D504239360E5E7704721239360E1E730
:100950009D0604D45C0604D516239360DAE7906004
:10096000D8E7180602D509239360D3E7D90502D545
:100970000A239360CEE79F0502D50D239360C9E754
:100980005E0502D50B239360C4E71D0502D51E2327
:100990009360BFE7DC0402D502239360BAE79804B2
:1009A00002D507239360B5E7590402D50623936067
:1009B000B0E71F0402D515239360ABE7DE0302D531
:1009C00024239360A6E79D0302D522239360A1E729
:1009D000DC0202D5252393609CE71803F5D4590364
:1009E000F3D49B0244BF2323936093E70020054088
:1009F00002D0074005C0074006C0074007C00740B7
:100A000009C00740D456002000C0074001C007407D
:100A100002C0074003C0074004C0074008C00740A9
:100A2000002976D02DE9F04F0C469100631883B071
:100A30005D68002D57D06B185E68002E50D073187B
:100A40005F68002F49D07B18D3F80480B8F1000FFD
:100A50003CD008EB0103D3F80490B9F1000F32D079
:100A600009EB0103D3F804A0BAF1000F27D00AEB79
:100A70000103D3F804B0BBF1000F18D00BEB010356
:100A80005B6863B1194401934968FFF7C9FF019B93
:100A900093F825201AB11A681846536898479BF8AE
:100AA000253023B1DBF8003058465B6898479AF848
:100AB000253023B1DAF8003050465B68984799F842
:100AC0002530002B35D198F8253063BB97F82530B9
:100AD0001BB13B6838465B68984796F82530CBB920
:100AE00095F8253063B994F8253013B903B0BDE803
:100AF000F08F23685B68204603B0BDE8F04F1847CD
:100B00002B6828465B68984794F82530002BEDD079
:100B1000EFE77047336830465B68984795F82530B3
:100B2000002BE0D0ECE7D8F8003040465B689847EF
:100B3000CCE7D9F8003048465B689847C3E700BF68
:100B400090F92420531C26D01B4B2DE9F04153F87B
:100B50002240D2B2ECB19300E1184D68B5B1E9186A
:100B60004E6866B1F1184F6837B13B445968FFF7DA
:100B700057FF97F82530A3B996F8253063B995F853
:100B800025301BB12B6828465B68984794F82530C0
:100B900063B9BDE8F0817047336830465B689847B9
:100BA000EDE73B6838465B689847E5E723682046F1
:100BB0005B68BDE8F04118476C5300202DE9F8430D
:100BC0004F4CB4F8B021B4F8B23192B29BB29A4211
:100BD00038BF6432D31A3F2B67DD4A4DD4F8AC914D
:100BE000DFF81C8105F58047002637E04FF480725E
:100BF000002109F0F3FE48460BF0C4FEC4F8AC61D6
:100C0000B4F8B231B4F8B0219BB292B293424ED054
:100C10000133632B86BF4FF0000E73461FFA83FE2D
:100C2000063304EB83034FF48072D3F80490C4F8C6
:100C3000AC9109F104012846A4F8B2E109F0CEFE16
:100C4000B9F1000F04D048460BF09CFEC8F8AC6127
:100C500005F50075BD424FF0000934D0A5F5807050
:100C6000B9F1000FC2D1B4F8B231B4F8B0219BB2DF
:100C700092B293423DD00133632B86BFCE4673467A
:100C80001FFA83FE063304EB83034FF48072D3F81C
:100C90000490C4F8AC9109F10401A4F8B2E109F0A0
:100CA0009DFEB9F1000FABD0A5E7BDE8F88328465B
:100CB0004FF48072002105F5007509F08FFEBD42EA
:100CC0004FF00009CAD14FF480420F490F4805F098
:100CD000CDF9013005D00E4A136820331360BDE80A
:100CE000F883012114200AF0CDF90A4B0A4A1A6050
:100CF000F1E749464FF4807209F070FE80E700BFCB
:100D0000004F0020700B0020700A0020480A0020CD
:100D1000FC4E00200CED00E00400FA0570B5124C0A
:100D2000124D13480D210BF055FC20460CF0A2F992
:100D30002E88104810210BF04DFC314620460CF057
:100D40001FF920460CF096F90B4A0C4B12882A80AA
:100D50000B480022A3F8B42104F046FD6420BDE84E
:100D600070400AF09DBC00BF8CFFFF1FC4540020E0
:100D7000B0620100C0620100EC540020004F00206E
:100D8000480A00202DE9F04F95B00AF00FFBDFF87C
:100D90006892884CC9F8000007F0B0FC23689842BC
:100DA00000F067820A218448844E854F0BF012FCC4
:100DB00084480CF05FF9D9F8000007F09FFC206030
:100DC000D9F8000007F0BEFC23687F4902467F483F
:100DD0000EF080FF002401237C4A7D49376007A87C
:100DE0008DF81C408DF81D4004F01AFEDFF8DC8100
:100DF000002110200AF018FC98F8002000232F2A68
:100E00008DF81C308DF81D3000F0B68107AC2046FF
:100E100001236E4A6E4904F09FFE58B19DF81C30C4
:100E200013F0700F06D00FCC694D0FC50FCC0FC556
:100E300023682B60D9F8000007F084FC0446D9F839
:100E4000000007F05BFC8246D9F8000007F044FC84
:100E50000590D9F8000007F063FC8346D9F800003C
:100E600007F016FC0490D9F8000007F023FC059A5F
:100E7000049B0092039002932246CDF804B053469F
:100E8000544955480EF026FF0025082437601020ED
:100E900009F0DCFF0DF09AFC4FF06A510DF0EAFC0E
:100EA000014628460DF0DEFB013C0546EFD14848DF
:100EB000DFF8489104F098FC484901F23C4004F006
:100EC000CBFE4FF47A7646230BA8454A40498DF86D
:100ED0002C408DF82D408DF820408DF82840099643
:100EE000CDF81C9004F038FE9DF82C30002B40F01B
:100EF00051810E213B480BF06DFB012114200AF0BB
:100F0000C1F8394B394A1A6098F800202F4900235C
:100F10002F2A8DF81C308DF81D3000F0208107A895
:100F200001232A4A2A4904F017FE60B19DF81C30BB
:100F300013F0700F07D007AC0FCC254D0FC50FCCA9
:100F40000FC523682B604FF47A7500240995C223DE
:100F5000214A1F498DF82C400BA80BAD8DF82D4070
:100F60008DF820408DF82840CDF81C9004F0F4FD59
:100F70000FCD1F4E9DF82040347106F110040FC4B0
:100F80000FCD0FC4099A9DF828302968B2603373D9
:100F9000114821600EF0F4FE01460F48154FDFF8AE
:100FA00048B0DFF848A00BF015FB06480CF062F8DB
:100FB0006CE000BF28520020D4620100685300207A
:100FC000150800008CFFFF1FE0620100D0500020D8
:100FD000B04E0020EC62010094510020744A0020C1
:100FE0000C6301004C6301000CED00E00400FA0505
:100FF000380A0020CC500020EC4E0020686201002E
:1010000004F0AAFD60B19DF81C30AA4D13F0700FDA
:1010100007AC05D00FCC0FC50FCC0FC523682B60D4
:101020004FF47A750024C223A34AA24909950BA85C
:101030000BAD8DF82C408DF82D408DF820408DF8AB
:101040002840CDF81C9004F087FD0FCD9B4C9DF8F7
:1010500020E086F804E00FC40FCD0FC49DF82830BF
:10106000099A33732968B260934821600EF088FEB4
:10107000014691480BF0AEFA91480BF0FBFF0A20B5
:101080000AF00EFB3B68B3F57A7F61DC347C8D4956
:101090008948F4B93B6801331A463B600EF01AFEEA
:1010A00098F80050884A83498DF81C402F2D4FF046
:1010B000010307A88DF81D40A2D15478002C9FD1C0
:1010C000084604F091FB814901F23C4004F0C4FD64
:1010D000A6E77F487F4907687F4C804A804B814D57
:1010E00003C9206092E80300A06093E80300102683
:1010F0000123A382E382E060266138460DF0A6FD5D
:101100003946A06138460DF0ADFA0DF09FFD764AE4
:10111000E0612B68668492E803005B0203F1240619
:101120002C226062214602276448A36227846660FD
:1011300004F09CFF09216D480BF04CFA29686048C7
:101140000BF01EFF5E480BF095FF15B0BDE8F08F69
:101150000121142009F096FFCBF800A096E74B7808
:10116000002B7FF4DCAE534804F03EFB574901F2FC
:101170003C4004F071FDE6E698F80130002B7FF466
:1011800045AE4C4804F030FB504901F23C4004F0BD
:1011900063FD4FE64848564E0EF0F2FD46490246C2
:1011A0000BA804F063FF14A92C2301F8383D012299
:1011B0000DEB030004F05AFF06F1080707AC16F820
:1011C000011F00230A2220460BF0A4FFBE42F6D1E5
:1011D000284648490DF04EFB4FF078510DF04AFB80
:1011E00014A92C260546012201F8356D0DEB0600E9
:1011F00004F03CFF404B18680CF092FE02270B46AF
:101200000246009720460BF0E3FF14A9012201F8E3
:10121000366D0DEB060004F029FF28460CF080FE29
:1012200000970B46024620460BF0D2FF14A901227C
:1012300001F8376D0DEB060004F018FF2F480EF093
:101240009FFD2E4902460DEB060004F00FFF2046DD
:101250000BF010FF28462A490DF0AAFC60B9284679
:1012600028490DF0A5FC002858D10BA804F0BCFAC1
:101270004AE6254E254FB9E5254E3368002BEED0C2
:10128000012105200AF09EF940F6B8300AF008FA6C
:10129000002105200AF096F91E4A1F490023137009
:1012A0000BA80B22336004F0E1FE20460BF0E2FEB7
:1012B000D5E700BFB04E002094510020480A00201E
:1012C0008CFFFF1F5C630100D0500020744A002097
:1012D000085200206863010078520020706301000A
:1012E00078630100F45100208063010088630100ED
:1012F00053510020CDCCBC406451002008FAFF1FA0
:101300006666464000004040685300201508000013
:1013100060510020F94E0020146301002822174973
:101320000BA804F0A3FE20460BF0A4FE0BA804F0CB
:101330005BFA00250824102009F088FD0DF046FA1C
:101340004FF06A510DF096FA014628460DF08AF9E1
:10135000013C0546EFD10A490DF08CFA4FF0785167
:101360000DF088FA07490DF023FC00283FF47DAF0B
:1013700047F230500AF094F9DBE700BF2063010028
:10138000CDCCBC400000404038B50E211C481D4D5E
:101390000BF020F91C480BF06DFEFFF7F3FC1B4B24
:1013A000D5F8AC0100241C6018B10BF0EBFAC5F8BD
:1013B000AC41B5F8B241B5F8B031A4B29BB2A3428A
:1013C0000ED00134642C28BF0024A31D05EB830339
:1013D00058680BF0D7FAB5F8B0319BB2A342F0D100
:1013E0000123A4B20B210A48A5F8B241A5F8B431F3
:1013F0000BF0F0F80448BDE838400BF03BBE00BFEE
:1014000094630100004F00208CFFFF1FFC4E002062
:10141000A463010070B517488EB004F0E5F91649D1
:101420000EAD01F23C4004F017FC144B45F8343D7E
:1014300000244623124A0F498DF8144005A84FF4A2
:101440007A768DF815408DF808408DF81040039697
:1014500004F082FB9DF8143053B12922094905A8F4
:1014600004F004FE28460BF005FE05A804F0BCF9C4
:101470000EB070BDB04E0020744A002068620100BA
:101480000C630100B0630100264B1B680F2B0CD8C6
:10149000DFE803F00C1014181C2024282C303438FA
:1014A0003C404408204B214A1A6070471E4B204A9A
:1014B0001A6070471C4B1F4A1A6070471A4B1E4A2D
:1014C0001A607047184B1D4A1A607047164B1C4A29
:1014D0001A607047144B1B4A1A607047124B1A4A25
:1014E0001A607047104B194A1A6070470E4B184A21
:1014F0001A6070470C4B174A1A6070470A4B164A1D
:101500001A607047084B154A1A607047064B144A18
:101510001A607047044B134A1A607047024B124A14
:101520001A60704700FAFF1F64510020BD549341B8
:10153000103377C0993918C0BE0D68BFCE71153F02
:101540008D090340CCC9624009A7A3407DDBD1408F
:10155000C416014154FC1741D0E8304119554641A9
:101560009FAB5F41A04176415E2E8641F8B5394D73
:10157000394C2A6854F8223013B1013B44F8223028
:1015800010213648334F0BF025F82B68344854F8B7
:1015900023100A2200230BF0BDFD31480BF06AFD39
:1015A0002B6854F82320DAB901332E4A3B60012618
:1015B000042B167022D02C4C2C4A04F58C6712F8A0
:1015C0002320384604F26C414FF0384305F0B0FF59
:1015D000E0B92748FFF772F928680130FFF752F9A0
:1015E0000E2124480AF0F6FF29681D4801310BF04E
:1015F000C7FC1B48BDE8F8400BF03CBD0E211E485F
:101600000AF0E8FF16480BF035FDFEE704F23C4017
:10161000276004F0E9F83146204605F08DFE0146CA
:1016200090B1114C04F23C463046214604F014FBC4
:101630000028CED094F83C3413F0700FC9D00F4B73
:101640001E60FFF7E7FECBE7204605F075FE002899
:10165000E7D1BEE76452002010520020DC63010095
:101660008CFFFF1F00520020744A0020BC50002055
:101670001064010000640100F06301006453002065
:1016800008B50121052009F09DFF4FF4FA600AF02A
:1016900007F80021052009F095FF024B01221A707E
:1016A00008BD00BFF94E002008B50121052009F052
:1016B00089FFC82009F0F4FF0021052009F082FF0E
:1016C000642009F0EDFF024B01221A7008BD00BF33
:1016D000F94E002008B50121052009F073FF40F6FE
:1016E000B83009F0DDFF0021052009F06BFF024B47
:1016F00000221A7008BD00BFF94E00202DE9F0430A
:101700008FB004460EF03CFB00B201281CDDB4F99A
:10171000003044F25372934200F0A68118DD44F683
:101720005452934200F0DA8045F2532293422FD074
:1017300044F65212934207D10BAAE01CBD490EF0A9
:10174000EFFABD4B0B9A1A6001200FB0BDE8F08391
:1017500044F24E4293420FD044F252429342F3D1AC
:101760000BAAE01CB3490EF0DBFAB44B0B9A1A60DB
:1017700001200FB0BDE8F0830BAAE01CAD490EF0CC
:10178000CFFAAF4B0B9A1A6001200FB0BDE8F0837F
:101790000AAD09A908AA05ABE01C039502910192C4
:1017A000009307AA06ABA7490EF0BAFAA64B079D0D
:1017B000596818689A680A9EDDF824E0DDF820C0B0
:1017C000A5F5FA65ADB20BAF2CB207C7069F059918
:1017D0001E3415F0030F4FEAA408FDB240F0598102
:1017E0009A4B022D8CBF1F4600279948994BC8EB96
:1017F000040400FB08F06A1E03FB0400002A00EB4F
:10180000070347DD9DF82C409048012A00FB043374
:1018100040D09DF82D40022A00FB04333AD09DF8B9
:101820002E40032A00FB043334D09DF82F40042AB5
:1018300000FB04332ED09DF83040052A00FB043312
:1018400028D09DF83140062A00FB043322D09DF8B1
:101850003240072A00FB04331CD09DF83340082A8D
:1018600000FB043316D09DF83440092A00FB0433F2
:1018700010D09DF835400A2A00FB04330AD00B2A09
:101880009DF8364018BF9DF8372000FB043318BF81
:1018900000FB02335FFA8EF2C2EB02125FFA8CF0A9
:1018A0004FF46164920004FB0022684D6A4C6B485F
:1018B000C9B2013952FA86F205FB01221344122102
:1018C00023600AF087FE216865480BF059FB6448E5
:1018D0000BF0D0FB01200FB0BDE8F0830AAD09A9E1
:1018E00008AA05ABE01C039502910192009307AA98
:1018F00006AB54490EF014FA534B079F9A681868C8
:1019000059680A9EDDF824E0DDF820C0A7F5FA67E3
:10191000BFB20BAC3DB207C4069A059C1E3517F04A
:10192000030F4FEAA508D7B240F0B080474B022F13
:101930008CBF99464FF000094549464BC8EB050559
:1019400001FB08F17A1E03FB0510002A00EB0903D6
:1019500047DD9DF82C003D49012A01FB003340D0B2
:101960009DF82D00022A01FB00333AD09DF82E008D
:10197000032A01FB003334D09DF82F00042A01FB19
:1019800000332ED09DF83000052A01FB003328D00B
:101990009DF83100062A01FB003322D09DF8320069
:1019A000072A01FB00331CD09DF83300082A01FBF5
:1019B000003316D09DF83400092A01FB003310D003
:1019C0009DF835000A2A01FB00330AD00B2A9DF846
:1019D000360018BF9DF8372001FB003318BF01FB0C
:1019E00002335FFA8EF2C2EB02125FFA8CF04FF410
:1019F0006165920005FB0022E1B2144C164D52FACB
:101A000086F2013904FB01241C4420462C6009F0B5
:101A1000D3FC0B2113480AF0DDFD214600230A22E6
:101A20000F480BF077FB0E480BF024FB01200FB0A2
:101A3000BDE8F0835064010048FAFF1F3CFAFF1F25
:101A40006C0A00203064010098620100805101009E
:101A50000085E2018033E101F44E0020546401006E
:101A60008CFFFF1F44640100E01C0BAA0C490EF020
:101A700057F90B9B0F2B0ED90A4B042119600F202D
:101A800009F000FB01200FB0BDE8F0834FF0000922
:101A900052E70027A9E6034AD9B21360EFE700BF77
:101AA0005064010000FAFF1F2DE9F043A3B00025A8
:101AB0004FF47A76764F77480A968DF830508DF845
:101AC00031508DF824508DF82C50089703F08CFE7F
:101AD000714901F23C4004F0BFF801236F4A6D499F
:101AE000179619A88DF864508DF865508DF85850E8
:101AF0008DF86050159704F02FF80DF1640EBEE8D4
:101B00000F000CAE0FC6BEE80F000FC69DF8308068
:101B1000DEF800109DF85800179A9DF8603031608B
:101B20008DF824000A928DF82C30B8F1000F46D0C1
:101B30002E468DF800604FF000094FF0FF0801229B
:101B400015A90CA804F0A8F809F1010322AA01289C
:101B50004A441BB224D01D2B02F8888C05DC994620
:101B6000EDE71D2B01DC0A2AF9D1013B9BB222AA29
:101B70001A4402F8886C9DF800202F2A04D0012B0B
:101B800002D96846FFF7BAFD9DF830301B0711D423
:101B90000CA803F029FE2DBB012023B0BDE8F08383
:101BA0009DF854200D2A08BF4B4662D11D2BDCDC6A
:101BB0009946C4E7139A119B9A42BAD1E8E71421D7
:101BC00037480AF007FD37480BF054FA0D22364922
:101BD00036480BF0C1F935480BF04CFA404623B0BB
:101BE000BDE8F0830B2132480AF0F4FC00230A22FE
:101BF00021462C480BF08EFA2A480BF03BFA254878
:101C000003F0F2FD2449002501F23C4004F024F8E1
:101C10004FF47A768DF864508DF865508DF85850F1
:101C20008DF8605063231D4A1A49179619A819ADFB
:101C3000159703F091FF0FCD0CAE0FC60FCD0FC659
:101C40002968179A9DF860309DF8585031600CA8AB
:101C500021460A928DF82C308DF8245004F016F9A4
:101C6000022214490CA804F001FA0CA803F0BCFDF0
:101C700092E722AB03EB0901542A09F1010301F8B1
:101C8000882C1BB27FF46DAF119C0546013C8DE79B
:101C900068620100B04E0020744A002068640100B0
:101CA000846401008CFFFF1F9C640100BC51002074
:101CB000746401008064010030B583B002AD079CFC
:101CC00005F8082D8DF80200069A8DF804304E3480
:101CD00028468DF801108DF805208DF8064006F095
:101CE00045FD09F069FB09F061FB024B186003B088
:101CF00030BD00BF704A00202DE9F04104460420A9
:101D00000D46164609F082FC8046032009F07EFC51
:101D10000746B8F1000F2AD1DFF89C80244AD8F892
:101D200000300121132B117039DD0133642BC8F809
:101D300000303ADDC82BD4BF05343C3467B91D4FA1
:101D40001B4A3B680121132B117022DD3C2C16DC51
:101D500001233B60013C02E0164B00221A60AC42BA
:101D600009DBB442C8BF2C462046BDE8F081124BC7
:101D700000221A60E2E734462046BDE8F0813B6865
:101D80000133642B3B60E5DDC82BD4BF053C3C3CF4
:101D9000E5E7C82009F084FC3C2CD9DDEFE7C8203A
:101DA00009F07EFCD8F80030BFE70134C6E700BF79
:101DB000F04E0020205200200452002010B5094CA3
:101DC000204608F029FA2046012107F04BFC204666
:101DD000022107F041FC002220461146BDE81040D8
:101DE00007F036BCBC51002038B5054606F0AAFC09
:101DF0001E4C014620460BF0C3F82D200AF0BEFC15
:101E0000284606F07BFC014620460BF0B9F82D2051
:101E10000AF0B4FC284606F05FFC014620460BF0B1
:101E2000AFF8012112480AF0D5FB284606F078FCED
:101E3000014620460BF0A4F83A200AF09FFC284601
:101E400006F026FC014620460BF09AF83A200AF0EC
:101E500095FC284606F02EFC014620460BF090F833
:101E60002046BDE838400BF005B900BF8CFFFF1FCE
:101E70000C6601002DE9F043434A444BDFF818910A
:101E8000DFF81881424D98F80010167899F8007024
:101E90001A78286883B03C2313FB071713FB062628
:101EA00006F03EFC0446286806F0F2FBC4EB04147E
:101EB00000EB8404286806F045FC00F14E03286816
:101EC0008DF8063006F01AFC8DF80500286806F03B
:101ED00003FCB7428DF8040006D2A74232D8A642CE
:101EE00030D303B0BDE8F083A742FAD9A642F8D2B6
:101EF00002A8002399F8002000F8083D98F8003067
:101F00008DF801308DF8022006F030FC0F2128609A
:101F100020480AF05FFB2868FFF766FF09F046FAE1
:101F20002B68834204DA03F5A83303F5C0732B60F2
:101F30000F2118480AF04EFB2868FFF755FF03B041
:101F4000BDE8F08302A8002399F8002000F8083DBE
:101F500098F800308DF801308DF8022006F006FC6C
:101F60000F2128600B480A4C0AF034FB2868FFF761
:101F70003BFF09F01BFA2B688342D9DA03F5A8333B
:101F800003F5C0732360D3E790510020F84E002082
:101F9000F44E0020AC640100340A0020605200209E
:101FA00010B5002009F018F8264C2070012009F027
:101FB00013F86070022009F00FF8A070032009F0F8
:101FC0000BF8214BE07022681A60042009F004F835
:101FD0002070052009F000F86070062008F0FCFF72
:101FE000A070072008F0F8FF184BE07022681A6014
:101FF000082008F0F1FF164B1870092008F0ECFFDC
:10200000144B18700A2008F0E7FF134B18700B20D0
:1020100008F0E2FF114B18700C2008F0DDFF104BA8
:1020200018600D2008F0D8FF0E4B18600E2008F045
:10203000D3FF08B10C4B18700F2008F0CDFF0B4BED
:10204000186010BD685100203CFAFF1F48FAFF1FBE
:10205000340A00206052002090510020F84E0020E9
:10206000F851002030FAFF1F38FAFF1F00FAFF1F57
:1020700038B50A4C0B460546C9B2236009F002F890
:102080006178681C08F0FEFFA178A81C08F0FAFF30
:10209000E178E81CBDE8384008F0F4BF6851002042
:1020A000284B10B51968284C00202160C9B208F0EF
:1020B000E9FF6178012008F0E5FFA178022008F02F
:1020C000E1FFE178032008F0DDFF204B1968216073
:1020D0000420C9B208F0D6FF6178052008F0D2FFCD
:1020E000A178062008F0CEFFE178072008F0CAFFAB
:1020F000174B0820197808F0C5FF164B09201978EE
:1021000008F0C0FF144B0A20197808F0BBFF134BEE
:102110000B20197808F0B6FF114B0C20197808F045
:10212000B1FF104B0D20197808F0ACFF0E4B0E20BC
:10213000197808F0A7FF0D4B0F201978BDE8104063
:1021400008F0A0BF3CFAFF1F6851002048FAFF1FAB
:10215000340A00206052002090510020F84E0020E8
:10216000F851002030FAFF1F38FAFF1F00FAFF1F56
:102170002DE9F04F8DB010290791069000F0BF8037
:10218000202900F0B0800024631C18461D460893E7
:102190000CF018FBE4B244F0E063099000212846FB
:1021A0000A9344F08E430B930CF026FB01465A48E9
:1021B0000CF014FC054607980CF004FB01460CF0EB
:1021C00051FA044606980CF0FDFA014620460CF040
:1021D00051FB014628460CF001FC4FF001084FF07E
:1021E0007E550746C1464FF0010A4FF0000B50469E
:1021F0000CF0ECFA39460CF03DFB04460CF000FD07
:102200000CF0E4FA014620460CF02AFA294606466C
:102210000CF0CEFC4FF0874148B120460CF0C8FCD2
:1022200028B120460CF032FD35468046D1461AF1E1
:10223000010A4BF1000BBBF1000F08BFBAF1400FD0
:10224000D5D109F1FF34089B079E059320460296DD
:10225000CDF81080CDF80C900CF0B4FA4FF07E5110
:102260000CF000FA2D490CF005FB054640460CF039
:10227000A9FA014628460CF0B1FB4FF07C510CF056
:10228000F9FA09990CF0AAFB054670000CF09EFAC9
:10229000014628460CF0A2FB0CF0B2FC204B069A3B
:1022A000019000921F492048204E214D1A460AF005
:1022B00023FF204920480F68220308F1FF3302F46E
:1022C0007F22C3F30B03134327F010420A603360ED
:1022D0000A9B2B600B9B03600B6843F010430B6061
:1022E0000DB0BDE8F08F154B0B9303F140430A93FB
:1022F0004FF0804309930223114D08935BE7114B84
:102300000B9303F140430A934FF081430993042355
:102310000D4D08934FE700BF001B374C001BB74C17
:1023200000D8B805BC6401008CFFFF1F04F1024017
:1023300008F0024080F0024088F0024001000047AF
:10234000001BB74B03000047001B374B2DE9F04F34
:102350000546DFF87C82974E974F98F800E02E6094
:10236000FF2085F82400DFF86C92387859F820C0F7
:102370000023BEF1060F8DB00C4685F8253085F898
:1023800026309CBF88F800309E46BCF1000F00F05C
:10239000A8808C455BD06346810001E09C4256D00A
:1023A0000B445B68002BF9D1634603EB010ADAF8B2
:1023B0000430002BF9D105EB010BCAF80440BEF143
:1023C000060F4FF0FF044FFA80FACBF804308DF877
:1023D0002C4002968DF82D308DF82E3085F824A0F3
:1023E000644605D8002388F80030002C00F0A9804E
:1023F000A24226D0234601E0934222D00B445B68E0
:10240000002BF9D104EB010CDCF80440002CF9D1CD
:10241000CCF804200CAB19440024431CBAF1FF3F54
:1024200041F8244C3B708DF82CA0029605D06349EE
:1024300051F82A3002AA934272D028460DB0BDE866
:10244000F08F0130387028460DB0BDE8F08F0023C2
:10245000FF21BEF1060F02968DF82C108DF82D305D
:102460008DF82E3001D888F800309445E9D06346C5
:10247000810001E09A42E4D00B445B68002BF9D163
:102480008C44DCF804402CB1A4468C44DCF80440B5
:10249000002CF9D10CAB19444FFA80FE431CBEF15D
:1024A000FF3FCCF804203B7041F8244C02968DF895
:1024B0002CE0C2D0414951F82E3002AA9342BCD13F
:1024C00059F82E304FEA8E0623B19A19536854609A
:1024D000002BFAD10023387049F82E3041F82E3005
:1024E000ABE7B0B38100DFF8D4A049F8204005EB9A
:1024F000010C00234AF82050BEF1060FCCF804303E
:102500004FFA80FA4FF0FF0C02968DF82D308DF8BF
:102510002E3085F824A08DF82CC07FF663AF64E7D9
:1025200059F82A304FEA8A0623B19A195368546041
:10253000002BFAD10023387049F82A3041F82A30AC
:102540007BE7F0B11D4B49F8202002AA43F8202078
:1025500060E71B491B480B68019243F080630B60E6
:102560000368194923F080430360152008F052FEE8
:10257000164B98F800E0019A4FF400111960387872
:10258000B0E70F4C0F482368019243F0806323604B
:1025900003680D4923F080430360152008F03AFEDC
:1025A0000A4B019A4FF40011196038784FFA80FAFB
:1025B0008100C7E78C620100AD5300208C530020DE
:1025C00004700440007004409504000000E100E045
:1025D000BCF3FF1F6C5300202DE9F041584D594CBE
:1025E000594E08F0B1FC4FF0FF31584807F000FE9B
:1025F0002A6826600023637223612372E3600AB9AC
:102600009AE01A465369002BFBD154610027504BC6
:102610004C486761A780E780236002F025FB4D4AA4
:102620004FF0010E02F118013B4638461772D76091
:10263000166082F809E01161174600E0396941F837
:102640002300517A434E01339942F7DC29683C4B11
:1026500009B973E019464B69002BFBD14A613E4B27
:102660003E491C600024184654619480D480A2F82E
:10267000B0411160A2F8B2415A60C2F8AC41A2F870
:10268000B441C2F8B8411C725C72DC600AF0CAF94D
:10269000334A344B9069344A1A600CF097F8334D42
:1026A000334B344E18604FF0FF08334B334A3449F4
:1026B00085F825402846012785F824802B606C6327
:1026C000AC6385F83C4085F826700CF08DFC2D4BF2
:1026D0002A4A2D4986F82480304686F82540336002
:1026E00086F8274086F8284086F826700CF07CFC97
:1026F0002A4631462548264DFFF728FE1F4A254920
:1027000022480CF071FC244A244B2549147464209F
:102710004FF47A76547414711473DC7183F83C446A
:1027200083F83D4483F86A4483F86004966015603A
:10273000C3F86C14BDE8F0812C6067E71E608EE77B
:10274000C0540020745100205C620100BC51002084
:1027500060670100004F002038510020AC6201008A
:1027600014FAFF1F4851002044670100EC5000207C
:10277000085200203052002008680100FCF9FF1FB9
:10278000BD0600001C680100150700000C0A0020AF
:102790006862010011060000380A0020744A002017
:1027A0000110013870B5104C06460D4620460A212E
:1027B00002F0C8FDC6F30721204602F09BFBF1B2F0
:1027C000204602F097FBC5F30721204602F092FB5A
:1027D000E9B2204602F08EFB204602F0C5FDB0FAB9
:1027E00080F0400970BD00BF4C53002010B5184C5C
:1027F0000A21204602F0A6FD2046002102F07AFBC5
:102800002046302102F076FB2046002102F072FBC8
:102810000021204602F06EFB204602F0A5FD204676
:102820000A2102F08FFD2046002102F063FB2046C2
:10283000022102F05FFB2046002102F05BFB2046F4
:10284000002102F057FB2046BDE8104002F08CBD8D
:102850004C5300200238032838B504DC002880F2ED
:10286000E181002400E00C240A21C84802F06AFD3E
:102870000021C64802F03EFB3021C44802F03AFB7A
:102880004021C24802F036FB6021C04802F032FB12
:10289000BE4802F069FD0A21BC4802F053FD002148
:1028A000BA4802F027FB2621B84802F023FB00219A
:1028B000B64802F01FFB6C21B44802F01BFBB34882
:1028C00002F052FD0A21B14802F03CFD0021AF4860
:1028D00002F010FB2821AD4802F00CFB0121AB48AF
:1028E00002F008FBF021A94802F004FBA74802F01F
:1028F0003BFD0A21A54802F025FD0021A34802F076
:10290000F9FA2C21A14802F0F5FA0F219F4802F0B4
:10291000F1FA22219D4802F0EDFA9C4802F024FDD4
:102920000A219A4802F00EFD0021984802F0E2FACE
:102930003C21964802F0DEFA0021944802F0DAFACF
:102940000021924802F0D6FA904802F00DFD904B1B
:102950008E481D680A21002D40F0378102F0F2FCFC
:1029600029468A4802F0C6FA3021884802F0C2FAA5
:102970002946864802F0BEFAA221844802F0BAFA3B
:10298000824802F0F1FC0A21804802F0DBFC294673
:102990007E4802F0AFFA02217C4802F0ABFA2946E9
:1029A0007A4802F0A7FA4321784802F0A3FA774860
:1029B00002F0DAFC0A217548764D02F0C3FC0021D2
:1029C000724802F097FA0421704802F093FA00214D
:1029D0006E4802F08FFA21466C4802F08BFA6B4881
:1029E00002F0C2FC0A21694802F0ACFC00216748F1
:1029F00002F080FA0621654802F07CFA0121634862
:102A000002F078FA3021614802F074FA5F4802F06F
:102A1000ABFC0A215D4802F095FC00215B4802F006
:102A200069FA0A21594802F065FA0021574802F074
:102A300061FA0021554802F05DFA544802F094FC16
:102A40000A21524802F07EFC0021504802F052FA5E
:102A50000E214E4802F04EFA00214C4802F04AFA8C
:102A600008214A4802F046FA484802F07DFC0A2153
:102A7000464802F067FC0021444802F03BFA10216E
:102A8000424802F037FAFF21404802F033FAFF21B2
:102A90003E4802F02FFA3D4802F066FC0A213B480E
:102AA00002F050FC0021394802F024FA2221374874
:102AB00002F020FA7F21354802F01CFA7F213348CA
:102AC00002F018FA314802F04FFC0A212F4802F0B8
:102AD00039FC01212D4802F00DFA24212B4802F087
:102AE00009FA0021294802F005FA0021274802F0DE
:102AF00001FA264802F038FC0A21244802F022FCA0
:102B00000021224802F0F6F92421204802F0F2F9CF
:102B100001211E4802F0EEF914211C4802F0EAF9E6
:102B20001A4802F021FC0A21184802F00BFC00218F
:102B3000164802F0DFF92A21144802F0DBF90021DF
:102B4000124802F0D7F90021104802F0D3F90F48DB
:102B500002F00AFC0921104809F03CFD29680F48E1
:102B60000AF00EFA0D480AF085FA0A2107482C6887
:102B700002F0E8FB0021054802F0BCF920210348DF
:102B800002F0B8F9C4F307210AE000BF4C5300205B
:102B90006051002000FAFF1FD86401008CFFFF1F66
:102BA000224802F0A7F9E1B2204802F0A3F91F4839
:102BB00002F0DAFBB0FA80F149091D480AF0E0F9A9
:102BC0001B480AF057FA012038BD02F0BBFB002178
:102BD000164802F08FF93021144802F08BF90021D9
:102BE000124802F087F9AB21104802F083F90F4830
:102BF00002F0BAFB0A210D4802F0A4FB00210B48A9
:102C000002F078F90221094802F074F9002107481E
:102C100002F070F96321054802F06CF9034802F0F4
:102C2000A3FBC7E68000C4B21EE600BF4C530020E1
:102C30008CFFFF1F10B5074B0446102153F82000EE
:102C4000FFF796FA044802F0FBF92046BDE8104071
:102C5000FFF700BE14FAFF1F4C530020302101483B
:102C600006F0BCBCBC5100202DE9F04782B008F052
:102C70009DFBB34BB34E18600121B348B34FB44C26
:102C8000DFF82C93DFF82C83DFF82CA306F0E4FCAC
:102C90000121AD4806F0E6FC12220021AA4806F008
:102CA000D7FC0422AB49A8480AF056F93168A64877
:102CB0000AF066F90222A849A3480AF04DF9A24891
:102CC0000AF0D8F90622A5499F480AF045F9396863
:102CD0009D480AF055F90322A1499B480AF03CF9A6
:102CE0000322A04998480AF037F90A222178964829
:102CF00000230AF00FFA94480AF0BCF9D9F8003022
:102D000058F823000BF062FD97490BF067FE0BF0BB
:102D100007F902460B468C4894490AF0EDF99449AC
:102D2000894801220AF018F9DAF8005000212846F3
:102D30000BF05CFF28B12B21834806F04FFCDAF83A
:102D4000005028460BF0ECF80B46024689497E48B5
:102D50000AF0D2F9022288497B480AF0FDF80121E5
:102D6000794806F079FCD9F80030366858F82330F5
:102D7000700003FB00F000F500402C300BF022FD4A
:102D800079490BF02BFE78490BF028FE7B4B1B6832
:102D9000012B814600F014814FF07E5830460BF035
:102DA00015FD41460BF066FD80463868DFF80CA241
:102DB000734D30440BF00AFD014640460BF00EFE09
:102DC000074620780BF002FD6E4B19680BF052FDA0
:102DD0006D4B044618680BF0F9FC6C4B19680BF04E
:102DE00049FD6B4B19680BF03DFC39460BF042FD79
:102DF000394680464FF07E500BF032FC654B196827
:102E00000BF038FD014640460BF02CFC01462046F5
:102E10000BF0E4FD60490BF02DFD0BF017FFDAF825
:102E20000040002380462B606B60AB60EB6074B1A8
:102E300020460BF0C7FC49460BF0D0FD0BF070F8B4
:102E40000AF082FE0BF098FB286000FB06F4DAF82B
:102E5000040068B10BF0B6FC49460BF0BFFD0BF067
:102E60005FF80AF071FE0BF087FB686000FB06F06C
:102E7000DAF80830044473B118460BF0A3FC494655
:102E80000BF0ACFD0BF04CF80AF05EFE0BF074FB9F
:102E9000A86000FB06F3DAF80C001C4468B10BF0E4
:102EA00091FC49460BF09AFD0BF03AF80AF04CFE03
:102EB0000BF062FBE86006FB00F020440BF082FCA4
:102EC00039460BF08BFD044640460BF07BFC014677
:102ED00020460BF08BFEF0B901462E221A4806F070
:102EE000B7FB0D222D4918480AF036F820462C4928
:102EF0000BF074FD0BF014F8022402460B4600940C
:102F000011480AF065F927490F48012202B0BDE8CF
:102F1000F0470AF021B82E2200210B4806F098FB5A
:102F20000E22214908480AF017F820490648A1FB5B
:102F30000831090C00230A220AF0ECF8E3E700BF8D
:102F4000EC4E00203CFAFF1FBC51002048FAFF1F46
:102F500038FAFF1FE4640100EC640100F064010032
:102F6000F8640100FC64010000007A44006501007F
:102F70000C6601006C6601000C650100F851002030
:102F80001052002044FAFF1F605100204CFAFF1F2E
:102F900050FAFF1F40FAFF1F000061452065010045
:102FA00000C0A847406401001065010007452EC21B
:102FB00030FAFF1F14FAFF1F6451002068520020EE
:102FC000124A134B10781B78834286BFC3F1180353
:102FD000C018C01A0BF0FAFB0E4A0F4B80461B7844
:102FE0001078834286BFC3F13C03C018C01A0BF0AF
:102FF000EDFB0A49054640460BF03CFC29460BF028
:1030000031FB07490BF0EAFC8046C7E690510020EF
:10301000340A0020F84E0020605200200000704268
:103020000000B44438B504460D463148012106F08D
:1030300013FB2AB200212E4806F00AFB204605F0B9
:1030400081FB01462A4809F09BFF2D21284806F004
:10305000C5FA204605F052FB0146254809F090FFCD
:103060002D21234806F0BAFA204605F035FB01462B
:103070001F4809F085FF02221E491D4809F06CFF18
:10308000204605F04DFB092803DC3021184806F0E6
:10309000A5FA204605F044FB0146154809F070FFEB
:1030A000204605F0F5FA012205461349104809F0BB
:1030B00053FF092D03DC30210D4806F08FFA294615
:1030C0000B4809F05DFF204605F0F4FA01220446A2
:1030D0000949074809F040FF092C03DC3021044866
:1030E00006F07CFA21460248BDE8384009F048BFA6
:1030F000BC51002030650100446501002DE9F0411C
:10310000A34D2C682CB1012C00F0A08030BFBDE88D
:10311000F08108F04BF99F4FDFF8E88238609E4855
:103120009E4E07F079F801219B4806F09BFA022198
:10313000994806F091FA22462146974806F088FA07
:103140000A229749944809F007FF934809F092FF33
:103150000121914806F080FA122221468E4806F09D
:1031600077FA05228F498C4809F0F6FED8F800104E
:103170008948013109F004FF01228B49864809F092
:10318000EBFED8F80020894B834853F822102346E1
:103190000A2209F0BFFF30682821FFF743FF3721DB
:1031A0003868FFF73FFF7C4807F072FA32683B68E7
:1031B000511E994209DCDFF8508298F8001021B1C5
:1031C0007B490968002940F084809A423ADC794FB3
:1031D0003C68002C64D0022C00F0AA810D217648B6
:1031E000764C09F0F7F9764809F044FF754B764ABA
:1031F000764930681B681268096803441A4401293B
:103200003260236000F091810E21714809F0E2F9EB
:1032100008F0CCF8FEF7E8FD0B216E4809F0DAF96A
:103220002068FEF7E1FD0B216B4809F0D3F9306807
:10323000FEF7DAFD0123AE2157482B6006F0F4FFBC
:10324000FEF7A2F82C68012C7FF460AFFDF7B6FC06
:10325000042008F0DBF90446032008F0D7F90CB984
:10326000002847D05D4C5E4B22681B689A42FFF6EF
:103270004DAF554B1E68002E40F0C880594802F0F3
:10328000B3FAFEF773F9FDF77DFD57482660FDF7A9
:1032900015FB564B1888FDF7F5FA30BFBDE8F081F5
:1032A0000A21534802F04EF82146514801F022FE0F
:1032B0000E214F4801F01EFE21464D4801F01AFE36
:1032C0000A214B4801F016FE494802F04DF83C68CF
:1032D00081E70121052008F075F9C82008F0E0F920
:1032E0002146052008F06EF901213B68326888F814
:1032F00000106AE7394B3F4C1B683F4D39485B0271
:10330000002203F124061146A362A5F8B4216660E9
:1033100002F0BCFD21462C22324802F0A7FE3148C3
:1033200002F062FA224B1B68002B40F0BE800123A2
:103330003C220221184807F0A1F8642008F0B0F9F7
:10334000154806F069FF0121134806F08BF90221A8
:10335000114806F081F9002211460F4806F078F96D
:10336000072226490C4809F0F7FD0B4809F082FEB8
:103370000121094806F070F910222149064809F098
:10338000EBFD054809F076FE034807F081F9FEE7FA
:10339000080A0020EC4E0020BC510020F44E002012
:1033A00034650100406501000C66010010520020E8
:1033B000605100206C0A0020486501005C5100202B
:1033C0008CFFFF1F3CFAFF1F48FAFF1FF851002037
:1033D000586501006865010074650100FC4E00201D
:1033E000F4510020480A00209C650100C4540020CC
:1033F0004C53002078520020004F002080650100CF
:103400008865010064520020F94E0020FDF786FC1B
:10341000FEF7ACF8494B4A4E1C684A4F07F0C6FF0E
:10342000494A4A4B1268201A841A24EAE47483FB3E
:1034300004232344E017C0EBE3200AF05FFD0AF009
:1034400083FB0BF071F8424B424A306003FB0044AF
:1034500082FB043222448046E017C0EB62100AF07F
:103460004DFD0AF071FB0BF05FF80201131A821A8E
:1034700004EB82049B004FF4616202FB08333C6062
:10348000DFF8F0801C44092CC8F8000013DC324B34
:103490001B686BB901233C220221304806F0EEFF85
:1034A00000232B6030BFBDE8F081FEF713F93EE743
:1034B000FEF7FAF8EEE7284C0021022008F082F827
:1034C000FFF794F923680BB1FEF704F92448FDF7E0
:1034D000F5F93168234809F053FDD8F80010214868
:1034E00009F04EFD3868FDF7CDF909F077F9642051
:1034F00008F0D6F83B7898F8002031781A4804F0A4
:103500005FFF1A4804F022FD0121022008F05AF85A
:103510004FF4967008F0C4F823680BB1FEF7B0F8CA
:10352000134B1868FFF786FBB4E7FEF7A3FC6BE6C6
:103530000B210E20FFF736F950E600BFF44E0020B5
:10354000FC5100200C52002004FAFF1FC5B3A291C9
:10355000F0F1FFFF8988888860510020BC5100206D
:10356000A86501008CFFFF1FEC5000200C0A002012
:1035700030FAFF1F8C5100202DE9F04F87B0FEF785
:103580000FFDFDF781FF07F011FF964BDFF8A492C6
:1035900018609548954F964DDFF89C8206F03CFEEA
:1035A0000121914806F05EF802218F4806F054F898
:1035B000002211468C4806F04BF808228D498A48B3
:1035C00009F0CAFC0121884806F046F810220021C3
:1035D000854806F03DF812228749834809F0BCFC73
:1035E000814809F047FD0721844801F0DDFF0E21E5
:1035F000824802F037F80C21804802F005F8CA46EC
:103600000024002345F8043B7D4809F033FD7C4845
:1036100009F030FD013405217A4808F0DBFF21462E
:10362000774809F0ADFC764809F024FD21466E4844
:1036300009F0A6FC042274496B4809F08DFC6A4825
:1036400007F026F85AF8042B7049D2B2A1F10C0009
:103650004FF0384303F06CFF58BB1C216C4808F056
:10366000B9FF674809F006FD06226A495E4809F07D
:1036700073FC5D4809F0FEFC5B4807F009F8042C78
:10368000BFD15A4C99F8002004F58C65284604F205
:103690006C414FF0384303F04BFF002840F0CE80E0
:1036A0000B225D49504809F057FC4F4806F0F0FFE7
:1036B000FEE75A4800F124033B6002F095F801212F
:1036C0004A4803F039FE014600287AD0DFF84CB1B1
:1036D000ABF23C41584602F0BFFA0028BDD097F843
:1036E0003C3413F0700FB8D0ABF23C40C8F800B0D7
:1036F00003F086FD08210646494808F06BFF314675
:103700003F4809F03DFC3E4809F0B4FC30460BF060
:103710005DF844490BF0AEF8064638790BF056F8E0
:10372000014630460BF0A6F80BF090FA06460BF176
:10373000240004F0F5F80BF045F83A490BF09AF83C
:103740000BF084FA0A218346374808F043FF5946B4
:1037500000230A222A4809F0DDFC294809F08AFCE6
:10376000C72E8CBFC83E0026112145F8046C2F4897
:1037700008F030FF55F8041C214800230A2209F004
:10378000C9FC1F4809F076FC002355F8041C1648B4
:103790000A2209F0BFFC01222549134809F0DCFB8D
:1037A000594600230A22104809F0B4FC0E4809F0DB
:1037B00061FC0D4806F06CFF4FF47A7007F070FF63
:1037C0005DE70A4803F0B8FD00283FF446AFDFF894
:1037D0004CB0ABF23C41584602F03EFA00287FF470
:1037E0007EAF3AE7704A0020BC510020744A0020A6
:1037F00068520020BC650100C865010058FAFF1F2F
:103800008CFFFF1F40650100DC650100E04E0020D9
:10381000BC660100DC660100E4660100B04E0020D9
:10382000E4650100BD37063AF0650100FC65010062
:1038300010660100BC5000206453002004F23C409C
:10384000256001F0D1FF0121204603F075FD0146FE
:10385000002800F07E83A84C04F23C45284621460F
:1038600002F0FAF900283FF41BAF94F83C3413F04F
:10387000700F3FF415AFA14EC8F80050FEF714F9D1
:10388000FDF702FEFEF70CFC32689D4B9A4200F2F7
:10389000B7839C4F9A4B3A689A4200F2AA839A4B9C
:1038A0001B78172B00F29D83984B1B783B2B00F263
:1038B0009083974B1B78172B00F28383954B1B78D3
:1038C0003B2B00F27683DFF89082D8F80030012B92
:1038D00006D9002319460C20C8F8003007F0D2FBA7
:1038E0008D4B1B68052B00F25C83DFF8709299F812
:1038F0000030082B00F24D83884B1A680F2A00F223
:103900004183874D874C082007F080FE20BB2B6841
:1039100001332B6002E00A2007F0C2FE082007F006
:1039200075FE0028F7D0D8F800302A68B3FA83F182
:103930000B2A4FEA5111D8BF0021002940F006831D
:10394000A3F10103B3FA83F30F2A4FEA5313D8BF4D
:103950000023002B40F0FA82734806F05DFC012141
:10396000714805F07FFE02216F4805F075FE0022C8
:1039700011466D4805F06CFE07F018FD6B4B20609A
:103980001A682B68821A02920F2B28D8DFE813F0EE
:1039900032021902D1029202DB019D01640126016B
:1039A000E8009A0082006A005E0052003B001000AE
:1039B000584B3B22002118789A46FEF79DF95C4946
:1039C0008AF800000722584809F0C6FA9AF8001051
:1039D00009292ADD544800230A2209F09BFBFFF73E
:1039E00043F907F0E3FC3721FFF71CFB4E4806F0D4
:1039F0004FFE0A2007F054FE029BB3F5167F82DDCE
:103A000007B0BDE8F08F424B1722002118789A4684
:103A1000FEF772F947498AF800000722424809F088
:103A20009BFA9AF800100929D4DCFFF717F99AF8E5
:103A30000010CFE7354B3B22002118789A46FEF75D
:103A40005BF908228AF800003B49BCE72E4B17229D
:103A5000002118789A46FEF74FF908228AF80000EC
:103A60003649B0E7052236492F48DFF8ECA009F0C7
:103A700073FA01220021D8F80000FEF73DF9C8F8DA
:103A80000000002800F078820128A8D12D48FCF71A
:103A900007FFA4E70822012199F80000FEF72CF99E
:103AA000052289F8000028491F4809F055FA00232B
:103AB0000A2299F800101C4809F02CFB1A4809F05A
:103AC000D9FA8CE7144B002106221868FEF714F986
:103AD0001E4B114A106053F820000AF077FE1C4973
:103AE0000AF07CFF0AF01CFA02460B460E48194900
:103AF00009F002FB73E700BF744A00203CFAFF1F85
:103B0000A086010048FAFF1F340A002060520020FE
:103B100090510020F84E002030FAFF1F00FAFF1FDE
:103B2000E8500020EC4E0020BC510020704A0020DC
:103B3000B4660100AC660100A06601009466010055
:103B400074660100846601008C66010014FAFF1F90
:103B500000007A4468660100F851002038FAFF1F1F
:103B600004F0A8FDDFF824B3DFF824A3CBF80000AD
:103B70003B220021FEF7C0F8DBF80030CAF8000055
:103B800098421DD0206804F0CBFD8346206804F0E5
:103B90007FFD05902068DAF800A004F09DFD0490F8
:103BA000206804F0ABFD0390206804F0CBFD039A7D
:103BB00000920190049B059952465846FEF77CF806
:103BC0000722A849A84809F0C7F907F0EFFB04F05D
:103BD00071FD0146A44809F0D3F900E704F058FD4F
:103BE000DFF8B0B2DFF8B0A2CBF800003B22002132
:103BF000FEF782F8DBF80030CAF8000098421DD0CA
:103C0000206804F08DFD83462068DAF800A004F0F7
:103C100051FD0590206804F05FFD0490206804F0D9
:103C20006DFD0390206804F08DFD039900910190D3
:103C3000049B059A51465846FEF73EF807228B49E9
:103C4000894809F089F907F0B1FB04F021FD01462C
:103C5000854809F095F9C2E604F062FDDFF83CB250
:103C600017220021CBF80000FEF746F8DBF8003001
:103C7000984282461BD0206804F00AFD83462068E3
:103C800004F018FD0590206804F026FD04902068DB
:103C900004F034FD0390206804F054FD0399009172
:103CA0000190049B059A59465046FEF705F80522F7
:103CB0006F496D4809F050F907F078FB04F030FDCA
:103CC0000146694809F05CF989E604F005FDDFF872
:103CD000D0B1DFF8D0A1CBF800001F220121FEF700
:103CE0000BF8DBF80030CAF8000098421DD02068BD
:103CF00004F016FD8346206804F0CAFC0590206895
:103D000004F0D8FC04902068DAF800A004F0F6FC77
:103D10000390206804F016FD039B00930190534626
:103D2000049A05995846FDF7C7FF042251494E48A9
:103D300009F012F907F03AFB04F0CEFC01464A48BC
:103D400009F01EF94BE604F0D9FCDFF85CB1DFF8AE
:103D50005CA1CBF800000C220121FDF7CDFFDBF8C0
:103D60000030CAF8000098421DD0206804F0D8FC4A
:103D70008346206804F08CFC0590206804F09AFCCF
:103D80000490206804F0A8FC03902068DAF800A0F2
:103D900004F0D8FCCDF800A00190039B049A05998B
:103DA0005846FDF789FF062233492F4809F0D4F819
:103DB00007F0FCFA04F0A2FC01462B4809F0E0F8F9
:103DC0000DE645F2604201213068FDF795FF2B4971
:103DD00030600422244809F0BFF83168224809F015
:103DE000CFF801222649204809F0B6F81E4809F00C
:103DF00041F9F4E5DFF8B8A09AF80030002B40F064
:103E0000B0800A221F49184809F0A6F8042007F0DC
:103E1000FDFB8246032007F0F9FBBAF1000F7FF4A7
:103E2000DEAD00287FF4DBADFDF7C8FFFEF738F903
:103E30001548FCF735FD0C4806F02AFC40F2DC5032
:103E400007F02EFCFEF710FF07F0B0FA3721FFF75E
:103E5000E9F8054806F01CFC0A2007B0BDE8F04F61
:103E600007F01EBC60660100BC51002058660100CE
:103E7000506601004866010040660100E4640100EC
:103E80002C66010014660100206601002C520020FF
:103E90003051002070510020E84E0020040A00201C
:103EA000E45000202C5100205C52002034510020AE
:103EB000F04E002004F046FCDFF880B1DFF880A16E
:103EC000CBF8000040F634024FF4FA61FDF714FF1E
:103ED000DBF80030CAF8000098421CD0206804F0DB
:103EE0001FFC8346206804F0D3FB0590206804F093
:103EF000E1FB0490206804F0EFFB0390206804F0DD
:103F0000FDFBDAF80030049A05998DE80900039B5F
:103F10005846FDF7D1FE05223D493E4809F01CF800
:103F200007F044FA04F00EFC01463A4809F028F87C
:103F300055E5394A38680021FDF7DEFE374938601B
:103F40000422344809F008F8396847E700232B6059
:103F500002E5204603F0F0F900287FF47CACFFF77F
:103F60009FBBFEF79DF84FF000038AF8003007F082
:103F70001DFA2B4B186044E72A48FCF791FCDAF84D
:103F8000000081E5042211460F201A6007F07AF83C
:103F9000B7E4082319460E2089F8003007F072F8BC
:103FA000AAE40623204A19460D20136007F06AF898
:103FB0009BE400231D4A19460B20137007F062F89A
:103FC00081E400231A4A19460A20137007F05AF8B0
:103FD00074E40023174A19460920137007F052F8B9
:103FE00067E40023144A19460820137007F04AF8C2
:103FF0005AE43C23194604203B60FEF739F84EE4AE
:104000003C23194600203360FEF732F841E400BF3C
:1040100038660100BC51002080510100306601006B
:10402000704A00207C66010030FAFF1FF84E002025
:104030009051002060520020340A002024520020B9
:104040006C5100202DE9F04F8FB072B6C749C84BB4
:10405000C84841250E2480220D70047019461A703C
:104060000B78C34A1806FBD5C34BC4481D78C44C13
:10407000C4490570033B247809781B78C3704470E9
:10408000817062B672B6B949BA4C41260F258023B9
:104090000E702570114613700B781B06FCD5B64CBC
:1040A000B749B84AB84B2478097812781B78C3719D
:1040B00004714171827162B6B44BB54FB54EDFF8F1
:1040C000289300240F2115220A254FF014084FF4DD
:1040D000FA705960DA601D60C3F8088007F0E0FAF2
:1040E00064203C6007F0DCFA4FF430533B606420FE
:1040F00007F0D6FA4FF434533B60642007F0D0FA4F
:104100002A463168A448234609F004F8A24808F07A
:10411000B1FF4FF47A7007F0C3FA2A4631689E481F
:10412000234608F0F7FF9C4808F0A4FF4FF47A708C
:1041300007F0B6FA2A46234631689748974D08F0AB
:10414000E9FF954808F096FF954800F079FF0121B6
:10415000062007F069FA0121062007F033FA21460C
:10416000102007F061FA204606F0E4FD012102204C
:1041700007F05AFA0121022007F024FA0121052054
:1041800007F052FA0121052007F01CFA4FF4FA60FB
:1041900007F086FA2146052007F014FA814B012228
:1041A000214605201A7007F00DFA7F4B1B6802218B
:1041B000012B4FF0040008BFC9F8008007F034FA63
:1041C0000221032007F030FA0221082007F02CFA20
:1041D00007F0ECF8754B2860984240F3B881012352
:1041E0003C2202217248734E734F744C06F046F91C
:1041F0008C2007F055FA6E4806F00EF801216C4845
:1042000005F030FA02216A4805F026FA002211462C
:10421000674805F01DFA0A226949654808F09CFEC6
:10422000634808F027FF624806F032FA604805F05C
:10423000F3FF01215E4805F015FA02215C4805F004
:104240000BFA002211465A4805F002FA0A225C498C
:10425000574808F081FE564808F00CFF544806F015
:1042600017FA6E21574808F009FBD6F8008057F876
:1042700028A050460AF0AAFA102120605046FDF707
:1042800077FF474800F0DCFE4046FEF7E3FAFFF711
:1042900073F9366857F8267038460AF097FA1021F5
:1042A00020603846FDF764FF3D4800F0C9FE304607
:1042B000FEF7D0FA444801F097FA44490EAE01F2F5
:1042C0003C4001F0C9FC424B46F8343D00238DF8D8
:1042D00014308DF815308DF808308DF810303D4AC7
:1042E0003949462305A84FF47A77039701F034FC47
:1042F0009DF8143053B12922374905A801F0B6FEC4
:10430000304608F0B7FE05A801F06EFA2848334F92
:10431000DFF8D8A005F080FF0121254805F0A2F9BB
:104320000221234805F098F900221146204805F0A3
:104330008FF93B683C2B07DDB3F5967FD4BF3C2358
:104340004FF49673CAF8003007F030F8DFF8A08019
:104350002349DAF80030234ED8F80020096890FB92
:10436000F3FE286003FB0E3344E000BF0700024069
:1043700000000240060002400B00024054510020A1
:104380000A0002400900024008000240BC50002020
:1043900010D0034000D003408CFFFF1FEC4E0020E4
:1043A0004C530020F94E0020605100207FC18556FB
:1043B000BC51002030FAFF1F14FAFF1F08520020E2
:1043C000F06601000082FF1FB04E0020744A0020FA
:1043D000686201000C630100B063010048FAFF1F2E
:1043E000F8510020F44E002004FAFF1F34FAFF1F9A
:1043F0003CFAFF1F5A48336001291344036000F060
:10440000AA8010460AF0E2F92168DFF890A1DFF8EF
:1044100090B10AF02FFA4FF06E510AF02BFA4FF0DC
:1044200074510AF027FA09F07BFD09F005FB002220
:104430004C4B09F0C9FD0AF077F83A68D9F800400A
:10444000494BCAF80000141B24EAE47983FB0923D2
:104450004B444FEAE970C0EBE32009F04FFD09F04F
:1044600073FB0AF061F8414C414BCBF8000004FBB0
:10447000009483FB04232344E017C0EB631009F08E
:104480003DFD09F061FB0AF04FF8DFF818A1DFF8F5
:1044900018910346A0EB001004EB8004102135486E
:1044A000C9F80030CAF8004008F094F8DBF80010B2
:1044B000314808F065FDD9F800102F4808F060FD7C
:1044C000DAF800102C4808F05BFD2B4808F0D2FD0C
:1044D00008212A4808F07EF8D8F80010264808F08D
:1044E0004FFD254808F0C6FD0821254808F072F860
:1044F0003968214808F044FD1F4808F0BBFD0E2133
:10450000204808F067F82868FDF76EFC0C211E486B
:1045100008F060F83068FDF767FC33682C681B48CA
:104520001C1B152108F056F82146134808F028FDF9
:10453000114808F09FFD1649164B00204FF0FF323E
:1045400008601A60FDF712F80FB0BDE8F08F12484E
:1045500006F032FF43E6FDF78DFCD8F8002050E767
:104560005C51002000004040C5B3A291F0F1FFFF74
:1045700089888888A86501008CFFFF1FFC66010000
:1045800008670100586501001467010024670100F5
:10459000080A00202852002080C18556F4510020CE
:1045A000FC5100200C5200208C510020002070474C
:1045B00000207047F8B5C34C012605460671204619
:1045C00000F03EFD052007F06BF8297A204600F048
:1045D000E3FD2046002100F08DFC2046302100F054
:1045E00089FC2046402100F085FC6021204600F037
:1045F00081FC204600F0B8FE297A204600F0CCFD70
:104600002046002100F076FC2046262100F072FCB6
:104610002046002100F06EFC6C21204600F06AFC70
:10462000204600F0A1FE297A204600F0B5FD204684
:10463000002100F05FFC2046282100F05BFC3146A1
:10464000204600F057FCF221204600F053FC2046A3
:1046500000F08AFE297A204600F09EFD20460021C7
:1046600000F048FC20462C2100F044FC20460F219D
:1046700000F040FC2221204600F03CFC204600F0E7
:1046800073FE297A204600F087FD2046002100F0C5
:1046900031FC20463C2100F02DFC2046442100F056
:1046A00029FC4621204600F025FC204600F05CFE57
:1046B00040F23713EB80297A204600F06DFD20464A
:1046C000002100F017FC2046242100F013FC3146A5
:1046D000204600F00FFC3721204600F00BFC20465E
:1046E00000F042FE297A204600F056FD20460021C7
:1046F00000F000FC2046302100F0FCFB2046402169
:1047000000F0F8FBFF21204600F0F4FB204600F00B
:104710002BFE297A204600F03FFD2046002100F0C4
:10472000E9FB2046022100F0E5FB2046002100F0D5
:10473000E1FB7321204600F0DDFB204600F014FE73
:104740004FF4C87006F0ACFF297A204600F024FD33
:104750002046002100F0CEFB20462E2100F0CAFBAF
:1047600020461D2100F0C6FB1D21204600F0C2FBA3
:10477000204600F0F9FD297A204600F00DFD204684
:10478000002100F0B7FB2046042100F0B3FB2046D7
:10479000002100F0AFFB0421204600F0ABFB2046D7
:1047A00000F0E2FD297A204600F0F6FC20460021C8
:1047B00000F0A0FB2046062100F09CFB314620467D
:1047C00000F098FB3021204600F094FB204600F0DA
:1047D000CBFD297A204600F0DFFC2046002100F0C6
:1047E00089FB20460A2100F085FB2046002100F0CD
:1047F00081FB1021204600F07DFB204600F0B4FD37
:10480000297A204600F0C8FC2046002100F072FB07
:1048100020460E2100F06EFB2046002100F06AFBCE
:104820000021204600F066FB204600F09DFD297A1D
:10483000204600F0B1FC2046002100F05BFB204642
:10484000102100F057FB20463C2100F053FB3C2197
:10485000204600F04FFB204600F086FD297A2046D6
:1048600000F09AFC2046002100F044FB2046222163
:1048700000F040FB20467F2100F03CFB7F212046DA
:1048800000F038FB3627204600F06EFD297AEF80D5
:10489000204600F081FC2046002100F02BFB204642
:1048A000242100F027FB2046002100F023FB39469D
:1048B000204600F01FFB204600F056FD6E72304689
:1048C000F8BD00BF4C5300200B462DE9F04145498F
:1048D0000546184609F0CEFF434909F0C3FE0AF029
:1048E000B5F9044600284CD080281FD92B79002424
:1048F00026462BBB297A3D4800F04EFC00213B4860
:1049000000F0F8FA2221394800F0F4FA314637482D
:1049100000F0F0FA2146354800F0ECFA334800F098
:1049200023FDB0FA80F04009BDE8F081C0F18004B9
:104930002B7944EA0424C4F30726E4B2002BD9D02F
:10494000EF88297A294827F010074FF00008EF80F8
:1049500085F8048000F020FC4146244800F0CAFAA3
:104960002421224800F0C6FA390A204800F0C2FA91
:1049700007F0EF011D4800F0BDFA1C4800F0F4FC00
:10498000B8E701232B71297A184800F005FC21466D
:10499000164800F0AFFA2221144800F0ABFA7F214C
:1049A000124800F0A7FA7F21104800F0A3FA0F4840
:1049B00000F0DAFCEE88297A0C4846F01006B6B210
:1049C000EE8000F0E9FB2146084800F093FA24212C
:1049D000064800F08FFA310A044800F08BFAF1B271
:1049E00099E700BF00000143EE7CFF3E4C530020DE
:1049F00070B505460C4619B101293BD0002070BDA9
:104A0000017A424800F0C8FB2146404800F072FAA3
:104A100020213E4800F06EFA21463C4800F06AFA38
:104A200055213A4800F066FA384800F09DFC0646E9
:104A30000028E3D1EC88297A344844F00404A4B275
:104A4000EC8000F0A9FB3146304800F053FA2421F5
:104A50002E4800F04FFA210A2C4800F04BFAE1B240
:104A60002A4800F047FA294800F07EFCB0FA80F0AE
:104A7000400970BD017A254800F08EFB00212348D3
:104A800000F038FA2A21214800F034FA21461F4864
:104A900000F030FA73211D4800F02CFA1B4800F09A
:104AA00063FC04460028A9D1297A184800F074FB59
:104AB0002146164800F01EFA2021144800F01AFA88
:104AC0002146124800F016FA8821104800F012FA28
:104AD0000E4800F049FC044600288FD1EE88297A60
:104AE0000A4826F00406EE8000F056FB21460748EF
:104AF00000F000FA2421054800F0FCF9310A0348CF
:104B000000F0F8F906F0FB01AAE700BF4C530020C3
:104B100010B5044608F096F8204610BD024A034935
:104B200003480AF061BA00BFFCF9FF1F114B0000F7
:104B3000A45200201B4A1C4B11681C48096970B420
:104B400099421279027009D2194A127832B3194A7D
:104B50004FF08041116003F5807402E01C46A3F51C
:104B60008073154A154912680D68AAB1A5B1144E93
:104B70003088402810D841000A444030294402328D
:104B80000231308033F9040B22F8020F9C4233F9D2
:104B9000020C21F8020FF5D870BC704703F5807441
:104BA000DFE700BFB4520020B8F2FF1F1F800040B3
:104BB000AE52002008E200E0BC520020B0520020BB
:104BC000AC520020F8B5064607F088FE0446E8B16E
:104BD00007F084FE054600283AD072B61F4B1A88AB
:104BE0007F2A19D8002C31D01D490A6842B162B61B
:104BF000204607F0C7FE2846BDE8F84007F0C2BED1
:104C000018480C601A80056062B6F8BD054672B699
:104C1000124B1A887F2AE5D9114A12491768146085
:104C200000220C681A800D6062B63946304607F0E3
:104C3000D3FE384607F0A6FE30462146012207F093
:104C4000CBFE2046BDE8F84007F09CBE62B6F8BD3A
:104C5000204607F097FE2C46BFE700BFAC5200206D
:104C6000BC520020B0520020F8B5284C284E2046F7
:104C7000012107F049FF00F083F8264B264A274818
:104C80004FF480611960236800211A6099802279AD
:104C9000186102F1804202F5043240F20110D8801E
:104CA0009E614FF48075022006278E26DD82D96032
:104CB000DD8398609F8398821170167007F0CAFE9A
:104CC0001749184B2279184F08701A7039682279E1
:104CD000164C174D174E41F0124141F0010153118E
:104CE00039609B00206803F1604302F1100703F56F
:104CF000614302F01F02012140F0104001FA02F26C
:104D0000206045F827601A60F8BD00BFB45200204B
:104D100000FEFFFF14B00440A0F00240B8F1FF1FF6
:104D2000AE5200201B80004080F0024000F00240A4
:104D300000F4FF1F354B0000024A034903480AF004
:104D400053B900BFFCF9FF1F114B0000B452002003
:104D5000024A034903480AF047B900BFFCF9FF1FA4
:104D6000114B0000C0520020024A034903480AF0D8
:104D70003BB900BFFCF9FF1F114B0000C8520020D7
:104D8000284B29491A68294842F400421A600A68E7
:104D900042F002020A601A6842F002021A600368D6
:104DA000002B3DDB224B1B68002B39DB214A4FF0E7
:104DB000864313601368002BFCDBF0B51E4C1F48C4
:104DC000DFF8ACE01E491F4B1F4A204F204E214DFB
:104DD00041F2100CC4F800C0002404600120CEF899
:104DE0000000DFF890E0C1F800E04FF48031196076
:104DF000194B1360DFF880E0184A3A60346028608D
:104E00001748CEF80000174CB9671748174946F8FD
:104E1000503C4FF4C0632A61236003600B60F0BD17
:104E2000704700BF3C8004404080044000F00240D6
:104E300080F0024000F1024004F1024060F00240C4
:104E400008F002400CF0024010F0024014F0024062
:104E5000E0F0024084F002401B0F0100000F0F0F32
:104E60000300004708B004400CB0044018B00440F0
:104E700004F002400300000788F00240024A0349A0
:104E800003480AF0B1B800BFFCF9FF1F114B000046
:104E9000D0520020024A034903480AF0A5B800BFD7
:104EA000FCF9FF1F114B0000D8520020024A0349B1
:104EB00003480AF099B800BFFCF9FF1F114B00002E
:104EC000E0520020024A034903480AF08DB800BFAF
:104ED000FCF9FF1F114B0000E8520020024A034971
:104EE00003480AF081B800BFFCF9FF1F114B000016
:104EF000F05200200A4B1B7813B90A4B1B786BB198
:104F0000094A1378202B07D810B4581C074C10708E
:104F1000E154012010BC7047012303710020704749
:104F20005E530020215300205F53002000530020D7
:104F3000704700BF024A034B10781B78C01A7047B5
:104F40005D5300205C530020064A07491378097816
:104F5000994204D90548591CC05C117070474FF044
:104F6000FF3070475C5300205D5300202453002025
:104F7000054B064A1B7812789A4286BF044AD05CD9
:104F80004FF0FF30704700BF5C5300205D5300209E
:104F90002453002070B50D4B1B78144613B90C4BED
:104FA0001B788BB10B4E3578C5F12103A34202D299
:104FB00001221C460271084822462844254405F077
:104FC0000DFD3570204670BD184670BD5E53002043
:104FD000215300205F53002000530020124BDB7848
:104FE00003F020034BB1114A13780133DBB2012BDC
:104FF000137012D9122006F095B910B5122003F0E3
:10500000FF0406F08FF90A4B1B685BB109490A4A95
:105010000C701078BDE810401847084B1B78002B27
:10502000E8D0704710BD00BF006006404853002024
:10503000FC5200205C5300205D53002021530020CF
:105040000D4A0E4BF0B500200D4C10702268DFF8B1
:1050500038E00C4F42F0400222604FF419712726CD
:105060000425202480229870CEF8001039605E70EC
:105070009D715C719A70F0BD215300200060064064
:105080003480044008A004400CA0044010B5384C03
:10509000E378DBB2D80623D510225906E2701ED57C
:1050A00003F0040303F0FF02002B33D0314B3249ED
:1050B0001A68324C00230B702370002A3BD09047B3
:1050C0002378002B37D02E4B1B78294A2D49D0242A
:1050D00094701371264B012002220870DA7010BD03
:1050E0005A06DDD4A27802F0100202F0FF0042B3AB
:1050F00013F001031BD1234920480A78007890421D
:1051000081BF1F4B501C9B5C08702371184BD02231
:105110009A7008E01C48164B174902700120C02203
:1051200008709A701B79124B0222DA7010BDC023EE
:10513000A3702379F7E71249002301220B70227034
:10514000C3E7124B124918700322122006F06AF8C6
:105150000D4923790A781F2ADBB2E4D80648007883
:105160000028E0D00B4C501CA3540870DBE700BFB4
:105170000060064044530020F85200205F53002096
:1051800000530020605300205D530020485300204E
:10519000DD4F0000245300200548064A10B40123C7
:1051A000054C037049001370217010BC704700BF9C
:1051B0005E5300205F530020005300202DE9F04390
:1051C000594C1223E370A37803F0200383B0002B23
:1051D00055D0B423DFF86881A370D8F80030524D61
:1051E0001C460020EA78D2B29A421CBF1446012025
:1051F00096061346F6D5002840F08C804B4B1B7862
:10520000002B33D003F1FF3E5FFA8EFE0026D8F864
:105210000040474F444D0EF1010E30464FF0020C56
:1052200017F8013F2B715FFA86F902E013F0200FA7
:1052300009D0EB78DBB293421CBF1C46012013F06F
:10524000020F1A46F2D085F803C0EA78D2B2934230
:105250001CBF14460120D30633D4930631D5D3079F
:1052600044D401367645DBD100284AD100200029FC
:105270002ED1304B00221A7003B0BDE8F0832E4DC2
:10528000DFF8BC8003F0FF022B680093009ED8F883
:10529000000005E02B680193019B9B1B0F2B1BD883
:1052A000E378DBB2834218BF012213F0200F1846C7
:1052B000F0D192BB21481C4B0024B02204709A709C
:1052C0008BE708BB184B80229A7004200029D0D0AD
:1052D000154B80229A70CCE7CAB9134B002180226B
:1052E000042099709A7003B0BDE8F083C0B90E4BEA
:1052F000B9F1000F4FF080020CBF022003209A701A
:10530000B7E7C8F80040B1E7C8F80040DAE7C8F8E6
:105310000000E2E7C8F8004070E7C8F80030C9E7CD
:10532000C8F80040E3E700BF006006405F5300207C
:10533000FF5200205E530020C05300202153002064
:1053400054FAFF1F0548064A10B40123054C0370A8
:1053500049001370217010BC704700BF5E530020DD
:105360005F530020005300200121FFF727BF00BF3B
:10537000044B054A1A604FF47A71002299601A7141
:105380001A7370474C5300206C67010010B4047FFF
:105390004160022CC26002D010BC07F06DBC836873
:1053A00010BC1847F0B4464B464A186BDC6A0179CA
:1053B0001170454922790A709A6A00790870002AAA
:1053C00046D05968C9688A423ED82168CC8B2404EB
:1053D00002F1FF3065D4C0F30E00C883C88B80B2E1
:1053E000C882196B0968C88B000452D4C2F30E003E
:1053F000C883C88B002480B212F1FF32C88218BF64
:1054000001229C62D96A2E4809680D6800F12404C3
:10541000A54236D00068C46814F0804F0C680D684F
:1054200015BF248824780235013544F000440D600E
:105430004463196B254B09791970214912B1CA6A65
:1054400012791A70F0BC7047521A9A620122D9E799
:10545000586B196805681E4C0A63CC62CC682D68CD
:105460001C4E24F080440327B542CC6083F825709D
:105470001FD1037F4260022BC2601ED0F0BC07F038
:10548000FBBB016890F82400CC6840F00040486302
:10549000CFE7CC8BC2F3080004F47E442043C883DA
:1054A000A7E7CC8BC0F3080004F47E442043C883F4
:1054B00094E72B461146F0BC18478368F0BC1847A8
:1054C00058FAFF1F1F8000401C8000401B800040D6
:1054D00000000FFF8D53000090E80C00F0B41C6832
:1054E00059682568164F174E29432160164D1749F4
:1054F0001760D66015611160417A154A5C180A314F
:1055000094F8244053F8215002EBC40149680D601F
:10551000017A5C1803EB8101247ECD6902EBC401A2
:1055200049680D60817A581803EB810390F83000C8
:10553000596B02EBC002F0BC53681960704700BFA2
:1055400001401F00011000380110007800001F808A
:10555000E06D01004268036805CA10B40468224384
:105560000260D868840100F0E06205D5080900F403
:10557000706021F470410143D8681143814209D021
:105580001A68500408D40748186041F08040D96078
:1055900018611A6010BC704741F08042D96010BC9D
:1055A0001A61704701401F004268437A134493F820
:1055B00024308B4209D0F0B492F824408C4205D0BC
:1055C00092F825408C421AD0F0BC70470024214646
:1055D0001668556836682E420FD00A4D05EBC30396
:1055E00000275E685318376093F8243005EBC30535
:1055F0000A316B6852F821201A604472E4E70124F2
:105600002146E5E7E06D01004268037A13441B7E02
:105610008B4207D0F0B4147E8C4204D0547E8C426E
:105620001AD0F0BC704700242146166855683668C9
:105630002E420FD00A4D05EBC30300275E685318B6
:1056400037601B7E063105EBC30502EB81026B68F8
:1056500052681A600472E4E701242146E5E700BFBE
:10566000E06D01004268837A134493F830308B4236
:1056700009D0F0B492F830408C4205D092F8314015
:105680008C421BD0F0BC7047002421461668556838
:1056900036682E4210D00B4D05EBC30300275E6821
:1056A0005318376093F830300C3105EBC30502EB2B
:1056B00081026B6852681A608472E3E70124214614
:1056C000E4E700BFE06D010038B590F90230002B2F
:1056D000044612DBA56805F1240001F0FDF928B9A4
:1056E000637843F001036370002038BD05F50C704A
:1056F00001F0F2F90028F3D038BD8068A1692430A8
:10570000012201F0A3F90028EAD0A38803F00F03D7
:105710005B01C518E4D0C35CE52BE1D023780B4ACC
:105720001B0744BFE369EB61236A12686B831B0CA0
:10573000AB8232B105F1160105F1180090472B8BB1
:105740006B82A37803F07F03A370C3E76853002044
:105750002DE9F041037803F020032BB903F0FF0497
:105760004269204B9A4203D900263046BDE8F081B9
:1057700083780169054663F07F038068AB7005F1AB
:10578000100201F01DFB06460028EDD02969A8682B
:1057900001F0CAF90746A86839462430052201F00D
:1057A00055F980460028DFD04FF4007221460AF0F8
:1057B0003DF8AB681A79012A0FD9012403E0AB68E0
:1057C0001A79A24209D9E1191868424602F014F97F
:1057D0000134E4B20028F2D1C6E76B6903EB422240
:1057E0006A61C2E7FFFD1F0038B5037804461BB9A4
:1057F00000232370012038BD90F90230002B14DB08
:10580000A56805F1240001F067F938B9637843F021
:105810000103637000232370002038BD05F50C7070
:1058200001F05AF90028F1D0E2E78068A16924303C
:10583000012201F00BF90028E8D0A38803F00F0340
:105840005B01C518E2D0C35CE52BDFD023780B4A9F
:105850001B0744BFE369EB61236A12686B831B0C6F
:10586000AB8232B105F1160105F1180090472B8B80
:105870006B82A37803F07F03A370C1E76853002015
:105880002DE9F0470D7815F0700F88B003D1002096
:1058900008B0BDE8F087C32304460D4600F07EFE45
:1058A0000028F4D05D4B6269012610219A42A6704F
:1058B0002170ECD881236218A3702169A06801F0DF
:1058C0007FFA0028E3D02169A06801F02DF907468E
:1058D000A06839462430052201F0B8F88046002837
:1058E000D5D04FF40072002109F0A0FF08E0F119B3
:1058F0000068424602F080F80136F6B20028C6D0B1
:10590000A0680279B242F2D86369217826692662DA
:1059100003EB42236361002974D124300122A16981
:1059200001F094F80028B2D0A68806F00F0610EB1C
:105930004616ACD01023F372B26830687168F36811
:10594000B6F81490B6F81AA06F460FC7306971699F
:10595000B269F36908AE0FC74FF02E084FF020333D
:10596000216AA06806F8208DCDF80530CDF8013009
:10597000ADF8093001F0D8F8A3680146012203F11F
:10598000240001F063F88646002880D03746ADF841
:105990001490ADF81AA00FCFCEF80000CEF8041086
:1059A000CEF80820CEF80C300FCFCEF81000CEF88D
:1059B0001410CEF81820CEF81C302B6A8DF8018018
:1059C0001A0C3546ADF81A30ADF814200FCD0EF193
:1059D0002006CEF820007160B260F3600FCD306118
:1059E0007161B261F361A46804F1240001F074F8FC
:1059F00000283FF44CAF04F50C7008B0BDE8F04748
:105A000001F06AB813B10023236163612046FFF7F8
:105A10005BFE00283FF43BAFA0687EE7FFFD1F0060
:105A20002DE9F041064692B03478019200208DF8BD
:105A300024008DF8250024B90D46097811F0700F67
:105A400003D1002012B0BDE8F081144612782F2A4D
:105A50002DD00DF1040803AF002B53D04246394638
:105A6000204600F0F5FB3A46294601230028E8D0FD
:105A7000019C24783046002C61D000F08FFD3A461E
:105A8000294620B93046FFF7FBFE0028D9D035461D
:105A90000FCD09AC0FC40FCD0FC433782A68226034
:105AA000002B48D100233370019C09ADD6E70134A7
:105AB000019422782F2AFAD0AD680093242209A8F5
:105AC000002109F0B3FE0B95EA79009B102A3ED025
:105AD000202AB6D140228DF82420012209AD8DF86C
