:1000000000800020BD010000EDE50000A5E5000036
:10001000A5E50000A5E50000A5E50000A5E50000B8
:10002000A5E50000A5E50000A5E50000EDE5000060
:10003000EDE50000A5E5000049020100990401007A
:10004000EDE50000EDE50000EDE50000EDE5000068
:10005000EDE50000EDE50000EDE50000EDE5000058
:10006000EDE50000EDE50000EDE50000EDE5000048
:10007000EDE50000EDE50000EDE50000EDE5000038
:10008000EDE50000EDE50000EDE50000EDE5000028
:10009000EDE50000EDE50000EDE50000EDE5000018
:1000A000E1620000EDE50000EDE50000EDE5000097
:1000B000EDE50000EDE50000EDE50000EDE50000F8
:1000C000EDE50000EDE50000EDE50000EDE50000E8
:1000D000EDE50000EDE50000EDE50000EDE50000D8
:1000E000EDE50000EDE50000EDE50000EDE50000C8
:1000F000EDE5000099090100EDE50000C50A0100E9
:10010000EDE50000F10B0100EDE50000EDE500007C
:10011000EDE50000EDE50000EDE50000EDE5000097
:10012000EDE50000EDE50000EDE50000EDE5000087
:10013000EDE50000EDE50000EDE50000EDE5000077
:10014000EDE50000EDE50000EDE50000EDE5000067
:10015000EDE50000EDE50000EDE50000EDE5000057
:10016000EDE5000045ED0000EDE50000EDE50000E7
:10017000EDE50000EDE50000EDE50000EDE5000037
:10018000EDE50000EDE50000EDE50000EDE5000027
:10019000EDE50000EDE50000EDE50000EDE5000017
:1001A000EDE50000EDE50000EDE50000EDE5000007
:1001B000EDE50000EDE50000D5FF0000564B4CF2E8
:1001C000205210B51A804DF628121A8000BF00BFC9
:1001D00000F068FC514B4FF010621A60504A9A6070
:1001E000504ADA60504A136813F4807304D14F49BF
:1001F0000B604FF4A85313604D4B1A78110703D5C9
:100200001A7842F008021A704A4B4B492A221A7097
:100210004A4A4B4B8B4204D252F8040F43F8040B6A
:10022000F8E7484B484900228B4202D243F8042B9E
:10023000FAE74649464A002352F8230041F82300D2
:1002400001336F2BF8D1434B434A802103F8011B44
:100250009342FBD1414B3D4A1A60414B8A221A70AE
:10026000A3F5805324225A70A0221A709A7992071B
:10027000FCD59A79D406FCD43A4A937903F00C035E
:10028000082B384BF9D103221A7140225A719A79FE
:100290009006FCD5334A9179324B4906FBD5324A58
:1002A000324911600221516020221A709A7902F0BD
:1002B0000C020C2AFAD12E4B2E4A1A602E4B2F4AD2
:1002C0001A6000225A60072243F8042C2C4AC3F813
:1002D0000C2D62B60EF0ACFA144B1B68DA0705D58C
:1002E00028480EF093FA284B284A1A60284B1B78AE
:1002F0005B0609D5244C254B22689A4204D121483B
:100300000EF084FA0023236012F058F80EF072F910
:1003100010F0A0FAFEE700BF0E2005403080044038
:10032000823F04000100002B10D0034014D0034092
:1003300002D0074000E00740380A0020A8A90100C9
:1003400020F9FF1F380A0020A857002000F4FF1FE3
:100350000000000000E400E05FE400E008ED00E0E1
:100360000050064000400640448004400000030165
:1003700004800440C010050014E000E0FF76010096
:1003800000002020B984DA5E1CE00340A5C3945A23
:1003900000F00740FFFFFFFFFFFFFFFFFFFFFFFF32
:1003A000FFFFFFFFFFFFFFFFFFFFFFFFFFFFFFFF5D
:1003B000FFFFFFFFFFFFFFFFFFFFFFFFFFFFFFFF4D
:1003C000FFFFFFFFFFFFFFFFFFFFFFFFFFFFFFFF3D
:1003D000FFFFFFFFFFFFFFFFFFFFFFFFFFFFFFFF2D
:1003E000FFFFFFFFFFFFFFFFFFFFFFFFFFFFFFFF1D
:1003F000FFFFFFFFFFFFFFFFFFFFFFFFFFFFFFFF0D
:10040000FFFFFFFFFFFFFFFFFFFFFFFFDEF9FFFF23
:1004100010B5054C237833B9044B13B10448AFF33E
:1004200000800123237010BD380A00200000000066
:10043000A4A90100084B10B51BB108490848AFF347
:1004400000800848036803B910BD074B002BFBD0A0
:10045000BDE81040184700BF000000003C0A002023
:10046000A4A90100380A0020000000000020704705
:10047000704700BFF8B55548554D564C297803785C
:100480002278DFF868E1544F544E120442EA032305
:10049000FF222A700270802022708EF800003870CF
:1004A000B2794F480B4312F00C0FC36002D1B379FD
:1004B000DC063DD4494A9379C3F38103032B40D032
:1004C000464B9A79C2F38102022A42D0434A937979
:1004D000C3F38103022B53D0404A9379C3F38103C2
:1004E000022B61D03D4A9379C3F38103012B51D094
:1004F0003A4A9379C3F38103012B5CD0374B9A7945
:1005000012F00C0F03D19A79D20600D49B79354DA5
:10051000354B2A7853F82240D4B1236820469B6893
:1005200098472B7804EB83046468002CF5D1F8BD60
:10053000B3799806EBD5294A9379C3F38103032B4A
:10054000BED19379D906BBD493799B06DFD4B7E7A4
:10055000F8BD9A79D706B9D49A799606B6D559785E
:1005600001F0020101F0FF020029AFD120211A7031
:100570001A461970937903F00C030C2BFAD1C6E7D5
:100580009379DD06A8D493799C06A5D4537898076F
:10059000BDD5A1E79379DF06AAD593799E06A7D4A6
:1005A00053789D07B3D4A3E79379D9069AD45378A7
:1005B0009B07ACD496E79379DC069FD59379980690
:1005C0009CD453789907A2D598E700BF06C007408E
:1005D00005C0074007C0074009C00740004006406B
:1005E00080570020585400201854002008C00740AD
:1005F00090F92410104B03604B1C06D0F0B40F4E42
:1006000056F82130984201D0F0BC70470C4F57F893
:10061000213033B18D0000245A1953685460002BE7
:10062000FAD1084C23780022013B237047F821209F
:1006300046F82120E8E700BF649601003854002006
:10064000185400205954002038B590F924506B1CE0
:100650001BD00E4B0E4953F825400E4BEDB24FF018
:10066000FF320D701A6084B1AD0002E02C44646862
:100670005CB194F82530002BF8D0236820462C4438
:100680001B6898476468002CF3D138BD18540020CB
:1006900058540020B8F3FF1F704700BF027C02F0DF
:1006A000080202F0FF0332B1C36A406A181A48BF59
:1006B0006FF0004070471846704700BF90F9241053
:1006C000104B03604B1C06D0F0B40F4E56F821308F
:1006D000984201D0F0BC70470C4F57F8213033B12D
:1006E0008D0000245A1953685460002BFAD1084C2D
:1006F00023780022013B237047F8212046F821206F
:10070000E8E700BF64960100385400201854002028
:100710005954002090F92410104B03604B1C06D054
:10072000F0B40F4E56F82130984201D0F0BC70471B
:100730000C4F57F8213033B18D0000245A195368FB
:100740005460002BFAD1084C23780022013B23701F
:1007500047F8212046F82120E8E700BF6496010011
:10076000385400201854002059540020704700BF0E
:1007700010B5002104460FF073FBB0B1B4F8B431EA
:100780009BB2C3B1B4F8B031B4F8B2219BB201331B
:10079000632BC8BF002392B2934207D09A1D04EB8B
:1007A00082029BB25060A4F8B03110BDD4F8B831C9
:1007B0000133C4F8B831BDE810400FF00DBB00BFE5
:1007C000103008F071BD00BF00B583B002AB01224C
:1007D00003F8011D1030194608F066FD03B05DF8FE
:1007E00004FB00BF10B5044B044640F8103B09F071
:1007F000FDFF204610BD00BF1C9601002DE9F04111
:100800000E4680460DF0FCFF234C20600BF0C4F92F
:10081000054620680BF09CF9074620680BF086F926
:10082000A5F2BC739BB27F2B02D8FAB20C2A28D94E
:100830000023A8F8003020680BF09CF907462068D8
:100840000BF050F9054620680BF05EF9FBB2172B50
:1008500013D8EBB23B2B10D8C3B23B2B0DD8FB0205
:100860006D0103F4FF2305F4FF552B43C0F346004D
:1008700003439BB23380BDE8F08100233380BDE8A1
:10088000F081C0B21F28D3D87F0107F4FF57384347
:1008900040EA43239BB2CCE7344F0020103008F0ED
:1008A000BFBB00BF103008F0A3BC00BF00B583B0D1
:1008B00001220DF10701103008F0E8FA01280CBF01
:1008C0009DF807004FF0FF3003B05DF804FB00BF58
:1008D00010B504460FF004FB204610BDF8B50446E1
:1008E00004200D460EF0BCF8074603200EF0B8F8C1
:1008F00006462FBB224F234A3B680121132B117060
:1009000036DD0133642B3B6037DDC82BD4BF0534A3
:100910003C3466B91C4E1B4A33680121132B1170FD
:1009200020DD3C2C10DC01233360013C02E0164B3F
:1009300000221A60002CB8BF2C460EDA2046F8BD03
:100940000F4B00221A60E4E733680133642B3360F5
:10095000EBDDC82BD4BF053C3C3CA542B8BF00240E
:100960002046F8BDC8200EF0C5F83C2CDBDDEBE7D7
:10097000C8200EF0BFF83B68C3E70134C9E700BFE9
:1009800054520020384F0020C4520020836C13B111
:10099000184608F02DBCC06C08B106F061BE704767
:1009A00000B5836C83B063B1184601220DF10701D5
:1009B00008F06CFA01280CD19DF8070003B05DF82F
:1009C00004FBC06C28B101220DF1070106F066F9A5
:1009D000F0E74FF0FF30F1E7836C13B1184608F0F1
:1009E0001FBBC06C08B106F029BA4FF0FF3070474A
:1009F000826C62B1137803F0080303F0FF0003B3C5
:100A0000D3695069181A48BF6FF000407047C16C35
:100A1000C1B191F8313003F0080303F0FF0083B156
:100A2000D1E90423D1E90001101A30B463EB0101CC
:100A300000256FF000448D4208BF844200D220465A
:100A400030BC70470846704710B5044612F078FB7A
:100A500001462046BDE810400EF0E6BF836C13B19E
:100A6000184608F021BCC06C08B107F01DB87047EB
:100A700000B5836C83B08DF8071043B1184601228E
:100A80000DF1070108F010FC03B05DF804FBC06C29
:100A90000028F9D001220DF1070107F005F803B095
:100AA0005DF804FB464A474B102010801B781B075B
:100AB00034D5F0B5444E454D454C31782B782278ED
:100AC000DFF82CE1434F824042EA03230B43FF222D
:100AD000802132702A7022708EF800103970D90788
:100AE0003D4A14D51A2393603C4F3D4E3D4D3E4C3C
:100AF0003E49107900233B7053709370D370D360DC
:100B0000337013712B70237013700870F0BD1F07C2
:100B100005D4DE0606D504239360E5E7704721235C
:100B20009360E1E79D0604D45C0604D51623936028
:100B3000DAE79060D8E7180602D509239360D3E777
:100B4000D90502D50A239360CEE79F0502D50D2370
:100B50009360C9E75E0502D50B239360C4E71D05CA
:100B600002D51E239360BFE7DC0402D50223936005
:100B7000BAE7980402D507239360B5E7590402D574
:100B800006239360B0E71F0402D515239360ABE7FB
:100B9000DE0302D524239360A6E79D0302D522231A
:100BA0009360A1E7DC0202D5252393609CE718033C
:100BB000F5D45903F3D49B0244BF2323936093E7F6
:100BC0000020054002D0074005C0074006C007408E
:100BD00007C0074009C007408057002000C00740F9
:100BE00001C0074002C0074003C0074004C00740DF
:100BF00008C00740002976D02DE9F04F0C4691003F
:100C0000631883B05D68002D57D06B185E68002EA6
:100C100050D073185F68002F49D07B18D3F8048038
:100C2000B8F1000F3CD008EB0103D3F80490B9F100
:100C3000000F32D009EB0103D3F804A0BAF1000F82
:100C400027D00AEB0103D3F804B0BBF1000F18D092
:100C50000BEB01035B6863B1194401934968FFF72B
:100C6000C9FF019B93F825201AB11A6818465368EA
:100C700098479BF8253023B1DBF8003058465B6875
:100C800098479AF8253023B1DAF8003050465B686F
:100C9000984799F82530002B35D198F8253063BB5B
:100CA00097F825301BB13B6838465B68984796F843
:100CB0002530CBB995F8253063B994F8253013B9B0
:100CC00003B0BDE8F08F23685B68204603B0BDE841
:100CD000F04F18472B6828465B68984794F82530F2
:100CE000002BEDD0EFE77047336830465B689847DC
:100CF00095F82530002BE0D0ECE7D8F800304046DE
:100D00005B689847CCE7D9F8003048465B6898475D
:100D1000C3E700BF90F92420531C26D01B4B2DE9BC
:100D2000F04153F82240D2B2ECB19300E1184D6883
:100D3000B5B1E9184E6866B1F1184F6837B13B4458
:100D40005968FFF757FF97F82530A3B996F8253073
:100D500063B995F825301BB12B6828465B68984726
:100D600094F8253063B9BDE8F081704733683046A8
:100D70005B689847EDE73B6838465B689847E5E76E
:100D8000236820465B68BDE8F041184718540020EE
:100D90002DE9F843544CB4F8B021B4F8B23192B212
:100DA0009BB29A4238BF6432D31A3F2B67DD4F4D56
:100DB000D4F8AC91DFF8308105F58047002637E0A4
:100DC0004FF4807200210DF033F848460FF004F81C
:100DD000C4F8AC61B4F8B231B4F8B0219BB292B2AD
:100DE00093424ED00133632B86BF4FF0000E734603
:100DF0001FFA83FE063304EB83034FF48072D3F8AB
:100E00000490C4F8AC9109F104012846A4F8B2E1B9
:100E10000DF00EF8B9F1000F04D048460EF0DCFFDB
:100E2000C8F8AC6105F50075AF424FF0000934D049
:100E3000A5F58070B9F1000FC2D1B4F8B231B4F8A1
:100E4000B0219BB292B2934248D00133632B86BF4C
:100E5000CE4673461FFA83FE063304EB83034FF43A
:100E60008072D3F80490C4F8AC9109F10401A4F89D
:100E7000B2E10CF0DDFFB9F1000FABD0A5E7BDE8A2
:100E8000F88328464FF48072002105F500750CF0B8
:100E9000CFFFAF424FF00009CAD1154B986C60B13B
:100EA0004FF48042134908F0FFF901300ED0124A86
:100EB000136820331360BDE8F883D86C0028F6D09F
:100EC0004FF480420B4906F0EFFDEEE701211420BC
:100ED0000DF002FB094B0A4A1A60E8E749464FF455
:100EE00080720CF0A5FF75E7484F0020880B0020AA
:100EF00058520020880A0020444F00200CED00E0EA
:100F00000400FA0508B50849084A094B0988118008
:100F100008480022A3F8B42109F068FC6420BDE869
:100F200008400DF0E7BD00BF985500207055002027
:100F3000484F0020685200202DE9F04F95B00DF089
:100F40005FFCB34CB34D20600AF002FE2B68984260
:100F500000F033822068B04E0AF0FAFD2860206865
:100F60000AF01AFE2B68AD490246AD4812F08AF825
:100F7000AC480AF009FAD6F87854002D00F0168132
:100F800005F23C4101230025A54A8DF8185006A81A
:100F90008DF819508DF81A5007F018FE1020002116
:100FA0000DF06CFDD6F878049B4B002800F0F3811F
:100FB0009B4909F0F5FB20680AF0EEFD0546206824
:100FC0000AF0C6FD804620680AF0B0FD834620681E
:100FD0000AF0D0FD814620680AF084FD8246206830
:100FE0000AF092FD434603902A468F49CDF800B09F
:100FF000CDF808A0CDF804908C4812F043F8894849
:101000000AF0C2F90027082410200DF049F910F069
:101010009DFD4FF06A5110F0EDFD0146384610F08D
:10102000E1FC013C0746EFD1D6F878447A4B002C1E
:1010300000F0A28104F23C45284607F073FC2146EB
:10104000284607F003FF7A4D2968002900F0C18087
:10105000DFF8EC91774A09F1100040F2092309F01A
:10106000D9FB002800F0B580704812F069F80246FC
:10107000D9F84800002800F0CE816C4908F014F936
:10108000D9F848002C238DF81530002800F09A81FB
:1010900001220DF1150108F007F9674C04F1080A67
:1010A000DFF89C8114F8011F404600230A220FF04C
:1010B0008FFAA245F4D1D8F848002C238DF81830C7
:1010C000002800F09E81012206A908F0EDF85B4B94
:1010D0005B4C186810F0E4F84FF0020E02460B4625
:1010E000CDF800E020460FF0B3FAD9F848002C23E1
:1010F0008DF81730002800F07A8101220DF11701D8
:1011000008F0D2F838464F494D4F10F073FD4FF0BC
:10111000785110F06FFD044610F0C2F84FF0020E47
:1011200002460B46CDF800E038460FF091FAD9F8A8
:1011300048002C238DF81630002800F04E81012243
:101140000DF1160108F0B0F83F4811F0F9FF024622
:10115000D9F848003A49002800F067813A4908F078
:10116000A3F8374F38460FF00DFA3849204610F0F3
:10117000DFFE30B1DFF8F080D8F80030002B40F00F
:1011800095812046324910F0D3FE002840F0558169
:10119000304809F02BFBD6F878041F4B28BBD3F856
:1011A0007C0428B31E4907F095FA21E0D6F87C1498
:1011B00000293FF4F3AE01F588610123184A8DF848
:1011C000495006A88DF84A508DF84B5006F04AFB5E
:1011D000E4E6142001210DF07FF91F4BD6F87804C6
:1011E0001E4A1A600C4B0028D9D00D4909F0D8FAD4
:1011F0000E481B4CDFF86080184F11F0A1FF01462C
:101200000A480EF011FC17480FF0BCF94AE000BF85
:10121000344F0020CC5200208C4A002088960100D8
:1012200008510020FD07000094960100E4510020C1
:101230000C540020B496010093510020A8510020C6
:1012400058520020CDCCBC4008FAFF1F66664640CD
:1012500000004040685200200CED00E00400FA0558
:1012600004510020D8FFFF1FA4510020A54909F018
:1012700097FA296829B140F60123A34AA34809F047
:10128000C9FAA14811F05CFF01469F480EF0CCFB63
:101290009F480FF077F90A200DF02CFC2368B3F576
:1012A0007A7F62DC296849B1DFF89492964A09F1A5
:1012B000100040F6012309F0ADFAA0B92368954962
:1012C000914801331A46236011F0DCFED6F8780409
:1012D000914B0028CAD1D3F87C040028C9D0894991
:1012E00007F0F8F9C5E78D488D4906688D4C8E4AA0
:1012F0008E4B8F4F03C9206092E80300A06093E8F3
:10130000030010250123A382E382E06025613046BB
:1013100010F05CFE3146A061304610F063FB10F027
:1013200055FE844A3B68E06192E803005B02D9F80D
:101330004820658403F12401022525846062A362AC
:1013400061608AB3104621462C2207F0ADFF0921C7
:1013500079480EF069FB39686D480FF0BBF86C48AE
:101360000FF010F915B0BDE8F08F012114200DF039
:10137000B3F8C8F8007095E7D3F87C44002C3FF42C
:1013800062AE04F58865284605F00CFC2146284627
:1013900005F012FC57E6D3F87C0400283FF40BAEAE
:1013A000584907F097F906E6D9F84C000028CED046
:1013B00021462C2206F078FBC9E7574EEEE52C2398
:1013C0008DF81530D9F84C0000283FF466AE0122A4
:1013D0000DF1150106F068FB5FE6F86C00283FF49C
:1013E000C0AE01220DF1160106F05EFBACE6E06C2A
:1013F00000283FF487AE01220DF1170106F054FBDF
:1014000080E6D8F84C0000283FF461AE012206A91E
:1014100006F04AFB5BE6D9F84C000028CFD03A49E9
:1014200006F042FBD9F848002CE6C86C00283FF4CF
:1014300098AE424906F038FB93E6D9F84800404B95
:1014400000284ED028223F4907F02EFF3C480FF0DD
:1014500099F82E4809F0CAF90027082410200CF04A
:101460001FFF10F073FB4FF06A5110F0C3FB0146F1
:10147000384610F0B7FA013C0746EFD1324910F078
:10148000B9FB4FF0785110F0B5FB304910F050FD2A
:1014900020B147F230500DF02DFBDDE70121142083
:1014A0000DF01AF82A4B2B4A1A6071E6012105202B
:1014B0000DF0B2FA40F6B8300DF01CFB052000210B
:1014C0000DF0AAFA244AB86C00231370C8F8003053
:1014D00078B10B22214907F0E7FE19480FF052F8C6
:1014E0004FE6D86C0028B1D02822164906F0DCFA65
:1014F000ACE7F86C0028F0D00B22184906F0D4FABB
:10150000EBE700BF08510020E451002068520020A2
:10151000D8FFFF1F009701008C4A0020A85200202E
:101520000C9701001C530020149701001C97010028
:101530004452002024970100F496010008FAFF1F8E
:1015400058520020C8960100CDCCBC4033335340E4
:101550000CED00E00400FA05414F0020BC960100AC
:1015600038B5154DFFF7E8FC144BD5F8AC01002455
:101570001C6018B10EF030FCC5F8AC41B5F8B241B2
:10158000B5F8B031A4B29BB29C420ED00134642CA9
:1015900028BF0024A31D05EB830358680EF01CFC34
:1015A000B5F8B0319BB2A342F0D1A4B20123A5F8A3
:1015B000B241A5F8B43138BD484F0020444F002057
:1015C00038B51F4BD3F8784424B304F23C45284681
:1015D00007F0A8F92146284607F038FC194B19688E
:1015E000B1B1194C194A04F1100040F2092309F075
:1015F00011F970B1A06CD8B12922154907F054FE39
:1016000011480EF0BFFF1348BDE8384009F0EEB8AE
:1016100038BD38BDD3F87C44002CDFD004F5886594
:10162000284605F0BFFA2146284605F0C5FAD5E759
:10163000E06C0028E4D02922054906F035FADFE7FE
:101640008C4A00200C54002058520020B49601000F
:101650002C97010068520020264B1B680F2B0CD8DA
:10166000DFE803F00C1014181C2024282C30343828
:101670003C404408204B214A1A6070471E4B204AC8
:101680001A6070471C4B1F4A1A6070471A4B1E4A5B
:101690001A607047184B1D4A1A607047164B1C4A57
:1016A0001A607047144B1B4A1A607047124B1A4A53
:1016B0001A607047104B194A1A6070470E4B184A4F
:1016C0001A6070470C4B174A1A6070470A4B164A4B
:1016D0001A607047084B154A1A607047064B144A47
:1016E0001A607047044B134A1A607047024B124A43
:1016F0001A60704700FAFF1FA8510020BD549341A3
:10170000103377C0993918C0BE0D68BFCE71153F30
:101710008D090340CCC9624009A7A3407DDBD140BD
:10172000C416014154FC1741D0E8304119554641D7
:101730009FAB5F41A04176415E2E864127492848F4
:101740000B6850F82320002A36D10133254A0B605C
:101750000120042B107035D070B5234A234D12F8A8
:1017600023608CB000248DF80D40059404958DF80D
:101770000C6003AB93E8070006AB83E807008DF825
:101780001940079508948DF8186093E8070009AB95
:1017900083E80700164C0B9A009204F591650CCB78
:1017A000284604F29C4109F03BF994F89534C4F8BA
:1017B000845443B10CB070BD013A40F82320002A94
:1017C000C3D07047FEE72946204609F075F8002887
:1017D000F0D00CB0BDE87040FFF7F2BE0853002017
:1017E000B052002050520020AC51002080F0FA028C
:1017F0008C4A00202DE9F0473B4E3C4B3C493D4A8A
:101800003D4C93F80080257892F800900C780746BC
:1018100030680AF0AFF9824630680AF063F9374B56
:101820001B681BB901242046BDE8F0873C23CAEBA6
:101830000A1A13FB054500EB8A0A122130480AEB0D
:10184000070613FB09870EF0EFF800230A2229464A
:101850002C480EF0BDFE2B480EF094FE10212A48B5
:101860000EF0E2F800230A22394626480EF0B0FEB8
:1018700024480EF087FE102124480EF0D5F831469A
:1018800000230A221F480EF0A3FE1E480EF07AFE27
:10189000BD4210D2B54294BF01240024B74298BF84
:1018A0000024002CBFD0212119480EF0BDF81548A6
:1018B0000EF068FEB7E7B54298BFB6F5B46F34BF17
:1018C00001250025002E18BFB7428CBF0126002637
:1018D00055EA0604A7D021210E480EF0A5F80948C4
:1018E0000EF050FE9FE700BF3C4F0020404F00200D
:1018F00004530020E0510020800A002048520020BC
:1019000058970100D8FFFF1F6C97010080970100D6
:1019100094970100B897010008B5012105200DF04A
:101920007BF84FF4FA600DF0E5F8002105200DF08A
:1019300073F8024B01221A7008BD00BF414F00200E
:1019400008B5012105200DF067F8C8200DF0D2F888
:10195000002105200DF060F8014B01221A7008BD2E
:10196000414F002008B5012105200DF055F8C82091
:101970000DF0C0F8002105200DF04EF864200DF0A8
:10198000B9F8024B01221A7008BD00BF414F002078
:1019900008B5012105200DF03FF840F6B8300DF0F4
:1019A000A9F8002105200DF037F8024B00221A702B
:1019B00008BD00BF414F00202DE9F0438FB0044621
:1019C00011F0BEFB00B201281CDDB4F9003044F276
:1019D0005372934200F0A68118DD44F654529342AC
:1019E00000F0DA8045F2532293422FD044F652128F
:1019F000934207D10BAAE01CBD4911F069FBBD4B16
:101A00000B9A1A6001200FB0BDE8F08344F24E42F9
:101A100093420FD044F252429342F3D10BAAE01CFE
:101A2000B34911F055FBB44B0B9A1A6001200FB06B
:101A3000BDE8F0830BAAE01CAD4911F049FBAF4BA8
:101A40000B9A1A6001200FB0BDE8F0830AAD09A916
:101A500008AA05ABE01C039502910192009307AA26
:101A600006ABA74911F034FBA64B079D59681868CF
:101A70009A680A9EDDF824E0DDF820C0A5F5FA6535
:101A8000ADB20BAF2CB207C7069F05991E3415F0F7
:101A9000030F4FEAA408FDB240F059819A4B022D82
:101AA0008CBF1F4600279948994BC8EB040400FBE4
:101AB00008F06A1E03FB0400002A00EB070347DD61
:101AC0009DF82C409048012A00FB043340D09DF83B
:101AD0002D40022A00FB04333AD09DF82E40032A01
:101AE00000FB043334D09DF82F40042A00FB04335C
:101AF0002ED09DF83040052A00FB043328D09DF8F5
:101B00003140062A00FB043322D09DF83240072AD8
:101B100000FB04331CD09DF83340082A00FB04333B
:101B200016D09DF83440092A00FB043310D09DF8EC
:101B300035400A2A00FB04330AD00B2A9DF83640B0
:101B400018BF9DF8372000FB043318BF00FB023399
:101B50005FFA8EF2C2EB02125FFA8CF04FF461640E
:101B6000920004FB0022684D6A4C6B48C9B20139EF
:101B700052FA86F205FB01221344122123600DF074
:101B800053FF216865480EF0A5FC64480EF0FAFC8E
:101B900001200FB0BDE8F0830AAD09A908AA05AB82
:101BA000E01C039502910192009307AA06AB5449E9
:101BB00011F08EFA534B079F9A68186859680A9E6D
:101BC000DDF824E0DDF820C0A7F5FA67BFB20BAC62
:101BD0003DB207C4069A059C1E3517F0030F4FEA65
:101BE000A508D7B240F0B080474B022F8CBF994672
:101BF0004FF000094549464BC8EB050501FB08F1CC
:101C00007A1E03FB0510002A00EB090347DD9DF84F
:101C10002C003D49012A01FB003340D09DF82D00E6
:101C2000022A01FB00333AD09DF82E00032A01FB63
:101C3000003334D09DF82F00042A01FB00332ED04E
:101C40009DF83000052A01FB003328D09DF83100B3
:101C5000062A01FB003322D09DF83200072A01FB3F
:101C600000331CD09DF83300082A01FB003316D046
:101C70009DF83400092A01FB003310D09DF835008F
:101C80000A2A01FB00330AD00B2A9DF8360018BF40
:101C90009DF8372001FB003318BF01FB02335FFAC8
:101CA0008EF2C2EB02125FFA8CF04FF46165920083
:101CB00005FB0022E1B2144C164D52FA86F20139AE
:101CC00004FB01241C4420462C600CF09FFD0B21DA
:101CD00013480DF0A9FE214600230A220F480EF0FA
:101CE00077FC0E480EF04EFC01200FB0BDE8F083EB
:101CF000FC97010070FAFF1F64FAFF1F840A00209E
:101D0000DC97010070960100805101000085E2011E
:101D10008033E1013C4F002000980100D8FFFF1FF5
:101D2000F0970100E01C0BAA0C4911F0D1F90B9BB4
:101D30000F2B0ED90A4B042119600F200CF0CCFB9D
:101D400001200FB0BDE8F0834FF0000952E70027F3
:101D5000A9E6034AD9B21360EFE700BFFC97010080
:101D600000FAFF1F2DE9F0436D4F6E4BD7F8785402
:101D700097B04FF47A72099300238DF828308DF8CC
:101D800030308DF834308DF835308DF836300B9298
:101D9000002D5AD005F23C46304606F0C3FD2946D8
:101DA000304607F053F80DA800225F4907F03EF8CF
:101DB0009DF83450002D56D000252E468DF8046035
:101DC0004FF000094FF0FF0801220DF103010DA8AB
:101DD00007F05CF809F1010316AA01284A441BB276
:101DE00024D01D2B02F8548C05DC9946ECE71D2B02
:101DF00001DC0A2AF9D1013B9BB216AA1A4402F867
:101E0000546C9DF804202F2A04D0012B02D901A87C
:101E1000FFF7D2FD9DF834301B0711D40DA806F052
:101E200081FD9DBB012017B0BDE8F0839DF8032024
:101E30000D2A08BF4B4664D11D2BDCDC9946C3E755
:101E4000149A129B9A42B9D1E8E7D7F87C54002D36
:101E5000A9D005F58866304604F0A4FE2946304630
:101E600004F0AAFE9FE7142130480DF0DDFD304854
:101E70000EF088FB0D222F492F480EF015FB2E483F
:101E80000EF080FB284617B0BDE8F0830B212B48ED
:101E90000DF0CAFD00230A22214625480EF098FBCA
:101EA00023480EF06FFBD7F878541D4BDDB105F2D7
:101EB0003C46304606F036FD2946304606F0C6FF61
:101EC00044F2022218490DA806F0B0FF21460DA8E1
:101ED00007F0DCF802221A490DA807F0E5F90DA871
:101EE00006F020FD9EE7D3F87C54002DE8D005F5E0
:101EF0008866304604F056FE2946304604F05CFE03
:101F0000DEE716AB03EB0901542A09F1010301F8DE
:101F1000542C1BB27FF46BAF129C0546013C8BE73F
:101F20008C4A0020F89501001498010030980100B7
:101F3000D8FFFF1F489801000C5200202098010094
:101F40002C9801002DE9F041044604200D46164668
:101F50000CF086FD804603200CF082FD0746B8F1A8
:101F6000000F2AD1DFF89C80244AD8F800300121E4
:101F7000132B117039DD0133642BC8F800303ADDC2
:101F8000C82BD4BF05343C3467B91D4F1B4A3B688E
:101F90000121132B117022DD3C2C16DC01233B6048
:101FA000013C02E0164B00221A60AC4209DBB4424D
:101FB000C8BF2C462046BDE8F081124B00221A60B3
:101FC000E2E734462046BDE8F0813B680133642BEC
:101FD0003B60E5DDC82BD4BF053C3C3CE5E7C820B1
:101FE0000CF088FD3C2CD9DDEFE7C8200CF082FD19
:101FF000D8F80030BFE70134C6E700BF384F0020F3
:10200000C4520020545200202DE9F04F85B00CF04E
:10201000F7FBC14BC14C18600121C148C14EDFF82C
:102020005C83C14DC14F0AF041FD0121BC480AF05B
:1020300043FD26220021BA480AF034FD0322BC49A0
:10204000B7480EF031FA26221921B5480AF02AFDC8
:102050000322B849B2480EF027FA26223221B048AE
:102060000AF020FD0322B449AD480EF01DFA2622E5
:102070004B21AB480AF016FD0222B049A8480EF0E9
:1020800013FA2E220021A6480AF00CFD2168A4486C
:102090000EF020FA2E221921A1480AF003FD316822
:1020A0009F480EF017FA2E2232219D480AF0FAFCC2
:1020B000D8F8003055F823000FF048FDA0490FF084
:1020C0004DFE0FF0EDF80B4602469E4994480EF087
:1020D00071FA2E224B2192480AF0E4FC9A4B1868C0
:1020E0000FF0DEF802460B468D4896490EF062FA74
:1020F000D8F80030246855F82330600003FB00F066
:1021000000F500402C300FF01DFD8D490FF026FE2C
:102110008B490FF023FED7F80090B9F1010F8046EC
:1021200000F051814FF07E530193884B884A1B6821
:10213000156820469A460FF009FD02903068204449
:102140000FF004FD0299834601980FF053FD5946A4
:102150000FF004FE064628460FF0F8FC7D4B196888
:102160000FF048FD5146CDF80CA00FF03BFC314676
:102170000FF040FD314682464FF07E500FF030FCAC
:10218000754A11680FF036FD014650460FF02AFCE3
:10219000B9F1010F14BF002505F001058246ADB16C
:1021A00001994FF07E500FF01BFC594605460298EE
:1021B0000FF0D4FD014628460FF01CFD03990FF0E7
:1021C00019FD014650460FF00DFC8246634ADFF8C8
:1021D000B0B11078DFF8AC910FF0B8FC604A11682C
:1021E0000FF008FD51460FF0B9FD5E490FF002FDFA
:1021F0000FF0ECFEDBF8005000238246C9F80030F7
:10220000C9F80430C9F80830C9F80C307DB1284647
:102210000FF098FC41460FF0A1FD0FF041F80EF0D1
:1022200053FE0FF069FBC9F8000000FB04F5DBF872
:10223000040070B10FF086FC41460FF08FFD0FF0E7
:102240002FF80EF041FE0FF057FBC9F8040000FB19
:1022500004F0DBF8083005447BB118460FF072FC3F
:1022600041460FF07BFD0FF01BF80EF02DFE0FF036
:1022700043FBC9F8080004FB00F3DBF80C001D4425
:1022800070B10FF05FFC41460FF068FD0FF008F8E9
:102290000EF01AFE0FF030FBC9F80C0004FB00F042
:1022A00028440FF04FFC31460FF058FD04465046CD
:1022B0000FF048FC014620460FF058FE26225C2114
:1022C000002866D016480AF0EDFB0522264914487E
:1022D0000EF0EAF85C2112482E220AF0E3FB2349B3
:1022E0000F4881FB0A3151444FEAEA7ACAEB214197
:1022F0000EF0F0F801221E4909480EF0D5F87321BE
:10230000372207480AF0CEFB3A680548012A0EBF7B
:1023100018491949012237E0344F002064FAFF1FA1
:102320000C52002070FAFF1F14FAFF1F48520020C1
:10233000589801005C9801006098010064980100C1
:1023400000007A4468980100A85100209CFAFF1F01
:10235000A451002074FAFF1F68FAFF1F60FAFF1FE4
:102360006CFAFF1F000061457098010007452EC2FE
:10237000EC970100809801008498010058FAFF1F33
:102380000C530020B052002005B0BDE8F04F0EF015
:102390008BB820480AF086FB05221F491D480EF025
:1023A00083F82E225C211B480AF07CFB20460FF0AC
:1023B000E7FD1A49034681FB03211944DB17154841
:1023C000C3EB214194E7164A164B10781B788342E1
:1023D00086BFC3F11803C018C01A0FF0B7FB124A2A
:1023E000124B82461B781078834286BFC3F13C03B0
:1023F000C018C01A0FF0AAFB0D49054650460FF051
:10240000F9FB29460FF0EEFA0A490FF0A7FC0190FC
:102410008BE600BF0C5200207898010007452EC2C1
:10242000E0510020800A0020404F0020045300208B
:10243000000070420000B44438B5054609F0ACFB1A
:102440001E4C014620460EF045F82D200DF0C0FB35
:10245000284609F07DFB014620460EF03BF82D2072
:102460000DF0B6FB284609F061FB014620460EF050
:1024700031F8012112480DF0D7FA284609F07AFB0D
:10248000014620460EF026F83A200DF0A1FB284622
:1024900009F028FB014620460EF01CF83A200DF00A
:1024A00097FB284609F030FB014620460EF012F853
:1024B0002046BDE838400EF065B800BFD8FFFF1FCA
:1024C000A49901002DE9F0434E4A4F4BDFF850919B
:1024D000DFF850814D4F117898F800401A7899F83C
:1024E0000060386883B03C2313FB064613FB0124CD
:1024F00009F040FB0546386809F0F4FAC5EB05150C
:1025000000EB8505386809F047FB00F14E03386899
:102510008DF8063009F01CFB8DF80500386809F0CD
:1025200005FBA6428DF804000AD2AE4248D8AC4260
:1025300046D3A41BC4EB0414354D3648A40010E068
:10254000AE4201D9AC421AD3C4EB0414A300A6EBEB
:10255000061403EB840404F5A8342D4D2D4804F52E
:10256000C07410212C600DF05FFA29682A480DF024
:10257000B1FF29480EF006F803B0BDE8F08302A8C9
:10258000002399F8002000F8083D98F800308DF8F5
:1025900001308DF8022009F013FB38600CF030F99F
:1025A0003B68834204DA03F5A83303F5C0733B604C
:1025B0000F211A480DF038FA3868FFF73DFFC3E7DE
:1025C00002A8002399F8002000F8083D98F8003090
:1025D0008DF802208DF8013009F0F2FA38600CF025
:1025E0000FF93B68094A834204DA03F5A83303F57F
:1025F000C07313600F2109480DF016FA3868FFF711
:102600001BFF96E7E0510020404F00203C4F002088
:102610006C51002098980100D8FFFF1F8898010096
:10262000800A00200453002010B500200BF0FEFEAD
:10263000234C207001200BF0F9FE607002200BF09B
:10264000F5FEA07003200BF0F1FE1E4BE070226837
:102650001A6004200BF0EAFE207005200BF0E6FE65
:10266000607006200BF0E2FEA07007200BF0DEFE8B
:10267000154BE07022681A6008200BF0D7FE134B50
:10268000187009200BF0D2FE114B18700A200BF0C5
:10269000CDFE104B18700B200BF0C8FE0E4B1870BF
:1026A0000C200BF0C3FE0D4B18600D200BF0BEFE8E
:1026B0000B4B18600F200BF0B9FE0A4B186010BDD1
:1026C000C052002064FAFF1F70FAFF1F800A00202A
:1026D00004530020E0510020404F002048520020C9
:1026E00058FAFF1F00FAFF1F38B50A4C0B46054683
:1026F000C9B223600BF0F0FE6178681C0BF0ECFEB1
:10270000A178A81C0BF0E8FEE178E81CBDE8384091
:102710000BF0E2BEC0520020284B10B51968284CBF
:1027200000202160C9B20BF0D7FE617801200BF0C8
:10273000D3FEA17802200BF0CFFEE17803200BF04E
:10274000CBFE204B196821600420C9B20BF0C4FEF7
:10275000617805200BF0C0FEA17806200BF0BCFECE
:10276000E17807200BF0B8FE174B082019780BF022
:10277000B3FE164B092019780BF0AEFE144B0A205D
:1027800019780BF0A9FE134B0B2019780BF0A4FE5F
:10279000114B0C2019780BF09FFE104B0D2019786F
:1027A0000BF09AFE0E4B0E2019780BF095FE0D4B98
:1027B0000F201978BDE810400BF08EBE64FAFF1FA1
:1027C000C052002070FAFF1F800A0020045300202E
:1027D000E0510020404F00204852002058FAFF1FCF
:1027E00060FAFF1F00FAFF1F2DE9F04F8DB010298E
:1027F0000791069000F0BF80202900F0B0800024EF
:10280000631C18461D4608930FF09CF9E4B244F08F
:10281000E0630990002128460A9344F08E430B930D
:102820000FF0AAF901465A480FF098FA05460798A2
:102830000FF088F901460FF0D5F8044606980FF01E
:1028400081F9014620460FF0D5F9014628460FF0E0
:1028500085FA4FF001084FF07E550746C1464FF00C
:10286000010A4FF0000B50460FF070F939460FF097
:10287000C1F904460FF084FB0FF068F901462046C9
:102880000FF0AEF8294606460FF052FB4FF0874195
:1028900048B120460FF04CFB28B120460FF0CEFB8C
:1028A00035468046D1461AF1010A4BF1000BBBF1C7
:1028B000000F08BFBAF1400FD5D109F1FF34089BD2
:1028C000079E059320460296CDF81080CDF80C9017
:1028D0000FF038F94FF07E510FF084F82D490FF0CA
:1028E00089F9054640460FF02DF9014628460FF0BC
:1028F00035FA4FF07C510FF07DF909990FF02EFA5F
:10290000054670000FF022F9014628460FF026FA1E
:102910000FF036FB204B069A019000921F49204889
:10292000204E214D1A460DF045FE204920480F68E3
:10293000220308F1FF3302F47F22C3F30B03134396
:1029400027F010420A6033600A9B2B600B9B0360E8
:102950000B6843F010430B600DB0BDE8F08F154BD2
:102960000B9303F140430A934FF0804309930223F2
:10297000114D08935BE7114B0B9303F140430A930E
:102980004FF08143099304230D4D08934FE700BF97
:10299000001B374C001BB74C00D8B805B09801009D
:1029A000D8FFFF1F04F1024008F0024080F002400F
:1029B00088F0024001000047001BB74B03000047AE
:1029C000001B374B2DE9F04F0546DFF87C82974E10
:1029D000974F98F800E02E60FF2085F82400DFF87C
:1029E0006C92387859F820C00023BEF1060F8DB0E4
:1029F0000C4685F8253085F826309CBF88F80030D5
:102A00009E46BCF1000F00F0A8808C455BD0634669
:102A1000810001E09C4256D00B445B68002BF9D149
:102A2000634603EB010ADAF80430002BF9D105EB19
:102A3000010BCAF80440BEF1060F4FF0FF044FFA35
:102A400080FACBF804308DF82C4002968DF82D30AA
:102A50008DF82E3085F824A0644605D8002388F828
:102A60000030002C00F0A980A24226D0234601E0CD
:102A7000934222D00B445B68002BF9D104EB010C8C
:102A8000DCF80440002CF9D1CCF804200CAB19443C
:102A90000024431CBAF1FF3F41F8244C3B708DF8F1
:102AA0002CA0029605D0634951F82A3002AA93421D
:102AB00072D028460DB0BDE8F08F0130387028463E
:102AC0000DB0BDE8F08F0023FF21BEF1060F029686
:102AD0008DF82C108DF82D308DF82E3001D888F817
:102AE00000309445E9D06346810001E09A42E4D089
:102AF0000B445B68002BF9D18C44DCF804402CB10A
:102B0000A4468C44DCF80440002CF9D10CAB1944E9
:102B10004FFA80FE431CBEF1FF3FCCF804203B700F
:102B200041F8244C02968DF82CE0C2D0414951F86E
:102B30002E3002AA9342BCD159F82E304FEA8E06AD
:102B400023B19A1953685460002BFAD100233870CE
:102B500049F82E3041F82E30ABE7B0B38100DFF8F2
:102B6000D4A049F8204005EB010C00234AF820507E
:102B7000BEF1060FCCF804304FFA80FA4FF0FF0C8C
:102B800002968DF82D308DF82E3085F824A08DF822
:102B90002CC07FF663AF64E759F82A304FEA8A0603
:102BA00023B19A1953685460002BFAD1002338706E
:102BB00049F82A3041F82A307BE7F0B11D4B49F83B
:102BC000202002AA43F8202060E71B491B480B681D
:102BD000019243F080630B600368194923F080433E
:102BE000036015200BF040FD164B98F800E0019AA9
:102BF0004FF4001119603878B0E70F4C0F48236884
:102C0000019243F08063236003680D4923F0804301
:102C1000036015200BF028FD0A4B019A4FF40011B8
:102C2000196038784FFA80FA8100C7E7649601008E
:102C300059540020385400200470044000700440AF
:102C40007504000000E100E0BCF3FF1F18540020F1
:102C50002DE9F041614D624C624E0BF09FFB4FF04D
:102C6000FF3161480AF0EEFC2A6826600023637297
:102C700023612372E3600AB9ABE01A465369002B63
:102C8000FBD154610027594B55486761A780E78005
:102C9000A772236003F012F9554A4FF0010E02F1BA
:102CA00018013B4638461772D760166082F809E073
:102CB0001161174600E0396941F82300517A4C4E02
:102CC00001339942F7DC2968444B09B983E019467E
:102CD0004B69002BFBD14A61464D474B2C600024C9
:102CE000284654619480D4809472A2F8B041136055
:102CF000A2F8B241C2F8AC41A2F8B441C2F8B8415E
:102D00002C726A606C72EC602C740DF0B5F83B4963
:102D10003B4A3C4F3C4E28460FF03EFB3B4A3C4B67
:102D2000106A3C4A1A600EF011FF3B4D38604FF0BC
:102D3000FF083A4B85F82540012785F82480304A62
:102D400037496C632846AC6385F83C402B6085F8B6
:102D500026700FF021FB334B86F8248086F825403F
:102D6000274A31493360304686F8274086F82840A4
:102D700086F826700FF010FB2A4631462B482C4D62
:102D8000FFF720FE1E4A2B4928480FF005FB2A4B6F
:102D90001B4AC3F878442826C3F87C4483F8984437
:102DA00083F89564C3F8A0542449254D18460FF0C4
:102DB000F3FA244B124A1C714FF47A761C739C640C
:102DC000DC649E601D6020491846BDE8F0410FF0AC
:102DD000E3BA2C6056E71E607EE700BF6C5500200A
:102DE000C4510020EC9501000C520020A09C010071
:102DF000484F00207451002084960100D108000043
:102E0000FCF9FF1FA8520020D452002014FAFF1F23
:102E100088510020849C010024510020DC9D010089
:102E2000BD060000F09D010015070000580A0020B3
:102E300001100138F10500008C4A00206D070000E8
:102E40004096010058520020E507000070B5104C74
:102E500006460D4620460A2103F09EFBC6F30721D5
:102E6000204603F071F9F1B2204603F06DF9C5F385
:102E70000721204603F068F9E9B2204603F064F91F
:102E8000204603F09BFBB0FA80F0400970BD00BF04
:102E9000F053002010B5184C0A21204603F07CFBAB
:102EA0002046002103F050F92046302103F04CF970
:102EB0002046002103F048F90021204603F044F9A0
:102EC000204603F07BFB20460A2103F065FB2046E9
:102ED000002103F039F92046022103F035F920469C
:102EE000002103F031F92046002103F02DF920469E
:102EF000BDE8104003F062BBF05300200238032805
:102F000038B504DC002880F2E181002400E00C24C4
:102F10000A21C84803F040FB0021C64803F014F919
:102F20003021C44803F010F94021C24803F00CF9E5
:102F30006021C04803F008F9BE4803F03FFB0A21B6
:102F4000BC4803F029FB0021BA4803F0FDF8262114
:102F5000B84803F0F9F80021B64803F0F5F86C2101
:102F6000B44803F0F1F8B34803F028FB0A21B14854
:102F700003F012FB0021AF4803F0E6F82821AD482A
:102F800003F0E2F80121AB4803F0DEF8F021A94894
:102F900003F0DAF8A74803F011FB0A21A54803F073
:102FA000FBFA0021A34803F0CFF82C21A14803F03D
:102FB000CBF80F219F4803F0C7F822219D4803F06A
:102FC000C3F89C4803F0FAFA0A219A4803F0E4FA9D
:102FD0000021984803F0B8F83C21964803F0B4F873
:102FE0000021944803F0B0F80021924803F0ACF8B7
:102FF000904803F0E3FA904B8E481D680A21002D9B
:1030000040F0378103F0C8FA29468A4803F09CF85B
:103010003021884803F098F82946864803F094F850
:10302000A221844803F090F8824803F0C7FA0A21ED
:10303000804803F0B1FA29467E4803F085F8022162
:103040007C4803F081F829467A4803F07DF8432153
:10305000784803F079F8774803F0B0FA0A21754808
:10306000764D03F099FA0021724803F06DF80421BF
:10307000704803F069F800216E4803F065F82146B6
:103080006C4803F061F86B4803F098FA0A2169482C
:1030900003F082FA0021674803F056F806216548DC
:1030A00003F052F80121634803F04EF830216148E3
:1030B00003F04AF85F4803F081FA0A215D4803F003
:1030C0006BFA00215B4803F03FF80A21594803F0EE
:1030D0003BF80021574803F037F80021554803F02A
:1030E00033F8544803F06AFA0A21524803F054FABC
:1030F0000021504803F028F80E214E4803F024F830
:1031000000214C4803F020F808214A4803F01CF83D
:10311000484803F053FA0A21464803F03DFA0021DB
:10312000444803F011F81021424803F00DF8FF2144
:10313000404803F009F8FF213E4803F005F83D48F8
:1031400003F03CFA0A213B4803F026FA00213948F3
:1031500002F0FAFF2221374802F0F6FF7F213548BE
:1031600002F0F2FF7F21334802F0EEFF314803F016
:1031700025FA0A212F4803F00FFA01212D4802F009
:10318000E3FF24212B4802F0DFFF0021294802F051
:10319000DBFF0021274802F0D7FF264803F00EFA94
:1031A0000A21244803F0F8F90021224802F0CCFF5C
:1031B0002421204802F0C8FF01211E4802F0C4FF6C
:1031C00014211C4802F0C0FF1A4803F0F7F90A2145
:1031D000184803F0E1F90021164802F0B5FF2A2152
:1031E000144802F0B1FF0021124802F0ADFF0021A7
:1031F000104802F0A9FF0F4803F0E0F90921104838
:103200000CF012FC29680F480DF064F90D480DF020
:10321000B9F90A2107482C6803F0BEF900210548D6
:1032200002F092FF2021034802F08EFFC4F3072131
:103230000AE000BFF0530020A451002000FAFF1F55
:10324000CC980100D8FFFF1F224802F07DFFE1B2B9
:10325000204802F079FF1F4803F0B0F9B0FA80F17E
:1032600049091D480DF036F91B480DF08BF9012076
:1032700038BD03F091F90021164802F065FF3021B6
:10328000144802F061FF0021124802F05DFFAB21FB
:10329000104802F059FF0F4803F090F90A210D4839
:1032A00003F07AF900210B4802F04EFF0221094891
:1032B00002F04AFF0021074802F046FF632105485B
:1032C00002F042FF034803F079F9C7E68000C4B278
:1032D0001EE600BFF0530020D8FFFF1F10B5074BBC
:1032E0000446102153F82000FFF77EFA044802F04C
:1032F000D1FF2046BDE81040FFF700BE14FAFF1FC3
:10330000F053002038B504460D463148012109F03C
:10331000CDFB2AB200212E4809F0C4FB204608F05C
:103320003BFC01462A480DF0D5F82D21284809F02C
:103330007FFB204608F00CFC014625480DF0CAF83A
:103340002D21234809F074FB204608F0EFFB0146CD
:103350001F480DF0BFF802221E491D480DF0A4F8C9
:10336000204608F007FC092803DC3021184809F042
:103370005FFB204608F0FEFB014615480DF0AAF859
:10338000204608F0AFFB01220546134910480DF016
:103390008BF8092D03DC30210D4809F049FB294643
:1033A0000B480DF097F8204608F0AEFB01220446CA
:1033B000094907480DF078F8092C03DC302104484E
:1033C00009F036FB21460248BDE838400DF082B8CE
:1033D0000C520020D8980100EC9801002DE9F0472C
:1033E000BD4D2E682EB1012E00F0B88030BFBDE873
:1033F000F0870BF005FAB94FDFF848A33860B848FA
:10340000B84CDFF83483DFF834930AF02FF9012148
:10341000B34809F051FB0221B14809F047FB32469D
:103420003146AF4809F03EFB0A22AF49AC480DF0E7
:103430003BF8AB480DF0A6F80121A94809F036FB8E
:1034400031461222A64809F02DFB0522A749A448BF
:103450000DF02AF8DAF80010A14801310DF03AF821
:103460000122A3499E480DF01FF8DAF80020A14B75
:103470009B4853F8221033460A220DF0A9F8206821
:103480002821FFF73FFF37213868FFF73BFF9448BB
:103490000AF028FB984B21681E6898F800303868BD
:1034A000D9F800208E1B83F001038642CCBF002395
:1034B00003F00103134210D0DFF848A2DAF80060ED
:1034C000002E00F0E3800120FEF794F9012E02D1D6
:1034D000002840F056813868216888423ADB874FDF
:1034E0003E68002E00F03481022E00F010820D2183
:1034F0008348844F0CF098FA83480DF043F8D9F8CC
:103500000030002B40F0DA803B68002B00F0B380E5
:10351000012B00F048817D4E7D480E210CF084FA8D
:103520000BF06EF9FEF788FF0B217A480CF07CFA5D
:103530003068FEF781FF0B2177480CF075FA2068A0
:10354000FEF77AFF0123AE2165482B600AF096F85A
:10355000FEF706F82E68012E7FF448AFFDF718FC41
:1035600004200BF07DFA044603200BF079FA14B91D
:10357000002800F02F81694F694B3A681B689A4216
:10358000FFF634AF674B5F4A1B681468B3FA83F3E6
:103590005B09002C14BF002603F00106012C14BFA8
:1035A000002403F001040BF02BF9584B1B688342F5
:1035B000D4BF002004F00100002840F0AD81002EAF
:1035C00040F0AA81FDF79EFCFEF7B8F8454B564F38
:1035D0001C68DFF87481DFF874A10BF011F9464A1A
:1035E000524B1268201A841A24EAE47483FB0423E1
:1035F0002344E017C0EBE3200DF040FE0DF064FC27
:103600000EF052F94A4A4B4B386002FB004483FBF0
:10361000042323448146E017C0EB63100DF02EFE17
:103620000DF052FC0EF040F903011A1AC31A04EB14
:10363000830492004FF4616303FB0929C8F800403A
:103640004C44092CCAF8000000F328813A4A3B4B4D
:1036500012781B68002A0CBF002303F001030BB192
:10366000FEF780F901233C2202211D480AF030F9BF
:1036700000232B60BAE6324B2A4A21681B68126885
:10368000224E0B441A442260336045E70121052095
:103690000BF0C2F94FF4FA600BF02CFA314605201A
:1036A0000BF0BAF9DAF800600123012088F8003045
:1036B000FEF7A0F8012E3FF40BAF0CE73E68B6FA18
:1036C00086F676090020FEF795F816B900283FF433
:1036D0001BAFFEF735F917E7540A0020344F0020DE
:1036E0000C5200203C4F0020DC980100E8980100BB
:1036F000A4990100B052002004FAFF1F840A0020A0
:10370000F098010048520020D8FFFF1F9C51002074
:1037100010990100209901002C990100444F0020CC
:103720004452002070FAFF1F4C520020C5B3A291F2
:10373000F0F1FFFF89888888414F0020A4510020C4
:1037400064FAFF1F08530020AC520020DC51002017
:103750000A217C4802F020FF31467A4802F0F4FC4E
:103760000E21784802F0F0FC3146764802F0ECFC7D
:103770000A21744802F0E8FC724802F01FFF3E681C
:10378000B2E6012105200BF047F94FF4FA600BF087
:10379000B1F9002105200BF03FF9012338682168B9
:1037A00088F8003099E6684B1A68002A40F0BE801D
:1037B000664A23681168664E664803F5A83202F52A
:1037C000C0720B4422603360FDF73EF93068FEF7AB
:1037D00033FEA1E6604B614C1B68614A614DA06CF1
:1037E0005B0203F12406002156609362A5F8B41130
:1037F00000284BD005F04AFCA06C584B00283DD067
:103800002C22574905F050FD574806F0EFFF574B63
:103810001B6883BB01233C22022155480AF058F85B
:1038200064200BF067F9524809F020FF012150484D
:1038300009F042F902214E4809F038F900221146F8
:103840004B4809F02FF907224A4949480CF02CFE51
:1038500047480CF097FE0121454809F027F910224E
:10386000454943480CF020FE41480CF08BFE40488F
:103870000AF038F9FEE7FEF78BF8CBE7D86C0028A2
:10388000C2D02C22364904F00FF9BDE7E06C0028C5
:10389000BAD00022002303F0E9FAADE73146022056
:1038A0000BF0BAF8FFF7F6FA344A35491368DFF837
:1038B000BC9023F0104313600A78D9F80030002A36
:1038C0000CBF002303F001030BB1FEF761F8642085
:1038D0000BF010F998F800309AF800203978294850
:1038E00007F098FF284807F05BFD012102200BF04C
:1038F00093F84FF496700BF0FDF8D9F800300BB147
:10390000FEF70AF8214B1868FFF7E8FCAAE60B213E
:103910000E20FFF79BFAEAE5134806F067FFFDF774
:103920000DFFFDF709FB00233B605FE5184B2168A5
:103930001B68074E0B441A4422603360FEF7C2FD39
:10394000EAE500BFF053002070FAFF1F6C51002021
:103950009C51002000990100444F00205852002043
:103960001C530020484F002068520020A451002022
:103970000C520020389901004099010080F002406B
:10398000414F002024510020580A002058FAFF1F00
:1039900064FAFF1F2DE9F04F9BB0FEF745FEFDF7DF
:1039A0005BFE0AF02DFFAE4DAE4C2860AE48AF4F27
:1039B000DFF8E09209F05AFE0121AB4809F07CF8EB
:1039C0000221A94809F072F800221146A64809F020
:1039D00069F80822A649A4480CF066FD0121A24816
:1039E00009F064F8102200219F4809F05BF81222C8
:1039F000A0499D480CF058FD9B480CF0C3FD0721E1
:103A00009D4802F0F7FF0E219B4803F07FF80C2140
:103A1000994803F037F800260DF1380A4FF0000BF3
:103A2000964847F804BB0CF0ADFD9448DFF83482AB
:103A30000CF0A8FD0136052191480BF0F5FF314649
:103A40008E480CF047FD8D480CF09CFD31468648B1
:103A50000CF040FD04228B4983480CF025FD824880
:103A60000AF040F859F8043B874A0992DBB28DF816
:103A700020308DF821B0CDF828B008AA07CA0DF182
:103A80002C0E8EE807008DF82C307F4B0C938DF8B0
:103A90002DB0CDF834B09EE807008AE80700109BEF
:103AA00000939AE80C0008F29C4108F5916006F03A
:103AB000B7FF94F8953408F59162C4F88424002B7C
:103AC00048D01C2171480BF0AFFF6C480CF05AFD38
:103AD00006226F4964480CF0E7FC63480CF052FD85
:103AE000614809F0FFFF042E98D16A4B664F93F8A6
:103AF00000E08DF844E000268DF84560139612979B
:103B000011AB93E8070014AB83E807008DF8516010
:103B100016968DF850E0159793E8070017AB83E8E9
:103B200007005D49199A00920CCBA1F1140006F030
:103B300077FF94F89564594BC4F88434002E00F054
:103B4000BB800B22564948480CF0AEFC464809F0B1
:103B5000C9FFFEE708F59161404606F0ADFE00287A
:103B6000AFD0D8F87804002870D006F0CDFC80469D
:103B700008214C480BF058FF414640480CF0AAFC85
:103B80003E480CF0FFFC40460DF0E0FF46490EF0C9
:103B900031F8D4F87834334A8046002B00F078812D
:103BA00018790DF0CFFF014640460EF023F80EF0D5
:103BB0000DFA8046D4F8840407F0C4F80DF0C2FF73
:103BC00039490EF017F80EF001FA0A2183463748FA
:103BD0000BF02AFF002359460A2228480CF0F8FC73
:103BE00026480CF0CFFCB8F1C70F8CBFA8F1C80372
:103BF000002347F8043C11212D480BF015FF57F81E
:103C0000041C1E4800230A220CF0E2FC1B480CF0A6
:103C1000B9FC002357F8041C13480A220CF0D8FC06
:103C20000122244910480CF03FFC594600230A2287
:103C30000D480CF0CDFC0C480CF0A4FC0A4809F02F
:103C400051FF4FF47A700AF055FF4CE7D8F87C0426
:103C5000002801F0D68204F083FC804688E700BF8C
:103C6000884A00208C4A00200C5200200C5300206F
:103C70005499010060990100A4FAFF1FD8FFFF1FAB
:103C8000E89801007499010080F0FA02AC990100F3
:103C9000CC990100AC510020284F0020144F002087
:103CA000D49901007C990100BD37063A889901003A
:103CB00094990100A89901009A49A1F5916006F034
:103CC000FBFD00283FF43DAFFEF74CF8FDF7C4FCC8
:103CD000FEF722FD944B1A68944B9A4201F2DB8264
:103CE000934A924B12689A4201F2CC82914B1B7814
:103CF000172B01F2BE82904B1B783B2B01F2B08256
:103D00008E4B1B78172B01F2A2828D4B1B783B2B1D
:103D100001F294828B4F3B68012B05D90023194691
:103D20000C203B600AF0D8FB874B1B68072B01F285
:103D30007C82864B1A78082A01F26F82844B1B68BA
:103D40000F2B01F26182834E834C0AF059FD2B68E0
:103D50003060C31AB3F5167FD4BF002301230420BB
:103D600002930AF07DFE3B687C4A012B0CBF0823BE
:103D700007231360002800F09A8003200AF070FEE9
:103D8000002800F0BD8008200AF06AFE002800F03C
:103D9000A180734809F06AFC0121714808F08CFE8B
:103DA00002216F4808F082FE002211466C4808F09C
:103DB00079FE02216A4808F079FE2368694A52F8C0
:103DC000238040460FF0BCF94146024664480CF09F
:103DD0006BFB63480CF0D6FB0121614808F066FEDE
:103DE0002368614A52F8238040460FF0A9F9414602
:103DF00002465B480CF058FB59480CF0C3FBFEF739
:103E000003F90121564808F051FE0022642154486C
:103E100008F048FE4FF000094FF0080810200AF0A3
:103E20003FFA0DF093FE4FF06A510DF0E3FE0146AC
:103E300048460DF0D7FDB8F101088146EED14B4957
:103E40000DF0D8FE4FF078510DF0D4FE0DF028FAA9
:103E50004FF001080B460246CDF8008040480CF0B8
:103E6000F7FB424642493E480CF01EFB0AF0C8FCF4
:103E70003721FFF747FA3A4809F034FE0A200AF0E2
:103E800039FE029B002B3FF460AF1BB0BDE8F08F02
:103E9000D2F87C34002B01F0078293F83D340120E6
:103EA00098400DF04FFE7EE60A200AF023FE042023
:103EB0000AF0D6FD0028F7D0284A23681168264A60
:103EC00001338B422360A4BF0023136055E70A200F
:103ED0000AF010FE08200AF0C3FD0028F7D023687E
:103EE000072B00F2A882DFE813F05B0462004C02AB
:103EF000D6014001FB049F04D5000A200AF0FAFD18
:103F000003200AF0ADFD0028F7D02368124A013BD8
:103F1000002B2360BFF637AF104B1B68013B1360CB
:103F200031E700BF144F002064FAFF1FA086010094
:103F300070FAFF1F800A002004530020E051002087
:103F4000404F00204852002058FAFF1F60FAFF1F20
:103F500000FAFF1F344F0020A051002078FAFF1F05
:103F60000C52002038FAFF1F7CFAFF1FCDCCBC405A
:103F7000AC980100AD490DF03DFE4FF078510DF0C9
:103F800039FE0DF08DF94FF001080B460246CDF8D1
:103F90000080A7480CF05CFB4246A649A4480CF000
:103FA00083FAA34809F09EFD02200AF0A3FD082031
:103FB0000AF056FD0128804640F058829E4B4FF48F
:103FC000616201461868FDF7BDFF9B4B1860984879
:103FD00009F04CFB4146964808F06EFD02219448DA
:103FE00008F064FD00221146914808F05BFD0722AD
:103FF00092498F480CF058FA8D480CF0C3FA8E4B5A
:104000008B4819680CF066FA42468D4988480CF0D6
:104010004BFA87480CF0B6FAFDF7F6FF41468448A4
:1040200008F044FD00226421814808F03BFD4FF078
:1040300000094FF0080810200AF032F90DF086FD53
:104040004FF06A510DF0D6FD014648460DF0CAFC0E
:10405000B8F101088146EED18CE774490DF0CAFD34
:104060004FF078510DF0C6FD0DF01AF94FF0010830
:104070000B460246CDF800806D480CF0E9FA424646
:104080006C496B480CF010FA694809F02BFD0220CE
:104090000AF030FD08200AF0E3FC0128804640F0D9
:1040A0000B82684B17211878FCF718FC654B1870C9
:1040B0005F4809F0DBFA41465D4808F0FDFC02214B
:1040C0005B4808F0F3FC00221146594808F0EAFC6E
:1040D00007225D4956480CF0E7F955480CF052FAB2
:1040E00058495348097800230A220CF071FAFDF769
:1040F0008BFF41464E4808F0D9FC002264214C4811
:1041000008F0D0FC4FF000094FF0080810200AF02A
:10411000C7F80DF01BFD4FF06A510DF06BFD014625
:1041200048460DF05FFCB8F101088146EED194E7F6
:104130003E490DF05FFD4FF078510DF05BFD0DF045
:10414000AFF84FF001080B460246CDF80080384822
:104150000CF07EFA4246374935480CF0A5F9344850
:1041600009F0C0FC02200AF0C5FC08200AF078FC27
:104170000128804640F00883344B0F211868FCF773
:10418000ADFB324B1860FDF767FA294809F06EFA6B
:104190004146274808F090FC0221254808F086FC9B
:1041A00000221146224808F07DFC052228492048BB
:1041B0000CF07AF9254B1E4819680CF08BF91C4855
:1041C0000CF0E0F9234B18680DF06AF84FF0020A82
:1041D0000B460246CDF800A015480CF039FA5246BD
:1041E0001D4913480CF060F9FDF70EFF41461048D9
:1041F00008F05CFC002264210D4808F053FC4FF0ED
:1042000000094FF0080810200AF04AF80DF09EFC53
:104210004FF06A510DF0EEFC014648460DF0E2FB0E
:10422000B8F101088146EED182E700BFCDCCBC4099
:104230000C520020AC98010064FAFF1F009A0100A4
:10424000089A0100800A0020809A010000FAFF1FEE
:10425000289A0100A85100206498010089490DF0B6
:10426000C9FC4FF078510DF0C5FC0DF019F84FF076
:1042700001080B460246CDF8008083480CF0E8F9AF
:104280004246824980480CF00FF97F4809F02AFC29
:1042900002200AF02FFC08200AF0E2FB01288046E9
:1042A00040F0D9807A4B08211868FCF717FB784B4F
:1042B0001860754809F0DAF94146734808F0FCFBCC
:1042C0000221714808F0F2FB002211466E4808F006
:1042D000E9FB70496C4804220CF0E6F86A480CF0DF
:1042E00051F96B4A6C4B126853F822000DF02EFC0A
:1042F0006A490DF033FD0CF0D3FF02460B466248CD
:1043000067490CF057F9FDF77FFE41465E4808F01B
:10431000CDFB002264215C4808F0C4FB4FF000098B
:104320004FF00808102009F0BBFF0DF00FFC4FF014
:104330006A510DF05FFC014648460DF053FBB8F1A1
:1043400001088146EED189E74E490DF053FC4FF04C
:1043500078510DF04FFC0CF0A3FF4FF001080B4615
:104360000246CDF8008048480CF072F942464749B1
:1043700045480CF099F8444809F0B4FB02200AF0D3
:10438000B9FB08200AF06CFB012880464CD1454B54
:1043900045491868FCF7A2FA424B18603A4809F000
:1043A00065F94146384808F087FB0221364808F095
:1043B0007DFB00221146344808F074FB06223B497D
:1043C00031480CF071F830480CF0DCF8354B2E48D1
:1043D00019680CF07FF8424635492B480CF064F818
:1043E00029480CF0CFF8FDF70FFE4146264808F0AB
:1043F0005DFB00226421244808F054FB4FF00009C3
:104400004FF00808102009F04BFF0DF09FFB4FF014
:104410006A510DF0EFFB014648460DF0E3FAB8F1A2
:1044200001088146EED18FE708200AF019FB002829
:10443000FAD000232360DFF87C8098F80030002B4E
:104440003FF4A7ACFEF768F9002388F800300AF0C3
:10445000D7F928609DE408200AF002FB0028E8D183
:1044600008200AF0FDFA0028F5D0E2E708200AF05B
:10447000F7FA0028DDD108200AF0F2FA0028F5D07A
:10448000D7E700BFCDCCBC400C520020AC98010057
:1044900058FAFF1F149A010014FAFF1F00007A4413
:1044A0001C9A010070FAFF1F805101000C9A010054
:1044B000089A0100384F002008200AF0D1FA00289D
:1044C000FAD008200AF0CCFA0128804668D1CB4BFC
:1044D0003B211878FCF702FAC84B1870C84809F05D
:1044E000C5F84146C64808F0E7FA0221C44808F07A
:1044F000DDFA00221146C24808F0D4FA0822C14968
:10450000BF480BF0D1FFBE480CF03CF8BB49BC489B
:10451000097800230A220CF05BF8FDF775FD41468F
:10452000B74808F0C3FA00226421B54808F0BAFA87
:104530004FF000094FF00808102009F0B1FE0DF00F
:1045400005FB4FF06A510DF055FB014648460DF052
:1045500049FAB8F101088146EED1AB490DF04AFBAA
:104560004FF078510DF046FB0CF09AFE4FF0010829
:104570000B460246CDF80080A1480CF069F842468F
:10458000A2499F480BF090FF9D4809F0ABFA02202A
:104590000AF0B0FA08200AF063FA0128804696D0A3
:1045A00008200AF05DFA0028FAD008200AF058FA2C
:1045B0000128804668D1964B17211878FCF78EF9B0
:1045C000934B18708E4809F051F841468C4808F01A
:1045D00073FA02218A4808F069FA002211468848D5
:1045E00008F060FA06228B4985480BF05DFF84488D
:1045F0000BF0C8FF86498248097800230A220BF095
:10460000E7FFFDF701FD41467D4808F04FFA002223
:1046100064217B4808F046FA4FF000094FF0080883
:10462000102009F03DFE0DF091FA4FF06A510DF0A7
:10463000E1FA014648460DF0D5F9B8F10108814686
:10464000EED171490DF0D6FA4FF078510DF0D2FA53
:104650000CF026FE4FF001080B460246CDF8008014
:1046600067480BF0F5FF4246684965480BF01CFFB0
:10467000634809F037FA02200AF03CFA08200AF0F1
:10468000EFF90128804696D008200AF0E9F90028C1
:10469000FAD008200AF0E4F90128804668D15E4B80
:1046A0003B211878FCF71AF95B4B1870544808F056
:1046B000DDFF4146524808F0FFF90221504808F05A
:1046C000F5F9002211464E4808F0ECF9072253494B
:1046D0004B480BF0E9FE4A480BF054FF4E4948485E
:1046E000097800230A220BF073FFFDF78DFC414689
:1046F000434808F0DBF900226421414808F0D2F970
:104700004FF000094FF00808102009F0C9FD0DF026
:104710001DFA4FF06A510DF06DFA014648460DF052
:1047200061F9B8F101088146EED137490DF062FA1E
:104730004FF078510DF05EFA0CF0B2FD4FF0010829
:104740000B460246CDF800802D480BF081FF424613
:104750002E492B480BF0A8FE294809F0C3F9022086
:104760000AF0C8F908200AF07BF90128804696D0A3
:1047700008200AF075F900287FF45BAE08200AF0E3
:104780006FF90028F4D054E608200AF069F90028EF
:104790007FF44FAE08200AF063F90028F4D048E611
:1047A000174808F063FF0121154808F085F9022138
:1047B000134808F07BF900221146114808F072F9FD
:1047C000FDF7AAFF0A2216490D480BF06DFE0C48B2
:1047D0000BF0D8FE01210A4808F068F913221149AC
:1047E00007480BF061FE064809F07CF94FF4FA60C7
:1047F0000AF080F9012302931DE600BF0453002054
:104800000C520020889A0100CDCCBC40AC9801002D
:10481000E0510020949A0100404F00209C9A010032
:10482000E0990100EC990100DFF8B09005E025481F
:1048300009F058F902200AF05DF908200AF010F991
:1048400001288046014630D13868FCF747F83860C7
:104850001C4808F00BFF41461A4808F02DF90221C8
:10486000184808F023F900221146164808F01AF9F2
:104870000522154913480BF017FE3B6833B9042293
:10488000124910480BF010FED9F80030012BCED1A0
:104890000F4B10491B680B480522002B40F0AC84DD
:1048A0000D4904220BF000FEC1E708200AF0D8F8F9
:1048B00000287FF4BEAD08200AF0D2F80028F4D01A
:1048C000B7E500BF0C520020609A0100689A010011
:1048D000A4510020789A0100709A010048520020EB
:1048E00008200AF0BDF80128DFF8F883DFF8F89314
:1048F00040F0AB803068DFF8F4A307F04DF940F6E4
:1049000034024FF4FA61C9F80000FDF71BFBD9F837
:104910000030CAF80000984234D0D8F8000007F000
:1049200029F90590D8F8000007F0DCF88346D8F89C
:10493000000007F0E9F80390D8F8000007F0F6F857
:104940000490D8F8000007F003F90DF1680E9DF807
:104950000C200EF8502DDAF800300599049A8DF8E5
:104960001D004E3370468DF81A108DF81E308DF8EC
:104970001C208DF819B007F023F909F047FF09F062
:104980003FFF2860D14808F071FE0121CF4808F0B0
:1049900093F80221CD4808F089F800221146CB484F
:1049A00008F080F80522CA49C8480BF07DFDC748C9
:1049B0000BF0E8FD09F024FF07F0EEF80146C348CC
:1049C0000BF088FDFDF720FB0121C04808F06EF8D0
:1049D00000226421BD4808F065F84FF0000B4FF04D
:1049E000080A102009F05CFC0DF0B0F84FF06A5195
:1049F0000DF000F9014658460CF0F4FFBAF1010A37
:104A00008346EED1B3490DF0F5F84FF078510DF033
:104A1000F1F80CF045FC4FF0010A0B460246CDF8C8
:104A200000A0AA480BF014FE5246AB49A7480BF071
:104A30003BFDA64809F056F802200AF05BF8082072
:104A40000AF00EF801283FF455AF08200AF008F8E4
:104A50000028FAD008200AF003F80128DFF8848241
:104A6000DFF88C92834640F0AA803068DFF884A299
:104A700007F06EF859460C22C9F80000FDF762FAFB
:104A8000D9F80030CAF80000984234D0D8F80000B5
:104A900007F070F80590D8F8000007F023F8834677
:104AA000D8F8000007F030F80490D8F8000007F0BC
:104AB0003DF80390D8F80000DAF800A007F06CF891
:104AC0000DF1680E04990EF8501D00F14E0C059A78
:104AD000039B8DF81A2070468DF81EC08DF81C308F
:104AE0008DF81DA08DF819B007F06AF809F08EFE58
:104AF00009F086FE2860754808F0B8FD012173486A
:104B000007F0DAFF0221714807F0D0FF00221146BA
:104B10006E4807F0C7FF062270496C480BF0C4FCD2
:104B20006A480BF02FFD09F06BFE07F011F8014603
:104B300066480BF0CFFCFDF767FA0121634807F0E8
:104B4000B5FF00226421614807F0ACFF4FF0000B75
:104B50004FF0080A102009F0A3FB0CF0F7FF4FF00C
:104B60006A510DF047F8014658460CF03BFFBAF188
:104B7000010A8346EED157490DF03CF84FF07851C9
:104B80000DF038F80CF08CFB4FF0010A0B46024692
:104B9000CDF800A04D480BF05BFD52464E494B4806
:104BA0000BF082FC494808F09DFF022009F0A2FFAB
:104BB000082009F055FF012883463FF456AF08202E
:104BC00009F04EFF0028FAD0082009F049FF01281B
:104BD000DFF81081DFF82091834640F0C68030680E
:104BE000DFF818A106F0A2FF59461F22C9F80000FD
:104BF000FDF7A8F9D9F80030CAF80000984235D07E
:104C0000D8F8000006F0B6FF0590D8F8000006F0CE
:104C100069FF8346D8F8000006F076FFDAF8001046
:104C20000490D8F80000039106F092FF8246D8F86D
:104C3000000006F0B1FF0DF1680E049A0EF8502D39
:104C400000F14E0C059B03998DF81A3070468DF8D3
:104C50001EC08DF81C108DF81DA08DF819B006F03F
:104C6000AFFF09F0D3FD09F0CBFD2860174808F02D
:104C7000FDFC0121154807F01FFF0221134807F032
:104C800015FF00221146114807F00CFF04221449B9
:104C90000E480BF009FC0D480BF074FC09F0B0FD58
:104CA00006F044FF014609480BF014FCFDF7ACF98F
:104CB0000121064807F0FAFE00226421034807F0AC
:104CC000F1FE4FF0000B4FF0080A19E00C520020E3
:104CD000309A0100CDCCBC40AC980100389A01005C
:104CE000409A0100344F0020C8520020BC510020DF
:104CF00000530020705100201C51002064510020FE
:104D0000102009F0CDFA0CF021FF4FF06A510CF0A1
:104D100071FF014658460CF065FEBAF1010A834660
:104D2000EED1D7490CF066FF4FF078510CF062FFDE
:104D30000CF0B6FA4FF0010A0B460246CDF800A07F
:104D4000D0480BF085FC5246CF49CE480BF0ACFB67
:104D5000CC4808F0C7FE022009F0CCFE082009F07C
:104D60007FFE012883463FF43AAF082009F078FE21
:104D70000028FAD0082009F073FE0128DFF8148318
:104D8000DFF8149340F0A380306806F0F3FE17219B
:104D9000C9F80000FBF7A2FDD9F80030984282461E
:104DA00032D0D8F8000006F09DFE0590D8F800003B
:104DB00006F0AAFE0490D8F8000006F0B7FE83467D
:104DC000D8F8000006F0C4FE0390D8F8000006F002
:104DD000E3FE0DF1680E04990EF8501D00F14E0C23
:104DE000059A039B8DF8192070468DF81EC08DF82A
:104DF0001D308DF81CB08DF81AA006F0E1FE09F008
:104E000005FD09F0FDFC28609E4808F02FFC0121FB
:104E10009C4807F051FE02219A4807F047FE002205
:104E20001146984807F03EFE0522984995480BF038
:104E30003BFB94480BF0A6FB09F0E2FC06F09AFE5F
:104E4000014690480BF046FBFDF7DEF801218D4846
:104E500007F02CFE002264218A4807F023FE4FF061
:104E6000000B4FF0080A102009F01AFA0CF06EFE41
:104E70004FF06A510CF0BEFE014658460CF0B2FDF0
:104E8000BAF1010A8346EED17D490CF0B3FE4FF032
:104E900078510CF0AFFE0CF003FA4FF0010A0B460C
:104EA0000246CDF800A077480BF0D2FB5246764977
:104EB00074480BF0F9FA734808F014FE022009F068
:104EC00019FE082009F0CCFD01283FF45DAF082051
:104ED00009F0C6FD0028FAD0082009F0C1FD01281C
:104EE000DFF8B081DFF8B49140F0A9803068DFF8D6
:104EF000B0A106F0F7FD3B21C9F80000FBF7EEFC7E
:104F0000D9F80030CAF80000984235D0D8F800002F
:104F100006F030FEDAF800300590D8F8000004936F
:104F200006F0F2FD0390D8F8000006F0FFFD83467E
:104F3000D8F8000006F00CFE8246D8F8000006F013
:104F40002BFE0DF1680E03990EF8501D00F14E0C6A
:104F5000059A049B8DF81A2070468DF81EC08DF8B6
:104F600019308DF81DA08DF81CB006F029FE09F04F
:104F70004DFC09F045FC2860424808F077FB012110
:104F8000404807F099FD02213E4807F08FFD0022BE
:104F900011463C4807F086FD07223D4939480BF091
:104FA00083FA38480BF0EEFA09F02AFC06F09AFD75
:104FB000014634480BF08EFAFDF726F801213148FE
:104FC00007F074FD002264212E4807F06BFD4FF0BE
:104FD000000B4FF0080A102009F062F90CF0B6FD42
:104FE0004FF06A510CF006FE014658460CF0FAFCF0
:104FF000BAF1010A8346EED121490CF0FBFD4FF0D6
:1050000078510CF0F7FD0CF04BF94FF0010A0B460C
:105010000246CDF800A01B480BF01AFB52461A4975
:1050200018480BF041FA174808F05CFD022009F01F
:1050300061FD082009F014FD01283FF457AF082056
:1050400009F00EFD0028FAD0082009F009FD01281A
:10505000DFF84080DFF84C9040F0C1803068DFF826
:1050600048A006F051FD3B21C9F80000FBF736FCD3
:10507000D9F80030CAF8000098424DD016E000BFC1
:10508000CDCCBC400C520020AC980100489A0100E5
:10509000509A0100344F002020510020C0510020C0
:1050A000304F0020D052002068510020D8F8000076
:1050B00006F060FD0590D8F8000006F013FDDAF860
:1050C000001004918346D8F8000006F02FFD8246B8
:1050D000D8F8000006F03CFD0390D8F8000006F078
:1050E0005BFD0DF1680E04990EF8501D00F14E0C99
:1050F000059A039B8DF81A2070468DF81EC08DF816
:105100001D308DF81CA08DF819B006F059FD09F07E
:105110007DFB09F075FB2860654808F0A7FA0121BE
:10512000634807F0C9FC0221614807F0BFFC002278
:1051300011465F4807F0B6FC07225E495C480BF059
:10514000B3F95B480BF01EFA09F05AFB06F0DCFCE1
:10515000014657480BF0BEF9FCF756FF01215448B1
:1051600007F0A4FC00226421514807F09BFC4FF09B
:10517000000B4FF0080A102009F092F80CF0E6FC42
:105180004FF06A510CF036FD014658460CF02AFCEF
:10519000BAF1010A8346EED147490CF02BFD4FF0DE
:1051A00078510CF027FD0CF07BF84FF0010A0B460C
:1051B0000246CDF800A03E480BF04AFA52463F495D
:1051C0003B480BF071F93A4808F08CFC022009F0DA
:1051D00091FC082009F044FC01283FF43FAF08206F
:1051E00009F03EFC00287FF424A9082009F038FCCF
:1051F0000028F4D0FFF71DB92D480BF055F9FFF743
:1052000016BB8046FEF7B4BC04232D4A19460F2076
:10521000136009F061F9FEF796BD082211460E20D1
:105220001A7009F059F9FEF789BD0823254A194675
:105230000D20136009F050F9FEF77BBD0023224AD0
:1052400019460B20137009F047F9FEF763BD0023E0
:105250001E4A19460A20137009F03EF9FEF755BDA3
:1052600000231B4A19460920137009F035F9FEF78F
:1052700047BD0023174A19460820137009F02CF97E
:10528000FEF739BD3C23144A194604201360FDF78C
:105290002BFAFEF72BBD3C23104A3046194613600B
:1052A000FDF722FAFEF71CBD0020FEF77CBC00BF14
:1052B0000C520020589A0100CDCCBC40AC980100A3
:1052C00000FAFF1F58FAFF1F404F0020E051002056
:1052D00004530020800A002070FAFF1F64FAFF1FA9
:1052E0002DE9F84F72B6C749C74BC84841250E246F
:1052F00080220D70047019461A700B78C24A180685
:10530000FBD5C34BC3481D78C34CC4490570033B50
:10531000247809781B78C3704470817062B672B6C5
:10532000B849BA4C41260F2580230E7025701146CE
:1053300013700B781B06FCD5B54CB749B74AB84B70
:105340002478097812781B78C371047141718271D5
:1053500062B6B44BB44EB54FDFF814930F2414214A
:1053600015220A255C604FF4FA7000249960DA6017
:105370001D6009F0BFFB6420346009F0BBFB4FF4F3
:1053800030533360642009F0B5FB4FF4345333607D
:10539000642009F0AFFBA64BA648196810222346EB
:1053A0000BF016F9A3480BF0EDF83168A14823463D
:1053B00010220BF00DF99F480BF0E4F89E4B9D482E
:1053C0001968102223460BF003F99A480BF0DAF81B
:1053D0002A463968974823460BF0FAF895480BF0AF
:1053E000D1F84FF47A7009F085FB2A463968914864
:1053F00023460BF0EDF88F480BF0C4F84FF47A70A9
:1054000009F078FB2A46234639688A488B4D0BF011
:10541000DFF888480BF0B6F8894800F03BFF01211F
:10542000062009F02BFB0121062009F0F5FA2146A0
:10543000102009F023FB204608F0A6FE01210220DF
:1054400009F01CFB0121022009F0E6FA01210520E8
:1054500009F014FB2146052009F0DEFA794B1B68A0
:10546000012B08BF1E234FF002014FF0040008BFBC
:10547000C9F8003009F002FB0221032009F0FEFA0E
:105480000221082009F0FAFA09F0BAF96E4B2860F7
:10549000984240F38C8101233C2202216B486C4EE0
:1054A000DFF8D0816B4C6C4F08F012FA8C2009F0B9
:1054B00021FB664808F0DAF80121644807F0FCFA9D
:1054C0000221624807F0F2FA002211465F4807F015
:1054D000E9FA0A2261495D480AF0E6FF5B480BF0F1
:1054E00051F85A4808F0FEFA584808F0BFF8012170
:1054F000564807F0E1FA0221544807F0D7FA002293
:105500001146524807F0CEFA0A2254494F480AF091
:10551000CBFF4E480BF036F84C4808F0E3FA6E210A
:105520004F480AF0D5FBD6F800A058F82AB05846E4
:105530000CF00CFB102120605846FDF755F940484F
:1055400000F0A8FE5046FDF7D9FCFEF723FA3668B6
:10555000DFF824A158F8268040460CF0F7FA102115
:1055600020604046FDF740F9354800F093FE304694
:10557000FDF7C4FCFCF724F8344808F077F8012163
:10558000324807F099FA0221304807F08FFA0022DA
:1055900011462E4807F086FA3B683C2B07DDB3F531
:1055A000967FD4BF3C234FF49673CAF8003009F0BD
:1055B00027F9DFF8C8802B49DAF800302A4ED8F8EE
:1055C0000020096890FBF3FE286003FB0E33274898
:1055D000336001291344036000F0ED8010460CF0A5
:1055E000B5FA2168DFF898A0DFF898B00CF002FB5C
:1055F0004FF06E510CF0FEFA4FF074510CF0FAFAC5
:1056000042E000BF070002400000024006000240E6
:105610000B000240945100200A00024009000240A1
:1056200008000240AC51002010D0034000D00340DD
:1056300014D00340D8FFFF1F18D00340344F002080
:10564000F0530020A45100207FC185560C52002049
:1056500058FAFF1FA852002070FAFF1FA49A0100F9
:105660000082FF1F485200203C4F00209C51002028
:1056700004FAFF1F14FAFF1F5CFAFF1F64FAFF1FF2
:10568000445200204C5200200BF00AFE0BF094FB19
:1056900000224B4B0BF058FE0CF006F93A68D9F893
:1056A0000040484BCAF80000141B24EAE47983FB4D
:1056B00009234B444FEAE970C0EBE3200BF0DEFD19
:1056C0000BF002FC0CF0F0F83F4C404BCBF8000024
:1056D00004FB009483FB04232344E017C0EB631016
:1056E0000BF0CCFD0BF0F0FB0CF0DEF8DFF808A1BE
:1056F000DFF808910346A0EB001004EB80041021B2
:105700003348C9F80030CAF800400AF08DF9DBF8D8
:10571000001030480AF0DEFED9F800102D480AF0DB
:10572000D9FEDAF800102B480AF0D4FE29480AF016
:1057300029FF082128480AF077F9D8F800102548F1
:105740000AF0C8FE23480AF01DFF082123480AF08A
:105750006BF939681F480AF0BDFE1E480AF012FFB7
:105760000E211F480AF060F92868FCF765FE0C213D
:105770001C480AF059F93068FCF75EFE33682C6863
:1057800019481C1B15210AF04FF9214611480AF04F
:10579000A1FE10480AF0F6FE144B15494FF0FF32F7
:1057A00000201A60BDE8F84F0860FBF7C7BF11483A
:1057B00009F02CF86FE6FCF785FED8F800200DE71D
:1057C00000004040C5B3A291F0F1FFFF89888888AE
:1057D000B09A0100D8FFFF1FC49A0100D09A0100BF
:1057E00010990100DC9A0100EC9A0100CC520020D3
:1057F000540A002080C18556AC520020DC510020A4
:105800000020704700207047F8B5C34C01260546BC
:105810000671204600F03EFD052009F06BF9297A5B
:10582000204600F0E3FD2046002100F08DFC2046DC
:10583000302100F089FC2046402100F085FC6021E9
:10584000204600F081FC204600F0B8FE297A204670
:1058500000F0CCFD2046002100F076FC20462621F9
:1058600000F072FC2046002100F06EFC6C21204606
:1058700000F06AFC204600F0A1FE297A204600F0E4
:10588000B5FD2046002100F05FFC2046282100F0F5
:105890005BFC3146204600F057FCF221204600F028
:1058A00053FC204600F08AFE297A204600F09EFD37
:1058B0002046002100F048FC20462C2100F044FC4A
:1058C00020460F2100F040FC2221204600F03CFC45
:1058D000204600F073FE297A204600F087FD20461E
:1058E000002100F031FC20463C2100F02DFC204638
:1058F000442100F029FC4621204600F025FC2046EA
:1059000000F05CFE40F23713EB80297A204600F06D
:105910006DFD2046002100F017FC2046242100F0F8
:1059200013FC3146204600F00FFC3721204600F0E2
:105930000BFC204600F042FE297A204600F056FD7E
:105940002046002100F000FC2046302100F0FCFB46
:105950002046402100F0F8FBFF21204600F0F4FB38
:10596000204600F02BFE297A204600F03FFD20461D
:10597000002100F0E9FB2046022100F0E5FB204673
:10598000002100F0E1FB7321204600F0DDFB204602
:1059900000F014FE4FF4C87009F0ACF8297A2046E4
:1059A00000F024FD2046002100F0CEFB20462E21F1
:1059B00000F0CAFB20461D2100F0C6FB1D21204639
:1059C00000F0C2FB204600F0F9FD297A204600F0E5
:1059D0000DFD2046002100F0B7FB2046042100F019
:1059E000B3FB2046002100F0AFFB0421204600F06D
:1059F000ABFB204600F0E2FD297A204600F0F6FCE1
:105A00002046002100F0A0FB2046062100F09CFB70
:105A10003146204600F098FB3021204600F094FBF0
:105A2000204600F0CBFD297A204600F0DFFC20461E
:105A3000002100F089FB20460A2100F085FB20466A
:105A4000002100F081FB1021204600F07DFB204664
:105A500000F0B4FD297A204600F0C8FC2046002161
:105A600000F072FB20460E2100F06EFB2046002164
:105A700000F06AFB0021204600F066FB204600F0A3
:105A80009DFD297A204600F0B1FC2046002100F05F
:105A90005BFB2046102100F057FB20463C2100F024
:105AA00053FB3C21204600F04FFB204600F086FDD2
:105AB000297A204600F09AFC2046002100F044FBA1
:105AC0002046222100F040FB20467F2100F03CFBD5
:105AD0007F21204600F038FB3627204600F06EFD7F
